{
  "contractName": "RBBLib",
  "abi": [
    {
      "inputs": [
        {
          "internalType": "string",
          "name": "a",
          "type": "string"
        },
        {
          "internalType": "string",
          "name": "b",
          "type": "string"
        }
      ],
      "name": "isEqual",
      "outputs": [
        {
          "internalType": "bool",
          "name": "",
          "type": "bool"
        }
      ],
      "stateMutability": "pure",
      "type": "function"
    },
    {
      "inputs": [
        {
          "internalType": "string",
          "name": "_String",
          "type": "string"
        }
      ],
      "name": "stringBytes32",
      "outputs": [
        {
          "internalType": "bytes32",
          "name": "",
          "type": "bytes32"
        }
      ],
      "stateMutability": "pure",
      "type": "function"
    },
    {
      "inputs": [
        {
          "internalType": "uint256",
          "name": "_i",
          "type": "uint256"
        }
      ],
      "name": "uintToStr",
      "outputs": [
        {
          "internalType": "string",
          "name": "",
          "type": "string"
        }
      ],
      "stateMutability": "pure",
      "type": "function"
    },
    {
      "inputs": [
        {
          "internalType": "bytes32",
          "name": "_bytes32",
          "type": "bytes32"
        }
      ],
      "name": "bytes32ToStr",
      "outputs": [
        {
          "internalType": "string",
          "name": "",
          "type": "string"
        }
      ],
      "stateMutability": "pure",
      "type": "function"
    },
    {
      "inputs": [
        {
          "internalType": "string",
          "name": "_string",
          "type": "string"
        }
      ],
      "name": "stringtoUint",
      "outputs": [
        {
          "internalType": "uint256",
          "name": "",
          "type": "uint256"
        }
      ],
      "stateMutability": "pure",
      "type": "function"
    }
  ],
  "bytecode": "0x610a67610026600b82828239805160001a60731461001957fe5b30600052607381538281f3fe73000000000000000000000000000000000000000030146080604052600436106100615760003560e01c80633581ee5414610066578063465c410514610135578063592c80ee1461029d578063ef0b23681461036c578063fc966d4514610413575b600080fd5b61011f6004803603602081101561007c57600080fd5b810190808035906020019064010000000081111561009957600080fd5b8201836020820111156100ab57600080fd5b803590602001918460018302840111640100000000831117156100cd57600080fd5b91908080601f016020809104026020016040519081016040528093929190818152602001838380828437600081840152601f19601f8201169050808301925050505050505091929192905050506104ba565b6040518082815260200191505060405180910390f35b6102856004803603604081101561014b57600080fd5b810190808035906020019064010000000081111561016857600080fd5b82018360208201111561017a57600080fd5b8035906020019184600183028401116401000000008311171561019c57600080fd5b91908080601f016020809104026020016040519081016040528093929190818152602001838380828437600081840152601f19601f820116905080830192505050505050509192919290803590602001906401000000008111156101ff57600080fd5b82018360208201111561021157600080fd5b8035906020019184600183028401116401000000008311171561023357600080fd5b91908080601f016020809104026020016040519081016040528093929190818152602001838380828437600081840152601f19601f820116905080830192505050505050509192919290505050610510565b60405180821515815260200191505060405180910390f35b610356600480360360208110156102b357600080fd5b81019080803590602001906401000000008111156102d057600080fd5b8201836020820111156102e257600080fd5b8035906020019184600183028401116401000000008311171561030457600080fd5b91908080601f016020809104026020016040519081016040528093929190818152602001838380828437600081840152601f19601f820116905080830192505050505050509192919290505050610604565b6040518082815260200191505060405180910390f35b6103986004803603602081101561038257600080fd5b810190808035906020019092919050505061061c565b6040518080602001828103825283818151815260200191508051906020019080838360005b838110156103d85780820151818401526020810190506103bd565b50505050905090810190601f1680156104055780820380516001836020036101000a031916815260200191505b509250505060405180910390f35b61043f6004803603602081101561042957600080fd5b8101908080359060200190929190505050610869565b6040518080602001828103825283818151815260200191508051906020019080838360005b8381101561047f578082015181840152602081019050610464565b50505050905090810190601f1680156104ac5780820380516001836020036101000a031916815260200191505b509250505060405180910390f35b600080606083905060005b815181101561050557600a8302925060308282815181106104e257fe5b602001015160f81c60f81b60f81c60ff16038301925080806001019150506104c5565b508192505050919050565b600080826040516020018082805190602001908083835b6020831061054a5780518252602082019150602081019050602083039250610527565b6001836020036101000a03801982511681845116808217855250505050505090500191505060405160208183030381529060405280519060200120846040516020018082805190602001908083835b602083106105bc5780518252602082019150602081019050602083039250610599565b6001836020036101000a038019825116818451168082178552505050505050905001915050604051602081830303815290604052805190602001201490508091505092915050565b60006060829050610614816109b4565b915050919050565b606080602067ffffffffffffffff8111801561063757600080fd5b506040519080825280601f01601f19166020018201604052801561066a5781602001600182028036833780820191505090505b5090506060600167ffffffffffffffff8111801561068757600080fd5b506040519080825280601f01601f1916602001820160405280156106ba5781602001600182028036833780820191505090505b509050606060005b602081101561085d578581602081106106d757fe5b1a60f81b836000815181106106e857fe5b60200101907effffffffffffffffffffffffffffffffffffffffffffffffffffffffffffff1916908160001a90535083818151811061072357fe5b602001015160f81c60f81b7effffffffffffffffffffffffffffffffffffffffffffffffffffffffffffff19168360008151811061075d57fe5b602001015160f81c60f81b7effffffffffffffffffffffffffffffffffffffffffffffffffffffffffffff1916146108505781836040516020018083805190602001908083835b602083106107c757805182526020820191506020810190506020830392506107a4565b6001836020036101000a03801982511681845116808217855250505050505090500182805190602001908083835b6020831061081857805182526020820191506020810190506020830392506107f5565b6001836020036101000a0380198251168184511680821785525050505050509050019250505060405160208183030381529060405291505b80806001019150506106c2565b50809350505050919050565b6060600082905060008114156108b7576040518060400160405280600181526020017f30000000000000000000000000000000000000000000000000000000000000008152509150506109af565b600081905060005b600082146108e1578080600101915050600a82816108d957fe5b0491506108bf565b60608167ffffffffffffffff811180156108fa57600080fd5b506040519080825280601f01601f19166020018201604052801561092d5781602001600182028036833780820191505090505b50905060006001830390505b600085146109a657600a858161094b57fe5b0660300160f81b8282806001900393508151811061096557fe5b60200101907effffffffffffffffffffffffffffffffffffffffffffffffffffffffffffff1916908160001a905350600a858161099e57fe5b049450610939565b81955050505050505b919050565b60008060008351905060208111156109cb57602090505b60005b81811015610a2657600881028582815181106109e657fe5b602001015160f81c60f81b7effffffffffffffffffffffffffffffffffffffffffffffffffffffffffffff1916901c8317925080806001019150506109ce565b50819250505091905056fea2646970667358221220e206de20f248eaf569bf6eb31897763f33d37a98620343e5a9abf77afa18723e64736f6c634300060c0033",
  "immutableReferences": {},
  "source": "\npragma solidity ^0.6.0;\n\nlibrary RBBLib {\n\n  function isEqual(string memory a, string memory b) public pure returns (bool) {\n    bool r = keccak256(abi.encodePacked(a)) == keccak256(abi.encodePacked(b));\n    return r;\n  }\n\n  function bytesToBytes32(bytes memory _bytes) private pure returns (bytes32) {\n        bytes32 out;\n        uint _len= _bytes.length;\n        if(_len>32){\n            _len = 32;\n        }\n        for (uint i = 0; i < _len; i++) {\n            out |= bytes32(_bytes[i]) >> (i * 8);\n        }\n        return out;\n  }\n\n  function stringBytes32(string memory _String ) pure public returns(bytes32  ){\n        bytes memory _bytes = bytes(_String);\n              \n        return bytesToBytes32(_bytes);\n       // bytes memory b = abi.encodePacked(a);\n       \n  } \n\n\n  function uintToStr(uint _i) public pure returns (string memory ) {\n        uint number = _i;\n        if (number == 0) {\n            return \"0\";\n        }\n        uint j = number;\n        uint len;\n        while (j != 0) {\n            len++;\n            j /= 10;\n        }\n        bytes memory bstr = new bytes(len);\n        uint k = len - 1;\n        while (number != 0) {\n            bstr[k--] = byte(uint8(48 + number % 10));\n            number /= 10;\n        }\n        return string(bstr);\n  }\n    \n  function bytes32ToStr(bytes32 _bytes32) public pure returns (string memory) {\n\n\n    bytes memory compare = new bytes(32);\n    //bytes memory bytesArray = new bytes(32);\n    bytes memory bytesArray = new bytes(1);\n    string memory stringOut;\n    for (uint256 i; i < 32; i++) {\n        bytesArray[0] = _bytes32[i];\n        if(bytesArray[0] != compare[i]){\n            stringOut = string(abi.encodePacked(stringOut,string(bytesArray)));\n            \n        }\n    }\n    \n    \n    return stringOut;\n    //return string(bytesArray);\n    }\n\n\n  function stringtoUint(string memory _string) pure public returns(uint256){\n       uint256 number;\n       bytes memory b =bytes(_string);\n        for(uint i=0;i<b.length;i++){\n            number = number*10;\n            number = number + (uint256(uint8(b[i]))-48);\n        }\n       return number;\n   }\n\n\n\n    \n\n}",
  "sourcePath": "/Users/suzana.moreno/workspace/rbb-identificacao/Back-Blockchain/contracts/RBBLib.sol",
  "compiler": {
    "name": "solc",
    "version": "0.6.12+commit.27d51765.Emscripten.clang"
  },
  "schemaVersion": "3.2.5",
  "updatedAt": "2021-03-04T14:11:48.012Z",
  "devdoc": {
    "kind": "dev",
    "methods": {},
    "version": 1
  },
  "userdoc": {
    "kind": "user",
    "methods": {},
    "version": 1
  }
}