{
  "contractName": "RBBLib",
  "abi": [
    {
      "constant": true,
      "inputs": [
        {
          "name": "a",
          "type": "string"
        },
        {
          "name": "b",
          "type": "string"
        }
      ],
      "name": "isEqual",
      "outputs": [
        {
          "name": "",
          "type": "bool"
        }
      ],
      "payable": false,
      "stateMutability": "pure",
      "type": "function"
    },
    {
      "constant": true,
      "inputs": [
        {
          "name": "_String",
          "type": "string"
        }
      ],
      "name": "stringBytes32",
      "outputs": [
        {
          "name": "",
          "type": "bytes32"
        }
      ],
      "payable": false,
      "stateMutability": "pure",
      "type": "function"
    },
    {
      "constant": true,
      "inputs": [
        {
          "name": "_i",
          "type": "uint256"
        }
      ],
      "name": "uintToStr",
      "outputs": [
        {
          "name": "",
          "type": "string"
        }
      ],
      "payable": false,
      "stateMutability": "pure",
      "type": "function"
    },
    {
      "constant": true,
      "inputs": [
        {
          "name": "_bytes32",
          "type": "bytes32"
        }
      ],
      "name": "bytes32ToStr",
      "outputs": [
        {
          "name": "",
          "type": "string"
        }
      ],
      "payable": false,
      "stateMutability": "pure",
      "type": "function"
    },
    {
      "constant": true,
      "inputs": [
        {
          "name": "_string",
          "type": "string"
        }
      ],
      "name": "stringtoUint",
      "outputs": [
        {
          "name": "",
          "type": "uint256"
        }
      ],
      "payable": false,
      "stateMutability": "pure",
      "type": "function"
    }
  ],
  "bytecode": "0x610a20610026600b82828239805160001a60731461001957fe5b30600052607381538281f3fe73000000000000000000000000000000000000000030146080604052600436106100615760003560e01c80633581ee5414610066578063465c410514610135578063592c80ee1461029f578063ef0b23681461036e578063fc966d4514610415575b600080fd5b61011f6004803603602081101561007c57600080fd5b810190808035906020019064010000000081111561009957600080fd5b8201836020820111156100ab57600080fd5b803590602001918460018302840111640100000000831117156100cd57600080fd5b91908080601f016020809104026020016040519081016040528093929190818152602001838380828437600081840152601f19601f8201169050808301925050505050505091929192905050506104bc565b6040518082815260200191505060405180910390f35b6102856004803603604081101561014b57600080fd5b810190808035906020019064010000000081111561016857600080fd5b82018360208201111561017a57600080fd5b8035906020019184600183028401116401000000008311171561019c57600080fd5b91908080601f016020809104026020016040519081016040528093929190818152602001838380828437600081840152601f19601f820116905080830192505050505050509192919290803590602001906401000000008111156101ff57600080fd5b82018360208201111561021157600080fd5b8035906020019184600183028401116401000000008311171561023357600080fd5b91908080601f016020809104026020016040519081016040528093929190818152602001838380828437600081840152601f19601f820116905080830192505050505050509192919290505050610515565b604051808215151515815260200191505060405180910390f35b610358600480360360208110156102b557600080fd5b81019080803590602001906401000000008111156102d257600080fd5b8201836020820111156102e457600080fd5b8035906020019184600183028401116401000000008311171561030657600080fd5b91908080601f016020809104026020016040519081016040528093929190818152602001838380828437600081840152601f19601f820116905080830192505050505050509192919290505050610609565b6040518082815260200191505060405180910390f35b61039a6004803603602081101561038457600080fd5b8101908080359060200190929190505050610621565b6040518080602001828103825283818151815260200191508051906020019080838360005b838110156103da5780820151818401526020810190506103bf565b50505050905090810190601f1680156104075780820380516001836020036101000a031916815260200191505b509250505060405180910390f35b6104416004803603602081101561042b57600080fd5b8101908080359060200190929190505050610840565b6040518080602001828103825283818151815260200191508051906020019080838360005b83811015610481578082015181840152602081019050610466565b50505050905090810190601f1680156104ae5780820380516001836020036101000a031916815260200191505b509250505060405180910390f35b600080606083905060008090505b815181101561050a57600a8302925060308282815181106104e757fe5b602001015160f81c60f81b60f81c60ff16038301925080806001019150506104ca565b508192505050919050565b600080826040516020018082805190602001908083835b6020831061054f578051825260208201915060208101905060208303925061052c565b6001836020036101000a03801982511681845116808217855250505050505090500191505060405160208183030381529060405280519060200120846040516020018082805190602001908083835b602083106105c1578051825260208201915060208101905060208303925061059e565b6001836020036101000a038019825116818451168082178552505050505050905001915050604051602081830303815290604052805190602001201490508091505092915050565b6000606082905061061981610974565b915050919050565b60608060206040519080825280601f01601f1916602001820160405280156106585781602001600182028038833980820191505090505b509050606060016040519080825280601f01601f1916602001820160405280156106915781602001600182028038833980820191505090505b509050606060005b6020811015610834578581602081106106ae57fe5b1a60f81b836000815181106106bf57fe5b60200101907effffffffffffffffffffffffffffffffffffffffffffffffffffffffffffff1916908160001a9053508381815181106106fa57fe5b602001015160f81c60f81b7effffffffffffffffffffffffffffffffffffffffffffffffffffffffffffff19168360008151811061073457fe5b602001015160f81c60f81b7effffffffffffffffffffffffffffffffffffffffffffffffffffffffffffff1916146108275781836040516020018083805190602001908083835b6020831061079e578051825260208201915060208101905060208303925061077b565b6001836020036101000a03801982511681845116808217855250505050505090500182805190602001908083835b602083106107ef57805182526020820191506020810190506020830392506107cc565b6001836020036101000a0380198251168184511680821785525050505050509050019250505060405160208183030381529060405291505b8080600101915050610699565b50809350505050919050565b60606000829050600081141561088e576040518060400160405280600181526020017f300000000000000000000000000000000000000000000000000000000000000081525091505061096f565b600081905060005b600082146108b8578080600101915050600a82816108b057fe5b049150610896565b6060816040519080825280601f01601f1916602001820160405280156108ed5781602001600182028038833980820191505090505b50905060006001830390505b6000851461096657600a858161090b57fe5b0660300160f81b8282806001900393508151811061092557fe5b60200101907effffffffffffffffffffffffffffffffffffffffffffffffffffffffffffff1916908160001a905350600a858161095e57fe5b0494506108f9565b81955050505050505b919050565b600080600083519050602081111561098b57602090505b60008090505b818110156109e957600881028582815181106109a957fe5b602001015160f81c60f81b7effffffffffffffffffffffffffffffffffffffffffffffffffffffffffffff1916901c831792508080600101915050610991565b50819250505091905056fea165627a7a72305820c56c53de1d486dfe0f7614245bdd27aa87b4390dd3d6a6ffd59e0f433bbb858b0029",
  "source": "\npragma solidity ^0.5.0;\n\nlibrary RBBLib {\n\n  function isEqual(string memory a, string memory b) public pure returns (bool) {\n    bool r = keccak256(abi.encodePacked(a)) == keccak256(abi.encodePacked(b));\n    return r;\n  }\n\n  function bytesToBytes32(bytes memory _bytes) private pure returns (bytes32) {\n        bytes32 out;\n        uint _len= _bytes.length;\n        if(_len>32){\n            _len = 32;\n        }\n        for (uint i = 0; i < _len; i++) {\n            out |= bytes32(_bytes[i]) >> (i * 8);\n        }\n        return out;\n  }\n\n  function stringBytes32(string memory _String ) pure public returns(bytes32  ){\n        bytes memory _bytes = bytes(_String);\n              \n        return bytesToBytes32(_bytes);\n       // bytes memory b = abi.encodePacked(a);\n       \n  } \n\n\n  function uintToStr(uint _i) public pure returns (string memory ) {\n        uint number = _i;\n        if (number == 0) {\n            return \"0\";\n        }\n        uint j = number;\n        uint len;\n        while (j != 0) {\n            len++;\n            j /= 10;\n        }\n        bytes memory bstr = new bytes(len);\n        uint k = len - 1;\n        while (number != 0) {\n            bstr[k--] = byte(uint8(48 + number % 10));\n            number /= 10;\n        }\n        return string(bstr);\n  }\n    \n  function bytes32ToStr(bytes32 _bytes32) public pure returns (string memory) {\n\n\n    bytes memory compare = new bytes(32);\n    //bytes memory bytesArray = new bytes(32);\n    bytes memory bytesArray = new bytes(1);\n    string memory stringOut;\n    for (uint256 i; i < 32; i++) {\n        bytesArray[0] = _bytes32[i];\n        if(bytesArray[0] != compare[i]){\n            stringOut = string(abi.encodePacked(stringOut,string(bytesArray)));\n            \n        }\n    }\n    \n    \n    return stringOut;\n    //return string(bytesArray);\n    }\n\n\n  function stringtoUint(string memory _string) pure public returns(uint256){\n       uint256 number;\n       bytes memory b =bytes(_string);\n        for(uint i=0;i<b.length;i++){\n            number = number*10;\n            number = number + (uint256(uint8(b[i]))-48);\n        }\n       return number;\n   }\n\n\n\n    \n\n}",
  "sourcePath": "D:/git/rbb-identificacao/Back-Blockchain/contracts/RBBLib.sol",
  "compiler": {
    "name": "solc",
    "version": "0.5.8+commit.23d335f2.Emscripten.clang"
  },
  "schemaVersion": "3.0.16",
  "updatedAt": "2020-09-28T14:23:46.324Z",
  "devdoc": {
    "methods": {}
  },
  "userdoc": {
    "methods": {}
  }
}