{
  "contractName": "RBBRegistry",
  "abi": [
    {
      "inputs": [],
      "stateMutability": "nonpayable",
      "type": "constructor"
    },
    {
      "anonymous": false,
      "inputs": [
        {
          "indexed": false,
          "internalType": "address",
          "name": "addr",
          "type": "address"
        },
        {
          "indexed": false,
          "internalType": "uint256",
          "name": "RBBId",
          "type": "uint256"
        },
        {
          "indexed": false,
          "internalType": "uint64",
          "name": "CNPJ",
          "type": "uint64"
        },
        {
          "indexed": false,
          "internalType": "address",
          "name": "responsible",
          "type": "address"
        },
        {
          "indexed": false,
          "internalType": "uint8",
          "name": "reason",
          "type": "uint8"
        }
      ],
      "name": "AccountInvalidation",
      "type": "event"
    },
    {
      "anonymous": false,
      "inputs": [
        {
          "indexed": false,
          "internalType": "address",
          "name": "addr",
          "type": "address"
        },
        {
          "indexed": false,
          "internalType": "uint256",
          "name": "RBBId",
          "type": "uint256"
        },
        {
          "indexed": false,
          "internalType": "uint64",
          "name": "CNPJ",
          "type": "uint64"
        },
        {
          "indexed": false,
          "internalType": "address",
          "name": "responsible",
          "type": "address"
        },
        {
          "indexed": false,
          "internalType": "uint8",
          "name": "reason",
          "type": "uint8"
        }
      ],
      "name": "AccountPaused",
      "type": "event"
    },
    {
      "anonymous": false,
      "inputs": [
        {
          "indexed": false,
          "internalType": "address",
          "name": "addr",
          "type": "address"
        },
        {
          "indexed": false,
          "internalType": "string",
          "name": "hashProof",
          "type": "string"
        },
        {
          "indexed": false,
          "internalType": "uint256",
          "name": "dateTimeExpiration",
          "type": "uint256"
        }
      ],
      "name": "AccountReactivation",
      "type": "event"
    },
    {
      "anonymous": false,
      "inputs": [
        {
          "indexed": false,
          "internalType": "address",
          "name": "addr",
          "type": "address"
        },
        {
          "indexed": false,
          "internalType": "uint256",
          "name": "RBBId",
          "type": "uint256"
        },
        {
          "indexed": false,
          "internalType": "uint64",
          "name": "CNPJ",
          "type": "uint64"
        },
        {
          "indexed": false,
          "internalType": "string",
          "name": "hashProof",
          "type": "string"
        },
        {
          "indexed": false,
          "internalType": "uint256",
          "name": "dateTimeExpiration",
          "type": "uint256"
        }
      ],
      "name": "AccountRegistration",
      "type": "event"
    },
    {
      "anonymous": false,
      "inputs": [
        {
          "indexed": false,
          "internalType": "address",
          "name": "addr",
          "type": "address"
        },
        {
          "indexed": false,
          "internalType": "uint256",
          "name": "RBBId",
          "type": "uint256"
        },
        {
          "indexed": false,
          "internalType": "uint64",
          "name": "CNPJ",
          "type": "uint64"
        },
        {
          "indexed": false,
          "internalType": "address",
          "name": "responsible",
          "type": "address"
        },
        {
          "indexed": false,
          "internalType": "enum RBBRegistry.BlockchainAccountRole",
          "name": "roleBefore",
          "type": "uint8"
        },
        {
          "indexed": false,
          "internalType": "enum RBBRegistry.BlockchainAccountRole",
          "name": "roleNew",
          "type": "uint8"
        }
      ],
      "name": "AccountRoleChange",
      "type": "event"
    },
    {
      "anonymous": false,
      "inputs": [
        {
          "indexed": false,
          "internalType": "address",
          "name": "addr",
          "type": "address"
        },
        {
          "indexed": false,
          "internalType": "uint256",
          "name": "RBBId",
          "type": "uint256"
        },
        {
          "indexed": false,
          "internalType": "uint64",
          "name": "CNPJ",
          "type": "uint64"
        },
        {
          "indexed": false,
          "internalType": "address",
          "name": "responsible",
          "type": "address"
        },
        {
          "indexed": false,
          "internalType": "uint8",
          "name": "reason",
          "type": "uint8"
        }
      ],
      "name": "AccountUnpaused",
      "type": "event"
    },
    {
      "anonymous": false,
      "inputs": [
        {
          "indexed": false,
          "internalType": "address",
          "name": "addr",
          "type": "address"
        },
        {
          "indexed": false,
          "internalType": "uint256",
          "name": "RBBId",
          "type": "uint256"
        },
        {
          "indexed": false,
          "internalType": "uint64",
          "name": "CNPJ",
          "type": "uint64"
        },
        {
          "indexed": false,
          "internalType": "address",
          "name": "responsible",
          "type": "address"
        }
      ],
      "name": "AccountValidation",
      "type": "event"
    },
    {
      "anonymous": false,
      "inputs": [
        {
          "indexed": false,
          "internalType": "address",
          "name": "addr",
          "type": "address"
        },
        {
          "indexed": false,
          "internalType": "uint256",
          "name": "RBBId",
          "type": "uint256"
        },
        {
          "indexed": false,
          "internalType": "uint64",
          "name": "CNPJ",
          "type": "uint64"
        },
        {
          "indexed": false,
          "internalType": "address",
          "name": "responsible",
          "type": "address"
        }
      ],
      "name": "AccountWaitingApproval",
      "type": "event"
    },
    {
      "anonymous": false,
      "inputs": [
        {
          "indexed": false,
          "internalType": "address",
          "name": "addr",
          "type": "address"
        },
        {
          "indexed": false,
          "internalType": "uint256",
          "name": "RBBId",
          "type": "uint256"
        },
        {
          "indexed": false,
          "internalType": "uint64",
          "name": "CNPJ",
          "type": "uint64"
        },
        {
          "indexed": false,
          "internalType": "address",
          "name": "responsible",
          "type": "address"
        }
      ],
      "name": "AccountWaitingRejection",
      "type": "event"
    },
    {
      "anonymous": false,
      "inputs": [
        {
          "indexed": true,
          "internalType": "address",
          "name": "previousOwner",
          "type": "address"
        },
        {
          "indexed": true,
          "internalType": "address",
          "name": "newOwner",
          "type": "address"
        }
      ],
      "name": "OwnershipTransferred",
      "type": "event"
    },
    {
      "anonymous": false,
      "inputs": [
        {
          "indexed": false,
          "internalType": "address",
          "name": "addr",
          "type": "address"
        },
        {
          "indexed": false,
          "internalType": "uint256",
          "name": "dateTimeExpirationBefore",
          "type": "uint256"
        },
        {
          "indexed": false,
          "internalType": "uint256",
          "name": "dateTimeExpirationNew",
          "type": "uint256"
        }
      ],
      "name": "RegistryExpirationChange",
      "type": "event"
    },
    {
      "anonymous": false,
      "inputs": [
        {
          "indexed": false,
          "internalType": "address",
          "name": "rs",
          "type": "address"
        }
      ],
      "name": "RoleDefinitionActingAfterMonitoring",
      "type": "event"
    },
    {
      "anonymous": false,
      "inputs": [
        {
          "indexed": false,
          "internalType": "address",
          "name": "rs",
          "type": "address"
        }
      ],
      "name": "RoleDefinitionRegistryPreValidation",
      "type": "event"
    },
    {
      "anonymous": false,
      "inputs": [
        {
          "indexed": false,
          "internalType": "address",
          "name": "rs",
          "type": "address"
        }
      ],
      "name": "RoleDefinitionRegistryValidation",
      "type": "event"
    },
    {
      "inputs": [
        {
          "internalType": "uint64",
          "name": "",
          "type": "uint64"
        }
      ],
      "name": "CNPJ_RBBId",
      "outputs": [
        {
          "internalType": "uint256",
          "name": "",
          "type": "uint256"
        }
      ],
      "stateMutability": "view",
      "type": "function",
      "constant": true
    },
    {
      "inputs": [
        {
          "internalType": "uint256",
          "name": "",
          "type": "uint256"
        },
        {
          "internalType": "uint256",
          "name": "",
          "type": "uint256"
        }
      ],
      "name": "RBBId_addresses",
      "outputs": [
        {
          "internalType": "address",
          "name": "",
          "type": "address"
        }
      ],
      "stateMutability": "view",
      "type": "function",
      "constant": true
    },
    {
      "inputs": [],
      "name": "currentRBBId",
      "outputs": [
        {
          "internalType": "uint256",
          "name": "",
          "type": "uint256"
        }
      ],
      "stateMutability": "view",
      "type": "function",
      "constant": true
    },
    {
      "inputs": [],
      "name": "defaultDeltaDateTimeExpiration",
      "outputs": [
        {
          "internalType": "uint256",
          "name": "",
          "type": "uint256"
        }
      ],
      "stateMutability": "view",
      "type": "function",
      "constant": true
    },
    {
      "inputs": [
        {
          "internalType": "address",
          "name": "",
          "type": "address"
        }
      ],
      "name": "legalEntitiesInfo",
      "outputs": [
        {
          "internalType": "uint256",
          "name": "RBBId",
          "type": "uint256"
        },
        {
          "internalType": "uint64",
          "name": "CNPJ",
          "type": "uint64"
        },
        {
          "internalType": "string",
          "name": "hashProof",
          "type": "string"
        },
        {
          "internalType": "enum RBBRegistry.BlockchainAccountState",
          "name": "state",
          "type": "uint8"
        },
        {
          "internalType": "enum RBBRegistry.BlockchainAccountRole",
          "name": "role",
          "type": "uint8"
        },
        {
          "internalType": "bool",
          "name": "paused",
          "type": "bool"
        },
        {
          "internalType": "uint256",
          "name": "dateTimeExpiration",
          "type": "uint256"
        }
      ],
      "stateMutability": "view",
      "type": "function",
      "constant": true
    },
    {
      "inputs": [],
      "name": "owner",
      "outputs": [
        {
          "internalType": "address",
          "name": "",
          "type": "address"
        }
      ],
      "stateMutability": "view",
      "type": "function",
      "constant": true
    },
    {
      "inputs": [],
      "name": "renounceOwnership",
      "outputs": [],
      "stateMutability": "nonpayable",
      "type": "function"
    },
    {
      "inputs": [],
      "name": "responsibleForActingAfterMonitoring",
      "outputs": [
        {
          "internalType": "address",
          "name": "",
          "type": "address"
        }
      ],
      "stateMutability": "view",
      "type": "function",
      "constant": true
    },
    {
      "inputs": [],
      "name": "responsibleForRegistryPreValidation",
      "outputs": [
        {
          "internalType": "address",
          "name": "",
          "type": "address"
        }
      ],
      "stateMutability": "view",
      "type": "function",
      "constant": true
    },
    {
      "inputs": [],
      "name": "responsibleForRegistryValidation",
      "outputs": [
        {
          "internalType": "address",
          "name": "",
          "type": "address"
        }
      ],
      "stateMutability": "view",
      "type": "function",
      "constant": true
    },
    {
      "inputs": [
        {
          "internalType": "address",
          "name": "newOwner",
          "type": "address"
        }
      ],
      "name": "transferOwnership",
      "outputs": [],
      "stateMutability": "nonpayable",
      "type": "function"
    },
    {
      "inputs": [
        {
          "internalType": "address",
          "name": "rs",
          "type": "address"
        }
      ],
      "name": "setResponsibleForRegistryPreValidation",
      "outputs": [],
      "stateMutability": "nonpayable",
      "type": "function"
    },
    {
      "inputs": [
        {
          "internalType": "address",
          "name": "rs",
          "type": "address"
        }
      ],
      "name": "setResponsibleForRegistryValidation",
      "outputs": [],
      "stateMutability": "nonpayable",
      "type": "function"
    },
    {
      "inputs": [
        {
          "internalType": "address",
          "name": "rs",
          "type": "address"
        }
      ],
      "name": "setResponsibleForActingAfterMonitoring",
      "outputs": [],
      "stateMutability": "nonpayable",
      "type": "function"
    },
    {
      "inputs": [
        {
          "internalType": "uint64",
          "name": "cnpj",
          "type": "uint64"
        }
      ],
      "name": "registryLegalEntityForRegularAccounts",
      "outputs": [],
      "stateMutability": "nonpayable",
      "type": "function"
    },
    {
      "inputs": [
        {
          "internalType": "uint64",
          "name": "CNPJ",
          "type": "uint64"
        },
        {
          "internalType": "string",
          "name": "proofHash",
          "type": "string"
        }
      ],
      "name": "registryLegalEntity",
      "outputs": [],
      "stateMutability": "nonpayable",
      "type": "function"
    },
    {
      "inputs": [
        {
          "internalType": "address",
          "name": "userAddr",
          "type": "address"
        },
        {
          "internalType": "bool",
          "name": "approval",
          "type": "bool"
        }
      ],
      "name": "preValidateRegistry",
      "outputs": [],
      "stateMutability": "nonpayable",
      "type": "function"
    },
    {
      "inputs": [
        {
          "internalType": "address",
          "name": "userAddr",
          "type": "address"
        }
      ],
      "name": "validateRegistrySameOrg",
      "outputs": [],
      "stateMutability": "nonpayable",
      "type": "function"
    },
    {
      "inputs": [
        {
          "internalType": "address",
          "name": "userAddr",
          "type": "address"
        }
      ],
      "name": "validateRegistry",
      "outputs": [],
      "stateMutability": "nonpayable",
      "type": "function"
    },
    {
      "inputs": [
        {
          "internalType": "address",
          "name": "addr",
          "type": "address"
        }
      ],
      "name": "pauseAddressSameOrg",
      "outputs": [],
      "stateMutability": "nonpayable",
      "type": "function"
    },
    {
      "inputs": [
        {
          "internalType": "address",
          "name": "addr",
          "type": "address"
        }
      ],
      "name": "pauseAddressAfterMonitoring",
      "outputs": [],
      "stateMutability": "nonpayable",
      "type": "function"
    },
    {
      "inputs": [],
      "name": "pauseLegalEntitySameOrg",
      "outputs": [],
      "stateMutability": "nonpayable",
      "type": "function"
    },
    {
      "inputs": [
        {
          "internalType": "uint256",
          "name": "RBBId",
          "type": "uint256"
        }
      ],
      "name": "pauseLegalEntityAfterMonitoring",
      "outputs": [],
      "stateMutability": "nonpayable",
      "type": "function"
    },
    {
      "inputs": [
        {
          "internalType": "address",
          "name": "addr",
          "type": "address"
        }
      ],
      "name": "unpauseAddressSameOrg",
      "outputs": [],
      "stateMutability": "nonpayable",
      "type": "function"
    },
    {
      "inputs": [
        {
          "internalType": "address",
          "name": "addr",
          "type": "address"
        }
      ],
      "name": "unpauseAddressAfterMonitoring",
      "outputs": [],
      "stateMutability": "nonpayable",
      "type": "function"
    },
    {
      "inputs": [],
      "name": "invalidateYourOwnAddress",
      "outputs": [],
      "stateMutability": "nonpayable",
      "type": "function"
    },
    {
      "inputs": [
        {
          "internalType": "address",
          "name": "addr",
          "type": "address"
        }
      ],
      "name": "invalidateAddressSameOrg",
      "outputs": [],
      "stateMutability": "nonpayable",
      "type": "function"
    },
    {
      "inputs": [
        {
          "internalType": "address",
          "name": "addr",
          "type": "address"
        }
      ],
      "name": "invalidateAddress",
      "outputs": [],
      "stateMutability": "nonpayable",
      "type": "function"
    },
    {
      "inputs": [
        {
          "internalType": "address",
          "name": "addr",
          "type": "address"
        }
      ],
      "name": "invalidateAddressAfterMonitoring",
      "outputs": [],
      "stateMutability": "nonpayable",
      "type": "function"
    },
    {
      "inputs": [],
      "name": "revalidateForRegularAccounts",
      "outputs": [],
      "stateMutability": "nonpayable",
      "type": "function"
    },
    {
      "inputs": [
        {
          "internalType": "string",
          "name": "hashProof",
          "type": "string"
        }
      ],
      "name": "revalidateAccount",
      "outputs": [],
      "stateMutability": "nonpayable",
      "type": "function"
    },
    {
      "inputs": [
        {
          "internalType": "uint256",
          "name": "deltaDateTimeExpirationNew",
          "type": "uint256"
        }
      ],
      "name": "setDefaultDeltaDateTimeExpiration",
      "outputs": [],
      "stateMutability": "nonpayable",
      "type": "function"
    },
    {
      "inputs": [
        {
          "internalType": "string",
          "name": "str",
          "type": "string"
        }
      ],
      "name": "isValidHash",
      "outputs": [
        {
          "internalType": "bool",
          "name": "",
          "type": "bool"
        }
      ],
      "stateMutability": "pure",
      "type": "function",
      "constant": true
    },
    {
      "inputs": [
        {
          "internalType": "string",
          "name": "str",
          "type": "string"
        }
      ],
      "name": "isZeroHash",
      "outputs": [
        {
          "internalType": "bool",
          "name": "",
          "type": "bool"
        }
      ],
      "stateMutability": "pure",
      "type": "function",
      "constant": true
    },
    {
      "inputs": [
        {
          "internalType": "address",
          "name": "addr",
          "type": "address"
        }
      ],
      "name": "isOperational",
      "outputs": [
        {
          "internalType": "bool",
          "name": "",
          "type": "bool"
        }
      ],
      "stateMutability": "view",
      "type": "function",
      "constant": true
    },
    {
      "inputs": [
        {
          "internalType": "uint256",
          "name": "RBBId",
          "type": "uint256"
        }
      ],
      "name": "isRegistryOperational",
      "outputs": [
        {
          "internalType": "bool",
          "name": "",
          "type": "bool"
        }
      ],
      "stateMutability": "view",
      "type": "function",
      "constant": true
    },
    {
      "inputs": [
        {
          "internalType": "address",
          "name": "addr",
          "type": "address"
        }
      ],
      "name": "getId",
      "outputs": [
        {
          "internalType": "uint256",
          "name": "",
          "type": "uint256"
        }
      ],
      "stateMutability": "view",
      "type": "function",
      "constant": true
    },
    {
      "inputs": [
        {
          "internalType": "address",
          "name": "addr",
          "type": "address"
        }
      ],
      "name": "getIdRaw",
      "outputs": [
        {
          "internalType": "uint256",
          "name": "",
          "type": "uint256"
        }
      ],
      "stateMutability": "view",
      "type": "function",
      "constant": true
    },
    {
      "inputs": [
        {
          "internalType": "uint64",
          "name": "cnpj",
          "type": "uint64"
        }
      ],
      "name": "getIdFromCNPJ",
      "outputs": [
        {
          "internalType": "uint256",
          "name": "",
          "type": "uint256"
        }
      ],
      "stateMutability": "view",
      "type": "function",
      "constant": true
    },
    {
      "inputs": [
        {
          "internalType": "uint64",
          "name": "cnpj",
          "type": "uint64"
        }
      ],
      "name": "getIdFromCNPJRaw",
      "outputs": [
        {
          "internalType": "uint256",
          "name": "",
          "type": "uint256"
        }
      ],
      "stateMutability": "view",
      "type": "function",
      "constant": true
    },
    {
      "inputs": [
        {
          "internalType": "uint256",
          "name": "Id",
          "type": "uint256"
        }
      ],
      "name": "getCNPJbyID",
      "outputs": [
        {
          "internalType": "uint64",
          "name": "",
          "type": "uint64"
        }
      ],
      "stateMutability": "view",
      "type": "function",
      "constant": true
    },
    {
      "inputs": [
        {
          "internalType": "uint256",
          "name": "Id",
          "type": "uint256"
        }
      ],
      "name": "getCNPJbyIDRaw",
      "outputs": [
        {
          "internalType": "uint64",
          "name": "",
          "type": "uint64"
        }
      ],
      "stateMutability": "view",
      "type": "function",
      "constant": true
    },
    {
      "inputs": [
        {
          "internalType": "address",
          "name": "addr",
          "type": "address"
        }
      ],
      "name": "getCNPJ",
      "outputs": [
        {
          "internalType": "uint64",
          "name": "",
          "type": "uint64"
        }
      ],
      "stateMutability": "view",
      "type": "function",
      "constant": true
    },
    {
      "inputs": [
        {
          "internalType": "address",
          "name": "addr",
          "type": "address"
        }
      ],
      "name": "getCNPJRaw",
      "outputs": [
        {
          "internalType": "uint64",
          "name": "",
          "type": "uint64"
        }
      ],
      "stateMutability": "view",
      "type": "function",
      "constant": true
    },
    {
      "inputs": [
        {
          "internalType": "address",
          "name": "addr",
          "type": "address"
        }
      ],
      "name": "getRegistry",
      "outputs": [
        {
          "internalType": "uint256",
          "name": "",
          "type": "uint256"
        },
        {
          "internalType": "uint64",
          "name": "",
          "type": "uint64"
        },
        {
          "internalType": "string",
          "name": "",
          "type": "string"
        },
        {
          "internalType": "uint256",
          "name": "",
          "type": "uint256"
        },
        {
          "internalType": "uint256",
          "name": "",
          "type": "uint256"
        },
        {
          "internalType": "bool",
          "name": "",
          "type": "bool"
        },
        {
          "internalType": "uint256",
          "name": "",
          "type": "uint256"
        },
        {
          "internalType": "bool",
          "name": "",
          "type": "bool"
        }
      ],
      "stateMutability": "view",
      "type": "function",
      "constant": true
    },
    {
      "inputs": [
        {
          "internalType": "uint256",
          "name": "RBBId",
          "type": "uint256"
        }
      ],
      "name": "getBlockchainAccounts",
      "outputs": [
        {
          "internalType": "address[]",
          "name": "",
          "type": "address[]"
        }
      ],
      "stateMutability": "view",
      "type": "function",
      "constant": true
    },
    {
      "inputs": [
        {
          "internalType": "address",
          "name": "addr",
          "type": "address"
        }
      ],
      "name": "getAccountState",
      "outputs": [
        {
          "internalType": "int256",
          "name": "",
          "type": "int256"
        }
      ],
      "stateMutability": "view",
      "type": "function",
      "constant": true
    },
    {
      "inputs": [
        {
          "internalType": "address",
          "name": "addr",
          "type": "address"
        }
      ],
      "name": "getAccountRole",
      "outputs": [
        {
          "internalType": "int256",
          "name": "",
          "type": "int256"
        }
      ],
      "stateMutability": "view",
      "type": "function",
      "constant": true
    },
    {
      "inputs": [
        {
          "internalType": "address",
          "name": "addr",
          "type": "address"
        }
      ],
      "name": "isExpired",
      "outputs": [
        {
          "internalType": "bool",
          "name": "",
          "type": "bool"
        }
      ],
      "stateMutability": "view",
      "type": "function",
      "constant": true
    },
    {
      "inputs": [
        {
          "internalType": "address",
          "name": "addr",
          "type": "address"
        }
      ],
      "name": "isOwner",
      "outputs": [
        {
          "internalType": "bool",
          "name": "",
          "type": "bool"
        }
      ],
      "stateMutability": "view",
      "type": "function",
      "constant": true
    },
    {
      "inputs": [
        {
          "internalType": "address",
          "name": "addr",
          "type": "address"
        }
      ],
      "name": "isAvailableAccount",
      "outputs": [
        {
          "internalType": "bool",
          "name": "",
          "type": "bool"
        }
      ],
      "stateMutability": "view",
      "type": "function",
      "constant": true
    },
    {
      "inputs": [
        {
          "internalType": "address",
          "name": "addr",
          "type": "address"
        }
      ],
      "name": "isWaitingAccount",
      "outputs": [
        {
          "internalType": "bool",
          "name": "",
          "type": "bool"
        }
      ],
      "stateMutability": "view",
      "type": "function",
      "constant": true
    },
    {
      "inputs": [
        {
          "internalType": "address",
          "name": "addr",
          "type": "address"
        }
      ],
      "name": "isValidatedAccount",
      "outputs": [
        {
          "internalType": "bool",
          "name": "",
          "type": "bool"
        }
      ],
      "stateMutability": "view",
      "type": "function",
      "constant": true
    },
    {
      "inputs": [
        {
          "internalType": "address",
          "name": "addr",
          "type": "address"
        }
      ],
      "name": "isInvalidated",
      "outputs": [
        {
          "internalType": "bool",
          "name": "",
          "type": "bool"
        }
      ],
      "stateMutability": "view",
      "type": "function",
      "constant": true
    },
    {
      "inputs": [
        {
          "internalType": "address",
          "name": "a",
          "type": "address"
        },
        {
          "internalType": "address",
          "name": "b",
          "type": "address"
        }
      ],
      "name": "isTheSameID",
      "outputs": [
        {
          "internalType": "bool",
          "name": "",
          "type": "bool"
        }
      ],
      "stateMutability": "view",
      "type": "function",
      "constant": true
    },
    {
      "inputs": [
        {
          "internalType": "address",
          "name": "addr",
          "type": "address"
        }
      ],
      "name": "isPaused",
      "outputs": [
        {
          "internalType": "bool",
          "name": "",
          "type": "bool"
        }
      ],
      "stateMutability": "view",
      "type": "function",
      "constant": true
    },
    {
      "inputs": [
        {
          "internalType": "address",
          "name": "addr",
          "type": "address"
        }
      ],
      "name": "isAdmin",
      "outputs": [
        {
          "internalType": "bool",
          "name": "",
          "type": "bool"
        }
      ],
      "stateMutability": "view",
      "type": "function",
      "constant": true
    }
  ],
  "bytecode": "0x608060405260006004556301e133806005553480156200001e57600080fd5b506000620000316200019860201b60201c565b9050806000806101000a81548173ffffffffffffffffffffffffffffffffffffffff021916908373ffffffffffffffffffffffffffffffffffffffff1602179055508073ffffffffffffffffffffffffffffffffffffffff16600073ffffffffffffffffffffffffffffffffffffffff167f8be0079c531659141344cd1fd0a4f28419497f9722a3daafe3b4186f6b6457e060405160405180910390a35033600160006101000a81548173ffffffffffffffffffffffffffffffffffffffff021916908373ffffffffffffffffffffffffffffffffffffffff16021790555033600260006101000a81548173ffffffffffffffffffffffffffffffffffffffff021916908373ffffffffffffffffffffffffffffffffffffffff16021790555033600360006101000a81548173ffffffffffffffffffffffffffffffffffffffff021916908373ffffffffffffffffffffffffffffffffffffffff160217905550620001a0565b600033905090565b6169c680620001b06000396000f3fe608060405234801561001057600080fd5b50600436106103835760003560e01c806376222aa7116101de578063a3d884531161010f578063c616f4c0116100ad578063ee1244e31161007c578063ee1244e31461153a578063f2fde38b14611568578063f4c88ca3146115ac578063f971d77c146115b657610383565b8063c616f4c014611448578063c84802b914611466578063caa7922c146114aa578063d2086657146114ee57610383565b8063b6fc41fa116100e9578063b6fc41fa146112b0578063ba2eb54114611312578063bb3930861461136c578063be49b78d146113e657610383565b8063a3d8845314611157578063a9963687146111b1578063b5a285ba146111f557610383565b80638e97637e1161017c5780639c9d24b6116101565780639c9d24b61461103b5780639ee2735b1461107f578063a1c0101f146110d7578063a2a25e781461112357610383565b80638e97637e14610f8b578063903ecc1914610fe557806394e587651461100357610383565b806381d66b23116101b857806381d66b2314610dec5780638684b5ab14610e445780638cbd258f14610f135780638da5cb5b14610f5757610383565b806376222aa714610cfa57806376bc29e514610d465780637abbb59614610da857610383565b8063457385f2116102b85780636426a116116102565780636c5eadae116102305780636c5eadae14610ba75780636c8ce62b14610bdb5780636edcb12f14610c1f578063715018a614610cf057610383565b80636426a11614610aeb578063654116c014610b4557806365f68c8914610b4f57610383565b80634f16ce0c116102925780634f16ce0c146109bd5780634f72e05914610a015780635b14f18314610a45578063611b551d14610a9f57610383565b8063457385f2146108db578063466723e4146109355780634dd2d3fb1461098f57610383565b806328f5ae23116103255780632f54bf6e116102ff5780632f54bf6e14610738578063353a3d621461079257806342b0ae5014610863578063456ca961146108a757610383565b806328f5ae231461064c578063291c333c1461069c5780632ec5ea09146106e057610383565b80630bf20e01116103615780630bf20e01146104225780631ee7afad146104a557806324d7806c146104e957806326ff47941461054357610383565b8063087d442714610388578063091f5c29146103cc5780630b4e4ecc14610418575b600080fd5b6103b46004803603602081101561039e57600080fd5b81019080803590602001909291905050506116b2565b60405180821515815260200191505060405180910390f35b610402600480360360208110156103e257600080fd5b81019080803567ffffffffffffffff1690602001909291905050506117c1565b6040518082815260200191505060405180910390f35b6104206117f2565b005b61044e6004803603602081101561043857600080fd5b8101908080359060200190929190505050611832565b6040518080602001828103825283818151815260200191508051906020019060200280838360005b83811015610491578082015181840152602081019050610476565b505050509050019250505060405180910390f35b6104e7600480360360208110156104bb57600080fd5b81019080803573ffffffffffffffffffffffffffffffffffffffff1690602001909291905050506118d3565b005b61052b600480360360208110156104ff57600080fd5b81019080803573ffffffffffffffffffffffffffffffffffffffff169060200190929190505050611bea565b60405180821515815260200191505060405180910390f35b6105856004803603602081101561055957600080fd5b81019080803573ffffffffffffffffffffffffffffffffffffffff169060200190929190505050611c5b565b604051808881526020018767ffffffffffffffff168152602001806020018660058111156105af57fe5b81526020018560018111156105c057fe5b81526020018415158152602001838152602001828103825287818151815260200191508051906020019080838360005b8381101561060b5780820151818401526020810190506105f0565b50505050905090810190601f1680156106385780820380516001836020036101000a031916815260200191505b509850505050505050505060405180910390f35b61069a6004803603604081101561066257600080fd5b81019080803573ffffffffffffffffffffffffffffffffffffffff169060200190929190803515159060200190929190505050611d70565b005b6106de600480360360208110156106b257600080fd5b81019080803573ffffffffffffffffffffffffffffffffffffffff169060200190929190505050612308565b005b610722600480360360208110156106f657600080fd5b81019080803573ffffffffffffffffffffffffffffffffffffffff169060200190929190505050612478565b6040518082815260200191505060405180910390f35b61077a6004803603602081101561074e57600080fd5b81019080803573ffffffffffffffffffffffffffffffffffffffff1690602001909291905050506124c4565b60405180821515815260200191505060405180910390f35b61084b600480360360208110156107a857600080fd5b81019080803590602001906401000000008111156107c557600080fd5b8201836020820111156107d757600080fd5b803590602001918460018302840111640100000000831117156107f957600080fd5b91908080601f016020809104026020016040519081016040528093929190818152602001838380828437600081840152601f19601f820116905080830192505050505050509192919290505050612503565b60405180821515815260200191505060405180910390f35b6108a56004803603602081101561087957600080fd5b81019080803573ffffffffffffffffffffffffffffffffffffffff169060200190929190505050612552565b005b6108af612606565b604051808273ffffffffffffffffffffffffffffffffffffffff16815260200191505060405180910390f35b61091d600480360360208110156108f157600080fd5b81019080803573ffffffffffffffffffffffffffffffffffffffff16906020019092919050505061262c565b60405180821515815260200191505060405180910390f35b6109776004803603602081101561094b57600080fd5b81019080803573ffffffffffffffffffffffffffffffffffffffff169060200190929190505050612662565b60405180821515815260200191505060405180910390f35b6109bb600480360360208110156109a557600080fd5b81019080803590602001909291905050506127b4565b005b6109ff600480360360208110156109d357600080fd5b81019080803573ffffffffffffffffffffffffffffffffffffffff1690602001909291905050506128ed565b005b610a4360048036036020811015610a1757600080fd5b81019080803573ffffffffffffffffffffffffffffffffffffffff169060200190929190505050612e8a565b005b610a8760048036036020811015610a5b57600080fd5b81019080803573ffffffffffffffffffffffffffffffffffffffff169060200190929190505050613019565b60405180821515815260200191505060405180910390f35b610acb60048036036020811015610ab557600080fd5b8101908080359060200190929190505050613072565b604051808267ffffffffffffffff16815260200191505060405180910390f35b610b2d60048036036020811015610b0157600080fd5b81019080803573ffffffffffffffffffffffffffffffffffffffff169060200190929190505050613120565b60405180821515815260200191505060405180910390f35b610b4d613192565b005b610b9160048036036020811015610b6557600080fd5b81019080803573ffffffffffffffffffffffffffffffffffffffff1690602001909291905050506133c1565b6040518082815260200191505060405180910390f35b610baf613436565b604051808273ffffffffffffffffffffffffffffffffffffffff16815260200191505060405180910390f35b610c1d60048036036020811015610bf157600080fd5b81019080803573ffffffffffffffffffffffffffffffffffffffff16906020019092919050505061345c565b005b610cd860048036036020811015610c3557600080fd5b8101908080359060200190640100000000811115610c5257600080fd5b820183602082011115610c6457600080fd5b80359060200191846001830284011164010000000083111715610c8657600080fd5b91908080601f016020809104026020016040519081016040528093929190818152602001838380828437600081840152601f19601f82011690508083019250505050505050919291929050505061356f565b60405180821515815260200191505060405180910390f35b610cf8613752565b005b610d3060048036036020811015610d1057600080fd5b81019080803567ffffffffffffffff1690602001909291905050506138d8565b6040518082815260200191505060405180910390f35b610d8860048036036020811015610d5c57600080fd5b81019080803573ffffffffffffffffffffffffffffffffffffffff1690602001909291905050506138f0565b604051808267ffffffffffffffff16815260200191505060405180910390f35b610dea60048036036020811015610dbe57600080fd5b81019080803573ffffffffffffffffffffffffffffffffffffffff169060200190929190505050613950565b005b610e2e60048036036020811015610e0257600080fd5b81019080803573ffffffffffffffffffffffffffffffffffffffff169060200190929190505050613aa9565b6040518082815260200191505060405180910390f35b610f1160048036036040811015610e5a57600080fd5b81019080803567ffffffffffffffff16906020019092919080359060200190640100000000811115610e8b57600080fd5b820183602082011115610e9d57600080fd5b80359060200191846001830284011164010000000083111715610ebf57600080fd5b91908080601f016020809104026020016040519081016040528093929190818152602001838380828437600081840152601f19601f820116905080830192505050505050509192919290505050613b0d565b005b610f5560048036036020811015610f2957600080fd5b81019080803573ffffffffffffffffffffffffffffffffffffffff16906020019092919050505061402c565b005b610f5f614185565b604051808273ffffffffffffffffffffffffffffffffffffffff16815260200191505060405180910390f35b610fcd60048036036020811015610fa157600080fd5b81019080803573ffffffffffffffffffffffffffffffffffffffff1690602001909291905050506141ae565b60405180821515815260200191505060405180910390f35b610fed61421f565b6040518082815260200191505060405180910390f35b6110396004803603602081101561101957600080fd5b81019080803567ffffffffffffffff169060200190929190505050614225565b005b61107d6004803603602081101561105157600080fd5b81019080803573ffffffffffffffffffffffffffffffffffffffff169060200190929190505050614267565b005b6110c16004803603602081101561109557600080fd5b81019080803573ffffffffffffffffffffffffffffffffffffffff1690602001909291905050506144d9565b6040518082815260200191505060405180910390f35b61110d600480360360208110156110ed57600080fd5b81019080803567ffffffffffffffff16906020019092919050505061453d565b6040518082815260200191505060405180910390f35b61112b6145b2565b604051808273ffffffffffffffffffffffffffffffffffffffff16815260200191505060405180910390f35b6111996004803603602081101561116d57600080fd5b81019080803573ffffffffffffffffffffffffffffffffffffffff1690602001909291905050506145d8565b60405180821515815260200191505060405180910390f35b6111f3600480360360208110156111c757600080fd5b81019080803573ffffffffffffffffffffffffffffffffffffffff169060200190929190505050614649565b005b6112ae6004803603602081101561120b57600080fd5b810190808035906020019064010000000081111561122857600080fd5b82018360208201111561123a57600080fd5b8035906020019184600183028401116401000000008311171561125c57600080fd5b91908080601f016020809104026020016040519081016040528093929190818152602001838380828437600081840152601f19601f8201169050808301925050505050505091929192905050506147a2565b005b6112e6600480360360408110156112c657600080fd5b810190808035906020019092919080359060200190929190505050614b71565b604051808273ffffffffffffffffffffffffffffffffffffffff16815260200191505060405180910390f35b6113546004803603602081101561132857600080fd5b81019080803573ffffffffffffffffffffffffffffffffffffffff169060200190929190505050614bbc565b60405180821515815260200191505060405180910390f35b6113ce6004803603604081101561138257600080fd5b81019080803573ffffffffffffffffffffffffffffffffffffffff169060200190929190803573ffffffffffffffffffffffffffffffffffffffff169060200190929190505050614c0a565b60405180821515815260200191505060405180910390f35b611428600480360360208110156113fc57600080fd5b81019080803573ffffffffffffffffffffffffffffffffffffffff169060200190929190505050614cd7565b604051808267ffffffffffffffff16815260200191505060405180910390f35b611450614cf3565b6040518082815260200191505060405180910390f35b6114a86004803603602081101561147c57600080fd5b81019080803573ffffffffffffffffffffffffffffffffffffffff169060200190929190505050614cf9565b005b6114ec600480360360208110156114c057600080fd5b81019080803573ffffffffffffffffffffffffffffffffffffffff16906020019092919050505061508c565b005b61151a6004803603602081101561150457600080fd5b8101908080359060200190929190505050615436565b604051808267ffffffffffffffff16815260200191505060405180910390f35b6115666004803603602081101561155057600080fd5b81019080803590602001909291905050506154a6565b005b6115aa6004803603602081101561157e57600080fd5b81019080803573ffffffffffffffffffffffffffffffffffffffff16906020019092919050505061564c565b005b6115b4615857565b005b6115f8600480360360208110156115cc57600080fd5b81019080803573ffffffffffffffffffffffffffffffffffffffff1690602001909291905050506158c9565b604051808981526020018867ffffffffffffffff1681526020018060200187815260200186815260200185151581526020018481526020018315158152602001828103825288818151815260200191508051906020019080838360005b83811015611670578082015181840152602081019050611655565b50505050905090810190601f16801561169d5780820380516001836020036101000a031916815260200191505b50995050505050505050505060405180910390f35b600060606007600084815260200190815260200160002080548060200260200160405190810160405280929190818152602001828054801561174957602002820191906000526020600020905b8160009054906101000a900473ffffffffffffffffffffffffffffffffffffffff1673ffffffffffffffffffffffffffffffffffffffff16815260200190600101908083116116ff575b5050505050905060005b81518110156117b95761177882828151811061176b57fe5b602002602001015161262c565b801561179c575061179b82828151811061178e57fe5b6020026020010151611bea565b5b156117ac576001925050506117bc565b8080600101915050611753565b50505b919050565b6000600860008367ffffffffffffffff1667ffffffffffffffff168152602001908152602001600020549050919050565b6118306040518060400160405280600181526020017f30000000000000000000000000000000000000000000000000000000000000008152506147a2565b565b6060600760008381526020019081526020016000208054806020026020016040519081016040528092919081815260200182805480156118c757602002820191906000526020600020905b8160009054906101000a900473ffffffffffffffffffffffffffffffffffffffff1673ffffffffffffffffffffffffffffffffffffffff168152602001906001019080831161187d575b50505050509050919050565b6118dc33613019565b15611932576040517f08c379a000000000000000000000000000000000000000000000000000000000815260040180806020018281038252603a815260200180616309603a913960400191505060405180910390fd5b61193b33614bbc565b15611991576040517f08c379a000000000000000000000000000000000000000000000000000000000815260040180806020018281038252606581526020018061648d6065913960800191505060405180910390fd5b61199a33613120565b6119ef576040517f08c379a000000000000000000000000000000000000000000000000000000000815260040180806020018281038252603681526020018061656d6036913960400191505060405180910390fd5b60003390506119fd826141ae565b15611a53576040517f08c379a000000000000000000000000000000000000000000000000000000000815260040180806020018281038252602381526020018061654a6023913960400191505060405180910390fd5b611a5d8183614c0a565b611ab2576040517f08c379a000000000000000000000000000000000000000000000000000000000815260040180806020018281038252603a8152602001806166bf603a913960400191505060405180910390fd5b8073ffffffffffffffffffffffffffffffffffffffff168273ffffffffffffffffffffffffffffffffffffffff161480611af25750611af082611bea565b155b611b47576040517f08c379a00000000000000000000000000000000000000000000000000000000081526004018080602001828103825260288152602001806163fb6028913960400191505060405180910390fd5b8073ffffffffffffffffffffffffffffffffffffffff168273ffffffffffffffffffffffffffffffffffffffff161480611b865750611b8581611bea565b5b611bdb576040517f08c379a000000000000000000000000000000000000000000000000000000000815260040180806020018281038252602d815260200180616692602d913960400191505060405180910390fd5b611be6826002615af1565b5050565b6000600180811115611bf857fe5b600660008473ffffffffffffffffffffffffffffffffffffffff1673ffffffffffffffffffffffffffffffffffffffff16815260200190815260200160002060030160019054906101000a900460ff166001811115611c5357fe5b149050919050565b60066020528060005260406000206000915090508060000154908060010160009054906101000a900467ffffffffffffffff1690806002018054600181600116156101000203166002900480601f016020809104026020016040519081016040528092919081815260200182805460018160011615610100020316600290048015611d275780601f10611cfc57610100808354040283529160200191611d27565b820191906000526020600020905b815481529060010190602001808311611d0a57829003601f168201915b5050505050908060030160009054906101000a900460ff16908060030160019054906101000a900460ff16908060030160029054906101000a900460ff16908060040154905087565b3373ffffffffffffffffffffffffffffffffffffffff16600160009054906101000a900473ffffffffffffffffffffffffffffffffffffffff1673ffffffffffffffffffffffffffffffffffffffff1614611e16576040517f08c379a000000000000000000000000000000000000000000000000000000000815260040180806020018281038252604d815260200180616772604d913960600191505060405180910390fd5b600033905060016005811115611e2857fe5b600660008573ffffffffffffffffffffffffffffffffffffffff1673ffffffffffffffffffffffffffffffffffffffff16815260200190815260200160002060030160009054906101000a900460ff166005811115611e8357fe5b14611ed9576040517f08c379a00000000000000000000000000000000000000000000000000000000081526004018080602001828103825260368152602001806165c66036913960400191505060405180910390fd5b611ee283611bea565b611f37576040517f08c379a000000000000000000000000000000000000000000000000000000000815260040180806020018281038252602b81526020018061681b602b913960400191505060405180910390fd5b611f4083613019565b15611f96576040517f08c379a00000000000000000000000000000000000000000000000000000000081526004018080602001828103825260338152602001806163c86033913960400191505060405180910390fd5b611f9f83614bbc565b15611ff5576040517f08c379a00000000000000000000000000000000000000000000000000000000081526004018080602001828103825260348152602001806165fc6034913960400191505060405180910390fd5b8115612181576002600660008573ffffffffffffffffffffffffffffffffffffffff1673ffffffffffffffffffffffffffffffffffffffff16815260200190815260200160002060030160006101000a81548160ff0219169083600581111561205a57fe5b02179055507f88a401630afd2c730097d0a0f3a014c6e7cc6db68bb1b13d4e1a37622b44518183600660008673ffffffffffffffffffffffffffffffffffffffff1673ffffffffffffffffffffffffffffffffffffffff16815260200190815260200160002060000154600660008773ffffffffffffffffffffffffffffffffffffffff1673ffffffffffffffffffffffffffffffffffffffff16815260200190815260200160002060010160009054906101000a900467ffffffffffffffff1684604051808573ffffffffffffffffffffffffffffffffffffffff1681526020018481526020018367ffffffffffffffff1681526020018273ffffffffffffffffffffffffffffffffffffffff16815260200194505050505060405180910390a1612303565b6003600660008573ffffffffffffffffffffffffffffffffffffffff1673ffffffffffffffffffffffffffffffffffffffff16815260200190815260200160002060030160006101000a81548160ff021916908360058111156121e057fe5b02179055507f59567b1124b6234e30f0a452574ad973b93bff3b825fb38e284fb8bc9b0c104b83600660008673ffffffffffffffffffffffffffffffffffffffff1673ffffffffffffffffffffffffffffffffffffffff16815260200190815260200160002060000154600660008773ffffffffffffffffffffffffffffffffffffffff1673ffffffffffffffffffffffffffffffffffffffff16815260200190815260200160002060010160009054906101000a900467ffffffffffffffff1684604051808573ffffffffffffffffffffffffffffffffffffffff1681526020018481526020018367ffffffffffffffff1681526020018273ffffffffffffffffffffffffffffffffffffffff16815260200194505050505060405180910390a15b505050565b3373ffffffffffffffffffffffffffffffffffffffff16600260009054906101000a900473ffffffffffffffffffffffffffffffffffffffff1673ffffffffffffffffffffffffffffffffffffffff16146123ae576040517f08c379a00000000000000000000000000000000000000000000000000000000081526004018080602001828103825260488152602001806168466048913960600191505060405180910390fd5b6123b781612662565b61240c576040517f08c379a00000000000000000000000000000000000000000000000000000000081526004018080602001828103825260368152602001806162116036913960400191505060405180910390fd5b61241581611bea565b61246a576040517f08c379a000000000000000000000000000000000000000000000000000000000815260040180806020018281038252604481526020018061694d6044913960600191505060405180910390fd5b612475816003615af1565b50565b6000600660008373ffffffffffffffffffffffffffffffffffffffff1673ffffffffffffffffffffffffffffffffffffffff168152602001908152602001600020600001549050919050565b60008173ffffffffffffffffffffffffffffffffffffffff166124e5614185565b73ffffffffffffffffffffffffffffffffffffffff16149050919050565b60006040518060400160405280600181526020017f3000000000000000000000000000000000000000000000000000000000000000815250805190602001208280519060200120149050919050565b3373ffffffffffffffffffffffffffffffffffffffff16600360009054906101000a900473ffffffffffffffffffffffffffffffffffffffff1673ffffffffffffffffffffffffffffffffffffffff16146125f8576040517f08c379a00000000000000000000000000000000000000000000000000000000081526004018080602001828103825260678152602001806162a26067913960800191505060405180910390fd5b612603816002615c81565b50565b600260009054906101000a900473ffffffffffffffffffffffffffffffffffffffff1681565b600061263782613120565b8015612649575061264782613019565b155b801561265b575061265982614bbc565b155b9050919050565b60006001600581111561267157fe5b600660008473ffffffffffffffffffffffffffffffffffffffff1673ffffffffffffffffffffffffffffffffffffffff16815260200190815260200160002060030160009054906101000a900460ff1660058111156126cc57fe5b148061273d5750600260058111156126e057fe5b600660008473ffffffffffffffffffffffffffffffffffffffff1673ffffffffffffffffffffffffffffffffffffffff16815260200190815260200160002060030160009054906101000a900460ff16600581111561273b57fe5b145b806127ad57506003600581111561275057fe5b600660008473ffffffffffffffffffffffffffffffffffffffff1673ffffffffffffffffffffffffffffffffffffffff16815260200190815260200160002060030160009054906101000a900460ff1660058111156127ab57fe5b145b9050919050565b6127bc615ec5565b73ffffffffffffffffffffffffffffffffffffffff1660008054906101000a900473ffffffffffffffffffffffffffffffffffffffff1673ffffffffffffffffffffffffffffffffffffffff161461287c576040517f08c379a00000000000000000000000000000000000000000000000000000000081526004018080602001828103825260208152602001807f4f776e61626c653a2063616c6c6572206973206e6f7420746865206f776e657281525060200191505060405180910390fd5b60006005549050816005819055507f33e73778e90a0a7d35d5d4332f4668b1fcff659529950c30f760a39ba49fafec3382600554604051808473ffffffffffffffffffffffffffffffffffffffff168152602001838152602001828152602001935050505060405180910390a15050565b6128f633613019565b1561294c576040517f08c379a000000000000000000000000000000000000000000000000000000000815260040180806020018281038252603a815260200180616309603a913960400191505060405180910390fd5b61295533614bbc565b156129ab576040517f08c379a000000000000000000000000000000000000000000000000000000000815260040180806020018281038252606581526020018061648d6065913960800191505060405180910390fd5b6129b433613120565b612a09576040517f08c379a000000000000000000000000000000000000000000000000000000000815260040180806020018281038252603681526020018061656d6036913960400191505060405180910390fd5b6000339050612a1781611bea565b612a6c576040517f08c379a000000000000000000000000000000000000000000000000000000000815260040180806020018281038252603681526020018061688e6036913960400191505060405180910390fd5b60016005811115612a7957fe5b600660008473ffffffffffffffffffffffffffffffffffffffff1673ffffffffffffffffffffffffffffffffffffffff16815260200190815260200160002060030160009054906101000a900460ff166005811115612ad457fe5b14612b2a576040517f08c379a00000000000000000000000000000000000000000000000000000000081526004018080602001828103825260368152602001806165c66036913960400191505060405180910390fd5b612b3382613019565b15612b89576040517f08c379a00000000000000000000000000000000000000000000000000000000081526004018080602001828103825260338152602001806163c86033913960400191505060405180910390fd5b612b9282614bbc565b15612be8576040517f08c379a00000000000000000000000000000000000000000000000000000000081526004018080602001828103825260348152602001806165fc6034913960400191505060405180910390fd5b60006001811115612bf557fe5b600660008473ffffffffffffffffffffffffffffffffffffffff1673ffffffffffffffffffffffffffffffffffffffff16815260200190815260200160002060030160019054906101000a900460ff166001811115612c5057fe5b14612ca6576040517f08c379a00000000000000000000000000000000000000000000000000000000081526004018080602001828103825260328152602001806168c46032913960400191505060405180910390fd5b612cb08183614c0a565b612d05576040517f08c379a000000000000000000000000000000000000000000000000000000000815260040180806020018281038252604c815260200180616726604c913960600191505060405180910390fd5b6004600660008473ffffffffffffffffffffffffffffffffffffffff1673ffffffffffffffffffffffffffffffffffffffff16815260200190815260200160002060030160006101000a81548160ff02191690836005811115612d6457fe5b02179055507f90e796ddecc580ca3db3277073bdbf5d9c3eac364c19683d78a0bb129021360b82600660008573ffffffffffffffffffffffffffffffffffffffff1673ffffffffffffffffffffffffffffffffffffffff16815260200190815260200160002060000154600660008673ffffffffffffffffffffffffffffffffffffffff1673ffffffffffffffffffffffffffffffffffffffff16815260200190815260200160002060010160009054906101000a900467ffffffffffffffff1684604051808573ffffffffffffffffffffffffffffffffffffffff1681526020018481526020018367ffffffffffffffff1681526020018273ffffffffffffffffffffffffffffffffffffffff16815260200194505050505060405180910390a15050565b3373ffffffffffffffffffffffffffffffffffffffff16600360009054906101000a900473ffffffffffffffffffffffffffffffffffffffff1673ffffffffffffffffffffffffffffffffffffffff1614612f30576040517f08c379a00000000000000000000000000000000000000000000000000000000081526004018080602001828103825260678152602001806162a26067913960800191505060405180910390fd5b612f39816141ae565b15612f8f576040517f08c379a00000000000000000000000000000000000000000000000000000000081526004018080602001828103825260298152602001806164236029913960400191505060405180910390fd5b612f9881613019565b1561300b576040517f08c379a00000000000000000000000000000000000000000000000000000000081526004018080602001828103825260178152602001807f436f6e7461206ac3a120657374c3a1207061757361646100000000000000000081525060200191505060405180910390fd5b613016816002615ecd565b50565b6000600660008373ffffffffffffffffffffffffffffffffffffffff1673ffffffffffffffffffffffffffffffffffffffff16815260200190815260200160002060030160029054906101000a900460ff169050919050565b6000806007600084815260200190815260200160002060008154811061309457fe5b9060005260206000200160009054906101000a900473ffffffffffffffffffffffffffffffffffffffff169050600660008273ffffffffffffffffffffffffffffffffffffffff1673ffffffffffffffffffffffffffffffffffffffff16815260200190815260200160002060010160009054906101000a900467ffffffffffffffff16915050919050565b60006004600581111561312f57fe5b600660008473ffffffffffffffffffffffffffffffffffffffff1673ffffffffffffffffffffffffffffffffffffffff16815260200190815260200160002060030160009054906101000a900460ff16600581111561318a57fe5b149050919050565b61319b33613019565b156131f1576040517f08c379a000000000000000000000000000000000000000000000000000000000815260040180806020018281038252603a815260200180616309603a913960400191505060405180910390fd5b6131fa33614bbc565b15613250576040517f08c379a000000000000000000000000000000000000000000000000000000000815260040180806020018281038252606581526020018061648d6065913960800191505060405180910390fd5b61325933613120565b6132ae576040517f08c379a000000000000000000000000000000000000000000000000000000000815260040180806020018281038252603681526020018061656d6036913960400191505060405180910390fd5b600033905060006132be82612478565b905060606007600083815260200190815260200160002080548060200260200160405190810160405280929190818152602001828054801561335557602002820191906000526020600020905b8160009054906101000a900473ffffffffffffffffffffffffffffffffffffffff1673ffffffffffffffffffffffffffffffffffffffff168152602001906001019080831161330b575b5050505050905060005b81518110156133bb57600082828151811061337657fe5b60200260200101519050613389816141ae565b15801561339c575061339a81613019565b155b156133ad576133ac816003615ecd565b5b50808060010191505061335f565b50505050565b6000806133cd83612478565b90506133d8816116b2565b61342d576040517f08c379a00000000000000000000000000000000000000000000000000000000081526004018080602001828103825260268152602001806169276026913960400191505060405180910390fd5b80915050919050565b600360009054906101000a900473ffffffffffffffffffffffffffffffffffffffff1681565b3373ffffffffffffffffffffffffffffffffffffffff16600360009054906101000a900473ffffffffffffffffffffffffffffffffffffffff1673ffffffffffffffffffffffffffffffffffffffff1614613502576040517f08c379a00000000000000000000000000000000000000000000000000000000081526004018080602001828103825260678152602001806162a26067913960800191505060405180910390fd5b61350b816141ae565b15613561576040517f08c379a000000000000000000000000000000000000000000000000000000000815260040180806020018281038252602381526020018061654a6023913960400191505060405180910390fd5b61356c816004615af1565b50565b60006060829050604081511461358957600091505061374d565b60005b6040811015613746577f30000000000000000000000000000000000000000000000000000000000000008282815181106135c257fe5b602001015160f81c60f81b7effffffffffffffffffffffffffffffffffffffffffffffffffffffffffffff191610156136005760009250505061374d565b7f390000000000000000000000000000000000000000000000000000000000000082828151811061362d57fe5b602001015160f81c60f81b7effffffffffffffffffffffffffffffffffffffffffffffffffffffffffffff19161180156136be57507f610000000000000000000000000000000000000000000000000000000000000082828151811061368f57fe5b602001015160f81c60f81b7effffffffffffffffffffffffffffffffffffffffffffffffffffffffffffff1916105b156136ce5760009250505061374d565b7f66000000000000000000000000000000000000000000000000000000000000008282815181106136fb57fe5b602001015160f81c60f81b7effffffffffffffffffffffffffffffffffffffffffffffffffffffffffffff191611156137395760009250505061374d565b808060010191505061358c565b5060019150505b919050565b61375a615ec5565b73ffffffffffffffffffffffffffffffffffffffff1660008054906101000a900473ffffffffffffffffffffffffffffffffffffffff1673ffffffffffffffffffffffffffffffffffffffff161461381a576040517f08c379a00000000000000000000000000000000000000000000000000000000081526004018080602001828103825260208152602001807f4f776e61626c653a2063616c6c6572206973206e6f7420746865206f776e657281525060200191505060405180910390fd5b600073ffffffffffffffffffffffffffffffffffffffff1660008054906101000a900473ffffffffffffffffffffffffffffffffffffffff1673ffffffffffffffffffffffffffffffffffffffff167f8be0079c531659141344cd1fd0a4f28419497f9722a3daafe3b4186f6b6457e060405160405180910390a360008060006101000a81548173ffffffffffffffffffffffffffffffffffffffff021916908373ffffffffffffffffffffffffffffffffffffffff160217905550565b60086020528060005260406000206000915090505481565b6000600660008373ffffffffffffffffffffffffffffffffffffffff1673ffffffffffffffffffffffffffffffffffffffff16815260200190815260200160002060010160009054906101000a900467ffffffffffffffff169050919050565b613958615ec5565b73ffffffffffffffffffffffffffffffffffffffff1660008054906101000a900473ffffffffffffffffffffffffffffffffffffffff1673ffffffffffffffffffffffffffffffffffffffff1614613a18576040517f08c379a00000000000000000000000000000000000000000000000000000000081526004018080602001828103825260208152602001807f4f776e61626c653a2063616c6c6572206973206e6f7420746865206f776e657281525060200191505060405180910390fd5b80600360006101000a81548173ffffffffffffffffffffffffffffffffffffffff021916908373ffffffffffffffffffffffffffffffffffffffff1602179055507fe8940ba94a1b862af0a845755bbe38516264b7937dc69ffdb00fa16bb9c2c85f81604051808273ffffffffffffffffffffffffffffffffffffffff16815260200191505060405180910390a150565b6000600660008373ffffffffffffffffffffffffffffffffffffffff1673ffffffffffffffffffffffffffffffffffffffff16815260200190815260200160002060030160019054906101000a900460ff166001811115613b0657fe5b9050919050565b6000339050613b1b816145d8565b613b70576040517f08c379a00000000000000000000000000000000000000000000000000000000081526004018080602001828103825260358152602001806167e66035913960400191505060405180910390fd5b6000600554420190506000613b8485616054565b9050613b8f84612503565b15613d05576040518060e001604052808281526020018667ffffffffffffffff16815260200185815260200160016005811115613bc857fe5b815260200160006001811115613bda57fe5b815260200160001515815260200183815250600660008573ffffffffffffffffffffffffffffffffffffffff1673ffffffffffffffffffffffffffffffffffffffff1681526020019081526020016000206000820151816000015560208201518160010160006101000a81548167ffffffffffffffff021916908367ffffffffffffffff1602179055506040820151816002019080519060200190613c809291906160ef565b5060608201518160030160006101000a81548160ff02191690836005811115613ca557fe5b021790555060808201518160030160016101000a81548160ff02191690836001811115613cce57fe5b021790555060a08201518160030160026101000a81548160ff02191690831515021790555060c08201518160040155905050613ecf565b613d0e8461356f565b613d63576040517f08c379a00000000000000000000000000000000000000000000000000000000081526004018080602001828103825260238152602001806165a36023913960400191505060405180910390fd5b6040518060e001604052808281526020018667ffffffffffffffff16815260200185815260200160016005811115613d9757fe5b8152602001600180811115613da857fe5b815260200160001515815260200183815250600660008573ffffffffffffffffffffffffffffffffffffffff1673ffffffffffffffffffffffffffffffffffffffff1681526020019081526020016000206000820151816000015560208201518160010160006101000a81548167ffffffffffffffff021916908367ffffffffffffffff1602179055506040820151816002019080519060200190613e4e9291906160ef565b5060608201518160030160006101000a81548160ff02191690836005811115613e7357fe5b021790555060808201518160030160016101000a81548160ff02191690836001811115613e9c57fe5b021790555060a08201518160030160026101000a81548160ff02191690831515021790555060c082015181600401559050505b60076000828152602001908152602001600020839080600181540180825580915050600190039060005260206000200160009091909190916101000a81548173ffffffffffffffffffffffffffffffffffffffff021916908373ffffffffffffffffffffffffffffffffffffffff16021790555060608490507fdf705ffb67f3c12f456a843de9785cb8435e6819b1974e5df6de4557ae2f52f68483888487604051808673ffffffffffffffffffffffffffffffffffffffff1681526020018581526020018467ffffffffffffffff16815260200180602001838152602001828103825284818151815260200191508051906020019080838360005b83811015613fe6578082015181840152602081019050613fcb565b50505050905090810190601f1680156140135780820380516001836020036101000a031916815260200191505b50965050505050505060405180910390a1505050505050565b614034615ec5565b73ffffffffffffffffffffffffffffffffffffffff1660008054906101000a900473ffffffffffffffffffffffffffffffffffffffff1673ffffffffffffffffffffffffffffffffffffffff16146140f4576040517f08c379a00000000000000000000000000000000000000000000000000000000081526004018080602001828103825260208152602001807f4f776e61626c653a2063616c6c6572206973206e6f7420746865206f776e657281525060200191505060405180910390fd5b80600260006101000a81548173ffffffffffffffffffffffffffffffffffffffff021916908373ffffffffffffffffffffffffffffffffffffffff1602179055507fab616eba0b7070d2d87e12d5c2d05868da9a14a38db4c54abb148faa879bdf6281604051808273ffffffffffffffffffffffffffffffffffffffff16815260200191505060405180910390a150565b60008060009054906101000a900473ffffffffffffffffffffffffffffffffffffffff16905090565b60006005808111156141bc57fe5b600660008473ffffffffffffffffffffffffffffffffffffffff1673ffffffffffffffffffffffffffffffffffffffff16815260200190815260200160002060030160009054906101000a900460ff16600581111561421757fe5b149050919050565b60055481565b614264816040518060400160405280600181526020017f3000000000000000000000000000000000000000000000000000000000000000815250613b0d565b50565b61427033613019565b156142c6576040517f08c379a000000000000000000000000000000000000000000000000000000000815260040180806020018281038252603a815260200180616309603a913960400191505060405180910390fd5b6142cf33614bbc565b15614325576040517f08c379a000000000000000000000000000000000000000000000000000000000815260040180806020018281038252606581526020018061648d6065913960800191505060405180910390fd5b61432e33613120565b614383576040517f08c379a000000000000000000000000000000000000000000000000000000000815260040180806020018281038252603681526020018061656d6036913960400191505060405180910390fd5b600033905061439181611bea565b6143e6576040517f08c379a00000000000000000000000000000000000000000000000000000000081526004018080602001828103825260318152602001806168f66031913960400191505060405180910390fd5b8173ffffffffffffffffffffffffffffffffffffffff168173ffffffffffffffffffffffffffffffffffffffff16141561446b576040517f08c379a000000000000000000000000000000000000000000000000000000000815260040180806020018281038252604181526020018061644c6041913960600191505060405180910390fd5b6144758183614c0a565b6144ca576040517f08c379a00000000000000000000000000000000000000000000000000000000081526004018080602001828103825260478152602001806163816047913960600191505060405180910390fd5b6144d5826001615c81565b5050565b6000600660008373ffffffffffffffffffffffffffffffffffffffff1673ffffffffffffffffffffffffffffffffffffffff16815260200190815260200160002060030160009054906101000a900460ff16600581111561453657fe5b9050919050565b600080614549836117c1565b9050614554816116b2565b6145a9576040517f08c379a00000000000000000000000000000000000000000000000000000000081526004018080602001828103825260268152602001806169276026913960400191505060405180910390fd5b80915050919050565b600160009054906101000a900473ffffffffffffffffffffffffffffffffffffffff1681565b60008060058111156145e657fe5b600660008473ffffffffffffffffffffffffffffffffffffffff1673ffffffffffffffffffffffffffffffffffffffff16815260200190815260200160002060030160009054906101000a900460ff16600581111561464157fe5b149050919050565b614651615ec5565b73ffffffffffffffffffffffffffffffffffffffff1660008054906101000a900473ffffffffffffffffffffffffffffffffffffffff1673ffffffffffffffffffffffffffffffffffffffff1614614711576040517f08c379a00000000000000000000000000000000000000000000000000000000081526004018080602001828103825260208152602001807f4f776e61626c653a2063616c6c6572206973206e6f7420746865206f776e657281525060200191505060405180910390fd5b80600160006101000a81548173ffffffffffffffffffffffffffffffffffffffff021916908373ffffffffffffffffffffffffffffffffffffffff1602179055507fb4b21447ed122203af852ed9cc9406dfcf15215ca2a22c6e2adca1156bccea9181604051808273ffffffffffffffffffffffffffffffffffffffff16815260200191505060405180910390a150565b60003390506147b0816145d8565b15614806576040517f08c379a00000000000000000000000000000000000000000000000000000000081526004018080602001828103825260358152602001806162476035913960400191505060405180910390fd5b61480f816141ae565b15614865576040517f08c379a00000000000000000000000000000000000000000000000000000000081526004018080602001828103825260278152602001806167bf6027913960400191505060405180910390fd5b61486e82612503565b6148e45761487b81611bea565b156148df576148898261356f565b6148de576040517f08c379a00000000000000000000000000000000000000000000000000000000081526004018080602001828103825260238152602001806165a36023913960400191505060405180910390fd5b5b614944565b6148ed81611bea565b15614943576040517f08c379a00000000000000000000000000000000000000000000000000000000081526004018080602001828103825260388152602001806166306038913960400191505060405180910390fd5b5b60006005544201905082600660008473ffffffffffffffffffffffffffffffffffffffff1673ffffffffffffffffffffffffffffffffffffffff16815260200190815260200160002060020190805190602001906149a39291906160ef565b506001600660008473ffffffffffffffffffffffffffffffffffffffff1673ffffffffffffffffffffffffffffffffffffffff16815260200190815260200160002060030160006101000a81548160ff02191690836005811115614a0357fe5b021790555080600660008473ffffffffffffffffffffffffffffffffffffffff1673ffffffffffffffffffffffffffffffffffffffff168152602001908152602001600020600401819055506000600660008473ffffffffffffffffffffffffffffffffffffffff1673ffffffffffffffffffffffffffffffffffffffff16815260200190815260200160002060030160026101000a81548160ff0219169083151502179055507ff492947317cd8bacaf07d8d493aa37edfc267531f5c311a42eaf0b68d332f38b828483604051808473ffffffffffffffffffffffffffffffffffffffff16815260200180602001838152602001828103825284818151815260200191508051906020019080838360005b83811015614b30578082015181840152602081019050614b15565b50505050905090810190601f168015614b5d5780820380516001836020036101000a031916815260200191505b5094505050505060405180910390a1505050565b60076020528160005260406000208181548110614b8a57fe5b906000526020600020016000915091509054906101000a900473ffffffffffffffffffffffffffffffffffffffff1681565b600042600660008473ffffffffffffffffffffffffffffffffffffffff1673ffffffffffffffffffffffffffffffffffffffff16815260200190815260200160002060040154109050919050565b6000600660008373ffffffffffffffffffffffffffffffffffffffff1673ffffffffffffffffffffffffffffffffffffffff16815260200190815260200160002060010160009054906101000a900467ffffffffffffffff1667ffffffffffffffff16600660008573ffffffffffffffffffffffffffffffffffffffff1673ffffffffffffffffffffffffffffffffffffffff16815260200190815260200160002060010160009054906101000a900467ffffffffffffffff1667ffffffffffffffff1614905092915050565b6000614ce2826133c1565b50614cec826138f0565b9050919050565b60045481565b614d0233613019565b15614d58576040517f08c379a000000000000000000000000000000000000000000000000000000000815260040180806020018281038252603a815260200180616309603a913960400191505060405180910390fd5b614d6133614bbc565b15614db7576040517f08c379a000000000000000000000000000000000000000000000000000000000815260040180806020018281038252606581526020018061648d6065913960800191505060405180910390fd5b614dc033613120565b614e15576040517f08c379a000000000000000000000000000000000000000000000000000000000815260040180806020018281038252603681526020018061656d6036913960400191505060405180910390fd5b6000339050614e23826141ae565b15614e79576040517f08c379a00000000000000000000000000000000000000000000000000000000081526004018080602001828103825260298152602001806164236029913960400191505060405180910390fd5b614e8282613019565b15614ef5576040517f08c379a00000000000000000000000000000000000000000000000000000000081526004018080602001828103825260178152602001807f436f6e7461206ac3a120657374c3a1207061757361646100000000000000000081525060200191505060405180910390fd5b614eff8183614c0a565b614f54576040517f08c379a000000000000000000000000000000000000000000000000000000000815260040180806020018281038252603e815260200180616343603e913960400191505060405180910390fd5b8073ffffffffffffffffffffffffffffffffffffffff168273ffffffffffffffffffffffffffffffffffffffff161480614f945750614f9282611bea565b155b614fe9576040517f08c379a00000000000000000000000000000000000000000000000000000000081526004018080602001828103825260258152602001806161ec6025913960400191505060405180910390fd5b8073ffffffffffffffffffffffffffffffffffffffff168273ffffffffffffffffffffffffffffffffffffffff161480615028575061502781611bea565b5b61507d576040517f08c379a000000000000000000000000000000000000000000000000000000000815260040180806020018281038252602a8152602001806164f2602a913960400191505060405180910390fd5b615088826001615ecd565b5050565b3373ffffffffffffffffffffffffffffffffffffffff16600260009054906101000a900473ffffffffffffffffffffffffffffffffffffffff1673ffffffffffffffffffffffffffffffffffffffff1614615132576040517f08c379a00000000000000000000000000000000000000000000000000000000081526004018080602001828103825260488152602001806168466048913960600191505060405180910390fd5b600033905061514082612662565b615195576040517f08c379a000000000000000000000000000000000000000000000000000000000815260040180806020018281038252602a815260200180616668602a913960400191505060405180910390fd5b61519e82613019565b156151f4576040517f08c379a00000000000000000000000000000000000000000000000000000000081526004018080602001828103825260338152602001806163c86033913960400191505060405180910390fd5b6151fd82614bbc565b15615253576040517f08c379a00000000000000000000000000000000000000000000000000000000081526004018080602001828103825260348152602001806165fc6034913960400191505060405180910390fd5b61525c82611bea565b6152b1576040517f08c379a000000000000000000000000000000000000000000000000000000000815260040180806020018281038252602b81526020018061681b602b913960400191505060405180910390fd5b6004600660008473ffffffffffffffffffffffffffffffffffffffff1673ffffffffffffffffffffffffffffffffffffffff16815260200190815260200160002060030160006101000a81548160ff0219169083600581111561531057fe5b02179055507f90e796ddecc580ca3db3277073bdbf5d9c3eac364c19683d78a0bb129021360b82600660008573ffffffffffffffffffffffffffffffffffffffff1673ffffffffffffffffffffffffffffffffffffffff16815260200190815260200160002060000154600660008673ffffffffffffffffffffffffffffffffffffffff1673ffffffffffffffffffffffffffffffffffffffff16815260200190815260200160002060010160009054906101000a900467ffffffffffffffff1684604051808573ffffffffffffffffffffffffffffffffffffffff1681526020018481526020018367ffffffffffffffff1681526020018273ffffffffffffffffffffffffffffffffffffffff16815260200194505050505060405180910390a15050565b6000615441826116b2565b615496576040517f08c379a00000000000000000000000000000000000000000000000000000000081526004018080602001828103825260268152602001806169276026913960400191505060405180910390fd5b61549f82613072565b9050919050565b3373ffffffffffffffffffffffffffffffffffffffff16600360009054906101000a900473ffffffffffffffffffffffffffffffffffffffff1673ffffffffffffffffffffffffffffffffffffffff161461554c576040517f08c379a00000000000000000000000000000000000000000000000000000000081526004018080602001828103825260678152602001806162a26067913960800191505060405180910390fd5b6060600760008381526020019081526020016000208054806020026020016040519081016040528092919081815260200182805480156155e157602002820191906000526020600020905b8160009054906101000a900473ffffffffffffffffffffffffffffffffffffffff1673ffffffffffffffffffffffffffffffffffffffff1681526020019060010190808311615597575b5050505050905060005b815181101561564757600082828151811061560257fe5b60200260200101519050615615816141ae565b158015615628575061562681613019565b155b1561563957615638816004615ecd565b5b5080806001019150506155eb565b505050565b615654615ec5565b73ffffffffffffffffffffffffffffffffffffffff1660008054906101000a900473ffffffffffffffffffffffffffffffffffffffff1673ffffffffffffffffffffffffffffffffffffffff1614615714576040517f08c379a00000000000000000000000000000000000000000000000000000000081526004018080602001828103825260208152602001807f4f776e61626c653a2063616c6c6572206973206e6f7420746865206f776e657281525060200191505060405180910390fd5b600073ffffffffffffffffffffffffffffffffffffffff168173ffffffffffffffffffffffffffffffffffffffff16141561579a576040517f08c379a000000000000000000000000000000000000000000000000000000000815260040180806020018281038252602681526020018061627c6026913960400191505060405180910390fd5b8073ffffffffffffffffffffffffffffffffffffffff1660008054906101000a900473ffffffffffffffffffffffffffffffffffffffff1673ffffffffffffffffffffffffffffffffffffffff167f8be0079c531659141344cd1fd0a4f28419497f9722a3daafe3b4186f6b6457e060405160405180910390a3806000806101000a81548173ffffffffffffffffffffffffffffffffffffffff021916908373ffffffffffffffffffffffffffffffffffffffff16021790555050565b6000339050615865816141ae565b156158bb576040517f08c379a000000000000000000000000000000000000000000000000000000000815260040180806020018281038252602381526020018061654a6023913960400191505060405180910390fd5b6158c6816001615af1565b50565b600080606060008060008060006158de61616f565b600660008b73ffffffffffffffffffffffffffffffffffffffff1673ffffffffffffffffffffffffffffffffffffffff1681526020019081526020016000206040518060e0016040529081600082015481526020016001820160009054906101000a900467ffffffffffffffff1667ffffffffffffffff1667ffffffffffffffff168152602001600282018054600181600116156101000203166002900480601f0160208091040260200160405190810160405280929190818152602001828054600181600116156101000203166002900480156159fd5780601f106159d2576101008083540402835291602001916159fd565b820191906000526020600020905b8154815290600101906020018083116159e057829003601f168201915b505050505081526020016003820160009054906101000a900460ff166005811115615a2457fe5b6005811115615a2f57fe5b81526020016003820160019054906101000a900460ff166001811115615a5157fe5b6001811115615a5c57fe5b81526020016003820160029054906101000a900460ff1615151515815260200160048201548152505090506060816040015190506000615a9b8c614bbc565b9050826000015183602001518385606001516005811115615ab857fe5b86608001516001811115615ac857fe5b8760a001518860c00151879a509a509a509a509a509a509a509a50505050919395975091939597565b6005600660008473ffffffffffffffffffffffffffffffffffffffff1673ffffffffffffffffffffffffffffffffffffffff16815260200190815260200160002060030160006101000a81548160ff02191690836005811115615b5057fe5b02179055507ff21c6489d7501ed8680a8057bde75d0b1a96ed72c4e7fb66dab5500b247f573b82600660008573ffffffffffffffffffffffffffffffffffffffff1673ffffffffffffffffffffffffffffffffffffffff16815260200190815260200160002060000154600660008673ffffffffffffffffffffffffffffffffffffffff1673ffffffffffffffffffffffffffffffffffffffff16815260200190815260200160002060010160009054906101000a900467ffffffffffffffff163385604051808673ffffffffffffffffffffffffffffffffffffffff1681526020018581526020018467ffffffffffffffff1681526020018373ffffffffffffffffffffffffffffffffffffffff1681526020018260ff1681526020019550505050505060405180910390a15050565b615c8a826141ae565b15615ce0576040517f08c379a000000000000000000000000000000000000000000000000000000000815260040180806020018281038252602e81526020018061651c602e913960400191505060405180910390fd5b615ce982613019565b615d3e576040517f08c379a000000000000000000000000000000000000000000000000000000000815260040180806020018281038252602d8152602001806166f9602d913960400191505060405180910390fd5b6000600660008473ffffffffffffffffffffffffffffffffffffffff1673ffffffffffffffffffffffffffffffffffffffff16815260200190815260200160002060030160026101000a81548160ff0219169083151502179055507f227cbae91e983df06bd1200d744f04513fee47cfd847092fa7f5c8c1ad62208182600660008573ffffffffffffffffffffffffffffffffffffffff1673ffffffffffffffffffffffffffffffffffffffff16815260200190815260200160002060000154600660008673ffffffffffffffffffffffffffffffffffffffff1673ffffffffffffffffffffffffffffffffffffffff16815260200190815260200160002060010160009054906101000a900467ffffffffffffffff163385604051808673ffffffffffffffffffffffffffffffffffffffff1681526020018581526020018467ffffffffffffffff1681526020018373ffffffffffffffffffffffffffffffffffffffff1681526020018260ff1681526020019550505050505060405180910390a15050565b600033905090565b6001600660008473ffffffffffffffffffffffffffffffffffffffff1673ffffffffffffffffffffffffffffffffffffffff16815260200190815260200160002060030160026101000a81548160ff0219169083151502179055507fca968621fb765ebc0063732949287ab2f87e93949cbb9adea1cc88bba7576dea82600660008573ffffffffffffffffffffffffffffffffffffffff1673ffffffffffffffffffffffffffffffffffffffff16815260200190815260200160002060000154600660008673ffffffffffffffffffffffffffffffffffffffff1673ffffffffffffffffffffffffffffffffffffffff16815260200190815260200160002060010160009054906101000a900467ffffffffffffffff163385604051808673ffffffffffffffffffffffffffffffffffffffff1681526020018581526020018467ffffffffffffffff1681526020018373ffffffffffffffffffffffffffffffffffffffff1681526020018260ff1681526020019550505050505060405180910390a15050565b600080600860008467ffffffffffffffff1667ffffffffffffffff1681526020019081526020016000205414156160c057600460008154600101919050819055600860008467ffffffffffffffff1667ffffffffffffffff168152602001908152602001600020819055505b600860008367ffffffffffffffff1667ffffffffffffffff168152602001908152602001600020549050919050565b828054600181600116156101000203166002900490600052602060002090601f016020900481019282601f1061613057805160ff191683800117855561615e565b8280016001018555821561615e579182015b8281111561615d578251825591602001919060010190616142565b5b50905061616b91906161ce565b5090565b6040518060e0016040528060008152602001600067ffffffffffffffff16815260200160608152602001600060058111156161a657fe5b8152602001600060018111156161b857fe5b8152602001600015158152602001600081525090565b5b808211156161e75760008160009055506001016161cf565b509056fe4ec3a36f20706f64652070617573617220636f6e7461206465206f7574726f2041444d494e4120636f6e74612070726563697361206573746172206e6f2065737461646f20416775617264616e646f2056616c696461c3a7c3a36f456e64657265c3a76f206465766520706f646520746572207369646f206361646173747261646f20616e746572696f726d656e74654f776e61626c653a206e6577206f776e657220697320746865207a65726f2061646472657373412061c3a7c3a36f2073c3b320706f646520736572206578656375746164612070656c6120636f6e746120726573706f6e73c3a176656c2070656c6120746f6d61722061c3a7c3b56573206465636f7272656e746573206465206d6f6e69746f7261c3a7c3a36f4170656e617320636f6e746173206ec3a36f20706175736164617320706f64656d2065786563757461722065737461206f70657261c3a7c3a36f536f6d656e746520636f6e7461206465206d65736d61206f7267616e697a61c3a7c3a36f20706f646520657865637574617220657374612061c3a7c3a36f536f6d656e746520706f6465207265746972617220706175736120646520756d6120636f6e7461207175656d20666f72206461206d65736d61206f7267616e697a61c3a7c3a36f4120636f6e7461206ec3a36f20706f6465207365722076616c696461646120706f7271756520657374c3a120706175736164614ec3a36f20706f646520696e76616c6964617220636f6e7461206465206f7574726f2041444d494e436f6e74617320696e76c3a16c69646173206ec3a36f20706f64656d20736572207061757361646173556d6120706573736f61206ec3a36f20c3a920636170617a2064652072657469726172206f20706175736520646520737561207072c3b37072696120636f6e74614170656e617320636f6e74617320636f6d206465636c617261c3a7c3b565732063756a6f7320636572746966696361646f732061696e64612073c3a36f2076c3a16c69646f7320706f64656d2065786563757461722065737461206f70657261c3a7c3a36f436f6e746120524547554c4152206ec3a36f20706f646520706175736172206f7574726120636f6e7461436f6e74617320696e76c3a16c69646173206ec3a36f20706f64656d2073657220726574697261722070617573614120636f6e746120666f6920696e76616c6964616461207072657669616d656e74652e4170656e617320636f6e7461732076616c69646164617320706f64656d2065786563757461722065737461206f70657261c3a7c3a36f4f2068617368206461206465636c617261c3a7c3a36f20c3a920696e76c3a16c69646f4120636f6e7461207072656369736120657374617220656d2065737461646f20416775617264616e646f2056616c696461c3a7c3a36f4120636f6e7461206ec3a36f20706f6465207365722076616c696461646120706f7271756520657374c3a1206578706972616461436f6e7461732041646d696e20707265636973616d20696e666f726d617220756d2068617368206469666572656e7465206465207a65726f4120636f6e7461207072656369736120657374617220656d2065737461646f20416775617264616e646f436f6e746120524547554c4152206ec3a36f20706f646520696e76616c69646172206f7574726120636f6e74614170656e617320636f6e746173206461206d65736d61206f7267616e697a6163616f20706f64656d2073657220696e76616c6964616461732e20536f6d656e746520756d6120636f6e7461207061757361646120706f64652073657220646573706175736164614f20726573706f6e73c3a176656c2070656c612076616c696461c3a7c3a36f206465766520736572206461206d65736d61206f7267616e697a61c3a7c3a36f20286d65736d6f20434e504a29412061c3a7c3a36f2073c3b320706f646520736572206578656375746164612070656c6120636f6e746120726573706f6e73c3a176656c2070656c61207072c3a92d76616c696461c3a7c3a36f456e64657265c3a76f206ec3a36f20706f646520746572207369646f20696e76616c696461646f456e64657265c3a76f206ec3a36f20706f646520746572207369646f206361646173747261646f20616e746572696f726d656e74654120636f6e746120612076616c69646172206465766520746572206f20706170656c2064652041444d494e412061c3a7c3a36f2073c3b320706f646520736572206578656375746164612070656c6120636f6e746120726573706f6e73c3a176656c2070656c612076616c696461c3a7c3a36f4f20726573706f6e73c3a176656c2070656c612076616c696461c3a7c3a36f206465766520746572206f20706170656c2041444d494e4f20757375c3a172696f2061207365722076616c696461646f206465766520746572206f20706170656c20524547554c4152536f6d656e746520756d6120636f6e74612041444d494e20706f646520657865637574617220657374612061c3a7c3a36f41206f7267616e697a61c3a7c3a36f206ec3a36f20657374c3a1206f7065726163696f6e616c53c3b320c3a920706f7373c3ad76656c20696e76616c6964617220636f6e74612064652041444d494e206e6f2070726f636573736f2064652076616c696461c3a7c3a36fa26469706673582212209edb2a7c67ead0327beb1ef0630da7ffb2fe594ae1cada174b3a913059aa9f9464736f6c634300060c0033",
  "immutableReferences": {},
  "source": "pragma solidity ^0.6.0;\n\nimport \"@openzeppelin/contracts/access/Ownable.sol\";\nimport \"./IRBBRegistry.sol\";\n\ncontract RBBRegistry is IRBBRegistry, Ownable() {\n\n    enum BlockchainAccountState {AVAILABLE,WAITING_VALIDATION,WAITING_APPROVAL,WAITING_REJECTION,VALIDATED,INVALIDATED}\n    BlockchainAccountState blockchainState; /* Variable not used, only defined to create the enum type. */\n      \n    /**\n    REGULAR  - operates \n    ADMIN    - validates the regular.\n     */\n    enum BlockchainAccountRole {REGULAR, ADMIN} \n    BlockchainAccountRole blockchainRole;  /* Variable not used, only defined to create the enum type. */\n\n    //Ativao/inativao de Registries no processo usual (pode ser via um processo automatizado) \n    address public responsibleForRegistryPreValidation;\n    address public responsibleForRegistryValidation;\n\n    //Inativao e pause/unpause decorrente de eventos no previstos (por exemplo, um comportamento inadequado de um Registry) \n    address public responsibleForActingAfterMonitoring;\n\n    /* This is a helper variable to emulate a sequence and autoincrement Ids*/\n    uint public currentRBBId = 0;\n\n     /**\n        This registry is about a company representative information\n     */    \n    struct Registry {\n        uint RBBId; //uma proxy para o CNPJ\n        uint64 CNPJ; //Brazilian identification of legal entity\n        string hashProof; //hash of declaration\n        BlockchainAccountState state;\n        BlockchainAccountRole role;\n        bool paused;\n        uint256 dateTimeExpiration; //vai ser outro momento de expirao diferente do ECNPJ\n    }\n\n    uint256 public defaultDeltaDateTimeExpiration = 365 days; \n\n    /**\n        Links Ethereum addresses to Registry\n     */\n    mapping(address => Registry) public legalEntitiesInfo;\n\n    /**\n        Links RBBID to Ethereum addresses.\n     */\n    mapping(uint => address[]) public RBBId_addresses;\n    \n    /**\n     * Links CNPJ to its RBBID\n     */\n    mapping (uint64 => uint) public CNPJ_RBBId;\n\n    //responsible is the msg.sender\n    event AccountRegistration       (address addr, uint RBBId, uint64 CNPJ, string hashProof, uint256 dateTimeExpiration);\n    event AccountWaitingApproval    (address addr, uint RBBId, uint64 CNPJ, address responsible);\n    event AccountWaitingRejection   (address addr, uint RBBId, uint64 CNPJ, address responsible);\n    event AccountValidation         (address addr, uint RBBId, uint64 CNPJ, address responsible);\n    event AccountInvalidation       (address addr, uint RBBId, uint64 CNPJ, address responsible, uint8 reason);\n    event AccountPaused             (address addr, uint RBBId, uint64 CNPJ, address responsible, uint8 reason);\n    event AccountUnpaused           (address addr, uint RBBId, uint64 CNPJ, address responsible, uint8 reason);\n    event AccountRoleChange         (address addr, uint RBBId, uint64 CNPJ, address responsible, BlockchainAccountRole roleBefore, BlockchainAccountRole roleNew);\n    event AccountReactivation       (address addr, string hashProof, uint256 dateTimeExpiration);\n\n    event RegistryExpirationChange  (address addr, uint256 dateTimeExpirationBefore, uint256 dateTimeExpirationNew);\n\n    event RoleDefinitionRegistryPreValidation(address rs);\n    event RoleDefinitionRegistryValidation(address rs);\n    event RoleDefinitionActingAfterMonitoring(address rs);\n\n\n    constructor () public {                \n        responsibleForRegistryPreValidation = msg.sender;\n        responsibleForRegistryValidation = msg.sender;\n        responsibleForActingAfterMonitoring = msg.sender;         \n    }\n\n    function setResponsibleForRegistryPreValidation(address rs) onlyOwner public {\n        responsibleForRegistryPreValidation = rs;\n        emit RoleDefinitionRegistryPreValidation(rs);\n    }    \n    function setResponsibleForRegistryValidation(address rs) onlyOwner public {\n        responsibleForRegistryValidation = rs;\n        emit RoleDefinitionRegistryValidation(rs);\n    }    \n    function setResponsibleForActingAfterMonitoring(address rs) onlyOwner public {\n        responsibleForActingAfterMonitoring = rs;\n        emit RoleDefinitionActingAfterMonitoring(rs);\n    }  \n    \n    modifier onlyByResponsibleForRegistryPreValidation() { \n        require( responsibleForRegistryPreValidation==msg.sender , \"A ao s pode ser executada pela conta responsvel pela pr-validao\" );\n        _;\n    }\n\n    modifier onlyByResponsibleForRegistryValidation() { \n        require( responsibleForRegistryValidation==msg.sender , \"A ao s pode ser executada pela conta responsvel pela validao\" );\n        _;\n    }\n\n    modifier onlyByResponsibleForActingAfterMonitoring() { \n        require( responsibleForActingAfterMonitoring==msg.sender , \"A ao s pode ser executada pela conta responsvel pela tomar aes decorrentes de monitorao\" );\n        _;\n    }\n\n    modifier onlyIfSenderIsOperational() { \n        require( ! isPaused(msg.sender), \"Apenas contas no pausadas podem executar esta operao\" );\n        require( ! isExpired(msg.sender), \"Apenas contas com declaraes cujos certificados ainda so vlidos podem executar esta operao\" );\n        require( isValidatedAccount(msg.sender), \"Apenas contas validadas podem executar esta operao\" );\n        _;\n    }\n    \n    function registryLegalEntityForRegularAccounts(uint64 cnpj) public {\n        registryLegalEntity(cnpj, \"0\");\n    }\n    \n   /**\n    * Self Registering\n    * Link blockchain address with CNPJ\n    * @param CNPJ Brazilian identifier to legal entities\n    * @param proofHash The legal entities have to send BNDES a PDF where it assumes as responsible for an Ethereum account.\n    *                   This PDF is signed with eCNPJ and send to BNDES.\n    */\n    function registryLegalEntity(uint64 CNPJ, string memory proofHash) public {\n        \n        address addr = msg.sender;\n\n        require (isAvailableAccount(addr), \"Endereo no pode ter sido cadastrado anteriormente\");\n\n        uint256 dateTimeExpiration = now + defaultDeltaDateTimeExpiration;\n        uint RBBId = calculaProximoRBBID(CNPJ);\n\n\n        if ( isZeroHash(proofHash) ) { \n            legalEntitiesInfo[addr] = Registry( RBBId,\n                                                CNPJ, \n                                                proofHash, \n                                                BlockchainAccountState.WAITING_VALIDATION, \n                                                BlockchainAccountRole.REGULAR,\n                                                false,\n                                                dateTimeExpiration );\n        } else {\n    \n            require (isValidHash(proofHash), \"O hash da declarao  invlido\");\n\n            legalEntitiesInfo[addr] = Registry( RBBId,\n                                                CNPJ, \n                                                proofHash, \n                                                BlockchainAccountState.WAITING_VALIDATION, \n                                                BlockchainAccountRole.ADMIN,\n                                                false,\n                                                dateTimeExpiration );\n        }\n\n        RBBId_addresses[RBBId].push(addr);\n        string memory proof = proofHash;\n        emit AccountRegistration(addr, RBBId, CNPJ, proof, dateTimeExpiration);\n    }\n\n    /**\n    * Validates the initial registry of others LegalEntities\n    * @param userAddr Ethereum address that needs to be validated\n    */\n    function preValidateRegistry(address userAddr, bool approval) public onlyByResponsibleForRegistryPreValidation {\n\n        address responsible = msg.sender;\n        \n        require( legalEntitiesInfo[userAddr].state == BlockchainAccountState.WAITING_VALIDATION, \n                \"A conta precisa estar em estado Aguardando Validao\");\n\n        require ( isAdmin(userAddr), \"A conta a validar deve ter o papel de ADMIN\" );\n\n        require (!isPaused(userAddr), \"A conta no pode ser validada porque est pausada\"); \n\n        require (!isExpired(userAddr), \"A conta no pode ser validada porque est expirada\");\n\n        if ( approval ) {\n            legalEntitiesInfo[userAddr].state = BlockchainAccountState.WAITING_APPROVAL;\n            emit AccountWaitingApproval(    userAddr, \n                                            legalEntitiesInfo[userAddr].RBBId, \n                                            legalEntitiesInfo[userAddr].CNPJ, \n                                            responsible );\n        }\n        else {\n            legalEntitiesInfo[userAddr].state = BlockchainAccountState.WAITING_REJECTION;\n            emit AccountWaitingRejection(   userAddr, \n                                            legalEntitiesInfo[userAddr].RBBId, \n                                            legalEntitiesInfo[userAddr].CNPJ, \n                                            responsible );\n        }\n    }\n    \n\n   /**\n    * Validates the initial registry of your own LegalEntity\n    * @param userAddr Ethereum address that needs to be validated\n    */\n    function validateRegistrySameOrg(address userAddr) public onlyIfSenderIsOperational {\n\n        address responsible = msg.sender;\n\n        require ( isAdmin(responsible), \"O responsvel pela validao deve ter o papel ADMIN\" );\n\n        require( legalEntitiesInfo[userAddr].state == BlockchainAccountState.WAITING_VALIDATION, \n                \"A conta precisa estar em estado Aguardando Validao\");\n\n        require (!isPaused(userAddr), \"A conta no pode ser validada porque est pausada\"); \n\n        require (!isExpired(userAddr), \"A conta no pode ser validada porque est expirada\");\n\n        require ( legalEntitiesInfo[userAddr].role == BlockchainAccountRole.REGULAR, \n                   \"O usurio a ser validado deve ter o papel REGULAR\" );\n\n        require ( isTheSameID(responsible, userAddr) , \n                   \"O responsvel pela validao deve ser da mesma organizao (mesmo CNPJ)\" );                   \n\n        legalEntitiesInfo[userAddr].state = BlockchainAccountState.VALIDATED;\n\n        emit AccountValidation( userAddr, \n                                legalEntitiesInfo[userAddr].RBBId, \n                                legalEntitiesInfo[userAddr].CNPJ, \n                                responsible);\n    }\n\n    /**\n    * Validates the initial registry of others LegalEntities\n    * @param userAddr Ethereum address that needs to be validated\n    */\n    function validateRegistry(address userAddr) public onlyByResponsibleForRegistryValidation {\n\n        address responsible = msg.sender;\n\n        require( isWaitingAccount(userAddr), \"A conta precisa estar em estado Aguardando\");\n\n        require (!isPaused(userAddr), \"A conta no pode ser validada porque est pausada\"); \n\n        require (!isExpired(userAddr), \"A conta no pode ser validada porque est expirada\");\n\n        require ( isAdmin(userAddr), \"A conta a validar deve ter o papel de ADMIN\" );\n        \n        legalEntitiesInfo[userAddr].state = BlockchainAccountState.VALIDATED;\n\n        emit AccountValidation( userAddr, \n                                legalEntitiesInfo[userAddr].RBBId, \n                                legalEntitiesInfo[userAddr].CNPJ, \n                                responsible);\n    }   \n\n\n     /**\n    * Pause an account     \n    * @param addr Ethereum address that needs to be paused\n    */\n    function pauseAddressSameOrg(address addr) public onlyIfSenderIsOperational {\n\n        address responsible = msg.sender;\n\n        require (!isInvalidated(addr), \"Contas invlidas no podem ser pausadas\");\n        require (!isPaused(addr), \"Conta j est pausada\");\n        require( isTheSameID(responsible, addr), \"Somente conta de mesma organizao pode executar esta ao\" );\n\n        require ((addr==responsible || !isAdmin(addr)), \"No pode pausar conta de outro ADMIN\");\n        require ((addr==responsible || isAdmin(responsible)), \"Conta REGULAR no pode pausar outra conta\");\n\n        pauseAddressInternal (addr, 1);\n\n    }\n\n    function pauseAddressAfterMonitoring(address addr) public onlyByResponsibleForActingAfterMonitoring {\n\n        require (!isInvalidated(addr), \"Contas invlidas no podem ser pausadas\");\n        require (!isPaused(addr), \"Conta j est pausada\");\n\n        pauseAddressInternal (addr, 2);\n    }\n\n    function pauseAddressInternal(address addr, uint8 reason) internal {\n\n        legalEntitiesInfo[addr].paused = true;\n        \n        emit AccountPaused( addr, \n                            legalEntitiesInfo[addr].RBBId,\n                            legalEntitiesInfo[addr].CNPJ, \n                            msg.sender,\n                            reason);\n    }\n\n\n    function pauseLegalEntitySameOrg() public onlyIfSenderIsOperational {\n\n        address responsible = msg.sender;\n        uint rbbId = getIdRaw(responsible);\n\n        address[] memory addresses  = RBBId_addresses[rbbId];\n\n        for (uint i=0; i < addresses.length ; i++) {\n            address candidate = addresses[i];\n            if( !isInvalidated(candidate) &&\n                !isPaused(candidate) ) {\n                pauseAddressInternal (candidate, 3);\n            }\n        }\n    }\n\n\n    function pauseLegalEntityAfterMonitoring(uint RBBId) public onlyByResponsibleForActingAfterMonitoring {\n\n        address[] memory addresses  = RBBId_addresses[RBBId];\n\n        for (uint i=0; i < addresses.length ; i++) {\n            address candidate = addresses[i];\n            if( !isInvalidated(candidate) &&\n                !isPaused(candidate) ) {\n                pauseAddressInternal (candidate, 4);\n            }\n        }   \n    }\n\n\n    /**\n    * Unpause an account     \n    * @param addr Ethereum address that needs to be validated\n    */\n    function unpauseAddressSameOrg(address addr) public onlyIfSenderIsOperational {\n\n        address responsible = msg.sender;\n\n        require( isAdmin(responsible), \"Somente uma conta ADMIN pode executar esta ao\" );\n\n        require ( responsible != addr , \"Uma pessoa no  capaz de retirar o pause de sua prpria conta\");\n        require( isTheSameID(responsible, addr), \n                    \"Somente pode retirar pausa de uma conta quem for da mesma organizao\" );\n        \n        unpauseAddressInternal(addr, 1);        \n        \n    }\n\n    function unpauseAddressAfterMonitoring(address addr) public onlyByResponsibleForActingAfterMonitoring {\n        unpauseAddressInternal(addr,2);        \n    }\n\n    function unpauseAddressInternal(address addr, uint8 reason) internal {\n\n        require (!isInvalidated(addr), \"Contas invlidas no podem ser retirar pausa\");\n        require( isPaused(addr), \"Somente uma conta pausada pode ser despausada\" ); \n\n        legalEntitiesInfo[addr].paused = false;\n        \n        emit AccountUnpaused(   addr, \n                                legalEntitiesInfo[addr].RBBId,\n                                legalEntitiesInfo[addr].CNPJ, \n                                msg.sender,\n                                reason);\n    }\n\n    function invalidateYourOwnAddress() public {\n\n        address addr = msg.sender;\n\n        require( !isInvalidated(addr), \"A conta foi invalidada previamente.\" );\n\n        invalidateAddressInternal(addr, 1);\n\n    }\n\n   /**\n    * Invalidates the initial registry of a legal entity or the change of its registry\n    * @param addr Ethereum address that needs to be invalidated\n    */\n    function invalidateAddressSameOrg(address addr) public onlyIfSenderIsOperational {\n\n        address responsible = msg.sender;\n\n        require( !isInvalidated(addr), \"A conta foi invalidada previamente.\" );\n\n        require( isTheSameID(responsible, addr) , \"Apenas contas da mesma organizacao podem ser invalidadas. \");\n\n        require ((addr==responsible || !isAdmin(addr)), \"No pode invalidar conta de outro ADMIN\");\n        require ((addr==responsible || isAdmin(responsible)), \"Conta REGULAR no pode invalidar outra conta\");\n\n        invalidateAddressInternal(addr, 2);\n\n    }\n\n    function invalidateAddress(address addr) public onlyByResponsibleForRegistryValidation {\n\n        require(isWaitingAccount(addr), \"A conta precisa estar no estado Aguardando Validao\");\n\n        require( isAdmin(addr), \"S  possvel invalidar conta de ADMIN no processo de validao\");\n\n        invalidateAddressInternal(addr, 3);\n\n    }\n\n\n    function invalidateAddressAfterMonitoring(address addr) public onlyByResponsibleForActingAfterMonitoring {\n\n        require( !isInvalidated(addr), \"A conta foi invalidada previamente.\" );\n        \n        invalidateAddressInternal(addr, 4);\n    }\n\n    function invalidateAddressInternal(address addr, uint8 reason) internal {\n\n        legalEntitiesInfo[addr].state = BlockchainAccountState.INVALIDATED;\n        \n        emit AccountInvalidation(   addr, \n                                    legalEntitiesInfo[addr].RBBId, \n                                    legalEntitiesInfo[addr].CNPJ, \n                                    msg.sender,\n                                    reason );\n    \n    }\n\n    function revalidateForRegularAccounts() public {\n        revalidateAccount(\"0\");\n    }\n\n    function revalidateAccount(string memory hashProof) public {\n        \n        address addr = msg.sender;\n\n        require (!isAvailableAccount(addr), \"Endereo deve pode ter sido cadastrado anteriormente\");\n        require (!isInvalidated(addr), \"Endereo no pode ter sido invalidado\");\n\n        if ( !isZeroHash(hashProof) ) { \n            if (isAdmin(addr)) {\n                require (isValidHash(hashProof), \"O hash da declarao  invlido\");\n            }\n        }\n        else {\n            require(!isAdmin(addr), \"Contas Admin precisam informar um hash diferente de zero\");\n        }\n\n        uint256 dateTimeExpiration = now + defaultDeltaDateTimeExpiration;\n\n        legalEntitiesInfo[addr].hashProof = hashProof;\n        legalEntitiesInfo[addr].state = BlockchainAccountState.WAITING_VALIDATION;\n        legalEntitiesInfo[addr].dateTimeExpiration = dateTimeExpiration;\n        legalEntitiesInfo[addr].paused = false;\n\n        emit AccountReactivation(addr, hashProof, dateTimeExpiration);\n    }\n\n\n    /**\n    * The Owner can assign new default expiration time for future registries\n    * @param deltaDateTimeExpirationNew the new default expiration time \n    */\n    function setDefaultDeltaDateTimeExpiration(uint256 deltaDateTimeExpirationNew) onlyOwner public {\n\n        uint256 defaultDeltaDateTimeExpirationOld = defaultDeltaDateTimeExpiration;\n        defaultDeltaDateTimeExpiration = deltaDateTimeExpirationNew;\n        \n        emit RegistryExpirationChange(   msg.sender, \n                                         defaultDeltaDateTimeExpirationOld, \n                                         defaultDeltaDateTimeExpiration );        \n    }\n\n    function calculaProximoRBBID(uint64 CNPJ) internal returns (uint) {\n\n        if ( CNPJ_RBBId[CNPJ] == 0 ) //se nao existir rbbid para este CNPJ\n            CNPJ_RBBId[CNPJ] = ++currentRBBId;\n\n        return CNPJ_RBBId[CNPJ];\n    } \n\n   function isValidHash(string memory str) pure public returns (bool)  {\n\n        bytes memory b = bytes(str);\n        if(b.length != 64) return false;\n\n        for (uint i=0; i<64; i++) {\n            if (b[i] < \"0\") return false;\n            if (b[i] > \"9\" && b[i] <\"a\") return false;\n            if (b[i] > \"f\") return false;\n        }\n            \n        return true;\n    }\n\n    function isZeroHash(string memory str) pure public returns (bool) {\n        return (keccak256(bytes(str)) == keccak256(bytes(\"0\")));\n    }\n\n    function isOperational(address addr) public view returns (bool) {\n        return isValidatedAccount(addr) && !isPaused(addr) && !isExpired(addr);\n    }\n\n    function isRegistryOperational(uint RBBId) public view override returns (bool) {\n        address[] memory addresses  = RBBId_addresses[RBBId];\n\n        for (uint i=0; i < addresses.length ; i++) {\n            if ( isOperational( addresses[i] ) && isAdmin(addresses[i]) ) {\n                    return true;\n            }\n        }\n    }\n\n    function getId (address addr) public view override returns (uint) {\n        uint RBBId = getIdRaw(addr);\n        require ( isRegistryOperational( RBBId ) , \"A organizao no est operacional\" );\n        return RBBId;\n    }    \n\n    function getIdRaw (address addr) public view override returns (uint) {\n        return legalEntitiesInfo[addr].RBBId;\n    }\n\n    function getIdFromCNPJ(uint64 cnpj) public view override returns (uint) {\n        uint rbbId = getIdFromCNPJRaw(cnpj);\n        require ( isRegistryOperational( rbbId ) , \"A organizao no est operacional\" );\n        return rbbId;\n    }\n\n    function getIdFromCNPJRaw(uint64 cnpj) public view override returns (uint) {\n        return CNPJ_RBBId[cnpj];\n    }\n\n    function getCNPJbyID(uint Id) public view override returns (uint64 ) {\n        require ( isRegistryOperational( Id ) , \"A organizao no est operacional\" );\n        return getCNPJbyIDRaw(Id);\n    }\n\n    function getCNPJbyIDRaw(uint Id) public view override returns (uint64 ) {\n        address addr = RBBId_addresses[Id][0];\n        return legalEntitiesInfo[addr].CNPJ;\n    }\n\n    function getCNPJ (address addr) public view returns (uint64) {\n        getId(addr); //just check if it is operational\n        return getCNPJRaw(addr);\n    }\n\n    function getCNPJRaw (address addr) public view returns (uint64) {\n        return legalEntitiesInfo[addr].CNPJ;\n    }\n\n    function getRegistry (address addr) public view override returns (uint, uint64, string memory, uint, uint, bool, uint256, bool) {\n        Registry memory reg = legalEntitiesInfo[addr];\n        string memory proof = reg.hashProof;\n        bool bExp = isExpired(addr);\n        return (  reg.RBBId,\n                  reg.CNPJ, \n                  proof, \n                  (uint) (reg.state),\n                  (uint) (reg.role),\n                  reg.paused,\n                  reg.dateTimeExpiration,\n                  bExp\n                );\n    }\n\n\n    function getBlockchainAccounts(uint RBBId) public view returns (address[] memory) {\n        return RBBId_addresses[RBBId];\n    }\n\n    function getAccountState(address addr) public view returns (int) {\n        return ((int) (legalEntitiesInfo[addr].state));\n    }\n\n    function getAccountRole(address addr) public view returns (int) {\n        return ((int) (legalEntitiesInfo[addr].role));\n    }\n\n    function isExpired (address addr) public view returns (bool) {\n        return (legalEntitiesInfo[addr].dateTimeExpiration < now);\n    }\n\n    function isOwner(address addr) public view returns (bool) {\n        return owner()==addr;\n    }\n\n    function isAvailableAccount(address addr) public view returns (bool) {\n        return legalEntitiesInfo[addr].state == BlockchainAccountState.AVAILABLE;\n    }\n\n    function isWaitingAccount(address addr) public view returns (bool) {\n        return legalEntitiesInfo[addr].state == BlockchainAccountState.WAITING_VALIDATION\n            || legalEntitiesInfo[addr].state == BlockchainAccountState.WAITING_APPROVAL\n            || legalEntitiesInfo[addr].state == BlockchainAccountState.WAITING_REJECTION ;\n    }\n\n    function isValidatedAccount(address addr) public view returns (bool) {\n        return legalEntitiesInfo[addr].state == BlockchainAccountState.VALIDATED;\n    }\n\n    function isInvalidated(address addr) public view returns (bool) {\n        return legalEntitiesInfo[addr].state == BlockchainAccountState.INVALIDATED;\n    }\n\n    function isTheSameID(address a, address b) public view returns (bool) {\n        return legalEntitiesInfo[a].CNPJ == legalEntitiesInfo[b].CNPJ ;\n    }\n\n    function isPaused(address addr) public view returns (bool) {\n        return legalEntitiesInfo[addr].paused;\n    }\n\n    function isAdmin(address addr) public view returns (bool) { \n        return legalEntitiesInfo[addr].role == BlockchainAccountRole.ADMIN;\n    }\n\n\n \n\n\n}\n",
  "sourcePath": "/app/id/novo Id/p/a/rbb-identificacao/Back-Blockchain/contracts/RBBRegistry.sol",
  "compiler": {
    "name": "solc",
    "version": "0.6.12+commit.27d51765.Emscripten.clang"
  },
  "schemaVersion": "3.3.2",
  "updatedAt": "2021-04-09T14:15:12.191Z",
  "networkType": "ethereum",
  "devdoc": {
    "kind": "dev",
    "methods": {
      "invalidateAddressSameOrg(address)": {
        "params": {
          "addr": "Ethereum address that needs to be invalidated"
        }
      },
      "owner()": {
        "details": "Returns the address of the current owner."
      },
      "pauseAddressSameOrg(address)": {
        "params": {
          "addr": "Ethereum address that needs to be paused"
        }
      },
      "preValidateRegistry(address,bool)": {
        "params": {
          "userAddr": "Ethereum address that needs to be validated"
        }
      },
      "registryLegalEntity(uint64,string)": {
        "params": {
          "CNPJ": "Brazilian identifier to legal entities",
          "proofHash": "The legal entities have to send BNDES a PDF where it assumes as responsible for an Ethereum account.                   This PDF is signed with eCNPJ and send to BNDES."
        }
      },
      "renounceOwnership()": {
        "details": "Leaves the contract without owner. It will not be possible to call `onlyOwner` functions anymore. Can only be called by the current owner. NOTE: Renouncing ownership will leave the contract without an owner, thereby removing any functionality that is only available to the owner."
      },
      "setDefaultDeltaDateTimeExpiration(uint256)": {
        "params": {
          "deltaDateTimeExpirationNew": "the new default expiration time "
        }
      },
      "transferOwnership(address)": {
        "details": "Transfers ownership of the contract to a new account (`newOwner`). Can only be called by the current owner."
      },
      "unpauseAddressSameOrg(address)": {
        "params": {
          "addr": "Ethereum address that needs to be validated"
        }
      },
      "validateRegistry(address)": {
        "params": {
          "userAddr": "Ethereum address that needs to be validated"
        }
      },
      "validateRegistrySameOrg(address)": {
        "params": {
          "userAddr": "Ethereum address that needs to be validated"
        }
      }
    },
    "version": 1
  },
  "userdoc": {
    "kind": "user",
    "methods": {
      "CNPJ_RBBId(uint64)": {
        "notice": "Links CNPJ to its RBBID"
      },
      "RBBId_addresses(uint256,uint256)": {
        "notice": "Links RBBID to Ethereum addresses."
      },
      "invalidateAddressSameOrg(address)": {
        "notice": "Invalidates the initial registry of a legal entity or the change of its registry"
      },
      "legalEntitiesInfo(address)": {
        "notice": "Links Ethereum addresses to Registry"
      },
      "pauseAddressSameOrg(address)": {
        "notice": "Pause an account     "
      },
      "preValidateRegistry(address,bool)": {
        "notice": "Validates the initial registry of others LegalEntities"
      },
      "registryLegalEntity(uint64,string)": {
        "notice": "Self Registering Link blockchain address with CNPJ"
      },
      "setDefaultDeltaDateTimeExpiration(uint256)": {
        "notice": "The Owner can assign new default expiration time for future registries"
      },
      "unpauseAddressSameOrg(address)": {
        "notice": "Unpause an account     "
      },
      "validateRegistry(address)": {
        "notice": "Validates the initial registry of others LegalEntities"
      },
      "validateRegistrySameOrg(address)": {
        "notice": "Validates the initial registry of your own LegalEntity"
      }
    },
    "version": 1
  }
}