{
  "contractName": "RBBRegistry",
  "abi": [
    {
      "inputs": [
        {
          "internalType": "uint256",
          "name": "CNPJSUPADMIN",
          "type": "uint256"
        },
        {
          "internalType": "string",
          "name": "proofHashSUPADMIN",
          "type": "string"
        },
        {
          "internalType": "uint256",
          "name": "daysToExpire",
          "type": "uint256"
        }
      ],
      "stateMutability": "nonpayable",
      "type": "constructor"
    },
    {
      "anonymous": false,
      "inputs": [
        {
          "indexed": false,
          "internalType": "address",
          "name": "addr",
          "type": "address"
        },
        {
          "indexed": false,
          "internalType": "uint256",
          "name": "RBBId",
          "type": "uint256"
        },
        {
          "indexed": false,
          "internalType": "uint256",
          "name": "CNPJ",
          "type": "uint256"
        },
        {
          "indexed": false,
          "internalType": "address",
          "name": "responsible",
          "type": "address"
        }
      ],
      "name": "AccountInvalidation",
      "type": "event"
    },
    {
      "anonymous": false,
      "inputs": [
        {
          "indexed": false,
          "internalType": "address",
          "name": "addr",
          "type": "address"
        },
        {
          "indexed": false,
          "internalType": "uint256",
          "name": "RBBId",
          "type": "uint256"
        },
        {
          "indexed": false,
          "internalType": "uint256",
          "name": "CNPJ",
          "type": "uint256"
        },
        {
          "indexed": false,
          "internalType": "address",
          "name": "responsible",
          "type": "address"
        }
      ],
      "name": "AccountPaused",
      "type": "event"
    },
    {
      "anonymous": false,
      "inputs": [
        {
          "indexed": false,
          "internalType": "address",
          "name": "addr",
          "type": "address"
        },
        {
          "indexed": false,
          "internalType": "uint256",
          "name": "RBBId",
          "type": "uint256"
        },
        {
          "indexed": false,
          "internalType": "uint256",
          "name": "CNPJ",
          "type": "uint256"
        },
        {
          "indexed": false,
          "internalType": "string",
          "name": "hashProof",
          "type": "string"
        },
        {
          "indexed": false,
          "internalType": "uint256",
          "name": "dateTimeExpiration",
          "type": "uint256"
        }
      ],
      "name": "AccountRegistration",
      "type": "event"
    },
    {
      "anonymous": false,
      "inputs": [
        {
          "indexed": false,
          "internalType": "address",
          "name": "addr",
          "type": "address"
        },
        {
          "indexed": false,
          "internalType": "uint256",
          "name": "RBBId",
          "type": "uint256"
        },
        {
          "indexed": false,
          "internalType": "uint256",
          "name": "CNPJ",
          "type": "uint256"
        },
        {
          "indexed": false,
          "internalType": "address",
          "name": "responsible",
          "type": "address"
        },
        {
          "indexed": false,
          "internalType": "enum RBBRegistry.BlockchainAccountRole",
          "name": "roleBefore",
          "type": "uint8"
        },
        {
          "indexed": false,
          "internalType": "enum RBBRegistry.BlockchainAccountRole",
          "name": "roleNew",
          "type": "uint8"
        }
      ],
      "name": "AccountRoleChange",
      "type": "event"
    },
    {
      "anonymous": false,
      "inputs": [
        {
          "indexed": false,
          "internalType": "address",
          "name": "addr",
          "type": "address"
        },
        {
          "indexed": false,
          "internalType": "uint256",
          "name": "RBBId",
          "type": "uint256"
        },
        {
          "indexed": false,
          "internalType": "uint256",
          "name": "CNPJ",
          "type": "uint256"
        },
        {
          "indexed": false,
          "internalType": "address",
          "name": "responsible",
          "type": "address"
        }
      ],
      "name": "AccountUnpaused",
      "type": "event"
    },
    {
      "anonymous": false,
      "inputs": [
        {
          "indexed": false,
          "internalType": "address",
          "name": "addr",
          "type": "address"
        },
        {
          "indexed": false,
          "internalType": "uint256",
          "name": "RBBId",
          "type": "uint256"
        },
        {
          "indexed": false,
          "internalType": "uint256",
          "name": "CNPJ",
          "type": "uint256"
        },
        {
          "indexed": false,
          "internalType": "address",
          "name": "responsible",
          "type": "address"
        }
      ],
      "name": "AccountValidation",
      "type": "event"
    },
    {
      "anonymous": false,
      "inputs": [
        {
          "indexed": false,
          "internalType": "address",
          "name": "addr",
          "type": "address"
        },
        {
          "indexed": false,
          "internalType": "uint256",
          "name": "RBBId",
          "type": "uint256"
        },
        {
          "indexed": false,
          "internalType": "uint256",
          "name": "CNPJ",
          "type": "uint256"
        },
        {
          "indexed": false,
          "internalType": "address",
          "name": "responsible",
          "type": "address"
        }
      ],
      "name": "AccountWaitingApproval",
      "type": "event"
    },
    {
      "anonymous": false,
      "inputs": [
        {
          "indexed": false,
          "internalType": "address",
          "name": "addr",
          "type": "address"
        },
        {
          "indexed": false,
          "internalType": "uint256",
          "name": "RBBId",
          "type": "uint256"
        },
        {
          "indexed": false,
          "internalType": "uint256",
          "name": "CNPJ",
          "type": "uint256"
        },
        {
          "indexed": false,
          "internalType": "address",
          "name": "responsible",
          "type": "address"
        }
      ],
      "name": "AccountWaitingRejection",
      "type": "event"
    },
    {
      "anonymous": false,
      "inputs": [
        {
          "indexed": true,
          "internalType": "address",
          "name": "previousOwner",
          "type": "address"
        },
        {
          "indexed": true,
          "internalType": "address",
          "name": "newOwner",
          "type": "address"
        }
      ],
      "name": "OwnershipTransferred",
      "type": "event"
    },
    {
      "anonymous": false,
      "inputs": [
        {
          "indexed": false,
          "internalType": "address",
          "name": "addr",
          "type": "address"
        },
        {
          "indexed": false,
          "internalType": "uint256",
          "name": "dateTimeExpirationBefore",
          "type": "uint256"
        },
        {
          "indexed": false,
          "internalType": "uint256",
          "name": "dateTimeExpirationNew",
          "type": "uint256"
        }
      ],
      "name": "RegistryExpirationChange",
      "type": "event"
    },
    {
      "inputs": [
        {
          "internalType": "uint256",
          "name": "",
          "type": "uint256"
        }
      ],
      "name": "CNPJ_RBBId",
      "outputs": [
        {
          "internalType": "uint256",
          "name": "",
          "type": "uint256"
        }
      ],
      "stateMutability": "view",
      "type": "function",
      "constant": true
    },
    {
      "inputs": [
        {
          "internalType": "uint256",
          "name": "",
          "type": "uint256"
        },
        {
          "internalType": "uint256",
          "name": "",
          "type": "uint256"
        }
      ],
      "name": "RBBId_addresses",
      "outputs": [
        {
          "internalType": "address",
          "name": "",
          "type": "address"
        }
      ],
      "stateMutability": "view",
      "type": "function",
      "constant": true
    },
    {
      "inputs": [],
      "name": "currentRBBId",
      "outputs": [
        {
          "internalType": "uint256",
          "name": "",
          "type": "uint256"
        }
      ],
      "stateMutability": "view",
      "type": "function",
      "constant": true
    },
    {
      "inputs": [],
      "name": "defaultDateTimeExpiration",
      "outputs": [
        {
          "internalType": "uint256",
          "name": "",
          "type": "uint256"
        }
      ],
      "stateMutability": "view",
      "type": "function",
      "constant": true
    },
    {
      "inputs": [
        {
          "internalType": "address",
          "name": "",
          "type": "address"
        }
      ],
      "name": "legalEntitiesInfo",
      "outputs": [
        {
          "internalType": "uint256",
          "name": "RBBId",
          "type": "uint256"
        },
        {
          "internalType": "uint256",
          "name": "CNPJ",
          "type": "uint256"
        },
        {
          "internalType": "string",
          "name": "hashProof",
          "type": "string"
        },
        {
          "internalType": "enum RBBRegistry.BlockchainAccountState",
          "name": "state",
          "type": "uint8"
        },
        {
          "internalType": "enum RBBRegistry.BlockchainAccountRole",
          "name": "role",
          "type": "uint8"
        },
        {
          "internalType": "bool",
          "name": "paused",
          "type": "bool"
        },
        {
          "internalType": "uint256",
          "name": "dateTimeExpiration",
          "type": "uint256"
        }
      ],
      "stateMutability": "view",
      "type": "function",
      "constant": true
    },
    {
      "inputs": [],
      "name": "owner",
      "outputs": [
        {
          "internalType": "address",
          "name": "",
          "type": "address"
        }
      ],
      "stateMutability": "view",
      "type": "function",
      "constant": true
    },
    {
      "inputs": [],
      "name": "renounceOwnership",
      "outputs": [],
      "stateMutability": "nonpayable",
      "type": "function"
    },
    {
      "inputs": [
        {
          "internalType": "address",
          "name": "newOwner",
          "type": "address"
        }
      ],
      "name": "transferOwnership",
      "outputs": [],
      "stateMutability": "nonpayable",
      "type": "function"
    },
    {
      "inputs": [
        {
          "internalType": "uint256",
          "name": "CNPJ",
          "type": "uint256"
        },
        {
          "internalType": "string",
          "name": "CNPJProofHash",
          "type": "string"
        }
      ],
      "name": "registryLegalEntity",
      "outputs": [],
      "stateMutability": "nonpayable",
      "type": "function"
    },
    {
      "inputs": [
        {
          "internalType": "address",
          "name": "userAddr",
          "type": "address"
        }
      ],
      "name": "validateRegistrySameOrg",
      "outputs": [],
      "stateMutability": "nonpayable",
      "type": "function"
    },
    {
      "inputs": [
        {
          "internalType": "address",
          "name": "userAddr",
          "type": "address"
        }
      ],
      "name": "validateRegistry",
      "outputs": [],
      "stateMutability": "nonpayable",
      "type": "function"
    },
    {
      "inputs": [
        {
          "internalType": "address",
          "name": "userAddr",
          "type": "address"
        },
        {
          "internalType": "bool",
          "name": "approval",
          "type": "bool"
        }
      ],
      "name": "preValidateRegistry",
      "outputs": [],
      "stateMutability": "nonpayable",
      "type": "function"
    },
    {
      "inputs": [
        {
          "internalType": "address",
          "name": "addr",
          "type": "address"
        }
      ],
      "name": "pauseAddress",
      "outputs": [],
      "stateMutability": "nonpayable",
      "type": "function"
    },
    {
      "inputs": [
        {
          "internalType": "uint256",
          "name": "RBBId",
          "type": "uint256"
        }
      ],
      "name": "pauseLegalEntity",
      "outputs": [],
      "stateMutability": "nonpayable",
      "type": "function"
    },
    {
      "inputs": [
        {
          "internalType": "address",
          "name": "addr",
          "type": "address"
        }
      ],
      "name": "unpauseAddress",
      "outputs": [],
      "stateMutability": "nonpayable",
      "type": "function"
    },
    {
      "inputs": [
        {
          "internalType": "address",
          "name": "addr",
          "type": "address"
        }
      ],
      "name": "invalidateRegistrySameOrg",
      "outputs": [],
      "stateMutability": "nonpayable",
      "type": "function"
    },
    {
      "inputs": [
        {
          "internalType": "address",
          "name": "addr",
          "type": "address"
        }
      ],
      "name": "invalidateRegistry",
      "outputs": [],
      "stateMutability": "nonpayable",
      "type": "function"
    },
    {
      "inputs": [
        {
          "internalType": "address",
          "name": "addr",
          "type": "address"
        }
      ],
      "name": "isSortOfAdmin",
      "outputs": [
        {
          "internalType": "bool",
          "name": "",
          "type": "bool"
        }
      ],
      "stateMutability": "view",
      "type": "function",
      "constant": true
    },
    {
      "inputs": [
        {
          "internalType": "address",
          "name": "addr",
          "type": "address"
        }
      ],
      "name": "isOwner",
      "outputs": [
        {
          "internalType": "bool",
          "name": "",
          "type": "bool"
        }
      ],
      "stateMutability": "view",
      "type": "function",
      "constant": true
    },
    {
      "inputs": [
        {
          "internalType": "address",
          "name": "addr",
          "type": "address"
        }
      ],
      "name": "isAvailableAccount",
      "outputs": [
        {
          "internalType": "bool",
          "name": "",
          "type": "bool"
        }
      ],
      "stateMutability": "view",
      "type": "function",
      "constant": true
    },
    {
      "inputs": [
        {
          "internalType": "address",
          "name": "addr",
          "type": "address"
        }
      ],
      "name": "isWaitingAccount",
      "outputs": [
        {
          "internalType": "bool",
          "name": "",
          "type": "bool"
        }
      ],
      "stateMutability": "view",
      "type": "function",
      "constant": true
    },
    {
      "inputs": [
        {
          "internalType": "address",
          "name": "addr",
          "type": "address"
        }
      ],
      "name": "isValidatedAccount",
      "outputs": [
        {
          "internalType": "bool",
          "name": "",
          "type": "bool"
        }
      ],
      "stateMutability": "view",
      "type": "function",
      "constant": true
    },
    {
      "inputs": [
        {
          "internalType": "address",
          "name": "addr",
          "type": "address"
        }
      ],
      "name": "isInvalidated",
      "outputs": [
        {
          "internalType": "bool",
          "name": "",
          "type": "bool"
        }
      ],
      "stateMutability": "view",
      "type": "function",
      "constant": true
    },
    {
      "inputs": [
        {
          "internalType": "address",
          "name": "a",
          "type": "address"
        },
        {
          "internalType": "address",
          "name": "b",
          "type": "address"
        }
      ],
      "name": "isTheSameID",
      "outputs": [
        {
          "internalType": "bool",
          "name": "",
          "type": "bool"
        }
      ],
      "stateMutability": "view",
      "type": "function",
      "constant": true
    },
    {
      "inputs": [
        {
          "internalType": "address",
          "name": "addr",
          "type": "address"
        }
      ],
      "name": "isPaused",
      "outputs": [
        {
          "internalType": "bool",
          "name": "",
          "type": "bool"
        }
      ],
      "stateMutability": "view",
      "type": "function",
      "constant": true
    },
    {
      "inputs": [
        {
          "internalType": "address",
          "name": "addr",
          "type": "address"
        }
      ],
      "name": "isOperational",
      "outputs": [
        {
          "internalType": "bool",
          "name": "",
          "type": "bool"
        }
      ],
      "stateMutability": "view",
      "type": "function",
      "constant": true
    },
    {
      "inputs": [
        {
          "internalType": "uint256",
          "name": "RBBId",
          "type": "uint256"
        }
      ],
      "name": "isRegistryOperational",
      "outputs": [
        {
          "internalType": "bool",
          "name": "",
          "type": "bool"
        }
      ],
      "stateMutability": "view",
      "type": "function",
      "constant": true
    },
    {
      "inputs": [
        {
          "internalType": "address",
          "name": "addr",
          "type": "address"
        }
      ],
      "name": "getId",
      "outputs": [
        {
          "internalType": "uint256",
          "name": "",
          "type": "uint256"
        }
      ],
      "stateMutability": "view",
      "type": "function",
      "constant": true
    },
    {
      "inputs": [
        {
          "internalType": "address",
          "name": "addr",
          "type": "address"
        }
      ],
      "name": "getRBBIdRaw",
      "outputs": [
        {
          "internalType": "uint256",
          "name": "",
          "type": "uint256"
        }
      ],
      "stateMutability": "view",
      "type": "function",
      "constant": true
    },
    {
      "inputs": [
        {
          "internalType": "address",
          "name": "addr",
          "type": "address"
        }
      ],
      "name": "getCNPJ",
      "outputs": [
        {
          "internalType": "uint256",
          "name": "",
          "type": "uint256"
        }
      ],
      "stateMutability": "view",
      "type": "function",
      "constant": true
    },
    {
      "inputs": [
        {
          "internalType": "address",
          "name": "addr",
          "type": "address"
        }
      ],
      "name": "getRegistry",
      "outputs": [
        {
          "internalType": "uint256",
          "name": "",
          "type": "uint256"
        },
        {
          "internalType": "uint256",
          "name": "",
          "type": "uint256"
        },
        {
          "internalType": "string",
          "name": "",
          "type": "string"
        },
        {
          "internalType": "uint256",
          "name": "",
          "type": "uint256"
        },
        {
          "internalType": "uint256",
          "name": "",
          "type": "uint256"
        },
        {
          "internalType": "bool",
          "name": "",
          "type": "bool"
        },
        {
          "internalType": "uint256",
          "name": "",
          "type": "uint256"
        }
      ],
      "stateMutability": "view",
      "type": "function",
      "constant": true
    },
    {
      "inputs": [
        {
          "internalType": "uint256",
          "name": "RBBId",
          "type": "uint256"
        }
      ],
      "name": "getBlockchainAccounts",
      "outputs": [
        {
          "internalType": "address[]",
          "name": "",
          "type": "address[]"
        }
      ],
      "stateMutability": "view",
      "type": "function",
      "constant": true
    },
    {
      "inputs": [
        {
          "internalType": "address",
          "name": "addr",
          "type": "address"
        }
      ],
      "name": "getAccountState",
      "outputs": [
        {
          "internalType": "int256",
          "name": "",
          "type": "int256"
        }
      ],
      "stateMutability": "view",
      "type": "function",
      "constant": true
    },
    {
      "inputs": [
        {
          "internalType": "address",
          "name": "addr",
          "type": "address"
        }
      ],
      "name": "getAccountRole",
      "outputs": [
        {
          "internalType": "int256",
          "name": "",
          "type": "int256"
        }
      ],
      "stateMutability": "view",
      "type": "function",
      "constant": true
    },
    {
      "inputs": [
        {
          "internalType": "uint256",
          "name": "cnpj",
          "type": "uint256"
        }
      ],
      "name": "getIdFromCNPJ",
      "outputs": [
        {
          "internalType": "uint256",
          "name": "",
          "type": "uint256"
        }
      ],
      "stateMutability": "view",
      "type": "function",
      "constant": true
    },
    {
      "inputs": [
        {
          "internalType": "address",
          "name": "addr",
          "type": "address"
        }
      ],
      "name": "setRoleSupAdmin",
      "outputs": [],
      "stateMutability": "nonpayable",
      "type": "function"
    },
    {
      "inputs": [
        {
          "internalType": "uint256",
          "name": "dateTimeExpirationNew",
          "type": "uint256"
        }
      ],
      "name": "setDefaultDateTimeExpiration",
      "outputs": [],
      "stateMutability": "nonpayable",
      "type": "function"
    },
    {
      "inputs": [
        {
          "internalType": "uint256",
          "name": "Id",
          "type": "uint256"
        }
      ],
      "name": "getCNPJbyID",
      "outputs": [
        {
          "internalType": "uint256",
          "name": "",
          "type": "uint256"
        }
      ],
      "stateMutability": "view",
      "type": "function",
      "constant": true
    }
  ],
  "bytecode": "0x608060405260006001556301e133806002553480156200001e57600080fd5b506040516200655138038062006551833981810160405260608110156200004457600080fd5b8101908080519060200190929190805160405193929190846401000000008211156200006f57600080fd5b838201915060208201858111156200008657600080fd5b8251866001820283011164010000000082111715620000a457600080fd5b8083526020830192505050908051906020019080838360005b83811015620000da578082015181840152602081019050620000bd565b50505050905090810190601f168015620001085780820380516001836020036101000a031916815260200191505b506040526020018051906020019092919050505060006200012e6200048f60201b60201c565b9050806000806101000a81548173ffffffffffffffffffffffffffffffffffffffff021916908373ffffffffffffffffffffffffffffffffffffffff1602179055508073ffffffffffffffffffffffffffffffffffffffff16600073ffffffffffffffffffffffffffffffffffffffff167f8be0079c531659141344cd1fd0a4f28419497f9722a3daafe3b4186f6b6457e060405160405180910390a350600033905060608390506000620151808402420190506000620001f5876200049760201b60201c565b90506040518060e00160405280828152602001888152602001848152602001600460058111156200022257fe5b81526020016002808111156200023457fe5b815260200160001515815260200183815250600360008673ffffffffffffffffffffffffffffffffffffffff1673ffffffffffffffffffffffffffffffffffffffff16815260200190815260200160002060008201518160000155602082015181600101556040820151816002019080519060200190620002b7929190620004f7565b5060608201518160030160006101000a81548160ff02191690836005811115620002dd57fe5b021790555060808201518160030160016101000a81548160ff021916908360028111156200030757fe5b021790555060a08201518160030160026101000a81548160ff02191690831515021790555060c0820151816004015590505060046000828152602001908152602001600020849080600181540180825580915050600190039060005260206000200160009091909190916101000a81548173ffffffffffffffffffffffffffffffffffffffff021916908373ffffffffffffffffffffffffffffffffffffffff1602179055507f3e1598c2de5d15920c01bbf8dbe538db3d434a0c71cd01b63df9aab3eb1873698482898986604051808673ffffffffffffffffffffffffffffffffffffffff16815260200185815260200184815260200180602001838152602001828103825284818151815260200191508051906020019080838360005b838110156200044357808201518184015260208101905062000426565b50505050905090810190601f168015620004715780820380516001836020036101000a031916815260200191505b50965050505050505060405180910390a1505050505050506200059d565b600033905090565b60008060056000848152602001908152602001600020541415620004dc5760016000815460010191905081905560056000848152602001908152602001600020819055505b60056000838152602001908152602001600020549050919050565b828054600181600116156101000203166002900490600052602060002090601f016020900481019282601f106200053a57805160ff19168380011785556200056b565b828001600101855582156200056b579182015b828111156200056a5782518255916020019190600101906200054d565b5b5090506200057a91906200057e565b5090565b5b80821115620005995760008160009055506001016200057f565b5090565b615fa480620005ad6000396000f3fe608060405234801561001057600080fd5b50600436106102325760003560e01c806381d66b2311610130578063be49b78d116100b8578063f24b1add1161007c578063f24b1add14610cc7578063f2fde38b14610d8c578063f582202714610dd0578063f818f70f14610e14578063f971d77c14610e3257610232565b8063be49b78d14610b9d578063c616f4c014610bf5578063caa7922c14610c13578063d208665714610c57578063e7e4fec814610c9957610232565b80639ee2735b116100ff5780639ee2735b146109b5578063a3d8845314610a0d578063b6fc41fa14610a67578063b8e175b114610ac9578063bb39308614610b2357610232565b806381d66b23146108a15780638c879eb1146108f95780638da5cb5b146109275780638e97637e1461095b57610232565b8063466723e4116101be57806367b035491161018257806367b03549146107895780636d568671146107cd578063715018a61461080f57806377df472c146108195780637bf0bca61461085d57610232565b8063466723e4146105df5780634f16ce0c146106395780635b14f1831461067d5780636426a116146106d757806365f68c891461073157610232565b80632dc913a6116102055780632dc913a61461044d5780632f54bf6e1461048f57806331cc10ce146104e957806339b3893914610541578063457385f21461058557610232565b8063087d4427146102375780630bf20e011461027b57806326ff4794146102fe57806328f5ae23146103fd575b600080fd5b6102636004803603602081101561024d57600080fd5b8101908080359060200190929190505050610f1b565b60405180821515815260200191505060405180910390f35b6102a76004803603602081101561029157600080fd5b810190808035906020019092919050505061102a565b6040518080602001828103825283818151815260200191508051906020019060200280838360005b838110156102ea5780820151818401526020810190506102cf565b505050509050019250505060405180910390f35b6103406004803603602081101561031457600080fd5b81019080803573ffffffffffffffffffffffffffffffffffffffff1690602001909291905050506110cb565b604051808881526020018781526020018060200186600581111561036057fe5b815260200185600281111561037157fe5b81526020018415158152602001838152602001828103825287818151815260200191508051906020019080838360005b838110156103bc5780820151818401526020810190506103a1565b50505050905090810190601f1680156103e95780820380516001836020036101000a031916815260200191505b509850505050505050505060405180910390f35b61044b6004803603604081101561041357600080fd5b81019080803573ffffffffffffffffffffffffffffffffffffffff1690602001909291908035151590602001909291905050506111cc565b005b6104796004803603602081101561046357600080fd5b81019080803590602001909291905050506118de565b6040518082815260200191505060405180910390f35b6104d1600480360360208110156104a557600080fd5b81019080803573ffffffffffffffffffffffffffffffffffffffff1690602001909291905050506118f6565b60405180821515815260200191505060405180910390f35b61052b600480360360208110156104ff57600080fd5b81019080803573ffffffffffffffffffffffffffffffffffffffff169060200190929190505050611935565b6040518082815260200191505060405180910390f35b6105836004803603602081101561055757600080fd5b81019080803573ffffffffffffffffffffffffffffffffffffffff169060200190929190505050611981565b005b6105c76004803603602081101561059b57600080fd5b81019080803573ffffffffffffffffffffffffffffffffffffffff169060200190929190505050611cdf565b60405180821515815260200191505060405180910390f35b610621600480360360208110156105f557600080fd5b81019080803573ffffffffffffffffffffffffffffffffffffffff169060200190929190505050611d03565b60405180821515815260200191505060405180910390f35b61067b6004803603602081101561064f57600080fd5b81019080803573ffffffffffffffffffffffffffffffffffffffff169060200190929190505050611e55565b005b6106bf6004803603602081101561069357600080fd5b81019080803573ffffffffffffffffffffffffffffffffffffffff16906020019092919050505061247d565b60405180821515815260200191505060405180910390f35b610719600480360360208110156106ed57600080fd5b81019080803573ffffffffffffffffffffffffffffffffffffffff1690602001909291905050506124d6565b60405180821515815260200191505060405180910390f35b6107736004803603602081101561074757600080fd5b81019080803573ffffffffffffffffffffffffffffffffffffffff169060200190929190505050612548565b6040518082815260200191505060405180910390f35b6107cb6004803603602081101561079f57600080fd5b81019080803573ffffffffffffffffffffffffffffffffffffffff1690602001909291905050506125bd565b005b6107f9600480360360208110156107e357600080fd5b8101908080359060200190929190505050612b60565b6040518082815260200191505060405180910390f35b610817612b7d565b005b61085b6004803603602081101561082f57600080fd5b81019080803573ffffffffffffffffffffffffffffffffffffffff169060200190929190505050612d03565b005b61089f6004803603602081101561087357600080fd5b81019080803573ffffffffffffffffffffffffffffffffffffffff169060200190929190505050613272565b005b6108e3600480360360208110156108b757600080fd5b81019080803573ffffffffffffffffffffffffffffffffffffffff169060200190929190505050613875565b6040518082815260200191505060405180910390f35b6109256004803603602081101561090f57600080fd5b81019080803590602001909291905050506138d9565b005b61092f613e7d565b604051808273ffffffffffffffffffffffffffffffffffffffff16815260200191505060405180910390f35b61099d6004803603602081101561097157600080fd5b81019080803573ffffffffffffffffffffffffffffffffffffffff169060200190929190505050613ea6565b60405180821515815260200191505060405180910390f35b6109f7600480360360208110156109cb57600080fd5b81019080803573ffffffffffffffffffffffffffffffffffffffff169060200190929190505050613f17565b6040518082815260200191505060405180910390f35b610a4f60048036036020811015610a2357600080fd5b81019080803573ffffffffffffffffffffffffffffffffffffffff169060200190929190505050613f7b565b60405180821515815260200191505060405180910390f35b610a9d60048036036040811015610a7d57600080fd5b810190808035906020019092919080359060200190929190505050613fec565b604051808273ffffffffffffffffffffffffffffffffffffffff16815260200191505060405180910390f35b610b0b60048036036020811015610adf57600080fd5b81019080803573ffffffffffffffffffffffffffffffffffffffff169060200190929190505050614037565b60405180821515815260200191505060405180910390f35b610b8560048036036040811015610b3957600080fd5b81019080803573ffffffffffffffffffffffffffffffffffffffff169060200190929190803573ffffffffffffffffffffffffffffffffffffffff169060200190929190505050614118565b60405180821515815260200191505060405180910390f35b610bdf60048036036020811015610bb357600080fd5b81019080803573ffffffffffffffffffffffffffffffffffffffff1690602001909291905050506141a9565b6040518082815260200191505060405180910390f35b610bfd6141f5565b6040518082815260200191505060405180910390f35b610c5560048036036020811015610c2957600080fd5b81019080803573ffffffffffffffffffffffffffffffffffffffff1690602001909291905050506141fb565b005b610c8360048036036020811015610c6d57600080fd5b810190808035906020019092919050505061473e565b6040518082815260200191505060405180910390f35b610cc560048036036020811015610caf57600080fd5b81019080803590602001909291905050506147d8565b005b610d8a60048036036040811015610cdd57600080fd5b810190808035906020019092919080359060200190640100000000811115610d0457600080fd5b820183602082011115610d1657600080fd5b80359060200191846001830284011164010000000083111715610d3857600080fd5b91908080601f016020809104026020016040519081016040528093929190818152602001838380828437600081840152601f19601f820116905080830192505050505050509192919290505050614906565b005b610dce60048036036020811015610da257600080fd5b81019080803573ffffffffffffffffffffffffffffffffffffffff169060200190929190505050614da3565b005b610e1260048036036020811015610de657600080fd5b81019080803573ffffffffffffffffffffffffffffffffffffffff169060200190929190505050614fae565b005b610e1c615565565b6040518082815260200191505060405180910390f35b610e7460048036036020811015610e4857600080fd5b81019080803573ffffffffffffffffffffffffffffffffffffffff16906020019092919050505061556b565b60405180888152602001878152602001806020018681526020018581526020018415158152602001838152602001828103825287818151815260200191508051906020019080838360005b83811015610eda578082015181840152602081019050610ebf565b50505050905090810190601f168015610f075780820380516001836020036101000a031916815260200191505b509850505050505050505060405180910390f35b6000606060046000848152602001908152602001600020805480602002602001604051908101604052809291908181526020018280548015610fb257602002820191906000526020600020905b8160009054906101000a900473ffffffffffffffffffffffffffffffffffffffff1673ffffffffffffffffffffffffffffffffffffffff1681526020019060010190808311610f68575b5050505050905060005b815181101561102257610fe1828281518110610fd457fe5b6020026020010151611cdf565b80156110055750611004828281518110610ff757fe5b6020026020010151614037565b5b1561101557600192505050611025565b8080600101915050610fbc565b50505b919050565b6060600460008381526020019081526020016000208054806020026020016040519081016040528092919081815260200182805480156110bf57602002820191906000526020600020905b8160009054906101000a900473ffffffffffffffffffffffffffffffffffffffff1673ffffffffffffffffffffffffffffffffffffffff1681526020019060010190808311611075575b50505050509050919050565b6003602052806000526040600020600091509050806000015490806001015490806002018054600181600116156101000203166002900480601f0160208091040260200160405190810160405280929190818152602001828054600181600116156101000203166002900480156111835780601f1061115857610100808354040283529160200191611183565b820191906000526020600020905b81548152906001019060200180831161116657829003601f168201915b5050505050908060030160009054906101000a900460ff16908060030160019054906101000a900460ff16908060030160029054906101000a900460ff16908060040154905087565b600360003373ffffffffffffffffffffffffffffffffffffffff1673ffffffffffffffffffffffffffffffffffffffff16815260200190815260200160002060030160029054906101000a900460ff1615611272576040517f08c379a000000000000000000000000000000000000000000000000000000000815260040180806020018281038252602b8152602001806158b2602b913960400191505060405180910390fd5b42600360003373ffffffffffffffffffffffffffffffffffffffff1673ffffffffffffffffffffffffffffffffffffffff168152602001908152602001600020600401541161130c576040517f08c379a0000000000000000000000000000000000000000000000000000000008152600401808060200182810382526047815260200180615dd26047913960600191505060405180910390fd5b6004600581111561131957fe5b600360003373ffffffffffffffffffffffffffffffffffffffff1673ffffffffffffffffffffffffffffffffffffffff16815260200190815260200160002060030160009054906101000a900460ff16600581111561137457fe5b146113ca576040517f08c379a0000000000000000000000000000000000000000000000000000000008152600401808060200182810382526024815260200180615a8f6024913960400191505060405180910390fd5b60003390506002808111156113db57fe5b600360008373ffffffffffffffffffffffffffffffffffffffff1673ffffffffffffffffffffffffffffffffffffffff16815260200190815260200160002060030160019054906101000a900460ff16600281111561143657fe5b1461148c576040517f08c379a0000000000000000000000000000000000000000000000000000000008152600401808060200182810382526031815260200180615e446031913960400191505060405180910390fd5b6001600281111561149957fe5b600360008573ffffffffffffffffffffffffffffffffffffffff1673ffffffffffffffffffffffffffffffffffffffff16815260200190815260200160002060030160019054906101000a900460ff1660028111156114f457fe5b1461154a576040517f08c379a000000000000000000000000000000000000000000000000000000000815260040180806020018281038252602b815260200180615e19602b913960400191505060405180910390fd5b6001600581111561155757fe5b600360008573ffffffffffffffffffffffffffffffffffffffff1673ffffffffffffffffffffffffffffffffffffffff16815260200190815260200160002060030160009054906101000a900460ff1660058111156115b257fe5b14611608576040517f08c379a0000000000000000000000000000000000000000000000000000000008152600401808060200182810382526036815260200180615b566036913960400191505060405180910390fd5b8115611776576002600360008573ffffffffffffffffffffffffffffffffffffffff1673ffffffffffffffffffffffffffffffffffffffff16815260200190815260200160002060030160006101000a81548160ff0219169083600581111561166d57fe5b02179055507f83ea80534028e59290a5565c01e48b0aa26222639ddcf979ea15633075d6f1e183600360008673ffffffffffffffffffffffffffffffffffffffff1673ffffffffffffffffffffffffffffffffffffffff16815260200190815260200160002060000154600360008773ffffffffffffffffffffffffffffffffffffffff1673ffffffffffffffffffffffffffffffffffffffff1681526020019081526020016000206001015484604051808573ffffffffffffffffffffffffffffffffffffffff1681526020018481526020018381526020018273ffffffffffffffffffffffffffffffffffffffff16815260200194505050505060405180910390a16118d9565b60038060008573ffffffffffffffffffffffffffffffffffffffff1673ffffffffffffffffffffffffffffffffffffffff16815260200190815260200160002060030160006101000a81548160ff021916908360058111156117d457fe5b02179055507f9871207970164a69867cc15730c73bb391c9f630b398eb7ac69b0e95ba17fd9c83600360008673ffffffffffffffffffffffffffffffffffffffff1673ffffffffffffffffffffffffffffffffffffffff16815260200190815260200160002060000154600360008773ffffffffffffffffffffffffffffffffffffffff1673ffffffffffffffffffffffffffffffffffffffff1681526020019081526020016000206001015484604051808573ffffffffffffffffffffffffffffffffffffffff1681526020018481526020018381526020018273ffffffffffffffffffffffffffffffffffffffff16815260200194505050505060405180910390a15b505050565b60056020528060005260406000206000915090505481565b60008173ffffffffffffffffffffffffffffffffffffffff16611917613e7d565b73ffffffffffffffffffffffffffffffffffffffff16149050919050565b6000600360008373ffffffffffffffffffffffffffffffffffffffff1673ffffffffffffffffffffffffffffffffffffffff168152602001908152602001600020600001549050919050565b611989615758565b73ffffffffffffffffffffffffffffffffffffffff1660008054906101000a900473ffffffffffffffffffffffffffffffffffffffff1673ffffffffffffffffffffffffffffffffffffffff1614611a49576040517f08c379a00000000000000000000000000000000000000000000000000000000081526004018080602001828103825260208152602001807f4f776e61626c653a2063616c6c6572206973206e6f7420746865206f776e657281525060200191505060405180910390fd5b611a5a611a54613e7d565b82614118565b611aaf576040517f08c379a0000000000000000000000000000000000000000000000000000000008152600401808060200182810382526048815260200180615ad66048913960600191505060405180910390fd5b6000600360008373ffffffffffffffffffffffffffffffffffffffff1673ffffffffffffffffffffffffffffffffffffffff16815260200190815260200160002060030160019054906101000a900460ff1690506002600360008473ffffffffffffffffffffffffffffffffffffffff1673ffffffffffffffffffffffffffffffffffffffff16815260200190815260200160002060030160016101000a81548160ff02191690836002811115611b6257fe5b02179055507f13382921d3a6e392cd7bac34288a59fabe1f26f801f24defc12dc8ee3c1fb34b82600360008573ffffffffffffffffffffffffffffffffffffffff1673ffffffffffffffffffffffffffffffffffffffff16815260200190815260200160002060000154600360008673ffffffffffffffffffffffffffffffffffffffff1673ffffffffffffffffffffffffffffffffffffffff168152602001908152602001600020600101543385600360008973ffffffffffffffffffffffffffffffffffffffff1673ffffffffffffffffffffffffffffffffffffffff16815260200190815260200160002060030160019054906101000a900460ff16604051808773ffffffffffffffffffffffffffffffffffffffff1681526020018681526020018581526020018473ffffffffffffffffffffffffffffffffffffffff168152602001836002811115611cb557fe5b8152602001826002811115611cc657fe5b8152602001965050505050505060405180910390a15050565b6000611cea826124d6565b8015611cfc5750611cfa8261247d565b155b9050919050565b600060016005811115611d1257fe5b600360008473ffffffffffffffffffffffffffffffffffffffff1673ffffffffffffffffffffffffffffffffffffffff16815260200190815260200160002060030160009054906101000a900460ff166005811115611d6d57fe5b1480611dde575060026005811115611d8157fe5b600360008473ffffffffffffffffffffffffffffffffffffffff1673ffffffffffffffffffffffffffffffffffffffff16815260200190815260200160002060030160009054906101000a900460ff166005811115611ddc57fe5b145b80611e4e575060036005811115611df157fe5b600360008473ffffffffffffffffffffffffffffffffffffffff1673ffffffffffffffffffffffffffffffffffffffff16815260200190815260200160002060030160009054906101000a900460ff166005811115611e4c57fe5b145b9050919050565b600360003373ffffffffffffffffffffffffffffffffffffffff1673ffffffffffffffffffffffffffffffffffffffff16815260200190815260200160002060030160029054906101000a900460ff1615611efb576040517f08c379a000000000000000000000000000000000000000000000000000000000815260040180806020018281038252602b8152602001806158b2602b913960400191505060405180910390fd5b42600360003373ffffffffffffffffffffffffffffffffffffffff1673ffffffffffffffffffffffffffffffffffffffff1681526020019081526020016000206004015411611f95576040517f08c379a0000000000000000000000000000000000000000000000000000000008152600401808060200182810382526047815260200180615dd26047913960600191505060405180910390fd5b60046005811115611fa257fe5b600360003373ffffffffffffffffffffffffffffffffffffffff1673ffffffffffffffffffffffffffffffffffffffff16815260200190815260200160002060030160009054906101000a900460ff166005811115611ffd57fe5b14612053576040517f08c379a0000000000000000000000000000000000000000000000000000000008152600401808060200182810382526024815260200180615a8f6024913960400191505060405180910390fd5b60003390508173ffffffffffffffffffffffffffffffffffffffff168173ffffffffffffffffffffffffffffffffffffffff1614156120dd576040517f08c379a00000000000000000000000000000000000000000000000000000000081526004018080602001828103825260448152602001806158dd6044913960600191505060405180910390fd5b600160028111156120ea57fe5b600360008373ffffffffffffffffffffffffffffffffffffffff1673ffffffffffffffffffffffffffffffffffffffff16815260200190815260200160002060030160019054906101000a900460ff16600281111561214557fe5b1461219b576040517f08c379a0000000000000000000000000000000000000000000000000000000008152600401808060200182810382526036815260200180615e756036913960400191505060405180910390fd5b6121a58183614118565b6121fa576040517f08c379a000000000000000000000000000000000000000000000000000000000815260040180806020018281038252604c815260200180615d27604c913960600191505060405180910390fd5b6000600281111561220757fe5b600360008473ffffffffffffffffffffffffffffffffffffffff1673ffffffffffffffffffffffffffffffffffffffff16815260200190815260200160002060030160019054906101000a900460ff16600281111561226257fe5b146122b8576040517f08c379a0000000000000000000000000000000000000000000000000000000008152600401808060200182810382526032815260200180615eab6032913960400191505060405180910390fd5b6122c182611d03565b612316576040517f08c379a00000000000000000000000000000000000000000000000000000000081526004018080602001828103825260348152602001806159c96034913960400191505060405180910390fd5b6004600360008473ffffffffffffffffffffffffffffffffffffffff1673ffffffffffffffffffffffffffffffffffffffff16815260200190815260200160002060030160006101000a81548160ff0219169083600581111561237557fe5b02179055507f073fc7b5012ce389e8ee332d8cb39b41a44a08b42ee9260a78dd3a757a66c11182600360008573ffffffffffffffffffffffffffffffffffffffff1673ffffffffffffffffffffffffffffffffffffffff16815260200190815260200160002060000154600360008673ffffffffffffffffffffffffffffffffffffffff1673ffffffffffffffffffffffffffffffffffffffff1681526020019081526020016000206001015484604051808573ffffffffffffffffffffffffffffffffffffffff1681526020018481526020018381526020018273ffffffffffffffffffffffffffffffffffffffff16815260200194505050505060405180910390a15050565b6000600360008373ffffffffffffffffffffffffffffffffffffffff1673ffffffffffffffffffffffffffffffffffffffff16815260200190815260200160002060030160029054906101000a900460ff169050919050565b6000600460058111156124e557fe5b600360008473ffffffffffffffffffffffffffffffffffffffff1673ffffffffffffffffffffffffffffffffffffffff16815260200190815260200160002060030160009054906101000a900460ff16600581111561254057fe5b149050919050565b60008061255483611935565b905061255f81610f1b565b6125b4576040517f08c379a0000000000000000000000000000000000000000000000000000000008152600401808060200182810382526022815260200180615f4d6022913960400191505060405180910390fd5b80915050919050565b600360003373ffffffffffffffffffffffffffffffffffffffff1673ffffffffffffffffffffffffffffffffffffffff16815260200190815260200160002060030160029054906101000a900460ff1615612663576040517f08c379a000000000000000000000000000000000000000000000000000000000815260040180806020018281038252602b8152602001806158b2602b913960400191505060405180910390fd5b42600360003373ffffffffffffffffffffffffffffffffffffffff1673ffffffffffffffffffffffffffffffffffffffff16815260200190815260200160002060040154116126fd576040517f08c379a0000000000000000000000000000000000000000000000000000000008152600401808060200182810382526047815260200180615dd26047913960600191505060405180910390fd5b6004600581111561270a57fe5b600360003373ffffffffffffffffffffffffffffffffffffffff1673ffffffffffffffffffffffffffffffffffffffff16815260200190815260200160002060030160009054906101000a900460ff16600581111561276557fe5b146127bb576040517f08c379a0000000000000000000000000000000000000000000000000000000008152600401808060200182810382526024815260200180615a8f6024913960400191505060405180910390fd5b60003390506002808111156127cc57fe5b600360008373ffffffffffffffffffffffffffffffffffffffff1673ffffffffffffffffffffffffffffffffffffffff16815260200190815260200160002060030160019054906101000a900460ff16600281111561282757fe5b1461287d576040517f08c379a0000000000000000000000000000000000000000000000000000000008152600401808060200182810382526028815260200180615a266028913960400191505060405180910390fd5b60028081111561288957fe5b600360008473ffffffffffffffffffffffffffffffffffffffff1673ffffffffffffffffffffffffffffffffffffffff16815260200190815260200160002060030160019054906101000a900460ff1660028111156128e457fe5b141561293b576040517f08c379a00000000000000000000000000000000000000000000000000000000081526004018080602001828103825260298152602001806159fd6029913960400191505060405180910390fd5b60058081111561294757fe5b600360008473ffffffffffffffffffffffffffffffffffffffff1673ffffffffffffffffffffffffffffffffffffffff16815260200190815260200160002060030160009054906101000a900460ff1660058111156129a257fe5b14156129f9576040517f08c379a0000000000000000000000000000000000000000000000000000000008152600401808060200182810382526023815260200180615ab36023913960400191505060405180910390fd5b6005600360008473ffffffffffffffffffffffffffffffffffffffff1673ffffffffffffffffffffffffffffffffffffffff16815260200190815260200160002060030160006101000a81548160ff02191690836005811115612a5857fe5b02179055507fe54094ed206f2d050c7d5065f566c98e3c67d5f94c76971e8e73b392f8314ae282600360008573ffffffffffffffffffffffffffffffffffffffff1673ffffffffffffffffffffffffffffffffffffffff16815260200190815260200160002060000154600360008673ffffffffffffffffffffffffffffffffffffffff1673ffffffffffffffffffffffffffffffffffffffff1681526020019081526020016000206001015484604051808573ffffffffffffffffffffffffffffffffffffffff1681526020018481526020018381526020018273ffffffffffffffffffffffffffffffffffffffff16815260200194505050505060405180910390a15050565b600060056000838152602001908152602001600020549050919050565b612b85615758565b73ffffffffffffffffffffffffffffffffffffffff1660008054906101000a900473ffffffffffffffffffffffffffffffffffffffff1673ffffffffffffffffffffffffffffffffffffffff1614612c45576040517f08c379a00000000000000000000000000000000000000000000000000000000081526004018080602001828103825260208152602001807f4f776e61626c653a2063616c6c6572206973206e6f7420746865206f776e657281525060200191505060405180910390fd5b600073ffffffffffffffffffffffffffffffffffffffff1660008054906101000a900473ffffffffffffffffffffffffffffffffffffffff1673ffffffffffffffffffffffffffffffffffffffff167f8be0079c531659141344cd1fd0a4f28419497f9722a3daafe3b4186f6b6457e060405160405180910390a360008060006101000a81548173ffffffffffffffffffffffffffffffffffffffff021916908373ffffffffffffffffffffffffffffffffffffffff160217905550565b600360003373ffffffffffffffffffffffffffffffffffffffff1673ffffffffffffffffffffffffffffffffffffffff16815260200190815260200160002060030160029054906101000a900460ff1615612da9576040517f08c379a000000000000000000000000000000000000000000000000000000000815260040180806020018281038252602b8152602001806158b2602b913960400191505060405180910390fd5b60046005811115612db657fe5b600360003373ffffffffffffffffffffffffffffffffffffffff1673ffffffffffffffffffffffffffffffffffffffff16815260200190815260200160002060030160009054906101000a900460ff166005811115612e1157fe5b14612e67576040517f08c379a0000000000000000000000000000000000000000000000000000000008152600401808060200182810382526024815260200180615a8f6024913960400191505060405180910390fd5b6000339050600280811115612e7857fe5b600360008473ffffffffffffffffffffffffffffffffffffffff1673ffffffffffffffffffffffffffffffffffffffff16815260200190815260200160002060030160019054906101000a900460ff166002811115612ed357fe5b1415612f2a576040517f08c379a0000000000000000000000000000000000000000000000000000000008152600401808060200182810382526026815260200180615c816026913960400191505060405180910390fd5b612f348183614118565b80612fa35750600280811115612f4657fe5b600360008373ffffffffffffffffffffffffffffffffffffffff1673ffffffffffffffffffffffffffffffffffffffff16815260200190815260200160002060030160019054906101000a900460ff166002811115612fa157fe5b145b612ff8576040517f08c379a0000000000000000000000000000000000000000000000000000000008152600401808060200182810382526055815260200180615bb96055913960600191505060405180910390fd5b613001826124d6565b613056576040517f08c379a000000000000000000000000000000000000000000000000000000000815260040180806020018281038252602a815260200180615edd602a913960400191505060405180910390fd5b6004600581111561306357fe5b600360008373ffffffffffffffffffffffffffffffffffffffff1673ffffffffffffffffffffffffffffffffffffffff16815260200190815260200160002060030160009054906101000a900460ff1660058111156130be57fe5b14613114576040517f08c379a000000000000000000000000000000000000000000000000000000000815260040180806020018281038252602d815260200180615b8c602d913960400191505060405180910390fd5b6001600360008473ffffffffffffffffffffffffffffffffffffffff1673ffffffffffffffffffffffffffffffffffffffff16815260200190815260200160002060030160026101000a81548160ff0219169083151502179055507feab44e925fe37efdf7a6b9681f2daf982a47f4e64e2d592e8ee4309b986df6a782600360008573ffffffffffffffffffffffffffffffffffffffff1673ffffffffffffffffffffffffffffffffffffffff16815260200190815260200160002060000154600360008673ffffffffffffffffffffffffffffffffffffffff1673ffffffffffffffffffffffffffffffffffffffff1681526020019081526020016000206001015484604051808573ffffffffffffffffffffffffffffffffffffffff1681526020018481526020018381526020018273ffffffffffffffffffffffffffffffffffffffff16815260200194505050505060405180910390a15050565b600360003373ffffffffffffffffffffffffffffffffffffffff1673ffffffffffffffffffffffffffffffffffffffff16815260200190815260200160002060030160029054906101000a900460ff1615613318576040517f08c379a000000000000000000000000000000000000000000000000000000000815260040180806020018281038252602b8152602001806158b2602b913960400191505060405180910390fd5b42600360003373ffffffffffffffffffffffffffffffffffffffff1673ffffffffffffffffffffffffffffffffffffffff16815260200190815260200160002060040154116133b2576040517f08c379a0000000000000000000000000000000000000000000000000000000008152600401808060200182810382526047815260200180615dd26047913960600191505060405180910390fd5b600460058111156133bf57fe5b600360003373ffffffffffffffffffffffffffffffffffffffff1673ffffffffffffffffffffffffffffffffffffffff16815260200190815260200160002060030160009054906101000a900460ff16600581111561341a57fe5b14613470576040517f08c379a0000000000000000000000000000000000000000000000000000000008152600401808060200182810382526024815260200180615a8f6024913960400191505060405180910390fd5b60003390506001600281111561348257fe5b600360008373ffffffffffffffffffffffffffffffffffffffff1673ffffffffffffffffffffffffffffffffffffffff16815260200190815260200160002060030160019054906101000a900460ff1660028111156134dd57fe5b14613533576040517f08c379a000000000000000000000000000000000000000000000000000000000815260040180806020018281038252602a815260200180615d73602a913960400191505060405180910390fd5b61353d8183614118565b613592576040517f08c379a0000000000000000000000000000000000000000000000000000000008152600401808060200182810382526038815260200180615b1e6038913960400191505060405180910390fd5b60028081111561359e57fe5b600360008473ffffffffffffffffffffffffffffffffffffffff1673ffffffffffffffffffffffffffffffffffffffff16815260200190815260200160002060030160019054906101000a900460ff1660028111156135f957fe5b1415613650576040517f08c379a00000000000000000000000000000000000000000000000000000000081526004018080602001828103825260298152602001806159fd6029913960400191505060405180910390fd5b60058081111561365c57fe5b600360008473ffffffffffffffffffffffffffffffffffffffff1673ffffffffffffffffffffffffffffffffffffffff16815260200190815260200160002060030160009054906101000a900460ff1660058111156136b757fe5b141561370e576040517f08c379a0000000000000000000000000000000000000000000000000000000008152600401808060200182810382526023815260200180615ab36023913960400191505060405180910390fd5b6005600360008473ffffffffffffffffffffffffffffffffffffffff1673ffffffffffffffffffffffffffffffffffffffff16815260200190815260200160002060030160006101000a81548160ff0219169083600581111561376d57fe5b02179055507fe54094ed206f2d050c7d5065f566c98e3c67d5f94c76971e8e73b392f8314ae282600360008573ffffffffffffffffffffffffffffffffffffffff1673ffffffffffffffffffffffffffffffffffffffff16815260200190815260200160002060000154600360008673ffffffffffffffffffffffffffffffffffffffff1673ffffffffffffffffffffffffffffffffffffffff1681526020019081526020016000206001015484604051808573ffffffffffffffffffffffffffffffffffffffff1681526020018481526020018381526020018273ffffffffffffffffffffffffffffffffffffffff16815260200194505050505060405180910390a15050565b6000600360008373ffffffffffffffffffffffffffffffffffffffff1673ffffffffffffffffffffffffffffffffffffffff16815260200190815260200160002060030160019054906101000a900460ff1660028111156138d257fe5b9050919050565b600360003373ffffffffffffffffffffffffffffffffffffffff1673ffffffffffffffffffffffffffffffffffffffff16815260200190815260200160002060030160029054906101000a900460ff161561397f576040517f08c379a000000000000000000000000000000000000000000000000000000000815260040180806020018281038252602b8152602001806158b2602b913960400191505060405180910390fd5b6004600581111561398c57fe5b600360003373ffffffffffffffffffffffffffffffffffffffff1673ffffffffffffffffffffffffffffffffffffffff16815260200190815260200160002060030160009054906101000a900460ff1660058111156139e757fe5b14613a3d576040517f08c379a0000000000000000000000000000000000000000000000000000000008152600401808060200182810382526024815260200180615a8f6024913960400191505060405180910390fd5b6000339050606060046000848152602001908152602001600020805480602002602001604051908101604052809291908181526020018280548015613ad757602002820191906000526020600020905b8160009054906101000a900473ffffffffffffffffffffffffffffffffffffffff1673ffffffffffffffffffffffffffffffffffffffff1681526020019060010190808311613a8d575b5050505050905060046005811115613aeb57fe5b600360008473ffffffffffffffffffffffffffffffffffffffff1673ffffffffffffffffffffffffffffffffffffffff16815260200190815260200160002060030160009054906101000a900460ff166005811115613b4657fe5b14613b9c576040517f08c379a000000000000000000000000000000000000000000000000000000000815260040180806020018281038252602d815260200180615b8c602d913960400191505060405180910390fd5b613ba582614037565b613bfa576040517f08c379a00000000000000000000000000000000000000000000000000000000081526004018080602001828103825260378152602001806159216037913960400191505060405180910390fd5b613c188282600081518110613c0b57fe5b6020026020010151614118565b80613c875750600280811115613c2a57fe5b600360008473ffffffffffffffffffffffffffffffffffffffff1673ffffffffffffffffffffffffffffffffffffffff16815260200190815260200160002060030160019054906101000a900460ff166002811115613c8557fe5b145b613cdc576040517f08c379a0000000000000000000000000000000000000000000000000000000008152600401808060200182810382526049815260200180615c0e6049913960600191505060405180910390fd5b60005b8151811015613e77576000828281518110613cf657fe5b60200260200101519050613d09816124d6565b15613e69576001600360008373ffffffffffffffffffffffffffffffffffffffff1673ffffffffffffffffffffffffffffffffffffffff16815260200190815260200160002060030160026101000a81548160ff0219169083151502179055507feab44e925fe37efdf7a6b9681f2daf982a47f4e64e2d592e8ee4309b986df6a781600360008473ffffffffffffffffffffffffffffffffffffffff1673ffffffffffffffffffffffffffffffffffffffff16815260200190815260200160002060000154600360008573ffffffffffffffffffffffffffffffffffffffff1673ffffffffffffffffffffffffffffffffffffffff1681526020019081526020016000206001015487604051808573ffffffffffffffffffffffffffffffffffffffff1681526020018481526020018381526020018273ffffffffffffffffffffffffffffffffffffffff16815260200194505050505060405180910390a15b508080600101915050613cdf565b50505050565b60008060009054906101000a900473ffffffffffffffffffffffffffffffffffffffff16905090565b6000600580811115613eb457fe5b600360008473ffffffffffffffffffffffffffffffffffffffff1673ffffffffffffffffffffffffffffffffffffffff16815260200190815260200160002060030160009054906101000a900460ff166005811115613f0f57fe5b149050919050565b6000600360008373ffffffffffffffffffffffffffffffffffffffff1673ffffffffffffffffffffffffffffffffffffffff16815260200190815260200160002060030160009054906101000a900460ff166005811115613f7457fe5b9050919050565b6000806005811115613f8957fe5b600360008473ffffffffffffffffffffffffffffffffffffffff1673ffffffffffffffffffffffffffffffffffffffff16815260200190815260200160002060030160009054906101000a900460ff166005811115613fe457fe5b149050919050565b6004602052816000526040600020818154811061400557fe5b906000526020600020016000915091509054906101000a900473ffffffffffffffffffffffffffffffffffffffff1681565b60006001600281111561404657fe5b600360008473ffffffffffffffffffffffffffffffffffffffff1673ffffffffffffffffffffffffffffffffffffffff16815260200190815260200160002060030160019054906101000a900460ff1660028111156140a157fe5b148061411157506002808111156140b457fe5b600360008473ffffffffffffffffffffffffffffffffffffffff1673ffffffffffffffffffffffffffffffffffffffff16815260200190815260200160002060030160019054906101000a900460ff16600281111561410f57fe5b145b9050919050565b6000600360008373ffffffffffffffffffffffffffffffffffffffff1673ffffffffffffffffffffffffffffffffffffffff16815260200190815260200160002060010154600360008573ffffffffffffffffffffffffffffffffffffffff1673ffffffffffffffffffffffffffffffffffffffff1681526020019081526020016000206001015414905092915050565b6000600360008373ffffffffffffffffffffffffffffffffffffffff1673ffffffffffffffffffffffffffffffffffffffff168152602001908152602001600020600101549050919050565b60015481565b600360003373ffffffffffffffffffffffffffffffffffffffff1673ffffffffffffffffffffffffffffffffffffffff16815260200190815260200160002060030160029054906101000a900460ff16156142a1576040517f08c379a000000000000000000000000000000000000000000000000000000000815260040180806020018281038252602b8152602001806158b2602b913960400191505060405180910390fd5b42600360003373ffffffffffffffffffffffffffffffffffffffff1673ffffffffffffffffffffffffffffffffffffffff168152602001908152602001600020600401541161433b576040517f08c379a0000000000000000000000000000000000000000000000000000000008152600401808060200182810382526047815260200180615dd26047913960600191505060405180910390fd5b6004600581111561434857fe5b600360003373ffffffffffffffffffffffffffffffffffffffff1673ffffffffffffffffffffffffffffffffffffffff16815260200190815260200160002060030160009054906101000a900460ff1660058111156143a357fe5b146143f9576040517f08c379a0000000000000000000000000000000000000000000000000000000008152600401808060200182810382526024815260200180615a8f6024913960400191505060405180910390fd5b600033905060028081111561440a57fe5b600360008373ffffffffffffffffffffffffffffffffffffffff1673ffffffffffffffffffffffffffffffffffffffff16815260200190815260200160002060030160019054906101000a900460ff16600281111561446557fe5b146144bb576040517f08c379a0000000000000000000000000000000000000000000000000000000008152600401808060200182810382526031815260200180615e446031913960400191505060405180910390fd5b600160028111156144c857fe5b600360008473ffffffffffffffffffffffffffffffffffffffff1673ffffffffffffffffffffffffffffffffffffffff16815260200190815260200160002060030160019054906101000a900460ff16600281111561452357fe5b14614579576040517f08c379a000000000000000000000000000000000000000000000000000000000815260040180806020018281038252602b815260200180615e19602b913960400191505060405180910390fd5b61458282611d03565b6145d7576040517f08c379a000000000000000000000000000000000000000000000000000000000815260040180806020018281038252602a815260200180615c57602a913960400191505060405180910390fd5b6004600360008473ffffffffffffffffffffffffffffffffffffffff1673ffffffffffffffffffffffffffffffffffffffff16815260200190815260200160002060030160006101000a81548160ff0219169083600581111561463657fe5b02179055507f073fc7b5012ce389e8ee332d8cb39b41a44a08b42ee9260a78dd3a757a66c11182600360008573ffffffffffffffffffffffffffffffffffffffff1673ffffffffffffffffffffffffffffffffffffffff16815260200190815260200160002060000154600360008673ffffffffffffffffffffffffffffffffffffffff1673ffffffffffffffffffffffffffffffffffffffff1681526020019081526020016000206001015484604051808573ffffffffffffffffffffffffffffffffffffffff1681526020018481526020018381526020018273ffffffffffffffffffffffffffffffffffffffff16815260200194505050505060405180910390a15050565b6000806004600084815260200190815260200160002060008154811061476057fe5b9060005260206000200160009054906101000a900473ffffffffffffffffffffffffffffffffffffffff169050600360008273ffffffffffffffffffffffffffffffffffffffff1673ffffffffffffffffffffffffffffffffffffffff16815260200190815260200160002060010154915050919050565b6002808111156147e457fe5b600360003373ffffffffffffffffffffffffffffffffffffffff1673ffffffffffffffffffffffffffffffffffffffff16815260200190815260200160002060030160019054906101000a900460ff16600281111561483f57fe5b14614895576040517f08c379a000000000000000000000000000000000000000000000000000000000815260040180806020018281038252604b81526020018061597e604b913960600191505060405180910390fd5b60006002549050816002819055507f33e73778e90a0a7d35d5d4332f4668b1fcff659529950c30f760a39ba49fafec3382600254604051808473ffffffffffffffffffffffffffffffffffffffff168152602001838152602001828152602001935050505060405180910390a15050565b60003390506060829050600060025442019050600061492486615760565b905061492f84613f7b565b614984576040517f08c379a0000000000000000000000000000000000000000000000000000000008152600401808060200182810382526035815260200180615d9d6035913960400191505060405180910390fd5b6040518060400160405280600181526020017f30000000000000000000000000000000000000000000000000000000000000008152508051906020012083805190602001201415614b11576040518060e00160405280828152602001878152602001848152602001600160058111156149f957fe5b815260200160006002811115614a0b57fe5b815260200160001515815260200183815250600360008673ffffffffffffffffffffffffffffffffffffffff1673ffffffffffffffffffffffffffffffffffffffff16815260200190815260200160002060008201518160000155602082015181600101556040820151816002019080519060200190614a8c9291906157bf565b5060608201518160030160006101000a81548160ff02191690836005811115614ab157fe5b021790555060808201518160030160016101000a81548160ff02191690836002811115614ada57fe5b021790555060a08201518160030160026101000a81548160ff02191690831515021790555060c08201518160040155905050614c4f565b6040518060e0016040528082815260200187815260200184815260200160016005811115614b3b57fe5b815260200160016002811115614b4d57fe5b815260200160001515815260200183815250600360008673ffffffffffffffffffffffffffffffffffffffff1673ffffffffffffffffffffffffffffffffffffffff16815260200190815260200160002060008201518160000155602082015181600101556040820151816002019080519060200190614bce9291906157bf565b5060608201518160030160006101000a81548160ff02191690836005811115614bf357fe5b021790555060808201518160030160016101000a81548160ff02191690836002811115614c1c57fe5b021790555060a08201518160030160026101000a81548160ff02191690831515021790555060c082015181600401559050505b60046000828152602001908152602001600020849080600181540180825580915050600190039060005260206000200160009091909190916101000a81548173ffffffffffffffffffffffffffffffffffffffff021916908373ffffffffffffffffffffffffffffffffffffffff16021790555060608390507f3e1598c2de5d15920c01bbf8dbe538db3d434a0c71cd01b63df9aab3eb1873698583898487604051808673ffffffffffffffffffffffffffffffffffffffff16815260200185815260200184815260200180602001838152602001828103825284818151815260200191508051906020019080838360005b83811015614d5c578082015181840152602081019050614d41565b50505050905090810190601f168015614d895780820380516001836020036101000a031916815260200191505b50965050505050505060405180910390a150505050505050565b614dab615758565b73ffffffffffffffffffffffffffffffffffffffff1660008054906101000a900473ffffffffffffffffffffffffffffffffffffffff1673ffffffffffffffffffffffffffffffffffffffff1614614e6b576040517f08c379a00000000000000000000000000000000000000000000000000000000081526004018080602001828103825260208152602001807f4f776e61626c653a2063616c6c6572206973206e6f7420746865206f776e657281525060200191505060405180910390fd5b600073ffffffffffffffffffffffffffffffffffffffff168173ffffffffffffffffffffffffffffffffffffffff161415614ef1576040517f08c379a00000000000000000000000000000000000000000000000000000000081526004018080602001828103825260268152602001806159586026913960400191505060405180910390fd5b8073ffffffffffffffffffffffffffffffffffffffff1660008054906101000a900473ffffffffffffffffffffffffffffffffffffffff1673ffffffffffffffffffffffffffffffffffffffff167f8be0079c531659141344cd1fd0a4f28419497f9722a3daafe3b4186f6b6457e060405160405180910390a3806000806101000a81548173ffffffffffffffffffffffffffffffffffffffff021916908373ffffffffffffffffffffffffffffffffffffffff16021790555050565b600360003373ffffffffffffffffffffffffffffffffffffffff1673ffffffffffffffffffffffffffffffffffffffff16815260200190815260200160002060030160029054906101000a900460ff1615615054576040517f08c379a000000000000000000000000000000000000000000000000000000000815260040180806020018281038252602b8152602001806158b2602b913960400191505060405180910390fd5b42600360003373ffffffffffffffffffffffffffffffffffffffff1673ffffffffffffffffffffffffffffffffffffffff16815260200190815260200160002060040154116150ee576040517f08c379a0000000000000000000000000000000000000000000000000000000008152600401808060200182810382526047815260200180615dd26047913960600191505060405180910390fd5b600460058111156150fb57fe5b600360003373ffffffffffffffffffffffffffffffffffffffff1673ffffffffffffffffffffffffffffffffffffffff16815260200190815260200160002060030160009054906101000a900460ff16600581111561515657fe5b146151ac576040517f08c379a0000000000000000000000000000000000000000000000000000000008152600401808060200182810382526024815260200180615a8f6024913960400191505060405180910390fd5b60003390508173ffffffffffffffffffffffffffffffffffffffff168173ffffffffffffffffffffffffffffffffffffffff161415615236576040517f08c379a0000000000000000000000000000000000000000000000000000000008152600401808060200182810382526041815260200180615a4e6041913960600191505060405180910390fd5b61523f81614037565b615294576040517f08c379a0000000000000000000000000000000000000000000000000000000008152600401808060200182810382526046815260200180615f076046913960600191505060405180910390fd5b61529e8183614118565b8061530d57506002808111156152b057fe5b600360008373ffffffffffffffffffffffffffffffffffffffff1673ffffffffffffffffffffffffffffffffffffffff16815260200190815260200160002060030160019054906101000a900460ff16600281111561530b57fe5b145b615362576040517f08c379a0000000000000000000000000000000000000000000000000000000008152600401808060200182810382526053815260200180615ca76053913960600191505060405180910390fd5b600360008373ffffffffffffffffffffffffffffffffffffffff1673ffffffffffffffffffffffffffffffffffffffff16815260200190815260200160002060030160029054906101000a900460ff16615407576040517f08c379a000000000000000000000000000000000000000000000000000000000815260040180806020018281038252602d815260200180615cfa602d913960400191505060405180910390fd5b6000600360008473ffffffffffffffffffffffffffffffffffffffff1673ffffffffffffffffffffffffffffffffffffffff16815260200190815260200160002060030160026101000a81548160ff0219169083151502179055507fede461371ad2055987ffee3f03ac6bbad8c1e32130b99e9a87eaff68abdef50c82600360008573ffffffffffffffffffffffffffffffffffffffff1673ffffffffffffffffffffffffffffffffffffffff16815260200190815260200160002060000154600360008673ffffffffffffffffffffffffffffffffffffffff1673ffffffffffffffffffffffffffffffffffffffff1681526020019081526020016000206001015484604051808573ffffffffffffffffffffffffffffffffffffffff1681526020018481526020018381526020018273ffffffffffffffffffffffffffffffffffffffff16815260200194505050505060405180910390a15050565b60025481565b600080606060008060008061557e61583f565b600360008a73ffffffffffffffffffffffffffffffffffffffff1673ffffffffffffffffffffffffffffffffffffffff1681526020019081526020016000206040518060e00160405290816000820154815260200160018201548152602001600282018054600181600116156101000203166002900480601f0160208091040260200160405190810160405280929190818152602001828054600181600116156101000203166002900480156156755780601f1061564a57610100808354040283529160200191615675565b820191906000526020600020905b81548152906001019060200180831161565857829003601f168201915b505050505081526020016003820160009054906101000a900460ff16600581111561569c57fe5b60058111156156a757fe5b81526020016003820160019054906101000a900460ff1660028111156156c957fe5b60028111156156d457fe5b81526020016003820160029054906101000a900460ff16151515158152602001600482015481525050905060608160400151905081600001518260200151828460600151600581111561572357fe5b8560800151600281111561573357fe5b8660a001518760c0015198509850985098509850985098505050919395979092949650565b600033905090565b600080600560008481526020019081526020016000205414156157a45760016000815460010191905081905560056000848152602001908152602001600020819055505b60056000838152602001908152602001600020549050919050565b828054600181600116156101000203166002900490600052602060002090601f016020900481019282601f1061580057805160ff191683800117855561582e565b8280016001018555821561582e579182015b8281111561582d578251825591602001919060010190615812565b5b50905061583b9190615894565b5090565b6040518060e001604052806000815260200160008152602001606081526020016000600581111561586c57fe5b81526020016000600281111561587e57fe5b8152602001600015158152602001600081525090565b5b808211156158ad576000816000905550600101615895565b509056fe4170656e6173207175656d206ec3a36f20657374c3a1207061757361646120706f646520616365737361724f20726573706f6e73c3a176656c2070656c612076616c696461c3a7c3a36f206ec3a36f20706f64652076616c6964617220737561207072c3b37072696120636f6e74614f20726573706f6e73c3a176656c206465766520706f737375697220756d6120636f6e74612041444d494e206f752053555041444d494e4f776e61626c653a206e6577206f776e657220697320746865207a65726f20616464726573734170656e6173206f2053555041444d494e20706f646520646566696e6972206e6f766f2074656d706f20646520657870697261c3a7c3a36f206465206e6f766f7320726567697374726f734120636f6e746120612076616c69646172207072656369736120657374617220656d2065737461646f20416775617264616e646f4120636f6e74612053555041444d494e206ec3a36f20706f64652073657220696e76616c69646164614170656e61732053555041444d494e20706f646520696e76616c69646172206120636f6e74612e20556d6120706573736f61206ec3a36f20c3a920636170617a2064652072657469726172206f20706175736520646520737561207072c3b37072696120636f6e74614170656e617320636f6e7461732076616c69646164617320706f64656d2061747561722e4120636f6e746120666f6920696e76616c6964616461207072657669616d656e74652e4f776e65722073c3b320706f646572c3a1206174726962756972206f20706170656c2064652053555041444d494e207061726120636f6e74617320646f206d65736d6f20434e504a4170656e617320636f6e746173206461206d65736d61206f7267616e697a6163616f20706f64656d207365722076616c6964616461732e204120636f6e7461207072656369736120657374617220656d2065737461646f20416775617264616e646f2056616c696461c3a7c3a36f4f20726573706f6e73c3a176656c206465766520706f737375697220756d6120636f6e74612056c3a16c696461536f6d656e746520706f64652070617573617220756d6120636f6e7461207175656d20666f72206461206d65736d61206f7267616e697a61c3a7c3a36f206f752053797374656d2041646d696e6973747261746f72536f6d656e746520706f64652070617573617220756d6120636f6e7461207175656d20666f72206461206d65736d61206f7267616e697a61c3a7c3a36f206f752053555041444d494e4120636f6e7461207072656369736120657374617220656d2065737461646f20416775617264616e646f4120636f6e74612053555041444d494e206ec3a36f20706f6465207365722070617573616461536f6d656e746520706f6465207265746972617220706175736120646520756d6120636f6e7461207175656d20666f72206461206d65736d61206f7267616e697a61c3a7c3a36f206f752053555041444d494e536f6d656e746520756d6120636f6e7461207061757361646120706f64652073657220646573706175736164614f20726573706f6e73c3a176656c2070656c612076616c696461c3a7c3a36f206465766520736572206461206d65736d61206f7267616e697a61c3a7c3a36f20286d65736d6f20434e504a294170656e617320636f6e74612041444d494e20706f646520696e76616c6964617220636f6e7461732e20456e64657265c3a76f206ec3a36f20706f646520746572207369646f206361646173747261646f20616e746572696f726d656e74654170656e617320636f6e74617320636f6d206465636c617261c3a7c3b565732063756a6f7320636572746966696361646f732061696e64612073c3a36f2076c3a16c69646f732e4120636f6e746120612076616c69646172206465766520746572206f20706170656c2064652041444d494e4f20726573706f6e73c3a176656c2070656c612076616c696461c3a7c3a36f2064657665207365722053555041444d494e4f20726573706f6e73c3a176656c2070656c612076616c696461c3a7c3a36f206465766520746572206f20706170656c2041444d494e4f20757375c3a172696f2061207365722076616c696461646f206465766520746572206f20706170656c20524547554c4152536f6d656e746520756d6120636f6e74612076c3a16c69646120706f6465207365722070617573616461536f6d656e746520756d6120636f6e746120726573706f6e73c3a176656c2076616c696461646f726120706f646520646573706175736172206f757472617320636f6e74617341206f7267616e697a6163616f206e616f2065737461206f7065726163696f6e616ca2646970667358221220725696bd28602607030dd32236001ec42bb9a7c4526e6d5cc61e89f299b6614b64736f6c634300060c0033",
  "immutableReferences": {},
  "source": "pragma solidity ^0.6.0;\r\n\r\nimport \"@openzeppelin/contracts/access/Ownable.sol\";\r\nimport \"./IRBBRegistry.sol\";\r\n\r\ncontract RBBRegistry is IRBBRegistry, Ownable() {\r\n\r\n    enum BlockchainAccountState {AVAILABLE,WAITING_VALIDATION,WAITING_APPROVAL,WAITING_REJECTION,VALIDATED,INVALIDATED}\r\n    BlockchainAccountState blockchainState; /* Variable not used, only defined to create the enum type. */\r\n                                \r\n    /**\r\n    REGULAR  - operates \r\n    ADMIN    - validates the regular.\r\n    SUPADMIN - validates the ADMIN. Contract Owner can set multiple SUPADMINs (including himself, machines and human accounts).\r\n     */\r\n    enum BlockchainAccountRole {REGULAR, ADMIN, SUPADMIN} \r\n    BlockchainAccountRole blockchainRole;  /* Variable not used, only defined to create the enum type. */\r\n\r\n    /* This is a helper variable to emulate a sequence and autoincrement Ids*/\r\n    uint public currentRBBId = 0;\r\n\r\n     /**\r\n        This registry is about a company representative information\r\n     */    \r\n    struct Registry {\r\n        uint RBBId; //uma proxy para o CNPJ\r\n        uint CNPJ; //Brazilian identification of legal entity\r\n        string hashProof; //hash of declaration\r\n        BlockchainAccountState state;\r\n        BlockchainAccountRole role;\r\n        bool paused;\r\n        uint256 dateTimeExpiration; //vai ser outro momento de expirao diferente do ECNPJ\r\n    }\r\n\r\n    uint256 public defaultDateTimeExpiration = 365 days; \r\n\r\n    /**\r\n        Links Ethereum addresses to Registry\r\n     */\r\n    mapping(address => Registry) public legalEntitiesInfo;\r\n\r\n    /**\r\n        Links RBBID to Ethereum addresses.\r\n     */\r\n    mapping(uint => address[]) public RBBId_addresses;\r\n    \r\n    /**\r\n     * Links CNPJ to its RBBID\r\n     */\r\n    mapping (uint => uint) public CNPJ_RBBId;\r\n\r\n    event AccountRegistration       (address addr, uint RBBId, uint CNPJ, string hashProof, uint256 dateTimeExpiration);\r\n    event AccountWaitingApproval    (address addr, uint RBBId, uint CNPJ, address responsible);\r\n    event AccountWaitingRejection   (address addr, uint RBBId, uint CNPJ, address responsible);\r\n    event AccountValidation         (address addr, uint RBBId, uint CNPJ, address responsible);\r\n    event AccountInvalidation       (address addr, uint RBBId, uint CNPJ, address responsible);\r\n    event AccountPaused             (address addr, uint RBBId, uint CNPJ, address responsible);\r\n    event AccountUnpaused           (address addr, uint RBBId, uint CNPJ, address responsible);\r\n    event AccountRoleChange         (address addr, uint RBBId, uint CNPJ, address responsible, BlockchainAccountRole roleBefore, BlockchainAccountRole roleNew);\r\n    event RegistryExpirationChange  (address addr, uint256 dateTimeExpirationBefore, uint256 dateTimeExpirationNew);\r\n\r\n    /* The responsible for the System-Admin is the Owner. It could be or not be the same address (SUPADMIN=owner) */\r\n    constructor (uint CNPJSUPADMIN, string memory proofHashSUPADMIN, uint daysToExpire) public {                \r\n        address addrSUPADMIN = msg.sender;\r\n        string memory proofHash = proofHashSUPADMIN;\r\n        uint256 dateTimeExpiration = now + daysToExpire * 1 days; \r\n        uint RBBId = calculaProximoRBBID(CNPJSUPADMIN);\r\n        legalEntitiesInfo[addrSUPADMIN] = Registry( RBBId, \r\n                                                    CNPJSUPADMIN, \r\n                                                    proofHash, \r\n                                                    BlockchainAccountState.VALIDATED, \r\n                                                    BlockchainAccountRole.SUPADMIN, \r\n                                                    false, \r\n                                                    dateTimeExpiration     );\r\n        RBBId_addresses[RBBId].push(addrSUPADMIN);\r\n        emit AccountRegistration(addrSUPADMIN, RBBId, CNPJSUPADMIN, proofHashSUPADMIN, dateTimeExpiration); \r\n        \r\n    }\r\n\r\n   /**\r\n    * Link blockchain address with CNPJ\r\n    * @param CNPJ Brazilian identifier to legal entities\r\n    * @param CNPJProofHash The legal entities have to send BNDES a PDF where it assumes as responsible for an Ethereum account.\r\n    *                   This PDF is signed with eCNPJ and send to BNDES.\r\n    */\r\n    function registryLegalEntity(uint CNPJ, string memory CNPJProofHash) public {\r\n        \r\n        address addr = msg.sender;\r\n        string memory proofHash = CNPJProofHash;\r\n        uint256 dateTimeExpiration = now + defaultDateTimeExpiration;\r\n        uint RBBId = calculaProximoRBBID(CNPJ);\r\n\r\n        require (isAvailableAccount(addr), \"Endereo no pode ter sido cadastrado anteriormente\");\r\n\r\n        if ( keccak256(bytes(proofHash)) == keccak256(bytes(\"0\")) ) { \r\n            legalEntitiesInfo[addr] = Registry( RBBId,\r\n                                                CNPJ, \r\n                                                proofHash, \r\n                                                BlockchainAccountState.WAITING_VALIDATION, \r\n                                                BlockchainAccountRole.REGULAR,\r\n                                                false,\r\n                                                dateTimeExpiration );\r\n        } else {\r\n            legalEntitiesInfo[addr] = Registry( RBBId,\r\n                                                CNPJ, \r\n                                                proofHash, \r\n                                                BlockchainAccountState.WAITING_VALIDATION, \r\n                                                BlockchainAccountRole.ADMIN,\r\n                                                false,\r\n                                                dateTimeExpiration );\r\n        }\r\n\r\n        RBBId_addresses[RBBId].push(addr);\r\n        string memory proof = proofHash;\r\n        emit AccountRegistration(addr, RBBId, CNPJ, proof, dateTimeExpiration);\r\n    }\r\n\r\n    modifier onlyWhenNotPaused() { \r\n        require( ! legalEntitiesInfo[msg.sender].paused , \"Apenas quem no est pausada pode acessar\" );\r\n        _;\r\n    }\r\n\r\n    modifier onlyValidated() { \r\n        require( legalEntitiesInfo[msg.sender].state == BlockchainAccountState.VALIDATED , \"Apenas contas validadas podem atuar.\" );\r\n        _;\r\n    }    \r\n\r\n    modifier onlyWhenNotExpired() { \r\n        require( legalEntitiesInfo[msg.sender].dateTimeExpiration > now , \"Apenas contas com declaraes cujos certificados ainda so vlidos.\" );\r\n        _;\r\n    }\r\n\r\n   /**\r\n    * Validates the initial registry of your own LegalEntity\r\n    * @param userAddr Ethereum address that needs to be validated\r\n    */\r\n    function validateRegistrySameOrg(address userAddr) public onlyWhenNotPaused onlyWhenNotExpired onlyValidated {\r\n\r\n        address responsible = msg.sender;\r\n\r\n        require ( responsible != userAddr, \"O responsvel pela validao no pode validar sua prpria conta\");\r\n\r\n        require ( legalEntitiesInfo[responsible].role == BlockchainAccountRole.ADMIN , \r\n                   \"O responsvel pela validao deve ter o papel ADMIN\" );\r\n\r\n        require ( isTheSameID(responsible, userAddr) , \r\n                   \"O responsvel pela validao deve ser da mesma organizao (mesmo CNPJ)\" );\r\n\r\n        require ( legalEntitiesInfo[userAddr].role == BlockchainAccountRole.REGULAR , \r\n                   \"O usurio a ser validado deve ter o papel REGULAR\" );\r\n\r\n\r\n        require( isWaitingAccount(userAddr), \"A conta a validar precisa estar em estado Aguardando\");\r\n                   \r\n\r\n        legalEntitiesInfo[userAddr].state = BlockchainAccountState.VALIDATED;\r\n\r\n        emit AccountValidation( userAddr, \r\n                                legalEntitiesInfo[userAddr].RBBId, \r\n                                legalEntitiesInfo[userAddr].CNPJ, \r\n                                responsible);\r\n    }\r\n\r\n/**\r\n    * Validates the initial registry of others LegalEntities\r\n    * @param userAddr Ethereum address that needs to be validated\r\n    */\r\n    function validateRegistry(address userAddr) public onlyWhenNotPaused onlyWhenNotExpired onlyValidated {\r\n\r\n        address responsible = msg.sender;\r\n        \r\n        require ( legalEntitiesInfo[responsible].role == BlockchainAccountRole.SUPADMIN \r\n            , \"O responsvel pela validao deve ser SUPADMIN\" );\r\n\r\n        require ( legalEntitiesInfo[userAddr].role == BlockchainAccountRole.ADMIN  \r\n            , \"A conta a validar deve ter o papel de ADMIN\" );\r\n\r\n        require( isWaitingAccount(userAddr), \"A conta precisa estar em estado Aguardando\");\r\n\r\n        legalEntitiesInfo[userAddr].state = BlockchainAccountState.VALIDATED;\r\n\r\n        emit AccountValidation( userAddr, \r\n                                legalEntitiesInfo[userAddr].RBBId, \r\n                                legalEntitiesInfo[userAddr].CNPJ, \r\n                                responsible);\r\n    }    \r\n\r\n    /**\r\n    * Validates the initial registry of others LegalEntities\r\n    * @param userAddr Ethereum address that needs to be validated\r\n    */\r\n    function preValidateRegistry(address userAddr, bool approval) public onlyWhenNotPaused onlyWhenNotExpired onlyValidated{\r\n\r\n        address responsible = msg.sender;\r\n        \r\n        require ( legalEntitiesInfo[responsible].role == BlockchainAccountRole.SUPADMIN \r\n            , \"O responsvel pela validao deve ser SUPADMIN\" );\r\n\r\n        require ( legalEntitiesInfo[userAddr].role == BlockchainAccountRole.ADMIN  \r\n            , \"A conta a validar deve ter o papel de ADMIN\" );\r\n\r\n        require( legalEntitiesInfo[userAddr].state == BlockchainAccountState.WAITING_VALIDATION, \"A conta precisa estar em estado Aguardando Validao\");\r\n\r\n        if ( approval ) {\r\n            legalEntitiesInfo[userAddr].state = BlockchainAccountState.WAITING_APPROVAL;\r\n            emit AccountWaitingApproval(    userAddr, \r\n                                            legalEntitiesInfo[userAddr].RBBId, \r\n                                            legalEntitiesInfo[userAddr].CNPJ, \r\n                                            responsible );\r\n        }\r\n        else {\r\n            legalEntitiesInfo[userAddr].state = BlockchainAccountState.WAITING_REJECTION;\r\n            emit AccountWaitingRejection(   userAddr, \r\n                                            legalEntitiesInfo[userAddr].RBBId, \r\n                                            legalEntitiesInfo[userAddr].CNPJ, \r\n                                            responsible );\r\n        }\r\n    }        \r\n\r\n/**\r\n    * Pause an account     \r\n    * @param addr Ethereum address that needs to be paused\r\n    */\r\n    function pauseAddress(address addr) public onlyWhenNotPaused onlyValidated {\r\n\r\n        address responsible = msg.sender;\r\n\r\n        require ( legalEntitiesInfo[addr].role != BlockchainAccountRole.SUPADMIN , \"A conta SUPADMIN no pode ser pausada\");\r\n        require( isTheSameID(responsible, addr) || legalEntitiesInfo[responsible].role == BlockchainAccountRole.SUPADMIN, \"Somente pode pausar uma conta quem for da mesma organizao ou System Administrator\" );\r\n        require( isValidatedAccount(addr) , \"Somente uma conta vlida pode ser pausada\");\r\n        require( legalEntitiesInfo[responsible].state == BlockchainAccountState.VALIDATED, \"O responsvel deve possuir uma conta Vlida\" );\r\n\r\n        legalEntitiesInfo[addr].paused = true;\r\n        \r\n        emit AccountPaused( addr, \r\n                            legalEntitiesInfo[addr].RBBId,\r\n                            legalEntitiesInfo[addr].CNPJ, \r\n                            responsible);\r\n    }\r\n\r\n    function pauseLegalEntity(uint RBBId) public onlyWhenNotPaused onlyValidated {\r\n\r\n        address responsible = msg.sender;\r\n        address[] memory addresses  = RBBId_addresses[RBBId];\r\n\r\n        require( legalEntitiesInfo[responsible].state == BlockchainAccountState.VALIDATED, \"O responsvel deve possuir uma conta Vlida\" );\r\n        require( ( isSortOfAdmin(responsible) ), \"O responsvel deve possuir uma conta ADMIN ou SUPADMIN\" );\r\n        require( isTheSameID(responsible, addresses[0]) \r\n                    || legalEntitiesInfo[responsible].role == BlockchainAccountRole.SUPADMIN , \"Somente pode pausar uma conta quem for da mesma organizao ou SUPADMIN\" );\r\n\r\n        for (uint i=0; i < addresses.length ; i++) {\r\n            address candidate = addresses[i];\r\n            if( isValidatedAccount( candidate ) ) {\r\n                legalEntitiesInfo[candidate].paused = true;\r\n                emit AccountPaused( candidate, \r\n                                    legalEntitiesInfo[candidate].RBBId,\r\n                                    legalEntitiesInfo[candidate].CNPJ, \r\n                                    responsible );\r\n            }\r\n        }   \r\n    }\r\n\r\n/**\r\n    * Unpause an account     \r\n    * @param addr Ethereum address that needs to be validated\r\n    */\r\n    function unpauseAddress(address addr) public onlyWhenNotPaused onlyWhenNotExpired onlyValidated {\r\n\r\n        address responsible = msg.sender;\r\n\r\n        require ( responsible != addr , \"Uma pessoa no  capaz de retirar o pause de sua prpria conta\");\r\n        require( isSortOfAdmin(responsible) , \"Somente uma conta responsvel validadora pode despausar outras contas\" );        \r\n        require( isTheSameID(responsible, addr) \r\n                    || legalEntitiesInfo[responsible].role == BlockchainAccountRole.SUPADMIN , \"Somente pode retirar pausa de uma conta quem for da mesma organizao ou SUPADMIN\" );\r\n        require( legalEntitiesInfo[addr].paused  , \"Somente uma conta pausada pode ser despausada\" ); \r\n\r\n        legalEntitiesInfo[addr].paused = false;\r\n        \r\n        emit AccountUnpaused(   addr, \r\n                                legalEntitiesInfo[addr].RBBId,\r\n                                legalEntitiesInfo[addr].CNPJ, \r\n                                responsible);\r\n    }\r\n\r\n   /**\r\n    * Invalidates the initial registry of a legal entity or the change of its registry\r\n    * The invalidation can be called at any time in the lifecycle of the address (not only when it is WAITING_VALIDATION)\r\n    * @param addr Ethereum address that needs to be validated\r\n    */\r\n    function invalidateRegistrySameOrg(address addr) public onlyWhenNotPaused onlyWhenNotExpired onlyValidated {\r\n\r\n        address responsible = msg.sender;\r\n\r\n        require( legalEntitiesInfo[responsible].role == BlockchainAccountRole.ADMIN, \"Apenas conta ADMIN pode invalidar contas. \");\r\n        require( isTheSameID(responsible, addr) , \"Apenas contas da mesma organizacao podem ser validadas. \");\r\n        require( legalEntitiesInfo[addr].role != BlockchainAccountRole.SUPADMIN , \"A conta SUPADMIN no pode ser invalidada\");\r\n        require( legalEntitiesInfo[addr].state != BlockchainAccountState.INVALIDATED, \"A conta foi invalidada previamente.\" );\r\n\r\n        legalEntitiesInfo[addr].state = BlockchainAccountState.INVALIDATED;\r\n        \r\n        emit AccountInvalidation(   addr, \r\n                                    legalEntitiesInfo[addr].RBBId, \r\n                                    legalEntitiesInfo[addr].CNPJ, \r\n                                    responsible );\r\n    }\r\n\r\n    /*\r\n    * @param addr Ethereum address that needs to be validated\r\n    */\r\n    function invalidateRegistry(address addr) public onlyWhenNotPaused onlyWhenNotExpired onlyValidated {\r\n\r\n        address responsible = msg.sender;\r\n\r\n        require( legalEntitiesInfo[responsible].role == BlockchainAccountRole.SUPADMIN, \"Apenas SUPADMIN pode invalidar a conta. \");\r\n        require( legalEntitiesInfo[addr].role != BlockchainAccountRole.SUPADMIN , \"A conta SUPADMIN no pode ser invalidada\");\r\n        require( legalEntitiesInfo[addr].state != BlockchainAccountState.INVALIDATED, \"A conta foi invalidada previamente.\" );\r\n\r\n        legalEntitiesInfo[addr].state = BlockchainAccountState.INVALIDATED;\r\n        \r\n        emit AccountInvalidation(   addr, \r\n                                    legalEntitiesInfo[addr].RBBId, \r\n                                    legalEntitiesInfo[addr].CNPJ, \r\n                                    responsible );\r\n    }\r\n\r\n    function isSortOfAdmin(address addr) public view returns (bool) {\r\n        return ( legalEntitiesInfo[addr].role == BlockchainAccountRole.ADMIN || \r\n                 legalEntitiesInfo[addr].role == BlockchainAccountRole.SUPADMIN   );\r\n    }\r\n\r\n    function isOwner(address addr) public view returns (bool) {\r\n        return owner()==addr;\r\n    }\r\n\r\n    function isAvailableAccount(address addr) public view returns (bool) {\r\n        return legalEntitiesInfo[addr].state == BlockchainAccountState.AVAILABLE;\r\n    }\r\n\r\n    function isWaitingAccount(address addr) public view returns (bool) {\r\n        return legalEntitiesInfo[addr].state == BlockchainAccountState.WAITING_VALIDATION\r\n            || legalEntitiesInfo[addr].state == BlockchainAccountState.WAITING_APPROVAL\r\n            || legalEntitiesInfo[addr].state == BlockchainAccountState.WAITING_REJECTION ;\r\n    }\r\n\r\n    function isValidatedAccount(address addr) public view returns (bool) {\r\n        return legalEntitiesInfo[addr].state == BlockchainAccountState.VALIDATED;\r\n    }\r\n\r\n    function isInvalidated(address addr) public view returns (bool) {\r\n        return legalEntitiesInfo[addr].state == BlockchainAccountState.INVALIDATED;\r\n    }\r\n\r\n    function isTheSameID(address a, address b) public view returns (bool) {\r\n        return legalEntitiesInfo[a].CNPJ == legalEntitiesInfo[b].CNPJ ;\r\n    }\r\n\r\n    function isPaused(address addr) public view returns (bool) {\r\n        return legalEntitiesInfo[addr].paused;\r\n    }\r\n\r\n    function isOperational(address addr) public view returns (bool) {\r\n        return isValidatedAccount(addr) && !isPaused(addr);\r\n    }\r\n\r\n    function isRegistryOperational(uint RBBId) public view override returns (bool) {\r\n        address[] memory addresses  = RBBId_addresses[RBBId];\r\n\r\n        for (uint i=0; i < addresses.length ; i++) {\r\n            if ( isOperational( addresses[i] ) && isSortOfAdmin(addresses[i]) ) {\r\n                    return true;\r\n            }\r\n        }\r\n    }\r\n\r\n    function getId (address addr) public view override returns (uint) {\r\n        uint RBBId = getRBBIdRaw(addr);\r\n        require ( isRegistryOperational( RBBId ) , \"A organizacao nao esta operacional\" );\r\n        return RBBId;\r\n    }\r\n\r\n    function getRBBIdRaw (address addr) public view returns (uint) {\r\n        return legalEntitiesInfo[addr].RBBId;\r\n    }\r\n\r\n    function getCNPJ (address addr) public view returns (uint) {\r\n        return legalEntitiesInfo[addr].CNPJ;\r\n    }    \r\n    \r\n    function getRegistry (address addr) public view override returns (uint, uint, string memory, uint, uint, bool, uint256) {\r\n        Registry memory reg = legalEntitiesInfo[addr];\r\n        string memory proof = reg.hashProof;\r\n        return (  reg.RBBId,\r\n                  reg.CNPJ, \r\n                  proof, \r\n                  (uint) (reg.state),\r\n                  (uint) (reg.role),\r\n                  reg.paused,\r\n                  reg.dateTimeExpiration\r\n                );\r\n    }\r\n\r\n    function getBlockchainAccounts(uint RBBId) public view returns (address[] memory) {\r\n        return RBBId_addresses[RBBId];\r\n    }\r\n\r\n    function getAccountState(address addr) public view returns (int) {\r\n        return ((int) (legalEntitiesInfo[addr].state));\r\n    }\r\n\r\n    function getAccountRole(address addr) public view returns (int) {\r\n        return ((int) (legalEntitiesInfo[addr].role));\r\n    }\r\n\r\n    function getIdFromCNPJ(uint cnpj) public view override returns (uint) {\r\n        return CNPJ_RBBId[cnpj];\r\n    }\r\n    \r\n   /**\r\n    * The Owner can assign role SUPADMIN to anyone in the same LegalEntity\r\n    * @param addr Ethereum address to be assigned the new role\r\n    */\r\n    function setRoleSupAdmin(address addr) public onlyOwner {\r\n        require ( isTheSameID( owner(), addr ), \"Owner s poder atribuir o papel de SUPADMIN para contas do mesmo CNPJ\" );\r\n\r\n        BlockchainAccountRole roleBefore = legalEntitiesInfo[addr].role;\r\n        legalEntitiesInfo[addr].role     = BlockchainAccountRole.SUPADMIN;                \r\n\r\n        emit AccountRoleChange(   addr, \r\n                                  legalEntitiesInfo[addr].RBBId, \r\n                                  legalEntitiesInfo[addr].CNPJ, \r\n                                  msg.sender,\r\n                                  roleBefore, \r\n                                  legalEntitiesInfo[addr].role  );\r\n    }\r\n\r\n    /**\r\n    * The Owner can assign new default expiration time for future registries\r\n    * @param dateTimeExpirationNew the new default expiration time \r\n    */\r\n    function setDefaultDateTimeExpiration(uint256 dateTimeExpirationNew) public {\r\n\r\n        require( legalEntitiesInfo[msg.sender].role == BlockchainAccountRole.SUPADMIN, \"Apenas o SUPADMIN pode definir novo tempo de expirao de novos registros\");\r\n\r\n        uint256 dateTimeExpirationOld = defaultDateTimeExpiration;\r\n        defaultDateTimeExpiration = dateTimeExpirationNew;\r\n        \r\n        emit RegistryExpirationChange(   msg.sender, \r\n                                         dateTimeExpirationOld, \r\n                                         defaultDateTimeExpiration );        \r\n    }\r\n\r\n    function calculaProximoRBBID(uint CNPJ) private returns (uint) {\r\n\r\n        if ( CNPJ_RBBId[CNPJ] == 0 ) //se nao existir rbbid para este CNPJ\r\n            CNPJ_RBBId[CNPJ] = ++currentRBBId;\r\n\r\n        return CNPJ_RBBId[CNPJ];\r\n    } \r\n    function getCNPJbyID(uint Id) public view override returns (uint ) {\r\n        address addr =RBBId_addresses[Id][0];\r\n        \r\n        return legalEntitiesInfo[addr].CNPJ;\r\n    }\r\n \r\n\r\n}\r\n",
  "sourcePath": "C:/git/rbb-identificacao/Back-Blockchain/contracts/RBBRegistry.sol",
  "compiler": {
    "name": "solc",
    "version": "0.6.12+commit.27d51765.Emscripten.clang"
  },
  "schemaVersion": "3.3.3",
  "updatedAt": "2021-03-02T16:07:43.766Z",
  "networkType": "ethereum",
  "devdoc": {
    "kind": "dev",
    "methods": {
      "invalidateRegistrySameOrg(address)": {
        "params": {
          "addr": "Ethereum address that needs to be validated"
        }
      },
      "owner()": {
        "details": "Returns the address of the current owner."
      },
      "pauseAddress(address)": {
        "params": {
          "addr": "Ethereum address that needs to be paused"
        }
      },
      "preValidateRegistry(address,bool)": {
        "params": {
          "userAddr": "Ethereum address that needs to be validated"
        }
      },
      "registryLegalEntity(uint256,string)": {
        "params": {
          "CNPJ": "Brazilian identifier to legal entities",
          "CNPJProofHash": "The legal entities have to send BNDES a PDF where it assumes as responsible for an Ethereum account.                   This PDF is signed with eCNPJ and send to BNDES."
        }
      },
      "renounceOwnership()": {
        "details": "Leaves the contract without owner. It will not be possible to call `onlyOwner` functions anymore. Can only be called by the current owner. NOTE: Renouncing ownership will leave the contract without an owner, thereby removing any functionality that is only available to the owner."
      },
      "setDefaultDateTimeExpiration(uint256)": {
        "params": {
          "dateTimeExpirationNew": "the new default expiration time "
        }
      },
      "setRoleSupAdmin(address)": {
        "params": {
          "addr": "Ethereum address to be assigned the new role"
        }
      },
      "transferOwnership(address)": {
        "details": "Transfers ownership of the contract to a new account (`newOwner`). Can only be called by the current owner."
      },
      "unpauseAddress(address)": {
        "params": {
          "addr": "Ethereum address that needs to be validated"
        }
      },
      "validateRegistry(address)": {
        "params": {
          "userAddr": "Ethereum address that needs to be validated"
        }
      },
      "validateRegistrySameOrg(address)": {
        "params": {
          "userAddr": "Ethereum address that needs to be validated"
        }
      }
    },
    "version": 1
  },
  "userdoc": {
    "kind": "user",
    "methods": {
      "CNPJ_RBBId(uint256)": {
        "notice": "Links CNPJ to its RBBID"
      },
      "RBBId_addresses(uint256,uint256)": {
        "notice": "Links RBBID to Ethereum addresses."
      },
      "invalidateRegistrySameOrg(address)": {
        "notice": "Invalidates the initial registry of a legal entity or the change of its registry The invalidation can be called at any time in the lifecycle of the address (not only when it is WAITING_VALIDATION)"
      },
      "legalEntitiesInfo(address)": {
        "notice": "Links Ethereum addresses to Registry"
      },
      "pauseAddress(address)": {
        "notice": "Pause an account     "
      },
      "preValidateRegistry(address,bool)": {
        "notice": "Validates the initial registry of others LegalEntities"
      },
      "registryLegalEntity(uint256,string)": {
        "notice": "Link blockchain address with CNPJ"
      },
      "setDefaultDateTimeExpiration(uint256)": {
        "notice": "The Owner can assign new default expiration time for future registries"
      },
      "setRoleSupAdmin(address)": {
        "notice": "The Owner can assign role SUPADMIN to anyone in the same LegalEntity"
      },
      "unpauseAddress(address)": {
        "notice": "Unpause an account     "
      },
      "validateRegistry(address)": {
        "notice": "Validates the initial registry of others LegalEntities"
      },
      "validateRegistrySameOrg(address)": {
        "notice": "Validates the initial registry of your own LegalEntity"
      }
    },
    "version": 1
  }
}