{
  "contractName": "RBBRegistry",
  "abi": [
    {
      "inputs": [],
      "stateMutability": "nonpayable",
      "type": "constructor"
    },
    {
      "anonymous": false,
      "inputs": [
        {
          "indexed": false,
          "internalType": "address",
          "name": "addr",
          "type": "address"
        },
        {
          "indexed": false,
          "internalType": "uint256",
          "name": "RBBId",
          "type": "uint256"
        },
        {
          "indexed": false,
          "internalType": "uint64",
          "name": "CNPJ",
          "type": "uint64"
        },
        {
          "indexed": false,
          "internalType": "address",
          "name": "responsible",
          "type": "address"
        },
        {
          "indexed": false,
          "internalType": "uint8",
          "name": "reason",
          "type": "uint8"
        }
      ],
      "name": "AccountInvalidation",
      "type": "event"
    },
    {
      "anonymous": false,
      "inputs": [
        {
          "indexed": false,
          "internalType": "address",
          "name": "addr",
          "type": "address"
        },
        {
          "indexed": false,
          "internalType": "uint256",
          "name": "RBBId",
          "type": "uint256"
        },
        {
          "indexed": false,
          "internalType": "uint64",
          "name": "CNPJ",
          "type": "uint64"
        },
        {
          "indexed": false,
          "internalType": "address",
          "name": "responsible",
          "type": "address"
        },
        {
          "indexed": false,
          "internalType": "uint8",
          "name": "reason",
          "type": "uint8"
        }
      ],
      "name": "AccountPaused",
      "type": "event"
    },
    {
      "anonymous": false,
      "inputs": [
        {
          "indexed": false,
          "internalType": "address",
          "name": "addr",
          "type": "address"
        },
        {
          "indexed": false,
          "internalType": "string",
          "name": "hashProof",
          "type": "string"
        },
        {
          "indexed": false,
          "internalType": "uint256",
          "name": "dateTimeExpiration",
          "type": "uint256"
        }
      ],
      "name": "AccountReactivation",
      "type": "event"
    },
    {
      "anonymous": false,
      "inputs": [
        {
          "indexed": false,
          "internalType": "address",
          "name": "addr",
          "type": "address"
        },
        {
          "indexed": false,
          "internalType": "uint256",
          "name": "RBBId",
          "type": "uint256"
        },
        {
          "indexed": false,
          "internalType": "uint64",
          "name": "CNPJ",
          "type": "uint64"
        },
        {
          "indexed": false,
          "internalType": "string",
          "name": "hashProof",
          "type": "string"
        },
        {
          "indexed": false,
          "internalType": "uint256",
          "name": "dateTimeExpiration",
          "type": "uint256"
        }
      ],
      "name": "AccountRegistration",
      "type": "event"
    },
    {
      "anonymous": false,
      "inputs": [
        {
          "indexed": false,
          "internalType": "address",
          "name": "addr",
          "type": "address"
        },
        {
          "indexed": false,
          "internalType": "uint256",
          "name": "RBBId",
          "type": "uint256"
        },
        {
          "indexed": false,
          "internalType": "uint64",
          "name": "CNPJ",
          "type": "uint64"
        },
        {
          "indexed": false,
          "internalType": "address",
          "name": "responsible",
          "type": "address"
        },
        {
          "indexed": false,
          "internalType": "enum RBBRegistry.BlockchainAccountRole",
          "name": "roleBefore",
          "type": "uint8"
        },
        {
          "indexed": false,
          "internalType": "enum RBBRegistry.BlockchainAccountRole",
          "name": "roleNew",
          "type": "uint8"
        }
      ],
      "name": "AccountRoleChange",
      "type": "event"
    },
    {
      "anonymous": false,
      "inputs": [
        {
          "indexed": false,
          "internalType": "address",
          "name": "addr",
          "type": "address"
        },
        {
          "indexed": false,
          "internalType": "uint256",
          "name": "RBBId",
          "type": "uint256"
        },
        {
          "indexed": false,
          "internalType": "uint64",
          "name": "CNPJ",
          "type": "uint64"
        },
        {
          "indexed": false,
          "internalType": "address",
          "name": "responsible",
          "type": "address"
        },
        {
          "indexed": false,
          "internalType": "uint8",
          "name": "reason",
          "type": "uint8"
        }
      ],
      "name": "AccountUnpaused",
      "type": "event"
    },
    {
      "anonymous": false,
      "inputs": [
        {
          "indexed": false,
          "internalType": "address",
          "name": "addr",
          "type": "address"
        },
        {
          "indexed": false,
          "internalType": "uint256",
          "name": "RBBId",
          "type": "uint256"
        },
        {
          "indexed": false,
          "internalType": "uint64",
          "name": "CNPJ",
          "type": "uint64"
        },
        {
          "indexed": false,
          "internalType": "address",
          "name": "responsible",
          "type": "address"
        }
      ],
      "name": "AccountValidation",
      "type": "event"
    },
    {
      "anonymous": false,
      "inputs": [
        {
          "indexed": false,
          "internalType": "address",
          "name": "addr",
          "type": "address"
        },
        {
          "indexed": false,
          "internalType": "uint256",
          "name": "RBBId",
          "type": "uint256"
        },
        {
          "indexed": false,
          "internalType": "uint64",
          "name": "CNPJ",
          "type": "uint64"
        },
        {
          "indexed": false,
          "internalType": "address",
          "name": "responsible",
          "type": "address"
        }
      ],
      "name": "AccountWaitingApproval",
      "type": "event"
    },
    {
      "anonymous": false,
      "inputs": [
        {
          "indexed": false,
          "internalType": "address",
          "name": "addr",
          "type": "address"
        },
        {
          "indexed": false,
          "internalType": "uint256",
          "name": "RBBId",
          "type": "uint256"
        },
        {
          "indexed": false,
          "internalType": "uint64",
          "name": "CNPJ",
          "type": "uint64"
        },
        {
          "indexed": false,
          "internalType": "address",
          "name": "responsible",
          "type": "address"
        }
      ],
      "name": "AccountWaitingRejection",
      "type": "event"
    },
    {
      "anonymous": false,
      "inputs": [
        {
          "indexed": true,
          "internalType": "address",
          "name": "previousOwner",
          "type": "address"
        },
        {
          "indexed": true,
          "internalType": "address",
          "name": "newOwner",
          "type": "address"
        }
      ],
      "name": "OwnershipTransferred",
      "type": "event"
    },
    {
      "anonymous": false,
      "inputs": [
        {
          "indexed": false,
          "internalType": "address",
          "name": "addr",
          "type": "address"
        },
        {
          "indexed": false,
          "internalType": "uint256",
          "name": "dateTimeExpirationBefore",
          "type": "uint256"
        },
        {
          "indexed": false,
          "internalType": "uint256",
          "name": "dateTimeExpirationNew",
          "type": "uint256"
        }
      ],
      "name": "RegistryExpirationChange",
      "type": "event"
    },
    {
      "anonymous": false,
      "inputs": [
        {
          "indexed": false,
          "internalType": "address",
          "name": "rs",
          "type": "address"
        }
      ],
      "name": "RoleDefinitionActingAfterMonitoring",
      "type": "event"
    },
    {
      "anonymous": false,
      "inputs": [
        {
          "indexed": false,
          "internalType": "address",
          "name": "rs",
          "type": "address"
        }
      ],
      "name": "RoleDefinitionRegistryPreValidation",
      "type": "event"
    },
    {
      "anonymous": false,
      "inputs": [
        {
          "indexed": false,
          "internalType": "address",
          "name": "rs",
          "type": "address"
        }
      ],
      "name": "RoleDefinitionRegistryValidation",
      "type": "event"
    },
    {
      "inputs": [
        {
          "internalType": "uint64",
          "name": "",
          "type": "uint64"
        }
      ],
      "name": "CNPJ_RBBId",
      "outputs": [
        {
          "internalType": "uint256",
          "name": "",
          "type": "uint256"
        }
      ],
      "stateMutability": "view",
      "type": "function"
    },
    {
      "inputs": [
        {
          "internalType": "uint256",
          "name": "",
          "type": "uint256"
        },
        {
          "internalType": "uint256",
          "name": "",
          "type": "uint256"
        }
      ],
      "name": "RBBId_addresses",
      "outputs": [
        {
          "internalType": "address",
          "name": "",
          "type": "address"
        }
      ],
      "stateMutability": "view",
      "type": "function"
    },
    {
      "inputs": [],
      "name": "currentRBBId",
      "outputs": [
        {
          "internalType": "uint256",
          "name": "",
          "type": "uint256"
        }
      ],
      "stateMutability": "view",
      "type": "function"
    },
    {
      "inputs": [],
      "name": "defaultDeltaDateTimeExpiration",
      "outputs": [
        {
          "internalType": "uint256",
          "name": "",
          "type": "uint256"
        }
      ],
      "stateMutability": "view",
      "type": "function"
    },
    {
      "inputs": [
        {
          "internalType": "address",
          "name": "",
          "type": "address"
        }
      ],
      "name": "legalEntitiesInfo",
      "outputs": [
        {
          "internalType": "uint256",
          "name": "RBBId",
          "type": "uint256"
        },
        {
          "internalType": "uint64",
          "name": "CNPJ",
          "type": "uint64"
        },
        {
          "internalType": "string",
          "name": "hashProof",
          "type": "string"
        },
        {
          "internalType": "enum RBBRegistry.BlockchainAccountState",
          "name": "state",
          "type": "uint8"
        },
        {
          "internalType": "enum RBBRegistry.BlockchainAccountRole",
          "name": "role",
          "type": "uint8"
        },
        {
          "internalType": "bool",
          "name": "paused",
          "type": "bool"
        },
        {
          "internalType": "uint256",
          "name": "dateTimeExpiration",
          "type": "uint256"
        }
      ],
      "stateMutability": "view",
      "type": "function"
    },
    {
      "inputs": [],
      "name": "owner",
      "outputs": [
        {
          "internalType": "address",
          "name": "",
          "type": "address"
        }
      ],
      "stateMutability": "view",
      "type": "function"
    },
    {
      "inputs": [],
      "name": "renounceOwnership",
      "outputs": [],
      "stateMutability": "nonpayable",
      "type": "function"
    },
    {
      "inputs": [],
      "name": "responsibleForActingAfterMonitoring",
      "outputs": [
        {
          "internalType": "address",
          "name": "",
          "type": "address"
        }
      ],
      "stateMutability": "view",
      "type": "function"
    },
    {
      "inputs": [],
      "name": "responsibleForRegistryPreValidation",
      "outputs": [
        {
          "internalType": "address",
          "name": "",
          "type": "address"
        }
      ],
      "stateMutability": "view",
      "type": "function"
    },
    {
      "inputs": [],
      "name": "responsibleForRegistryValidation",
      "outputs": [
        {
          "internalType": "address",
          "name": "",
          "type": "address"
        }
      ],
      "stateMutability": "view",
      "type": "function"
    },
    {
      "inputs": [
        {
          "internalType": "address",
          "name": "newOwner",
          "type": "address"
        }
      ],
      "name": "transferOwnership",
      "outputs": [],
      "stateMutability": "nonpayable",
      "type": "function"
    },
    {
      "inputs": [
        {
          "internalType": "address",
          "name": "rs",
          "type": "address"
        }
      ],
      "name": "setResponsibleForRegistryPreValidation",
      "outputs": [],
      "stateMutability": "nonpayable",
      "type": "function"
    },
    {
      "inputs": [
        {
          "internalType": "address",
          "name": "rs",
          "type": "address"
        }
      ],
      "name": "setResponsibleForRegistryValidation",
      "outputs": [],
      "stateMutability": "nonpayable",
      "type": "function"
    },
    {
      "inputs": [
        {
          "internalType": "address",
          "name": "rs",
          "type": "address"
        }
      ],
      "name": "setResponsibleForActingAfterMonitoring",
      "outputs": [],
      "stateMutability": "nonpayable",
      "type": "function"
    },
    {
      "inputs": [
        {
          "internalType": "uint64",
          "name": "CNPJ_RBBId",
          "type": "uint64"
        }
      ],
      "name": "registryLegalEntityForRegularAccounts",
      "outputs": [],
      "stateMutability": "nonpayable",
      "type": "function"
    },
    {
      "inputs": [
        {
          "internalType": "uint64",
          "name": "CNPJ",
          "type": "uint64"
        },
        {
          "internalType": "string",
          "name": "proofHash",
          "type": "string"
        }
      ],
      "name": "registryLegalEntity",
      "outputs": [],
      "stateMutability": "nonpayable",
      "type": "function"
    },
    {
      "inputs": [
        {
          "internalType": "address",
          "name": "userAddr",
          "type": "address"
        },
        {
          "internalType": "bool",
          "name": "approval",
          "type": "bool"
        }
      ],
      "name": "preValidateRegistry",
      "outputs": [],
      "stateMutability": "nonpayable",
      "type": "function"
    },
    {
      "inputs": [
        {
          "internalType": "address",
          "name": "userAddr",
          "type": "address"
        }
      ],
      "name": "validateRegistrySameOrg",
      "outputs": [],
      "stateMutability": "nonpayable",
      "type": "function"
    },
    {
      "inputs": [
        {
          "internalType": "address",
          "name": "userAddr",
          "type": "address"
        }
      ],
      "name": "validateRegistry",
      "outputs": [],
      "stateMutability": "nonpayable",
      "type": "function"
    },
    {
      "inputs": [
        {
          "internalType": "address",
          "name": "addr",
          "type": "address"
        }
      ],
      "name": "pauseAddressSameOrg",
      "outputs": [],
      "stateMutability": "nonpayable",
      "type": "function"
    },
    {
      "inputs": [
        {
          "internalType": "address",
          "name": "addr",
          "type": "address"
        }
      ],
      "name": "pauseAddressAfterMonitoring",
      "outputs": [],
      "stateMutability": "nonpayable",
      "type": "function"
    },
    {
      "inputs": [
        {
          "internalType": "uint256",
          "name": "RBBId",
          "type": "uint256"
        }
      ],
      "name": "pauseLegalEntitySameOrg",
      "outputs": [],
      "stateMutability": "nonpayable",
      "type": "function"
    },
    {
      "inputs": [
        {
          "internalType": "uint256",
          "name": "RBBId",
          "type": "uint256"
        }
      ],
      "name": "pauseLegalEntityAfterMonitoring",
      "outputs": [],
      "stateMutability": "nonpayable",
      "type": "function"
    },
    {
      "inputs": [
        {
          "internalType": "address",
          "name": "addr",
          "type": "address"
        }
      ],
      "name": "unpauseAddressSameOrg",
      "outputs": [],
      "stateMutability": "nonpayable",
      "type": "function"
    },
    {
      "inputs": [
        {
          "internalType": "address",
          "name": "addr",
          "type": "address"
        }
      ],
      "name": "unpauseAddressAfterMonitoring",
      "outputs": [],
      "stateMutability": "nonpayable",
      "type": "function"
    },
    {
      "inputs": [
        {
          "internalType": "address",
          "name": "addr",
          "type": "address"
        }
      ],
      "name": "invalidateRegistrySameOrg",
      "outputs": [],
      "stateMutability": "nonpayable",
      "type": "function"
    },
    {
      "inputs": [
        {
          "internalType": "address",
          "name": "addr",
          "type": "address"
        }
      ],
      "name": "invalidateRegistry",
      "outputs": [],
      "stateMutability": "nonpayable",
      "type": "function"
    },
    {
      "inputs": [
        {
          "internalType": "address",
          "name": "addr",
          "type": "address"
        }
      ],
      "name": "invalidateRegistryAfterMonitoring",
      "outputs": [],
      "stateMutability": "nonpayable",
      "type": "function"
    },
    {
      "inputs": [
        {
          "internalType": "string",
          "name": "hashProof",
          "type": "string"
        }
      ],
      "name": "reactiveLegalEntity",
      "outputs": [],
      "stateMutability": "nonpayable",
      "type": "function"
    },
    {
      "inputs": [
        {
          "internalType": "uint256",
          "name": "deltaDateTimeExpirationNew",
          "type": "uint256"
        }
      ],
      "name": "setDefaultDeltaDateTimeExpiration",
      "outputs": [],
      "stateMutability": "nonpayable",
      "type": "function"
    },
    {
      "inputs": [
        {
          "internalType": "string",
          "name": "str",
          "type": "string"
        }
      ],
      "name": "isValidHash",
      "outputs": [
        {
          "internalType": "bool",
          "name": "",
          "type": "bool"
        }
      ],
      "stateMutability": "pure",
      "type": "function"
    },
    {
      "inputs": [
        {
          "internalType": "address",
          "name": "addr",
          "type": "address"
        }
      ],
      "name": "isOperational",
      "outputs": [
        {
          "internalType": "bool",
          "name": "",
          "type": "bool"
        }
      ],
      "stateMutability": "view",
      "type": "function"
    },
    {
      "inputs": [
        {
          "internalType": "uint256",
          "name": "RBBId",
          "type": "uint256"
        }
      ],
      "name": "isRegistryOperational",
      "outputs": [
        {
          "internalType": "bool",
          "name": "",
          "type": "bool"
        }
      ],
      "stateMutability": "view",
      "type": "function"
    },
    {
      "inputs": [
        {
          "internalType": "address",
          "name": "addr",
          "type": "address"
        }
      ],
      "name": "getId",
      "outputs": [
        {
          "internalType": "uint256",
          "name": "",
          "type": "uint256"
        }
      ],
      "stateMutability": "view",
      "type": "function"
    },
    {
      "inputs": [
        {
          "internalType": "address",
          "name": "addr",
          "type": "address"
        }
      ],
      "name": "isExpired",
      "outputs": [
        {
          "internalType": "bool",
          "name": "",
          "type": "bool"
        }
      ],
      "stateMutability": "view",
      "type": "function"
    },
    {
      "inputs": [
        {
          "internalType": "address",
          "name": "addr",
          "type": "address"
        }
      ],
      "name": "isOwner",
      "outputs": [
        {
          "internalType": "bool",
          "name": "",
          "type": "bool"
        }
      ],
      "stateMutability": "view",
      "type": "function"
    },
    {
      "inputs": [
        {
          "internalType": "address",
          "name": "addr",
          "type": "address"
        }
      ],
      "name": "isAvailableAccount",
      "outputs": [
        {
          "internalType": "bool",
          "name": "",
          "type": "bool"
        }
      ],
      "stateMutability": "view",
      "type": "function"
    },
    {
      "inputs": [
        {
          "internalType": "address",
          "name": "addr",
          "type": "address"
        }
      ],
      "name": "isWaitingAccount",
      "outputs": [
        {
          "internalType": "bool",
          "name": "",
          "type": "bool"
        }
      ],
      "stateMutability": "view",
      "type": "function"
    },
    {
      "inputs": [
        {
          "internalType": "address",
          "name": "addr",
          "type": "address"
        }
      ],
      "name": "isValidatedAccount",
      "outputs": [
        {
          "internalType": "bool",
          "name": "",
          "type": "bool"
        }
      ],
      "stateMutability": "view",
      "type": "function"
    },
    {
      "inputs": [
        {
          "internalType": "address",
          "name": "addr",
          "type": "address"
        }
      ],
      "name": "isInvalidated",
      "outputs": [
        {
          "internalType": "bool",
          "name": "",
          "type": "bool"
        }
      ],
      "stateMutability": "view",
      "type": "function"
    },
    {
      "inputs": [
        {
          "internalType": "address",
          "name": "a",
          "type": "address"
        },
        {
          "internalType": "address",
          "name": "b",
          "type": "address"
        }
      ],
      "name": "isTheSameID",
      "outputs": [
        {
          "internalType": "bool",
          "name": "",
          "type": "bool"
        }
      ],
      "stateMutability": "view",
      "type": "function"
    },
    {
      "inputs": [
        {
          "internalType": "address",
          "name": "addr",
          "type": "address"
        }
      ],
      "name": "isPaused",
      "outputs": [
        {
          "internalType": "bool",
          "name": "",
          "type": "bool"
        }
      ],
      "stateMutability": "view",
      "type": "function"
    },
    {
      "inputs": [
        {
          "internalType": "address",
          "name": "addr",
          "type": "address"
        }
      ],
      "name": "isAdmin",
      "outputs": [
        {
          "internalType": "bool",
          "name": "",
          "type": "bool"
        }
      ],
      "stateMutability": "view",
      "type": "function"
    },
    {
      "inputs": [
        {
          "internalType": "address",
          "name": "addr",
          "type": "address"
        }
      ],
      "name": "getRBBIdRaw",
      "outputs": [
        {
          "internalType": "uint256",
          "name": "",
          "type": "uint256"
        }
      ],
      "stateMutability": "view",
      "type": "function"
    },
    {
      "inputs": [
        {
          "internalType": "address",
          "name": "addr",
          "type": "address"
        }
      ],
      "name": "getCNPJ",
      "outputs": [
        {
          "internalType": "uint64",
          "name": "",
          "type": "uint64"
        }
      ],
      "stateMutability": "view",
      "type": "function"
    },
    {
      "inputs": [
        {
          "internalType": "address",
          "name": "addr",
          "type": "address"
        }
      ],
      "name": "getRegistry",
      "outputs": [
        {
          "internalType": "uint256",
          "name": "",
          "type": "uint256"
        },
        {
          "internalType": "uint64",
          "name": "",
          "type": "uint64"
        },
        {
          "internalType": "string",
          "name": "",
          "type": "string"
        },
        {
          "internalType": "uint256",
          "name": "",
          "type": "uint256"
        },
        {
          "internalType": "uint256",
          "name": "",
          "type": "uint256"
        },
        {
          "internalType": "bool",
          "name": "",
          "type": "bool"
        },
        {
          "internalType": "uint256",
          "name": "",
          "type": "uint256"
        }
      ],
      "stateMutability": "view",
      "type": "function"
    },
    {
      "inputs": [
        {
          "internalType": "uint256",
          "name": "RBBId",
          "type": "uint256"
        }
      ],
      "name": "getBlockchainAccounts",
      "outputs": [
        {
          "internalType": "address[]",
          "name": "",
          "type": "address[]"
        }
      ],
      "stateMutability": "view",
      "type": "function"
    },
    {
      "inputs": [
        {
          "internalType": "address",
          "name": "addr",
          "type": "address"
        }
      ],
      "name": "getAccountState",
      "outputs": [
        {
          "internalType": "int256",
          "name": "",
          "type": "int256"
        }
      ],
      "stateMutability": "view",
      "type": "function"
    },
    {
      "inputs": [
        {
          "internalType": "address",
          "name": "addr",
          "type": "address"
        }
      ],
      "name": "getAccountRole",
      "outputs": [
        {
          "internalType": "int256",
          "name": "",
          "type": "int256"
        }
      ],
      "stateMutability": "view",
      "type": "function"
    },
    {
      "inputs": [
        {
          "internalType": "uint64",
          "name": "cnpj",
          "type": "uint64"
        }
      ],
      "name": "getIdFromCNPJ",
      "outputs": [
        {
          "internalType": "uint256",
          "name": "",
          "type": "uint256"
        }
      ],
      "stateMutability": "view",
      "type": "function"
    },
    {
      "inputs": [
        {
          "internalType": "uint256",
          "name": "Id",
          "type": "uint256"
        }
      ],
      "name": "getCNPJbyID",
      "outputs": [
        {
          "internalType": "uint64",
          "name": "",
          "type": "uint64"
        }
      ],
      "stateMutability": "view",
      "type": "function"
    }
  ],
  "bytecode": "0x608060405260006004556301e133806005553480156200001e57600080fd5b506000620000316200019860201b60201c565b9050806000806101000a81548173ffffffffffffffffffffffffffffffffffffffff021916908373ffffffffffffffffffffffffffffffffffffffff1602179055508073ffffffffffffffffffffffffffffffffffffffff16600073ffffffffffffffffffffffffffffffffffffffff167f8be0079c531659141344cd1fd0a4f28419497f9722a3daafe3b4186f6b6457e060405160405180910390a35033600160006101000a81548173ffffffffffffffffffffffffffffffffffffffff021916908373ffffffffffffffffffffffffffffffffffffffff16021790555033600260006101000a81548173ffffffffffffffffffffffffffffffffffffffff021916908373ffffffffffffffffffffffffffffffffffffffff16021790555033600360006101000a81548173ffffffffffffffffffffffffffffffffffffffff021916908373ffffffffffffffffffffffffffffffffffffffff160217905550620001a0565b600033905090565b61639880620001b06000396000f3fe608060405234801561001057600080fd5b50600436106102f15760003560e01c80637bf0bca61161019d578063a9963687116100e9578063c616f4c0116100a2578063d20866571161007c578063d2086657146112ab578063ee1244e3146112f7578063f2fde38b14611325578063f971d77c14611369576102f1565b8063c616f4c014611205578063c84802b914611223578063caa7922c14611267576102f1565b8063a996368714610ffb578063b6fc41fa1461103f578063b7b9daae146110a1578063ba2eb541146110cf578063bb39308614611129578063be49b78d146111a3576102f1565b8063903ecc19116101565780639ee2735b116101305780639ee2735b14610ec9578063a1c0101f14610f21578063a2a25e7814610f6d578063a3d8845314610fa1576102f1565b8063903ecc1914610e2f57806394e5876514610e4d5780639c9d24b614610e85576102f1565b80637bf0bca614610bf257806381d66b2314610c365780638684b5ab14610c8e5780638cbd258f14610d5d5780638da5cb5b14610da15780638e97637e14610dd5576102f1565b8063466723e41161025c57806365f68c89116102155780636edcb12f116101ef5780636edcb12f14610a87578063715018a614610b5857806376222aa714610b625780637abbb59614610bae576102f1565b806365f68c89146109b757806367b0354914610a0f5780636c5eadae14610a53576102f1565b8063466723e4146107f35780634dd2d3fb1461084d5780634f16ce0c1461087b5780634f72e059146108bf5780635b14f183146109035780636426a1161461095d576102f1565b80632f54bf6e116102ae5780632f54bf6e146105b457806331cc10ce1461060e5780633632091b1461066657806342b0ae5014610721578063456ca96114610765578063457385f214610799576102f1565b806307888b08146102f6578063087d44271461033a5780630bf20e011461037e57806324d7806c1461040157806326ff47941461045b57806328f5ae2314610564575b600080fd5b6103386004803603602081101561030c57600080fd5b81019080803573ffffffffffffffffffffffffffffffffffffffff16906020019092919050505061145c565b005b6103666004803603602081101561035057600080fd5b810190808035906020019092919050505061156f565b60405180821515815260200191505060405180910390f35b6103aa6004803603602081101561039457600080fd5b810190808035906020019092919050505061167e565b6040518080602001828103825283818151815260200191508051906020019060200280838360005b838110156103ed5780820151818401526020810190506103d2565b505050509050019250505060405180910390f35b6104436004803603602081101561041757600080fd5b81019080803573ffffffffffffffffffffffffffffffffffffffff16906020019092919050505061171f565b60405180821515815260200191505060405180910390f35b61049d6004803603602081101561047157600080fd5b81019080803573ffffffffffffffffffffffffffffffffffffffff169060200190929190505050611790565b604051808881526020018767ffffffffffffffff168152602001806020018660058111156104c757fe5b81526020018560018111156104d857fe5b81526020018415158152602001838152602001828103825287818151815260200191508051906020019080838360005b83811015610523578082015181840152602081019050610508565b50505050905090810190601f1680156105505780820380516001836020036101000a031916815260200191505b509850505050505050505060405180910390f35b6105b26004803603604081101561057a57600080fd5b81019080803573ffffffffffffffffffffffffffffffffffffffff1690602001909291908035151590602001909291905050506118a5565b005b6105f6600480360360208110156105ca57600080fd5b81019080803573ffffffffffffffffffffffffffffffffffffffff169060200190929190505050611e3d565b60405180821515815260200191505060405180910390f35b6106506004803603602081101561062457600080fd5b81019080803573ffffffffffffffffffffffffffffffffffffffff169060200190929190505050611e7c565b6040518082815260200191505060405180910390f35b61071f6004803603602081101561067c57600080fd5b810190808035906020019064010000000081111561069957600080fd5b8201836020820111156106ab57600080fd5b803590602001918460018302840111640100000000831117156106cd57600080fd5b91908080601f016020809104026020016040519081016040528093929190818152602001838380828437600081840152601f19601f820116905080830192505050505050509192919290505050611ec8565b005b6107636004803603602081101561073757600080fd5b81019080803573ffffffffffffffffffffffffffffffffffffffff169060200190929190505050612216565b005b61076d6122ca565b604051808273ffffffffffffffffffffffffffffffffffffffff16815260200191505060405180910390f35b6107db600480360360208110156107af57600080fd5b81019080803573ffffffffffffffffffffffffffffffffffffffff1690602001909291905050506122f0565b60405180821515815260200191505060405180910390f35b6108356004803603602081101561080957600080fd5b81019080803573ffffffffffffffffffffffffffffffffffffffff169060200190929190505050612326565b60405180821515815260200191505060405180910390f35b6108796004803603602081101561086357600080fd5b8101908080359060200190929190505050612478565b005b6108bd6004803603602081101561089157600080fd5b81019080803573ffffffffffffffffffffffffffffffffffffffff1690602001909291905050506125b1565b005b610901600480360360208110156108d557600080fd5b81019080803573ffffffffffffffffffffffffffffffffffffffff169060200190929190505050612b4d565b005b6109456004803603602081101561091957600080fd5b81019080803573ffffffffffffffffffffffffffffffffffffffff169060200190929190505050612cdc565b60405180821515815260200191505060405180910390f35b61099f6004803603602081101561097357600080fd5b81019080803573ffffffffffffffffffffffffffffffffffffffff169060200190929190505050612d35565b60405180821515815260200191505060405180910390f35b6109f9600480360360208110156109cd57600080fd5b81019080803573ffffffffffffffffffffffffffffffffffffffff169060200190929190505050612da7565b6040518082815260200191505060405180910390f35b610a5160048036036020811015610a2557600080fd5b81019080803573ffffffffffffffffffffffffffffffffffffffff169060200190929190505050612e1c565b005b610a5b612fa9565b604051808273ffffffffffffffffffffffffffffffffffffffff16815260200191505060405180910390f35b610b4060048036036020811015610a9d57600080fd5b8101908080359060200190640100000000811115610aba57600080fd5b820183602082011115610acc57600080fd5b80359060200191846001830284011164010000000083111715610aee57600080fd5b91908080601f016020809104026020016040519081016040528093929190818152602001838380828437600081840152601f19601f820116905080830192505050505050509192919290505050612fcf565b60405180821515815260200191505060405180910390f35b610b606131b2565b005b610b9860048036036020811015610b7857600080fd5b81019080803567ffffffffffffffff169060200190929190505050613338565b6040518082815260200191505060405180910390f35b610bf060048036036020811015610bc457600080fd5b81019080803573ffffffffffffffffffffffffffffffffffffffff169060200190929190505050613350565b005b610c3460048036036020811015610c0857600080fd5b81019080803573ffffffffffffffffffffffffffffffffffffffff1690602001909291905050506134a9565b005b610c7860048036036020811015610c4c57600080fd5b81019080803573ffffffffffffffffffffffffffffffffffffffff16906020019092919050505061372a565b6040518082815260200191505060405180910390f35b610d5b60048036036040811015610ca457600080fd5b81019080803567ffffffffffffffff16906020019092919080359060200190640100000000811115610cd557600080fd5b820183602082011115610ce757600080fd5b80359060200191846001830284011164010000000083111715610d0957600080fd5b91908080601f016020809104026020016040519081016040528093929190818152602001838380828437600081840152601f19601f82011690508083019250505050505050919291929050505061378e565b005b610d9f60048036036020811015610d7357600080fd5b81019080803573ffffffffffffffffffffffffffffffffffffffff169060200190929190505050613cea565b005b610da9613e43565b604051808273ffffffffffffffffffffffffffffffffffffffff16815260200191505060405180910390f35b610e1760048036036020811015610deb57600080fd5b81019080803573ffffffffffffffffffffffffffffffffffffffff169060200190929190505050613e6c565b60405180821515815260200191505060405180910390f35b610e37613edd565b6040518082815260200191505060405180910390f35b610e8360048036036020811015610e6357600080fd5b81019080803567ffffffffffffffff169060200190929190505050613ee3565b005b610ec760048036036020811015610e9b57600080fd5b81019080803573ffffffffffffffffffffffffffffffffffffffff169060200190929190505050613f25565b005b610f0b60048036036020811015610edf57600080fd5b81019080803573ffffffffffffffffffffffffffffffffffffffff169060200190929190505050614196565b6040518082815260200191505060405180910390f35b610f5760048036036020811015610f3757600080fd5b81019080803567ffffffffffffffff1690602001909291905050506141fa565b6040518082815260200191505060405180910390f35b610f7561422b565b604051808273ffffffffffffffffffffffffffffffffffffffff16815260200191505060405180910390f35b610fe360048036036020811015610fb757600080fd5b81019080803573ffffffffffffffffffffffffffffffffffffffff169060200190929190505050614251565b60405180821515815260200191505060405180910390f35b61103d6004803603602081101561101157600080fd5b81019080803573ffffffffffffffffffffffffffffffffffffffff1690602001909291905050506142c2565b005b6110756004803603604081101561105557600080fd5b81019080803590602001909291908035906020019092919050505061441b565b604051808273ffffffffffffffffffffffffffffffffffffffff16815260200191505060405180910390f35b6110cd600480360360208110156110b757600080fd5b8101908080359060200190929190505050614466565b005b611111600480360360208110156110e557600080fd5b81019080803573ffffffffffffffffffffffffffffffffffffffff1690602001909291905050506146fa565b60405180821515815260200191505060405180910390f35b61118b6004803603604081101561113f57600080fd5b81019080803573ffffffffffffffffffffffffffffffffffffffff169060200190929190803573ffffffffffffffffffffffffffffffffffffffff169060200190929190505050614748565b60405180821515815260200191505060405180910390f35b6111e5600480360360208110156111b957600080fd5b81019080803573ffffffffffffffffffffffffffffffffffffffff169060200190929190505050614815565b604051808267ffffffffffffffff16815260200191505060405180910390f35b61120d614875565b6040518082815260200191505060405180910390f35b6112656004803603602081101561123957600080fd5b81019080803573ffffffffffffffffffffffffffffffffffffffff16906020019092919050505061487b565b005b6112a96004803603602081101561127d57600080fd5b81019080803573ffffffffffffffffffffffffffffffffffffffff169060200190929190505050614b78565b005b6112d7600480360360208110156112c157600080fd5b8101908080359060200190929190505050614f22565b604051808267ffffffffffffffff16815260200191505060405180910390f35b6113236004803603602081101561130d57600080fd5b8101908080359060200190929190505050614fd0565b005b6113676004803603602081101561133b57600080fd5b81019080803573ffffffffffffffffffffffffffffffffffffffff169060200190929190505050615176565b005b6113ab6004803603602081101561137f57600080fd5b81019080803573ffffffffffffffffffffffffffffffffffffffff169060200190929190505050615381565b604051808881526020018767ffffffffffffffff168152602001806020018681526020018581526020018415158152602001838152602001828103825287818151815260200191508051906020019080838360005b8381101561141b578082015181840152602081019050611400565b50505050905090810190601f1680156114485780820380516001836020036101000a031916815260200191505b509850505050505050505060405180910390f35b3373ffffffffffffffffffffffffffffffffffffffff16600360009054906101000a900473ffffffffffffffffffffffffffffffffffffffff1673ffffffffffffffffffffffffffffffffffffffff1614611502576040517f08c379a0000000000000000000000000000000000000000000000000000000008152600401808060200182810382526067815260200180615d476067913960800191505060405180910390fd5b61150b81613e6c565b15611561576040517f08c379a0000000000000000000000000000000000000000000000000000000008152600401808060200182810382526023815260200180615fc56023913960400191505060405180910390fd5b61156c816003615596565b50565b600060606007600084815260200190815260200160002080548060200260200160405190810160405280929190818152602001828054801561160657602002820191906000526020600020905b8160009054906101000a900473ffffffffffffffffffffffffffffffffffffffff1673ffffffffffffffffffffffffffffffffffffffff16815260200190600101908083116115bc575b5050505050905060005b81518110156116765761163582828151811061162857fe5b60200260200101516122f0565b8015611659575061165882828151811061164b57fe5b602002602001015161171f565b5b1561166957600192505050611679565b8080600101915050611610565b50505b919050565b60606007600083815260200190815260200160002080548060200260200160405190810160405280929190818152602001828054801561171357602002820191906000526020600020905b8160009054906101000a900473ffffffffffffffffffffffffffffffffffffffff1673ffffffffffffffffffffffffffffffffffffffff16815260200190600101908083116116c9575b50505050509050919050565b600060018081111561172d57fe5b600660008473ffffffffffffffffffffffffffffffffffffffff1673ffffffffffffffffffffffffffffffffffffffff16815260200190815260200160002060030160019054906101000a900460ff16600181111561178857fe5b149050919050565b60066020528060005260406000206000915090508060000154908060010160009054906101000a900467ffffffffffffffff1690806002018054600181600116156101000203166002900480601f01602080910402602001604051908101604052809291908181526020018280546001816001161561010002031660029004801561185c5780601f106118315761010080835404028352916020019161185c565b820191906000526020600020905b81548152906001019060200180831161183f57829003601f168201915b5050505050908060030160009054906101000a900460ff16908060030160019054906101000a900460ff16908060030160029054906101000a900460ff16908060040154905087565b3373ffffffffffffffffffffffffffffffffffffffff16600160009054906101000a900473ffffffffffffffffffffffffffffffffffffffff1673ffffffffffffffffffffffffffffffffffffffff161461194b576040517f08c379a000000000000000000000000000000000000000000000000000000000815260040180806020018281038252604d815260200180616188604d913960600191505060405180910390fd5b60003390506001600581111561195d57fe5b600660008573ffffffffffffffffffffffffffffffffffffffff1673ffffffffffffffffffffffffffffffffffffffff16815260200190815260200160002060030160009054906101000a900460ff1660058111156119b857fe5b14611a0e576040517f08c379a00000000000000000000000000000000000000000000000000000000081526004018080602001828103825260368152602001806160416036913960400191505060405180910390fd5b611a178361171f565b611a6c576040517f08c379a000000000000000000000000000000000000000000000000000000000815260040180806020018281038252602b815260200180616231602b913960400191505060405180910390fd5b611a7583612cdc565b15611acb576040517f08c379a0000000000000000000000000000000000000000000000000000000008152600401808060200182810382526033815260200180615e6d6033913960400191505060405180910390fd5b611ad4836146fa565b15611b2a576040517f08c379a00000000000000000000000000000000000000000000000000000000081526004018080602001828103825260348152602001806160776034913960400191505060405180910390fd5b8115611cb6576002600660008573ffffffffffffffffffffffffffffffffffffffff1673ffffffffffffffffffffffffffffffffffffffff16815260200190815260200160002060030160006101000a81548160ff02191690836005811115611b8f57fe5b02179055507f88a401630afd2c730097d0a0f3a014c6e7cc6db68bb1b13d4e1a37622b44518183600660008673ffffffffffffffffffffffffffffffffffffffff1673ffffffffffffffffffffffffffffffffffffffff16815260200190815260200160002060000154600660008773ffffffffffffffffffffffffffffffffffffffff1673ffffffffffffffffffffffffffffffffffffffff16815260200190815260200160002060010160009054906101000a900467ffffffffffffffff1684604051808573ffffffffffffffffffffffffffffffffffffffff1681526020018481526020018367ffffffffffffffff1681526020018273ffffffffffffffffffffffffffffffffffffffff16815260200194505050505060405180910390a1611e38565b6003600660008573ffffffffffffffffffffffffffffffffffffffff1673ffffffffffffffffffffffffffffffffffffffff16815260200190815260200160002060030160006101000a81548160ff02191690836005811115611d1557fe5b02179055507f59567b1124b6234e30f0a452574ad973b93bff3b825fb38e284fb8bc9b0c104b83600660008673ffffffffffffffffffffffffffffffffffffffff1673ffffffffffffffffffffffffffffffffffffffff16815260200190815260200160002060000154600660008773ffffffffffffffffffffffffffffffffffffffff1673ffffffffffffffffffffffffffffffffffffffff16815260200190815260200160002060010160009054906101000a900467ffffffffffffffff1684604051808573ffffffffffffffffffffffffffffffffffffffff1681526020018481526020018367ffffffffffffffff1681526020018273ffffffffffffffffffffffffffffffffffffffff16815260200194505050505060405180910390a15b505050565b60008173ffffffffffffffffffffffffffffffffffffffff16611e5e613e43565b73ffffffffffffffffffffffffffffffffffffffff16149050919050565b6000600660008373ffffffffffffffffffffffffffffffffffffffff1673ffffffffffffffffffffffffffffffffffffffff168152602001908152602001600020600001549050919050565b6000339050611ed682612fcf565b611f2b576040517f08c379a000000000000000000000000000000000000000000000000000000000815260040180806020018281038252602381526020018061601e6023913960400191505060405180910390fd5b611f3481614251565b15611f8a576040517f08c379a0000000000000000000000000000000000000000000000000000000008152600401808060200182810382526035815260200180615cec6035913960400191505060405180910390fd5b611f9381613e6c565b15611fe9576040517f08c379a00000000000000000000000000000000000000000000000000000000081526004018080602001828103825260278152602001806161d56027913960400191505060405180910390fd5b60006005544201905082600660008473ffffffffffffffffffffffffffffffffffffffff1673ffffffffffffffffffffffffffffffffffffffff1681526020019081526020016000206002019080519060200190612048929190615b94565b506001600660008473ffffffffffffffffffffffffffffffffffffffff1673ffffffffffffffffffffffffffffffffffffffff16815260200190815260200160002060030160006101000a81548160ff021916908360058111156120a857fe5b021790555080600660008473ffffffffffffffffffffffffffffffffffffffff1673ffffffffffffffffffffffffffffffffffffffff168152602001908152602001600020600401819055506000600660008473ffffffffffffffffffffffffffffffffffffffff1673ffffffffffffffffffffffffffffffffffffffff16815260200190815260200160002060030160026101000a81548160ff0219169083151502179055507ff492947317cd8bacaf07d8d493aa37edfc267531f5c311a42eaf0b68d332f38b828483604051808473ffffffffffffffffffffffffffffffffffffffff16815260200180602001838152602001828103825284818151815260200191508051906020019080838360005b838110156121d55780820151818401526020810190506121ba565b50505050905090810190601f1680156122025780820380516001836020036101000a031916815260200191505b5094505050505060405180910390a1505050565b3373ffffffffffffffffffffffffffffffffffffffff16600360009054906101000a900473ffffffffffffffffffffffffffffffffffffffff1673ffffffffffffffffffffffffffffffffffffffff16146122bc576040517f08c379a0000000000000000000000000000000000000000000000000000000008152600401808060200182810382526067815260200180615d476067913960800191505060405180910390fd5b6122c7816002615726565b50565b600260009054906101000a900473ffffffffffffffffffffffffffffffffffffffff1681565b60006122fb82612d35565b801561230d575061230b82612cdc565b155b801561231f575061231d826146fa565b155b9050919050565b60006001600581111561233557fe5b600660008473ffffffffffffffffffffffffffffffffffffffff1673ffffffffffffffffffffffffffffffffffffffff16815260200190815260200160002060030160009054906101000a900460ff16600581111561239057fe5b14806124015750600260058111156123a457fe5b600660008473ffffffffffffffffffffffffffffffffffffffff1673ffffffffffffffffffffffffffffffffffffffff16815260200190815260200160002060030160009054906101000a900460ff1660058111156123ff57fe5b145b8061247157506003600581111561241457fe5b600660008473ffffffffffffffffffffffffffffffffffffffff1673ffffffffffffffffffffffffffffffffffffffff16815260200190815260200160002060030160009054906101000a900460ff16600581111561246f57fe5b145b9050919050565b61248061596a565b73ffffffffffffffffffffffffffffffffffffffff1660008054906101000a900473ffffffffffffffffffffffffffffffffffffffff1673ffffffffffffffffffffffffffffffffffffffff1614612540576040517f08c379a00000000000000000000000000000000000000000000000000000000081526004018080602001828103825260208152602001807f4f776e61626c653a2063616c6c6572206973206e6f7420746865206f776e657281525060200191505060405180910390fd5b60006005549050816005819055507f33e73778e90a0a7d35d5d4332f4668b1fcff659529950c30f760a39ba49fafec3382600554604051808473ffffffffffffffffffffffffffffffffffffffff168152602001838152602001828152602001935050505060405180910390a15050565b6125ba33612cdc565b15612610576040517f08c379a000000000000000000000000000000000000000000000000000000000815260040180806020018281038252603a815260200180615dae603a913960400191505060405180910390fd5b612619336146fa565b61266e576040517f08c379a0000000000000000000000000000000000000000000000000000000008152600401808060200182810382526065815260200180615f326065913960800191505060405180910390fd5b61267733612d35565b6126cc576040517f08c379a0000000000000000000000000000000000000000000000000000000008152600401808060200182810382526036815260200180615fe86036913960400191505060405180910390fd5b60003390506126da8161171f565b61272f576040517f08c379a00000000000000000000000000000000000000000000000000000000081526004018080602001828103825260368152602001806162a46036913960400191505060405180910390fd5b6001600581111561273c57fe5b600660008473ffffffffffffffffffffffffffffffffffffffff1673ffffffffffffffffffffffffffffffffffffffff16815260200190815260200160002060030160009054906101000a900460ff16600581111561279757fe5b146127ed576040517f08c379a00000000000000000000000000000000000000000000000000000000081526004018080602001828103825260368152602001806160416036913960400191505060405180910390fd5b6127f682612cdc565b1561284c576040517f08c379a0000000000000000000000000000000000000000000000000000000008152600401808060200182810382526033815260200180615e6d6033913960400191505060405180910390fd5b612855826146fa565b156128ab576040517f08c379a00000000000000000000000000000000000000000000000000000000081526004018080602001828103825260348152602001806160776034913960400191505060405180910390fd5b600060018111156128b857fe5b600660008473ffffffffffffffffffffffffffffffffffffffff1673ffffffffffffffffffffffffffffffffffffffff16815260200190815260200160002060030160019054906101000a900460ff16600181111561291357fe5b14612969576040517f08c379a00000000000000000000000000000000000000000000000000000000081526004018080602001828103825260328152602001806162da6032913960400191505060405180910390fd5b6129738183614748565b6129c8576040517f08c379a000000000000000000000000000000000000000000000000000000000815260040180806020018281038252604c81526020018061613c604c913960600191505060405180910390fd5b6004600660008473ffffffffffffffffffffffffffffffffffffffff1673ffffffffffffffffffffffffffffffffffffffff16815260200190815260200160002060030160006101000a81548160ff02191690836005811115612a2757fe5b02179055507f90e796ddecc580ca3db3277073bdbf5d9c3eac364c19683d78a0bb129021360b82600660008573ffffffffffffffffffffffffffffffffffffffff1673ffffffffffffffffffffffffffffffffffffffff16815260200190815260200160002060000154600660008673ffffffffffffffffffffffffffffffffffffffff1673ffffffffffffffffffffffffffffffffffffffff16815260200190815260200160002060010160009054906101000a900467ffffffffffffffff1684604051808573ffffffffffffffffffffffffffffffffffffffff1681526020018481526020018367ffffffffffffffff1681526020018273ffffffffffffffffffffffffffffffffffffffff16815260200194505050505060405180910390a15050565b3373ffffffffffffffffffffffffffffffffffffffff16600360009054906101000a900473ffffffffffffffffffffffffffffffffffffffff1673ffffffffffffffffffffffffffffffffffffffff1614612bf3576040517f08c379a0000000000000000000000000000000000000000000000000000000008152600401808060200182810382526067815260200180615d476067913960800191505060405180910390fd5b612bfc81613e6c565b15612c52576040517f08c379a0000000000000000000000000000000000000000000000000000000008152600401808060200182810382526029815260200180615ec86029913960400191505060405180910390fd5b612c5b81612cdc565b15612cce576040517f08c379a00000000000000000000000000000000000000000000000000000000081526004018080602001828103825260178152602001807f436f6e7461206ac3a120657374c3a1207061757361646100000000000000000081525060200191505060405180910390fd5b612cd9816002615972565b50565b6000600660008373ffffffffffffffffffffffffffffffffffffffff1673ffffffffffffffffffffffffffffffffffffffff16815260200190815260200160002060030160029054906101000a900460ff169050919050565b600060046005811115612d4457fe5b600660008473ffffffffffffffffffffffffffffffffffffffff1673ffffffffffffffffffffffffffffffffffffffff16815260200190815260200160002060030160009054906101000a900460ff166005811115612d9f57fe5b149050919050565b600080612db383611e7c565b9050612dbe8161156f565b612e13576040517f08c379a000000000000000000000000000000000000000000000000000000000815260040180806020018281038252602681526020018061633d6026913960400191505060405180910390fd5b80915050919050565b3373ffffffffffffffffffffffffffffffffffffffff16600260009054906101000a900473ffffffffffffffffffffffffffffffffffffffff1673ffffffffffffffffffffffffffffffffffffffff1614612ec2576040517f08c379a000000000000000000000000000000000000000000000000000000000815260040180806020018281038252604881526020018061625c6048913960600191505060405180910390fd5b612ecb81612326565b612f20576040517f08c379a0000000000000000000000000000000000000000000000000000000008152600401808060200182810382526036815260200180615cb66036913960400191505060405180910390fd5b612f298161171f565b612f9b576040517f08c379a000000000000000000000000000000000000000000000000000000000815260040180806020018281038252601b8152602001807f496e76616c696461206170656e617320636f6e74612041444d494e000000000081525060200191505060405180910390fd5b612fa6816002615596565b50565b600360009054906101000a900473ffffffffffffffffffffffffffffffffffffffff1681565b600060608290506040815114612fe95760009150506131ad565b60005b60408110156131a6577f300000000000000000000000000000000000000000000000000000000000000082828151811061302257fe5b602001015160f81c60f81b7effffffffffffffffffffffffffffffffffffffffffffffffffffffffffffff19161015613060576000925050506131ad565b7f390000000000000000000000000000000000000000000000000000000000000082828151811061308d57fe5b602001015160f81c60f81b7effffffffffffffffffffffffffffffffffffffffffffffffffffffffffffff191611801561311e57507f61000000000000000000000000000000000000000000000000000000000000008282815181106130ef57fe5b602001015160f81c60f81b7effffffffffffffffffffffffffffffffffffffffffffffffffffffffffffff1916105b1561312e576000925050506131ad565b7f660000000000000000000000000000000000000000000000000000000000000082828151811061315b57fe5b602001015160f81c60f81b7effffffffffffffffffffffffffffffffffffffffffffffffffffffffffffff19161115613199576000925050506131ad565b8080600101915050612fec565b5060019150505b919050565b6131ba61596a565b73ffffffffffffffffffffffffffffffffffffffff1660008054906101000a900473ffffffffffffffffffffffffffffffffffffffff1673ffffffffffffffffffffffffffffffffffffffff161461327a576040517f08c379a00000000000000000000000000000000000000000000000000000000081526004018080602001828103825260208152602001807f4f776e61626c653a2063616c6c6572206973206e6f7420746865206f776e657281525060200191505060405180910390fd5b600073ffffffffffffffffffffffffffffffffffffffff1660008054906101000a900473ffffffffffffffffffffffffffffffffffffffff1673ffffffffffffffffffffffffffffffffffffffff167f8be0079c531659141344cd1fd0a4f28419497f9722a3daafe3b4186f6b6457e060405160405180910390a360008060006101000a81548173ffffffffffffffffffffffffffffffffffffffff021916908373ffffffffffffffffffffffffffffffffffffffff160217905550565b60086020528060005260406000206000915090505481565b61335861596a565b73ffffffffffffffffffffffffffffffffffffffff1660008054906101000a900473ffffffffffffffffffffffffffffffffffffffff1673ffffffffffffffffffffffffffffffffffffffff1614613418576040517f08c379a00000000000000000000000000000000000000000000000000000000081526004018080602001828103825260208152602001807f4f776e61626c653a2063616c6c6572206973206e6f7420746865206f776e657281525060200191505060405180910390fd5b80600360006101000a81548173ffffffffffffffffffffffffffffffffffffffff021916908373ffffffffffffffffffffffffffffffffffffffff1602179055507fe8940ba94a1b862af0a845755bbe38516264b7937dc69ffdb00fa16bb9c2c85f81604051808273ffffffffffffffffffffffffffffffffffffffff16815260200191505060405180910390a150565b6134b233612cdc565b15613508576040517f08c379a000000000000000000000000000000000000000000000000000000000815260040180806020018281038252603a815260200180615dae603a913960400191505060405180910390fd5b613511336146fa565b613566576040517f08c379a0000000000000000000000000000000000000000000000000000000008152600401808060200182810382526065815260200180615f326065913960800191505060405180910390fd5b61356f33612d35565b6135c4576040517f08c379a0000000000000000000000000000000000000000000000000000000008152600401808060200182810382526036815260200180615fe86036913960400191505060405180910390fd5b60003390506135d282613e6c565b15613628576040517f08c379a0000000000000000000000000000000000000000000000000000000008152600401808060200182810382526023815260200180615fc56023913960400191505060405180910390fd5b6136328183614748565b613687576040517f08c379a000000000000000000000000000000000000000000000000000000000815260040180806020018281038252603a8152602001806160d5603a913960400191505060405180910390fd5b8073ffffffffffffffffffffffffffffffffffffffff168273ffffffffffffffffffffffffffffffffffffffff1614806136c657506136c58161171f565b5b61371b576040517f08c379a0000000000000000000000000000000000000000000000000000000008152600401808060200182810382526028815260200180615ea06028913960400191505060405180910390fd5b613726826001615596565b5050565b6000600660008373ffffffffffffffffffffffffffffffffffffffff1673ffffffffffffffffffffffffffffffffffffffff16815260200190815260200160002060030160019054906101000a900460ff16600181111561378757fe5b9050919050565b600033905061379c81614251565b6137f1576040517f08c379a00000000000000000000000000000000000000000000000000000000081526004018080602001828103825260358152602001806161fc6035913960400191505060405180910390fd5b600060055442019050600061380585615af9565b90506040518060400160405280600181526020017f300000000000000000000000000000000000000000000000000000000000000081525080519060200120848051906020012014156139c3576040518060e001604052808281526020018667ffffffffffffffff1681526020018581526020016001600581111561388657fe5b81526020016000600181111561389857fe5b815260200160001515815260200183815250600660008573ffffffffffffffffffffffffffffffffffffffff1673ffffffffffffffffffffffffffffffffffffffff1681526020019081526020016000206000820151816000015560208201518160010160006101000a81548167ffffffffffffffff021916908367ffffffffffffffff160217905550604082015181600201908051906020019061393e929190615b94565b5060608201518160030160006101000a81548160ff0219169083600581111561396357fe5b021790555060808201518160030160016101000a81548160ff0219169083600181111561398c57fe5b021790555060a08201518160030160026101000a81548160ff02191690831515021790555060c08201518160040155905050613b8d565b6139cc84612fcf565b613a21576040517f08c379a000000000000000000000000000000000000000000000000000000000815260040180806020018281038252602381526020018061601e6023913960400191505060405180910390fd5b6040518060e001604052808281526020018667ffffffffffffffff16815260200185815260200160016005811115613a5557fe5b8152602001600180811115613a6657fe5b815260200160001515815260200183815250600660008573ffffffffffffffffffffffffffffffffffffffff1673ffffffffffffffffffffffffffffffffffffffff1681526020019081526020016000206000820151816000015560208201518160010160006101000a81548167ffffffffffffffff021916908367ffffffffffffffff1602179055506040820151816002019080519060200190613b0c929190615b94565b5060608201518160030160006101000a81548160ff02191690836005811115613b3157fe5b021790555060808201518160030160016101000a81548160ff02191690836001811115613b5a57fe5b021790555060a08201518160030160026101000a81548160ff02191690831515021790555060c082015181600401559050505b60076000828152602001908152602001600020839080600181540180825580915050600190039060005260206000200160009091909190916101000a81548173ffffffffffffffffffffffffffffffffffffffff021916908373ffffffffffffffffffffffffffffffffffffffff16021790555060608490507fdf705ffb67f3c12f456a843de9785cb8435e6819b1974e5df6de4557ae2f52f68483888487604051808673ffffffffffffffffffffffffffffffffffffffff1681526020018581526020018467ffffffffffffffff16815260200180602001838152602001828103825284818151815260200191508051906020019080838360005b83811015613ca4578082015181840152602081019050613c89565b50505050905090810190601f168015613cd15780820380516001836020036101000a031916815260200191505b50965050505050505060405180910390a1505050505050565b613cf261596a565b73ffffffffffffffffffffffffffffffffffffffff1660008054906101000a900473ffffffffffffffffffffffffffffffffffffffff1673ffffffffffffffffffffffffffffffffffffffff1614613db2576040517f08c379a00000000000000000000000000000000000000000000000000000000081526004018080602001828103825260208152602001807f4f776e61626c653a2063616c6c6572206973206e6f7420746865206f776e657281525060200191505060405180910390fd5b80600260006101000a81548173ffffffffffffffffffffffffffffffffffffffff021916908373ffffffffffffffffffffffffffffffffffffffff1602179055507fab616eba0b7070d2d87e12d5c2d05868da9a14a38db4c54abb148faa879bdf6281604051808273ffffffffffffffffffffffffffffffffffffffff16815260200191505060405180910390a150565b60008060009054906101000a900473ffffffffffffffffffffffffffffffffffffffff16905090565b6000600580811115613e7a57fe5b600660008473ffffffffffffffffffffffffffffffffffffffff1673ffffffffffffffffffffffffffffffffffffffff16815260200190815260200160002060030160009054906101000a900460ff166005811115613ed557fe5b149050919050565b60055481565b613f22816040518060400160405280600181526020017f300000000000000000000000000000000000000000000000000000000000000081525061378e565b50565b613f2e33612cdc565b15613f84576040517f08c379a000000000000000000000000000000000000000000000000000000000815260040180806020018281038252603a815260200180615dae603a913960400191505060405180910390fd5b613f8d336146fa565b613fe2576040517f08c379a0000000000000000000000000000000000000000000000000000000008152600401808060200182810382526065815260200180615f326065913960800191505060405180910390fd5b613feb33612d35565b614040576040517f08c379a0000000000000000000000000000000000000000000000000000000008152600401808060200182810382526036815260200180615fe86036913960400191505060405180910390fd5b600033905061404e8261171f565b6140a3576040517f08c379a000000000000000000000000000000000000000000000000000000000815260040180806020018281038252603181526020018061630c6031913960400191505060405180910390fd5b8173ffffffffffffffffffffffffffffffffffffffff168173ffffffffffffffffffffffffffffffffffffffff161415614128576040517f08c379a0000000000000000000000000000000000000000000000000000000008152600401808060200182810382526041815260200180615ef16041913960600191505060405180910390fd5b6141328183614748565b614187576040517f08c379a0000000000000000000000000000000000000000000000000000000008152600401808060200182810382526047815260200180615e266047913960600191505060405180910390fd5b614192826001615726565b5050565b6000600660008373ffffffffffffffffffffffffffffffffffffffff1673ffffffffffffffffffffffffffffffffffffffff16815260200190815260200160002060030160009054906101000a900460ff1660058111156141f357fe5b9050919050565b6000600860008367ffffffffffffffff1667ffffffffffffffff168152602001908152602001600020549050919050565b600160009054906101000a900473ffffffffffffffffffffffffffffffffffffffff1681565b600080600581111561425f57fe5b600660008473ffffffffffffffffffffffffffffffffffffffff1673ffffffffffffffffffffffffffffffffffffffff16815260200190815260200160002060030160009054906101000a900460ff1660058111156142ba57fe5b149050919050565b6142ca61596a565b73ffffffffffffffffffffffffffffffffffffffff1660008054906101000a900473ffffffffffffffffffffffffffffffffffffffff1673ffffffffffffffffffffffffffffffffffffffff161461438a576040517f08c379a00000000000000000000000000000000000000000000000000000000081526004018080602001828103825260208152602001807f4f776e61626c653a2063616c6c6572206973206e6f7420746865206f776e657281525060200191505060405180910390fd5b80600160006101000a81548173ffffffffffffffffffffffffffffffffffffffff021916908373ffffffffffffffffffffffffffffffffffffffff1602179055507fb4b21447ed122203af852ed9cc9406dfcf15215ca2a22c6e2adca1156bccea9181604051808273ffffffffffffffffffffffffffffffffffffffff16815260200191505060405180910390a150565b6007602052816000526040600020818154811061443457fe5b906000526020600020016000915091509054906101000a900473ffffffffffffffffffffffffffffffffffffffff1681565b61446f33612cdc565b156144c5576040517f08c379a000000000000000000000000000000000000000000000000000000000815260040180806020018281038252603a815260200180615dae603a913960400191505060405180910390fd5b6144ce336146fa565b614523576040517f08c379a0000000000000000000000000000000000000000000000000000000008152600401808060200182810382526065815260200180615f326065913960800191505060405180910390fd5b61452c33612d35565b614581576040517f08c379a0000000000000000000000000000000000000000000000000000000008152600401808060200182810382526036815260200180615fe86036913960400191505060405180910390fd5b600033905060606007600084815260200190815260200160002080548060200260200160405190810160405280929190818152602001828054801561461b57602002820191906000526020600020905b8160009054906101000a900473ffffffffffffffffffffffffffffffffffffffff1673ffffffffffffffffffffffffffffffffffffffff16815260200190600101908083116145d1575b50505050509050614640828260008151811061463357fe5b6020026020010151614748565b614695576040517f08c379a000000000000000000000000000000000000000000000000000000000815260040180806020018281038252603e815260200180615de8603e913960400191505060405180910390fd5b60005b81518110156146f45760008282815181106146af57fe5b602002602001015190506146c281613e6c565b1580156146d557506146d381612cdc565b155b156146e6576146e5816003615972565b5b508080600101915050614698565b50505050565b600042600660008473ffffffffffffffffffffffffffffffffffffffff1673ffffffffffffffffffffffffffffffffffffffff16815260200190815260200160002060040154109050919050565b6000600660008373ffffffffffffffffffffffffffffffffffffffff1673ffffffffffffffffffffffffffffffffffffffff16815260200190815260200160002060010160009054906101000a900467ffffffffffffffff1667ffffffffffffffff16600660008573ffffffffffffffffffffffffffffffffffffffff1673ffffffffffffffffffffffffffffffffffffffff16815260200190815260200160002060010160009054906101000a900467ffffffffffffffff1667ffffffffffffffff1614905092915050565b6000600660008373ffffffffffffffffffffffffffffffffffffffff1673ffffffffffffffffffffffffffffffffffffffff16815260200190815260200160002060010160009054906101000a900467ffffffffffffffff169050919050565b60045481565b61488433612cdc565b156148da576040517f08c379a000000000000000000000000000000000000000000000000000000000815260040180806020018281038252603a815260200180615dae603a913960400191505060405180910390fd5b6148e3336146fa565b614938576040517f08c379a0000000000000000000000000000000000000000000000000000000008152600401808060200182810382526065815260200180615f326065913960800191505060405180910390fd5b61494133612d35565b614996576040517f08c379a0000000000000000000000000000000000000000000000000000000008152600401808060200182810382526036815260200180615fe86036913960400191505060405180910390fd5b60003390506149a482613e6c565b156149fa576040517f08c379a0000000000000000000000000000000000000000000000000000000008152600401808060200182810382526029815260200180615ec86029913960400191505060405180910390fd5b614a0382612cdc565b15614a76576040517f08c379a00000000000000000000000000000000000000000000000000000000081526004018080602001828103825260178152602001807f436f6e7461206ac3a120657374c3a1207061757361646100000000000000000081525060200191505060405180910390fd5b614a808183614748565b614ad5576040517f08c379a000000000000000000000000000000000000000000000000000000000815260040180806020018281038252603e815260200180615de8603e913960400191505060405180910390fd5b8073ffffffffffffffffffffffffffffffffffffffff168273ffffffffffffffffffffffffffffffffffffffff161480614b145750614b138161171f565b5b614b69576040517f08c379a0000000000000000000000000000000000000000000000000000000008152600401808060200182810382526025815260200180615c916025913960400191505060405180910390fd5b614b74826001615972565b5050565b3373ffffffffffffffffffffffffffffffffffffffff16600260009054906101000a900473ffffffffffffffffffffffffffffffffffffffff1673ffffffffffffffffffffffffffffffffffffffff1614614c1e576040517f08c379a000000000000000000000000000000000000000000000000000000000815260040180806020018281038252604881526020018061625c6048913960600191505060405180910390fd5b6000339050614c2c82612326565b614c81576040517f08c379a000000000000000000000000000000000000000000000000000000000815260040180806020018281038252602a8152602001806160ab602a913960400191505060405180910390fd5b614c8a82612cdc565b15614ce0576040517f08c379a0000000000000000000000000000000000000000000000000000000008152600401808060200182810382526033815260200180615e6d6033913960400191505060405180910390fd5b614ce9826146fa565b15614d3f576040517f08c379a00000000000000000000000000000000000000000000000000000000081526004018080602001828103825260348152602001806160776034913960400191505060405180910390fd5b614d488261171f565b614d9d576040517f08c379a000000000000000000000000000000000000000000000000000000000815260040180806020018281038252602b815260200180616231602b913960400191505060405180910390fd5b6004600660008473ffffffffffffffffffffffffffffffffffffffff1673ffffffffffffffffffffffffffffffffffffffff16815260200190815260200160002060030160006101000a81548160ff02191690836005811115614dfc57fe5b02179055507f90e796ddecc580ca3db3277073bdbf5d9c3eac364c19683d78a0bb129021360b82600660008573ffffffffffffffffffffffffffffffffffffffff1673ffffffffffffffffffffffffffffffffffffffff16815260200190815260200160002060000154600660008673ffffffffffffffffffffffffffffffffffffffff1673ffffffffffffffffffffffffffffffffffffffff16815260200190815260200160002060010160009054906101000a900467ffffffffffffffff1684604051808573ffffffffffffffffffffffffffffffffffffffff1681526020018481526020018367ffffffffffffffff1681526020018273ffffffffffffffffffffffffffffffffffffffff16815260200194505050505060405180910390a15050565b60008060076000848152602001908152602001600020600081548110614f4457fe5b9060005260206000200160009054906101000a900473ffffffffffffffffffffffffffffffffffffffff169050600660008273ffffffffffffffffffffffffffffffffffffffff1673ffffffffffffffffffffffffffffffffffffffff16815260200190815260200160002060010160009054906101000a900467ffffffffffffffff16915050919050565b3373ffffffffffffffffffffffffffffffffffffffff16600360009054906101000a900473ffffffffffffffffffffffffffffffffffffffff1673ffffffffffffffffffffffffffffffffffffffff1614615076576040517f08c379a0000000000000000000000000000000000000000000000000000000008152600401808060200182810382526067815260200180615d476067913960800191505060405180910390fd5b60606007600083815260200190815260200160002080548060200260200160405190810160405280929190818152602001828054801561510b57602002820191906000526020600020905b8160009054906101000a900473ffffffffffffffffffffffffffffffffffffffff1673ffffffffffffffffffffffffffffffffffffffff16815260200190600101908083116150c1575b5050505050905060005b815181101561517157600082828151811061512c57fe5b6020026020010151905061513f81613e6c565b158015615152575061515081612cdc565b155b1561516357615162816004615972565b5b508080600101915050615115565b505050565b61517e61596a565b73ffffffffffffffffffffffffffffffffffffffff1660008054906101000a900473ffffffffffffffffffffffffffffffffffffffff1673ffffffffffffffffffffffffffffffffffffffff161461523e576040517f08c379a00000000000000000000000000000000000000000000000000000000081526004018080602001828103825260208152602001807f4f776e61626c653a2063616c6c6572206973206e6f7420746865206f776e657281525060200191505060405180910390fd5b600073ffffffffffffffffffffffffffffffffffffffff168173ffffffffffffffffffffffffffffffffffffffff1614156152c4576040517f08c379a0000000000000000000000000000000000000000000000000000000008152600401808060200182810382526026815260200180615d216026913960400191505060405180910390fd5b8073ffffffffffffffffffffffffffffffffffffffff1660008054906101000a900473ffffffffffffffffffffffffffffffffffffffff1673ffffffffffffffffffffffffffffffffffffffff167f8be0079c531659141344cd1fd0a4f28419497f9722a3daafe3b4186f6b6457e060405160405180910390a3806000806101000a81548173ffffffffffffffffffffffffffffffffffffffff021916908373ffffffffffffffffffffffffffffffffffffffff16021790555050565b6000806060600080600080615394615c14565b600660008a73ffffffffffffffffffffffffffffffffffffffff1673ffffffffffffffffffffffffffffffffffffffff1681526020019081526020016000206040518060e0016040529081600082015481526020016001820160009054906101000a900467ffffffffffffffff1667ffffffffffffffff1667ffffffffffffffff168152602001600282018054600181600116156101000203166002900480601f0160208091040260200160405190810160405280929190818152602001828054600181600116156101000203166002900480156154b35780601f10615488576101008083540402835291602001916154b3565b820191906000526020600020905b81548152906001019060200180831161549657829003601f168201915b505050505081526020016003820160009054906101000a900460ff1660058111156154da57fe5b60058111156154e557fe5b81526020016003820160019054906101000a900460ff16600181111561550757fe5b600181111561551257fe5b81526020016003820160029054906101000a900460ff16151515158152602001600482015481525050905060608160400151905081600001518260200151828460600151600581111561556157fe5b8560800151600181111561557157fe5b8660a001518760c0015198509850985098509850985098505050919395979092949650565b6005600660008473ffffffffffffffffffffffffffffffffffffffff1673ffffffffffffffffffffffffffffffffffffffff16815260200190815260200160002060030160006101000a81548160ff021916908360058111156155f557fe5b02179055507ff21c6489d7501ed8680a8057bde75d0b1a96ed72c4e7fb66dab5500b247f573b82600660008573ffffffffffffffffffffffffffffffffffffffff1673ffffffffffffffffffffffffffffffffffffffff16815260200190815260200160002060000154600660008673ffffffffffffffffffffffffffffffffffffffff1673ffffffffffffffffffffffffffffffffffffffff16815260200190815260200160002060010160009054906101000a900467ffffffffffffffff163385604051808673ffffffffffffffffffffffffffffffffffffffff1681526020018581526020018467ffffffffffffffff1681526020018373ffffffffffffffffffffffffffffffffffffffff1681526020018260ff1681526020019550505050505060405180910390a15050565b61572f82613e6c565b15615785576040517f08c379a000000000000000000000000000000000000000000000000000000000815260040180806020018281038252602e815260200180615f97602e913960400191505060405180910390fd5b61578e82612cdc565b6157e3576040517f08c379a000000000000000000000000000000000000000000000000000000000815260040180806020018281038252602d81526020018061610f602d913960400191505060405180910390fd5b6000600660008473ffffffffffffffffffffffffffffffffffffffff1673ffffffffffffffffffffffffffffffffffffffff16815260200190815260200160002060030160026101000a81548160ff0219169083151502179055507f227cbae91e983df06bd1200d744f04513fee47cfd847092fa7f5c8c1ad62208182600660008573ffffffffffffffffffffffffffffffffffffffff1673ffffffffffffffffffffffffffffffffffffffff16815260200190815260200160002060000154600660008673ffffffffffffffffffffffffffffffffffffffff1673ffffffffffffffffffffffffffffffffffffffff16815260200190815260200160002060010160009054906101000a900467ffffffffffffffff163385604051808673ffffffffffffffffffffffffffffffffffffffff1681526020018581526020018467ffffffffffffffff1681526020018373ffffffffffffffffffffffffffffffffffffffff1681526020018260ff1681526020019550505050505060405180910390a15050565b600033905090565b6001600660008473ffffffffffffffffffffffffffffffffffffffff1673ffffffffffffffffffffffffffffffffffffffff16815260200190815260200160002060030160026101000a81548160ff0219169083151502179055507fca968621fb765ebc0063732949287ab2f87e93949cbb9adea1cc88bba7576dea82600660008573ffffffffffffffffffffffffffffffffffffffff1673ffffffffffffffffffffffffffffffffffffffff16815260200190815260200160002060000154600660008673ffffffffffffffffffffffffffffffffffffffff1673ffffffffffffffffffffffffffffffffffffffff16815260200190815260200160002060010160009054906101000a900467ffffffffffffffff163385604051808673ffffffffffffffffffffffffffffffffffffffff1681526020018581526020018467ffffffffffffffff1681526020018373ffffffffffffffffffffffffffffffffffffffff1681526020018260ff1681526020019550505050505060405180910390a15050565b600080600860008467ffffffffffffffff1667ffffffffffffffff168152602001908152602001600020541415615b6557600460008154600101919050819055600860008467ffffffffffffffff1667ffffffffffffffff168152602001908152602001600020819055505b600860008367ffffffffffffffff1667ffffffffffffffff168152602001908152602001600020549050919050565b828054600181600116156101000203166002900490600052602060002090601f016020900481019282601f10615bd557805160ff1916838001178555615c03565b82800160010185558215615c03579182015b82811115615c02578251825591602001919060010190615be7565b5b509050615c109190615c73565b5090565b6040518060e0016040528060008152602001600067ffffffffffffffff1681526020016060815260200160006005811115615c4b57fe5b815260200160006001811115615c5d57fe5b8152602001600015158152602001600081525090565b5b80821115615c8c576000816000905550600101615c74565b509056fe4ec3a36f20706f64652070617573617220636f6e7461206465206f7574726f2041444d494e4120636f6e74612070726563697361206573746172206e6f2065737461646f20416775617264616e646f2056616c696461c3a7c3a36f456e64657265c3a76f206465766520706f646520746572207369646f206361646173747261646f20616e746572696f726d656e74654f776e61626c653a206e6577206f776e657220697320746865207a65726f2061646472657373412061c3a7c3a36f2073c3b320706f646520736572206578656375746164612070656c6120636f6e746120726573706f6e73c3a176656c2070656c6120746f6d61722061c3a7c3b56573206465636f7272656e746573206465206d6f6e69746f7261c3a7c3a36f4170656e617320636f6e746173206ec3a36f20706175736164617320706f64656d2065786563757461722065737461206f70657261c3a7c3a36f536f6d656e746520636f6e7461206465206d65736d61206f7267616e697a61c3a7c3a36f20706f646520657865637574617220657374612061c3a7c3a36f536f6d656e746520706f6465207265746972617220706175736120646520756d6120636f6e7461207175656d20666f72206461206d65736d61206f7267616e697a61c3a7c3a36f4120636f6e7461206ec3a36f20706f6465207365722076616c696461646120706f7271756520657374c3a120706175736164614ec3a36f20706f646520696e76616c6964617220636f6e7461206465206f7574726f2041444d494e436f6e74617320696e76c3a16c69646173206ec3a36f20706f64656d20736572207061757361646173556d6120706573736f61206ec3a36f20c3a920636170617a2064652072657469726172206f20706175736520646520737561207072c3b37072696120636f6e74614170656e617320636f6e74617320636f6d206465636c617261c3a7c3b565732063756a6f7320636572746966696361646f732061696e64612073c3a36f2076c3a16c69646f7320706f64656d2065786563757461722065737461206f70657261c3a7c3a36f436f6e74617320696e76c3a16c69646173206ec3a36f20706f64656d2073657220726574697261722070617573614120636f6e746120666f6920696e76616c6964616461207072657669616d656e74652e4170656e617320636f6e7461732076616c69646164617320706f64656d2065786563757461722065737461206f70657261c3a7c3a36f4f2068617368206461206465636c617261c3a7c3a36f20c3a920696e76c3a16c69646f4120636f6e7461207072656369736120657374617220656d2065737461646f20416775617264616e646f2056616c696461c3a7c3a36f4120636f6e7461206ec3a36f20706f6465207365722076616c696461646120706f7271756520657374c3a12065787069726164614120636f6e7461207072656369736120657374617220656d2065737461646f20416775617264616e646f4170656e617320636f6e746173206461206d65736d61206f7267616e697a6163616f20706f64656d2073657220696e76616c6964616461732e20536f6d656e746520756d6120636f6e7461207061757361646120706f64652073657220646573706175736164614f20726573706f6e73c3a176656c2070656c612076616c696461c3a7c3a36f206465766520736572206461206d65736d61206f7267616e697a61c3a7c3a36f20286d65736d6f20434e504a29412061c3a7c3a36f2073c3b320706f646520736572206578656375746164612070656c6120636f6e746120726573706f6e73c3a176656c2070656c61207072c3a92d76616c696461c3a7c3a36f456e64657265c3a76f206ec3a36f20706f646520746572207369646f20696e76616c696461646f456e64657265c3a76f206ec3a36f20706f646520746572207369646f206361646173747261646f20616e746572696f726d656e74654120636f6e746120612076616c69646172206465766520746572206f20706170656c2064652041444d494e412061c3a7c3a36f2073c3b320706f646520736572206578656375746164612070656c6120636f6e746120726573706f6e73c3a176656c2070656c612076616c696461c3a7c3a36f4f20726573706f6e73c3a176656c2070656c612076616c696461c3a7c3a36f206465766520746572206f20706170656c2041444d494e4f20757375c3a172696f2061207365722076616c696461646f206465766520746572206f20706170656c20524547554c4152536f6d656e746520756d6120636f6e74612041444d494e20706f646520657865637574617220657374612061c3a7c3a36f41206f7267616e697a61c3a7c3a36f206ec3a36f20657374c3a1206f7065726163696f6e616ca2646970667358221220f733daf7fd05aa18f77cab7f42d7d1b13951b27422009cac8316eac8a126e17264736f6c634300060c0033",
  "immutableReferences": {},
  "source": "pragma solidity ^0.6.0;\n\nimport \"@openzeppelin/contracts/access/Ownable.sol\";\nimport \"./IRBBRegistry.sol\";\n\ncontract RBBRegistry is IRBBRegistry, Ownable() {\n\n    enum BlockchainAccountState {AVAILABLE,WAITING_VALIDATION,WAITING_APPROVAL,WAITING_REJECTION,VALIDATED,INVALIDATED}\n    BlockchainAccountState blockchainState; /* Variable not used, only defined to create the enum type. */\n      \n    /**\n    REGULAR  - operates \n    ADMIN    - validates the regular.\n     */\n    enum BlockchainAccountRole {REGULAR, ADMIN} \n    BlockchainAccountRole blockchainRole;  /* Variable not used, only defined to create the enum type. */\n\n    //Ativao/inativao de Registries no processo usual (pode ser via um processo automatizado) \n    address public responsibleForRegistryPreValidation;\n    address public responsibleForRegistryValidation;\n\n    //Inativao e pause/unpause decorrente de eventos no previstos (por exemplo, um comportamento inadequado de um Registry) \n    address public responsibleForActingAfterMonitoring;\n\n    /* This is a helper variable to emulate a sequence and autoincrement Ids*/\n    uint public currentRBBId = 0;\n\n     /**\n        This registry is about a company representative information\n     */    \n    struct Registry {\n        uint RBBId; //uma proxy para o CNPJ\n        uint64 CNPJ; //Brazilian identification of legal entity\n        string hashProof; //hash of declaration\n        BlockchainAccountState state;\n        BlockchainAccountRole role;\n        bool paused;\n        uint256 dateTimeExpiration; //vai ser outro momento de expirao diferente do ECNPJ\n    }\n\n    uint256 public defaultDeltaDateTimeExpiration = 365 days; \n\n    /**\n        Links Ethereum addresses to Registry\n     */\n    mapping(address => Registry) public legalEntitiesInfo;\n\n    /**\n        Links RBBID to Ethereum addresses.\n     */\n    mapping(uint => address[]) public RBBId_addresses;\n    \n    /**\n     * Links CNPJ to its RBBID\n     */\n    mapping (uint64 => uint) public CNPJ_RBBId;\n\n    //responsible is the msg.sender\n    event AccountRegistration       (address addr, uint RBBId, uint64 CNPJ, string hashProof, uint256 dateTimeExpiration);\n    event AccountWaitingApproval    (address addr, uint RBBId, uint64 CNPJ, address responsible);\n    event AccountWaitingRejection   (address addr, uint RBBId, uint64 CNPJ, address responsible);\n    event AccountValidation         (address addr, uint RBBId, uint64 CNPJ, address responsible);\n    event AccountInvalidation       (address addr, uint RBBId, uint64 CNPJ, address responsible, uint8 reason);\n    event AccountPaused             (address addr, uint RBBId, uint64 CNPJ, address responsible, uint8 reason);\n    event AccountUnpaused           (address addr, uint RBBId, uint64 CNPJ, address responsible, uint8 reason);\n    event AccountRoleChange         (address addr, uint RBBId, uint64 CNPJ, address responsible, BlockchainAccountRole roleBefore, BlockchainAccountRole roleNew);\n    event AccountReactivation       (address addr, string hashProof, uint256 dateTimeExpiration);\n\n    event RegistryExpirationChange  (address addr, uint256 dateTimeExpirationBefore, uint256 dateTimeExpirationNew);\n\n    event RoleDefinitionRegistryPreValidation(address rs);\n    event RoleDefinitionRegistryValidation(address rs);\n    event RoleDefinitionActingAfterMonitoring(address rs);\n\n\n    constructor () public {                \n        responsibleForRegistryPreValidation = msg.sender;\n        responsibleForRegistryValidation = msg.sender;\n        responsibleForActingAfterMonitoring = msg.sender;         \n    }\n\n    function setResponsibleForRegistryPreValidation(address rs) onlyOwner public {\n        responsibleForRegistryPreValidation = rs;\n        emit RoleDefinitionRegistryPreValidation(rs);\n    }    \n    function setResponsibleForRegistryValidation(address rs) onlyOwner public {\n        responsibleForRegistryValidation = rs;\n        emit RoleDefinitionRegistryValidation(rs);\n    }    \n    function setResponsibleForActingAfterMonitoring(address rs) onlyOwner public {\n        responsibleForActingAfterMonitoring = rs;\n        emit RoleDefinitionActingAfterMonitoring(rs);\n    }  \n    \n    modifier onlyByResponsibleForRegistryPreValidation() { \n        require( responsibleForRegistryPreValidation==msg.sender , \"A ao s pode ser executada pela conta responsvel pela pr-validao\" );\n        _;\n    }\n\n    modifier onlyByResponsibleForRegistryValidation() { \n        require( responsibleForRegistryValidation==msg.sender , \"A ao s pode ser executada pela conta responsvel pela validao\" );\n        _;\n    }\n\n    modifier onlyByResponsibleForActingAfterMonitoring() { \n        require( responsibleForActingAfterMonitoring==msg.sender , \"A ao s pode ser executada pela conta responsvel pela tomar aes decorrentes de monitorao\" );\n        _;\n    }\n\n    modifier onlyIfSenderIsOk() { \n        require( ! isPaused(msg.sender), \"Apenas contas no pausadas podem executar esta operao\" );\n        require( isExpired(msg.sender), \"Apenas contas com declaraes cujos certificados ainda so vlidos podem executar esta operao\" );\n        require( isValidatedAccount(msg.sender), \"Apenas contas validadas podem executar esta operao\" );\n        _;\n    }\n    \n    function registryLegalEntityForRegularAccounts(uint64 CNPJ_RBBId) public {\n        registryLegalEntity(CNPJ_RBBId, \"0\");\n    }\n    \n   /**\n    * Self Registering\n    * Link blockchain address with CNPJ\n    * @param CNPJ Brazilian identifier to legal entities\n    * @param proofHash The legal entities have to send BNDES a PDF where it assumes as responsible for an Ethereum account.\n    *                   This PDF is signed with eCNPJ and send to BNDES.\n    */\n    function registryLegalEntity(uint64 CNPJ, string memory proofHash) public {\n        \n        address addr = msg.sender;\n\n        require (isAvailableAccount(addr), \"Endereo no pode ter sido cadastrado anteriormente\");\n\n        uint256 dateTimeExpiration = now + defaultDeltaDateTimeExpiration;\n        uint RBBId = calculaProximoRBBID(CNPJ);\n\n\n        if ( keccak256(bytes(proofHash)) == keccak256(bytes(\"0\")) ) { \n            legalEntitiesInfo[addr] = Registry( RBBId,\n                                                CNPJ, \n                                                proofHash, \n                                                BlockchainAccountState.WAITING_VALIDATION, \n                                                BlockchainAccountRole.REGULAR,\n                                                false,\n                                                dateTimeExpiration );\n        } else {\n    \n            require (isValidHash(proofHash), \"O hash da declarao  invlido\");\n\n            legalEntitiesInfo[addr] = Registry( RBBId,\n                                                CNPJ, \n                                                proofHash, \n                                                BlockchainAccountState.WAITING_VALIDATION, \n                                                BlockchainAccountRole.ADMIN,\n                                                false,\n                                                dateTimeExpiration );\n        }\n\n        RBBId_addresses[RBBId].push(addr);\n        string memory proof = proofHash;\n        emit AccountRegistration(addr, RBBId, CNPJ, proof, dateTimeExpiration);\n    }\n\n    /**\n    * Validates the initial registry of others LegalEntities\n    * @param userAddr Ethereum address that needs to be validated\n    */\n    function preValidateRegistry(address userAddr, bool approval) public onlyByResponsibleForRegistryPreValidation {\n\n        address responsible = msg.sender;\n        \n        require( legalEntitiesInfo[userAddr].state == BlockchainAccountState.WAITING_VALIDATION, \n                \"A conta precisa estar em estado Aguardando Validao\");\n\n        require ( isAdmin(userAddr), \"A conta a validar deve ter o papel de ADMIN\" );\n\n        require (!isPaused(userAddr), \"A conta no pode ser validada porque est pausada\"); \n\n        require (!isExpired(userAddr), \"A conta no pode ser validada porque est expirada\");\n\n        if ( approval ) {\n            legalEntitiesInfo[userAddr].state = BlockchainAccountState.WAITING_APPROVAL;\n            emit AccountWaitingApproval(    userAddr, \n                                            legalEntitiesInfo[userAddr].RBBId, \n                                            legalEntitiesInfo[userAddr].CNPJ, \n                                            responsible );\n        }\n        else {\n            legalEntitiesInfo[userAddr].state = BlockchainAccountState.WAITING_REJECTION;\n            emit AccountWaitingRejection(   userAddr, \n                                            legalEntitiesInfo[userAddr].RBBId, \n                                            legalEntitiesInfo[userAddr].CNPJ, \n                                            responsible );\n        }\n    }\n    \n\n   /**\n    * Validates the initial registry of your own LegalEntity\n    * @param userAddr Ethereum address that needs to be validated\n    */\n    function validateRegistrySameOrg(address userAddr) public onlyIfSenderIsOk {\n\n        address responsible = msg.sender;\n\n        require ( isAdmin(responsible), \"O responsvel pela validao deve ter o papel ADMIN\" );\n\n        require( legalEntitiesInfo[userAddr].state == BlockchainAccountState.WAITING_VALIDATION, \n                \"A conta precisa estar em estado Aguardando Validao\");\n\n        require (!isPaused(userAddr), \"A conta no pode ser validada porque est pausada\"); \n\n        require (!isExpired(userAddr), \"A conta no pode ser validada porque est expirada\");\n\n        require ( legalEntitiesInfo[userAddr].role == BlockchainAccountRole.REGULAR, \n                   \"O usurio a ser validado deve ter o papel REGULAR\" );\n\n        require ( isTheSameID(responsible, userAddr) , \n                   \"O responsvel pela validao deve ser da mesma organizao (mesmo CNPJ)\" );                   \n\n        legalEntitiesInfo[userAddr].state = BlockchainAccountState.VALIDATED;\n\n        emit AccountValidation( userAddr, \n                                legalEntitiesInfo[userAddr].RBBId, \n                                legalEntitiesInfo[userAddr].CNPJ, \n                                responsible);\n    }\n\n    /**\n    * Validates the initial registry of others LegalEntities\n    * @param userAddr Ethereum address that needs to be validated\n    */\n    function validateRegistry(address userAddr) public onlyByResponsibleForRegistryValidation {\n\n        address responsible = msg.sender;\n\n        require( isWaitingAccount(userAddr), \"A conta precisa estar em estado Aguardando\");\n\n        require (!isPaused(userAddr), \"A conta no pode ser validada porque est pausada\"); \n\n        require (!isExpired(userAddr), \"A conta no pode ser validada porque est expirada\");\n\n        require ( isAdmin(userAddr), \"A conta a validar deve ter o papel de ADMIN\" );\n        \n        legalEntitiesInfo[userAddr].state = BlockchainAccountState.VALIDATED;\n\n        emit AccountValidation( userAddr, \n                                legalEntitiesInfo[userAddr].RBBId, \n                                legalEntitiesInfo[userAddr].CNPJ, \n                                responsible);\n    }   \n\n\n     /**\n    * Pause an account     \n    * @param addr Ethereum address that needs to be paused\n    */\n    function pauseAddressSameOrg(address addr) public onlyIfSenderIsOk {\n\n        address responsible = msg.sender;\n\n        require (!isInvalidated(addr), \"Contas invlidas no podem ser pausadas\");\n        require (!isPaused(addr), \"Conta j est pausada\");\n        require( isTheSameID(responsible, addr), \"Somente conta de mesma organizao pode executar esta ao\" );\n\n        require ((addr==responsible || isAdmin(responsible)), \"No pode pausar conta de outro ADMIN\");\n\n        pauseAddressInternal (addr, 1);\n\n    }\n\n    function pauseAddressAfterMonitoring(address addr) public onlyByResponsibleForActingAfterMonitoring {\n\n        require (!isInvalidated(addr), \"Contas invlidas no podem ser pausadas\");\n        require (!isPaused(addr), \"Conta j est pausada\");\n\n        pauseAddressInternal (addr, 2);\n    }\n\n    function pauseAddressInternal(address addr, uint8 reason) internal {\n\n        legalEntitiesInfo[addr].paused = true;\n        \n        emit AccountPaused( addr, \n                            legalEntitiesInfo[addr].RBBId,\n                            legalEntitiesInfo[addr].CNPJ, \n                            msg.sender,\n                            reason);\n    }\n\n\n    function pauseLegalEntitySameOrg(uint RBBId) public onlyIfSenderIsOk {\n\n        address responsible = msg.sender;\n        address[] memory addresses  = RBBId_addresses[RBBId];\n\n        require( isTheSameID(responsible, addresses[0]), \n                \"Somente conta de mesma organizao pode executar esta ao\" );\n\n        for (uint i=0; i < addresses.length ; i++) {\n            address candidate = addresses[i];\n            if( !isInvalidated(candidate) &&\n                !isPaused(candidate) ) {\n                pauseAddressInternal (candidate, 3);\n            }\n        }\n    }\n\n\n    function pauseLegalEntityAfterMonitoring(uint RBBId) public onlyByResponsibleForActingAfterMonitoring {\n\n        address[] memory addresses  = RBBId_addresses[RBBId];\n\n        for (uint i=0; i < addresses.length ; i++) {\n            address candidate = addresses[i];\n            if( !isInvalidated(candidate) &&\n                !isPaused(candidate) ) {\n                pauseAddressInternal (candidate, 4);\n            }\n        }   \n    }\n\n\n    /**\n    * Unpause an account     \n    * @param addr Ethereum address that needs to be validated\n    */\n    function unpauseAddressSameOrg(address addr) public onlyIfSenderIsOk {\n\n        address responsible = msg.sender;\n\n        require( isAdmin(addr) , \"Somente uma conta ADMIN pode executar esta ao\" );\n\n        require ( responsible != addr , \"Uma pessoa no  capaz de retirar o pause de sua prpria conta\");\n        require( isTheSameID(responsible, addr), \n                    \"Somente pode retirar pausa de uma conta quem for da mesma organizao\" );\n        \n        unpauseAddressInternal(addr, 1);        \n        \n    }\n\n    function unpauseAddressAfterMonitoring(address addr) public onlyByResponsibleForActingAfterMonitoring {\n        unpauseAddressInternal(addr,2);        \n    }\n\n    function unpauseAddressInternal(address addr, uint8 reason) internal {\n\n        require (!isInvalidated(addr), \"Contas invlidas no podem ser retirar pausa\");\n        require( isPaused(addr)  , \"Somente uma conta pausada pode ser despausada\" ); \n\n        legalEntitiesInfo[addr].paused = false;\n        \n        emit AccountUnpaused(   addr, \n                                legalEntitiesInfo[addr].RBBId,\n                                legalEntitiesInfo[addr].CNPJ, \n                                msg.sender,\n                                reason);\n    }\n\n\n   /**\n    * Invalidates the initial registry of a legal entity or the change of its registry\n    * The invalidation can be called at any time in the lifecycle of the address (not only when it is WAITING_VALIDATION)\n    * @param addr Ethereum address that needs to be validated\n    */\n    function invalidateRegistrySameOrg(address addr) public onlyIfSenderIsOk {\n\n        address responsible = msg.sender;\n\n        require( !isInvalidated(addr), \"A conta foi invalidada previamente.\" );\n\n        require( isTheSameID(responsible, addr) , \"Apenas contas da mesma organizacao podem ser invalidadas. \");\n\n        require ((addr==responsible || isAdmin(responsible)), \"No pode invalidar conta de outro ADMIN\");\n\n        invalidateRegistryInternal(addr, 1);\n\n    }\n\n    function invalidateRegistry(address addr) public onlyByResponsibleForRegistryValidation {\n\n        require(isWaitingAccount(addr), \"A conta precisa estar no estado Aguardando Validao\");\n\n        require( isAdmin(addr), \"Invalida apenas conta ADMIN\");\n\n        invalidateRegistryInternal(addr, 2);\n\n    }\n\n\n    function invalidateRegistryAfterMonitoring(address addr) public onlyByResponsibleForActingAfterMonitoring {\n\n        require( !isInvalidated(addr), \"A conta foi invalidada previamente.\" );\n        \n        invalidateRegistryInternal(addr, 3);\n    }\n\n    function invalidateRegistryInternal(address addr, uint8 reason) internal {\n\n        legalEntitiesInfo[addr].state = BlockchainAccountState.INVALIDATED;\n        \n        emit AccountInvalidation(   addr, \n                                    legalEntitiesInfo[addr].RBBId, \n                                    legalEntitiesInfo[addr].CNPJ, \n                                    msg.sender,\n                                    reason );\n    \n    }\n\n    function reactiveLegalEntity(string memory hashProof) public {\n        \n        address addr = msg.sender;\n\n        require (isValidHash(hashProof), \"O hash da declarao  invlido\");\n        require (!isAvailableAccount(addr), \"Endereo deve pode ter sido cadastrado anteriormente\");\n        require (!isInvalidated(addr), \"Endereo no pode ter sido invalidado\");\n\n        uint256 dateTimeExpiration = now + defaultDeltaDateTimeExpiration;\n\n        legalEntitiesInfo[addr].hashProof = hashProof;\n        legalEntitiesInfo[addr].state = BlockchainAccountState.WAITING_VALIDATION;\n        legalEntitiesInfo[addr].dateTimeExpiration = dateTimeExpiration;\n        legalEntitiesInfo[addr].paused = false;\n\n        emit AccountReactivation(addr, hashProof, dateTimeExpiration);\n    }\n\n    /**\n    * The Owner can assign new default expiration time for future registries\n    * @param deltaDateTimeExpirationNew the new default expiration time \n    */\n    function setDefaultDeltaDateTimeExpiration(uint256 deltaDateTimeExpirationNew) onlyOwner public {\n\n        uint256 defaultDeltaDateTimeExpirationOld = defaultDeltaDateTimeExpiration;\n        defaultDeltaDateTimeExpiration = deltaDateTimeExpirationNew;\n        \n        emit RegistryExpirationChange(   msg.sender, \n                                         defaultDeltaDateTimeExpirationOld, \n                                         defaultDeltaDateTimeExpiration );        \n    }\n\n    function calculaProximoRBBID(uint64 CNPJ) private returns (uint) {\n\n        if ( CNPJ_RBBId[CNPJ] == 0 ) //se nao existir rbbid para este CNPJ\n            CNPJ_RBBId[CNPJ] = ++currentRBBId;\n\n        return CNPJ_RBBId[CNPJ];\n    } \n\n   function isValidHash(string memory str) pure public returns (bool)  {\n\n        bytes memory b = bytes(str);\n        if(b.length != 64) return false;\n\n        for (uint i=0; i<64; i++) {\n            if (b[i] < \"0\") return false;\n            if (b[i] > \"9\" && b[i] <\"a\") return false;\n            if (b[i] > \"f\") return false;\n        }\n            \n        return true;\n    }\n\n\n    function isOperational(address addr) public view returns (bool) {\n        return isValidatedAccount(addr) && !isPaused(addr) && !isExpired(addr);\n    }\n\n    function isRegistryOperational(uint RBBId) public view override returns (bool) {\n        address[] memory addresses  = RBBId_addresses[RBBId];\n\n        for (uint i=0; i < addresses.length ; i++) {\n            if ( isOperational( addresses[i] ) && isAdmin(addresses[i]) ) {\n                    return true;\n            }\n        }\n    }\n\n    function getId (address addr) public view override returns (uint) {\n        uint RBBId = getRBBIdRaw(addr);\n        require ( isRegistryOperational( RBBId ) , \"A organizao no est operacional\" );\n        return RBBId;\n    }    \n\n    function isExpired (address addr) public view returns (bool) {\n        return (legalEntitiesInfo[addr].dateTimeExpiration < now);\n    }\n\n    function isOwner(address addr) public view returns (bool) {\n        return owner()==addr;\n    }\n\n    function isAvailableAccount(address addr) public view returns (bool) {\n        return legalEntitiesInfo[addr].state == BlockchainAccountState.AVAILABLE;\n    }\n\n    function isWaitingAccount(address addr) public view returns (bool) {\n        return legalEntitiesInfo[addr].state == BlockchainAccountState.WAITING_VALIDATION\n            || legalEntitiesInfo[addr].state == BlockchainAccountState.WAITING_APPROVAL\n            || legalEntitiesInfo[addr].state == BlockchainAccountState.WAITING_REJECTION ;\n    }\n\n    function isValidatedAccount(address addr) public view returns (bool) {\n        return legalEntitiesInfo[addr].state == BlockchainAccountState.VALIDATED;\n    }\n\n    function isInvalidated(address addr) public view returns (bool) {\n        return legalEntitiesInfo[addr].state == BlockchainAccountState.INVALIDATED;\n    }\n\n    function isTheSameID(address a, address b) public view returns (bool) {\n        return legalEntitiesInfo[a].CNPJ == legalEntitiesInfo[b].CNPJ ;\n    }\n\n    function isPaused(address addr) public view returns (bool) {\n        return legalEntitiesInfo[addr].paused;\n    }\n\n    function isAdmin(address addr) public view returns (bool) { \n        return legalEntitiesInfo[addr].role == BlockchainAccountRole.ADMIN;\n    }\n\n    function getRBBIdRaw (address addr) public view returns (uint) {\n        return legalEntitiesInfo[addr].RBBId;\n    }\n\n    function getCNPJ (address addr) public view returns (uint64) {\n        return legalEntitiesInfo[addr].CNPJ;\n    }    \n    \n    function getRegistry (address addr) public view override returns (uint, uint64, string memory, uint, uint, bool, uint256) {\n        Registry memory reg = legalEntitiesInfo[addr];\n        string memory proof = reg.hashProof;\n        return (  reg.RBBId,\n                  reg.CNPJ, \n                  proof, \n                  (uint) (reg.state),\n                  (uint) (reg.role),\n                  reg.paused,\n                  reg.dateTimeExpiration\n                );\n    }\n\n    function getBlockchainAccounts(uint RBBId) public view returns (address[] memory) {\n        return RBBId_addresses[RBBId];\n    }\n\n    function getAccountState(address addr) public view returns (int) {\n        return ((int) (legalEntitiesInfo[addr].state));\n    }\n\n    function getAccountRole(address addr) public view returns (int) {\n        return ((int) (legalEntitiesInfo[addr].role));\n    }\n\n    function getIdFromCNPJ(uint64 cnpj) public view override returns (uint) {\n        return CNPJ_RBBId[cnpj];\n    }\n\n    function getCNPJbyID(uint Id) public view override returns (uint64 ) {\n        address addr =RBBId_addresses[Id][0];    \n        return legalEntitiesInfo[addr].CNPJ;\n    }\n \n\n\n}\n",
  "sourcePath": "/Users/suzana.moreno/workspace/rbb-identificacao/Back-Blockchain/contracts/RBBRegistry.sol",
  "compiler": {
    "name": "solc",
    "version": "0.6.12+commit.27d51765.Emscripten.clang"
  },
  "schemaVersion": "3.2.5",
  "updatedAt": "2021-03-08T20:34:36.268Z",
  "devdoc": {
    "kind": "dev",
    "methods": {
      "invalidateRegistrySameOrg(address)": {
        "params": {
          "addr": "Ethereum address that needs to be validated"
        }
      },
      "owner()": {
        "details": "Returns the address of the current owner."
      },
      "pauseAddressSameOrg(address)": {
        "params": {
          "addr": "Ethereum address that needs to be paused"
        }
      },
      "preValidateRegistry(address,bool)": {
        "params": {
          "userAddr": "Ethereum address that needs to be validated"
        }
      },
      "registryLegalEntity(uint64,string)": {
        "params": {
          "CNPJ": "Brazilian identifier to legal entities",
          "proofHash": "The legal entities have to send BNDES a PDF where it assumes as responsible for an Ethereum account.                   This PDF is signed with eCNPJ and send to BNDES."
        }
      },
      "renounceOwnership()": {
        "details": "Leaves the contract without owner. It will not be possible to call `onlyOwner` functions anymore. Can only be called by the current owner. NOTE: Renouncing ownership will leave the contract without an owner, thereby removing any functionality that is only available to the owner."
      },
      "setDefaultDeltaDateTimeExpiration(uint256)": {
        "params": {
          "deltaDateTimeExpirationNew": "the new default expiration time "
        }
      },
      "transferOwnership(address)": {
        "details": "Transfers ownership of the contract to a new account (`newOwner`). Can only be called by the current owner."
      },
      "unpauseAddressSameOrg(address)": {
        "params": {
          "addr": "Ethereum address that needs to be validated"
        }
      },
      "validateRegistry(address)": {
        "params": {
          "userAddr": "Ethereum address that needs to be validated"
        }
      },
      "validateRegistrySameOrg(address)": {
        "params": {
          "userAddr": "Ethereum address that needs to be validated"
        }
      }
    },
    "version": 1
  },
  "userdoc": {
    "kind": "user",
    "methods": {
      "CNPJ_RBBId(uint64)": {
        "notice": "Links CNPJ to its RBBID"
      },
      "RBBId_addresses(uint256,uint256)": {
        "notice": "Links RBBID to Ethereum addresses."
      },
      "invalidateRegistrySameOrg(address)": {
        "notice": "Invalidates the initial registry of a legal entity or the change of its registry The invalidation can be called at any time in the lifecycle of the address (not only when it is WAITING_VALIDATION)"
      },
      "legalEntitiesInfo(address)": {
        "notice": "Links Ethereum addresses to Registry"
      },
      "pauseAddressSameOrg(address)": {
        "notice": "Pause an account     "
      },
      "preValidateRegistry(address,bool)": {
        "notice": "Validates the initial registry of others LegalEntities"
      },
      "registryLegalEntity(uint64,string)": {
        "notice": "Self Registering Link blockchain address with CNPJ"
      },
      "setDefaultDeltaDateTimeExpiration(uint256)": {
        "notice": "The Owner can assign new default expiration time for future registries"
      },
      "unpauseAddressSameOrg(address)": {
        "notice": "Unpause an account     "
      },
      "validateRegistry(address)": {
        "notice": "Validates the initial registry of others LegalEntities"
      },
      "validateRegistrySameOrg(address)": {
        "notice": "Validates the initial registry of your own LegalEntity"
      }
    },
    "version": 1
  }
}