{
  "contractName": "RBBRegistry",
  "abi": [
    {
      "constant": true,
      "inputs": [
        {
          "name": "",
          "type": "address"
        }
      ],
      "name": "legalEntitiesInfo",
      "outputs": [
        {
          "name": "id",
          "type": "uint256"
        },
        {
          "name": "idProofHash",
          "type": "string"
        },
        {
          "name": "state",
          "type": "uint8"
        }
      ],
      "payable": false,
      "stateMutability": "view",
      "type": "function"
    },
    {
      "constant": false,
      "inputs": [],
      "name": "renounceOwnership",
      "outputs": [],
      "payable": false,
      "stateMutability": "nonpayable",
      "type": "function"
    },
    {
      "constant": true,
      "inputs": [],
      "name": "owner",
      "outputs": [
        {
          "name": "",
          "type": "address"
        }
      ],
      "payable": false,
      "stateMutability": "view",
      "type": "function"
    },
    {
      "constant": false,
      "inputs": [
        {
          "name": "newOwner",
          "type": "address"
        }
      ],
      "name": "transferOwnership",
      "outputs": [],
      "payable": false,
      "stateMutability": "nonpayable",
      "type": "function"
    },
    {
      "inputs": [
        {
          "name": "idResposibleForValidation",
          "type": "uint256"
        }
      ],
      "payable": false,
      "stateMutability": "nonpayable",
      "type": "constructor"
    },
    {
      "anonymous": false,
      "inputs": [
        {
          "indexed": false,
          "name": "addr",
          "type": "address"
        },
        {
          "indexed": false,
          "name": "id",
          "type": "uint256"
        },
        {
          "indexed": false,
          "name": "idProofHash",
          "type": "string"
        }
      ],
      "name": "AccountRegistration",
      "type": "event"
    },
    {
      "anonymous": false,
      "inputs": [
        {
          "indexed": false,
          "name": "oldAddr",
          "type": "address"
        },
        {
          "indexed": false,
          "name": "newAddr",
          "type": "address"
        },
        {
          "indexed": false,
          "name": "id",
          "type": "uint256"
        },
        {
          "indexed": false,
          "name": "idProofHash",
          "type": "string"
        }
      ],
      "name": "AccountChange",
      "type": "event"
    },
    {
      "anonymous": false,
      "inputs": [
        {
          "indexed": false,
          "name": "addr",
          "type": "address"
        },
        {
          "indexed": false,
          "name": "id",
          "type": "uint256"
        }
      ],
      "name": "AccountValidation",
      "type": "event"
    },
    {
      "anonymous": false,
      "inputs": [
        {
          "indexed": false,
          "name": "addr",
          "type": "address"
        },
        {
          "indexed": false,
          "name": "id",
          "type": "uint256"
        }
      ],
      "name": "AccountInvalidation",
      "type": "event"
    },
    {
      "anonymous": false,
      "inputs": [
        {
          "indexed": true,
          "name": "previousOwner",
          "type": "address"
        },
        {
          "indexed": true,
          "name": "newOwner",
          "type": "address"
        }
      ],
      "name": "OwnershipTransferred",
      "type": "event"
    },
    {
      "constant": false,
      "inputs": [
        {
          "name": "cnpj",
          "type": "uint256"
        },
        {
          "name": "idProofHash",
          "type": "string"
        }
      ],
      "name": "registryLegalEntity",
      "outputs": [],
      "payable": false,
      "stateMutability": "nonpayable",
      "type": "function"
    },
    {
      "constant": false,
      "inputs": [
        {
          "name": "cnpj",
          "type": "uint256"
        },
        {
          "name": "newAddr",
          "type": "address"
        },
        {
          "name": "idProofHash",
          "type": "string"
        }
      ],
      "name": "changeAccountLegalEntity",
      "outputs": [],
      "payable": false,
      "stateMutability": "nonpayable",
      "type": "function"
    },
    {
      "constant": false,
      "inputs": [
        {
          "name": "addr",
          "type": "address"
        }
      ],
      "name": "validateRegistryLegalEntity",
      "outputs": [],
      "payable": false,
      "stateMutability": "nonpayable",
      "type": "function"
    },
    {
      "constant": false,
      "inputs": [
        {
          "name": "addr",
          "type": "address"
        }
      ],
      "name": "invalidateRegistryLegalEntity",
      "outputs": [],
      "payable": false,
      "stateMutability": "nonpayable",
      "type": "function"
    },
    {
      "constant": false,
      "inputs": [
        {
          "name": "rs",
          "type": "address"
        }
      ],
      "name": "setResponsibleForRegistryValidation",
      "outputs": [],
      "payable": false,
      "stateMutability": "nonpayable",
      "type": "function"
    },
    {
      "constant": true,
      "inputs": [
        {
          "name": "addr",
          "type": "address"
        }
      ],
      "name": "isResponsibleForRegistryValidation",
      "outputs": [
        {
          "name": "",
          "type": "bool"
        }
      ],
      "payable": false,
      "stateMutability": "view",
      "type": "function"
    },
    {
      "constant": true,
      "inputs": [
        {
          "name": "addr",
          "type": "address"
        }
      ],
      "name": "isOwner",
      "outputs": [
        {
          "name": "",
          "type": "bool"
        }
      ],
      "payable": false,
      "stateMutability": "view",
      "type": "function"
    },
    {
      "constant": true,
      "inputs": [],
      "name": "isOwner",
      "outputs": [
        {
          "name": "",
          "type": "bool"
        }
      ],
      "payable": false,
      "stateMutability": "view",
      "type": "function"
    },
    {
      "constant": true,
      "inputs": [
        {
          "name": "addr",
          "type": "address"
        }
      ],
      "name": "isAvailableAccount",
      "outputs": [
        {
          "name": "",
          "type": "bool"
        }
      ],
      "payable": false,
      "stateMutability": "view",
      "type": "function"
    },
    {
      "constant": true,
      "inputs": [
        {
          "name": "addr",
          "type": "address"
        }
      ],
      "name": "isWaitingValidationAccount",
      "outputs": [
        {
          "name": "",
          "type": "bool"
        }
      ],
      "payable": false,
      "stateMutability": "view",
      "type": "function"
    },
    {
      "constant": true,
      "inputs": [
        {
          "name": "addr",
          "type": "address"
        }
      ],
      "name": "isValidatedAccount",
      "outputs": [
        {
          "name": "",
          "type": "bool"
        }
      ],
      "payable": false,
      "stateMutability": "view",
      "type": "function"
    },
    {
      "constant": true,
      "inputs": [
        {
          "name": "id",
          "type": "uint256"
        }
      ],
      "name": "isValidatedId",
      "outputs": [
        {
          "name": "",
          "type": "bool"
        }
      ],
      "payable": false,
      "stateMutability": "view",
      "type": "function"
    },
    {
      "constant": true,
      "inputs": [
        {
          "name": "addr",
          "type": "address"
        }
      ],
      "name": "isInvalidatedByValidatorAccount",
      "outputs": [
        {
          "name": "",
          "type": "bool"
        }
      ],
      "payable": false,
      "stateMutability": "view",
      "type": "function"
    },
    {
      "constant": true,
      "inputs": [
        {
          "name": "addr",
          "type": "address"
        }
      ],
      "name": "isInvalidatedByChangeAccount",
      "outputs": [
        {
          "name": "",
          "type": "bool"
        }
      ],
      "payable": false,
      "stateMutability": "view",
      "type": "function"
    },
    {
      "constant": true,
      "inputs": [],
      "name": "getResponsibleForRegistryValidation",
      "outputs": [
        {
          "name": "",
          "type": "address"
        }
      ],
      "payable": false,
      "stateMutability": "view",
      "type": "function"
    },
    {
      "constant": true,
      "inputs": [
        {
          "name": "addr",
          "type": "address"
        }
      ],
      "name": "getId",
      "outputs": [
        {
          "name": "",
          "type": "uint256"
        }
      ],
      "payable": false,
      "stateMutability": "view",
      "type": "function"
    },
    {
      "constant": true,
      "inputs": [
        {
          "name": "addr",
          "type": "address"
        }
      ],
      "name": "getLegalEntityInfo",
      "outputs": [
        {
          "name": "",
          "type": "uint256"
        },
        {
          "name": "",
          "type": "string"
        },
        {
          "name": "",
          "type": "uint256"
        },
        {
          "name": "",
          "type": "address"
        }
      ],
      "payable": false,
      "stateMutability": "view",
      "type": "function"
    },
    {
      "constant": true,
      "inputs": [
        {
          "name": "cnpj",
          "type": "uint256"
        }
      ],
      "name": "getBlockchainAccount",
      "outputs": [
        {
          "name": "",
          "type": "address"
        }
      ],
      "payable": false,
      "stateMutability": "view",
      "type": "function"
    },
    {
      "constant": true,
      "inputs": [
        {
          "name": "cnpj",
          "type": "uint256"
        }
      ],
      "name": "getLegalEntityInfoById",
      "outputs": [
        {
          "name": "",
          "type": "uint256"
        },
        {
          "name": "",
          "type": "string"
        },
        {
          "name": "",
          "type": "uint256"
        },
        {
          "name": "",
          "type": "address"
        }
      ],
      "payable": false,
      "stateMutability": "view",
      "type": "function"
    },
    {
      "constant": true,
      "inputs": [
        {
          "name": "addr",
          "type": "address"
        }
      ],
      "name": "getAccountState",
      "outputs": [
        {
          "name": "",
          "type": "int256"
        }
      ],
      "payable": false,
      "stateMutability": "view",
      "type": "function"
    },
    {
      "constant": false,
      "inputs": [
        {
          "name": "cnpj",
          "type": "uint256"
        }
      ],
      "name": "registryMock",
      "outputs": [],
      "payable": false,
      "stateMutability": "nonpayable",
      "type": "function"
    }
  ],
  "bytecode": "0x60806040523480156200001157600080fd5b5060405160208062002c58833981018060405260208110156200003357600080fd5b8101908080519060200190929190505050600062000056620002fb60201b60201c565b9050806000806101000a81548173ffffffffffffffffffffffffffffffffffffffff021916908373ffffffffffffffffffffffffffffffffffffffff1602179055508073ffffffffffffffffffffffffffffffffffffffff16600073ffffffffffffffffffffffffffffffffffffffff167f8be0079c531659141344cd1fd0a4f28419497f9722a3daafe3b4186f6b6457e060405160405180910390a35033600160006101000a81548173ffffffffffffffffffffffffffffffffffffffff021916908373ffffffffffffffffffffffffffffffffffffffff1602179055506040518060600160405280828152602001604051806020016040528060008152508152602001600260048111156200016957fe5b815250600260003373ffffffffffffffffffffffffffffffffffffffff1673ffffffffffffffffffffffffffffffffffffffff168152602001908152602001600020600082015181600001556020820151816001019080519060200190620001d392919062000303565b5060408201518160020160006101000a81548160ff02191690836004811115620001f957fe5b0217905550905050600160009054906101000a900473ffffffffffffffffffffffffffffffffffffffff166003600083815260200190815260200160002060006101000a81548173ffffffffffffffffffffffffffffffffffffffff021916908373ffffffffffffffffffffffffffffffffffffffff1602179055507f7d514f6cd4f59c504878340337caf06d04ffd8469e3f5ab8ff9d774770feb6103382604051808373ffffffffffffffffffffffffffffffffffffffff1673ffffffffffffffffffffffffffffffffffffffff16815260200182815260200180602001828103825260008152602001602001935050505060405180910390a150620003b2565b600033905090565b828054600181600116156101000203166002900490600052602060002090601f016020900481019282601f106200034657805160ff191683800117855562000377565b8280016001018555821562000377579182015b828111156200037657825182559160200191906001019062000359565b5b5090506200038691906200038a565b5090565b620003af91905b80821115620003ab57600081600090555060010162000391565b5090565b90565b61289680620003c26000396000f3fe608060405234801561001057600080fd5b50600436106101735760003560e01c80638cbd258f116100de578063b41842b911610097578063be01207b11610071578063be01207b146109ab578063e81bb70c14610a90578063f24b1add14610abe578063f2fde38b14610b8357610173565b8063b41842b9146108c1578063b7196f3714610905578063b8e7c21d1461094f57610173565b80638cbd258f1461065f5780638da5cb5b146106a35780638f32d59b146106ed5780639ee2735b1461070f5780639f5e1ddd14610767578063a3d884531461086557610173565b80636426a116116101305780636426a116146103ef57806365f68c891461044b578063715018a6146104a35780637892322f146104ad5780637f157cad14610595578063845283de1461060357610173565b80630c4471bd1461017857806326ff4794146101d45780632f54bf6e146102ad5780633abba2ef146103095780633d68a5f314610365578063613a7896146103a9575b600080fd5b6101ba6004803603602081101561018e57600080fd5b81019080803573ffffffffffffffffffffffffffffffffffffffff169060200190929190505050610bc7565b604051808215151515815260200191505060405180910390f35b610216600480360360208110156101ea57600080fd5b81019080803573ffffffffffffffffffffffffffffffffffffffff169060200190929190505050610c39565b604051808481526020018060200183600481111561023057fe5b60ff168152602001828103825284818151815260200191508051906020019080838360005b83811015610270578082015181840152602081019050610255565b50505050905090810190601f16801561029d5780820380516001836020036101000a031916815260200191505b5094505050505060405180910390f35b6102ef600480360360208110156102c357600080fd5b81019080803573ffffffffffffffffffffffffffffffffffffffff169060200190929190505050610d08565b604051808215151515815260200191505060405180910390f35b61034b6004803603602081101561031f57600080fd5b81019080803573ffffffffffffffffffffffffffffffffffffffff169060200190929190505050610d47565b604051808215151515815260200191505060405180910390f35b6103a76004803603602081101561037b57600080fd5b81019080803573ffffffffffffffffffffffffffffffffffffffff169060200190929190505050610da1565b005b6103d5600480360360208110156103bf57600080fd5b8101908080359060200190929190505050610fd0565b604051808215151515815260200191505060405180910390f35b6104316004803603602081101561040557600080fd5b81019080803573ffffffffffffffffffffffffffffffffffffffff169060200190929190505050610fef565b604051808215151515815260200191505060405180910390f35b61048d6004803603602081101561046157600080fd5b81019080803573ffffffffffffffffffffffffffffffffffffffff169060200190929190505050611061565b6040518082815260200191505060405180910390f35b6104ab6110ad565b005b6104d9600480360360208110156104c357600080fd5b81019080803590602001909291905050506111e6565b60405180858152602001806020018481526020018373ffffffffffffffffffffffffffffffffffffffff1673ffffffffffffffffffffffffffffffffffffffff168152602001828103825285818151815260200191508051906020019080838360005b8381101561055757808201518184015260208101905061053c565b50505050905090810190601f1680156105845780820380516001836020036101000a031916815260200191505b509550505050505060405180910390f35b6105c1600480360360208110156105ab57600080fd5b8101908080359060200190929190505050611213565b604051808273ffffffffffffffffffffffffffffffffffffffff1673ffffffffffffffffffffffffffffffffffffffff16815260200191505060405180910390f35b6106456004803603602081101561061957600080fd5b81019080803573ffffffffffffffffffffffffffffffffffffffff169060200190929190505050611250565b604051808215151515815260200191505060405180910390f35b6106a16004803603602081101561067557600080fd5b81019080803573ffffffffffffffffffffffffffffffffffffffff1690602001909291905050506112c2565b005b6106ab611380565b604051808273ffffffffffffffffffffffffffffffffffffffff1673ffffffffffffffffffffffffffffffffffffffff16815260200191505060405180910390f35b6106f56113a9565b604051808215151515815260200191505060405180910390f35b6107516004803603602081101561072557600080fd5b81019080803573ffffffffffffffffffffffffffffffffffffffff169060200190929190505050611407565b6040518082815260200191505060405180910390f35b6107a96004803603602081101561077d57600080fd5b81019080803573ffffffffffffffffffffffffffffffffffffffff16906020019092919050505061146b565b60405180858152602001806020018481526020018373ffffffffffffffffffffffffffffffffffffffff1673ffffffffffffffffffffffffffffffffffffffff168152602001828103825285818151815260200191508051906020019080838360005b8381101561082757808201518184015260208101905061080c565b50505050905090810190601f1680156108545780820380516001836020036101000a031916815260200191505b509550505050505060405180910390f35b6108a76004803603602081101561087b57600080fd5b81019080803573ffffffffffffffffffffffffffffffffffffffff1690602001909291905050506115fe565b604051808215151515815260200191505060405180910390f35b610903600480360360208110156108d757600080fd5b81019080803573ffffffffffffffffffffffffffffffffffffffff16906020019092919050505061166f565b005b61090d611840565b604051808273ffffffffffffffffffffffffffffffffffffffff1673ffffffffffffffffffffffffffffffffffffffff16815260200191505060405180910390f35b6109916004803603602081101561096557600080fd5b81019080803573ffffffffffffffffffffffffffffffffffffffff16906020019092919050505061186a565b604051808215151515815260200191505060405180910390f35b610a8e600480360360608110156109c157600080fd5b8101908080359060200190929190803573ffffffffffffffffffffffffffffffffffffffff16906020019092919080359060200190640100000000811115610a0857600080fd5b820183602082011115610a1a57600080fd5b80359060200191846001830284011164010000000083111715610a3c57600080fd5b91908080601f016020809104026020016040519081016040528093929190818152602001838380828437600081840152601f19601f8201169050808301925050505050505091929192905050506118db565b005b610abc60048036036020811015610aa657600080fd5b8101908080359060200190929190505050611dc9565b005b610b8160048036036040811015610ad457600080fd5b810190808035906020019092919080359060200190640100000000811115610afb57600080fd5b820183602082011115610b0d57600080fd5b80359060200191846001830284011164010000000083111715610b2f57600080fd5b91908080601f016020809104026020016040519081016040528093929190818152602001838380828437600081840152601f19601f820116905080830192505050505050509192919290505050611fca565b005b610bc560048036036020811015610b9957600080fd5b81019080803573ffffffffffffffffffffffffffffffffffffffff1690602001909291905050506123c5565b005b600060016004811115610bd657fe5b600260008473ffffffffffffffffffffffffffffffffffffffff1673ffffffffffffffffffffffffffffffffffffffff16815260200190815260200160002060020160009054906101000a900460ff166004811115610c3157fe5b149050919050565b6002602052806000526040600020600091509050806000015490806001018054600181600116156101000203166002900480601f016020809104026020016040519081016040528092919081815260200182805460018160011615610100020316600290048015610ceb5780601f10610cc057610100808354040283529160200191610ceb565b820191906000526020600020905b815481529060010190602001808311610cce57829003601f168201915b5050505050908060020160009054906101000a900460ff16905083565b60008173ffffffffffffffffffffffffffffffffffffffff16610d29611380565b73ffffffffffffffffffffffffffffffffffffffff16149050919050565b6000600160009054906101000a900473ffffffffffffffffffffffffffffffffffffffff1673ffffffffffffffffffffffffffffffffffffffff168273ffffffffffffffffffffffffffffffffffffffff16149050919050565b610daa33610d47565b610dff576040517f08c379a000000000000000000000000000000000000000000000000000000000815260040180806020018281038252603b815260200180612830603b913960400191505060405180910390fd5b60016004811115610e0c57fe5b600260008373ffffffffffffffffffffffffffffffffffffffff1673ffffffffffffffffffffffffffffffffffffffff16815260200190815260200160002060020160009054906101000a900460ff166004811115610e6757fe5b14610ebd576040517f08c379a00000000000000000000000000000000000000000000000000000000081526004018080602001828103825260368152602001806126b96036913960400191505060405180910390fd5b60028060008373ffffffffffffffffffffffffffffffffffffffff1673ffffffffffffffffffffffffffffffffffffffff16815260200190815260200160002060020160006101000a81548160ff02191690836004811115610f1b57fe5b02179055507f50072c7dc76485cd913da405eebe25fa4a9820953cdb208b025d65074d0a93b981600260008473ffffffffffffffffffffffffffffffffffffffff1673ffffffffffffffffffffffffffffffffffffffff16815260200190815260200160002060000154604051808373ffffffffffffffffffffffffffffffffffffffff1673ffffffffffffffffffffffffffffffffffffffff1681526020018281526020019250505060405180910390a150565b600080610fdc83611213565b9050610fe781610fef565b915050919050565b600060026004811115610ffe57fe5b600260008473ffffffffffffffffffffffffffffffffffffffff1673ffffffffffffffffffffffffffffffffffffffff16815260200190815260200160002060020160009054906101000a900460ff16600481111561105957fe5b149050919050565b6000600260008373ffffffffffffffffffffffffffffffffffffffff1673ffffffffffffffffffffffffffffffffffffffff168152602001908152602001600020600001549050919050565b6110b56113a9565b611127576040517f08c379a00000000000000000000000000000000000000000000000000000000081526004018080602001828103825260208152602001807f4f776e61626c653a2063616c6c6572206973206e6f7420746865206f776e657281525060200191505060405180910390fd5b600073ffffffffffffffffffffffffffffffffffffffff166000809054906101000a900473ffffffffffffffffffffffffffffffffffffffff1673ffffffffffffffffffffffffffffffffffffffff167f8be0079c531659141344cd1fd0a4f28419497f9722a3daafe3b4186f6b6457e060405160405180910390a360008060006101000a81548173ffffffffffffffffffffffffffffffffffffffff021916908373ffffffffffffffffffffffffffffffffffffffff160217905550565b6000606060008060006111f886611213565b90506112038161146b565b9450945094509450509193509193565b60006003600083815260200190815260200160002060009054906101000a900473ffffffffffffffffffffffffffffffffffffffff169050919050565b60006003600481111561125f57fe5b600260008473ffffffffffffffffffffffffffffffffffffffff1673ffffffffffffffffffffffffffffffffffffffff16815260200190815260200160002060020160009054906101000a900460ff1660048111156112ba57fe5b149050919050565b6112ca6113a9565b61133c576040517f08c379a00000000000000000000000000000000000000000000000000000000081526004018080602001828103825260208152602001807f4f776e61626c653a2063616c6c6572206973206e6f7420746865206f776e657281525060200191505060405180910390fd5b80600160006101000a81548173ffffffffffffffffffffffffffffffffffffffff021916908373ffffffffffffffffffffffffffffffffffffffff16021790555050565b60008060009054906101000a900473ffffffffffffffffffffffffffffffffffffffff16905090565b60008060009054906101000a900473ffffffffffffffffffffffffffffffffffffffff1673ffffffffffffffffffffffffffffffffffffffff166113eb61244b565b73ffffffffffffffffffffffffffffffffffffffff1614905090565b6000600260008373ffffffffffffffffffffffffffffffffffffffff1673ffffffffffffffffffffffffffffffffffffffff16815260200190815260200160002060020160009054906101000a900460ff16600481111561146457fe5b9050919050565b60006060600080600260008673ffffffffffffffffffffffffffffffffffffffff1673ffffffffffffffffffffffffffffffffffffffff16815260200190815260200160002060000154600260008773ffffffffffffffffffffffffffffffffffffffff1673ffffffffffffffffffffffffffffffffffffffff168152602001908152602001600020600101600260008873ffffffffffffffffffffffffffffffffffffffff1673ffffffffffffffffffffffffffffffffffffffff16815260200190815260200160002060020160009054906101000a900460ff16600481111561155257fe5b87828054600181600116156101000203166002900480601f0160208091040260200160405190810160405280929190818152602001828054600181600116156101000203166002900480156115e85780601f106115bd576101008083540402835291602001916115e8565b820191906000526020600020905b8154815290600101906020018083116115cb57829003601f168201915b5050505050925093509350935093509193509193565b600080600481111561160c57fe5b600260008473ffffffffffffffffffffffffffffffffffffffff1673ffffffffffffffffffffffffffffffffffffffff16815260200190815260200160002060020160009054906101000a900460ff16600481111561166757fe5b149050919050565b61167833610d47565b6116cd576040517f08c379a000000000000000000000000000000000000000000000000000000000815260040180806020018281038252603d8152602001806127f3603d913960400191505060405180910390fd5b6116d681610d47565b1561172c576040517f08c379a000000000000000000000000000000000000000000000000000000000815260040180806020018281038252604c81526020018061263d604c913960600191505060405180910390fd5b6003600260008373ffffffffffffffffffffffffffffffffffffffff1673ffffffffffffffffffffffffffffffffffffffff16815260200190815260200160002060020160006101000a81548160ff0219169083600481111561178b57fe5b02179055507f1b3b279332accb9fb8f628fea6c13af74b2e810c94a10a25d3929601b179697d81600260008473ffffffffffffffffffffffffffffffffffffffff1673ffffffffffffffffffffffffffffffffffffffff16815260200190815260200160002060000154604051808373ffffffffffffffffffffffffffffffffffffffff1673ffffffffffffffffffffffffffffffffffffffff1681526020018281526020019250505060405180910390a150565b6000600160009054906101000a900473ffffffffffffffffffffffffffffffffffffffff16905090565b600060048081111561187857fe5b600260008473ffffffffffffffffffffffffffffffffffffffff1673ffffffffffffffffffffffffffffffffffffffff16815260200190815260200160002060020160009054906101000a900460ff1660048111156118d357fe5b149050919050565b60006118e684611213565b90506118f181610d47565b15611947576040517f08c379a00000000000000000000000000000000000000000000000000000000081526004018080602001828103825260328152602001806127676032913960400191505060405180910390fd5b611950816115fe565b156119a6576040517f08c379a00000000000000000000000000000000000000000000000000000000081526004018080602001828103825260308152602001806126896030913960400191505060405180910390fd5b6119af836115fe565b611a04576040517f08c379a00000000000000000000000000000000000000000000000000000000081526004018080602001828103825260258152602001806127996025913960400191505060405180910390fd5b73__RBBLib________________________________636edcb12f836040518263ffffffff1660e01b81526004018080602001828103825283818151815260200191508051906020019080838360005b83811015611a6e578082015181840152602081019050611a53565b50505050905090810190601f168015611a9b5780820380516001836020036101000a031916815260200191505b509250505060206040518083038186803b158015611ab857600080fd5b505af4158015611acc573d6000803e3d6000fd5b505050506040513d6020811015611ae257600080fd5b8101908080519060200190929190505050611b48576040517f08c379a00000000000000000000000000000000000000000000000000000000081526004018080602001828103825260238152602001806127446023913960400191505060405180910390fd5b604051806060016040528085815260200183815260200160016004811115611b6c57fe5b815250600260008573ffffffffffffffffffffffffffffffffffffffff1673ffffffffffffffffffffffffffffffffffffffff168152602001908152602001600020600082015181600001556020820151816001019080519060200190611bd4929190612597565b5060408201518160020160006101000a81548160ff02191690836004811115611bf957fe5b02179055509050506004600260008373ffffffffffffffffffffffffffffffffffffffff1673ffffffffffffffffffffffffffffffffffffffff16815260200190815260200160002060020160006101000a81548160ff02191690836004811115611c6057fe5b0217905550826003600086815260200190815260200160002060006101000a81548173ffffffffffffffffffffffffffffffffffffffff021916908373ffffffffffffffffffffffffffffffffffffffff1602179055507f185710b367722cd90751375cba00df002d50a4e4b6b98ff9eb0decdb9cba9b7881848685604051808573ffffffffffffffffffffffffffffffffffffffff1673ffffffffffffffffffffffffffffffffffffffff1681526020018473ffffffffffffffffffffffffffffffffffffffff1673ffffffffffffffffffffffffffffffffffffffff16815260200183815260200180602001828103825283818151815260200191508051906020019080838360005b83811015611d86578082015181840152602081019050611d6b565b50505050905090810190601f168015611db35780820380516001836020036101000a031916815260200191505b509550505050505060405180910390a150505050565b60003390506060604051806020016040528060008152509050604051806060016040528084815260200182815260200160026004811115611e0657fe5b815250600260008473ffffffffffffffffffffffffffffffffffffffff1673ffffffffffffffffffffffffffffffffffffffff168152602001908152602001600020600082015181600001556020820151816001019080519060200190611e6e929190612597565b5060408201518160020160006101000a81548160ff02191690836004811115611e9357fe5b0217905550905050816003600085815260200190815260200160002060006101000a81548173ffffffffffffffffffffffffffffffffffffffff021916908373ffffffffffffffffffffffffffffffffffffffff1602179055507f7d514f6cd4f59c504878340337caf06d04ffd8469e3f5ab8ff9d774770feb610828483604051808473ffffffffffffffffffffffffffffffffffffffff1673ffffffffffffffffffffffffffffffffffffffff16815260200183815260200180602001828103825283818151815260200191508051906020019080838360005b83811015611f89578082015181840152602081019050611f6e565b50505050905090810190601f168015611fb65780820380516001836020036101000a031916815260200191505b5094505050505060405180910390a1505050565b6000339050611fd8816115fe565b61202d576040517f08c379a00000000000000000000000000000000000000000000000000000000081526004018080602001828103825260358152602001806127be6035913960400191505060405180910390fd5b73__RBBLib________________________________636edcb12f836040518263ffffffff1660e01b81526004018080602001828103825283818151815260200191508051906020019080838360005b8381101561209757808201518184015260208101905061207c565b50505050905090810190601f1680156120c45780820380516001836020036101000a031916815260200191505b509250505060206040518083038186803b1580156120e157600080fd5b505af41580156120f5573d6000803e3d6000fd5b505050506040513d602081101561210b57600080fd5b8101908080519060200190929190505050612171576040517f08c379a00000000000000000000000000000000000000000000000000000000081526004018080602001828103825260238152602001806127446023913960400191505060405180910390fd5b600061217c84611213565b9050612187816115fe565b6121dc576040517f08c379a000000000000000000000000000000000000000000000000000000000815260040180806020018281038252602f815260200180612715602f913960400191505060405180910390fd5b60405180606001604052808581526020018481526020016001600481111561220057fe5b815250600260008473ffffffffffffffffffffffffffffffffffffffff1673ffffffffffffffffffffffffffffffffffffffff168152602001908152602001600020600082015181600001556020820151816001019080519060200190612268929190612597565b5060408201518160020160006101000a81548160ff0219169083600481111561228d57fe5b0217905550905050816003600086815260200190815260200160002060006101000a81548173ffffffffffffffffffffffffffffffffffffffff021916908373ffffffffffffffffffffffffffffffffffffffff1602179055507f7d514f6cd4f59c504878340337caf06d04ffd8469e3f5ab8ff9d774770feb610828585604051808473ffffffffffffffffffffffffffffffffffffffff1673ffffffffffffffffffffffffffffffffffffffff16815260200183815260200180602001828103825283818151815260200191508051906020019080838360005b83811015612383578082015181840152602081019050612368565b50505050905090810190601f1680156123b05780820380516001836020036101000a031916815260200191505b5094505050505060405180910390a150505050565b6123cd6113a9565b61243f576040517f08c379a00000000000000000000000000000000000000000000000000000000081526004018080602001828103825260208152602001807f4f776e61626c653a2063616c6c6572206973206e6f7420746865206f776e657281525060200191505060405180910390fd5b61244881612453565b50565b600033905090565b600073ffffffffffffffffffffffffffffffffffffffff168173ffffffffffffffffffffffffffffffffffffffff1614156124d9576040517f08c379a00000000000000000000000000000000000000000000000000000000081526004018080602001828103825260268152602001806126ef6026913960400191505060405180910390fd5b8073ffffffffffffffffffffffffffffffffffffffff166000809054906101000a900473ffffffffffffffffffffffffffffffffffffffff1673ffffffffffffffffffffffffffffffffffffffff167f8be0079c531659141344cd1fd0a4f28419497f9722a3daafe3b4186f6b6457e060405160405180910390a3806000806101000a81548173ffffffffffffffffffffffffffffffffffffffff021916908373ffffffffffffffffffffffffffffffffffffffff16021790555050565b828054600181600116156101000203166002900490600052602060002090601f016020900481019282601f106125d857805160ff1916838001178555612606565b82800160010185558215612606579182015b828111156126055782518255916020019190600101906125ea565b5b5090506126139190612617565b5090565b61263991905b8082111561263557600081600090555060010161261d565b5090565b9056fe4ec3a36f20c3a920706f7373c3ad76656c20696e76616c6964617220636f6e746120646f20726573706f6e73c3a176656c2070656c612076616c696461c3a7c3a36f20646520636f6e74617354656d2071756520686176657220756d20656e64657265c3a76f206173736f636961646f2061206573736520636e706a4120636f6e74612070726563697361206573746172206e6f2065737461646f20416775617264616e646f2056616c696461c3a7c3a36f4f776e61626c653a206e6577206f776e657220697320746865207a65726f2061646472657373434e504a204ac3a120657374c3a1206173736f636961646f2e2055736520612066756ec3a7c3a36f2054726f63612e4f2068617368206461206465636c617261c3a7c3a36f20c3a920696e76c3a16c69646f4ec3a36f20706f64652074726f63617220656e64657265c3a76f20646520636f6e74612064652076616c696461c3a7c3a36f4e6f766f20656e64657265c3a76f206ec3a36f20657374c3a120646973706f6ec3ad76656c456e64657265c3a76f206ec3a36f20706f646520746572207369646f206361646173747261646f20616e746572696f726d656e7465536f6d656e7465206f20726573706f6e73c3a176656c2070656c612076616c696461c3a7c3a36f20706f646520696e76616c6964617220636f6e746173536f6d656e7465206f20726573706f6e73c3a176656c2070656c612076616c696461c3a7c3a36f20706f64652076616c6964617220636f6e746173a165627a7a72305820eeb7e2ea9c2074b6bb0737fd8aad4fb1fb0f3af478aace9ab0969758ca8755520029",
  "source": "pragma solidity ^0.5.0;\n\nimport \"@openzeppelin/contracts/ownership/Ownable.sol\";\nimport \"./RBBLib.sol\";\n\n/*\nAcho que LegalEntityInfo deveria conter id, ao invs de cnpj\nNo caso de pessoa jurdica, o id  o cnpj\nNo caso de pessoa fsica, um link para um cpf (por causa da LGPD).\n*/\ncontract RBBRegistry is Ownable() {\n\n    /**\n        The account of clients and suppliers are assigned to states.\n        AVAILABLE - The account is not yet assigned any role.\n        WAITING_VALIDATION - The account was linked to a legal entity but it still needs to be validated\n        VALIDATED - The account was validated\n        INVALIDATED_BY_VALIDATOR - The account was invalidated\n        INVALIDATED_BY_CHANGE - The client or supplier changed the ethereum account so the original one must be invalidated.\n     */\n    enum BlockchainAccountState {AVAILABLE,WAITING_VALIDATION,VALIDATED,INVALIDATED_BY_VALIDATOR,INVALIDATED_BY_CHANGE}\n    BlockchainAccountState blockchainState; //Not used. Defined to create the enum type.\n\n//TODO: dever ser um conjunto de validadores, com possibilidade de incluir/remover novos,\n//TODO: owner n pode ser BNDES\n//Tratar como address ou como id?\n    address responsibleForRegistryValidation;\n\n    //todo: avaliar criacao de papel de invalidador para casos ad-hoc\n\n    /**\n        Describes the Legal Entity - clients or suppliers\n     */\n    struct LegalEntityInfo {\n        uint id; //Brazilian identification of legal entity\n        string idProofHash; //hash of declaration\n        BlockchainAccountState state;\n    }\n\n    /**\n        Links Ethereum addresses to LegalEntityInfo\n     */\n    mapping(address => LegalEntityInfo) public legalEntitiesInfo;\n\n    /**\n        Links Legal Entity to Ethereum address.\n     */\n    mapping(uint => address) legalEntityId_To_Addr;\n\n\n    /**\n        Links Ethereum addresses to the possibility to change the account\n        Since the Ethereum account can be changed once, it is not necessary to put the bool to false.\n        TODO: Discuss later what is the best solution to this\n     */\n    //mapping(address => bool) public legalEntitiesChangeAccount;\n\n\n    event AccountRegistration(address addr, uint id,  string idProofHash);\n    event AccountChange(address oldAddr, address newAddr, uint id, string idProofHash);\n    event AccountValidation(address addr, uint id);\n    event AccountInvalidation(address addr, uint id);\n\n    constructor (uint idResposibleForValidation) public {\n        responsibleForRegistryValidation = msg.sender;\n        legalEntitiesInfo[msg.sender] = LegalEntityInfo(idResposibleForValidation, \"\", BlockchainAccountState.VALIDATED);\n        legalEntityId_To_Addr[idResposibleForValidation] = responsibleForRegistryValidation;\n        emit AccountRegistration(msg.sender, idResposibleForValidation, \"\");\n    }\n\n   /**\n    * Link blockchain address with ID - It can be a cliente or a supplier\n    * The link still needs to be validated by BNDES\n    * This method can only be called by BNDESToken contract because BNDESToken can pause.\n    * @param cnpj Brazilian identifier to legal entities\n    * @param idProofHash The legal entities have to send BNDES a PDF where it assumes as responsible for an Ethereum account.\n    *                   This PDF is signed with eCNPJ and send to BNDES.\n    */\n    function registryLegalEntity(uint cnpj, string memory idProofHash)\n        public {\n        \n        address addr = msg.sender;\n\n        // Endereo no pode ter sido cadastrado anteriormente\n        require (isAvailableAccount(addr), \"Endereo no pode ter sido cadastrado anteriormente\");\n\n        require (RBBLib.isValidHash(idProofHash), \"O hash da declarao  invlido\");\n\n        address account = getBlockchainAccount(cnpj);\n\n        require (isAvailableAccount(account), \"CNPJ J est associado. Use a funo Troca.\");\n\n        legalEntitiesInfo[addr] = LegalEntityInfo(cnpj, idProofHash, BlockchainAccountState.WAITING_VALIDATION);\n\n        legalEntityId_To_Addr[cnpj] = addr;\n\n        emit AccountRegistration(addr, cnpj, idProofHash);\n    }\n\n\n\n   /**\n    * Changes the original link between CNPJ and Ethereum account.\n    * The new link still needs to be validated by BNDES.\n    * This method can only be called by BNDESToken contract because BNDESToken can pause and because there are\n    * additional instructions there.\n    * @param cnpj Brazilian identifier to legal entities\n    * @param newAddr the new address to be associated with the legal entity\n    * @param idProofHash The legal entities have to send BNDES a PDF where it assumes as responsible for an Ethereum account.\n    *                   This PDF is signed with eCNPJ and send to BNDES.\n    */\n    function changeAccountLegalEntity(uint cnpj, address newAddr, string memory idProofHash)\n    public {\n\n        address oldAddr = getBlockchainAccount(cnpj);\n\n        // Tem que haver um endereo associado a esse cnpj/subcrdito\n        require(!isResponsibleForRegistryValidation(oldAddr), \"No pode trocar endereo de conta de validao\");\n\n        require(!isAvailableAccount(oldAddr), \"Tem que haver um endereo associado a esse cnpj\");\n\n        require(isAvailableAccount(newAddr), \"Novo endereo no est disponvel\");\n\n        require (RBBLib.isValidHash(idProofHash), \"O hash da declarao  invlido\");\n\n        // Aponta o novo endereo para o novo LegalEntityInfo\n        legalEntitiesInfo[newAddr] = LegalEntityInfo(cnpj, idProofHash, BlockchainAccountState.WAITING_VALIDATION);\n\n        // Apaga o mapping do endereo antigo\n        legalEntitiesInfo[oldAddr].state = BlockchainAccountState.INVALIDATED_BY_CHANGE;\n\n        // Aponta mapping CNPJ para newAddr\n        legalEntityId_To_Addr[cnpj] = newAddr;\n\n        emit AccountChange(oldAddr, newAddr, cnpj, idProofHash);\n\n    }\n\n   /**\n    * Validates the initial registry of a legal entity or the change of its registry\n    * @param addr Ethereum address that needs to be validated\n    */\n    function validateRegistryLegalEntity(address addr) public {\n\n        require(isResponsibleForRegistryValidation(msg.sender), \"Somente o responsvel pela validao pode validar contas\");\n\n        require(legalEntitiesInfo[addr].state == BlockchainAccountState.WAITING_VALIDATION,\n            \"A conta precisa estar no estado Aguardando Validao\");\n\n        legalEntitiesInfo[addr].state = BlockchainAccountState.VALIDATED;\n\n        emit AccountValidation(addr, legalEntitiesInfo[addr].id);\n    }\n\n\n   /**\n    * Invalidates the initial registry of a legal entity or the change of its registry\n    * The invalidation can be called at any time in the lifecycle of the address (not only when it is WAITING_VALIDATION)\n    * @param addr Ethereum address that needs to be validated\n    */\n    function invalidateRegistryLegalEntity(address addr) public {\n\n        require(isResponsibleForRegistryValidation(msg.sender), \"Somente o responsvel pela validao pode invalidar contas\");\n\n        require(!isResponsibleForRegistryValidation(addr), \"No  possvel invalidar conta do responsvel pela validao de contas\");\n\n        legalEntitiesInfo[addr].state = BlockchainAccountState.INVALIDATED_BY_VALIDATOR;\n        \n        emit AccountInvalidation(addr, legalEntitiesInfo[addr].id);\n    }\n\n\n   /**\n    * By default, the owner is also the Responsible for Validation.\n    * The owner can assign other address to be the Responsible for Validation.\n    * @param rs Ethereum address to be assigned as Responsible for Validation.\n    */\n    function setResponsibleForRegistryValidation(address rs) public onlyOwner {\n        responsibleForRegistryValidation = rs;\n        //TODOO: evento quando trocar papeis\n    }\n\n    function isResponsibleForRegistryValidation(address addr) public view returns (bool) {\n        return (addr == responsibleForRegistryValidation);\n    }\n\n    function isOwner(address addr) public view returns (bool) {\n        return owner()==addr;\n    }\n\n    function isAvailableAccount(address addr) public view returns (bool) {\n        return legalEntitiesInfo[addr].state == BlockchainAccountState.AVAILABLE;\n    }\n\n//TODO: eh necessario ter metodos que verificam se id ou address estao validos\n\n    function isWaitingValidationAccount(address addr) public view returns (bool) {\n        return legalEntitiesInfo[addr].state == BlockchainAccountState.WAITING_VALIDATION;\n    }\n\n    function isValidatedAccount(address addr) public view returns (bool) {\n        return legalEntitiesInfo[addr].state == BlockchainAccountState.VALIDATED;\n    }\n\n    function isValidatedId(uint id) public view returns (bool) {\n        address addr = getBlockchainAccount(id);\n        return isValidatedAccount(addr);\n    }\n\n    function isInvalidatedByValidatorAccount(address addr) public view returns (bool) {\n        return legalEntitiesInfo[addr].state == BlockchainAccountState.INVALIDATED_BY_VALIDATOR;\n    }\n\n    function isInvalidatedByChangeAccount(address addr) public view returns (bool) {\n        return legalEntitiesInfo[addr].state == BlockchainAccountState.INVALIDATED_BY_CHANGE;\n    }\n\n    function getResponsibleForRegistryValidation() public view returns (address) {\n        return responsibleForRegistryValidation;\n    }\n\n    function getId (address addr) public view returns (uint) {\n        return legalEntitiesInfo[addr].id;\n    }\n\n    function getLegalEntityInfo (address addr) public view returns (uint, string memory, uint, address) {\n        return (legalEntitiesInfo[addr].id, legalEntitiesInfo[addr].idProofHash, (uint) (legalEntitiesInfo[addr].state),\n             addr);\n    }\n\n    function getBlockchainAccount(uint cnpj) public view returns (address) {\n        return legalEntityId_To_Addr[cnpj];\n    }\n\n    function getLegalEntityInfoById (uint cnpj) public view\n        returns (uint, string memory, uint, address) {\n        \n        address addr = getBlockchainAccount(cnpj);\n        return getLegalEntityInfo (addr);\n    }\n\n    function getAccountState(address addr) public view returns (int) {\n        return ((int) (legalEntitiesInfo[addr].state));\n    }\n\n    function registryMock(uint cnpj)\n        public {\n        \n        address addr = msg.sender;\n        string memory idProofHash = \"\";\n\n        legalEntitiesInfo[addr] = LegalEntityInfo(cnpj, idProofHash, BlockchainAccountState.VALIDATED);\n\n        legalEntityId_To_Addr[cnpj] = addr;\n\n        emit AccountRegistration(addr, cnpj, idProofHash);\n    }\n\n\n}",
  "sourcePath": "D:/git/rbb-identificacao/Back-Blockchain/contracts/RBBRegistry.sol",
  "compiler": {
    "name": "solc",
    "version": "0.5.8+commit.23d335f2.Emscripten.clang"
  },
  "schemaVersion": "3.0.16",
  "updatedAt": "2020-09-14T21:20:55.163Z",
  "devdoc": {
    "methods": {
      "changeAccountLegalEntity(uint256,address,string)": {
        "params": {
          "cnpj": "Brazilian identifier to legal entities",
          "idProofHash": "The legal entities have to send BNDES a PDF where it assumes as responsible for an Ethereum account.                  This PDF is signed with eCNPJ and send to BNDES.",
          "newAddr": "the new address to be associated with the legal entity"
        }
      },
      "invalidateRegistryLegalEntity(address)": {
        "params": {
          "addr": "Ethereum address that needs to be validated"
        }
      },
      "isOwner()": {
        "details": "Returns true if the caller is the current owner."
      },
      "owner()": {
        "details": "Returns the address of the current owner."
      },
      "registryLegalEntity(uint256,string)": {
        "params": {
          "cnpj": "Brazilian identifier to legal entities",
          "idProofHash": "The legal entities have to send BNDES a PDF where it assumes as responsible for an Ethereum account.                  This PDF is signed with eCNPJ and send to BNDES."
        }
      },
      "renounceOwnership()": {
        "details": "Leaves the contract without owner. It will not be possible to call `onlyOwner` functions anymore. Can only be called by the current owner.     * NOTE: Renouncing ownership will leave the contract without an owner, thereby removing any functionality that is only available to the owner."
      },
      "setResponsibleForRegistryValidation(address)": {
        "params": {
          "rs": "Ethereum address to be assigned as Responsible for Validation."
        }
      },
      "transferOwnership(address)": {
        "details": "Transfers ownership of the contract to a new account (`newOwner`). Can only be called by the current owner."
      },
      "validateRegistryLegalEntity(address)": {
        "params": {
          "addr": "Ethereum address that needs to be validated"
        }
      }
    }
  },
  "userdoc": {
    "methods": {
      "changeAccountLegalEntity(uint256,address,string)": {
        "notice": "Changes the original link between CNPJ and Ethereum account. The new link still needs to be validated by BNDES. This method can only be called by BNDESToken contract because BNDESToken can pause and because there are additional instructions there."
      },
      "invalidateRegistryLegalEntity(address)": {
        "notice": "Invalidates the initial registry of a legal entity or the change of its registry The invalidation can be called at any time in the lifecycle of the address (not only when it is WAITING_VALIDATION)"
      },
      "registryLegalEntity(uint256,string)": {
        "notice": "Link blockchain address with ID - It can be a cliente or a supplier The link still needs to be validated by BNDES This method can only be called by BNDESToken contract because BNDESToken can pause."
      },
      "setResponsibleForRegistryValidation(address)": {
        "notice": "By default, the owner is also the Responsible for Validation. The owner can assign other address to be the Responsible for Validation."
      },
      "validateRegistryLegalEntity(address)": {
        "notice": "Validates the initial registry of a legal entity or the change of its registry"
      }
    }
  }
}