{
  "contractName": "RBBRegistry",
  "abi": [
    {
      "inputs": [],
      "stateMutability": "nonpayable",
      "type": "constructor"
    },
    {
      "anonymous": false,
      "inputs": [
        {
          "indexed": false,
          "internalType": "address",
          "name": "addr",
          "type": "address"
        },
        {
          "indexed": false,
          "internalType": "uint256",
          "name": "RBBId",
          "type": "uint256"
        },
        {
          "indexed": false,
          "internalType": "uint64",
          "name": "CNPJ",
          "type": "uint64"
        },
        {
          "indexed": false,
          "internalType": "address",
          "name": "responsible",
          "type": "address"
        },
        {
          "indexed": false,
          "internalType": "uint8",
          "name": "reason",
          "type": "uint8"
        }
      ],
      "name": "AccountInvalidation",
      "type": "event"
    },
    {
      "anonymous": false,
      "inputs": [
        {
          "indexed": false,
          "internalType": "address",
          "name": "addr",
          "type": "address"
        },
        {
          "indexed": false,
          "internalType": "uint256",
          "name": "RBBId",
          "type": "uint256"
        },
        {
          "indexed": false,
          "internalType": "uint64",
          "name": "CNPJ",
          "type": "uint64"
        },
        {
          "indexed": false,
          "internalType": "address",
          "name": "responsible",
          "type": "address"
        },
        {
          "indexed": false,
          "internalType": "uint8",
          "name": "reason",
          "type": "uint8"
        }
      ],
      "name": "AccountPaused",
      "type": "event"
    },
    {
      "anonymous": false,
      "inputs": [
        {
          "indexed": false,
          "internalType": "address",
          "name": "addr",
          "type": "address"
        },
        {
          "indexed": false,
          "internalType": "string",
          "name": "hashProof",
          "type": "string"
        },
        {
          "indexed": false,
          "internalType": "uint256",
          "name": "dateTimeExpiration",
          "type": "uint256"
        }
      ],
      "name": "AccountReactivation",
      "type": "event"
    },
    {
      "anonymous": false,
      "inputs": [
        {
          "indexed": false,
          "internalType": "address",
          "name": "addr",
          "type": "address"
        },
        {
          "indexed": false,
          "internalType": "uint256",
          "name": "RBBId",
          "type": "uint256"
        },
        {
          "indexed": false,
          "internalType": "uint64",
          "name": "CNPJ",
          "type": "uint64"
        },
        {
          "indexed": false,
          "internalType": "string",
          "name": "hashProof",
          "type": "string"
        },
        {
          "indexed": false,
          "internalType": "uint256",
          "name": "dateTimeExpiration",
          "type": "uint256"
        }
      ],
      "name": "AccountRegistration",
      "type": "event"
    },
    {
      "anonymous": false,
      "inputs": [
        {
          "indexed": false,
          "internalType": "address",
          "name": "addr",
          "type": "address"
        },
        {
          "indexed": false,
          "internalType": "uint256",
          "name": "RBBId",
          "type": "uint256"
        },
        {
          "indexed": false,
          "internalType": "uint64",
          "name": "CNPJ",
          "type": "uint64"
        },
        {
          "indexed": false,
          "internalType": "address",
          "name": "responsible",
          "type": "address"
        },
        {
          "indexed": false,
          "internalType": "enum RBBRegistry.BlockchainAccountRole",
          "name": "roleBefore",
          "type": "uint8"
        },
        {
          "indexed": false,
          "internalType": "enum RBBRegistry.BlockchainAccountRole",
          "name": "roleNew",
          "type": "uint8"
        }
      ],
      "name": "AccountRoleChange",
      "type": "event"
    },
    {
      "anonymous": false,
      "inputs": [
        {
          "indexed": false,
          "internalType": "address",
          "name": "addr",
          "type": "address"
        },
        {
          "indexed": false,
          "internalType": "uint256",
          "name": "RBBId",
          "type": "uint256"
        },
        {
          "indexed": false,
          "internalType": "uint64",
          "name": "CNPJ",
          "type": "uint64"
        },
        {
          "indexed": false,
          "internalType": "address",
          "name": "responsible",
          "type": "address"
        },
        {
          "indexed": false,
          "internalType": "uint8",
          "name": "reason",
          "type": "uint8"
        }
      ],
      "name": "AccountUnpaused",
      "type": "event"
    },
    {
      "anonymous": false,
      "inputs": [
        {
          "indexed": false,
          "internalType": "address",
          "name": "addr",
          "type": "address"
        },
        {
          "indexed": false,
          "internalType": "uint256",
          "name": "RBBId",
          "type": "uint256"
        },
        {
          "indexed": false,
          "internalType": "uint64",
          "name": "CNPJ",
          "type": "uint64"
        },
        {
          "indexed": false,
          "internalType": "address",
          "name": "responsible",
          "type": "address"
        }
      ],
      "name": "AccountValidation",
      "type": "event"
    },
    {
      "anonymous": false,
      "inputs": [
        {
          "indexed": false,
          "internalType": "address",
          "name": "addr",
          "type": "address"
        },
        {
          "indexed": false,
          "internalType": "uint256",
          "name": "RBBId",
          "type": "uint256"
        },
        {
          "indexed": false,
          "internalType": "uint64",
          "name": "CNPJ",
          "type": "uint64"
        },
        {
          "indexed": false,
          "internalType": "address",
          "name": "responsible",
          "type": "address"
        }
      ],
      "name": "AccountWaitingApproval",
      "type": "event"
    },
    {
      "anonymous": false,
      "inputs": [
        {
          "indexed": false,
          "internalType": "address",
          "name": "addr",
          "type": "address"
        },
        {
          "indexed": false,
          "internalType": "uint256",
          "name": "RBBId",
          "type": "uint256"
        },
        {
          "indexed": false,
          "internalType": "uint64",
          "name": "CNPJ",
          "type": "uint64"
        },
        {
          "indexed": false,
          "internalType": "address",
          "name": "responsible",
          "type": "address"
        }
      ],
      "name": "AccountWaitingRejection",
      "type": "event"
    },
    {
      "anonymous": false,
      "inputs": [
        {
          "indexed": true,
          "internalType": "address",
          "name": "previousOwner",
          "type": "address"
        },
        {
          "indexed": true,
          "internalType": "address",
          "name": "newOwner",
          "type": "address"
        }
      ],
      "name": "OwnershipTransferred",
      "type": "event"
    },
    {
      "anonymous": false,
      "inputs": [
        {
          "indexed": false,
          "internalType": "address",
          "name": "addr",
          "type": "address"
        },
        {
          "indexed": false,
          "internalType": "uint256",
          "name": "dateTimeExpirationBefore",
          "type": "uint256"
        },
        {
          "indexed": false,
          "internalType": "uint256",
          "name": "dateTimeExpirationNew",
          "type": "uint256"
        }
      ],
      "name": "RegistryExpirationChange",
      "type": "event"
    },
    {
      "anonymous": false,
      "inputs": [
        {
          "indexed": false,
          "internalType": "address",
          "name": "rs",
          "type": "address"
        }
      ],
      "name": "RoleDefinitionActingAfterMonitoring",
      "type": "event"
    },
    {
      "anonymous": false,
      "inputs": [
        {
          "indexed": false,
          "internalType": "address",
          "name": "rs",
          "type": "address"
        }
      ],
      "name": "RoleDefinitionRegistryValidation",
      "type": "event"
    },
    {
      "inputs": [
        {
          "internalType": "uint64",
          "name": "",
          "type": "uint64"
        }
      ],
      "name": "CNPJ_RBBId",
      "outputs": [
        {
          "internalType": "uint256",
          "name": "",
          "type": "uint256"
        }
      ],
      "stateMutability": "view",
      "type": "function"
    },
    {
      "inputs": [
        {
          "internalType": "uint256",
          "name": "",
          "type": "uint256"
        },
        {
          "internalType": "uint256",
          "name": "",
          "type": "uint256"
        }
      ],
      "name": "RBBId_addresses",
      "outputs": [
        {
          "internalType": "address",
          "name": "",
          "type": "address"
        }
      ],
      "stateMutability": "view",
      "type": "function"
    },
    {
      "inputs": [],
      "name": "currentRBBId",
      "outputs": [
        {
          "internalType": "uint256",
          "name": "",
          "type": "uint256"
        }
      ],
      "stateMutability": "view",
      "type": "function"
    },
    {
      "inputs": [],
      "name": "defaultDeltaDateTimeExpiration",
      "outputs": [
        {
          "internalType": "uint256",
          "name": "",
          "type": "uint256"
        }
      ],
      "stateMutability": "view",
      "type": "function"
    },
    {
      "inputs": [
        {
          "internalType": "address",
          "name": "",
          "type": "address"
        }
      ],
      "name": "legalEntitiesInfo",
      "outputs": [
        {
          "internalType": "uint256",
          "name": "RBBId",
          "type": "uint256"
        },
        {
          "internalType": "uint64",
          "name": "CNPJ",
          "type": "uint64"
        },
        {
          "internalType": "string",
          "name": "hashProof",
          "type": "string"
        },
        {
          "internalType": "enum RBBRegistry.BlockchainAccountState",
          "name": "state",
          "type": "uint8"
        },
        {
          "internalType": "enum RBBRegistry.BlockchainAccountRole",
          "name": "role",
          "type": "uint8"
        },
        {
          "internalType": "bool",
          "name": "paused",
          "type": "bool"
        },
        {
          "internalType": "uint256",
          "name": "dateTimeExpiration",
          "type": "uint256"
        }
      ],
      "stateMutability": "view",
      "type": "function"
    },
    {
      "inputs": [],
      "name": "owner",
      "outputs": [
        {
          "internalType": "address",
          "name": "",
          "type": "address"
        }
      ],
      "stateMutability": "view",
      "type": "function"
    },
    {
      "inputs": [],
      "name": "renounceOwnership",
      "outputs": [],
      "stateMutability": "nonpayable",
      "type": "function"
    },
    {
      "inputs": [],
      "name": "responsibleForActingAfterMonitoring",
      "outputs": [
        {
          "internalType": "address",
          "name": "",
          "type": "address"
        }
      ],
      "stateMutability": "view",
      "type": "function"
    },
    {
      "inputs": [],
      "name": "responsibleForRegistryValidation",
      "outputs": [
        {
          "internalType": "address",
          "name": "",
          "type": "address"
        }
      ],
      "stateMutability": "view",
      "type": "function"
    },
    {
      "inputs": [
        {
          "internalType": "address",
          "name": "newOwner",
          "type": "address"
        }
      ],
      "name": "transferOwnership",
      "outputs": [],
      "stateMutability": "nonpayable",
      "type": "function"
    },
    {
      "inputs": [
        {
          "internalType": "address",
          "name": "rs",
          "type": "address"
        }
      ],
      "name": "setResponsibleForRegistryValidation",
      "outputs": [],
      "stateMutability": "nonpayable",
      "type": "function"
    },
    {
      "inputs": [
        {
          "internalType": "address",
          "name": "rs",
          "type": "address"
        }
      ],
      "name": "setResponsibleForActingAfterMonitoring",
      "outputs": [],
      "stateMutability": "nonpayable",
      "type": "function"
    },
    {
      "inputs": [
        {
          "internalType": "uint64",
          "name": "CNPJ",
          "type": "uint64"
        },
        {
          "internalType": "string",
          "name": "proofHash",
          "type": "string"
        }
      ],
      "name": "registryLegalEntity",
      "outputs": [],
      "stateMutability": "nonpayable",
      "type": "function"
    },
    {
      "inputs": [
        {
          "internalType": "address",
          "name": "userAddr",
          "type": "address"
        },
        {
          "internalType": "bool",
          "name": "approval",
          "type": "bool"
        }
      ],
      "name": "preValidateRegistry",
      "outputs": [],
      "stateMutability": "nonpayable",
      "type": "function"
    },
    {
      "inputs": [
        {
          "internalType": "address",
          "name": "userAddr",
          "type": "address"
        }
      ],
      "name": "validateRegistrySameOrg",
      "outputs": [],
      "stateMutability": "nonpayable",
      "type": "function"
    },
    {
      "inputs": [
        {
          "internalType": "address",
          "name": "userAddr",
          "type": "address"
        }
      ],
      "name": "validateRegistry",
      "outputs": [],
      "stateMutability": "nonpayable",
      "type": "function"
    },
    {
      "inputs": [
        {
          "internalType": "address",
          "name": "addr",
          "type": "address"
        }
      ],
      "name": "pauseAddress",
      "outputs": [],
      "stateMutability": "nonpayable",
      "type": "function"
    },
    {
      "inputs": [
        {
          "internalType": "address",
          "name": "addr",
          "type": "address"
        }
      ],
      "name": "pauseAddressAfterMonitoring",
      "outputs": [],
      "stateMutability": "nonpayable",
      "type": "function"
    },
    {
      "inputs": [
        {
          "internalType": "uint256",
          "name": "RBBId",
          "type": "uint256"
        }
      ],
      "name": "pauseLegalEntity",
      "outputs": [],
      "stateMutability": "nonpayable",
      "type": "function"
    },
    {
      "inputs": [
        {
          "internalType": "uint256",
          "name": "RBBId",
          "type": "uint256"
        }
      ],
      "name": "pauseLegalEntityAfterMonitoring",
      "outputs": [],
      "stateMutability": "nonpayable",
      "type": "function"
    },
    {
      "inputs": [
        {
          "internalType": "address",
          "name": "addr",
          "type": "address"
        }
      ],
      "name": "unpauseAddress",
      "outputs": [],
      "stateMutability": "nonpayable",
      "type": "function"
    },
    {
      "inputs": [
        {
          "internalType": "address",
          "name": "addr",
          "type": "address"
        }
      ],
      "name": "unpauseAddressAfterMonitoring",
      "outputs": [],
      "stateMutability": "nonpayable",
      "type": "function"
    },
    {
      "inputs": [
        {
          "internalType": "address",
          "name": "addr",
          "type": "address"
        }
      ],
      "name": "invalidateRegistrySameOrg",
      "outputs": [],
      "stateMutability": "nonpayable",
      "type": "function"
    },
    {
      "inputs": [
        {
          "internalType": "address",
          "name": "addr",
          "type": "address"
        }
      ],
      "name": "invalidateRegistry",
      "outputs": [],
      "stateMutability": "nonpayable",
      "type": "function"
    },
    {
      "inputs": [
        {
          "internalType": "address",
          "name": "addr",
          "type": "address"
        }
      ],
      "name": "invalidateRegistryAfterMonitoring",
      "outputs": [],
      "stateMutability": "nonpayable",
      "type": "function"
    },
    {
      "inputs": [
        {
          "internalType": "string",
          "name": "hashProof",
          "type": "string"
        }
      ],
      "name": "reactiveLegalEntity",
      "outputs": [],
      "stateMutability": "nonpayable",
      "type": "function"
    },
    {
      "inputs": [
        {
          "internalType": "uint256",
          "name": "deltaDateTimeExpirationNew",
          "type": "uint256"
        }
      ],
      "name": "setDefaultDeltaDateTimeExpiration",
      "outputs": [],
      "stateMutability": "nonpayable",
      "type": "function"
    },
    {
      "inputs": [
        {
          "internalType": "string",
          "name": "str",
          "type": "string"
        }
      ],
      "name": "isValidHash",
      "outputs": [
        {
          "internalType": "bool",
          "name": "",
          "type": "bool"
        }
      ],
      "stateMutability": "pure",
      "type": "function"
    },
    {
      "inputs": [
        {
          "internalType": "address",
          "name": "addr",
          "type": "address"
        }
      ],
      "name": "isOperational",
      "outputs": [
        {
          "internalType": "bool",
          "name": "",
          "type": "bool"
        }
      ],
      "stateMutability": "view",
      "type": "function"
    },
    {
      "inputs": [
        {
          "internalType": "uint256",
          "name": "RBBId",
          "type": "uint256"
        }
      ],
      "name": "isRegistryOperational",
      "outputs": [
        {
          "internalType": "bool",
          "name": "",
          "type": "bool"
        }
      ],
      "stateMutability": "view",
      "type": "function"
    },
    {
      "inputs": [
        {
          "internalType": "address",
          "name": "addr",
          "type": "address"
        }
      ],
      "name": "getId",
      "outputs": [
        {
          "internalType": "uint256",
          "name": "",
          "type": "uint256"
        }
      ],
      "stateMutability": "view",
      "type": "function"
    },
    {
      "inputs": [
        {
          "internalType": "address",
          "name": "addr",
          "type": "address"
        }
      ],
      "name": "isOwner",
      "outputs": [
        {
          "internalType": "bool",
          "name": "",
          "type": "bool"
        }
      ],
      "stateMutability": "view",
      "type": "function"
    },
    {
      "inputs": [
        {
          "internalType": "address",
          "name": "addr",
          "type": "address"
        }
      ],
      "name": "isAvailableAccount",
      "outputs": [
        {
          "internalType": "bool",
          "name": "",
          "type": "bool"
        }
      ],
      "stateMutability": "view",
      "type": "function"
    },
    {
      "inputs": [
        {
          "internalType": "address",
          "name": "addr",
          "type": "address"
        }
      ],
      "name": "isWaitingAccount",
      "outputs": [
        {
          "internalType": "bool",
          "name": "",
          "type": "bool"
        }
      ],
      "stateMutability": "view",
      "type": "function"
    },
    {
      "inputs": [
        {
          "internalType": "address",
          "name": "addr",
          "type": "address"
        }
      ],
      "name": "isValidatedAccount",
      "outputs": [
        {
          "internalType": "bool",
          "name": "",
          "type": "bool"
        }
      ],
      "stateMutability": "view",
      "type": "function"
    },
    {
      "inputs": [
        {
          "internalType": "address",
          "name": "addr",
          "type": "address"
        }
      ],
      "name": "isInvalidated",
      "outputs": [
        {
          "internalType": "bool",
          "name": "",
          "type": "bool"
        }
      ],
      "stateMutability": "view",
      "type": "function"
    },
    {
      "inputs": [
        {
          "internalType": "address",
          "name": "a",
          "type": "address"
        },
        {
          "internalType": "address",
          "name": "b",
          "type": "address"
        }
      ],
      "name": "isTheSameID",
      "outputs": [
        {
          "internalType": "bool",
          "name": "",
          "type": "bool"
        }
      ],
      "stateMutability": "view",
      "type": "function"
    },
    {
      "inputs": [
        {
          "internalType": "address",
          "name": "addr",
          "type": "address"
        }
      ],
      "name": "isPaused",
      "outputs": [
        {
          "internalType": "bool",
          "name": "",
          "type": "bool"
        }
      ],
      "stateMutability": "view",
      "type": "function"
    },
    {
      "inputs": [
        {
          "internalType": "address",
          "name": "addr",
          "type": "address"
        }
      ],
      "name": "isAdmin",
      "outputs": [
        {
          "internalType": "bool",
          "name": "",
          "type": "bool"
        }
      ],
      "stateMutability": "view",
      "type": "function"
    },
    {
      "inputs": [
        {
          "internalType": "address",
          "name": "addr",
          "type": "address"
        }
      ],
      "name": "getRBBIdRaw",
      "outputs": [
        {
          "internalType": "uint256",
          "name": "",
          "type": "uint256"
        }
      ],
      "stateMutability": "view",
      "type": "function"
    },
    {
      "inputs": [
        {
          "internalType": "address",
          "name": "addr",
          "type": "address"
        }
      ],
      "name": "getCNPJ",
      "outputs": [
        {
          "internalType": "uint64",
          "name": "",
          "type": "uint64"
        }
      ],
      "stateMutability": "view",
      "type": "function"
    },
    {
      "inputs": [
        {
          "internalType": "address",
          "name": "addr",
          "type": "address"
        }
      ],
      "name": "getRegistry",
      "outputs": [
        {
          "internalType": "uint256",
          "name": "",
          "type": "uint256"
        },
        {
          "internalType": "uint64",
          "name": "",
          "type": "uint64"
        },
        {
          "internalType": "string",
          "name": "",
          "type": "string"
        },
        {
          "internalType": "uint256",
          "name": "",
          "type": "uint256"
        },
        {
          "internalType": "uint256",
          "name": "",
          "type": "uint256"
        },
        {
          "internalType": "bool",
          "name": "",
          "type": "bool"
        },
        {
          "internalType": "uint256",
          "name": "",
          "type": "uint256"
        }
      ],
      "stateMutability": "view",
      "type": "function"
    },
    {
      "inputs": [
        {
          "internalType": "uint256",
          "name": "RBBId",
          "type": "uint256"
        }
      ],
      "name": "getBlockchainAccounts",
      "outputs": [
        {
          "internalType": "address[]",
          "name": "",
          "type": "address[]"
        }
      ],
      "stateMutability": "view",
      "type": "function"
    },
    {
      "inputs": [
        {
          "internalType": "address",
          "name": "addr",
          "type": "address"
        }
      ],
      "name": "getAccountState",
      "outputs": [
        {
          "internalType": "int256",
          "name": "",
          "type": "int256"
        }
      ],
      "stateMutability": "view",
      "type": "function"
    },
    {
      "inputs": [
        {
          "internalType": "address",
          "name": "addr",
          "type": "address"
        }
      ],
      "name": "getAccountRole",
      "outputs": [
        {
          "internalType": "int256",
          "name": "",
          "type": "int256"
        }
      ],
      "stateMutability": "view",
      "type": "function"
    },
    {
      "inputs": [
        {
          "internalType": "uint64",
          "name": "cnpj",
          "type": "uint64"
        }
      ],
      "name": "getIdFromCNPJ",
      "outputs": [
        {
          "internalType": "uint256",
          "name": "",
          "type": "uint256"
        }
      ],
      "stateMutability": "view",
      "type": "function"
    },
    {
      "inputs": [
        {
          "internalType": "uint256",
          "name": "Id",
          "type": "uint256"
        }
      ],
      "name": "getCNPJbyID",
      "outputs": [
        {
          "internalType": "uint64",
          "name": "",
          "type": "uint64"
        }
      ],
      "stateMutability": "view",
      "type": "function"
    }
  ],
  "bytecode": "0x608060405260006003556301e133806004553480156200001e57600080fd5b506000620000316200015760201b60201c565b9050806000806101000a81548173ffffffffffffffffffffffffffffffffffffffff021916908373ffffffffffffffffffffffffffffffffffffffff1602179055508073ffffffffffffffffffffffffffffffffffffffff16600073ffffffffffffffffffffffffffffffffffffffff167f8be0079c531659141344cd1fd0a4f28419497f9722a3daafe3b4186f6b6457e060405160405180910390a35033600160006101000a81548173ffffffffffffffffffffffffffffffffffffffff021916908373ffffffffffffffffffffffffffffffffffffffff16021790555033600260006101000a81548173ffffffffffffffffffffffffffffffffffffffff021916908373ffffffffffffffffffffffffffffffffffffffff1602179055506200015f565b600033905090565b615f05806200016f6000396000f3fe608060405234801561001057600080fd5b50600436106102955760003560e01c806376222aa711610167578063a1c0101f116100ce578063caa7922c11610087578063caa7922c146110bd578063d208665714611101578063ee1244e31461114d578063f2fde38b1461117b578063f5822027146111bf578063f971d77c1461120357610295565b8063a1c0101f14610ebb578063a3d8845314610f07578063b6fc41fa14610f61578063bb39308614610fc3578063be49b78d1461103d578063c616f4c01461109f57610295565b80638c879eb1116101205780638c879eb114610d455780638cbd258f14610d735780638da5cb5b14610db75780638e97637e14610deb578063903ecc1914610e455780639ee2735b14610e6357610295565b806376222aa714610b0657806377df472c14610b525780637abbb59614610b965780637bf0bca614610bda57806381d66b2314610c1e5780638684b5ab14610c7657610295565b8063457385f21161020b5780636426a116116101c45780636426a1161461090157806365f68c891461095b57806367b03549146109b35780636c5eadae146109f75780636edcb12f14610a2b578063715018a614610afc57610295565b8063457385f21461073d578063466723e4146107975780634dd2d3fb146107f15780634f16ce0c1461081f5780634f72e059146108635780635b14f183146108a757610295565b806328f5ae231161025d57806328f5ae23146105085780632f54bf6e1461055857806331cc10ce146105b25780633632091b1461060a57806342b0ae50146106c5578063456ca9611461070957610295565b806307888b081461029a578063087d4427146102de5780630bf20e011461032257806324d7806c146103a557806326ff4794146103ff575b600080fd5b6102dc600480360360208110156102b057600080fd5b81019080803573ffffffffffffffffffffffffffffffffffffffff1690602001909291905050506112f6565b005b61030a600480360360208110156102f457600080fd5b8101908080359060200190929190505050611409565b60405180821515815260200191505060405180910390f35b61034e6004803603602081101561033857600080fd5b8101908080359060200190929190505050611518565b6040518080602001828103825283818151815260200191508051906020019060200280838360005b83811015610391578082015181840152602081019050610376565b505050509050019250505060405180910390f35b6103e7600480360360208110156103bb57600080fd5b81019080803573ffffffffffffffffffffffffffffffffffffffff1690602001909291905050506115b9565b60405180821515815260200191505060405180910390f35b6104416004803603602081101561041557600080fd5b81019080803573ffffffffffffffffffffffffffffffffffffffff16906020019092919050505061162a565b604051808881526020018767ffffffffffffffff1681526020018060200186600581111561046b57fe5b815260200185600181111561047c57fe5b81526020018415158152602001838152602001828103825287818151815260200191508051906020019080838360005b838110156104c75780820151818401526020810190506104ac565b50505050905090810190601f1680156104f45780820380516001836020036101000a031916815260200191505b509850505050505050505060405180910390f35b6105566004803603604081101561051e57600080fd5b81019080803573ffffffffffffffffffffffffffffffffffffffff16906020019092919080351515906020019092919050505061173f565b005b61059a6004803603602081101561056e57600080fd5b81019080803573ffffffffffffffffffffffffffffffffffffffff169060200190929190505050611c19565b60405180821515815260200191505060405180910390f35b6105f4600480360360208110156105c857600080fd5b81019080803573ffffffffffffffffffffffffffffffffffffffff169060200190929190505050611c58565b6040518082815260200191505060405180910390f35b6106c36004803603602081101561062057600080fd5b810190808035906020019064010000000081111561063d57600080fd5b82018360208201111561064f57600080fd5b8035906020019184600183028401116401000000008311171561067157600080fd5b91908080601f016020809104026020016040519081016040528093929190818152602001838380828437600081840152601f19601f820116905080830192505050505050509192919290505050611ca4565b005b610707600480360360208110156106db57600080fd5b81019080803573ffffffffffffffffffffffffffffffffffffffff169060200190929190505050611ff2565b005b6107116120a6565b604051808273ffffffffffffffffffffffffffffffffffffffff16815260200191505060405180910390f35b61077f6004803603602081101561075357600080fd5b81019080803573ffffffffffffffffffffffffffffffffffffffff1690602001909291905050506120cc565b60405180821515815260200191505060405180910390f35b6107d9600480360360208110156107ad57600080fd5b81019080803573ffffffffffffffffffffffffffffffffffffffff169060200190929190505050612102565b60405180821515815260200191505060405180910390f35b61081d6004803603602081101561080757600080fd5b8101908080359060200190929190505050612254565b005b6108616004803603602081101561083557600080fd5b81019080803573ffffffffffffffffffffffffffffffffffffffff16906020019092919050505061238d565b005b6108a56004803603602081101561087957600080fd5b81019080803573ffffffffffffffffffffffffffffffffffffffff1690602001909291905050506128c9565b005b6108e9600480360360208110156108bd57600080fd5b81019080803573ffffffffffffffffffffffffffffffffffffffff169060200190929190505050612a58565b60405180821515815260200191505060405180910390f35b6109436004803603602081101561091757600080fd5b81019080803573ffffffffffffffffffffffffffffffffffffffff169060200190929190505050612ab1565b60405180821515815260200191505060405180910390f35b61099d6004803603602081101561097157600080fd5b81019080803573ffffffffffffffffffffffffffffffffffffffff169060200190929190505050612b23565b6040518082815260200191505060405180910390f35b6109f5600480360360208110156109c957600080fd5b81019080803573ffffffffffffffffffffffffffffffffffffffff169060200190929190505050612b98565b005b6109ff612d25565b604051808273ffffffffffffffffffffffffffffffffffffffff16815260200191505060405180910390f35b610ae460048036036020811015610a4157600080fd5b8101908080359060200190640100000000811115610a5e57600080fd5b820183602082011115610a7057600080fd5b80359060200191846001830284011164010000000083111715610a9257600080fd5b91908080601f016020809104026020016040519081016040528093929190818152602001838380828437600081840152601f19601f820116905080830192505050505050509192919290505050612d4b565b60405180821515815260200191505060405180910390f35b610b04612f2e565b005b610b3c60048036036020811015610b1c57600080fd5b81019080803567ffffffffffffffff1690602001909291905050506130b4565b6040518082815260200191505060405180910390f35b610b9460048036036020811015610b6857600080fd5b81019080803573ffffffffffffffffffffffffffffffffffffffff1690602001909291905050506130cc565b005b610bd860048036036020811015610bac57600080fd5b81019080803573ffffffffffffffffffffffffffffffffffffffff1690602001909291905050506133c9565b005b610c1c60048036036020811015610bf057600080fd5b81019080803573ffffffffffffffffffffffffffffffffffffffff169060200190929190505050613522565b005b610c6060048036036020811015610c3457600080fd5b81019080803573ffffffffffffffffffffffffffffffffffffffff16906020019092919050505061376d565b6040518082815260200191505060405180910390f35b610d4360048036036040811015610c8c57600080fd5b81019080803567ffffffffffffffff16906020019092919080359060200190640100000000811115610cbd57600080fd5b820183602082011115610ccf57600080fd5b80359060200191846001830284011164010000000083111715610cf157600080fd5b91908080601f016020809104026020016040519081016040528093929190818152602001838380828437600081840152601f19601f8201169050808301925050505050505091929192905050506137d1565b005b610d7160048036036020811015610d5b57600080fd5b8101908080359060200190929190505050613d2d565b005b610db560048036036020811015610d8957600080fd5b81019080803573ffffffffffffffffffffffffffffffffffffffff169060200190929190505050613fc1565b005b610dbf61411a565b604051808273ffffffffffffffffffffffffffffffffffffffff16815260200191505060405180910390f35b610e2d60048036036020811015610e0157600080fd5b81019080803573ffffffffffffffffffffffffffffffffffffffff169060200190929190505050614143565b60405180821515815260200191505060405180910390f35b610e4d6141b4565b6040518082815260200191505060405180910390f35b610ea560048036036020811015610e7957600080fd5b81019080803573ffffffffffffffffffffffffffffffffffffffff1690602001909291905050506141ba565b6040518082815260200191505060405180910390f35b610ef160048036036020811015610ed157600080fd5b81019080803567ffffffffffffffff16906020019092919050505061421e565b6040518082815260200191505060405180910390f35b610f4960048036036020811015610f1d57600080fd5b81019080803573ffffffffffffffffffffffffffffffffffffffff16906020019092919050505061424f565b60405180821515815260200191505060405180910390f35b610f9760048036036040811015610f7757600080fd5b8101908080359060200190929190803590602001909291905050506142c0565b604051808273ffffffffffffffffffffffffffffffffffffffff16815260200191505060405180910390f35b61102560048036036040811015610fd957600080fd5b81019080803573ffffffffffffffffffffffffffffffffffffffff169060200190929190803573ffffffffffffffffffffffffffffffffffffffff16906020019092919050505061430b565b60405180821515815260200191505060405180910390f35b61107f6004803603602081101561105357600080fd5b81019080803573ffffffffffffffffffffffffffffffffffffffff1690602001909291905050506143d8565b604051808267ffffffffffffffff16815260200191505060405180910390f35b6110a7614438565b6040518082815260200191505060405180910390f35b6110ff600480360360208110156110d357600080fd5b81019080803573ffffffffffffffffffffffffffffffffffffffff16906020019092919050505061443e565b005b61112d6004803603602081101561111757600080fd5b81019080803590602001909291905050506147e8565b604051808267ffffffffffffffff16815260200191505060405180910390f35b6111796004803603602081101561116357600080fd5b8101908080359060200190929190505050614896565b005b6111bd6004803603602081101561119157600080fd5b81019080803573ffffffffffffffffffffffffffffffffffffffff169060200190929190505050614a3c565b005b611201600480360360208110156111d557600080fd5b81019080803573ffffffffffffffffffffffffffffffffffffffff169060200190929190505050614c47565b005b6112456004803603602081101561121957600080fd5b81019080803573ffffffffffffffffffffffffffffffffffffffff169060200190929190505050614eb8565b604051808881526020018767ffffffffffffffff168152602001806020018681526020018581526020018415158152602001838152602001828103825287818151815260200191508051906020019080838360005b838110156112b557808201518184015260208101905061129a565b50505050905090810190601f1680156112e25780820380516001836020036101000a031916815260200191505b509850505050505050505060405180910390f35b3373ffffffffffffffffffffffffffffffffffffffff16600260009054906101000a900473ffffffffffffffffffffffffffffffffffffffff1673ffffffffffffffffffffffffffffffffffffffff161461139c576040517f08c379a00000000000000000000000000000000000000000000000000000000081526004018080602001828103825260678152602001806158cb6067913960800191505060405180910390fd5b6113a581614143565b156113fb576040517f08c379a0000000000000000000000000000000000000000000000000000000008152600401808060200182810382526023815260200180615b556023913960400191505060405180910390fd5b6114068160036150cd565b50565b60006060600660008481526020019081526020016000208054806020026020016040519081016040528092919081815260200182805480156114a057602002820191906000526020600020905b8160009054906101000a900473ffffffffffffffffffffffffffffffffffffffff1673ffffffffffffffffffffffffffffffffffffffff1681526020019060010190808311611456575b5050505050905060005b8151811015611510576114cf8282815181106114c257fe5b60200260200101516120cc565b80156114f357506114f28282815181106114e557fe5b60200260200101516115b9565b5b1561150357600192505050611513565b80806001019150506114aa565b50505b919050565b6060600660008381526020019081526020016000208054806020026020016040519081016040528092919081815260200182805480156115ad57602002820191906000526020600020905b8160009054906101000a900473ffffffffffffffffffffffffffffffffffffffff1673ffffffffffffffffffffffffffffffffffffffff1681526020019060010190808311611563575b50505050509050919050565b60006001808111156115c757fe5b600560008473ffffffffffffffffffffffffffffffffffffffff1673ffffffffffffffffffffffffffffffffffffffff16815260200190815260200160002060030160019054906101000a900460ff16600181111561162257fe5b149050919050565b60056020528060005260406000206000915090508060000154908060010160009054906101000a900467ffffffffffffffff1690806002018054600181600116156101000203166002900480601f0160208091040260200160405190810160405280929190818152602001828054600181600116156101000203166002900480156116f65780601f106116cb576101008083540402835291602001916116f6565b820191906000526020600020905b8154815290600101906020018083116116d957829003601f168201915b5050505050908060030160009054906101000a900460ff16908060030160019054906101000a900460ff16908060030160029054906101000a900460ff16908060040154905087565b3373ffffffffffffffffffffffffffffffffffffffff16600160009054906101000a900473ffffffffffffffffffffffffffffffffffffffff1673ffffffffffffffffffffffffffffffffffffffff16146117e5576040517f08c379a0000000000000000000000000000000000000000000000000000000008152600401808060200182810382526048815260200180615dc96048913960600191505060405180910390fd5b6000339050600160058111156117f757fe5b600560008573ffffffffffffffffffffffffffffffffffffffff1673ffffffffffffffffffffffffffffffffffffffff16815260200190815260200160002060030160009054906101000a900460ff16600581111561185257fe5b146118a8576040517f08c379a0000000000000000000000000000000000000000000000000000000008152600401808060200182810382526036815260200180615bd16036913960400191505060405180910390fd5b6118b1836115b9565b611906576040517f08c379a000000000000000000000000000000000000000000000000000000000815260040180806020018281038252602b815260200180615d9e602b913960400191505060405180910390fd5b8115611a92576002600560008573ffffffffffffffffffffffffffffffffffffffff1673ffffffffffffffffffffffffffffffffffffffff16815260200190815260200160002060030160006101000a81548160ff0219169083600581111561196b57fe5b02179055507f88a401630afd2c730097d0a0f3a014c6e7cc6db68bb1b13d4e1a37622b44518183600560008673ffffffffffffffffffffffffffffffffffffffff1673ffffffffffffffffffffffffffffffffffffffff16815260200190815260200160002060000154600560008773ffffffffffffffffffffffffffffffffffffffff1673ffffffffffffffffffffffffffffffffffffffff16815260200190815260200160002060010160009054906101000a900467ffffffffffffffff1684604051808573ffffffffffffffffffffffffffffffffffffffff1681526020018481526020018367ffffffffffffffff1681526020018273ffffffffffffffffffffffffffffffffffffffff16815260200194505050505060405180910390a1611c14565b6003600560008573ffffffffffffffffffffffffffffffffffffffff1673ffffffffffffffffffffffffffffffffffffffff16815260200190815260200160002060030160006101000a81548160ff02191690836005811115611af157fe5b02179055507f59567b1124b6234e30f0a452574ad973b93bff3b825fb38e284fb8bc9b0c104b83600560008673ffffffffffffffffffffffffffffffffffffffff1673ffffffffffffffffffffffffffffffffffffffff16815260200190815260200160002060000154600560008773ffffffffffffffffffffffffffffffffffffffff1673ffffffffffffffffffffffffffffffffffffffff16815260200190815260200160002060010160009054906101000a900467ffffffffffffffff1684604051808573ffffffffffffffffffffffffffffffffffffffff1681526020018481526020018367ffffffffffffffff1681526020018273ffffffffffffffffffffffffffffffffffffffff16815260200194505050505060405180910390a15b505050565b60008173ffffffffffffffffffffffffffffffffffffffff16611c3a61411a565b73ffffffffffffffffffffffffffffffffffffffff16149050919050565b6000600560008373ffffffffffffffffffffffffffffffffffffffff1673ffffffffffffffffffffffffffffffffffffffff168152602001908152602001600020600001549050919050565b6000339050611cb282612d4b565b611d07576040517f08c379a0000000000000000000000000000000000000000000000000000000008152600401808060200182810382526023815260200180615bae6023913960400191505060405180910390fd5b611d108161424f565b15611d66576040517f08c379a00000000000000000000000000000000000000000000000000000000081526004018080602001828103825260358152602001806158706035913960400191505060405180910390fd5b611d6f81614143565b15611dc5576040517f08c379a0000000000000000000000000000000000000000000000000000000008152600401808060200182810382526027815260200180615d426027913960400191505060405180910390fd5b60006004544201905082600560008473ffffffffffffffffffffffffffffffffffffffff1673ffffffffffffffffffffffffffffffffffffffff1681526020019081526020016000206002019080519060200190611e24929190615718565b506001600560008473ffffffffffffffffffffffffffffffffffffffff1673ffffffffffffffffffffffffffffffffffffffff16815260200190815260200160002060030160006101000a81548160ff02191690836005811115611e8457fe5b021790555080600560008473ffffffffffffffffffffffffffffffffffffffff1673ffffffffffffffffffffffffffffffffffffffff168152602001908152602001600020600401819055506000600560008473ffffffffffffffffffffffffffffffffffffffff1673ffffffffffffffffffffffffffffffffffffffff16815260200190815260200160002060030160026101000a81548160ff0219169083151502179055507ff492947317cd8bacaf07d8d493aa37edfc267531f5c311a42eaf0b68d332f38b828483604051808473ffffffffffffffffffffffffffffffffffffffff16815260200180602001838152602001828103825284818151815260200191508051906020019080838360005b83811015611fb1578082015181840152602081019050611f96565b50505050905090810190601f168015611fde5780820380516001836020036101000a031916815260200191505b5094505050505060405180910390a1505050565b3373ffffffffffffffffffffffffffffffffffffffff16600260009054906101000a900473ffffffffffffffffffffffffffffffffffffffff1673ffffffffffffffffffffffffffffffffffffffff1614612098576040517f08c379a00000000000000000000000000000000000000000000000000000000081526004018080602001828103825260678152602001806158cb6067913960800191505060405180910390fd5b6120a381600261525c565b50565b600160009054906101000a900473ffffffffffffffffffffffffffffffffffffffff1681565b60006120d782612ab1565b80156120e957506120e782612a58565b155b80156120fb57506120f9826154a0565b155b9050919050565b60006001600581111561211157fe5b600560008473ffffffffffffffffffffffffffffffffffffffff1673ffffffffffffffffffffffffffffffffffffffff16815260200190815260200160002060030160009054906101000a900460ff16600581111561216c57fe5b14806121dd57506002600581111561218057fe5b600560008473ffffffffffffffffffffffffffffffffffffffff1673ffffffffffffffffffffffffffffffffffffffff16815260200190815260200160002060030160009054906101000a900460ff1660058111156121db57fe5b145b8061224d5750600360058111156121f057fe5b600560008473ffffffffffffffffffffffffffffffffffffffff1673ffffffffffffffffffffffffffffffffffffffff16815260200190815260200160002060030160009054906101000a900460ff16600581111561224b57fe5b145b9050919050565b61225c6154ee565b73ffffffffffffffffffffffffffffffffffffffff1660008054906101000a900473ffffffffffffffffffffffffffffffffffffffff1673ffffffffffffffffffffffffffffffffffffffff161461231c576040517f08c379a00000000000000000000000000000000000000000000000000000000081526004018080602001828103825260208152602001807f4f776e61626c653a2063616c6c6572206973206e6f7420746865206f776e657281525060200191505060405180910390fd5b60006004549050816004819055507f33e73778e90a0a7d35d5d4332f4668b1fcff659529950c30f760a39ba49fafec3382600454604051808473ffffffffffffffffffffffffffffffffffffffff168152602001838152602001828152602001935050505060405180910390a15050565b61239633612a58565b156123ec576040517f08c379a000000000000000000000000000000000000000000000000000000000815260040180806020018281038252603a815260200180615966603a913960400191505060405180910390fd5b6123f5336154a0565b61244a576040517f08c379a0000000000000000000000000000000000000000000000000000000008152600401808060200182810382526065815260200180615ac26065913960800191505060405180910390fd5b61245333612ab1565b6124a8576040517f08c379a0000000000000000000000000000000000000000000000000000000008152600401808060200182810382526036815260200180615b786036913960400191505060405180910390fd5b60003390506124b6816115b9565b61250b576040517f08c379a0000000000000000000000000000000000000000000000000000000008152600401808060200182810382526036815260200180615e116036913960400191505060405180910390fd5b61251482612102565b612569576040517f08c379a00000000000000000000000000000000000000000000000000000000081526004018080602001828103825260348152602001806159326034913960400191505060405180910390fd5b61257282612a58565b156125c8576040517f08c379a0000000000000000000000000000000000000000000000000000000008152600401808060200182810382526033815260200180615a256033913960400191505060405180910390fd5b6125d1826154a0565b15612627576040517f08c379a0000000000000000000000000000000000000000000000000000000008152600401808060200182810382526034815260200180615c076034913960400191505060405180910390fd5b6000600181111561263457fe5b600560008473ffffffffffffffffffffffffffffffffffffffff1673ffffffffffffffffffffffffffffffffffffffff16815260200190815260200160002060030160019054906101000a900460ff16600181111561268f57fe5b146126e5576040517f08c379a0000000000000000000000000000000000000000000000000000000008152600401808060200182810382526032815260200180615e476032913960400191505060405180910390fd5b6126ef818361430b565b612744576040517f08c379a000000000000000000000000000000000000000000000000000000000815260040180806020018281038252604c815260200180615ccc604c913960600191505060405180910390fd5b6004600560008473ffffffffffffffffffffffffffffffffffffffff1673ffffffffffffffffffffffffffffffffffffffff16815260200190815260200160002060030160006101000a81548160ff021916908360058111156127a357fe5b02179055507f90e796ddecc580ca3db3277073bdbf5d9c3eac364c19683d78a0bb129021360b82600560008573ffffffffffffffffffffffffffffffffffffffff1673ffffffffffffffffffffffffffffffffffffffff16815260200190815260200160002060000154600560008673ffffffffffffffffffffffffffffffffffffffff1673ffffffffffffffffffffffffffffffffffffffff16815260200190815260200160002060010160009054906101000a900467ffffffffffffffff1684604051808573ffffffffffffffffffffffffffffffffffffffff1681526020018481526020018367ffffffffffffffff1681526020018273ffffffffffffffffffffffffffffffffffffffff16815260200194505050505060405180910390a15050565b3373ffffffffffffffffffffffffffffffffffffffff16600260009054906101000a900473ffffffffffffffffffffffffffffffffffffffff1673ffffffffffffffffffffffffffffffffffffffff161461296f576040517f08c379a00000000000000000000000000000000000000000000000000000000081526004018080602001828103825260678152602001806158cb6067913960800191505060405180910390fd5b61297881614143565b156129ce576040517f08c379a0000000000000000000000000000000000000000000000000000000008152600401808060200182810382526029815260200180615a586029913960400191505060405180910390fd5b6129d781612a58565b15612a4a576040517f08c379a00000000000000000000000000000000000000000000000000000000081526004018080602001828103825260178152602001807f436f6e7461206ac3a120657374c3a1207061757361646100000000000000000081525060200191505060405180910390fd5b612a558160026154f6565b50565b6000600560008373ffffffffffffffffffffffffffffffffffffffff1673ffffffffffffffffffffffffffffffffffffffff16815260200190815260200160002060030160029054906101000a900460ff169050919050565b600060046005811115612ac057fe5b600560008473ffffffffffffffffffffffffffffffffffffffff1673ffffffffffffffffffffffffffffffffffffffff16815260200190815260200160002060030160009054906101000a900460ff166005811115612b1b57fe5b149050919050565b600080612b2f83611c58565b9050612b3a81611409565b612b8f576040517f08c379a0000000000000000000000000000000000000000000000000000000008152600401808060200182810382526026815260200180615eaa6026913960400191505060405180910390fd5b80915050919050565b3373ffffffffffffffffffffffffffffffffffffffff16600160009054906101000a900473ffffffffffffffffffffffffffffffffffffffff1673ffffffffffffffffffffffffffffffffffffffff1614612c3e576040517f08c379a0000000000000000000000000000000000000000000000000000000008152600401808060200182810382526048815260200180615dc96048913960600191505060405180910390fd5b612c4781612102565b612c9c576040517f08c379a000000000000000000000000000000000000000000000000000000000815260040180806020018281038252603681526020018061583a6036913960400191505060405180910390fd5b612ca5816115b9565b612d17576040517f08c379a000000000000000000000000000000000000000000000000000000000815260040180806020018281038252601b8152602001807f496e76616c696461206170656e617320636f6e74612041444d494e000000000081525060200191505060405180910390fd5b612d228160026150cd565b50565b600260009054906101000a900473ffffffffffffffffffffffffffffffffffffffff1681565b600060608290506040815114612d65576000915050612f29565b60005b6040811015612f22577f3000000000000000000000000000000000000000000000000000000000000000828281518110612d9e57fe5b602001015160f81c60f81b7effffffffffffffffffffffffffffffffffffffffffffffffffffffffffffff19161015612ddc57600092505050612f29565b7f3900000000000000000000000000000000000000000000000000000000000000828281518110612e0957fe5b602001015160f81c60f81b7effffffffffffffffffffffffffffffffffffffffffffffffffffffffffffff1916118015612e9a57507f6100000000000000000000000000000000000000000000000000000000000000828281518110612e6b57fe5b602001015160f81c60f81b7effffffffffffffffffffffffffffffffffffffffffffffffffffffffffffff1916105b15612eaa57600092505050612f29565b7f6600000000000000000000000000000000000000000000000000000000000000828281518110612ed757fe5b602001015160f81c60f81b7effffffffffffffffffffffffffffffffffffffffffffffffffffffffffffff19161115612f1557600092505050612f29565b8080600101915050612d68565b5060019150505b919050565b612f366154ee565b73ffffffffffffffffffffffffffffffffffffffff1660008054906101000a900473ffffffffffffffffffffffffffffffffffffffff1673ffffffffffffffffffffffffffffffffffffffff1614612ff6576040517f08c379a00000000000000000000000000000000000000000000000000000000081526004018080602001828103825260208152602001807f4f776e61626c653a2063616c6c6572206973206e6f7420746865206f776e657281525060200191505060405180910390fd5b600073ffffffffffffffffffffffffffffffffffffffff1660008054906101000a900473ffffffffffffffffffffffffffffffffffffffff1673ffffffffffffffffffffffffffffffffffffffff167f8be0079c531659141344cd1fd0a4f28419497f9722a3daafe3b4186f6b6457e060405160405180910390a360008060006101000a81548173ffffffffffffffffffffffffffffffffffffffff021916908373ffffffffffffffffffffffffffffffffffffffff160217905550565b60076020528060005260406000206000915090505481565b6130d533612a58565b1561312b576040517f08c379a000000000000000000000000000000000000000000000000000000000815260040180806020018281038252603a815260200180615966603a913960400191505060405180910390fd5b613134336154a0565b613189576040517f08c379a0000000000000000000000000000000000000000000000000000000008152600401808060200182810382526065815260200180615ac26065913960800191505060405180910390fd5b61319233612ab1565b6131e7576040517f08c379a0000000000000000000000000000000000000000000000000000000008152600401808060200182810382526036815260200180615b786036913960400191505060405180910390fd5b60003390506131f582614143565b1561324b576040517f08c379a0000000000000000000000000000000000000000000000000000000008152600401808060200182810382526029815260200180615a586029913960400191505060405180910390fd5b61325482612a58565b156132c7576040517f08c379a00000000000000000000000000000000000000000000000000000000081526004018080602001828103825260178152602001807f436f6e7461206ac3a120657374c3a1207061757361646100000000000000000081525060200191505060405180910390fd5b6132d1818361430b565b613326576040517f08c379a000000000000000000000000000000000000000000000000000000000815260040180806020018281038252603e8152602001806159a0603e913960400191505060405180910390fd5b8073ffffffffffffffffffffffffffffffffffffffff168273ffffffffffffffffffffffffffffffffffffffff1614806133655750613364816115b9565b5b6133ba576040517f08c379a00000000000000000000000000000000000000000000000000000000081526004018080602001828103825260258152602001806158156025913960400191505060405180910390fd5b6133c58260016154f6565b5050565b6133d16154ee565b73ffffffffffffffffffffffffffffffffffffffff1660008054906101000a900473ffffffffffffffffffffffffffffffffffffffff1673ffffffffffffffffffffffffffffffffffffffff1614613491576040517f08c379a00000000000000000000000000000000000000000000000000000000081526004018080602001828103825260208152602001807f4f776e61626c653a2063616c6c6572206973206e6f7420746865206f776e657281525060200191505060405180910390fd5b80600260006101000a81548173ffffffffffffffffffffffffffffffffffffffff021916908373ffffffffffffffffffffffffffffffffffffffff1602179055507fe8940ba94a1b862af0a845755bbe38516264b7937dc69ffdb00fa16bb9c2c85f81604051808273ffffffffffffffffffffffffffffffffffffffff16815260200191505060405180910390a150565b61352b33612a58565b15613581576040517f08c379a000000000000000000000000000000000000000000000000000000000815260040180806020018281038252603a815260200180615966603a913960400191505060405180910390fd5b61358a336154a0565b6135df576040517f08c379a0000000000000000000000000000000000000000000000000000000008152600401808060200182810382526065815260200180615ac26065913960800191505060405180910390fd5b6135e833612ab1565b61363d576040517f08c379a0000000000000000000000000000000000000000000000000000000008152600401808060200182810382526036815260200180615b786036913960400191505060405180910390fd5b600033905061364b816115b9565b6136a0576040517f08c379a000000000000000000000000000000000000000000000000000000000815260040180806020018281038252602a815260200180615d18602a913960400191505060405180910390fd5b6136a982614143565b156136ff576040517f08c379a0000000000000000000000000000000000000000000000000000000008152600401808060200182810382526023815260200180615b556023913960400191505060405180910390fd5b613709818361430b565b61375e576040517f08c379a000000000000000000000000000000000000000000000000000000000815260040180806020018281038252603a815260200180615c65603a913960400191505060405180910390fd5b6137698260016150cd565b5050565b6000600560008373ffffffffffffffffffffffffffffffffffffffff1673ffffffffffffffffffffffffffffffffffffffff16815260200190815260200160002060030160019054906101000a900460ff1660018111156137ca57fe5b9050919050565b60003390506137df82612d4b565b613834576040517f08c379a0000000000000000000000000000000000000000000000000000000008152600401808060200182810382526023815260200180615bae6023913960400191505060405180910390fd5b61383d8161424f565b613892576040517f08c379a0000000000000000000000000000000000000000000000000000000008152600401808060200182810382526035815260200180615d696035913960400191505060405180910390fd5b60006004544201905060006138a68561567d565b90506040518060400160405280600181526020017f30000000000000000000000000000000000000000000000000000000000000008152508051906020012084805190602001201415613a64576040518060e001604052808281526020018667ffffffffffffffff1681526020018581526020016001600581111561392757fe5b81526020016000600181111561393957fe5b815260200160001515815260200183815250600560008573ffffffffffffffffffffffffffffffffffffffff1673ffffffffffffffffffffffffffffffffffffffff1681526020019081526020016000206000820151816000015560208201518160010160006101000a81548167ffffffffffffffff021916908367ffffffffffffffff16021790555060408201518160020190805190602001906139df929190615718565b5060608201518160030160006101000a81548160ff02191690836005811115613a0457fe5b021790555060808201518160030160016101000a81548160ff02191690836001811115613a2d57fe5b021790555060a08201518160030160026101000a81548160ff02191690831515021790555060c08201518160040155905050613bd0565b6040518060e001604052808281526020018667ffffffffffffffff16815260200185815260200160016005811115613a9857fe5b8152602001600180811115613aa957fe5b815260200160001515815260200183815250600560008573ffffffffffffffffffffffffffffffffffffffff1673ffffffffffffffffffffffffffffffffffffffff1681526020019081526020016000206000820151816000015560208201518160010160006101000a81548167ffffffffffffffff021916908367ffffffffffffffff1602179055506040820151816002019080519060200190613b4f929190615718565b5060608201518160030160006101000a81548160ff02191690836005811115613b7457fe5b021790555060808201518160030160016101000a81548160ff02191690836001811115613b9d57fe5b021790555060a08201518160030160026101000a81548160ff02191690831515021790555060c082015181600401559050505b60066000828152602001908152602001600020839080600181540180825580915050600190039060005260206000200160009091909190916101000a81548173ffffffffffffffffffffffffffffffffffffffff021916908373ffffffffffffffffffffffffffffffffffffffff16021790555060608490507fdf705ffb67f3c12f456a843de9785cb8435e6819b1974e5df6de4557ae2f52f68483888487604051808673ffffffffffffffffffffffffffffffffffffffff1681526020018581526020018467ffffffffffffffff16815260200180602001838152602001828103825284818151815260200191508051906020019080838360005b83811015613ce7578082015181840152602081019050613ccc565b50505050905090810190601f168015613d145780820380516001836020036101000a031916815260200191505b50965050505050505060405180910390a1505050505050565b613d3633612a58565b15613d8c576040517f08c379a000000000000000000000000000000000000000000000000000000000815260040180806020018281038252603a815260200180615966603a913960400191505060405180910390fd5b613d95336154a0565b613dea576040517f08c379a0000000000000000000000000000000000000000000000000000000008152600401808060200182810382526065815260200180615ac26065913960800191505060405180910390fd5b613df333612ab1565b613e48576040517f08c379a0000000000000000000000000000000000000000000000000000000008152600401808060200182810382526036815260200180615b786036913960400191505060405180910390fd5b6000339050606060066000848152602001908152602001600020805480602002602001604051908101604052809291908181526020018280548015613ee257602002820191906000526020600020905b8160009054906101000a900473ffffffffffffffffffffffffffffffffffffffff1673ffffffffffffffffffffffffffffffffffffffff1681526020019060010190808311613e98575b50505050509050613f078282600081518110613efa57fe5b602002602001015161430b565b613f5c576040517f08c379a000000000000000000000000000000000000000000000000000000000815260040180806020018281038252603e8152602001806159a0603e913960400191505060405180910390fd5b60005b8151811015613fbb576000828281518110613f7657fe5b60200260200101519050613f8981614143565b158015613f9c5750613f9a81612a58565b155b15613fad57613fac8160036154f6565b5b508080600101915050613f5f565b50505050565b613fc96154ee565b73ffffffffffffffffffffffffffffffffffffffff1660008054906101000a900473ffffffffffffffffffffffffffffffffffffffff1673ffffffffffffffffffffffffffffffffffffffff1614614089576040517f08c379a00000000000000000000000000000000000000000000000000000000081526004018080602001828103825260208152602001807f4f776e61626c653a2063616c6c6572206973206e6f7420746865206f776e657281525060200191505060405180910390fd5b80600160006101000a81548173ffffffffffffffffffffffffffffffffffffffff021916908373ffffffffffffffffffffffffffffffffffffffff1602179055507fab616eba0b7070d2d87e12d5c2d05868da9a14a38db4c54abb148faa879bdf6281604051808273ffffffffffffffffffffffffffffffffffffffff16815260200191505060405180910390a150565b60008060009054906101000a900473ffffffffffffffffffffffffffffffffffffffff16905090565b600060058081111561415157fe5b600560008473ffffffffffffffffffffffffffffffffffffffff1673ffffffffffffffffffffffffffffffffffffffff16815260200190815260200160002060030160009054906101000a900460ff1660058111156141ac57fe5b149050919050565b60045481565b6000600560008373ffffffffffffffffffffffffffffffffffffffff1673ffffffffffffffffffffffffffffffffffffffff16815260200190815260200160002060030160009054906101000a900460ff16600581111561421757fe5b9050919050565b6000600760008367ffffffffffffffff1667ffffffffffffffff168152602001908152602001600020549050919050565b600080600581111561425d57fe5b600560008473ffffffffffffffffffffffffffffffffffffffff1673ffffffffffffffffffffffffffffffffffffffff16815260200190815260200160002060030160009054906101000a900460ff1660058111156142b857fe5b149050919050565b600660205281600052604060002081815481106142d957fe5b906000526020600020016000915091509054906101000a900473ffffffffffffffffffffffffffffffffffffffff1681565b6000600560008373ffffffffffffffffffffffffffffffffffffffff1673ffffffffffffffffffffffffffffffffffffffff16815260200190815260200160002060010160009054906101000a900467ffffffffffffffff1667ffffffffffffffff16600560008573ffffffffffffffffffffffffffffffffffffffff1673ffffffffffffffffffffffffffffffffffffffff16815260200190815260200160002060010160009054906101000a900467ffffffffffffffff1667ffffffffffffffff1614905092915050565b6000600560008373ffffffffffffffffffffffffffffffffffffffff1673ffffffffffffffffffffffffffffffffffffffff16815260200190815260200160002060010160009054906101000a900467ffffffffffffffff169050919050565b60035481565b3373ffffffffffffffffffffffffffffffffffffffff16600160009054906101000a900473ffffffffffffffffffffffffffffffffffffffff1673ffffffffffffffffffffffffffffffffffffffff16146144e4576040517f08c379a0000000000000000000000000000000000000000000000000000000008152600401808060200182810382526048815260200180615dc96048913960600191505060405180910390fd5b60003390506144f282612102565b614547576040517f08c379a000000000000000000000000000000000000000000000000000000000815260040180806020018281038252602a815260200180615c3b602a913960400191505060405180910390fd5b61455082612a58565b156145a6576040517f08c379a0000000000000000000000000000000000000000000000000000000008152600401808060200182810382526033815260200180615a256033913960400191505060405180910390fd5b6145af826154a0565b15614605576040517f08c379a0000000000000000000000000000000000000000000000000000000008152600401808060200182810382526034815260200180615c076034913960400191505060405180910390fd5b61460e826115b9565b614663576040517f08c379a000000000000000000000000000000000000000000000000000000000815260040180806020018281038252602b815260200180615d9e602b913960400191505060405180910390fd5b6004600560008473ffffffffffffffffffffffffffffffffffffffff1673ffffffffffffffffffffffffffffffffffffffff16815260200190815260200160002060030160006101000a81548160ff021916908360058111156146c257fe5b02179055507f90e796ddecc580ca3db3277073bdbf5d9c3eac364c19683d78a0bb129021360b82600560008573ffffffffffffffffffffffffffffffffffffffff1673ffffffffffffffffffffffffffffffffffffffff16815260200190815260200160002060000154600560008673ffffffffffffffffffffffffffffffffffffffff1673ffffffffffffffffffffffffffffffffffffffff16815260200190815260200160002060010160009054906101000a900467ffffffffffffffff1684604051808573ffffffffffffffffffffffffffffffffffffffff1681526020018481526020018367ffffffffffffffff1681526020018273ffffffffffffffffffffffffffffffffffffffff16815260200194505050505060405180910390a15050565b6000806006600084815260200190815260200160002060008154811061480a57fe5b9060005260206000200160009054906101000a900473ffffffffffffffffffffffffffffffffffffffff169050600560008273ffffffffffffffffffffffffffffffffffffffff1673ffffffffffffffffffffffffffffffffffffffff16815260200190815260200160002060010160009054906101000a900467ffffffffffffffff16915050919050565b3373ffffffffffffffffffffffffffffffffffffffff16600260009054906101000a900473ffffffffffffffffffffffffffffffffffffffff1673ffffffffffffffffffffffffffffffffffffffff161461493c576040517f08c379a00000000000000000000000000000000000000000000000000000000081526004018080602001828103825260678152602001806158cb6067913960800191505060405180910390fd5b6060600660008381526020019081526020016000208054806020026020016040519081016040528092919081815260200182805480156149d157602002820191906000526020600020905b8160009054906101000a900473ffffffffffffffffffffffffffffffffffffffff1673ffffffffffffffffffffffffffffffffffffffff1681526020019060010190808311614987575b5050505050905060005b8151811015614a375760008282815181106149f257fe5b60200260200101519050614a0581614143565b158015614a185750614a1681612a58565b155b15614a2957614a288160046154f6565b5b5080806001019150506149db565b505050565b614a446154ee565b73ffffffffffffffffffffffffffffffffffffffff1660008054906101000a900473ffffffffffffffffffffffffffffffffffffffff1673ffffffffffffffffffffffffffffffffffffffff1614614b04576040517f08c379a00000000000000000000000000000000000000000000000000000000081526004018080602001828103825260208152602001807f4f776e61626c653a2063616c6c6572206973206e6f7420746865206f776e657281525060200191505060405180910390fd5b600073ffffffffffffffffffffffffffffffffffffffff168173ffffffffffffffffffffffffffffffffffffffff161415614b8a576040517f08c379a00000000000000000000000000000000000000000000000000000000081526004018080602001828103825260268152602001806158a56026913960400191505060405180910390fd5b8073ffffffffffffffffffffffffffffffffffffffff1660008054906101000a900473ffffffffffffffffffffffffffffffffffffffff1673ffffffffffffffffffffffffffffffffffffffff167f8be0079c531659141344cd1fd0a4f28419497f9722a3daafe3b4186f6b6457e060405160405180910390a3806000806101000a81548173ffffffffffffffffffffffffffffffffffffffff021916908373ffffffffffffffffffffffffffffffffffffffff16021790555050565b614c5033612a58565b15614ca6576040517f08c379a000000000000000000000000000000000000000000000000000000000815260040180806020018281038252603a815260200180615966603a913960400191505060405180910390fd5b614caf336154a0565b614d04576040517f08c379a0000000000000000000000000000000000000000000000000000000008152600401808060200182810382526065815260200180615ac26065913960800191505060405180910390fd5b614d0d33612ab1565b614d62576040517f08c379a0000000000000000000000000000000000000000000000000000000008152600401808060200182810382526036815260200180615b786036913960400191505060405180910390fd5b6000339050614d70826115b9565b614dc5576040517f08c379a0000000000000000000000000000000000000000000000000000000008152600401808060200182810382526031815260200180615e796031913960400191505060405180910390fd5b8173ffffffffffffffffffffffffffffffffffffffff168173ffffffffffffffffffffffffffffffffffffffff161415614e4a576040517f08c379a0000000000000000000000000000000000000000000000000000000008152600401808060200182810382526041815260200180615a816041913960600191505060405180910390fd5b614e54818361430b565b614ea9576040517f08c379a00000000000000000000000000000000000000000000000000000000081526004018080602001828103825260478152602001806159de6047913960600191505060405180910390fd5b614eb482600161525c565b5050565b6000806060600080600080614ecb615798565b600560008a73ffffffffffffffffffffffffffffffffffffffff1673ffffffffffffffffffffffffffffffffffffffff1681526020019081526020016000206040518060e0016040529081600082015481526020016001820160009054906101000a900467ffffffffffffffff1667ffffffffffffffff1667ffffffffffffffff168152602001600282018054600181600116156101000203166002900480601f016020809104026020016040519081016040528092919081815260200182805460018160011615610100020316600290048015614fea5780601f10614fbf57610100808354040283529160200191614fea565b820191906000526020600020905b815481529060010190602001808311614fcd57829003601f168201915b505050505081526020016003820160009054906101000a900460ff16600581111561501157fe5b600581111561501c57fe5b81526020016003820160019054906101000a900460ff16600181111561503e57fe5b600181111561504957fe5b81526020016003820160029054906101000a900460ff16151515158152602001600482015481525050905060608160400151905081600001518260200151828460600151600581111561509857fe5b856080015160018111156150a857fe5b8660a001518760c0015198509850985098509850985098505050919395979092949650565b60058060008473ffffffffffffffffffffffffffffffffffffffff1673ffffffffffffffffffffffffffffffffffffffff16815260200190815260200160002060030160006101000a81548160ff0219169083600581111561512b57fe5b02179055507ff21c6489d7501ed8680a8057bde75d0b1a96ed72c4e7fb66dab5500b247f573b82600560008573ffffffffffffffffffffffffffffffffffffffff1673ffffffffffffffffffffffffffffffffffffffff16815260200190815260200160002060000154600560008673ffffffffffffffffffffffffffffffffffffffff1673ffffffffffffffffffffffffffffffffffffffff16815260200190815260200160002060010160009054906101000a900467ffffffffffffffff163385604051808673ffffffffffffffffffffffffffffffffffffffff1681526020018581526020018467ffffffffffffffff1681526020018373ffffffffffffffffffffffffffffffffffffffff1681526020018260ff1681526020019550505050505060405180910390a15050565b61526582614143565b156152bb576040517f08c379a000000000000000000000000000000000000000000000000000000000815260040180806020018281038252602e815260200180615b27602e913960400191505060405180910390fd5b6152c482612a58565b615319576040517f08c379a000000000000000000000000000000000000000000000000000000000815260040180806020018281038252602d815260200180615c9f602d913960400191505060405180910390fd5b6000600560008473ffffffffffffffffffffffffffffffffffffffff1673ffffffffffffffffffffffffffffffffffffffff16815260200190815260200160002060030160026101000a81548160ff0219169083151502179055507f227cbae91e983df06bd1200d744f04513fee47cfd847092fa7f5c8c1ad62208182600560008573ffffffffffffffffffffffffffffffffffffffff1673ffffffffffffffffffffffffffffffffffffffff16815260200190815260200160002060000154600560008673ffffffffffffffffffffffffffffffffffffffff1673ffffffffffffffffffffffffffffffffffffffff16815260200190815260200160002060010160009054906101000a900467ffffffffffffffff163385604051808673ffffffffffffffffffffffffffffffffffffffff1681526020018581526020018467ffffffffffffffff1681526020018373ffffffffffffffffffffffffffffffffffffffff1681526020018260ff1681526020019550505050505060405180910390a15050565b600042600560008473ffffffffffffffffffffffffffffffffffffffff1673ffffffffffffffffffffffffffffffffffffffff16815260200190815260200160002060040154119050919050565b600033905090565b6001600560008473ffffffffffffffffffffffffffffffffffffffff1673ffffffffffffffffffffffffffffffffffffffff16815260200190815260200160002060030160026101000a81548160ff0219169083151502179055507fca968621fb765ebc0063732949287ab2f87e93949cbb9adea1cc88bba7576dea82600560008573ffffffffffffffffffffffffffffffffffffffff1673ffffffffffffffffffffffffffffffffffffffff16815260200190815260200160002060000154600560008673ffffffffffffffffffffffffffffffffffffffff1673ffffffffffffffffffffffffffffffffffffffff16815260200190815260200160002060010160009054906101000a900467ffffffffffffffff163385604051808673ffffffffffffffffffffffffffffffffffffffff1681526020018581526020018467ffffffffffffffff1681526020018373ffffffffffffffffffffffffffffffffffffffff1681526020018260ff1681526020019550505050505060405180910390a15050565b600080600760008467ffffffffffffffff1667ffffffffffffffff1681526020019081526020016000205414156156e957600360008154600101919050819055600760008467ffffffffffffffff1667ffffffffffffffff168152602001908152602001600020819055505b600760008367ffffffffffffffff1667ffffffffffffffff168152602001908152602001600020549050919050565b828054600181600116156101000203166002900490600052602060002090601f016020900481019282601f1061575957805160ff1916838001178555615787565b82800160010185558215615787579182015b8281111561578657825182559160200191906001019061576b565b5b50905061579491906157f7565b5090565b6040518060e0016040528060008152602001600067ffffffffffffffff16815260200160608152602001600060058111156157cf57fe5b8152602001600060018111156157e157fe5b8152602001600015158152602001600081525090565b5b808211156158105760008160009055506001016157f8565b509056fe4ec3a36f20706f64652070617573617220636f6e7461206465206f7574726f2041444d494e4120636f6e74612070726563697361206573746172206e6f2065737461646f20416775617264616e646f2056616c696461c3a7c3a36f456e64657265c3a76f206465766520706f646520746572207369646f206361646173747261646f20616e746572696f726d656e74654f776e61626c653a206e6577206f776e657220697320746865207a65726f2061646472657373412061c3a7c3a36f2073c3b320706f646520736572206578656375746164612070656c6120636f6e746120726573706f6e73c3a176656c2070656c6120746f6d61722061c3a7c3b56573206465636f7272656e746573206465206d6f6e69746f7261c3a7c3a36f4120636f6e746120612076616c69646172207072656369736120657374617220656d2065737461646f20416775617264616e646f4170656e617320636f6e746173206ec3a36f20706175736164617320706f64656d2065786563757461722065737461206f70657261c3a7c3a36f536f6d656e746520636f6e7461206465206d65736d61206f7267616e697a61c3a7c3a36f20706f646520657865637574617220657374612061c3a7c3a36f536f6d656e746520706f6465207265746972617220706175736120646520756d6120636f6e7461207175656d20666f72206461206d65736d61206f7267616e697a61c3a7c3a36f4120636f6e7461206ec3a36f20706f6465207365722076616c696461646120706f7271756520657374c3a12070617573616461436f6e74617320696e76c3a16c69646173206ec3a36f20706f64656d20736572207061757361646173556d6120706573736f61206ec3a36f20c3a920636170617a2064652072657469726172206f20706175736520646520737561207072c3b37072696120636f6e74614170656e617320636f6e74617320636f6d206465636c617261c3a7c3b565732063756a6f7320636572746966696361646f732061696e64612073c3a36f2076c3a16c69646f7320706f64656d2065786563757461722065737461206f70657261c3a7c3a36f436f6e74617320696e76c3a16c69646173206ec3a36f20706f64656d2073657220726574697261722070617573614120636f6e746120666f6920696e76616c6964616461207072657669616d656e74652e4170656e617320636f6e7461732076616c69646164617320706f64656d2065786563757461722065737461206f70657261c3a7c3a36f4f2068617368206461206465636c617261c3a7c3a36f20c3a920696e76c3a16c69646f4120636f6e7461207072656369736120657374617220656d2065737461646f20416775617264616e646f2056616c696461c3a7c3a36f4120636f6e7461206ec3a36f20706f6465207365722076616c696461646120706f7271756520657374c3a12065787069726164614120636f6e7461207072656369736120657374617220656d2065737461646f20416775617264616e646f4170656e617320636f6e746173206461206d65736d61206f7267616e697a6163616f20706f64656d2073657220696e76616c6964616461732e20536f6d656e746520756d6120636f6e7461207061757361646120706f64652073657220646573706175736164614f20726573706f6e73c3a176656c2070656c612076616c696461c3a7c3a36f206465766520736572206461206d65736d61206f7267616e697a61c3a7c3a36f20286d65736d6f20434e504a294170656e617320636f6e74612041444d494e20706f646520696e76616c6964617220636f6e7461732e20456e64657265c3a76f206ec3a36f20706f646520746572207369646f20696e76616c696461646f456e64657265c3a76f206ec3a36f20706f646520746572207369646f206361646173747261646f20616e746572696f726d656e74654120636f6e746120612076616c69646172206465766520746572206f20706170656c2064652041444d494e412061c3a7c3a36f2073c3b320706f646520736572206578656375746164612070656c6120636f6e746120726573706f6e73c3a176656c2070656c612076616c696461c3a7c3a36f4f20726573706f6e73c3a176656c2070656c612076616c696461c3a7c3a36f206465766520746572206f20706170656c2041444d494e4f20757375c3a172696f2061207365722076616c696461646f206465766520746572206f20706170656c20524547554c4152536f6d656e746520756d6120636f6e74612041444d494e20706f646520657865637574617220657374612061c3a7c3a36f41206f7267616e697a61c3a7c3a36f206ec3a36f20657374c3a1206f7065726163696f6e616ca2646970667358221220b546c90b456c58af9da92462aaf91b24933b1ee925193b90def13763bc97503764736f6c634300060c0033",
  "immutableReferences": {},
  "source": "pragma solidity ^0.6.0;\r\n\r\nimport \"@openzeppelin/contracts/access/Ownable.sol\";\r\nimport \"./IRBBRegistry.sol\";\r\n\r\ncontract RBBRegistry is IRBBRegistry, Ownable() {\r\n\r\n    enum BlockchainAccountState {AVAILABLE,WAITING_VALIDATION,WAITING_APPROVAL,WAITING_REJECTION,VALIDATED,INVALIDATED}\r\n    BlockchainAccountState blockchainState; /* Variable not used, only defined to create the enum type. */\r\n      \r\n    /**\r\n    REGULAR  - operates \r\n    ADMIN    - validates the regular.\r\n     */\r\n    enum BlockchainAccountRole {REGULAR, ADMIN} \r\n    BlockchainAccountRole blockchainRole;  /* Variable not used, only defined to create the enum type. */\r\n\r\n    //Ativao/inativao de Registries no processo usual (pode ser via um processo automatizado) \r\n    address public responsibleForRegistryValidation;\r\n\r\n    //Inativao e pause/unpause decorrente de eventos no previstos (por exemplo, um comportamento inadequado de um Registry) \r\n    address public responsibleForActingAfterMonitoring;\r\n\r\n    /* This is a helper variable to emulate a sequence and autoincrement Ids*/\r\n    uint public currentRBBId = 0;\r\n\r\n     /**\r\n        This registry is about a company representative information\r\n     */    \r\n    struct Registry {\r\n        uint RBBId; //uma proxy para o CNPJ\r\n        uint64 CNPJ; //Brazilian identification of legal entity\r\n        string hashProof; //hash of declaration\r\n        BlockchainAccountState state;\r\n        BlockchainAccountRole role;\r\n        bool paused;\r\n        uint256 dateTimeExpiration; //vai ser outro momento de expirao diferente do ECNPJ\r\n    }\r\n\r\n    uint256 public defaultDeltaDateTimeExpiration = 365 days; \r\n\r\n    /**\r\n        Links Ethereum addresses to Registry\r\n     */\r\n    mapping(address => Registry) public legalEntitiesInfo;\r\n\r\n    /**\r\n        Links RBBID to Ethereum addresses.\r\n     */\r\n    mapping(uint => address[]) public RBBId_addresses;\r\n    \r\n    /**\r\n     * Links CNPJ to its RBBID\r\n     */\r\n    mapping (uint64 => uint) public CNPJ_RBBId;\r\n\r\n    //responsible is the msg.sender\r\n    event AccountRegistration       (address addr, uint RBBId, uint64 CNPJ, string hashProof, uint256 dateTimeExpiration);\r\n    event AccountWaitingApproval    (address addr, uint RBBId, uint64 CNPJ, address responsible);\r\n    event AccountWaitingRejection   (address addr, uint RBBId, uint64 CNPJ, address responsible);\r\n    event AccountValidation         (address addr, uint RBBId, uint64 CNPJ, address responsible);\r\n    event AccountInvalidation       (address addr, uint RBBId, uint64 CNPJ, address responsible, uint8 reason);\r\n    event AccountPaused             (address addr, uint RBBId, uint64 CNPJ, address responsible, uint8 reason);\r\n    event AccountUnpaused           (address addr, uint RBBId, uint64 CNPJ, address responsible, uint8 reason);\r\n    event AccountRoleChange         (address addr, uint RBBId, uint64 CNPJ, address responsible, BlockchainAccountRole roleBefore, BlockchainAccountRole roleNew);\r\n    event AccountReactivation       (address addr, string hashProof, uint256 dateTimeExpiration);\r\n\r\n    event RegistryExpirationChange  (address addr, uint256 dateTimeExpirationBefore, uint256 dateTimeExpirationNew);\r\n\r\n    event RoleDefinitionRegistryValidation(address rs);\r\n    event RoleDefinitionActingAfterMonitoring(address rs);\r\n\r\n\r\n    constructor () public {                \r\n        responsibleForRegistryValidation = msg.sender;\r\n        responsibleForActingAfterMonitoring = msg.sender;         \r\n    }\r\n\r\n    function setResponsibleForRegistryValidation(address rs) onlyOwner public {\r\n        responsibleForRegistryValidation = rs;\r\n        emit RoleDefinitionRegistryValidation(rs);\r\n    }    \r\n    function setResponsibleForActingAfterMonitoring(address rs) onlyOwner public {\r\n        responsibleForActingAfterMonitoring = rs;\r\n        emit RoleDefinitionActingAfterMonitoring(rs);\r\n    }  \r\n\r\n    modifier onlyByResponsibleForRegistryValidation() { \r\n        require( responsibleForRegistryValidation==msg.sender , \"A ao s pode ser executada pela conta responsvel pela validao\" );\r\n        _;\r\n    }\r\n\r\n    modifier onlyByResponsibleForActingAfterMonitoring() { \r\n        require( responsibleForActingAfterMonitoring==msg.sender , \"A ao s pode ser executada pela conta responsvel pela tomar aes decorrentes de monitorao\" );\r\n        _;\r\n    }\r\n\r\n    modifier onlyIfSenderIsOk() { \r\n        require( ! isPaused(msg.sender), \"Apenas contas no pausadas podem executar esta operao\" );\r\n        require( isExpired(msg.sender), \"Apenas contas com declaraes cujos certificados ainda so vlidos podem executar esta operao\" );\r\n        require( isValidatedAccount(msg.sender), \"Apenas contas validadas podem executar esta operao\" );\r\n        _;\r\n    }\r\n\r\n   /**\r\n    * Self Registering\r\n    * Link blockchain address with CNPJ\r\n    * @param CNPJ Brazilian identifier to legal entities\r\n    * @param proofHash The legal entities have to send BNDES a PDF where it assumes as responsible for an Ethereum account.\r\n    *                   This PDF is signed with eCNPJ and send to BNDES.\r\n    */\r\n    function registryLegalEntity(uint64 CNPJ, string memory proofHash) public {\r\n        \r\n        address addr = msg.sender;\r\n\r\n        require (isValidHash(proofHash), \"O hash da declarao  invlido\");\r\n        require (isAvailableAccount(addr), \"Endereo no pode ter sido cadastrado anteriormente\");\r\n\r\n        uint256 dateTimeExpiration = now + defaultDeltaDateTimeExpiration;\r\n        uint RBBId = calculaProximoRBBID(CNPJ);\r\n\r\n\r\n        if ( keccak256(bytes(proofHash)) == keccak256(bytes(\"0\")) ) { \r\n            legalEntitiesInfo[addr] = Registry( RBBId,\r\n                                                CNPJ, \r\n                                                proofHash, \r\n                                                BlockchainAccountState.WAITING_VALIDATION, \r\n                                                BlockchainAccountRole.REGULAR,\r\n                                                false,\r\n                                                dateTimeExpiration );\r\n        } else {\r\n            legalEntitiesInfo[addr] = Registry( RBBId,\r\n                                                CNPJ, \r\n                                                proofHash, \r\n                                                BlockchainAccountState.WAITING_VALIDATION, \r\n                                                BlockchainAccountRole.ADMIN,\r\n                                                false,\r\n                                                dateTimeExpiration );\r\n        }\r\n\r\n        RBBId_addresses[RBBId].push(addr);\r\n        string memory proof = proofHash;\r\n        emit AccountRegistration(addr, RBBId, CNPJ, proof, dateTimeExpiration);\r\n    }\r\n\r\n    /**\r\n    * Validates the initial registry of others LegalEntities\r\n    * @param userAddr Ethereum address that needs to be validated\r\n    */\r\n    function preValidateRegistry(address userAddr, bool approval) public onlyByResponsibleForRegistryValidation {\r\n\r\n        address responsible = msg.sender;\r\n        \r\n        require( legalEntitiesInfo[userAddr].state == BlockchainAccountState.WAITING_VALIDATION, \r\n                \"A conta precisa estar em estado Aguardando Validao\");\r\n\r\n        require ( isAdmin(userAddr), \"A conta a validar deve ter o papel de ADMIN\" );\r\n\r\n        if ( approval ) {\r\n            legalEntitiesInfo[userAddr].state = BlockchainAccountState.WAITING_APPROVAL;\r\n            emit AccountWaitingApproval(    userAddr, \r\n                                            legalEntitiesInfo[userAddr].RBBId, \r\n                                            legalEntitiesInfo[userAddr].CNPJ, \r\n                                            responsible );\r\n        }\r\n        else {\r\n            legalEntitiesInfo[userAddr].state = BlockchainAccountState.WAITING_REJECTION;\r\n            emit AccountWaitingRejection(   userAddr, \r\n                                            legalEntitiesInfo[userAddr].RBBId, \r\n                                            legalEntitiesInfo[userAddr].CNPJ, \r\n                                            responsible );\r\n        }\r\n    }\r\n    \r\n\r\n   /**\r\n    * Validates the initial registry of your own LegalEntity\r\n    * @param userAddr Ethereum address that needs to be validated\r\n    */\r\n    function validateRegistrySameOrg(address userAddr) public onlyIfSenderIsOk {\r\n\r\n        address responsible = msg.sender;\r\n\r\n        require ( isAdmin(responsible), \"O responsvel pela validao deve ter o papel ADMIN\" );\r\n\r\n        require( isWaitingAccount(userAddr), \"A conta a validar precisa estar em estado Aguardando\");\r\n\r\n        require (!isPaused(userAddr), \"A conta no pode ser validada porque est pausada\"); \r\n\r\n        require (!isExpired(userAddr), \"A conta no pode ser validada porque est expirada\");\r\n\r\n        require ( legalEntitiesInfo[userAddr].role == BlockchainAccountRole.REGULAR, \r\n                   \"O usurio a ser validado deve ter o papel REGULAR\" );\r\n\r\n        require ( isTheSameID(responsible, userAddr) , \r\n                   \"O responsvel pela validao deve ser da mesma organizao (mesmo CNPJ)\" );                   \r\n\r\n        legalEntitiesInfo[userAddr].state = BlockchainAccountState.VALIDATED;\r\n\r\n        emit AccountValidation( userAddr, \r\n                                legalEntitiesInfo[userAddr].RBBId, \r\n                                legalEntitiesInfo[userAddr].CNPJ, \r\n                                responsible);\r\n    }\r\n\r\n    /**\r\n    * Validates the initial registry of others LegalEntities\r\n    * @param userAddr Ethereum address that needs to be validated\r\n    */\r\n    function validateRegistry(address userAddr) public onlyByResponsibleForRegistryValidation {\r\n\r\n        address responsible = msg.sender;\r\n\r\n        require( isWaitingAccount(userAddr), \"A conta precisa estar em estado Aguardando\");\r\n\r\n        require (!isPaused(userAddr), \"A conta no pode ser validada porque est pausada\"); \r\n\r\n        require (!isExpired(userAddr), \"A conta no pode ser validada porque est expirada\");\r\n\r\n        require ( isAdmin(userAddr), \"A conta a validar deve ter o papel de ADMIN\" );\r\n        \r\n        legalEntitiesInfo[userAddr].state = BlockchainAccountState.VALIDATED;\r\n\r\n        emit AccountValidation( userAddr, \r\n                                legalEntitiesInfo[userAddr].RBBId, \r\n                                legalEntitiesInfo[userAddr].CNPJ, \r\n                                responsible);\r\n    }   \r\n\r\n\r\n     /**\r\n    * Pause an account     \r\n    * @param addr Ethereum address that needs to be paused\r\n    */\r\n    function pauseAddress(address addr) public onlyIfSenderIsOk {\r\n\r\n        address responsible = msg.sender;\r\n\r\n        require (!isInvalidated(addr), \"Contas invlidas no podem ser pausadas\");\r\n        require (!isPaused(addr), \"Conta j est pausada\");\r\n        require( isTheSameID(responsible, addr), \"Somente conta de mesma organizao pode executar esta ao\" );\r\n\r\n        require ((addr==responsible || isAdmin(responsible)), \"No pode pausar conta de outro ADMIN\");\r\n\r\n        pauseAddressInternal (addr, 1);\r\n\r\n    }\r\n\r\n    function pauseAddressAfterMonitoring(address addr) public onlyByResponsibleForActingAfterMonitoring {\r\n\r\n        require (!isInvalidated(addr), \"Contas invlidas no podem ser pausadas\");\r\n        require (!isPaused(addr), \"Conta j est pausada\");\r\n\r\n        pauseAddressInternal (addr, 2);\r\n    }\r\n\r\n    function pauseAddressInternal(address addr, uint8 reason) internal {\r\n\r\n        legalEntitiesInfo[addr].paused = true;\r\n        \r\n        emit AccountPaused( addr, \r\n                            legalEntitiesInfo[addr].RBBId,\r\n                            legalEntitiesInfo[addr].CNPJ, \r\n                            msg.sender,\r\n                            reason);\r\n    }\r\n\r\n\r\n    function pauseLegalEntity(uint RBBId) public onlyIfSenderIsOk {\r\n\r\n        address responsible = msg.sender;\r\n        address[] memory addresses  = RBBId_addresses[RBBId];\r\n\r\n        require( isTheSameID(responsible, addresses[0]), \r\n                \"Somente conta de mesma organizao pode executar esta ao\" );\r\n\r\n        for (uint i=0; i < addresses.length ; i++) {\r\n            address candidate = addresses[i];\r\n            if( !isInvalidated(candidate) &&\r\n                !isPaused(candidate) ) {\r\n                pauseAddressInternal (candidate, 3);\r\n            }\r\n        }\r\n    }\r\n\r\n\r\n    function pauseLegalEntityAfterMonitoring(uint RBBId) public onlyByResponsibleForActingAfterMonitoring {\r\n\r\n        address[] memory addresses  = RBBId_addresses[RBBId];\r\n\r\n        for (uint i=0; i < addresses.length ; i++) {\r\n            address candidate = addresses[i];\r\n            if( !isInvalidated(candidate) &&\r\n                !isPaused(candidate) ) {\r\n                pauseAddressInternal (candidate, 4);\r\n            }\r\n        }   \r\n    }\r\n\r\n\r\n    /**\r\n    * Unpause an account     \r\n    * @param addr Ethereum address that needs to be validated\r\n    */\r\n    function unpauseAddress(address addr) public onlyIfSenderIsOk {\r\n\r\n        address responsible = msg.sender;\r\n\r\n        require( isAdmin(addr) , \"Somente uma conta ADMIN pode executar esta ao\" );\r\n\r\n        require ( responsible != addr , \"Uma pessoa no  capaz de retirar o pause de sua prpria conta\");\r\n        require( isTheSameID(responsible, addr), \r\n                    \"Somente pode retirar pausa de uma conta quem for da mesma organizao\" );\r\n        \r\n        unpauseAddressInternal(addr, 1);        \r\n        \r\n    }\r\n\r\n    function unpauseAddressAfterMonitoring(address addr) public onlyByResponsibleForActingAfterMonitoring {\r\n        unpauseAddressInternal(addr,2);        \r\n    }\r\n\r\n    function unpauseAddressInternal(address addr, uint8 reason) internal {\r\n\r\n        require (!isInvalidated(addr), \"Contas invlidas no podem ser retirar pausa\");\r\n        require( isPaused(addr)  , \"Somente uma conta pausada pode ser despausada\" ); \r\n\r\n        legalEntitiesInfo[addr].paused = false;\r\n        \r\n        emit AccountUnpaused(   addr, \r\n                                legalEntitiesInfo[addr].RBBId,\r\n                                legalEntitiesInfo[addr].CNPJ, \r\n                                msg.sender,\r\n                                reason);\r\n    }\r\n\r\n\r\n   /**\r\n    * Invalidates the initial registry of a legal entity or the change of its registry\r\n    * The invalidation can be called at any time in the lifecycle of the address (not only when it is WAITING_VALIDATION)\r\n    * @param addr Ethereum address that needs to be validated\r\n    */\r\n    function invalidateRegistrySameOrg(address addr) public onlyIfSenderIsOk {\r\n\r\n        address responsible = msg.sender;\r\n\r\n        require( isAdmin(responsible), \"Apenas conta ADMIN pode invalidar contas. \");\r\n\r\n        require( !isInvalidated(addr), \"A conta foi invalidada previamente.\" );\r\n\r\n        require( isTheSameID(responsible, addr) , \"Apenas contas da mesma organizacao podem ser invalidadas. \");\r\n\r\n        invalidateRegistryInternal(addr, 1);\r\n\r\n    }\r\n\r\n    function invalidateRegistry(address addr) public onlyByResponsibleForRegistryValidation {\r\n\r\n        require(isWaitingAccount(addr), \"A conta precisa estar no estado Aguardando Validao\");\r\n\r\n        require( isAdmin(addr), \"Invalida apenas conta ADMIN\");\r\n\r\n        invalidateRegistryInternal(addr, 2);\r\n\r\n    }\r\n\r\n\r\n    function invalidateRegistryAfterMonitoring(address addr) public onlyByResponsibleForActingAfterMonitoring {\r\n\r\n        require( !isInvalidated(addr), \"A conta foi invalidada previamente.\" );\r\n        \r\n        invalidateRegistryInternal(addr, 3);\r\n    }\r\n\r\n    function invalidateRegistryInternal(address addr, uint8 reason) internal {\r\n\r\n        legalEntitiesInfo[addr].state = BlockchainAccountState.INVALIDATED;\r\n        \r\n        emit AccountInvalidation(   addr, \r\n                                    legalEntitiesInfo[addr].RBBId, \r\n                                    legalEntitiesInfo[addr].CNPJ, \r\n                                    msg.sender,\r\n                                    reason );\r\n    \r\n    }\r\n\r\n    function reactiveLegalEntity(string memory hashProof) public {\r\n        \r\n        address addr = msg.sender;\r\n\r\n        require (isValidHash(hashProof), \"O hash da declarao  invlido\");\r\n        require (!isAvailableAccount(addr), \"Endereo deve pode ter sido cadastrado anteriormente\");\r\n        require (!isInvalidated(addr), \"Endereo no pode ter sido invalidado\");\r\n\r\n        uint256 dateTimeExpiration = now + defaultDeltaDateTimeExpiration;\r\n\r\n        legalEntitiesInfo[addr].hashProof = hashProof;\r\n        legalEntitiesInfo[addr].state = BlockchainAccountState.WAITING_VALIDATION;\r\n        legalEntitiesInfo[addr].dateTimeExpiration = dateTimeExpiration;\r\n        legalEntitiesInfo[addr].paused = false;\r\n\r\n        emit AccountReactivation(addr, hashProof, dateTimeExpiration);\r\n    }\r\n\r\n    /**\r\n    * The Owner can assign new default expiration time for future registries\r\n    * @param deltaDateTimeExpirationNew the new default expiration time \r\n    */\r\n    function setDefaultDeltaDateTimeExpiration(uint256 deltaDateTimeExpirationNew) onlyOwner public {\r\n\r\n        uint256 defaultDeltaDateTimeExpirationOld = defaultDeltaDateTimeExpiration;\r\n        defaultDeltaDateTimeExpiration = deltaDateTimeExpirationNew;\r\n        \r\n        emit RegistryExpirationChange(   msg.sender, \r\n                                         defaultDeltaDateTimeExpirationOld, \r\n                                         defaultDeltaDateTimeExpiration );        \r\n    }\r\n\r\n    function calculaProximoRBBID(uint64 CNPJ) private returns (uint) {\r\n\r\n        if ( CNPJ_RBBId[CNPJ] == 0 ) //se nao existir rbbid para este CNPJ\r\n            CNPJ_RBBId[CNPJ] = ++currentRBBId;\r\n\r\n        return CNPJ_RBBId[CNPJ];\r\n    } \r\n\r\n   function isValidHash(string memory str) pure public returns (bool)  {\r\n\r\n        bytes memory b = bytes(str);\r\n        if(b.length != 64) return false;\r\n\r\n        for (uint i=0; i<64; i++) {\r\n            if (b[i] < \"0\") return false;\r\n            if (b[i] > \"9\" && b[i] <\"a\") return false;\r\n            if (b[i] > \"f\") return false;\r\n        }\r\n            \r\n        return true;\r\n    }\r\n\r\n\r\n    function isOperational(address addr) public view returns (bool) {\r\n        return isValidatedAccount(addr) && !isPaused(addr) && !isExpired(addr);\r\n    }\r\n\r\n    function isRegistryOperational(uint RBBId) public view override returns (bool) {\r\n        address[] memory addresses  = RBBId_addresses[RBBId];\r\n\r\n        for (uint i=0; i < addresses.length ; i++) {\r\n            if ( isOperational( addresses[i] ) && isAdmin(addresses[i]) ) {\r\n                    return true;\r\n            }\r\n        }\r\n    }\r\n\r\n    function getId (address addr) public view override returns (uint) {\r\n        uint RBBId = getRBBIdRaw(addr);\r\n        require ( isRegistryOperational( RBBId ) , \"A organizao no est operacional\" );\r\n        return RBBId;\r\n    }    \r\n\r\n    function isExpired (address addr) internal view returns (bool) {\r\n        return (legalEntitiesInfo[addr].dateTimeExpiration > now);\r\n    }\r\n\r\n    function isOwner(address addr) public view returns (bool) {\r\n        return owner()==addr;\r\n    }\r\n\r\n    function isAvailableAccount(address addr) public view returns (bool) {\r\n        return legalEntitiesInfo[addr].state == BlockchainAccountState.AVAILABLE;\r\n    }\r\n\r\n    function isWaitingAccount(address addr) public view returns (bool) {\r\n        return legalEntitiesInfo[addr].state == BlockchainAccountState.WAITING_VALIDATION\r\n            || legalEntitiesInfo[addr].state == BlockchainAccountState.WAITING_APPROVAL\r\n            || legalEntitiesInfo[addr].state == BlockchainAccountState.WAITING_REJECTION ;\r\n    }\r\n\r\n    function isValidatedAccount(address addr) public view returns (bool) {\r\n        return legalEntitiesInfo[addr].state == BlockchainAccountState.VALIDATED;\r\n    }\r\n\r\n    function isInvalidated(address addr) public view returns (bool) {\r\n        return legalEntitiesInfo[addr].state == BlockchainAccountState.INVALIDATED;\r\n    }\r\n\r\n    function isTheSameID(address a, address b) public view returns (bool) {\r\n        return legalEntitiesInfo[a].CNPJ == legalEntitiesInfo[b].CNPJ ;\r\n    }\r\n\r\n    function isPaused(address addr) public view returns (bool) {\r\n        return legalEntitiesInfo[addr].paused;\r\n    }\r\n\r\n    function isAdmin(address addr) public view returns (bool) { \r\n        return legalEntitiesInfo[addr].role == BlockchainAccountRole.ADMIN;\r\n    }\r\n\r\n    function getRBBIdRaw (address addr) public view returns (uint) {\r\n        return legalEntitiesInfo[addr].RBBId;\r\n    }\r\n\r\n    function getCNPJ (address addr) public view returns (uint64) {\r\n        return legalEntitiesInfo[addr].CNPJ;\r\n    }    \r\n    \r\n    function getRegistry (address addr) public view override returns (uint, uint64, string memory, uint, uint, bool, uint256) {\r\n        Registry memory reg = legalEntitiesInfo[addr];\r\n        string memory proof = reg.hashProof;\r\n        return (  reg.RBBId,\r\n                  reg.CNPJ, \r\n                  proof, \r\n                  (uint) (reg.state),\r\n                  (uint) (reg.role),\r\n                  reg.paused,\r\n                  reg.dateTimeExpiration\r\n                );\r\n    }\r\n\r\n    function getBlockchainAccounts(uint RBBId) public view returns (address[] memory) {\r\n        return RBBId_addresses[RBBId];\r\n    }\r\n\r\n    function getAccountState(address addr) public view returns (int) {\r\n        return ((int) (legalEntitiesInfo[addr].state));\r\n    }\r\n\r\n    function getAccountRole(address addr) public view returns (int) {\r\n        return ((int) (legalEntitiesInfo[addr].role));\r\n    }\r\n\r\n    function getIdFromCNPJ(uint64 cnpj) public view override returns (uint) {\r\n        return CNPJ_RBBId[cnpj];\r\n    }\r\n\r\n    function getCNPJbyID(uint Id) public view override returns (uint64 ) {\r\n        address addr =RBBId_addresses[Id][0];    \r\n        return legalEntitiesInfo[addr].CNPJ;\r\n    }\r\n \r\n\r\n\r\n}\r\n",
  "sourcePath": "C:/git/rbb-identificacao/Back-Blockchain/contracts/RBBRegistry.sol",
  "compiler": {
    "name": "solc",
    "version": "0.6.12+commit.27d51765.Emscripten.clang"
  },
  "schemaVersion": "3.3.3",
  "updatedAt": "2021-03-04T18:52:56.932Z",
  "devdoc": {
    "kind": "dev",
    "methods": {
      "invalidateRegistrySameOrg(address)": {
        "params": {
          "addr": "Ethereum address that needs to be validated"
        }
      },
      "owner()": {
        "details": "Returns the address of the current owner."
      },
      "pauseAddress(address)": {
        "params": {
          "addr": "Ethereum address that needs to be paused"
        }
      },
      "preValidateRegistry(address,bool)": {
        "params": {
          "userAddr": "Ethereum address that needs to be validated"
        }
      },
      "registryLegalEntity(uint64,string)": {
        "params": {
          "CNPJ": "Brazilian identifier to legal entities",
          "proofHash": "The legal entities have to send BNDES a PDF where it assumes as responsible for an Ethereum account.                   This PDF is signed with eCNPJ and send to BNDES."
        }
      },
      "renounceOwnership()": {
        "details": "Leaves the contract without owner. It will not be possible to call `onlyOwner` functions anymore. Can only be called by the current owner. NOTE: Renouncing ownership will leave the contract without an owner, thereby removing any functionality that is only available to the owner."
      },
      "setDefaultDeltaDateTimeExpiration(uint256)": {
        "params": {
          "deltaDateTimeExpirationNew": "the new default expiration time "
        }
      },
      "transferOwnership(address)": {
        "details": "Transfers ownership of the contract to a new account (`newOwner`). Can only be called by the current owner."
      },
      "unpauseAddress(address)": {
        "params": {
          "addr": "Ethereum address that needs to be validated"
        }
      },
      "validateRegistry(address)": {
        "params": {
          "userAddr": "Ethereum address that needs to be validated"
        }
      },
      "validateRegistrySameOrg(address)": {
        "params": {
          "userAddr": "Ethereum address that needs to be validated"
        }
      }
    },
    "version": 1
  },
  "userdoc": {
    "kind": "user",
    "methods": {
      "CNPJ_RBBId(uint64)": {
        "notice": "Links CNPJ to its RBBID"
      },
      "RBBId_addresses(uint256,uint256)": {
        "notice": "Links RBBID to Ethereum addresses."
      },
      "invalidateRegistrySameOrg(address)": {
        "notice": "Invalidates the initial registry of a legal entity or the change of its registry The invalidation can be called at any time in the lifecycle of the address (not only when it is WAITING_VALIDATION)"
      },
      "legalEntitiesInfo(address)": {
        "notice": "Links Ethereum addresses to Registry"
      },
      "pauseAddress(address)": {
        "notice": "Pause an account     "
      },
      "preValidateRegistry(address,bool)": {
        "notice": "Validates the initial registry of others LegalEntities"
      },
      "registryLegalEntity(uint64,string)": {
        "notice": "Self Registering Link blockchain address with CNPJ"
      },
      "setDefaultDeltaDateTimeExpiration(uint256)": {
        "notice": "The Owner can assign new default expiration time for future registries"
      },
      "unpauseAddress(address)": {
        "notice": "Unpause an account     "
      },
      "validateRegistry(address)": {
        "notice": "Validates the initial registry of others LegalEntities"
      },
      "validateRegistrySameOrg(address)": {
        "notice": "Validates the initial registry of your own LegalEntity"
      }
    },
    "version": 1
  }
}