{
  "contractName": "RBBRegistry",
  "abi": [
    {
      "constant": true,
      "inputs": [
        {
          "name": "",
          "type": "address"
        }
      ],
      "name": "legalEntitiesInfo",
      "outputs": [
        {
          "name": "RBBId",
          "type": "uint256"
        },
        {
          "name": "CNPJ",
          "type": "uint256"
        },
        {
          "name": "idProofHash",
          "type": "bytes32"
        },
        {
          "name": "state",
          "type": "uint8"
        },
        {
          "name": "role",
          "type": "uint8"
        },
        {
          "name": "paused",
          "type": "bool"
        },
        {
          "name": "dateTimeExpiration",
          "type": "uint256"
        }
      ],
      "payable": false,
      "stateMutability": "view",
      "type": "function"
    },
    {
      "constant": false,
      "inputs": [],
      "name": "renounceOwnership",
      "outputs": [],
      "payable": false,
      "stateMutability": "nonpayable",
      "type": "function"
    },
    {
      "constant": true,
      "inputs": [],
      "name": "owner",
      "outputs": [
        {
          "name": "",
          "type": "address"
        }
      ],
      "payable": false,
      "stateMutability": "view",
      "type": "function"
    },
    {
      "constant": true,
      "inputs": [],
      "name": "currentRBBId",
      "outputs": [
        {
          "name": "",
          "type": "uint256"
        }
      ],
      "payable": false,
      "stateMutability": "view",
      "type": "function"
    },
    {
      "constant": false,
      "inputs": [
        {
          "name": "newOwner",
          "type": "address"
        }
      ],
      "name": "transferOwnership",
      "outputs": [],
      "payable": false,
      "stateMutability": "nonpayable",
      "type": "function"
    },
    {
      "inputs": [
        {
          "name": "CNPJSUPADMIN",
          "type": "uint256"
        },
        {
          "name": "proofHashSUPADMIN",
          "type": "string"
        },
        {
          "name": "dateTimeExpiration",
          "type": "uint256"
        }
      ],
      "payable": false,
      "stateMutability": "nonpayable",
      "type": "constructor"
    },
    {
      "anonymous": false,
      "inputs": [
        {
          "indexed": false,
          "name": "addr",
          "type": "address"
        },
        {
          "indexed": false,
          "name": "RBBId",
          "type": "uint256"
        },
        {
          "indexed": false,
          "name": "CNPJ",
          "type": "uint256"
        },
        {
          "indexed": false,
          "name": "idProofHash",
          "type": "bytes32"
        },
        {
          "indexed": false,
          "name": "dateTimeExpiration",
          "type": "uint256"
        }
      ],
      "name": "AccountRegistration",
      "type": "event"
    },
    {
      "anonymous": false,
      "inputs": [
        {
          "indexed": false,
          "name": "addr",
          "type": "address"
        },
        {
          "indexed": false,
          "name": "RBBId",
          "type": "uint256"
        },
        {
          "indexed": false,
          "name": "CNPJ",
          "type": "uint256"
        },
        {
          "indexed": false,
          "name": "responsible",
          "type": "address"
        }
      ],
      "name": "AccountValidation",
      "type": "event"
    },
    {
      "anonymous": false,
      "inputs": [
        {
          "indexed": false,
          "name": "addr",
          "type": "address"
        },
        {
          "indexed": false,
          "name": "RBBId",
          "type": "uint256"
        },
        {
          "indexed": false,
          "name": "CNPJ",
          "type": "uint256"
        },
        {
          "indexed": false,
          "name": "responsible",
          "type": "address"
        }
      ],
      "name": "AccountInvalidation",
      "type": "event"
    },
    {
      "anonymous": false,
      "inputs": [
        {
          "indexed": false,
          "name": "addr",
          "type": "address"
        },
        {
          "indexed": false,
          "name": "RBBId",
          "type": "uint256"
        },
        {
          "indexed": false,
          "name": "CNPJ",
          "type": "uint256"
        },
        {
          "indexed": false,
          "name": "responsible",
          "type": "address"
        }
      ],
      "name": "AccountPaused",
      "type": "event"
    },
    {
      "anonymous": false,
      "inputs": [
        {
          "indexed": false,
          "name": "addr",
          "type": "address"
        },
        {
          "indexed": false,
          "name": "RBBId",
          "type": "uint256"
        },
        {
          "indexed": false,
          "name": "CNPJ",
          "type": "uint256"
        },
        {
          "indexed": false,
          "name": "responsible",
          "type": "address"
        }
      ],
      "name": "AccountUnpaused",
      "type": "event"
    },
    {
      "anonymous": false,
      "inputs": [
        {
          "indexed": false,
          "name": "addr",
          "type": "address"
        },
        {
          "indexed": false,
          "name": "RBBId",
          "type": "uint256"
        },
        {
          "indexed": false,
          "name": "CNPJ",
          "type": "uint256"
        },
        {
          "indexed": false,
          "name": "responsible",
          "type": "address"
        },
        {
          "indexed": false,
          "name": "roleBefore",
          "type": "uint8"
        },
        {
          "indexed": false,
          "name": "roleNew",
          "type": "uint8"
        }
      ],
      "name": "AccountRoleChange",
      "type": "event"
    },
    {
      "anonymous": false,
      "inputs": [
        {
          "indexed": false,
          "name": "addr",
          "type": "address"
        },
        {
          "indexed": false,
          "name": "RBBId",
          "type": "uint256"
        },
        {
          "indexed": false,
          "name": "CNPJ",
          "type": "uint256"
        },
        {
          "indexed": false,
          "name": "responsible",
          "type": "address"
        },
        {
          "indexed": false,
          "name": "dateTimeExpirationBefore",
          "type": "uint256"
        },
        {
          "indexed": false,
          "name": "dateTimeExpirationNew",
          "type": "uint256"
        }
      ],
      "name": "AccountExpirationChange",
      "type": "event"
    },
    {
      "anonymous": false,
      "inputs": [
        {
          "indexed": true,
          "name": "previousOwner",
          "type": "address"
        },
        {
          "indexed": true,
          "name": "newOwner",
          "type": "address"
        }
      ],
      "name": "OwnershipTransferred",
      "type": "event"
    },
    {
      "constant": false,
      "inputs": [
        {
          "name": "CNPJ",
          "type": "uint256"
        },
        {
          "name": "CNPJProofHash",
          "type": "string"
        },
        {
          "name": "dateTimeExpiration",
          "type": "uint256"
        }
      ],
      "name": "registryLegalEntity",
      "outputs": [],
      "payable": false,
      "stateMutability": "nonpayable",
      "type": "function"
    },
    {
      "constant": false,
      "inputs": [
        {
          "name": "userAddr",
          "type": "address"
        }
      ],
      "name": "validateRegistrySameOrg",
      "outputs": [],
      "payable": false,
      "stateMutability": "nonpayable",
      "type": "function"
    },
    {
      "constant": false,
      "inputs": [
        {
          "name": "userAddr",
          "type": "address"
        }
      ],
      "name": "validateRegistry",
      "outputs": [],
      "payable": false,
      "stateMutability": "nonpayable",
      "type": "function"
    },
    {
      "constant": false,
      "inputs": [
        {
          "name": "addr",
          "type": "address"
        }
      ],
      "name": "pauseAddress",
      "outputs": [],
      "payable": false,
      "stateMutability": "nonpayable",
      "type": "function"
    },
    {
      "constant": false,
      "inputs": [
        {
          "name": "CNPJ",
          "type": "uint256"
        }
      ],
      "name": "pauseLegalEntity",
      "outputs": [],
      "payable": false,
      "stateMutability": "nonpayable",
      "type": "function"
    },
    {
      "constant": false,
      "inputs": [
        {
          "name": "addr",
          "type": "address"
        }
      ],
      "name": "unpauseAddress",
      "outputs": [],
      "payable": false,
      "stateMutability": "nonpayable",
      "type": "function"
    },
    {
      "constant": false,
      "inputs": [
        {
          "name": "addr",
          "type": "address"
        }
      ],
      "name": "invalidateRegistry",
      "outputs": [],
      "payable": false,
      "stateMutability": "nonpayable",
      "type": "function"
    },
    {
      "constant": false,
      "inputs": [
        {
          "name": "addr",
          "type": "address"
        },
        {
          "name": "roleNew",
          "type": "uint8"
        }
      ],
      "name": "setRole",
      "outputs": [],
      "payable": false,
      "stateMutability": "nonpayable",
      "type": "function"
    },
    {
      "constant": false,
      "inputs": [
        {
          "name": "addr",
          "type": "address"
        },
        {
          "name": "dateTimeExpirationNew",
          "type": "uint256"
        }
      ],
      "name": "setExpiration",
      "outputs": [],
      "payable": false,
      "stateMutability": "nonpayable",
      "type": "function"
    },
    {
      "constant": true,
      "inputs": [
        {
          "name": "addr",
          "type": "address"
        }
      ],
      "name": "isResponsibleForRegistryValidation",
      "outputs": [
        {
          "name": "",
          "type": "bool"
        }
      ],
      "payable": false,
      "stateMutability": "view",
      "type": "function"
    },
    {
      "constant": true,
      "inputs": [
        {
          "name": "addr",
          "type": "address"
        }
      ],
      "name": "isOwner",
      "outputs": [
        {
          "name": "",
          "type": "bool"
        }
      ],
      "payable": false,
      "stateMutability": "view",
      "type": "function"
    },
    {
      "constant": true,
      "inputs": [],
      "name": "isOwner",
      "outputs": [
        {
          "name": "",
          "type": "bool"
        }
      ],
      "payable": false,
      "stateMutability": "view",
      "type": "function"
    },
    {
      "constant": true,
      "inputs": [
        {
          "name": "addr",
          "type": "address"
        }
      ],
      "name": "isAvailableAccount",
      "outputs": [
        {
          "name": "",
          "type": "bool"
        }
      ],
      "payable": false,
      "stateMutability": "view",
      "type": "function"
    },
    {
      "constant": true,
      "inputs": [
        {
          "name": "addr",
          "type": "address"
        }
      ],
      "name": "isWaitingValidationAccount",
      "outputs": [
        {
          "name": "",
          "type": "bool"
        }
      ],
      "payable": false,
      "stateMutability": "view",
      "type": "function"
    },
    {
      "constant": true,
      "inputs": [
        {
          "name": "addr",
          "type": "address"
        }
      ],
      "name": "isValidatedAccount",
      "outputs": [
        {
          "name": "",
          "type": "bool"
        }
      ],
      "payable": false,
      "stateMutability": "view",
      "type": "function"
    },
    {
      "constant": true,
      "inputs": [
        {
          "name": "addr",
          "type": "address"
        }
      ],
      "name": "isInvalidated",
      "outputs": [
        {
          "name": "",
          "type": "bool"
        }
      ],
      "payable": false,
      "stateMutability": "view",
      "type": "function"
    },
    {
      "constant": true,
      "inputs": [
        {
          "name": "a",
          "type": "address"
        },
        {
          "name": "b",
          "type": "address"
        }
      ],
      "name": "isTheSameID",
      "outputs": [
        {
          "name": "",
          "type": "bool"
        }
      ],
      "payable": false,
      "stateMutability": "view",
      "type": "function"
    },
    {
      "constant": true,
      "inputs": [
        {
          "name": "addr",
          "type": "address"
        }
      ],
      "name": "isPaused",
      "outputs": [
        {
          "name": "",
          "type": "bool"
        }
      ],
      "payable": false,
      "stateMutability": "view",
      "type": "function"
    },
    {
      "constant": true,
      "inputs": [
        {
          "name": "addr",
          "type": "address"
        }
      ],
      "name": "isOperational",
      "outputs": [
        {
          "name": "",
          "type": "bool"
        }
      ],
      "payable": false,
      "stateMutability": "view",
      "type": "function"
    },
    {
      "constant": true,
      "inputs": [
        {
          "name": "addr",
          "type": "address"
        }
      ],
      "name": "getId",
      "outputs": [
        {
          "name": "",
          "type": "uint256"
        }
      ],
      "payable": false,
      "stateMutability": "view",
      "type": "function"
    },
    {
      "constant": true,
      "inputs": [
        {
          "name": "addr",
          "type": "address"
        }
      ],
      "name": "getRBBId",
      "outputs": [
        {
          "name": "",
          "type": "uint256"
        }
      ],
      "payable": false,
      "stateMutability": "view",
      "type": "function"
    },
    {
      "constant": true,
      "inputs": [
        {
          "name": "addr",
          "type": "address"
        }
      ],
      "name": "getCNPJ",
      "outputs": [
        {
          "name": "",
          "type": "uint256"
        }
      ],
      "payable": false,
      "stateMutability": "view",
      "type": "function"
    },
    {
      "constant": true,
      "inputs": [
        {
          "name": "addr",
          "type": "address"
        }
      ],
      "name": "getRegistry",
      "outputs": [
        {
          "name": "",
          "type": "uint256"
        },
        {
          "name": "",
          "type": "uint256"
        },
        {
          "name": "",
          "type": "string"
        },
        {
          "name": "",
          "type": "uint256"
        },
        {
          "name": "",
          "type": "uint256"
        },
        {
          "name": "",
          "type": "bool"
        },
        {
          "name": "",
          "type": "uint256"
        }
      ],
      "payable": false,
      "stateMutability": "view",
      "type": "function"
    },
    {
      "constant": true,
      "inputs": [
        {
          "name": "CNPJ",
          "type": "uint256"
        }
      ],
      "name": "getBlockchainAccounts",
      "outputs": [
        {
          "name": "",
          "type": "address[]"
        }
      ],
      "payable": false,
      "stateMutability": "view",
      "type": "function"
    },
    {
      "constant": true,
      "inputs": [
        {
          "name": "addr",
          "type": "address"
        }
      ],
      "name": "getAccountState",
      "outputs": [
        {
          "name": "",
          "type": "int256"
        }
      ],
      "payable": false,
      "stateMutability": "view",
      "type": "function"
    },
    {
      "constant": true,
      "inputs": [
        {
          "name": "addr",
          "type": "address"
        }
      ],
      "name": "getAccountRole",
      "outputs": [
        {
          "name": "",
          "type": "int256"
        }
      ],
      "payable": false,
      "stateMutability": "view",
      "type": "function"
    },
    {
      "constant": false,
      "inputs": [
        {
          "name": "CNPJ",
          "type": "uint256"
        }
      ],
      "name": "registryMock",
      "outputs": [],
      "payable": false,
      "stateMutability": "nonpayable",
      "type": "function"
    }
  ],
  "bytecode": "0x608060405260006001553480156200001657600080fd5b5060405162004a2738038062004a27833981018060405260608110156200003c57600080fd5b810190808051906020019092919080516401000000008111156200005f57600080fd5b828101905060208101848111156200007657600080fd5b81518560018202830111640100000000821117156200009457600080fd5b5050929190602001805190602001909291905050506000620000bb6200049e60201b60201c565b9050806000806101000a81548173ffffffffffffffffffffffffffffffffffffffff021916908373ffffffffffffffffffffffffffffffffffffffff1602179055508073ffffffffffffffffffffffffffffffffffffffff16600073ffffffffffffffffffffffffffffffffffffffff167f8be0079c531659141344cd1fd0a4f28419497f9722a3daafe3b4186f6b6457e060405160405180910390a3506000339050600073__RBBLib________________________________63592c80ee856040518263ffffffff1660e01b81526004018080602001828103825283818151815260200191508051906020019080838360005b83811015620001cc578082015181840152602081019050620001af565b50505050905090810190601f168015620001fa5780820380516001836020036101000a031916815260200191505b509250505060206040518083038186803b1580156200021857600080fd5b505af41580156200022d573d6000803e3d6000fd5b505050506040513d60208110156200024457600080fd5b81019080805190602001909291905050509050600062000269620004a660201b60201c565b90506040518060e00160405280828152602001878152602001838152602001600260038111156200029657fe5b8152602001600280811115620002a857fe5b815260200160001515815260200185815250600260008573ffffffffffffffffffffffffffffffffffffffff1673ffffffffffffffffffffffffffffffffffffffff16815260200190815260200160002060008201518160000155602082015181600101556040820151816002015560608201518160030160006101000a81548160ff021916908360038111156200033c57fe5b021790555060808201518160030160016101000a81548160ff021916908360028111156200036657fe5b021790555060a08201518160030160026101000a81548160ff02191690831515021790555060c08201518160040155905050600360008781526020019081526020016000208390806001815401808255809150509060018203906000526020600020016000909192909190916101000a81548173ffffffffffffffffffffffffffffffffffffffff021916908373ffffffffffffffffffffffffffffffffffffffff160217905550507f4aa43cf10b603c9a80bec1e701073c460c5378a975e89e185c0bb22ac75e77378382888588604051808673ffffffffffffffffffffffffffffffffffffffff1673ffffffffffffffffffffffffffffffffffffffff1681526020018581526020018481526020018381526020018281526020019550505050505060405180910390a1505050505050620004bc565b600033905090565b6000600160008154600101919050819055905090565b61455b80620004cc6000396000f3fe608060405234801561001057600080fd5b50600436106101f05760003560e01c806381d66b231161010f578063be49b78d116100a2578063f2fde38b11610071578063f2fde38b14610b44578063f582202714610b88578063f64e0ae714610bcc578063f971d77c14610c24576101f0565b8063be49b78d14610a5c578063c616f4c014610ab4578063caa7922c14610ad2578063e81bb70c14610b16576101f0565b80638f32d59b116100de5780638f32d59b1461090a5780639ee2735b1461092c578063a3d8845314610984578063bb393086146109e0576101f0565b806381d66b23146107de5780638c879eb1146108365780638da5cb5b146108645780638e97637e146108ae576101f0565b8063571c3e601161018757806367555a501161015657806367555a50146106fe57806367b035491461074c578063715018a61461079057806377df472c1461079a576101f0565b8063571c3e601461059d5780635b14f183146105ee5780636426a1161461064a57806365f68c89146106a6576101f0565b806333c479f1116101c357806333c479f1146103d25780633abba2ef146104a1578063457385f2146104fd5780634f16ce0c14610559576101f0565b80630bf20e01146101f55780630c4471bd1461027857806326ff4794146102d45780632f54bf6e14610376575b600080fd5b6102216004803603602081101561020b57600080fd5b8101908080359060200190929190505050610d0f565b6040518080602001828103825283818151815260200191508051906020019060200280838360005b83811015610264578082015181840152602081019050610249565b505050509050019250505060405180910390f35b6102ba6004803603602081101561028e57600080fd5b81019080803573ffffffffffffffffffffffffffffffffffffffff169060200190929190505050610db0565b604051808215151515815260200191505060405180910390f35b610316600480360360208110156102ea57600080fd5b81019080803573ffffffffffffffffffffffffffffffffffffffff169060200190929190505050610e22565b6040518088815260200187815260200186815260200185600381111561033857fe5b60ff16815260200184600281111561034c57fe5b60ff1681526020018315151515815260200182815260200197505050505050505060405180910390f35b6103b86004803603602081101561038c57600080fd5b81019080803573ffffffffffffffffffffffffffffffffffffffff169060200190929190505050610e8b565b604051808215151515815260200191505060405180910390f35b61049f600480360360608110156103e857600080fd5b81019080803590602001909291908035906020019064010000000081111561040f57600080fd5b82018360208201111561042157600080fd5b8035906020019184600183028401116401000000008311171561044357600080fd5b91908080601f016020809104026020016040519081016040528093929190818152602001838380828437600081840152601f19601f82011690508083019250505050505050919291929080359060200190929190505050610eca565b005b6104e3600480360360208110156104b757600080fd5b81019080803573ffffffffffffffffffffffffffffffffffffffff169060200190929190505050611393565b604051808215151515815260200191505060405180910390f35b61053f6004803603602081101561051357600080fd5b81019080803573ffffffffffffffffffffffffffffffffffffffff169060200190929190505050611474565b604051808215151515815260200191505060405180910390f35b61059b6004803603602081101561056f57600080fd5b81019080803573ffffffffffffffffffffffffffffffffffffffff169060200190929190505050611498565b005b6105ec600480360360408110156105b357600080fd5b81019080803573ffffffffffffffffffffffffffffffffffffffff169060200190929190803560ff1690602001909291905050506119cf565b005b6106306004803603602081101561060457600080fd5b81019080803573ffffffffffffffffffffffffffffffffffffffff169060200190929190505050611cab565b604051808215151515815260200191505060405180910390f35b61068c6004803603602081101561066057600080fd5b81019080803573ffffffffffffffffffffffffffffffffffffffff169060200190929190505050611d04565b604051808215151515815260200191505060405180910390f35b6106e8600480360360208110156106bc57600080fd5b81019080803573ffffffffffffffffffffffffffffffffffffffff169060200190929190505050611d76565b6040518082815260200191505060405180910390f35b61074a6004803603604081101561071457600080fd5b81019080803573ffffffffffffffffffffffffffffffffffffffff16906020019092919080359060200190929190505050611d88565b005b61078e6004803603602081101561076257600080fd5b81019080803573ffffffffffffffffffffffffffffffffffffffff169060200190929190505050612012565b005b6107986124c4565b005b6107dc600480360360208110156107b057600080fd5b81019080803573ffffffffffffffffffffffffffffffffffffffff1690602001909291905050506125fd565b005b610820600480360360208110156107f457600080fd5b81019080803573ffffffffffffffffffffffffffffffffffffffff169060200190929190505050612a1c565b6040518082815260200191505060405180910390f35b6108626004803603602081101561084c57600080fd5b8101908080359060200190929190505050612a80565b005b61086c612e79565b604051808273ffffffffffffffffffffffffffffffffffffffff1673ffffffffffffffffffffffffffffffffffffffff16815260200191505060405180910390f35b6108f0600480360360208110156108c457600080fd5b81019080803573ffffffffffffffffffffffffffffffffffffffff169060200190929190505050612ea2565b604051808215151515815260200191505060405180910390f35b610912612f13565b604051808215151515815260200191505060405180910390f35b61096e6004803603602081101561094257600080fd5b81019080803573ffffffffffffffffffffffffffffffffffffffff169060200190929190505050612f71565b6040518082815260200191505060405180910390f35b6109c66004803603602081101561099a57600080fd5b81019080803573ffffffffffffffffffffffffffffffffffffffff169060200190929190505050612fd5565b604051808215151515815260200191505060405180910390f35b610a42600480360360408110156109f657600080fd5b81019080803573ffffffffffffffffffffffffffffffffffffffff169060200190929190803573ffffffffffffffffffffffffffffffffffffffff169060200190929190505050613046565b604051808215151515815260200191505060405180910390f35b610a9e60048036036020811015610a7257600080fd5b81019080803573ffffffffffffffffffffffffffffffffffffffff1690602001909291905050506130d7565b6040518082815260200191505060405180910390f35b610abc613123565b6040518082815260200191505060405180910390f35b610b1460048036036020811015610ae857600080fd5b81019080803573ffffffffffffffffffffffffffffffffffffffff169060200190929190505050613129565b005b610b4260048036036020811015610b2c57600080fd5b81019080803590602001909291905050506135b0565b005b610b8660048036036020811015610b5a57600080fd5b81019080803573ffffffffffffffffffffffffffffffffffffffff1690602001909291905050506137fe565b005b610bca60048036036020811015610b9e57600080fd5b81019080803573ffffffffffffffffffffffffffffffffffffffff169060200190929190505050613884565b005b610c0e60048036036020811015610be257600080fd5b81019080803573ffffffffffffffffffffffffffffffffffffffff169060200190929190505050613cdb565b6040518082815260200191505060405180910390f35b610c6660048036036020811015610c3a57600080fd5b81019080803573ffffffffffffffffffffffffffffffffffffffff169060200190929190505050613d27565b604051808881526020018781526020018060200186815260200185815260200184151515158152602001838152602001828103825287818151815260200191508051906020019080838360005b83811015610cce578082015181840152602081019050610cb3565b50505050905090810190601f168015610cfb5780820380516001836020036101000a031916815260200191505b509850505050505050505060405180910390f35b606060036000838152602001908152602001600020805480602002602001604051908101604052809291908181526020018280548015610da457602002820191906000526020600020905b8160009054906101000a900473ffffffffffffffffffffffffffffffffffffffff1673ffffffffffffffffffffffffffffffffffffffff1681526020019060010190808311610d5a575b50505050509050919050565b600060016003811115610dbf57fe5b600260008473ffffffffffffffffffffffffffffffffffffffff1673ffffffffffffffffffffffffffffffffffffffff16815260200190815260200160002060030160009054906101000a900460ff166003811115610e1a57fe5b149050919050565b60026020528060005260406000206000915090508060000154908060010154908060020154908060030160009054906101000a900460ff16908060030160019054906101000a900460ff16908060030160029054906101000a900460ff16908060040154905087565b60008173ffffffffffffffffffffffffffffffffffffffff16610eac612e79565b73ffffffffffffffffffffffffffffffffffffffff16149050919050565b6000339050600073__RBBLib________________________________63592c80ee856040518263ffffffff1660e01b81526004018080602001828103825283818151815260200191508051906020019080838360005b83811015610f3b578082015181840152602081019050610f20565b50505050905090810190601f168015610f685780820380516001836020036101000a031916815260200191505b509250505060206040518083038186803b158015610f8557600080fd5b505af4158015610f99573d6000803e3d6000fd5b505050506040513d6020811015610faf57600080fd5b810190808051906020019092919050505090506000610fcc613f5b565b9050610fd783612fd5565b61102c576040517f08c379a00000000000000000000000000000000000000000000000000000000081526004018080602001828103825260358152602001806143dd6035913960400191505060405180910390fd5b6000801b821415611166576040518060e001604052808281526020018781526020018381526020016001600381111561106157fe5b81526020016000600281111561107357fe5b815260200160001515815260200185815250600260008573ffffffffffffffffffffffffffffffffffffffff1673ffffffffffffffffffffffffffffffffffffffff16815260200190815260200160002060008201518160000155602082015181600101556040820151816002015560608201518160030160006101000a81548160ff0219169083600381111561110657fe5b021790555060808201518160030160016101000a81548160ff0219169083600281111561112f57fe5b021790555060a08201518160030160026101000a81548160ff02191690831515021790555060c08201518160040155905050611291565b6040518060e001604052808281526020018781526020018381526020016001600381111561119057fe5b8152602001600160028111156111a257fe5b815260200160001515815260200185815250600260008573ffffffffffffffffffffffffffffffffffffffff1673ffffffffffffffffffffffffffffffffffffffff16815260200190815260200160002060008201518160000155602082015181600101556040820151816002015560608201518160030160006101000a81548160ff0219169083600381111561123557fe5b021790555060808201518160030160016101000a81548160ff0219169083600281111561125e57fe5b021790555060a08201518160030160026101000a81548160ff02191690831515021790555060c082015181600401559050505b600360008781526020019081526020016000208390806001815401808255809150509060018203906000526020600020016000909192909190916101000a81548173ffffffffffffffffffffffffffffffffffffffff021916908373ffffffffffffffffffffffffffffffffffffffff160217905550507f4aa43cf10b603c9a80bec1e701073c460c5378a975e89e185c0bb22ac75e77378382888588604051808673ffffffffffffffffffffffffffffffffffffffff1673ffffffffffffffffffffffffffffffffffffffff1681526020018581526020018481526020018381526020018281526020019550505050505060405180910390a1505050505050565b6000600160028111156113a257fe5b600260008473ffffffffffffffffffffffffffffffffffffffff1673ffffffffffffffffffffffffffffffffffffffff16815260200190815260200160002060030160019054906101000a900460ff1660028111156113fd57fe5b148061146d575060028081111561141057fe5b600260008473ffffffffffffffffffffffffffffffffffffffff1673ffffffffffffffffffffffffffffffffffffffff16815260200190815260200160002060030160019054906101000a900460ff16600281111561146b57fe5b145b9050919050565b600061147f82611d04565b8015611491575061148f82611cab565b155b9050919050565b600260003373ffffffffffffffffffffffffffffffffffffffff1673ffffffffffffffffffffffffffffffffffffffff16815260200190815260200160002060030160029054906101000a900460ff161561153e576040517f08c379a000000000000000000000000000000000000000000000000000000000815260040180806020018281038252602b815260200180614116602b913960400191505060405180910390fd5b42600260003373ffffffffffffffffffffffffffffffffffffffff1673ffffffffffffffffffffffffffffffffffffffff16815260200190815260200160002060040154116115d8576040517f08c379a00000000000000000000000000000000000000000000000000000000081526004018080602001828103825260478152602001806144126047913960600191505060405180910390fd5b60003390508173ffffffffffffffffffffffffffffffffffffffff168173ffffffffffffffffffffffffffffffffffffffff161415611662576040517f08c379a00000000000000000000000000000000000000000000000000000000081526004018080602001828103825260448152602001806141776044913960600191505060405180910390fd5b6001600281111561166f57fe5b600260008373ffffffffffffffffffffffffffffffffffffffff1673ffffffffffffffffffffffffffffffffffffffff16815260200190815260200160002060030160019054906101000a900460ff1660028111156116ca57fe5b14611720576040517f08c379a000000000000000000000000000000000000000000000000000000000815260040180806020018281038252603681526020018061448a6036913960400191505060405180910390fd5b61172a8183613046565b61177f576040517f08c379a000000000000000000000000000000000000000000000000000000000815260040180806020018281038252604c815260200180614391604c913960600191505060405180910390fd5b6001600381111561178c57fe5b600260008473ffffffffffffffffffffffffffffffffffffffff1673ffffffffffffffffffffffffffffffffffffffff16815260200190815260200160002060030160009054906101000a900460ff1660038111156117e757fe5b1461183d576040517f08c379a00000000000000000000000000000000000000000000000000000000081526004018080602001828103825260408152602001806142a96040913960400191505060405180910390fd5b60028060008473ffffffffffffffffffffffffffffffffffffffff1673ffffffffffffffffffffffffffffffffffffffff16815260200190815260200160002060030160006101000a81548160ff0219169083600381111561189b57fe5b02179055507f073fc7b5012ce389e8ee332d8cb39b41a44a08b42ee9260a78dd3a757a66c11182600260008573ffffffffffffffffffffffffffffffffffffffff1673ffffffffffffffffffffffffffffffffffffffff16815260200190815260200160002060000154600260008673ffffffffffffffffffffffffffffffffffffffff1673ffffffffffffffffffffffffffffffffffffffff1681526020019081526020016000206001015484604051808573ffffffffffffffffffffffffffffffffffffffff1673ffffffffffffffffffffffffffffffffffffffff1681526020018481526020018381526020018273ffffffffffffffffffffffffffffffffffffffff1673ffffffffffffffffffffffffffffffffffffffff16815260200194505050505060405180910390a15050565b6119d7612f13565b611a49576040517f08c379a00000000000000000000000000000000000000000000000000000000081526004018080602001828103825260208152602001807f4f776e61626c653a2063616c6c6572206973206e6f7420746865206f776e657281525060200191505060405180910390fd5b6000600260008473ffffffffffffffffffffffffffffffffffffffff1673ffffffffffffffffffffffffffffffffffffffff16815260200190815260200160002060030160019054906101000a900460ff16905081600260008573ffffffffffffffffffffffffffffffffffffffff1673ffffffffffffffffffffffffffffffffffffffff16815260200190815260200160002060030160016101000a81548160ff02191690836002811115611afb57fe5b02179055507f13382921d3a6e392cd7bac34288a59fabe1f26f801f24defc12dc8ee3c1fb34b83600260008673ffffffffffffffffffffffffffffffffffffffff1673ffffffffffffffffffffffffffffffffffffffff16815260200190815260200160002060000154600260008773ffffffffffffffffffffffffffffffffffffffff1673ffffffffffffffffffffffffffffffffffffffff168152602001908152602001600020600101543385600260008a73ffffffffffffffffffffffffffffffffffffffff1673ffffffffffffffffffffffffffffffffffffffff16815260200190815260200160002060030160019054906101000a900460ff16604051808773ffffffffffffffffffffffffffffffffffffffff1673ffffffffffffffffffffffffffffffffffffffff1681526020018681526020018581526020018473ffffffffffffffffffffffffffffffffffffffff1673ffffffffffffffffffffffffffffffffffffffff168152602001836002811115611c7a57fe5b60ff168152602001826002811115611c8e57fe5b60ff168152602001965050505050505060405180910390a1505050565b6000600260008373ffffffffffffffffffffffffffffffffffffffff1673ffffffffffffffffffffffffffffffffffffffff16815260200190815260200160002060030160029054906101000a900460ff169050919050565b600060026003811115611d1357fe5b600260008473ffffffffffffffffffffffffffffffffffffffff1673ffffffffffffffffffffffffffffffffffffffff16815260200190815260200160002060030160009054906101000a900460ff166003811115611d6e57fe5b149050919050565b6000611d8182613cdb565b9050919050565b611d90612f13565b611e02576040517f08c379a00000000000000000000000000000000000000000000000000000000081526004018080602001828103825260208152602001807f4f776e61626c653a2063616c6c6572206973206e6f7420746865206f776e657281525060200191505060405180910390fd5b6000600260008473ffffffffffffffffffffffffffffffffffffffff1673ffffffffffffffffffffffffffffffffffffffff16815260200190815260200160002060040154905081600260008573ffffffffffffffffffffffffffffffffffffffff1673ffffffffffffffffffffffffffffffffffffffff168152602001908152602001600020600401819055507f2cd75fb20fb832ab37a11f21a504cfdf19dcfc9464968d1ae47c9788bbf1a31683600260008673ffffffffffffffffffffffffffffffffffffffff1673ffffffffffffffffffffffffffffffffffffffff16815260200190815260200160002060000154600260008773ffffffffffffffffffffffffffffffffffffffff1673ffffffffffffffffffffffffffffffffffffffff168152602001908152602001600020600101543385600260008a73ffffffffffffffffffffffffffffffffffffffff1673ffffffffffffffffffffffffffffffffffffffff16815260200190815260200160002060040154604051808773ffffffffffffffffffffffffffffffffffffffff1673ffffffffffffffffffffffffffffffffffffffff1681526020018681526020018581526020018473ffffffffffffffffffffffffffffffffffffffff1673ffffffffffffffffffffffffffffffffffffffff168152602001838152602001828152602001965050505050505060405180910390a1505050565b600260003373ffffffffffffffffffffffffffffffffffffffff1673ffffffffffffffffffffffffffffffffffffffff16815260200190815260200160002060030160029054906101000a900460ff16156120b8576040517f08c379a000000000000000000000000000000000000000000000000000000000815260040180806020018281038252602b815260200180614116602b913960400191505060405180910390fd5b42600260003373ffffffffffffffffffffffffffffffffffffffff1673ffffffffffffffffffffffffffffffffffffffff1681526020019081526020016000206004015411612152576040517f08c379a00000000000000000000000000000000000000000000000000000000081526004018080602001828103825260478152602001806144126047913960600191505060405180910390fd5b600033905061216081611393565b6121b5576040517f08c379a000000000000000000000000000000000000000000000000000000000815260040180806020018281038252603b81526020018061426e603b913960400191505060405180910390fd5b6002808111156121c157fe5b600260008473ffffffffffffffffffffffffffffffffffffffff1673ffffffffffffffffffffffffffffffffffffffff16815260200190815260200160002060030160019054906101000a900460ff16600281111561221c57fe5b1415612273576040517f08c379a00000000000000000000000000000000000000000000000000000000081526004018080602001828103825260298152602001806141e16029913960400191505060405180910390fd5b60038081111561227f57fe5b600260008473ffffffffffffffffffffffffffffffffffffffff1673ffffffffffffffffffffffffffffffffffffffff16815260200190815260200160002060030160009054906101000a900460ff1660038111156122da57fe5b1415612331576040517f08c379a000000000000000000000000000000000000000000000000000000000815260040180806020018281038252602381526020018061424b6023913960400191505060405180910390fd5b6003600260008473ffffffffffffffffffffffffffffffffffffffff1673ffffffffffffffffffffffffffffffffffffffff16815260200190815260200160002060030160006101000a81548160ff0219169083600381111561239057fe5b02179055507fe54094ed206f2d050c7d5065f566c98e3c67d5f94c76971e8e73b392f8314ae282600260008573ffffffffffffffffffffffffffffffffffffffff1673ffffffffffffffffffffffffffffffffffffffff16815260200190815260200160002060000154600260008673ffffffffffffffffffffffffffffffffffffffff1673ffffffffffffffffffffffffffffffffffffffff1681526020019081526020016000206001015484604051808573ffffffffffffffffffffffffffffffffffffffff1673ffffffffffffffffffffffffffffffffffffffff1681526020018481526020018381526020018273ffffffffffffffffffffffffffffffffffffffff1673ffffffffffffffffffffffffffffffffffffffff16815260200194505050505060405180910390a15050565b6124cc612f13565b61253e576040517f08c379a00000000000000000000000000000000000000000000000000000000081526004018080602001828103825260208152602001807f4f776e61626c653a2063616c6c6572206973206e6f7420746865206f776e657281525060200191505060405180910390fd5b600073ffffffffffffffffffffffffffffffffffffffff166000809054906101000a900473ffffffffffffffffffffffffffffffffffffffff1673ffffffffffffffffffffffffffffffffffffffff167f8be0079c531659141344cd1fd0a4f28419497f9722a3daafe3b4186f6b6457e060405160405180910390a360008060006101000a81548173ffffffffffffffffffffffffffffffffffffffff021916908373ffffffffffffffffffffffffffffffffffffffff160217905550565b600260003373ffffffffffffffffffffffffffffffffffffffff1673ffffffffffffffffffffffffffffffffffffffff16815260200190815260200160002060030160029054906101000a900460ff16156126a3576040517f08c379a000000000000000000000000000000000000000000000000000000000815260040180806020018281038252602b815260200180614116602b913960400191505060405180910390fd5b60003390506002808111156126b457fe5b600260008473ffffffffffffffffffffffffffffffffffffffff1673ffffffffffffffffffffffffffffffffffffffff16815260200190815260200160002060030160019054906101000a900460ff16600281111561270f57fe5b1415612766576040517f08c379a000000000000000000000000000000000000000000000000000000000815260040180806020018281038252602681526020018061433e6026913960400191505060405180910390fd5b6127708183613046565b806127df575060028081111561278257fe5b600260008373ffffffffffffffffffffffffffffffffffffffff1673ffffffffffffffffffffffffffffffffffffffff16815260200190815260200160002060030160019054906101000a900460ff1660028111156127dd57fe5b145b612834576040517f08c379a00000000000000000000000000000000000000000000000000000000081526004018080602001828103825260558152602001806142e96055913960600191505060405180910390fd5b61283d82611d04565b612892576040517f08c379a000000000000000000000000000000000000000000000000000000000815260040180806020018281038252602a8152602001806144c0602a913960400191505060405180910390fd5b6001600260008473ffffffffffffffffffffffffffffffffffffffff1673ffffffffffffffffffffffffffffffffffffffff16815260200190815260200160002060030160026101000a81548160ff0219169083151502179055507feab44e925fe37efdf7a6b9681f2daf982a47f4e64e2d592e8ee4309b986df6a782600260008573ffffffffffffffffffffffffffffffffffffffff1673ffffffffffffffffffffffffffffffffffffffff16815260200190815260200160002060000154600260008673ffffffffffffffffffffffffffffffffffffffff1673ffffffffffffffffffffffffffffffffffffffff1681526020019081526020016000206001015484604051808573ffffffffffffffffffffffffffffffffffffffff1673ffffffffffffffffffffffffffffffffffffffff1681526020018481526020018381526020018273ffffffffffffffffffffffffffffffffffffffff1673ffffffffffffffffffffffffffffffffffffffff16815260200194505050505060405180910390a15050565b6000600260008373ffffffffffffffffffffffffffffffffffffffff1673ffffffffffffffffffffffffffffffffffffffff16815260200190815260200160002060030160019054906101000a900460ff166002811115612a7957fe5b9050919050565b600260003373ffffffffffffffffffffffffffffffffffffffff1673ffffffffffffffffffffffffffffffffffffffff16815260200190815260200160002060030160029054906101000a900460ff1615612b26576040517f08c379a000000000000000000000000000000000000000000000000000000000815260040180806020018281038252602b815260200180614116602b913960400191505060405180910390fd5b6000339050606060036000848152602001908152602001600020805480602002602001604051908101604052809291908181526020018280548015612bc057602002820191906000526020600020905b8160009054906101000a900473ffffffffffffffffffffffffffffffffffffffff1673ffffffffffffffffffffffffffffffffffffffff1681526020019060010190808311612b76575b50505050509050612be58282600081518110612bd857fe5b6020026020010151613046565b80612c545750600280811115612bf757fe5b600260008473ffffffffffffffffffffffffffffffffffffffff1673ffffffffffffffffffffffffffffffffffffffff16815260200190815260200160002060030160019054906101000a900460ff166002811115612c5257fe5b145b612ca9576040517f08c379a00000000000000000000000000000000000000000000000000000000081526004018080602001828103825260558152602001806142e96055913960600191505060405180910390fd5b60008090505b8151811015612e73576000828281518110612cc657fe5b60200260200101519050612cd981611d04565b15612e65576001600260008373ffffffffffffffffffffffffffffffffffffffff1673ffffffffffffffffffffffffffffffffffffffff16815260200190815260200160002060030160026101000a81548160ff0219169083151502179055507feab44e925fe37efdf7a6b9681f2daf982a47f4e64e2d592e8ee4309b986df6a781600260008473ffffffffffffffffffffffffffffffffffffffff1673ffffffffffffffffffffffffffffffffffffffff16815260200190815260200160002060000154600260008573ffffffffffffffffffffffffffffffffffffffff1673ffffffffffffffffffffffffffffffffffffffff1681526020019081526020016000206001015487604051808573ffffffffffffffffffffffffffffffffffffffff1673ffffffffffffffffffffffffffffffffffffffff1681526020018481526020018381526020018273ffffffffffffffffffffffffffffffffffffffff1673ffffffffffffffffffffffffffffffffffffffff16815260200194505050505060405180910390a15b508080600101915050612caf565b50505050565b60008060009054906101000a900473ffffffffffffffffffffffffffffffffffffffff16905090565b6000600380811115612eb057fe5b600260008473ffffffffffffffffffffffffffffffffffffffff1673ffffffffffffffffffffffffffffffffffffffff16815260200190815260200160002060030160009054906101000a900460ff166003811115612f0b57fe5b149050919050565b60008060009054906101000a900473ffffffffffffffffffffffffffffffffffffffff1673ffffffffffffffffffffffffffffffffffffffff16612f55613f71565b73ffffffffffffffffffffffffffffffffffffffff1614905090565b6000600260008373ffffffffffffffffffffffffffffffffffffffff1673ffffffffffffffffffffffffffffffffffffffff16815260200190815260200160002060030160009054906101000a900460ff166003811115612fce57fe5b9050919050565b6000806003811115612fe357fe5b600260008473ffffffffffffffffffffffffffffffffffffffff1673ffffffffffffffffffffffffffffffffffffffff16815260200190815260200160002060030160009054906101000a900460ff16600381111561303e57fe5b149050919050565b6000600260008373ffffffffffffffffffffffffffffffffffffffff1673ffffffffffffffffffffffffffffffffffffffff16815260200190815260200160002060010154600260008573ffffffffffffffffffffffffffffffffffffffff1673ffffffffffffffffffffffffffffffffffffffff1681526020019081526020016000206001015414905092915050565b6000600260008373ffffffffffffffffffffffffffffffffffffffff1673ffffffffffffffffffffffffffffffffffffffff168152602001908152602001600020600101549050919050565b60015481565b42600260003373ffffffffffffffffffffffffffffffffffffffff1673ffffffffffffffffffffffffffffffffffffffff16815260200190815260200160002060040154116131c3576040517f08c379a00000000000000000000000000000000000000000000000000000000081526004018080602001828103825260478152602001806144126047913960600191505060405180910390fd5b60003390506002808111156131d457fe5b600260008373ffffffffffffffffffffffffffffffffffffffff1673ffffffffffffffffffffffffffffffffffffffff16815260200190815260200160002060030160019054906101000a900460ff16600281111561322f57fe5b14613285576040517f08c379a00000000000000000000000000000000000000000000000000000000081526004018080602001828103825260318152602001806144596031913960400191505060405180910390fd5b6001600281111561329257fe5b600260008473ffffffffffffffffffffffffffffffffffffffff1673ffffffffffffffffffffffffffffffffffffffff16815260200190815260200160002060030160019054906101000a900460ff1660028111156132ed57fe5b14613360576040517f08c379a00000000000000000000000000000000000000000000000000000000081526004018080602001828103825260208152602001807f4120636f6e746120612076616c696461722064657665207365722041444d494e81525060200191505060405180910390fd5b6001600381111561336d57fe5b600260008473ffffffffffffffffffffffffffffffffffffffff1673ffffffffffffffffffffffffffffffffffffffff16815260200190815260200160002060030160009054906101000a900460ff1660038111156133c857fe5b1461341e576040517f08c379a00000000000000000000000000000000000000000000000000000000081526004018080602001828103825260368152602001806141416036913960400191505060405180910390fd5b60028060008473ffffffffffffffffffffffffffffffffffffffff1673ffffffffffffffffffffffffffffffffffffffff16815260200190815260200160002060030160006101000a81548160ff0219169083600381111561347c57fe5b02179055507f073fc7b5012ce389e8ee332d8cb39b41a44a08b42ee9260a78dd3a757a66c11182600260008573ffffffffffffffffffffffffffffffffffffffff1673ffffffffffffffffffffffffffffffffffffffff16815260200190815260200160002060000154600260008673ffffffffffffffffffffffffffffffffffffffff1673ffffffffffffffffffffffffffffffffffffffff1681526020019081526020016000206001015484604051808573ffffffffffffffffffffffffffffffffffffffff1673ffffffffffffffffffffffffffffffffffffffff1681526020018481526020018381526020018273ffffffffffffffffffffffffffffffffffffffff1673ffffffffffffffffffffffffffffffffffffffff16815260200194505050505060405180910390a15050565b600033905060008060001b90506000640100000000905060006135d1613f5b565b90506040518060e00160405280828152602001868152602001848152602001600260038111156135fd57fe5b81526020016001600281111561360f57fe5b815260200160001515815260200183815250600260008673ffffffffffffffffffffffffffffffffffffffff1673ffffffffffffffffffffffffffffffffffffffff16815260200190815260200160002060008201518160000155602082015181600101556040820151816002015560608201518160030160006101000a81548160ff021916908360038111156136a257fe5b021790555060808201518160030160016101000a81548160ff021916908360028111156136cb57fe5b021790555060a08201518160030160026101000a81548160ff02191690831515021790555060c08201518160040155905050600360008681526020019081526020016000208490806001815401808255809150509060018203906000526020600020016000909192909190916101000a81548173ffffffffffffffffffffffffffffffffffffffff021916908373ffffffffffffffffffffffffffffffffffffffff160217905550507f4aa43cf10b603c9a80bec1e701073c460c5378a975e89e185c0bb22ac75e77378482878686604051808673ffffffffffffffffffffffffffffffffffffffff1673ffffffffffffffffffffffffffffffffffffffff1681526020018581526020018481526020018381526020018281526020019550505050505060405180910390a15050505050565b613806612f13565b613878576040517f08c379a00000000000000000000000000000000000000000000000000000000081526004018080602001828103825260208152602001807f4f776e61626c653a2063616c6c6572206973206e6f7420746865206f776e657281525060200191505060405180910390fd5b61388181613f79565b50565b600260003373ffffffffffffffffffffffffffffffffffffffff1673ffffffffffffffffffffffffffffffffffffffff16815260200190815260200160002060030160029054906101000a900460ff161561392a576040517f08c379a000000000000000000000000000000000000000000000000000000000815260040180806020018281038252602b815260200180614116602b913960400191505060405180910390fd5b42600260003373ffffffffffffffffffffffffffffffffffffffff1673ffffffffffffffffffffffffffffffffffffffff16815260200190815260200160002060040154116139c4576040517f08c379a00000000000000000000000000000000000000000000000000000000081526004018080602001828103825260478152602001806144126047913960600191505060405180910390fd5b60003390508173ffffffffffffffffffffffffffffffffffffffff168173ffffffffffffffffffffffffffffffffffffffff161415613a4e576040517f08c379a000000000000000000000000000000000000000000000000000000000815260040180806020018281038252604181526020018061420a6041913960600191505060405180910390fd5b613a5781611393565b613aac576040517f08c379a00000000000000000000000000000000000000000000000000000000081526004018080602001828103825260468152602001806144ea6046913960600191505060405180910390fd5b600260008373ffffffffffffffffffffffffffffffffffffffff1673ffffffffffffffffffffffffffffffffffffffff16815260200190815260200160002060030160029054906101000a900460ff16613b51576040517f08c379a000000000000000000000000000000000000000000000000000000000815260040180806020018281038252602d815260200180614364602d913960400191505060405180910390fd5b6000600260008473ffffffffffffffffffffffffffffffffffffffff1673ffffffffffffffffffffffffffffffffffffffff16815260200190815260200160002060030160026101000a81548160ff0219169083151502179055507fede461371ad2055987ffee3f03ac6bbad8c1e32130b99e9a87eaff68abdef50c82600260008573ffffffffffffffffffffffffffffffffffffffff1673ffffffffffffffffffffffffffffffffffffffff16815260200190815260200160002060000154600260008673ffffffffffffffffffffffffffffffffffffffff1673ffffffffffffffffffffffffffffffffffffffff1681526020019081526020016000206001015484604051808573ffffffffffffffffffffffffffffffffffffffff1673ffffffffffffffffffffffffffffffffffffffff1681526020018481526020018381526020018273ffffffffffffffffffffffffffffffffffffffff1673ffffffffffffffffffffffffffffffffffffffff16815260200194505050505060405180910390a15050565b6000600260008373ffffffffffffffffffffffffffffffffffffffff1673ffffffffffffffffffffffffffffffffffffffff168152602001908152602001600020600001549050919050565b6000806060600080600080613d3a6140bd565b600260008a73ffffffffffffffffffffffffffffffffffffffff1673ffffffffffffffffffffffffffffffffffffffff1681526020019081526020016000206040518060e00160405290816000820154815260200160018201548152602001600282015481526020016003820160009054906101000a900460ff166003811115613dc057fe5b6003811115613dcb57fe5b81526020016003820160019054906101000a900460ff166002811115613ded57fe5b6002811115613df857fe5b81526020016003820160029054906101000a900460ff161515151581526020016004820154815250509050606073__RBBLib________________________________63ef0b236883604001516040518263ffffffff1660e01b81526004018082815260200191505060006040518083038186803b158015613e7857600080fd5b505af4158015613e8c573d6000803e3d6000fd5b505050506040513d6000823e3d601f19601f820116820180604052506020811015613eb657600080fd5b810190808051640100000000811115613ece57600080fd5b82810190506020810184811115613ee457600080fd5b8151856001820283011164010000000082111715613f0157600080fd5b50509291905050509050816000015182602001518284606001516003811115613f2657fe5b85608001516002811115613f3657fe5b8660a001518760c0015198509850985098509850985098505050919395979092949650565b6000600160008154600101919050819055905090565b600033905090565b600073ffffffffffffffffffffffffffffffffffffffff168173ffffffffffffffffffffffffffffffffffffffff161415613fff576040517f08c379a00000000000000000000000000000000000000000000000000000000081526004018080602001828103825260268152602001806141bb6026913960400191505060405180910390fd5b8073ffffffffffffffffffffffffffffffffffffffff166000809054906101000a900473ffffffffffffffffffffffffffffffffffffffff1673ffffffffffffffffffffffffffffffffffffffff167f8be0079c531659141344cd1fd0a4f28419497f9722a3daafe3b4186f6b6457e060405160405180910390a3806000806101000a81548173ffffffffffffffffffffffffffffffffffffffff021916908373ffffffffffffffffffffffffffffffffffffffff16021790555050565b6040518060e00160405280600081526020016000815260200160008019168152602001600060038111156140ed57fe5b8152602001600060028111156140ff57fe5b815260200160001515815260200160008152509056fe4170656e6173207175656d206ec3a36f20657374c3a1207061757361646120706f646520616365737361724120636f6e74612070726563697361206573746172206e6f2065737461646f20416775617264616e646f2056616c696461c3a7c3a36f4f20726573706f6e73c3a176656c2070656c612076616c696461c3a7c3a36f206ec3a36f20706f64652076616c6964617220737561207072c3b37072696120636f6e74614f776e61626c653a206e6577206f776e657220697320746865207a65726f20616464726573734120636f6e74612053555041444d494e206ec3a36f20706f64652073657220696e76616c6964616461556d6120706573736f61206ec3a36f20c3a920636170617a2064652072657469726172206f20706175736520646520737561207072c3b37072696120636f6e74614120636f6e746120666f6920696e76616c6964616461207072657669616d656e74652e536f6d656e746520726573706f6e73c3a176656c2070656c612076616c696461c3a7c3a36f20706f646520696e76616c6964617220636f6e7461734120636f6e746120612076616c696461722070726563697361206573746172206e6f2065737461646f20416775617264616e646f2056616c696461c3a7c3a36f536f6d656e746520706f64652070617573617220756d6120636f6e7461207175656d20666f72206461206d65736d61206f7267616e697a61c3a7c3a36f206f752053797374656d2041646d696e6973747261746f724120636f6e74612053555041444d494e206ec3a36f20706f6465207365722070617573616461536f6d656e746520756d6120636f6e7461207061757361646120706f64652073657220646573706175736164614f20726573706f6e73c3a176656c2070656c612076616c696461c3a7c3a36f206465766520736572206461206d65736d61206f7267616e697a61c3a7c3a36f20286d65736d6f20434e504a29456e64657265c3a76f206ec3a36f20706f646520746572207369646f206361646173747261646f20616e746572696f726d656e74654170656e617320636f6e74617320636f6d206465636c617261c3a7c3b565732063756a6f7320636572746966696361646f732061696e64612073c3a36f2076c3a16c69646f732e4f20726573706f6e73c3a176656c2070656c612076616c696461c3a7c3a36f2064657665207365722053555041444d494e4f20726573706f6e73c3a176656c2070656c612076616c696461c3a7c3a36f206465766520746572206f20706170656c2041444d494e536f6d656e746520756d6120636f6e74612076c3a16c69646120706f6465207365722070617573616461536f6d656e746520756d6120636f6e746120726573706f6e73c3a176656c2076616c696461646f726120706f646520646573706175736172206f757472617320636f6e746173a165627a7a723058208c1586a2d511d6d69f539c423399570a44eac56ff0a5b2f5dbf8498cca3b13ce0029",
  "source": "pragma solidity ^0.5.0;\n\nimport \"@openzeppelin/contracts/ownership/Ownable.sol\";\nimport \"./RBBLib.sol\";\n\ncontract RBBRegistry is Ownable() {\n\n    enum BlockchainAccountState {AVAILABLE,WAITING_VALIDATION,VALIDATED,INVALIDATED}\n    BlockchainAccountState blockchainState; /* Variable not used, only defined to create the enum type. */\n                                \n    /**\n    REGULAR  - operates \n    ADMIN    - validates the regular.\n    SUPADMIN - validates the ADMIN. Contract Owner can set multiple SUPADMINs (including himself, machines and human accounts).\n     */\n    enum BlockchainAccountRole {REGULAR, ADMIN, SUPADMIN} \n    BlockchainAccountRole blockchainRole;  /* Variable not used, only defined to create the enum type. */\n\n    /* This is a helper variable to emulate a sequence and autoincrement Ids*/\n    uint public currentRBBId = 0;\n\n     /**\n        This registry is about a company representative information\n     */    \n    struct Registry {\n        uint RBBId; //Unique ID for RBB \n        uint CNPJ; //Brazilian identification of legal entity\n        bytes32 idProofHash; //hash of declaration\n        BlockchainAccountState state;\n        BlockchainAccountRole role;\n        bool paused;\n        uint256 dateTimeExpiration; //vai ser outro momento de expirao diferente do ECNPJ\n    }\n\n    /**\n        Links Ethereum addresses to Registry\n     */\n    mapping(address => Registry) public legalEntitiesInfo;\n\n    /**\n        Links CNPJ to Ethereum addresses.\n     */\n    mapping(uint => address[]) legalEntityId_To_Addr;\n\n    event AccountRegistration       (address addr, uint RBBId, uint CNPJ, bytes32 idProofHash, uint256 dateTimeExpiration);\n    event AccountValidation         (address addr, uint RBBId, uint CNPJ, address responsible);\n    event AccountInvalidation       (address addr, uint RBBId, uint CNPJ, address responsible);\n    event AccountPaused             (address addr, uint RBBId, uint CNPJ, address responsible);\n    event AccountUnpaused           (address addr, uint RBBId, uint CNPJ, address responsible);\n    event AccountRoleChange         (address addr, uint RBBId, uint CNPJ, address responsible, BlockchainAccountRole roleBefore, BlockchainAccountRole roleNew);\n    event AccountExpirationChange   (address addr, uint RBBId, uint CNPJ, address responsible, uint256 dateTimeExpirationBefore, uint256 dateTimeExpirationNew);        \n\n    /* The responsible for the System-Admin is the Owner. It could be or not be the same address (SUPADMIN=owner) */\n    constructor (uint CNPJSUPADMIN, string memory proofHashSUPADMIN, uint256 dateTimeExpiration) public {                \n        address addrSUPADMIN = msg.sender;\n        bytes32 proofHash = RBBLib.stringBytes32(proofHashSUPADMIN);\n        uint RBBId = getNextRBBId();\n        legalEntitiesInfo[addrSUPADMIN] = Registry( RBBId, \n                                                    CNPJSUPADMIN, \n                                                    proofHash, \n                                                    BlockchainAccountState.VALIDATED, \n                                                    BlockchainAccountRole.SUPADMIN, \n                                                    false, \n                                                    dateTimeExpiration     );\n        legalEntityId_To_Addr[CNPJSUPADMIN].push(addrSUPADMIN);\n        emit AccountRegistration(addrSUPADMIN, RBBId, CNPJSUPADMIN, proofHash, dateTimeExpiration); \n        \n    }\n\n   /**\n    * Link blockchain address with CNPJ\n    * @param CNPJ Brazilian identifier to legal entities\n    * @param CNPJProofHash The legal entities have to send BNDES a PDF where it assumes as responsible for an Ethereum account.\n    *                   This PDF is signed with eCNPJ and send to BNDES.\n    */\n    function registryLegalEntity(uint CNPJ, string memory CNPJProofHash, uint256 dateTimeExpiration) public {\n        \n        address addr = msg.sender;\n        bytes32 proofHash = RBBLib.stringBytes32(CNPJProofHash);\n        uint RBBId = getNextRBBId();\n\n        require (isAvailableAccount(addr), \"Endereo no pode ter sido cadastrado anteriormente\");\n\n        if ( proofHash == 0 ) { \n            legalEntitiesInfo[addr] = Registry( RBBId,\n                                                CNPJ, \n                                                proofHash, \n                                                BlockchainAccountState.WAITING_VALIDATION, \n                                                BlockchainAccountRole.REGULAR,\n                                                false,\n                                                dateTimeExpiration );\n        } else {\n            legalEntitiesInfo[addr] = Registry( RBBId,\n                                                CNPJ, \n                                                proofHash, \n                                                BlockchainAccountState.WAITING_VALIDATION, \n                                                BlockchainAccountRole.ADMIN,\n                                                false,\n                                                dateTimeExpiration );\n        }\n\n        legalEntityId_To_Addr[CNPJ].push(addr);\n\n        emit AccountRegistration(addr, RBBId, CNPJ, proofHash, dateTimeExpiration);\n    }\n\n    modifier onlyWhenNotPaused() { \n        require( ! legalEntitiesInfo[msg.sender].paused , \"Apenas quem no est pausada pode acessar\" );\n        _;\n    }\n\n    modifier onlyWhenNotExpired() { \n        require( legalEntitiesInfo[msg.sender].dateTimeExpiration > now , \"Apenas contas com declaraes cujos certificados ainda so vlidos.\" );\n        _;\n    }\n\n   /**\n    * Validates the initial registry of your own organization\n    * @param userAddr Ethereum address that needs to be validated\n    */\n    function validateRegistrySameOrg(address userAddr) public onlyWhenNotPaused onlyWhenNotExpired {\n\n        address responsible = msg.sender;\n       \n        require ( responsible != userAddr, \"O responsvel pela validao no pode validar sua prpria conta\");\n\n        require ( legalEntitiesInfo[responsible].role == BlockchainAccountRole.ADMIN , \n                   \"O responsvel pela validao deve ter o papel ADMIN\" );\n\n        require ( isTheSameID(responsible, userAddr) , \n                   \"O responsvel pela validao deve ser da mesma organizao (mesmo CNPJ)\" );\n\n        require( legalEntitiesInfo[userAddr].state == BlockchainAccountState.WAITING_VALIDATION,\n                   \"A conta a validar precisa estar no estado Aguardando Validao\");\n\n        legalEntitiesInfo[userAddr].state = BlockchainAccountState.VALIDATED;\n\n        emit AccountValidation( userAddr, \n                                legalEntitiesInfo[userAddr].RBBId, \n                                legalEntitiesInfo[userAddr].CNPJ, \n                                responsible);\n    }\n\n/**\n    * Validates the initial registry of others organization\n    * @param userAddr Ethereum address that needs to be validated\n    */\n    function validateRegistry(address userAddr) public onlyWhenNotExpired {\n\n        address responsible = msg.sender;\n        \n        require ( legalEntitiesInfo[responsible].role == BlockchainAccountRole.SUPADMIN \n            , \"O responsvel pela validao deve ser SUPADMIN\" );\n\n        require ( legalEntitiesInfo[userAddr].role == BlockchainAccountRole.ADMIN  \n            , \"A conta a validar deve ser ADMIN\" );\n\n        require(legalEntitiesInfo[userAddr].state == BlockchainAccountState.WAITING_VALIDATION,\n            \"A conta precisa estar no estado Aguardando Validao\");\n\n        legalEntitiesInfo[userAddr].state = BlockchainAccountState.VALIDATED;\n\n        emit AccountValidation( userAddr, \n                                legalEntitiesInfo[userAddr].RBBId, \n                                legalEntitiesInfo[userAddr].CNPJ, \n                                responsible);\n    }    \n\n/**\n    * Pause an account     \n    * @param addr Ethereum address that needs to be paused\n    */\n    function pauseAddress(address addr) public onlyWhenNotPaused {\n\n        address responsible = msg.sender;\n\n        require ( legalEntitiesInfo[addr].role != BlockchainAccountRole.SUPADMIN , \"A conta SUPADMIN no pode ser pausada\");\n        require( isTheSameID(responsible, addr) || legalEntitiesInfo[responsible].role == BlockchainAccountRole.SUPADMIN, \"Somente pode pausar uma conta quem for da mesma organizao ou System Administrator\" );\n        require( isValidatedAccount(addr) , \"Somente uma conta vlida pode ser pausada\");\n\n        legalEntitiesInfo[addr].paused = true;\n        \n        emit AccountPaused( addr, \n                            legalEntitiesInfo[addr].RBBId,\n                            legalEntitiesInfo[addr].CNPJ, \n                            responsible);\n    }\n\n    function pauseLegalEntity(uint CNPJ) public onlyWhenNotPaused {\n\n        address responsible = msg.sender;\n        address[] memory addresses  = legalEntityId_To_Addr[CNPJ];\n\n        require( isTheSameID(responsible, addresses[0]) || legalEntitiesInfo[responsible].role == BlockchainAccountRole.SUPADMIN, \"Somente pode pausar uma conta quem for da mesma organizao ou System Administrator\" );\n\n        for (uint i=0; i < addresses.length ; i++) {\n            address candidate = addresses[i];\n            if( isValidatedAccount( candidate ) ) {\n                legalEntitiesInfo[candidate].paused = true;\n                emit AccountPaused( candidate, \n                                    legalEntitiesInfo[candidate].RBBId,\n                                    legalEntitiesInfo[candidate].CNPJ, \n                                    responsible );\n            }\n        }   \n    }\n\n/**\n    * Unpause an account     \n    * @param addr Ethereum address that needs to be validated\n    */\n    function unpauseAddress(address addr) public onlyWhenNotPaused onlyWhenNotExpired {\n\n        address responsible = msg.sender;\n\n        require ( responsible != addr , \"Uma pessoa no  capaz de retirar o pause de sua prpria conta\");\n        require( isResponsibleForRegistryValidation(responsible) , \"Somente uma conta responsvel validadora pode despausar outras contas\" );        \n        require( legalEntitiesInfo[addr].paused  , \"Somente uma conta pausada pode ser despausada\" ); \n\n        legalEntitiesInfo[addr].paused = false;\n        \n        emit AccountUnpaused(   addr, \n                                legalEntitiesInfo[addr].RBBId,\n                                legalEntitiesInfo[addr].CNPJ, \n                                responsible);\n    }\n\n\n   /**\n    * Invalidates the initial registry of a legal entity or the change of its registry\n    * The invalidation can be called at any time in the lifecycle of the address (not only when it is WAITING_VALIDATION)\n    * @param addr Ethereum address that needs to be validated\n    */\n    function invalidateRegistry(address addr) public onlyWhenNotPaused onlyWhenNotExpired {\n\n        address responsible = msg.sender;\n\n        require( isResponsibleForRegistryValidation(responsible), \"Somente responsvel pela validao pode invalidar contas\");\n        require( legalEntitiesInfo[addr].role != BlockchainAccountRole.SUPADMIN , \"A conta SUPADMIN no pode ser invalidada\");\n        require( legalEntitiesInfo[addr].state != BlockchainAccountState.INVALIDATED, \"A conta foi invalidada previamente.\" );\n\n        legalEntitiesInfo[addr].state = BlockchainAccountState.INVALIDATED;\n        \n        emit AccountInvalidation(   addr, \n                                    legalEntitiesInfo[addr].RBBId, \n                                    legalEntitiesInfo[addr].CNPJ, \n                                    responsible );\n    }\n\n\n   /**\n    * The Owner can assign roles REGULAR, ADMIN and SUPERADMIN to anyone\n    * @param addr Ethereum address to be assigned the new role\n    * @param roleNew the new role itself\n    */\n    function setRole(address addr, BlockchainAccountRole roleNew) public onlyOwner {\n\n        BlockchainAccountRole roleBefore = legalEntitiesInfo[addr].role;\n        legalEntitiesInfo[addr].role     = roleNew;        \n\n        emit AccountRoleChange(   addr, \n                                  legalEntitiesInfo[addr].RBBId, \n                                  legalEntitiesInfo[addr].CNPJ, \n                                  msg.sender,\n                                  roleBefore, \n                                  legalEntitiesInfo[addr].role  );\n    }\n\n    /**\n    * The Owner can assign new account's expiration time\n    * @param addr Ethereum address to be assigned\n    * @param dateTimeExpirationNew the new expiration time \n    */\n    function setExpiration(address addr, uint256 dateTimeExpirationNew) public onlyOwner {\n        uint256 dateTimeExpirationBefore = legalEntitiesInfo[addr].dateTimeExpiration;\n        legalEntitiesInfo[addr].dateTimeExpiration = dateTimeExpirationNew;\n\n        emit AccountExpirationChange(   addr, \n                                        legalEntitiesInfo[addr].RBBId, \n                                        legalEntitiesInfo[addr].CNPJ, \n                                        msg.sender,\n                                        dateTimeExpirationBefore, \n                                        legalEntitiesInfo[addr].dateTimeExpiration  );        \n    }\n\n    function isResponsibleForRegistryValidation(address addr) public view returns (bool) {\n        return ( legalEntitiesInfo[addr].role == BlockchainAccountRole.ADMIN || \n                 legalEntitiesInfo[addr].role == BlockchainAccountRole.SUPADMIN   );\n    }\n\n    function isOwner(address addr) public view returns (bool) {\n        return owner()==addr;\n    }\n\n    function isAvailableAccount(address addr) public view returns (bool) {\n        return legalEntitiesInfo[addr].state == BlockchainAccountState.AVAILABLE;\n    }\n\n    function isWaitingValidationAccount(address addr) public view returns (bool) {\n        return legalEntitiesInfo[addr].state == BlockchainAccountState.WAITING_VALIDATION;\n    }\n\n    function isValidatedAccount(address addr) public view returns (bool) {\n        return legalEntitiesInfo[addr].state == BlockchainAccountState.VALIDATED;\n    }\n\n    function isInvalidated(address addr) public view returns (bool) {\n        return legalEntitiesInfo[addr].state == BlockchainAccountState.INVALIDATED;\n    }\n\n    function isTheSameID(address a, address b) public view returns (bool) {\n        return legalEntitiesInfo[a].CNPJ == legalEntitiesInfo[b].CNPJ ;\n    }\n\n    function isPaused(address addr) public view returns (bool) {\n        return legalEntitiesInfo[addr].paused;\n    }\n\n    function isOperational(address addr) public view returns (bool) {\n        return isValidatedAccount(addr) && !isPaused(addr);\n    }\n\n    function getId (address addr) public view returns (uint) {\n        return getRBBId(addr);\n    }\n\n    function getRBBId (address addr) public view returns (uint) {\n        return legalEntitiesInfo[addr].RBBId;\n    }\n\n    function getCNPJ (address addr) public view returns (uint) {\n        return legalEntitiesInfo[addr].CNPJ;\n    }    \n\n    function getRegistry (address addr) public view returns (uint, uint, string memory, uint, uint, bool, uint256) {\n        Registry memory reg = legalEntitiesInfo[addr];\n        string memory strProofHash = RBBLib.bytes32ToStr(reg.idProofHash);\n\n        return (  reg.RBBId,\n                  reg.CNPJ, \n                  strProofHash, \n                  (uint) (reg.state),\n                  (uint) (reg.role),\n                  reg.paused,\n                  reg.dateTimeExpiration\n                );\n    }\n\n    function getBlockchainAccounts(uint CNPJ) public view returns (address[] memory) {\n        return legalEntityId_To_Addr[CNPJ];\n    }\n\n    function getAccountState(address addr) public view returns (int) {\n        return ((int) (legalEntitiesInfo[addr].state));\n    }\n\n    function getAccountRole(address addr) public view returns (int) {\n        return ((int) (legalEntitiesInfo[addr].role));\n    }\n\n    function registryMock(uint CNPJ) public {\n        \n        address addr = msg.sender;\n        bytes32 proofHash = 0;\n        uint256 dateTimeExpiration = 4294967296; //2106 = 2^32 (Max 2^256 -1)\n        uint RBBId = getNextRBBId();\n        legalEntitiesInfo[addr] = Registry( RBBId, \n                                            CNPJ, \n                                            proofHash, \n                                            BlockchainAccountState.VALIDATED, \n                                            BlockchainAccountRole.ADMIN, \n                                            false, \n                                            dateTimeExpiration );\n\n        legalEntityId_To_Addr[CNPJ].push(addr);\n\n        emit AccountRegistration(addr, RBBId, CNPJ, proofHash, dateTimeExpiration);\n    }\n\n    function getNextRBBId() private returns (uint) {\n        return ++currentRBBId;\n    }   \n \n\n}",
  "sourcePath": "D:/git/rbb-identificacao/Back-Blockchain/contracts/RBBRegistry.sol",
  "compiler": {
    "name": "solc",
    "version": "0.5.8+commit.23d335f2.Emscripten.clang"
  },
  "schemaVersion": "3.0.16",
  "updatedAt": "2020-10-01T16:09:44.330Z",
  "devdoc": {
    "methods": {
      "invalidateRegistry(address)": {
        "params": {
          "addr": "Ethereum address that needs to be validated"
        }
      },
      "isOwner()": {
        "details": "Returns true if the caller is the current owner."
      },
      "owner()": {
        "details": "Returns the address of the current owner."
      },
      "pauseAddress(address)": {
        "params": {
          "addr": "Ethereum address that needs to be paused"
        }
      },
      "registryLegalEntity(uint256,string,uint256)": {
        "params": {
          "CNPJ": "Brazilian identifier to legal entities",
          "CNPJProofHash": "The legal entities have to send BNDES a PDF where it assumes as responsible for an Ethereum account.                  This PDF is signed with eCNPJ and send to BNDES."
        }
      },
      "renounceOwnership()": {
        "details": "Leaves the contract without owner. It will not be possible to call `onlyOwner` functions anymore. Can only be called by the current owner.     * NOTE: Renouncing ownership will leave the contract without an owner, thereby removing any functionality that is only available to the owner."
      },
      "setExpiration(address,uint256)": {
        "params": {
          "addr": "Ethereum address to be assigned",
          "dateTimeExpirationNew": "the new expiration time "
        }
      },
      "setRole(address,uint8)": {
        "params": {
          "addr": "Ethereum address to be assigned the new role",
          "roleNew": "the new role itself"
        }
      },
      "transferOwnership(address)": {
        "details": "Transfers ownership of the contract to a new account (`newOwner`). Can only be called by the current owner."
      },
      "unpauseAddress(address)": {
        "params": {
          "addr": "Ethereum address that needs to be validated"
        }
      },
      "validateRegistry(address)": {
        "params": {
          "userAddr": "Ethereum address that needs to be validated"
        }
      },
      "validateRegistrySameOrg(address)": {
        "params": {
          "userAddr": "Ethereum address that needs to be validated"
        }
      }
    }
  },
  "userdoc": {
    "methods": {
      "invalidateRegistry(address)": {
        "notice": "Invalidates the initial registry of a legal entity or the change of its registry The invalidation can be called at any time in the lifecycle of the address (not only when it is WAITING_VALIDATION)"
      },
      "pauseAddress(address)": {
        "notice": "Pause an account     "
      },
      "registryLegalEntity(uint256,string,uint256)": {
        "notice": "Link blockchain address with CNPJ"
      },
      "setExpiration(address,uint256)": {
        "notice": "The Owner can assign new account's expiration time"
      },
      "setRole(address,uint8)": {
        "notice": "The Owner can assign roles REGULAR, ADMIN and SUPERADMIN to anyone"
      },
      "unpauseAddress(address)": {
        "notice": "Unpause an account     "
      },
      "validateRegistry(address)": {
        "notice": "Validates the initial registry of others organization"
      },
      "validateRegistrySameOrg(address)": {
        "notice": "Validates the initial registry of your own organization"
      }
    }
  }
}