{
  "contractName": "RBBRegistry",
  "abi": [
    {
      "constant": true,
      "inputs": [
        {
          "name": "",
          "type": "address"
        }
      ],
      "name": "legalEntitiesInfo",
      "outputs": [
        {
          "name": "RBBId",
          "type": "uint256"
        },
        {
          "name": "BRId",
          "type": "uint256"
        },
        {
          "name": "idProofHash",
          "type": "bytes32"
        },
        {
          "name": "state",
          "type": "uint8"
        },
        {
          "name": "role",
          "type": "uint8"
        },
        {
          "name": "paused",
          "type": "bool"
        },
        {
          "name": "dateTimeCertificateExpiration",
          "type": "uint256"
        }
      ],
      "payable": false,
      "stateMutability": "view",
      "type": "function"
    },
    {
      "constant": false,
      "inputs": [],
      "name": "renounceOwnership",
      "outputs": [],
      "payable": false,
      "stateMutability": "nonpayable",
      "type": "function"
    },
    {
      "constant": true,
      "inputs": [],
      "name": "owner",
      "outputs": [
        {
          "name": "",
          "type": "address"
        }
      ],
      "payable": false,
      "stateMutability": "view",
      "type": "function"
    },
    {
      "constant": true,
      "inputs": [],
      "name": "currentRBBId",
      "outputs": [
        {
          "name": "",
          "type": "uint256"
        }
      ],
      "payable": false,
      "stateMutability": "view",
      "type": "function"
    },
    {
      "constant": false,
      "inputs": [
        {
          "name": "newOwner",
          "type": "address"
        }
      ],
      "name": "transferOwnership",
      "outputs": [],
      "payable": false,
      "stateMutability": "nonpayable",
      "type": "function"
    },
    {
      "inputs": [
        {
          "name": "BRIdSysAdmin",
          "type": "uint256"
        },
        {
          "name": "proofHashSysAdmin",
          "type": "string"
        },
        {
          "name": "dateTimeCertificateExpiration",
          "type": "uint256"
        }
      ],
      "payable": false,
      "stateMutability": "nonpayable",
      "type": "constructor"
    },
    {
      "anonymous": false,
      "inputs": [
        {
          "indexed": false,
          "name": "addr",
          "type": "address"
        },
        {
          "indexed": false,
          "name": "BRId",
          "type": "uint256"
        },
        {
          "indexed": false,
          "name": "idProofHash",
          "type": "bytes32"
        },
        {
          "indexed": false,
          "name": "dateTimeCertificateExpiration",
          "type": "uint256"
        }
      ],
      "name": "AccountRegistration",
      "type": "event"
    },
    {
      "anonymous": false,
      "inputs": [
        {
          "indexed": false,
          "name": "addr",
          "type": "address"
        },
        {
          "indexed": false,
          "name": "BRId",
          "type": "uint256"
        },
        {
          "indexed": false,
          "name": "responsible",
          "type": "address"
        }
      ],
      "name": "AccountValidation",
      "type": "event"
    },
    {
      "anonymous": false,
      "inputs": [
        {
          "indexed": false,
          "name": "addr",
          "type": "address"
        },
        {
          "indexed": false,
          "name": "BRId",
          "type": "uint256"
        },
        {
          "indexed": false,
          "name": "responsible",
          "type": "address"
        }
      ],
      "name": "AccountInvalidation",
      "type": "event"
    },
    {
      "anonymous": false,
      "inputs": [
        {
          "indexed": false,
          "name": "addr",
          "type": "address"
        },
        {
          "indexed": false,
          "name": "BRId",
          "type": "uint256"
        },
        {
          "indexed": false,
          "name": "responsible",
          "type": "address"
        }
      ],
      "name": "AccountAdminUpgrade",
      "type": "event"
    },
    {
      "anonymous": false,
      "inputs": [
        {
          "indexed": false,
          "name": "addr",
          "type": "address"
        },
        {
          "indexed": false,
          "name": "BRId",
          "type": "uint256"
        },
        {
          "indexed": false,
          "name": "responsible",
          "type": "address"
        }
      ],
      "name": "AccountPaused",
      "type": "event"
    },
    {
      "anonymous": false,
      "inputs": [
        {
          "indexed": false,
          "name": "addr",
          "type": "address"
        },
        {
          "indexed": false,
          "name": "BRId",
          "type": "uint256"
        },
        {
          "indexed": false,
          "name": "responsible",
          "type": "address"
        }
      ],
      "name": "AccountUnpaused",
      "type": "event"
    },
    {
      "anonymous": false,
      "inputs": [
        {
          "indexed": true,
          "name": "previousOwner",
          "type": "address"
        },
        {
          "indexed": true,
          "name": "newOwner",
          "type": "address"
        }
      ],
      "name": "OwnershipTransferred",
      "type": "event"
    },
    {
      "constant": false,
      "inputs": [
        {
          "name": "BRId",
          "type": "uint256"
        },
        {
          "name": "BRIdProofHash",
          "type": "string"
        },
        {
          "name": "dateTimeCertificateExpiration",
          "type": "uint256"
        }
      ],
      "name": "registryLegalEntity",
      "outputs": [],
      "payable": false,
      "stateMutability": "nonpayable",
      "type": "function"
    },
    {
      "constant": false,
      "inputs": [
        {
          "name": "userAddr",
          "type": "address"
        }
      ],
      "name": "validateRegistryLegalEntity",
      "outputs": [],
      "payable": false,
      "stateMutability": "nonpayable",
      "type": "function"
    },
    {
      "constant": false,
      "inputs": [
        {
          "name": "addr",
          "type": "address"
        }
      ],
      "name": "pauseAddress",
      "outputs": [],
      "payable": false,
      "stateMutability": "nonpayable",
      "type": "function"
    },
    {
      "constant": false,
      "inputs": [
        {
          "name": "BRId",
          "type": "uint256"
        }
      ],
      "name": "pauseLegalEntity",
      "outputs": [],
      "payable": false,
      "stateMutability": "nonpayable",
      "type": "function"
    },
    {
      "constant": false,
      "inputs": [
        {
          "name": "addr",
          "type": "address"
        }
      ],
      "name": "unpauseAddress",
      "outputs": [],
      "payable": false,
      "stateMutability": "nonpayable",
      "type": "function"
    },
    {
      "constant": false,
      "inputs": [
        {
          "name": "addr",
          "type": "address"
        }
      ],
      "name": "invalidateRegistryLegalEntity",
      "outputs": [],
      "payable": false,
      "stateMutability": "nonpayable",
      "type": "function"
    },
    {
      "constant": false,
      "inputs": [
        {
          "name": "addr",
          "type": "address"
        }
      ],
      "name": "setResponsibleForRegistryValidation",
      "outputs": [],
      "payable": false,
      "stateMutability": "nonpayable",
      "type": "function"
    },
    {
      "constant": true,
      "inputs": [
        {
          "name": "addr",
          "type": "address"
        }
      ],
      "name": "isResponsibleForRegistryValidation",
      "outputs": [
        {
          "name": "",
          "type": "bool"
        }
      ],
      "payable": false,
      "stateMutability": "view",
      "type": "function"
    },
    {
      "constant": true,
      "inputs": [
        {
          "name": "addr",
          "type": "address"
        }
      ],
      "name": "isOwner",
      "outputs": [
        {
          "name": "",
          "type": "bool"
        }
      ],
      "payable": false,
      "stateMutability": "view",
      "type": "function"
    },
    {
      "constant": true,
      "inputs": [],
      "name": "isOwner",
      "outputs": [
        {
          "name": "",
          "type": "bool"
        }
      ],
      "payable": false,
      "stateMutability": "view",
      "type": "function"
    },
    {
      "constant": true,
      "inputs": [
        {
          "name": "addr",
          "type": "address"
        }
      ],
      "name": "isAvailableAccount",
      "outputs": [
        {
          "name": "",
          "type": "bool"
        }
      ],
      "payable": false,
      "stateMutability": "view",
      "type": "function"
    },
    {
      "constant": true,
      "inputs": [
        {
          "name": "addr",
          "type": "address"
        }
      ],
      "name": "isWaitingValidationAccount",
      "outputs": [
        {
          "name": "",
          "type": "bool"
        }
      ],
      "payable": false,
      "stateMutability": "view",
      "type": "function"
    },
    {
      "constant": true,
      "inputs": [
        {
          "name": "addr",
          "type": "address"
        }
      ],
      "name": "isValidatedAccount",
      "outputs": [
        {
          "name": "",
          "type": "bool"
        }
      ],
      "payable": false,
      "stateMutability": "view",
      "type": "function"
    },
    {
      "constant": true,
      "inputs": [
        {
          "name": "addr",
          "type": "address"
        }
      ],
      "name": "isInvalidated",
      "outputs": [
        {
          "name": "",
          "type": "bool"
        }
      ],
      "payable": false,
      "stateMutability": "view",
      "type": "function"
    },
    {
      "constant": true,
      "inputs": [
        {
          "name": "a",
          "type": "address"
        },
        {
          "name": "b",
          "type": "address"
        }
      ],
      "name": "isTheSameID",
      "outputs": [
        {
          "name": "",
          "type": "bool"
        }
      ],
      "payable": false,
      "stateMutability": "view",
      "type": "function"
    },
    {
      "constant": true,
      "inputs": [
        {
          "name": "addr",
          "type": "address"
        }
      ],
      "name": "getId",
      "outputs": [
        {
          "name": "",
          "type": "uint256"
        }
      ],
      "payable": false,
      "stateMutability": "view",
      "type": "function"
    },
    {
      "constant": true,
      "inputs": [
        {
          "name": "addr",
          "type": "address"
        }
      ],
      "name": "getLegalEntityInfo",
      "outputs": [
        {
          "name": "",
          "type": "uint256"
        },
        {
          "name": "",
          "type": "uint256"
        },
        {
          "name": "",
          "type": "string"
        },
        {
          "name": "",
          "type": "uint256"
        },
        {
          "name": "",
          "type": "uint256"
        },
        {
          "name": "",
          "type": "bool"
        },
        {
          "name": "",
          "type": "uint256"
        }
      ],
      "payable": false,
      "stateMutability": "view",
      "type": "function"
    },
    {
      "constant": true,
      "inputs": [
        {
          "name": "BRId",
          "type": "uint256"
        }
      ],
      "name": "getBlockchainAccounts",
      "outputs": [
        {
          "name": "",
          "type": "address[]"
        }
      ],
      "payable": false,
      "stateMutability": "view",
      "type": "function"
    },
    {
      "constant": true,
      "inputs": [
        {
          "name": "addr",
          "type": "address"
        }
      ],
      "name": "getAccountState",
      "outputs": [
        {
          "name": "",
          "type": "int256"
        }
      ],
      "payable": false,
      "stateMutability": "view",
      "type": "function"
    },
    {
      "constant": true,
      "inputs": [
        {
          "name": "addr",
          "type": "address"
        }
      ],
      "name": "getAccountRole",
      "outputs": [
        {
          "name": "",
          "type": "int256"
        }
      ],
      "payable": false,
      "stateMutability": "view",
      "type": "function"
    },
    {
      "constant": false,
      "inputs": [
        {
          "name": "BRId",
          "type": "uint256"
        }
      ],
      "name": "registryMock",
      "outputs": [],
      "payable": false,
      "stateMutability": "nonpayable",
      "type": "function"
    }
  ],
  "bytecode": "0x608060405260006001553480156200001657600080fd5b5060405162003d6b38038062003d6b833981018060405260608110156200003c57600080fd5b810190808051906020019092919080516401000000008111156200005f57600080fd5b828101905060208101848111156200007657600080fd5b81518560018202830111640100000000821117156200009457600080fd5b5050929190602001805190602001909291905050506000620000bb6200049060201b60201c565b9050806000806101000a81548173ffffffffffffffffffffffffffffffffffffffff021916908373ffffffffffffffffffffffffffffffffffffffff1602179055508073ffffffffffffffffffffffffffffffffffffffff16600073ffffffffffffffffffffffffffffffffffffffff167f8be0079c531659141344cd1fd0a4f28419497f9722a3daafe3b4186f6b6457e060405160405180910390a3506000339050600073__RBBLib________________________________63592c80ee856040518263ffffffff1660e01b81526004018080602001828103825283818151815260200191508051906020019080838360005b83811015620001cc578082015181840152602081019050620001af565b50505050905090810190601f168015620001fa5780820380516001836020036101000a031916815260200191505b509250505060206040518083038186803b1580156200021857600080fd5b505af41580156200022d573d6000803e3d6000fd5b505050506040513d60208110156200024457600080fd5b810190808051906020019092919050505090506040518060e00160405280620002726200049860201b60201c565b8152602001868152602001828152602001600260038111156200029157fe5b8152602001600280811115620002a357fe5b815260200160001515815260200184815250600260008473ffffffffffffffffffffffffffffffffffffffff1673ffffffffffffffffffffffffffffffffffffffff16815260200190815260200160002060008201518160000155602082015181600101556040820151816002015560608201518160030160006101000a81548160ff021916908360038111156200033757fe5b021790555060808201518160030160016101000a81548160ff021916908360028111156200036157fe5b021790555060a08201518160030160026101000a81548160ff02191690831515021790555060c08201518160040155905050600360008681526020019081526020016000208290806001815401808255809150509060018203906000526020600020016000909192909190916101000a81548173ffffffffffffffffffffffffffffffffffffffff021916908373ffffffffffffffffffffffffffffffffffffffff160217905550507f8b09186458bc94a6ea47dc716cfbc374081d77efeb1e02629a63f88fb394fa3782868386604051808573ffffffffffffffffffffffffffffffffffffffff1673ffffffffffffffffffffffffffffffffffffffff16815260200184815260200183815260200182815260200194505050505060405180910390a15050505050620004ae565b600033905090565b6000600160008154600101919050819055905090565b6138ad80620004be6000396000f3fe608060405234801561001057600080fd5b506004361061018e5760003560e01c80638cbd258f116100de578063a3d8845311610097578063c616f4c011610071578063c616f4c0146109d2578063e81bb70c146109f0578063f2fde38b14610a1e578063f582202714610a625761018e565b8063a3d88453146108b6578063b41842b914610912578063bb393086146109565761018e565b80638cbd258f146106675780638da5cb5b146106ab5780638e97637e146106f55780638f32d59b146107515780639ee2735b146107735780639f5e1ddd146107cb5761018e565b80633d68a5f31161014b578063715018a611610125578063715018a61461059357806377df472c1461059d57806381d66b23146105e15780638c879eb1146106395761018e565b80633d68a5f31461049b5780636426a116146104df57806365f68c891461053b5761018e565b80630bf20e01146101935780630c4471bd1461021657806326ff4794146102725780632f54bf6e1461031457806333c479f1146103705780633abba2ef1461043f575b600080fd5b6101bf600480360360208110156101a957600080fd5b8101908080359060200190929190505050610aa6565b6040518080602001828103825283818151815260200191508051906020019060200280838360005b838110156102025780820151818401526020810190506101e7565b505050509050019250505060405180910390f35b6102586004803603602081101561022c57600080fd5b81019080803573ffffffffffffffffffffffffffffffffffffffff169060200190929190505050610b47565b604051808215151515815260200191505060405180910390f35b6102b46004803603602081101561028857600080fd5b81019080803573ffffffffffffffffffffffffffffffffffffffff169060200190929190505050610bb9565b604051808881526020018781526020018681526020018560038111156102d657fe5b60ff1681526020018460028111156102ea57fe5b60ff1681526020018315151515815260200182815260200197505050505050505060405180910390f35b6103566004803603602081101561032a57600080fd5b81019080803573ffffffffffffffffffffffffffffffffffffffff169060200190929190505050610c22565b604051808215151515815260200191505060405180910390f35b61043d6004803603606081101561038657600080fd5b8101908080359060200190929190803590602001906401000000008111156103ad57600080fd5b8201836020820111156103bf57600080fd5b803590602001918460018302840111640100000000831117156103e157600080fd5b91908080601f016020809104026020016040519081016040528093929190818152602001838380828437600081840152601f19601f82011690508083019250505050505050919291929080359060200190929190505050610c61565b005b6104816004803603602081101561045557600080fd5b81019080803573ffffffffffffffffffffffffffffffffffffffff169060200190929190505050611123565b604051808215151515815260200191505060405180910390f35b6104dd600480360360208110156104b157600080fd5b81019080803573ffffffffffffffffffffffffffffffffffffffff169060200190929190505050611204565b005b610521600480360360208110156104f557600080fd5b81019080803573ffffffffffffffffffffffffffffffffffffffff1690602001909291905050506116ec565b604051808215151515815260200191505060405180910390f35b61057d6004803603602081101561055157600080fd5b81019080803573ffffffffffffffffffffffffffffffffffffffff16906020019092919050505061175e565b6040518082815260200191505060405180910390f35b61059b6117aa565b005b6105df600480360360208110156105b357600080fd5b81019080803573ffffffffffffffffffffffffffffffffffffffff1690602001909291905050506118e3565b005b610623600480360360208110156105f757600080fd5b81019080803573ffffffffffffffffffffffffffffffffffffffff169060200190929190505050611cb8565b6040518082815260200191505060405180910390f35b6106656004803603602081101561064f57600080fd5b8101908080359060200190929190505050611d1c565b005b6106a96004803603602081101561067d57600080fd5b81019080803573ffffffffffffffffffffffffffffffffffffffff1690602001909291905050506120cb565b005b6106b3612350565b604051808273ffffffffffffffffffffffffffffffffffffffff1673ffffffffffffffffffffffffffffffffffffffff16815260200191505060405180910390f35b6107376004803603602081101561070b57600080fd5b81019080803573ffffffffffffffffffffffffffffffffffffffff169060200190929190505050612379565b604051808215151515815260200191505060405180910390f35b6107596123ea565b604051808215151515815260200191505060405180910390f35b6107b56004803603602081101561078957600080fd5b81019080803573ffffffffffffffffffffffffffffffffffffffff169060200190929190505050612448565b6040518082815260200191505060405180910390f35b61080d600480360360208110156107e157600080fd5b81019080803573ffffffffffffffffffffffffffffffffffffffff1690602001909291905050506124ac565b604051808881526020018781526020018060200186815260200185815260200184151515158152602001838152602001828103825287818151815260200191508051906020019080838360005b8381101561087557808201518184015260208101905061085a565b50505050905090810190601f1680156108a25780820380516001836020036101000a031916815260200191505b509850505050505050505060405180910390f35b6108f8600480360360208110156108cc57600080fd5b81019080803573ffffffffffffffffffffffffffffffffffffffff1690602001909291905050506126e0565b604051808215151515815260200191505060405180910390f35b6109546004803603602081101561092857600080fd5b81019080803573ffffffffffffffffffffffffffffffffffffffff169060200190929190505050612751565b005b6109b86004803603604081101561096c57600080fd5b81019080803573ffffffffffffffffffffffffffffffffffffffff169060200190929190803573ffffffffffffffffffffffffffffffffffffffff169060200190929190505050612bb9565b604051808215151515815260200191505060405180910390f35b6109da612c4a565b6040518082815260200191505060405180910390f35b610a1c60048036036020811015610a0657600080fd5b8101908080359060200190929190505050612c50565b005b610a6060048036036020811015610a3457600080fd5b81019080803573ffffffffffffffffffffffffffffffffffffffff169060200190929190505050612e90565b005b610aa460048036036020811015610a7857600080fd5b81019080803573ffffffffffffffffffffffffffffffffffffffff169060200190929190505050612f16565b005b606060036000838152602001908152602001600020805480602002602001604051908101604052809291908181526020018280548015610b3b57602002820191906000526020600020905b8160009054906101000a900473ffffffffffffffffffffffffffffffffffffffff1673ffffffffffffffffffffffffffffffffffffffff1681526020019060010190808311610af1575b50505050509050919050565b600060016003811115610b5657fe5b600260008473ffffffffffffffffffffffffffffffffffffffff1673ffffffffffffffffffffffffffffffffffffffff16815260200190815260200160002060030160009054906101000a900460ff166003811115610bb157fe5b149050919050565b60026020528060005260406000206000915090508060000154908060010154908060020154908060030160009054906101000a900460ff16908060030160019054906101000a900460ff16908060030160029054906101000a900460ff16908060040154905087565b60008173ffffffffffffffffffffffffffffffffffffffff16610c43612350565b73ffffffffffffffffffffffffffffffffffffffff16149050919050565b6000339050600073__RBBLib________________________________63592c80ee856040518263ffffffff1660e01b81526004018080602001828103825283818151815260200191508051906020019080838360005b83811015610cd2578082015181840152602081019050610cb7565b50505050905090810190601f168015610cff5780820380516001836020036101000a031916815260200191505b509250505060206040518083038186803b158015610d1c57600080fd5b505af4158015610d30573d6000803e3d6000fd5b505050506040513d6020811015610d4657600080fd5b81019080805190602001909291905050509050610d62826126e0565b610db7576040517f08c379a00000000000000000000000000000000000000000000000000000000081526004018080602001828103825260358152602001806137966035913960400191505060405180910390fd5b6000801b811415610ef8576040518060e00160405280610dd5613323565b815260200186815260200182815260200160016003811115610df357fe5b815260200160016002811115610e0557fe5b815260200160001515815260200184815250600260008473ffffffffffffffffffffffffffffffffffffffff1673ffffffffffffffffffffffffffffffffffffffff16815260200190815260200160002060008201518160000155602082015181600101556040820151816002015560608201518160030160006101000a81548160ff02191690836003811115610e9857fe5b021790555060808201518160030160016101000a81548160ff02191690836002811115610ec157fe5b021790555060a08201518160030160026101000a81548160ff02191690831515021790555060c0820151816004015590505061102a565b6040518060e00160405280610f0b613323565b815260200186815260200182815260200160016003811115610f2957fe5b815260200160006002811115610f3b57fe5b815260200160001515815260200184815250600260008473ffffffffffffffffffffffffffffffffffffffff1673ffffffffffffffffffffffffffffffffffffffff16815260200190815260200160002060008201518160000155602082015181600101556040820151816002015560608201518160030160006101000a81548160ff02191690836003811115610fce57fe5b021790555060808201518160030160016101000a81548160ff02191690836002811115610ff757fe5b021790555060a08201518160030160026101000a81548160ff02191690831515021790555060c082015181600401559050505b600360008681526020019081526020016000208290806001815401808255809150509060018203906000526020600020016000909192909190916101000a81548173ffffffffffffffffffffffffffffffffffffffff021916908373ffffffffffffffffffffffffffffffffffffffff160217905550507f8b09186458bc94a6ea47dc716cfbc374081d77efeb1e02629a63f88fb394fa3782868386604051808573ffffffffffffffffffffffffffffffffffffffff1673ffffffffffffffffffffffffffffffffffffffff16815260200184815260200183815260200182815260200194505050505060405180910390a15050505050565b60006001600281111561113257fe5b600260008473ffffffffffffffffffffffffffffffffffffffff1673ffffffffffffffffffffffffffffffffffffffff16815260200190815260200160002060030160019054906101000a900460ff16600281111561118d57fe5b14806111fd57506002808111156111a057fe5b600260008473ffffffffffffffffffffffffffffffffffffffff1673ffffffffffffffffffffffffffffffffffffffff16815260200190815260200160002060030160019054906101000a900460ff1660028111156111fb57fe5b145b9050919050565b600260003373ffffffffffffffffffffffffffffffffffffffff1673ffffffffffffffffffffffffffffffffffffffff16815260200190815260200160002060030160029054906101000a900460ff16156112aa576040517f08c379a000000000000000000000000000000000000000000000000000000000815260040180806020018281038252602b8152602001806134de602b913960400191505060405180910390fd5b42600260003373ffffffffffffffffffffffffffffffffffffffff1673ffffffffffffffffffffffffffffffffffffffff1681526020019081526020016000206004015411611344576040517f08c379a00000000000000000000000000000000000000000000000000000000081526004018080602001828103825260478152602001806137cb6047913960600191505060405180910390fd5b600033905061135281611123565b6113a7576040517f08c379a00000000000000000000000000000000000000000000000000000000081526004018080602001828103825260398152602001806136e46039913960400191505060405180910390fd5b6002808111156113b357fe5b600260008373ffffffffffffffffffffffffffffffffffffffff1673ffffffffffffffffffffffffffffffffffffffff16815260200190815260200160002060030160019054906101000a900460ff16600281111561140e57fe5b148061149157506001600281111561142257fe5b600260008373ffffffffffffffffffffffffffffffffffffffff1673ffffffffffffffffffffffffffffffffffffffff16815260200190815260200160002060030160019054906101000a900460ff16600281111561147d57fe5b148015611490575061148f8183612bb9565b5b5b6114e6576040517f08c379a000000000000000000000000000000000000000000000000000000000815260040180806020018281038252604c81526020018061374a604c913960600191505060405180910390fd5b600160038111156114f357fe5b600260008473ffffffffffffffffffffffffffffffffffffffff1673ffffffffffffffffffffffffffffffffffffffff16815260200190815260200160002060030160009054906101000a900460ff16600381111561154e57fe5b146115a4576040517f08c379a00000000000000000000000000000000000000000000000000000000081526004018080602001828103825260368152602001806135096036913960400191505060405180910390fd5b60028060008473ffffffffffffffffffffffffffffffffffffffff1673ffffffffffffffffffffffffffffffffffffffff16815260200190815260200160002060030160006101000a81548160ff0219169083600381111561160257fe5b02179055507f294cd52aa579a7ee948c69102bdc47e60ad7f5983667a1ceef82e9bce8f3f7b882600260008573ffffffffffffffffffffffffffffffffffffffff1673ffffffffffffffffffffffffffffffffffffffff1681526020019081526020016000206001015483604051808473ffffffffffffffffffffffffffffffffffffffff1673ffffffffffffffffffffffffffffffffffffffff1681526020018381526020018273ffffffffffffffffffffffffffffffffffffffff1673ffffffffffffffffffffffffffffffffffffffff168152602001935050505060405180910390a15050565b6000600260038111156116fb57fe5b600260008473ffffffffffffffffffffffffffffffffffffffff1673ffffffffffffffffffffffffffffffffffffffff16815260200190815260200160002060030160009054906101000a900460ff16600381111561175657fe5b149050919050565b6000600260008373ffffffffffffffffffffffffffffffffffffffff1673ffffffffffffffffffffffffffffffffffffffff168152602001908152602001600020600101549050919050565b6117b26123ea565b611824576040517f08c379a00000000000000000000000000000000000000000000000000000000081526004018080602001828103825260208152602001807f4f776e61626c653a2063616c6c6572206973206e6f7420746865206f776e657281525060200191505060405180910390fd5b600073ffffffffffffffffffffffffffffffffffffffff166000809054906101000a900473ffffffffffffffffffffffffffffffffffffffff1673ffffffffffffffffffffffffffffffffffffffff167f8be0079c531659141344cd1fd0a4f28419497f9722a3daafe3b4186f6b6457e060405160405180910390a360008060006101000a81548173ffffffffffffffffffffffffffffffffffffffff021916908373ffffffffffffffffffffffffffffffffffffffff160217905550565b600260003373ffffffffffffffffffffffffffffffffffffffff1673ffffffffffffffffffffffffffffffffffffffff16815260200190815260200160002060030160029054906101000a900460ff1615611989576040517f08c379a000000000000000000000000000000000000000000000000000000000815260040180806020018281038252602b8152602001806134de602b913960400191505060405180910390fd5b600033905060028081111561199a57fe5b600260008473ffffffffffffffffffffffffffffffffffffffff1673ffffffffffffffffffffffffffffffffffffffff16815260200190815260200160002060030160019054906101000a900460ff1660028111156119f557fe5b1415611a4c576040517f08c379a000000000000000000000000000000000000000000000000000000000815260040180806020018281038252602681526020018061360b6026913960400191505060405180910390fd5b611a568183612bb9565b80611ac55750600280811115611a6857fe5b600260008373ffffffffffffffffffffffffffffffffffffffff1673ffffffffffffffffffffffffffffffffffffffff16815260200190815260200160002060030160019054906101000a900460ff166002811115611ac357fe5b145b611b1a576040517f08c379a000000000000000000000000000000000000000000000000000000000815260040180806020018281038252605581526020018061368f6055913960600191505060405180910390fd5b611b23826116ec565b611b78576040517f08c379a000000000000000000000000000000000000000000000000000000000815260040180806020018281038252602a815260200180613812602a913960400191505060405180910390fd5b6001600260008473ffffffffffffffffffffffffffffffffffffffff1673ffffffffffffffffffffffffffffffffffffffff16815260200190815260200160002060030160026101000a81548160ff0219169083151502179055507f49103328d6bfa84194d36b40c570ff71aa5bd06e39955ee2e759e5ae6987b68d82600260008573ffffffffffffffffffffffffffffffffffffffff1673ffffffffffffffffffffffffffffffffffffffff1681526020019081526020016000206001015483604051808473ffffffffffffffffffffffffffffffffffffffff1673ffffffffffffffffffffffffffffffffffffffff1681526020018381526020018273ffffffffffffffffffffffffffffffffffffffff1673ffffffffffffffffffffffffffffffffffffffff168152602001935050505060405180910390a15050565b6000600260008373ffffffffffffffffffffffffffffffffffffffff1673ffffffffffffffffffffffffffffffffffffffff16815260200190815260200160002060030160019054906101000a900460ff166002811115611d1557fe5b9050919050565b600260003373ffffffffffffffffffffffffffffffffffffffff1673ffffffffffffffffffffffffffffffffffffffff16815260200190815260200160002060030160029054906101000a900460ff1615611dc2576040517f08c379a000000000000000000000000000000000000000000000000000000000815260040180806020018281038252602b8152602001806134de602b913960400191505060405180910390fd5b6000339050606060036000848152602001908152602001600020805480602002602001604051908101604052809291908181526020018280548015611e5c57602002820191906000526020600020905b8160009054906101000a900473ffffffffffffffffffffffffffffffffffffffff1673ffffffffffffffffffffffffffffffffffffffff1681526020019060010190808311611e12575b50505050509050611e818282600081518110611e7457fe5b6020026020010151612bb9565b80611ef05750600280811115611e9357fe5b600260008473ffffffffffffffffffffffffffffffffffffffff1673ffffffffffffffffffffffffffffffffffffffff16815260200190815260200160002060030160019054906101000a900460ff166002811115611eee57fe5b145b611f45576040517f08c379a000000000000000000000000000000000000000000000000000000000815260040180806020018281038252605581526020018061368f6055913960600191505060405180910390fd5b60008090505b81518110156120c5576000828281518110611f6257fe5b60200260200101519050611f75816116ec565b156120b7576001600260008373ffffffffffffffffffffffffffffffffffffffff1673ffffffffffffffffffffffffffffffffffffffff16815260200190815260200160002060030160026101000a81548160ff0219169083151502179055507f49103328d6bfa84194d36b40c570ff71aa5bd06e39955ee2e759e5ae6987b68d81600260008473ffffffffffffffffffffffffffffffffffffffff1673ffffffffffffffffffffffffffffffffffffffff1681526020019081526020016000206001015486604051808473ffffffffffffffffffffffffffffffffffffffff1673ffffffffffffffffffffffffffffffffffffffff1681526020018381526020018273ffffffffffffffffffffffffffffffffffffffff1673ffffffffffffffffffffffffffffffffffffffff168152602001935050505060405180910390a15b508080600101915050611f4b565b50505050565b600160028111156120d857fe5b600260008373ffffffffffffffffffffffffffffffffffffffff1673ffffffffffffffffffffffffffffffffffffffff16815260200190815260200160002060030160019054906101000a900460ff16600281111561213357fe5b14806121a3575060028081111561214657fe5b600260008373ffffffffffffffffffffffffffffffffffffffff1673ffffffffffffffffffffffffffffffffffffffff16815260200190815260200160002060030160019054906101000a900460ff1660028111156121a157fe5b145b806121b357506121b281610c22565b5b612208576040517f08c379a000000000000000000000000000000000000000000000000000000000815260040180806020018281038252603c815260200180613565603c913960400191505060405180910390fd5b6001600260008373ffffffffffffffffffffffffffffffffffffffff1673ffffffffffffffffffffffffffffffffffffffff16815260200190815260200160002060030160016101000a81548160ff0219169083600281111561226757fe5b02179055507fcbc4624620cce2b672e6ff89f1468cad74c4942cee2ac5eb0f6d75eb48281f8581600260008473ffffffffffffffffffffffffffffffffffffffff1673ffffffffffffffffffffffffffffffffffffffff1681526020019081526020016000206001015433604051808473ffffffffffffffffffffffffffffffffffffffff1673ffffffffffffffffffffffffffffffffffffffff1681526020018381526020018273ffffffffffffffffffffffffffffffffffffffff1673ffffffffffffffffffffffffffffffffffffffff168152602001935050505060405180910390a150565b60008060009054906101000a900473ffffffffffffffffffffffffffffffffffffffff16905090565b600060038081111561238757fe5b600260008473ffffffffffffffffffffffffffffffffffffffff1673ffffffffffffffffffffffffffffffffffffffff16815260200190815260200160002060030160009054906101000a900460ff1660038111156123e257fe5b149050919050565b60008060009054906101000a900473ffffffffffffffffffffffffffffffffffffffff1673ffffffffffffffffffffffffffffffffffffffff1661242c613339565b73ffffffffffffffffffffffffffffffffffffffff1614905090565b6000600260008373ffffffffffffffffffffffffffffffffffffffff1673ffffffffffffffffffffffffffffffffffffffff16815260200190815260200160002060030160009054906101000a900460ff1660038111156124a557fe5b9050919050565b60008060606000806000806124bf613485565b600260008a73ffffffffffffffffffffffffffffffffffffffff1673ffffffffffffffffffffffffffffffffffffffff1681526020019081526020016000206040518060e00160405290816000820154815260200160018201548152602001600282015481526020016003820160009054906101000a900460ff16600381111561254557fe5b600381111561255057fe5b81526020016003820160019054906101000a900460ff16600281111561257257fe5b600281111561257d57fe5b81526020016003820160029054906101000a900460ff161515151581526020016004820154815250509050606073__RBBLib________________________________63ef0b236883604001516040518263ffffffff1660e01b81526004018082815260200191505060006040518083038186803b1580156125fd57600080fd5b505af4158015612611573d6000803e3d6000fd5b505050506040513d6000823e3d601f19601f82011682018060405250602081101561263b57600080fd5b81019080805164010000000081111561265357600080fd5b8281019050602081018481111561266957600080fd5b815185600182028301116401000000008211171561268657600080fd5b505092919050505090508160000151826020015182846060015160038111156126ab57fe5b856080015160028111156126bb57fe5b8660a001518760c0015198509850985098509850985098505050919395979092949650565b60008060038111156126ee57fe5b600260008473ffffffffffffffffffffffffffffffffffffffff1673ffffffffffffffffffffffffffffffffffffffff16815260200190815260200160002060030160009054906101000a900460ff16600381111561274957fe5b149050919050565b600260003373ffffffffffffffffffffffffffffffffffffffff1673ffffffffffffffffffffffffffffffffffffffff16815260200190815260200160002060030160029054906101000a900460ff16156127f7576040517f08c379a000000000000000000000000000000000000000000000000000000000815260040180806020018281038252602b8152602001806134de602b913960400191505060405180910390fd5b42600260003373ffffffffffffffffffffffffffffffffffffffff1673ffffffffffffffffffffffffffffffffffffffff1681526020019081526020016000206004015411612891576040517f08c379a00000000000000000000000000000000000000000000000000000000081526004018080602001828103825260478152602001806137cb6047913960600191505060405180910390fd5b600033905061289f81611123565b6128f4576040517f08c379a000000000000000000000000000000000000000000000000000000000815260040180806020018281038252603b815260200180613654603b913960400191505060405180910390fd5b60028081111561290057fe5b600260008473ffffffffffffffffffffffffffffffffffffffff1673ffffffffffffffffffffffffffffffffffffffff16815260200190815260200160002060030160019054906101000a900460ff16600281111561295b57fe5b14156129b2576040517f08c379a00000000000000000000000000000000000000000000000000000000081526004018080602001828103825260298152602001806135a16029913960400191505060405180910390fd5b6003808111156129be57fe5b600260008473ffffffffffffffffffffffffffffffffffffffff1673ffffffffffffffffffffffffffffffffffffffff16815260200190815260200160002060030160009054906101000a900460ff166003811115612a1957fe5b1415612a70576040517f08c379a00000000000000000000000000000000000000000000000000000000081526004018080602001828103825260238152602001806136316023913960400191505060405180910390fd5b6003600260008473ffffffffffffffffffffffffffffffffffffffff1673ffffffffffffffffffffffffffffffffffffffff16815260200190815260200160002060030160006101000a81548160ff02191690836003811115612acf57fe5b02179055507f28e69314c8855f1b7517106feca71c4af03d1a4b75aa7db9a30ad1c21ec55ccc82600260008573ffffffffffffffffffffffffffffffffffffffff1673ffffffffffffffffffffffffffffffffffffffff1681526020019081526020016000206001015483604051808473ffffffffffffffffffffffffffffffffffffffff1673ffffffffffffffffffffffffffffffffffffffff1681526020018381526020018273ffffffffffffffffffffffffffffffffffffffff1673ffffffffffffffffffffffffffffffffffffffff168152602001935050505060405180910390a15050565b6000600260008373ffffffffffffffffffffffffffffffffffffffff1673ffffffffffffffffffffffffffffffffffffffff16815260200190815260200160002060010154600260008573ffffffffffffffffffffffffffffffffffffffff1673ffffffffffffffffffffffffffffffffffffffff1681526020019081526020016000206001015414905092915050565b60015481565b600033905060008060001b9050600064010000000090506040518060e00160405280612c7a613323565b815260200185815260200183815260200160026003811115612c9857fe5b815260200160016002811115612caa57fe5b815260200160001515815260200182815250600260008573ffffffffffffffffffffffffffffffffffffffff1673ffffffffffffffffffffffffffffffffffffffff16815260200190815260200160002060008201518160000155602082015181600101556040820151816002015560608201518160030160006101000a81548160ff02191690836003811115612d3d57fe5b021790555060808201518160030160016101000a81548160ff02191690836002811115612d6657fe5b021790555060a08201518160030160026101000a81548160ff02191690831515021790555060c08201518160040155905050600360008581526020019081526020016000208390806001815401808255809150509060018203906000526020600020016000909192909190916101000a81548173ffffffffffffffffffffffffffffffffffffffff021916908373ffffffffffffffffffffffffffffffffffffffff160217905550507f8b09186458bc94a6ea47dc716cfbc374081d77efeb1e02629a63f88fb394fa3783858484604051808573ffffffffffffffffffffffffffffffffffffffff1673ffffffffffffffffffffffffffffffffffffffff16815260200184815260200183815260200182815260200194505050505060405180910390a150505050565b612e986123ea565b612f0a576040517f08c379a00000000000000000000000000000000000000000000000000000000081526004018080602001828103825260208152602001807f4f776e61626c653a2063616c6c6572206973206e6f7420746865206f776e657281525060200191505060405180910390fd5b612f1381613341565b50565b600260003373ffffffffffffffffffffffffffffffffffffffff1673ffffffffffffffffffffffffffffffffffffffff16815260200190815260200160002060030160029054906101000a900460ff1615612fbc576040517f08c379a000000000000000000000000000000000000000000000000000000000815260040180806020018281038252602b8152602001806134de602b913960400191505060405180910390fd5b42600260003373ffffffffffffffffffffffffffffffffffffffff1673ffffffffffffffffffffffffffffffffffffffff1681526020019081526020016000206004015411613056576040517f08c379a00000000000000000000000000000000000000000000000000000000081526004018080602001828103825260478152602001806137cb6047913960600191505060405180910390fd5b60003390508173ffffffffffffffffffffffffffffffffffffffff168173ffffffffffffffffffffffffffffffffffffffff1614156130e0576040517f08c379a00000000000000000000000000000000000000000000000000000000081526004018080602001828103825260418152602001806135ca6041913960600191505060405180910390fd5b6130e981611123565b61313e576040517f08c379a000000000000000000000000000000000000000000000000000000000815260040180806020018281038252604681526020018061383c6046913960600191505060405180910390fd5b600260008373ffffffffffffffffffffffffffffffffffffffff1673ffffffffffffffffffffffffffffffffffffffff16815260200190815260200160002060030160029054906101000a900460ff166131e3576040517f08c379a000000000000000000000000000000000000000000000000000000000815260040180806020018281038252602d81526020018061371d602d913960400191505060405180910390fd5b6000600260008473ffffffffffffffffffffffffffffffffffffffff1673ffffffffffffffffffffffffffffffffffffffff16815260200190815260200160002060030160026101000a81548160ff0219169083151502179055507fd9c9f58a7529b3094c535a59cf888947e38a1921a719079ad47c132422f143e282600260008573ffffffffffffffffffffffffffffffffffffffff1673ffffffffffffffffffffffffffffffffffffffff1681526020019081526020016000206001015483604051808473ffffffffffffffffffffffffffffffffffffffff1673ffffffffffffffffffffffffffffffffffffffff1681526020018381526020018273ffffffffffffffffffffffffffffffffffffffff1673ffffffffffffffffffffffffffffffffffffffff168152602001935050505060405180910390a15050565b6000600160008154600101919050819055905090565b600033905090565b600073ffffffffffffffffffffffffffffffffffffffff168173ffffffffffffffffffffffffffffffffffffffff1614156133c7576040517f08c379a000000000000000000000000000000000000000000000000000000000815260040180806020018281038252602681526020018061353f6026913960400191505060405180910390fd5b8073ffffffffffffffffffffffffffffffffffffffff166000809054906101000a900473ffffffffffffffffffffffffffffffffffffffff1673ffffffffffffffffffffffffffffffffffffffff167f8be0079c531659141344cd1fd0a4f28419497f9722a3daafe3b4186f6b6457e060405160405180910390a3806000806101000a81548173ffffffffffffffffffffffffffffffffffffffff021916908373ffffffffffffffffffffffffffffffffffffffff16021790555050565b6040518060e00160405280600081526020016000815260200160008019168152602001600060038111156134b557fe5b8152602001600060028111156134c757fe5b815260200160001515815260200160008152509056fe4170656e6173207175656d206ec3a36f20657374c3a1207061757361646120706f646520616365737361724120636f6e74612070726563697361206573746172206e6f2065737461646f20416775617264616e646f2056616c696461c3a7c3a36f4f776e61626c653a206e6577206f776e657220697320746865207a65726f20616464726573734170656e6173204f776e65722c2041646d696e206f752053797374656d2d41646d696e20706f64656d2064617220706f6465722064652041646d696e4120636f6e74612053595341444d494e206ec3a36f20706f64652073657220696e76616c6964616461556d6120706573736f61206ec3a36f20c3a920636170617a2064652072657469726172206f20706175736520646520737561207072c3b37072696120636f6e74614120636f6e74612053595341444d494e206ec3a36f20706f64652073657220706175736164614120636f6e746120666f6920696e76616c6964616461207072657669616d656e74652e536f6d656e746520726573706f6e73c3a176656c2070656c612076616c696461c3a7c3a36f20706f646520696e76616c6964617220636f6e746173536f6d656e746520706f64652070617573617220756d6120636f6e7461207175656d20666f72206461206d65736d61206f7267616e697a61c3a7c3a36f206f752053797374656d2041646d696e6973747261746f72536f6d656e746520726573706f6e73c3a176656c2070656c612076616c696461c3a7c3a36f20706f64652076616c6964617220636f6e746173536f6d656e746520756d6120636f6e7461207061757361646120706f64652073657220646573706175736164614f20726573706f6e73c3a176656c2070656c612076616c696461c3a7c3a36f206465766520736572206461206d65736d61206f7267616e697a61c3a7c3a36f20286d65736d6f20434e504a29456e64657265c3a76f206ec3a36f20706f646520746572207369646f206361646173747261646f20616e746572696f726d656e74654170656e617320636f6e74617320636f6d206465636c617261c3a7c3b565732063756a6f7320636572746966696361646f732061696e64612073c3a36f2076c3a16c69646f732e536f6d656e746520756d6120636f6e74612076c3a16c69646120706f6465207365722070617573616461536f6d656e746520756d6120636f6e746120726573706f6e73c3a176656c2076616c696461646f726120706f646520646573706175736172206f757472617320636f6e746173a165627a7a7230582060ec12a907bf24662935426503c118496d324207385c8b6a2fb5a3666bd30c0d0029",
  "source": "pragma solidity ^0.5.0;\n\nimport \"@openzeppelin/contracts/ownership/Ownable.sol\";\nimport \"./RBBLib.sol\";\n\n//TODO: Pensar numa nova chave ao inves do CNPJ, seria o RBBID \n\ncontract RBBRegistry is Ownable() {\n\n    /** Account States:\n        AVAILABLE - The account is not yet assigned any role.\n        WAITING_VALIDATION - The account was linked to a legal entity but it still needs to be validated\n        VALIDATED - The account was validated\n        INVALIDATED - The account was invalidated\n     */\n    enum BlockchainAccountState {AVAILABLE,WAITING_VALIDATION,VALIDATED,INVALIDATED}\n    BlockchainAccountState blockchainState; /* Variable not used, only defined to create the enum type. */\n\n    enum BlockchainAccountRole {NORMAL, ADMIN, SYSADMIN} \n    BlockchainAccountRole blockchainRole;  /* Variable not used, only defined to create the enum type. */\n\n    /* This is a helper variable to emulate a sequence and autoincrementBRIds*/\n    uint public currentRBBId = 0;\n\n     /**\n        This represents a real life organization\n     */\n    struct LegalEntityInfo {\n        uint RBBId; //Unique ID for RBBID\n        uint BRId; //Brazilian identification of legal entity\n        bytes32 idProofHash; //hash of declaration\n        BlockchainAccountState state;\n        BlockchainAccountRole role;\n        bool paused;\n        uint256 dateTimeCertificateExpiration; \n    }\n\n    /**\n        Links Ethereum addresses to LegalEntityInfo\n     */\n    mapping(address => LegalEntityInfo) public legalEntitiesInfo;\n\n    /**\n        Links Legal Entity IDs to Ethereum addresses.\n     */\n    mapping(uint => address[]) legalEntityId_To_Addr;\n\n    event AccountRegistration(address addr, uint BRId,  bytes32 idProofHash, uint256 dateTimeCertificateExpiration);\n    event AccountValidation(address addr, uint BRId, address responsible);\n    event AccountInvalidation(address addr, uint BRId, address responsible);\n    event AccountAdminUpgrade(address addr, uint BRId, address responsible);\n    event AccountPaused(address addr, uint BRId, address responsible);\n    event AccountUnpaused(address addr, uint BRId, address responsible);\n\n    /* The responsible for the System-Admin is the Owner. It could be or not be the same address (sysadmin=owner) */\n    constructor (uint BRIdSysAdmin, string memory proofHashSysAdmin, uint256 dateTimeCertificateExpiration) public {                \n        address addrSysAdmin = msg.sender;\n        bytes32 proofHash = RBBLib.stringBytes32(proofHashSysAdmin);\n        legalEntitiesInfo[addrSysAdmin] = LegalEntityInfo(  getNextRBBId(), \n                                                            BRIdSysAdmin, \n                                                            proofHash, \n                                                            BlockchainAccountState.VALIDATED, \n                                                            BlockchainAccountRole.SYSADMIN, \n                                                            false, \n                                                            dateTimeCertificateExpiration     );\n        legalEntityId_To_Addr[BRIdSysAdmin].push(addrSysAdmin);\n        emit AccountRegistration(addrSysAdmin, BRIdSysAdmin, proofHash, dateTimeCertificateExpiration); \n        \n    }\n\n   /**\n    * Link blockchain address with BRId\n    * @param BRId Brazilian identifier to legal entities\n    * @param BRIdProofHash The legal entities have to send BNDES a PDF where it assumes as responsible for an Ethereum account.\n    *                   This PDF is signed with eCNPJ and send to BNDES.\n    */\n    function registryLegalEntity(uint BRId, string memory BRIdProofHash, uint256 dateTimeCertificateExpiration) public {\n        \n        address addr = msg.sender;\n        bytes32 proofHash = RBBLib.stringBytes32(BRIdProofHash);\n\n        require (isAvailableAccount(addr), \"Endereo no pode ter sido cadastrado anteriormente\");\n\n        if ( proofHash == 0 ) { \n            legalEntitiesInfo[addr] = LegalEntityInfo(  getNextRBBId(),\n                                                        BRId, \n                                                        proofHash, \n                                                        BlockchainAccountState.WAITING_VALIDATION, \n                                                        BlockchainAccountRole.ADMIN,\n                                                        false,\n                                                        dateTimeCertificateExpiration );\n        } else {\n            legalEntitiesInfo[addr] = LegalEntityInfo(  getNextRBBId(),\n                                                        BRId, \n                                                        proofHash, \n                                                        BlockchainAccountState.WAITING_VALIDATION, \n                                                        BlockchainAccountRole.NORMAL,\n                                                        false,\n                                                        dateTimeCertificateExpiration );\n        }\n\n        legalEntityId_To_Addr[BRId].push(addr);\n\n        emit AccountRegistration(addr, BRId, proofHash, dateTimeCertificateExpiration);\n    }\n\n    modifier onlyWhenNotPaused() { \n        require( ! legalEntitiesInfo[msg.sender].paused , \"Apenas quem no est pausada pode acessar\" );\n        _;\n    }\n\n    modifier onlyWhenNotExpired() { \n        require( legalEntitiesInfo[msg.sender].dateTimeCertificateExpiration > now , \"Apenas contas com declaraes cujos certificados ainda so vlidos.\" );\n        _;\n    }\n\n   /**\n    * Validates the initial registry of a legal entity \n    * @param userAddr Ethereum address that needs to be validated\n    */\n    function validateRegistryLegalEntity(address userAddr) public onlyWhenNotPaused onlyWhenNotExpired {\n\n        address responsible = msg.sender;\n\n        require(isResponsibleForRegistryValidation(responsible), \"Somente responsvel pela validao pode validar contas\");\n        \n        require ( legalEntitiesInfo[responsible].role == BlockchainAccountRole.SYSADMIN \n                || \n                ( legalEntitiesInfo[responsible].role == BlockchainAccountRole.ADMIN\n                     && isTheSameID(responsible, userAddr) )\n            , \"O responsvel pela validao deve ser da mesma organizao (mesmo CNPJ)\" );\n\n        require(legalEntitiesInfo[userAddr].state == BlockchainAccountState.WAITING_VALIDATION,\n            \"A conta precisa estar no estado Aguardando Validao\");\n\n        legalEntitiesInfo[userAddr].state = BlockchainAccountState.VALIDATED;\n\n        emit AccountValidation(userAddr, legalEntitiesInfo[userAddr].BRId, responsible);\n    }\n\n/**\n    * Pause an account     \n    * @param addr Ethereum address that needs to be paused\n    */\n    function pauseAddress(address addr) public onlyWhenNotPaused {\n\n        address responsible = msg.sender;\n\n        require ( legalEntitiesInfo[addr].role != BlockchainAccountRole.SYSADMIN , \"A conta SYSADMIN no pode ser pausada\");\n        require( isTheSameID(responsible, addr) || legalEntitiesInfo[responsible].role == BlockchainAccountRole.SYSADMIN, \"Somente pode pausar uma conta quem for da mesma organizao ou System Administrator\" );\n        require( isValidatedAccount(addr) , \"Somente uma conta vlida pode ser pausada\");\n\n        legalEntitiesInfo[addr].paused = true;\n        \n        emit AccountPaused(addr, legalEntitiesInfo[addr].BRId, responsible);\n    }\n\n    function pauseLegalEntity(uint BRId) public onlyWhenNotPaused {\n\n        address responsible = msg.sender;\n        address[] memory addresses  = legalEntityId_To_Addr[BRId];\n\n        require( isTheSameID(responsible, addresses[0]) || legalEntitiesInfo[responsible].role == BlockchainAccountRole.SYSADMIN, \"Somente pode pausar uma conta quem for da mesma organizao ou System Administrator\" );\n\n        for (uint i=0; i < addresses.length ; i++) {\n            address candidate = addresses[i];\n            if( isValidatedAccount( candidate ) ) {\n                legalEntitiesInfo[candidate].paused = true;\n                emit AccountPaused( candidate, legalEntitiesInfo[candidate].BRId, responsible );\n            }\n        }   \n    }\n\n/**\n    * Unpause an account     \n    * @param addr Ethereum address that needs to be validated\n    */\n    function unpauseAddress(address addr) public onlyWhenNotPaused onlyWhenNotExpired {\n\n        address responsible = msg.sender;\n\n        require ( responsible != addr , \"Uma pessoa no  capaz de retirar o pause de sua prpria conta\");\n        require( isResponsibleForRegistryValidation(responsible) , \"Somente uma conta responsvel validadora pode despausar outras contas\" );        \n        require( legalEntitiesInfo[addr].paused  , \"Somente uma conta pausada pode ser despausada\" ); \n\n        legalEntitiesInfo[addr].paused = false;\n        \n        emit AccountUnpaused(addr, legalEntitiesInfo[addr].BRId, responsible);\n    }\n\n\n   /**\n    * Invalidates the initial registry of a legal entity or the change of its registry\n    * The invalidation can be called at any time in the lifecycle of the address (not only when it is WAITING_VALIDATION)\n    * @param addr Ethereum address that needs to be validated\n    */\n    function invalidateRegistryLegalEntity(address addr) public onlyWhenNotPaused onlyWhenNotExpired {\n\n        address responsible = msg.sender;\n\n        require(isResponsibleForRegistryValidation(responsible), \"Somente responsvel pela validao pode invalidar contas\");\n        require ( legalEntitiesInfo[addr].role != BlockchainAccountRole.SYSADMIN , \"A conta SYSADMIN no pode ser invalidada\");\n        require ( legalEntitiesInfo[addr].state != BlockchainAccountState.INVALIDATED, \"A conta foi invalidada previamente.\" );\n\n        legalEntitiesInfo[addr].state = BlockchainAccountState.INVALIDATED;\n        \n        emit AccountInvalidation(addr, legalEntitiesInfo[addr].BRId, responsible);\n    }\n\n\n   /**\n    * By default, the owner is also the Responsible for Validation.\n    * The owner can assign other address to be the Responsible for Validation.\n    * @param addr Ethereum address to be assigned as Responsible for Validation.\n    */\n    function setResponsibleForRegistryValidation(address addr) public {\n        require ( ( legalEntitiesInfo[addr].role == BlockchainAccountRole.ADMIN || \n                 legalEntitiesInfo[addr].role == BlockchainAccountRole.SYSADMIN || isOwner(addr) ), \"Apenas Owner, Admin ou System-Admin podem dar poder de Admin\");\n        legalEntitiesInfo[addr].role = BlockchainAccountRole.ADMIN;        \n        emit AccountAdminUpgrade(addr, legalEntitiesInfo[addr].BRId, msg.sender);\n    }\n\n    function isResponsibleForRegistryValidation(address addr) public view returns (bool) {\n        return ( legalEntitiesInfo[addr].role == BlockchainAccountRole.ADMIN || \n                 legalEntitiesInfo[addr].role == BlockchainAccountRole.SYSADMIN   );\n    }\n\n    function isOwner(address addr) public view returns (bool) {\n        return owner()==addr;\n    }\n\n    function isAvailableAccount(address addr) public view returns (bool) {\n        return legalEntitiesInfo[addr].state == BlockchainAccountState.AVAILABLE;\n    }\n\n    function isWaitingValidationAccount(address addr) public view returns (bool) {\n        return legalEntitiesInfo[addr].state == BlockchainAccountState.WAITING_VALIDATION;\n    }\n\n    function isValidatedAccount(address addr) public view returns (bool) {\n        return legalEntitiesInfo[addr].state == BlockchainAccountState.VALIDATED;\n    }\n\n    function isInvalidated(address addr) public view returns (bool) {\n        return legalEntitiesInfo[addr].state == BlockchainAccountState.INVALIDATED;\n    }\n\n    function isTheSameID(address a, address b) public view returns (bool) {\n        return legalEntitiesInfo[a].BRId == legalEntitiesInfo[b].BRId ;\n    }\n\n    function getId (address addr) public view returns (uint) {\n        return legalEntitiesInfo[addr].BRId;\n    }\n\n    function getLegalEntityInfo (address addr) public view returns (uint, uint, string memory, uint, uint, bool, uint256) {\n        LegalEntityInfo memory reg = legalEntitiesInfo[addr];\n        string memory strProofHash = RBBLib.bytes32ToStr(reg.idProofHash);\n\n        return (  reg.RBBId,\n                  reg.BRId, \n                  strProofHash, \n                  (uint) (reg.state),\n                  (uint) (reg.role),\n                  reg.paused,\n                  reg.dateTimeCertificateExpiration\n                );\n    }\n\n    function getBlockchainAccounts(uint BRId) public view returns (address[] memory) {\n        return legalEntityId_To_Addr[BRId];\n    }\n\n    function getAccountState(address addr) public view returns (int) {\n        return ((int) (legalEntitiesInfo[addr].state));\n    }\n\n    function getAccountRole(address addr) public view returns (int) {\n        return ((int) (legalEntitiesInfo[addr].role));\n    }\n\n    function registryMock(uint BRId) public {\n        \n        address addr = msg.sender;\n        bytes32 proofHash = 0;\n        uint256 dateTimeCertificateExpiration = 4294967296; //2106 = 2^32 (Max 2^256 -1)\n\n        legalEntitiesInfo[addr] = LegalEntityInfo(  getNextRBBId(), \n                                                    BRId, \n                                                    proofHash, \n                                                    BlockchainAccountState.VALIDATED, \n                                                    BlockchainAccountRole.ADMIN, \n                                                    false, \n                                                    dateTimeCertificateExpiration );\n\n        legalEntityId_To_Addr[BRId].push(addr);\n\n        emit AccountRegistration(addr, BRId, proofHash, dateTimeCertificateExpiration);\n    }\n\n    function getNextRBBId() private returns (uint) {\n        return ++currentRBBId;\n    }   \n \n\n}",
  "sourcePath": "D:/git/rbb-identificacao/Back-Blockchain/contracts/RBBRegistry.sol",
  "compiler": {
    "name": "solc",
    "version": "0.5.8+commit.23d335f2.Emscripten.clang"
  },
  "schemaVersion": "3.0.16",
  "updatedAt": "2020-09-28T16:17:36.995Z",
  "devdoc": {
    "methods": {
      "invalidateRegistryLegalEntity(address)": {
        "params": {
          "addr": "Ethereum address that needs to be validated"
        }
      },
      "isOwner()": {
        "details": "Returns true if the caller is the current owner."
      },
      "owner()": {
        "details": "Returns the address of the current owner."
      },
      "pauseAddress(address)": {
        "params": {
          "addr": "Ethereum address that needs to be paused"
        }
      },
      "registryLegalEntity(uint256,string,uint256)": {
        "params": {
          "BRId": "Brazilian identifier to legal entities",
          "BRIdProofHash": "The legal entities have to send BNDES a PDF where it assumes as responsible for an Ethereum account.                  This PDF is signed with eCNPJ and send to BNDES."
        }
      },
      "renounceOwnership()": {
        "details": "Leaves the contract without owner. It will not be possible to call `onlyOwner` functions anymore. Can only be called by the current owner.     * NOTE: Renouncing ownership will leave the contract without an owner, thereby removing any functionality that is only available to the owner."
      },
      "setResponsibleForRegistryValidation(address)": {
        "params": {
          "addr": "Ethereum address to be assigned as Responsible for Validation."
        }
      },
      "transferOwnership(address)": {
        "details": "Transfers ownership of the contract to a new account (`newOwner`). Can only be called by the current owner."
      },
      "unpauseAddress(address)": {
        "params": {
          "addr": "Ethereum address that needs to be validated"
        }
      },
      "validateRegistryLegalEntity(address)": {
        "params": {
          "userAddr": "Ethereum address that needs to be validated"
        }
      }
    }
  },
  "userdoc": {
    "methods": {
      "invalidateRegistryLegalEntity(address)": {
        "notice": "Invalidates the initial registry of a legal entity or the change of its registry The invalidation can be called at any time in the lifecycle of the address (not only when it is WAITING_VALIDATION)"
      },
      "pauseAddress(address)": {
        "notice": "Pause an account     "
      },
      "registryLegalEntity(uint256,string,uint256)": {
        "notice": "Link blockchain address with BRId"
      },
      "setResponsibleForRegistryValidation(address)": {
        "notice": "By default, the owner is also the Responsible for Validation. The owner can assign other address to be the Responsible for Validation."
      },
      "unpauseAddress(address)": {
        "notice": "Unpause an account     "
      },
      "validateRegistryLegalEntity(address)": {
        "notice": "Validates the initial registry of a legal entity "
      }
    }
  }
}