{
  "contractName": "RBBRegistry",
  "abi": [
    {
      "inputs": [],
      "stateMutability": "nonpayable",
      "type": "constructor"
    },
    {
      "anonymous": false,
      "inputs": [
        {
          "indexed": false,
          "internalType": "address",
          "name": "addr",
          "type": "address"
        },
        {
          "indexed": false,
          "internalType": "uint256",
          "name": "RBBId",
          "type": "uint256"
        },
        {
          "indexed": false,
          "internalType": "uint64",
          "name": "CNPJ",
          "type": "uint64"
        },
        {
          "indexed": false,
          "internalType": "address",
          "name": "responsible",
          "type": "address"
        },
        {
          "indexed": false,
          "internalType": "uint8",
          "name": "reason",
          "type": "uint8"
        }
      ],
      "name": "AccountInvalidation",
      "type": "event"
    },
    {
      "anonymous": false,
      "inputs": [
        {
          "indexed": false,
          "internalType": "address",
          "name": "addr",
          "type": "address"
        },
        {
          "indexed": false,
          "internalType": "uint256",
          "name": "RBBId",
          "type": "uint256"
        },
        {
          "indexed": false,
          "internalType": "uint64",
          "name": "CNPJ",
          "type": "uint64"
        },
        {
          "indexed": false,
          "internalType": "address",
          "name": "responsible",
          "type": "address"
        },
        {
          "indexed": false,
          "internalType": "uint8",
          "name": "reason",
          "type": "uint8"
        }
      ],
      "name": "AccountPaused",
      "type": "event"
    },
    {
      "anonymous": false,
      "inputs": [
        {
          "indexed": false,
          "internalType": "address",
          "name": "addr",
          "type": "address"
        },
        {
          "indexed": false,
          "internalType": "string",
          "name": "hashProof",
          "type": "string"
        },
        {
          "indexed": false,
          "internalType": "uint256",
          "name": "dateTimeExpiration",
          "type": "uint256"
        }
      ],
      "name": "AccountReactivation",
      "type": "event"
    },
    {
      "anonymous": false,
      "inputs": [
        {
          "indexed": false,
          "internalType": "address",
          "name": "addr",
          "type": "address"
        },
        {
          "indexed": false,
          "internalType": "uint256",
          "name": "RBBId",
          "type": "uint256"
        },
        {
          "indexed": false,
          "internalType": "uint64",
          "name": "CNPJ",
          "type": "uint64"
        },
        {
          "indexed": false,
          "internalType": "string",
          "name": "hashProof",
          "type": "string"
        },
        {
          "indexed": false,
          "internalType": "uint256",
          "name": "dateTimeExpiration",
          "type": "uint256"
        }
      ],
      "name": "AccountRegistration",
      "type": "event"
    },
    {
      "anonymous": false,
      "inputs": [
        {
          "indexed": false,
          "internalType": "address",
          "name": "addr",
          "type": "address"
        },
        {
          "indexed": false,
          "internalType": "uint256",
          "name": "RBBId",
          "type": "uint256"
        },
        {
          "indexed": false,
          "internalType": "uint64",
          "name": "CNPJ",
          "type": "uint64"
        },
        {
          "indexed": false,
          "internalType": "address",
          "name": "responsible",
          "type": "address"
        },
        {
          "indexed": false,
          "internalType": "enum RBBRegistry.BlockchainAccountRole",
          "name": "roleBefore",
          "type": "uint8"
        },
        {
          "indexed": false,
          "internalType": "enum RBBRegistry.BlockchainAccountRole",
          "name": "roleNew",
          "type": "uint8"
        }
      ],
      "name": "AccountRoleChange",
      "type": "event"
    },
    {
      "anonymous": false,
      "inputs": [
        {
          "indexed": false,
          "internalType": "address",
          "name": "addr",
          "type": "address"
        },
        {
          "indexed": false,
          "internalType": "uint256",
          "name": "RBBId",
          "type": "uint256"
        },
        {
          "indexed": false,
          "internalType": "uint64",
          "name": "CNPJ",
          "type": "uint64"
        },
        {
          "indexed": false,
          "internalType": "address",
          "name": "responsible",
          "type": "address"
        },
        {
          "indexed": false,
          "internalType": "uint8",
          "name": "reason",
          "type": "uint8"
        }
      ],
      "name": "AccountUnpaused",
      "type": "event"
    },
    {
      "anonymous": false,
      "inputs": [
        {
          "indexed": false,
          "internalType": "address",
          "name": "addr",
          "type": "address"
        },
        {
          "indexed": false,
          "internalType": "uint256",
          "name": "RBBId",
          "type": "uint256"
        },
        {
          "indexed": false,
          "internalType": "uint64",
          "name": "CNPJ",
          "type": "uint64"
        },
        {
          "indexed": false,
          "internalType": "address",
          "name": "responsible",
          "type": "address"
        }
      ],
      "name": "AccountValidation",
      "type": "event"
    },
    {
      "anonymous": false,
      "inputs": [
        {
          "indexed": false,
          "internalType": "address",
          "name": "addr",
          "type": "address"
        },
        {
          "indexed": false,
          "internalType": "uint256",
          "name": "RBBId",
          "type": "uint256"
        },
        {
          "indexed": false,
          "internalType": "uint64",
          "name": "CNPJ",
          "type": "uint64"
        },
        {
          "indexed": false,
          "internalType": "address",
          "name": "responsible",
          "type": "address"
        }
      ],
      "name": "AccountWaitingApproval",
      "type": "event"
    },
    {
      "anonymous": false,
      "inputs": [
        {
          "indexed": false,
          "internalType": "address",
          "name": "addr",
          "type": "address"
        },
        {
          "indexed": false,
          "internalType": "uint256",
          "name": "RBBId",
          "type": "uint256"
        },
        {
          "indexed": false,
          "internalType": "uint64",
          "name": "CNPJ",
          "type": "uint64"
        },
        {
          "indexed": false,
          "internalType": "address",
          "name": "responsible",
          "type": "address"
        }
      ],
      "name": "AccountWaitingRejection",
      "type": "event"
    },
    {
      "anonymous": false,
      "inputs": [
        {
          "indexed": true,
          "internalType": "address",
          "name": "previousOwner",
          "type": "address"
        },
        {
          "indexed": true,
          "internalType": "address",
          "name": "newOwner",
          "type": "address"
        }
      ],
      "name": "OwnershipTransferred",
      "type": "event"
    },
    {
      "anonymous": false,
      "inputs": [
        {
          "indexed": false,
          "internalType": "address",
          "name": "addr",
          "type": "address"
        },
        {
          "indexed": false,
          "internalType": "uint256",
          "name": "dateTimeExpirationBefore",
          "type": "uint256"
        },
        {
          "indexed": false,
          "internalType": "uint256",
          "name": "dateTimeExpirationNew",
          "type": "uint256"
        }
      ],
      "name": "RegistryExpirationChange",
      "type": "event"
    },
    {
      "anonymous": false,
      "inputs": [
        {
          "indexed": false,
          "internalType": "address",
          "name": "rs",
          "type": "address"
        }
      ],
      "name": "RoleDefinitionActingAfterMonitoring",
      "type": "event"
    },
    {
      "anonymous": false,
      "inputs": [
        {
          "indexed": false,
          "internalType": "address",
          "name": "rs",
          "type": "address"
        }
      ],
      "name": "RoleDefinitionRegistryPreValidation",
      "type": "event"
    },
    {
      "anonymous": false,
      "inputs": [
        {
          "indexed": false,
          "internalType": "address",
          "name": "rs",
          "type": "address"
        }
      ],
      "name": "RoleDefinitionRegistryValidation",
      "type": "event"
    },
    {
      "inputs": [
        {
          "internalType": "uint64",
          "name": "",
          "type": "uint64"
        }
      ],
      "name": "CNPJ_RBBId",
      "outputs": [
        {
          "internalType": "uint256",
          "name": "",
          "type": "uint256"
        }
      ],
      "stateMutability": "view",
      "type": "function",
      "constant": true
    },
    {
      "inputs": [
        {
          "internalType": "uint256",
          "name": "",
          "type": "uint256"
        },
        {
          "internalType": "uint256",
          "name": "",
          "type": "uint256"
        }
      ],
      "name": "RBBId_addresses",
      "outputs": [
        {
          "internalType": "address",
          "name": "",
          "type": "address"
        }
      ],
      "stateMutability": "view",
      "type": "function",
      "constant": true
    },
    {
      "inputs": [],
      "name": "currentRBBId",
      "outputs": [
        {
          "internalType": "uint256",
          "name": "",
          "type": "uint256"
        }
      ],
      "stateMutability": "view",
      "type": "function",
      "constant": true
    },
    {
      "inputs": [],
      "name": "defaultDeltaDateTimeExpiration",
      "outputs": [
        {
          "internalType": "uint256",
          "name": "",
          "type": "uint256"
        }
      ],
      "stateMutability": "view",
      "type": "function",
      "constant": true
    },
    {
      "inputs": [
        {
          "internalType": "address",
          "name": "",
          "type": "address"
        }
      ],
      "name": "legalEntitiesInfo",
      "outputs": [
        {
          "internalType": "uint256",
          "name": "RBBId",
          "type": "uint256"
        },
        {
          "internalType": "uint64",
          "name": "CNPJ",
          "type": "uint64"
        },
        {
          "internalType": "string",
          "name": "hashProof",
          "type": "string"
        },
        {
          "internalType": "enum RBBRegistry.BlockchainAccountState",
          "name": "state",
          "type": "uint8"
        },
        {
          "internalType": "enum RBBRegistry.BlockchainAccountRole",
          "name": "role",
          "type": "uint8"
        },
        {
          "internalType": "bool",
          "name": "paused",
          "type": "bool"
        },
        {
          "internalType": "uint256",
          "name": "dateTimeExpiration",
          "type": "uint256"
        }
      ],
      "stateMutability": "view",
      "type": "function",
      "constant": true
    },
    {
      "inputs": [],
      "name": "owner",
      "outputs": [
        {
          "internalType": "address",
          "name": "",
          "type": "address"
        }
      ],
      "stateMutability": "view",
      "type": "function",
      "constant": true
    },
    {
      "inputs": [],
      "name": "renounceOwnership",
      "outputs": [],
      "stateMutability": "nonpayable",
      "type": "function"
    },
    {
      "inputs": [],
      "name": "responsibleForActingAfterMonitoring",
      "outputs": [
        {
          "internalType": "address",
          "name": "",
          "type": "address"
        }
      ],
      "stateMutability": "view",
      "type": "function",
      "constant": true
    },
    {
      "inputs": [],
      "name": "responsibleForRegistryPreValidation",
      "outputs": [
        {
          "internalType": "address",
          "name": "",
          "type": "address"
        }
      ],
      "stateMutability": "view",
      "type": "function",
      "constant": true
    },
    {
      "inputs": [],
      "name": "responsibleForRegistryValidation",
      "outputs": [
        {
          "internalType": "address",
          "name": "",
          "type": "address"
        }
      ],
      "stateMutability": "view",
      "type": "function",
      "constant": true
    },
    {
      "inputs": [
        {
          "internalType": "address",
          "name": "newOwner",
          "type": "address"
        }
      ],
      "name": "transferOwnership",
      "outputs": [],
      "stateMutability": "nonpayable",
      "type": "function"
    },
    {
      "inputs": [
        {
          "internalType": "address",
          "name": "rs",
          "type": "address"
        }
      ],
      "name": "setResponsibleForRegistryPreValidation",
      "outputs": [],
      "stateMutability": "nonpayable",
      "type": "function"
    },
    {
      "inputs": [
        {
          "internalType": "address",
          "name": "rs",
          "type": "address"
        }
      ],
      "name": "setResponsibleForRegistryValidation",
      "outputs": [],
      "stateMutability": "nonpayable",
      "type": "function"
    },
    {
      "inputs": [
        {
          "internalType": "address",
          "name": "rs",
          "type": "address"
        }
      ],
      "name": "setResponsibleForActingAfterMonitoring",
      "outputs": [],
      "stateMutability": "nonpayable",
      "type": "function"
    },
    {
      "inputs": [
        {
          "internalType": "uint64",
          "name": "cnpj",
          "type": "uint64"
        }
      ],
      "name": "registryLegalEntityForRegularAccounts",
      "outputs": [],
      "stateMutability": "nonpayable",
      "type": "function"
    },
    {
      "inputs": [
        {
          "internalType": "uint64",
          "name": "CNPJ",
          "type": "uint64"
        },
        {
          "internalType": "string",
          "name": "proofHash",
          "type": "string"
        }
      ],
      "name": "registryLegalEntity",
      "outputs": [],
      "stateMutability": "nonpayable",
      "type": "function"
    },
    {
      "inputs": [
        {
          "internalType": "address",
          "name": "userAddr",
          "type": "address"
        },
        {
          "internalType": "bool",
          "name": "approval",
          "type": "bool"
        }
      ],
      "name": "preValidateRegistry",
      "outputs": [],
      "stateMutability": "nonpayable",
      "type": "function"
    },
    {
      "inputs": [
        {
          "internalType": "address",
          "name": "userAddr",
          "type": "address"
        }
      ],
      "name": "validateRegistrySameOrg",
      "outputs": [],
      "stateMutability": "nonpayable",
      "type": "function"
    },
    {
      "inputs": [
        {
          "internalType": "address",
          "name": "userAddr",
          "type": "address"
        }
      ],
      "name": "validateRegistry",
      "outputs": [],
      "stateMutability": "nonpayable",
      "type": "function"
    },
    {
      "inputs": [
        {
          "internalType": "address",
          "name": "addr",
          "type": "address"
        }
      ],
      "name": "pauseAddressSameOrg",
      "outputs": [],
      "stateMutability": "nonpayable",
      "type": "function"
    },
    {
      "inputs": [
        {
          "internalType": "address",
          "name": "addr",
          "type": "address"
        }
      ],
      "name": "pauseAddressAfterMonitoring",
      "outputs": [],
      "stateMutability": "nonpayable",
      "type": "function"
    },
    {
      "inputs": [],
      "name": "pauseLegalEntitySameOrg",
      "outputs": [],
      "stateMutability": "nonpayable",
      "type": "function"
    },
    {
      "inputs": [
        {
          "internalType": "uint256",
          "name": "RBBId",
          "type": "uint256"
        }
      ],
      "name": "pauseLegalEntityAfterMonitoring",
      "outputs": [],
      "stateMutability": "nonpayable",
      "type": "function"
    },
    {
      "inputs": [
        {
          "internalType": "address",
          "name": "addr",
          "type": "address"
        }
      ],
      "name": "unpauseAddressSameOrg",
      "outputs": [],
      "stateMutability": "nonpayable",
      "type": "function"
    },
    {
      "inputs": [
        {
          "internalType": "address",
          "name": "addr",
          "type": "address"
        }
      ],
      "name": "unpauseAddressAfterMonitoring",
      "outputs": [],
      "stateMutability": "nonpayable",
      "type": "function"
    },
    {
      "inputs": [],
      "name": "invalidateYourOwnAddress",
      "outputs": [],
      "stateMutability": "nonpayable",
      "type": "function"
    },
    {
      "inputs": [
        {
          "internalType": "address",
          "name": "addr",
          "type": "address"
        }
      ],
      "name": "invalidateAddressSameOrg",
      "outputs": [],
      "stateMutability": "nonpayable",
      "type": "function"
    },
    {
      "inputs": [
        {
          "internalType": "address",
          "name": "addr",
          "type": "address"
        }
      ],
      "name": "invalidateAddress",
      "outputs": [],
      "stateMutability": "nonpayable",
      "type": "function"
    },
    {
      "inputs": [
        {
          "internalType": "address",
          "name": "addr",
          "type": "address"
        }
      ],
      "name": "invalidateAddressAfterMonitoring",
      "outputs": [],
      "stateMutability": "nonpayable",
      "type": "function"
    },
    {
      "inputs": [],
      "name": "reactiveForRegularAccounts",
      "outputs": [],
      "stateMutability": "nonpayable",
      "type": "function"
    },
    {
      "inputs": [
        {
          "internalType": "string",
          "name": "hashProof",
          "type": "string"
        }
      ],
      "name": "reactiveAccount",
      "outputs": [],
      "stateMutability": "nonpayable",
      "type": "function"
    },
    {
      "inputs": [
        {
          "internalType": "uint256",
          "name": "deltaDateTimeExpirationNew",
          "type": "uint256"
        }
      ],
      "name": "setDefaultDeltaDateTimeExpiration",
      "outputs": [],
      "stateMutability": "nonpayable",
      "type": "function"
    },
    {
      "inputs": [
        {
          "internalType": "string",
          "name": "str",
          "type": "string"
        }
      ],
      "name": "isValidHash",
      "outputs": [
        {
          "internalType": "bool",
          "name": "",
          "type": "bool"
        }
      ],
      "stateMutability": "pure",
      "type": "function",
      "constant": true
    },
    {
      "inputs": [
        {
          "internalType": "string",
          "name": "str",
          "type": "string"
        }
      ],
      "name": "isZeroHash",
      "outputs": [
        {
          "internalType": "bool",
          "name": "",
          "type": "bool"
        }
      ],
      "stateMutability": "pure",
      "type": "function",
      "constant": true
    },
    {
      "inputs": [
        {
          "internalType": "address",
          "name": "addr",
          "type": "address"
        }
      ],
      "name": "isOperational",
      "outputs": [
        {
          "internalType": "bool",
          "name": "",
          "type": "bool"
        }
      ],
      "stateMutability": "view",
      "type": "function",
      "constant": true
    },
    {
      "inputs": [
        {
          "internalType": "uint256",
          "name": "RBBId",
          "type": "uint256"
        }
      ],
      "name": "isRegistryOperational",
      "outputs": [
        {
          "internalType": "bool",
          "name": "",
          "type": "bool"
        }
      ],
      "stateMutability": "view",
      "type": "function",
      "constant": true
    },
    {
      "inputs": [
        {
          "internalType": "address",
          "name": "addr",
          "type": "address"
        }
      ],
      "name": "getId",
      "outputs": [
        {
          "internalType": "uint256",
          "name": "",
          "type": "uint256"
        }
      ],
      "stateMutability": "view",
      "type": "function",
      "constant": true
    },
    {
      "inputs": [
        {
          "internalType": "address",
          "name": "addr",
          "type": "address"
        }
      ],
      "name": "getIdRaw",
      "outputs": [
        {
          "internalType": "uint256",
          "name": "",
          "type": "uint256"
        }
      ],
      "stateMutability": "view",
      "type": "function",
      "constant": true
    },
    {
      "inputs": [
        {
          "internalType": "uint64",
          "name": "cnpj",
          "type": "uint64"
        }
      ],
      "name": "getIdFromCNPJ",
      "outputs": [
        {
          "internalType": "uint256",
          "name": "",
          "type": "uint256"
        }
      ],
      "stateMutability": "view",
      "type": "function",
      "constant": true
    },
    {
      "inputs": [
        {
          "internalType": "uint64",
          "name": "cnpj",
          "type": "uint64"
        }
      ],
      "name": "getIdFromCNPJRaw",
      "outputs": [
        {
          "internalType": "uint256",
          "name": "",
          "type": "uint256"
        }
      ],
      "stateMutability": "view",
      "type": "function",
      "constant": true
    },
    {
      "inputs": [
        {
          "internalType": "uint256",
          "name": "Id",
          "type": "uint256"
        }
      ],
      "name": "getCNPJbyID",
      "outputs": [
        {
          "internalType": "uint64",
          "name": "",
          "type": "uint64"
        }
      ],
      "stateMutability": "view",
      "type": "function",
      "constant": true
    },
    {
      "inputs": [
        {
          "internalType": "uint256",
          "name": "Id",
          "type": "uint256"
        }
      ],
      "name": "getCNPJbyIDRaw",
      "outputs": [
        {
          "internalType": "uint64",
          "name": "",
          "type": "uint64"
        }
      ],
      "stateMutability": "view",
      "type": "function",
      "constant": true
    },
    {
      "inputs": [
        {
          "internalType": "address",
          "name": "addr",
          "type": "address"
        }
      ],
      "name": "getCNPJ",
      "outputs": [
        {
          "internalType": "uint64",
          "name": "",
          "type": "uint64"
        }
      ],
      "stateMutability": "view",
      "type": "function",
      "constant": true
    },
    {
      "inputs": [
        {
          "internalType": "address",
          "name": "addr",
          "type": "address"
        }
      ],
      "name": "getCNPJRaw",
      "outputs": [
        {
          "internalType": "uint64",
          "name": "",
          "type": "uint64"
        }
      ],
      "stateMutability": "view",
      "type": "function",
      "constant": true
    },
    {
      "inputs": [
        {
          "internalType": "address",
          "name": "addr",
          "type": "address"
        }
      ],
      "name": "getRegistry",
      "outputs": [
        {
          "internalType": "uint256",
          "name": "",
          "type": "uint256"
        },
        {
          "internalType": "uint64",
          "name": "",
          "type": "uint64"
        },
        {
          "internalType": "string",
          "name": "",
          "type": "string"
        },
        {
          "internalType": "uint256",
          "name": "",
          "type": "uint256"
        },
        {
          "internalType": "uint256",
          "name": "",
          "type": "uint256"
        },
        {
          "internalType": "bool",
          "name": "",
          "type": "bool"
        },
        {
          "internalType": "uint256",
          "name": "",
          "type": "uint256"
        }
      ],
      "stateMutability": "view",
      "type": "function",
      "constant": true
    },
    {
      "inputs": [
        {
          "internalType": "uint256",
          "name": "RBBId",
          "type": "uint256"
        }
      ],
      "name": "getBlockchainAccounts",
      "outputs": [
        {
          "internalType": "address[]",
          "name": "",
          "type": "address[]"
        }
      ],
      "stateMutability": "view",
      "type": "function",
      "constant": true
    },
    {
      "inputs": [
        {
          "internalType": "address",
          "name": "addr",
          "type": "address"
        }
      ],
      "name": "getAccountState",
      "outputs": [
        {
          "internalType": "int256",
          "name": "",
          "type": "int256"
        }
      ],
      "stateMutability": "view",
      "type": "function",
      "constant": true
    },
    {
      "inputs": [
        {
          "internalType": "address",
          "name": "addr",
          "type": "address"
        }
      ],
      "name": "getAccountRole",
      "outputs": [
        {
          "internalType": "int256",
          "name": "",
          "type": "int256"
        }
      ],
      "stateMutability": "view",
      "type": "function",
      "constant": true
    },
    {
      "inputs": [
        {
          "internalType": "address",
          "name": "addr",
          "type": "address"
        }
      ],
      "name": "isExpired",
      "outputs": [
        {
          "internalType": "bool",
          "name": "",
          "type": "bool"
        }
      ],
      "stateMutability": "view",
      "type": "function",
      "constant": true
    },
    {
      "inputs": [
        {
          "internalType": "address",
          "name": "addr",
          "type": "address"
        }
      ],
      "name": "isOwner",
      "outputs": [
        {
          "internalType": "bool",
          "name": "",
          "type": "bool"
        }
      ],
      "stateMutability": "view",
      "type": "function",
      "constant": true
    },
    {
      "inputs": [
        {
          "internalType": "address",
          "name": "addr",
          "type": "address"
        }
      ],
      "name": "isAvailableAccount",
      "outputs": [
        {
          "internalType": "bool",
          "name": "",
          "type": "bool"
        }
      ],
      "stateMutability": "view",
      "type": "function",
      "constant": true
    },
    {
      "inputs": [
        {
          "internalType": "address",
          "name": "addr",
          "type": "address"
        }
      ],
      "name": "isWaitingAccount",
      "outputs": [
        {
          "internalType": "bool",
          "name": "",
          "type": "bool"
        }
      ],
      "stateMutability": "view",
      "type": "function",
      "constant": true
    },
    {
      "inputs": [
        {
          "internalType": "address",
          "name": "addr",
          "type": "address"
        }
      ],
      "name": "isValidatedAccount",
      "outputs": [
        {
          "internalType": "bool",
          "name": "",
          "type": "bool"
        }
      ],
      "stateMutability": "view",
      "type": "function",
      "constant": true
    },
    {
      "inputs": [
        {
          "internalType": "address",
          "name": "addr",
          "type": "address"
        }
      ],
      "name": "isInvalidated",
      "outputs": [
        {
          "internalType": "bool",
          "name": "",
          "type": "bool"
        }
      ],
      "stateMutability": "view",
      "type": "function",
      "constant": true
    },
    {
      "inputs": [
        {
          "internalType": "address",
          "name": "a",
          "type": "address"
        },
        {
          "internalType": "address",
          "name": "b",
          "type": "address"
        }
      ],
      "name": "isTheSameID",
      "outputs": [
        {
          "internalType": "bool",
          "name": "",
          "type": "bool"
        }
      ],
      "stateMutability": "view",
      "type": "function",
      "constant": true
    },
    {
      "inputs": [
        {
          "internalType": "address",
          "name": "addr",
          "type": "address"
        }
      ],
      "name": "isPaused",
      "outputs": [
        {
          "internalType": "bool",
          "name": "",
          "type": "bool"
        }
      ],
      "stateMutability": "view",
      "type": "function",
      "constant": true
    },
    {
      "inputs": [
        {
          "internalType": "address",
          "name": "addr",
          "type": "address"
        }
      ],
      "name": "isAdmin",
      "outputs": [
        {
          "internalType": "bool",
          "name": "",
          "type": "bool"
        }
      ],
      "stateMutability": "view",
      "type": "function",
      "constant": true
    }
  ],
  "bytecode": "0x608060405260006004556301e133806005553480156200001e57600080fd5b506000620000316200019860201b60201c565b9050806000806101000a81548173ffffffffffffffffffffffffffffffffffffffff021916908373ffffffffffffffffffffffffffffffffffffffff1602179055508073ffffffffffffffffffffffffffffffffffffffff16600073ffffffffffffffffffffffffffffffffffffffff167f8be0079c531659141344cd1fd0a4f28419497f9722a3daafe3b4186f6b6457e060405160405180910390a35033600160006101000a81548173ffffffffffffffffffffffffffffffffffffffff021916908373ffffffffffffffffffffffffffffffffffffffff16021790555033600260006101000a81548173ffffffffffffffffffffffffffffffffffffffff021916908373ffffffffffffffffffffffffffffffffffffffff16021790555033600360006101000a81548173ffffffffffffffffffffffffffffffffffffffff021916908373ffffffffffffffffffffffffffffffffffffffff160217905550620001a0565b600033905090565b61682b80620001b06000396000f3fe608060405234801561001057600080fd5b50600436106103835760003560e01c806376222aa7116101de578063a3d884531161010f578063c84802b9116100ad578063ee1244e31161007c578063ee1244e31461153a578063f2fde38b14611568578063f4c88ca3146115ac578063f971d77c146115b657610383565b8063c84802b9146113ab578063caa7922c146113ef578063d208665714611433578063e7bdaade1461147f57610383565b8063ba2eb541116100e9578063ba2eb54114611257578063bb393086146112b1578063be49b78d1461132b578063c616f4c01461138d57610383565b8063a3d8845314611157578063a9963687146111b1578063b6fc41fa146111f557610383565b80638e97637e1161017c5780639c9d24b6116101565780639c9d24b61461103b5780639ee2735b1461107f578063a1c0101f146110d7578063a2a25e781461112357610383565b80638e97637e14610f8b578063903ecc1914610fe557806394e587651461100357610383565b806381d66b23116101b857806381d66b2314610dec5780638684b5ab14610e445780638cbd258f14610f135780638da5cb5b14610f5757610383565b806376222aa714610cfa57806376bc29e514610d465780637abbb59614610da857610383565b8063457385f2116102b85780636426a116116102565780636c5eadae116102305780636c5eadae14610ba75780636c8ce62b14610bdb5780636edcb12f14610c1f578063715018a614610cf057610383565b80636426a11614610aeb578063654116c014610b4557806365f68c8914610b4f57610383565b80634f16ce0c116102925780634f16ce0c146109bd5780634f72e05914610a015780635b14f18314610a45578063611b551d14610a9f57610383565b8063457385f2146108db578063466723e4146109355780634dd2d3fb1461098f57610383565b806328f5ae23116103255780632f54bf6e116102ff5780632f54bf6e14610738578063353a3d621461079257806342b0ae5014610863578063456ca961146108a757610383565b806328f5ae231461064c578063291c333c1461069c5780632ec5ea09146106e057610383565b80630bf20e01116103615780630bf20e01146104225780631ee7afad146104a557806324d7806c146104e957806326ff47941461054357610383565b80630493237114610388578063087d442714610392578063091f5c29146103d6575b600080fd5b6103906116a9565b005b6103be600480360360208110156103a857600080fd5b81019080803590602001909291905050506116e9565b60405180821515815260200191505060405180910390f35b61040c600480360360208110156103ec57600080fd5b81019080803567ffffffffffffffff1690602001909291905050506117f8565b6040518082815260200191505060405180910390f35b61044e6004803603602081101561043857600080fd5b8101908080359060200190929190505050611829565b6040518080602001828103825283818151815260200191508051906020019060200280838360005b83811015610491578082015181840152602081019050610476565b505050509050019250505060405180910390f35b6104e7600480360360208110156104bb57600080fd5b81019080803573ffffffffffffffffffffffffffffffffffffffff1690602001909291905050506118ca565b005b61052b600480360360208110156104ff57600080fd5b81019080803573ffffffffffffffffffffffffffffffffffffffff169060200190929190505050611b4d565b60405180821515815260200191505060405180910390f35b6105856004803603602081101561055957600080fd5b81019080803573ffffffffffffffffffffffffffffffffffffffff169060200190929190505050611bbe565b604051808881526020018767ffffffffffffffff168152602001806020018660058111156105af57fe5b81526020018560018111156105c057fe5b81526020018415158152602001838152602001828103825287818151815260200191508051906020019080838360005b8381101561060b5780820151818401526020810190506105f0565b50505050905090810190601f1680156106385780820380516001836020036101000a031916815260200191505b509850505050505050505060405180910390f35b61069a6004803603604081101561066257600080fd5b81019080803573ffffffffffffffffffffffffffffffffffffffff169060200190929190803515159060200190929190505050611cd3565b005b6106de600480360360208110156106b257600080fd5b81019080803573ffffffffffffffffffffffffffffffffffffffff16906020019092919050505061226b565b005b610722600480360360208110156106f657600080fd5b81019080803573ffffffffffffffffffffffffffffffffffffffff1690602001909291905050506123db565b6040518082815260200191505060405180910390f35b61077a6004803603602081101561074e57600080fd5b81019080803573ffffffffffffffffffffffffffffffffffffffff169060200190929190505050612427565b60405180821515815260200191505060405180910390f35b61084b600480360360208110156107a857600080fd5b81019080803590602001906401000000008111156107c557600080fd5b8201836020820111156107d757600080fd5b803590602001918460018302840111640100000000831117156107f957600080fd5b91908080601f016020809104026020016040519081016040528093929190818152602001838380828437600081840152601f19601f820116905080830192505050505050509192919290505050612466565b60405180821515815260200191505060405180910390f35b6108a56004803603602081101561087957600080fd5b81019080803573ffffffffffffffffffffffffffffffffffffffff1690602001909291905050506124b5565b005b6108af612569565b604051808273ffffffffffffffffffffffffffffffffffffffff16815260200191505060405180910390f35b61091d600480360360208110156108f157600080fd5b81019080803573ffffffffffffffffffffffffffffffffffffffff16906020019092919050505061258f565b60405180821515815260200191505060405180910390f35b6109776004803603602081101561094b57600080fd5b81019080803573ffffffffffffffffffffffffffffffffffffffff1690602001909291905050506125c5565b60405180821515815260200191505060405180910390f35b6109bb600480360360208110156109a557600080fd5b8101908080359060200190929190505050612717565b005b6109ff600480360360208110156109d357600080fd5b81019080803573ffffffffffffffffffffffffffffffffffffffff169060200190929190505050612850565b005b610a4360048036036020811015610a1757600080fd5b81019080803573ffffffffffffffffffffffffffffffffffffffff169060200190929190505050612ded565b005b610a8760048036036020811015610a5b57600080fd5b81019080803573ffffffffffffffffffffffffffffffffffffffff169060200190929190505050612f7c565b60405180821515815260200191505060405180910390f35b610acb60048036036020811015610ab557600080fd5b8101908080359060200190929190505050612fd5565b604051808267ffffffffffffffff16815260200191505060405180910390f35b610b2d60048036036020811015610b0157600080fd5b81019080803573ffffffffffffffffffffffffffffffffffffffff169060200190929190505050613083565b60405180821515815260200191505060405180910390f35b610b4d6130f5565b005b610b9160048036036020811015610b6557600080fd5b81019080803573ffffffffffffffffffffffffffffffffffffffff169060200190929190505050613324565b6040518082815260200191505060405180910390f35b610baf613399565b604051808273ffffffffffffffffffffffffffffffffffffffff16815260200191505060405180910390f35b610c1d60048036036020811015610bf157600080fd5b81019080803573ffffffffffffffffffffffffffffffffffffffff1690602001909291905050506133bf565b005b610cd860048036036020811015610c3557600080fd5b8101908080359060200190640100000000811115610c5257600080fd5b820183602082011115610c6457600080fd5b80359060200191846001830284011164010000000083111715610c8657600080fd5b91908080601f016020809104026020016040519081016040528093929190818152602001838380828437600081840152601f19601f8201169050808301925050505050505091929192905050506134d2565b60405180821515815260200191505060405180910390f35b610cf86136b5565b005b610d3060048036036020811015610d1057600080fd5b81019080803567ffffffffffffffff16906020019092919050505061383b565b6040518082815260200191505060405180910390f35b610d8860048036036020811015610d5c57600080fd5b81019080803573ffffffffffffffffffffffffffffffffffffffff169060200190929190505050613853565b604051808267ffffffffffffffff16815260200191505060405180910390f35b610dea60048036036020811015610dbe57600080fd5b81019080803573ffffffffffffffffffffffffffffffffffffffff1690602001909291905050506138b3565b005b610e2e60048036036020811015610e0257600080fd5b81019080803573ffffffffffffffffffffffffffffffffffffffff169060200190929190505050613a0c565b6040518082815260200191505060405180910390f35b610f1160048036036040811015610e5a57600080fd5b81019080803567ffffffffffffffff16906020019092919080359060200190640100000000811115610e8b57600080fd5b820183602082011115610e9d57600080fd5b80359060200191846001830284011164010000000083111715610ebf57600080fd5b91908080601f016020809104026020016040519081016040528093929190818152602001838380828437600081840152601f19601f820116905080830192505050505050509192919290505050613a70565b005b610f5560048036036020811015610f2957600080fd5b81019080803573ffffffffffffffffffffffffffffffffffffffff169060200190929190505050613f8f565b005b610f5f6140e8565b604051808273ffffffffffffffffffffffffffffffffffffffff16815260200191505060405180910390f35b610fcd60048036036020811015610fa157600080fd5b81019080803573ffffffffffffffffffffffffffffffffffffffff169060200190929190505050614111565b60405180821515815260200191505060405180910390f35b610fed614182565b6040518082815260200191505060405180910390f35b6110396004803603602081101561101957600080fd5b81019080803567ffffffffffffffff169060200190929190505050614188565b005b61107d6004803603602081101561105157600080fd5b81019080803573ffffffffffffffffffffffffffffffffffffffff1690602001909291905050506141ca565b005b6110c16004803603602081101561109557600080fd5b81019080803573ffffffffffffffffffffffffffffffffffffffff16906020019092919050505061443c565b6040518082815260200191505060405180910390f35b61110d600480360360208110156110ed57600080fd5b81019080803567ffffffffffffffff1690602001909291905050506144a0565b6040518082815260200191505060405180910390f35b61112b614515565b604051808273ffffffffffffffffffffffffffffffffffffffff16815260200191505060405180910390f35b6111996004803603602081101561116d57600080fd5b81019080803573ffffffffffffffffffffffffffffffffffffffff16906020019092919050505061453b565b60405180821515815260200191505060405180910390f35b6111f3600480360360208110156111c757600080fd5b81019080803573ffffffffffffffffffffffffffffffffffffffff1690602001909291905050506145ac565b005b61122b6004803603604081101561120b57600080fd5b810190808035906020019092919080359060200190929190505050614705565b604051808273ffffffffffffffffffffffffffffffffffffffff16815260200191505060405180910390f35b6112996004803603602081101561126d57600080fd5b81019080803573ffffffffffffffffffffffffffffffffffffffff169060200190929190505050614750565b60405180821515815260200191505060405180910390f35b611313600480360360408110156112c757600080fd5b81019080803573ffffffffffffffffffffffffffffffffffffffff169060200190929190803573ffffffffffffffffffffffffffffffffffffffff16906020019092919050505061479e565b60405180821515815260200191505060405180910390f35b61136d6004803603602081101561134157600080fd5b81019080803573ffffffffffffffffffffffffffffffffffffffff16906020019092919050505061486b565b604051808267ffffffffffffffff16815260200191505060405180910390f35b611395614887565b6040518082815260200191505060405180910390f35b6113ed600480360360208110156113c157600080fd5b81019080803573ffffffffffffffffffffffffffffffffffffffff16906020019092919050505061488d565b005b6114316004803603602081101561140557600080fd5b81019080803573ffffffffffffffffffffffffffffffffffffffff169060200190929190505050614b8c565b005b61145f6004803603602081101561144957600080fd5b8101908080359060200190929190505050614f36565b604051808267ffffffffffffffff16815260200191505060405180910390f35b6115386004803603602081101561149557600080fd5b81019080803590602001906401000000008111156114b257600080fd5b8201836020820111156114c457600080fd5b803590602001918460018302840111640100000000831117156114e657600080fd5b91908080601f016020809104026020016040519081016040528093929190818152602001838380828437600081840152601f19601f820116905080830192505050505050509192919290505050614fa6565b005b6115666004803603602081101561155057600080fd5b8101908080359060200190929190505050615375565b005b6115aa6004803603602081101561157e57600080fd5b81019080803573ffffffffffffffffffffffffffffffffffffffff16906020019092919050505061551b565b005b6115b4615726565b005b6115f8600480360360208110156115cc57600080fd5b81019080803573ffffffffffffffffffffffffffffffffffffffff169060200190929190505050615798565b604051808881526020018767ffffffffffffffff168152602001806020018681526020018581526020018415158152602001838152602001828103825287818151815260200191508051906020019080838360005b8381101561166857808201518184015260208101905061164d565b50505050905090810190601f1680156116955780820380516001836020036101000a031916815260200191505b509850505050505050505060405180910390f35b6116e76040518060400160405280600181526020017f3000000000000000000000000000000000000000000000000000000000000000815250614fa6565b565b600060606007600084815260200190815260200160002080548060200260200160405190810160405280929190818152602001828054801561178057602002820191906000526020600020905b8160009054906101000a900473ffffffffffffffffffffffffffffffffffffffff1673ffffffffffffffffffffffffffffffffffffffff1681526020019060010190808311611736575b5050505050905060005b81518110156117f0576117af8282815181106117a257fe5b602002602001015161258f565b80156117d357506117d28282815181106117c557fe5b6020026020010151611b4d565b5b156117e3576001925050506117f3565b808060010191505061178a565b50505b919050565b6000600860008367ffffffffffffffff1667ffffffffffffffff168152602001908152602001600020549050919050565b6060600760008381526020019081526020016000208054806020026020016040519081016040528092919081815260200182805480156118be57602002820191906000526020600020905b8160009054906101000a900473ffffffffffffffffffffffffffffffffffffffff1673ffffffffffffffffffffffffffffffffffffffff1681526020019060010190808311611874575b50505050509050919050565b6118d333612f7c565b15611929576040517f08c379a000000000000000000000000000000000000000000000000000000000815260040180806020018281038252603a8152602001806161c5603a913960400191505060405180910390fd5b61193233614750565b15611988576040517f08c379a00000000000000000000000000000000000000000000000000000000081526004018080602001828103825260658152602001806163496065913960800191505060405180910390fd5b61199133613083565b6119e6576040517f08c379a00000000000000000000000000000000000000000000000000000000081526004018080602001828103825260368152602001806163ff6036913960400191505060405180910390fd5b60003390506119f482614111565b15611a4a576040517f08c379a00000000000000000000000000000000000000000000000000000000081526004018080602001828103825260238152602001806163dc6023913960400191505060405180910390fd5b611a54818361479e565b611aa9576040517f08c379a000000000000000000000000000000000000000000000000000000000815260040180806020018281038252603a815260200180616524603a913960400191505060405180910390fd5b8073ffffffffffffffffffffffffffffffffffffffff168273ffffffffffffffffffffffffffffffffffffffff161480611ae95750611ae782611b4d565b155b611b3e576040517f08c379a00000000000000000000000000000000000000000000000000000000081526004018080602001828103825260288152602001806162b76028913960400191505060405180910390fd5b611b498260026159ad565b5050565b6000600180811115611b5b57fe5b600660008473ffffffffffffffffffffffffffffffffffffffff1673ffffffffffffffffffffffffffffffffffffffff16815260200190815260200160002060030160019054906101000a900460ff166001811115611bb657fe5b149050919050565b60066020528060005260406000206000915090508060000154908060010160009054906101000a900467ffffffffffffffff1690806002018054600181600116156101000203166002900480601f016020809104026020016040519081016040528092919081815260200182805460018160011615610100020316600290048015611c8a5780601f10611c5f57610100808354040283529160200191611c8a565b820191906000526020600020905b815481529060010190602001808311611c6d57829003601f168201915b5050505050908060030160009054906101000a900460ff16908060030160019054906101000a900460ff16908060030160029054906101000a900460ff16908060040154905087565b3373ffffffffffffffffffffffffffffffffffffffff16600160009054906101000a900473ffffffffffffffffffffffffffffffffffffffff1673ffffffffffffffffffffffffffffffffffffffff1614611d79576040517f08c379a000000000000000000000000000000000000000000000000000000000815260040180806020018281038252604d8152602001806165d7604d913960600191505060405180910390fd5b600033905060016005811115611d8b57fe5b600660008573ffffffffffffffffffffffffffffffffffffffff1673ffffffffffffffffffffffffffffffffffffffff16815260200190815260200160002060030160009054906101000a900460ff166005811115611de657fe5b14611e3c576040517f08c379a00000000000000000000000000000000000000000000000000000000081526004018080602001828103825260368152602001806164586036913960400191505060405180910390fd5b611e4583611b4d565b611e9a576040517f08c379a000000000000000000000000000000000000000000000000000000000815260040180806020018281038252602b815260200180616680602b913960400191505060405180910390fd5b611ea383612f7c565b15611ef9576040517f08c379a00000000000000000000000000000000000000000000000000000000081526004018080602001828103825260338152602001806162846033913960400191505060405180910390fd5b611f0283614750565b15611f58576040517f08c379a000000000000000000000000000000000000000000000000000000000815260040180806020018281038252603481526020018061648e6034913960400191505060405180910390fd5b81156120e4576002600660008573ffffffffffffffffffffffffffffffffffffffff1673ffffffffffffffffffffffffffffffffffffffff16815260200190815260200160002060030160006101000a81548160ff02191690836005811115611fbd57fe5b02179055507f88a401630afd2c730097d0a0f3a014c6e7cc6db68bb1b13d4e1a37622b44518183600660008673ffffffffffffffffffffffffffffffffffffffff1673ffffffffffffffffffffffffffffffffffffffff16815260200190815260200160002060000154600660008773ffffffffffffffffffffffffffffffffffffffff1673ffffffffffffffffffffffffffffffffffffffff16815260200190815260200160002060010160009054906101000a900467ffffffffffffffff1684604051808573ffffffffffffffffffffffffffffffffffffffff1681526020018481526020018367ffffffffffffffff1681526020018273ffffffffffffffffffffffffffffffffffffffff16815260200194505050505060405180910390a1612266565b6003600660008573ffffffffffffffffffffffffffffffffffffffff1673ffffffffffffffffffffffffffffffffffffffff16815260200190815260200160002060030160006101000a81548160ff0219169083600581111561214357fe5b02179055507f59567b1124b6234e30f0a452574ad973b93bff3b825fb38e284fb8bc9b0c104b83600660008673ffffffffffffffffffffffffffffffffffffffff1673ffffffffffffffffffffffffffffffffffffffff16815260200190815260200160002060000154600660008773ffffffffffffffffffffffffffffffffffffffff1673ffffffffffffffffffffffffffffffffffffffff16815260200190815260200160002060010160009054906101000a900467ffffffffffffffff1684604051808573ffffffffffffffffffffffffffffffffffffffff1681526020018481526020018367ffffffffffffffff1681526020018273ffffffffffffffffffffffffffffffffffffffff16815260200194505050505060405180910390a15b505050565b3373ffffffffffffffffffffffffffffffffffffffff16600260009054906101000a900473ffffffffffffffffffffffffffffffffffffffff1673ffffffffffffffffffffffffffffffffffffffff1614612311576040517f08c379a00000000000000000000000000000000000000000000000000000000081526004018080602001828103825260488152602001806166ab6048913960600191505060405180910390fd5b61231a816125c5565b61236f576040517f08c379a00000000000000000000000000000000000000000000000000000000081526004018080602001828103825260368152602001806160cd6036913960400191505060405180910390fd5b61237881611b4d565b6123cd576040517f08c379a00000000000000000000000000000000000000000000000000000000081526004018080602001828103825260448152602001806167b26044913960600191505060405180910390fd5b6123d88160036159ad565b50565b6000600660008373ffffffffffffffffffffffffffffffffffffffff1673ffffffffffffffffffffffffffffffffffffffff168152602001908152602001600020600001549050919050565b60008173ffffffffffffffffffffffffffffffffffffffff166124486140e8565b73ffffffffffffffffffffffffffffffffffffffff16149050919050565b60006040518060400160405280600181526020017f3000000000000000000000000000000000000000000000000000000000000000815250805190602001208280519060200120149050919050565b3373ffffffffffffffffffffffffffffffffffffffff16600360009054906101000a900473ffffffffffffffffffffffffffffffffffffffff1673ffffffffffffffffffffffffffffffffffffffff161461255b576040517f08c379a000000000000000000000000000000000000000000000000000000000815260040180806020018281038252606781526020018061615e6067913960800191505060405180910390fd5b612566816002615b3d565b50565b600260009054906101000a900473ffffffffffffffffffffffffffffffffffffffff1681565b600061259a82613083565b80156125ac57506125aa82612f7c565b155b80156125be57506125bc82614750565b155b9050919050565b6000600160058111156125d457fe5b600660008473ffffffffffffffffffffffffffffffffffffffff1673ffffffffffffffffffffffffffffffffffffffff16815260200190815260200160002060030160009054906101000a900460ff16600581111561262f57fe5b14806126a057506002600581111561264357fe5b600660008473ffffffffffffffffffffffffffffffffffffffff1673ffffffffffffffffffffffffffffffffffffffff16815260200190815260200160002060030160009054906101000a900460ff16600581111561269e57fe5b145b806127105750600360058111156126b357fe5b600660008473ffffffffffffffffffffffffffffffffffffffff1673ffffffffffffffffffffffffffffffffffffffff16815260200190815260200160002060030160009054906101000a900460ff16600581111561270e57fe5b145b9050919050565b61271f615d81565b73ffffffffffffffffffffffffffffffffffffffff1660008054906101000a900473ffffffffffffffffffffffffffffffffffffffff1673ffffffffffffffffffffffffffffffffffffffff16146127df576040517f08c379a00000000000000000000000000000000000000000000000000000000081526004018080602001828103825260208152602001807f4f776e61626c653a2063616c6c6572206973206e6f7420746865206f776e657281525060200191505060405180910390fd5b60006005549050816005819055507f33e73778e90a0a7d35d5d4332f4668b1fcff659529950c30f760a39ba49fafec3382600554604051808473ffffffffffffffffffffffffffffffffffffffff168152602001838152602001828152602001935050505060405180910390a15050565b61285933612f7c565b156128af576040517f08c379a000000000000000000000000000000000000000000000000000000000815260040180806020018281038252603a8152602001806161c5603a913960400191505060405180910390fd5b6128b833614750565b1561290e576040517f08c379a00000000000000000000000000000000000000000000000000000000081526004018080602001828103825260658152602001806163496065913960800191505060405180910390fd5b61291733613083565b61296c576040517f08c379a00000000000000000000000000000000000000000000000000000000081526004018080602001828103825260368152602001806163ff6036913960400191505060405180910390fd5b600033905061297a81611b4d565b6129cf576040517f08c379a00000000000000000000000000000000000000000000000000000000081526004018080602001828103825260368152602001806166f36036913960400191505060405180910390fd5b600160058111156129dc57fe5b600660008473ffffffffffffffffffffffffffffffffffffffff1673ffffffffffffffffffffffffffffffffffffffff16815260200190815260200160002060030160009054906101000a900460ff166005811115612a3757fe5b14612a8d576040517f08c379a00000000000000000000000000000000000000000000000000000000081526004018080602001828103825260368152602001806164586036913960400191505060405180910390fd5b612a9682612f7c565b15612aec576040517f08c379a00000000000000000000000000000000000000000000000000000000081526004018080602001828103825260338152602001806162846033913960400191505060405180910390fd5b612af582614750565b15612b4b576040517f08c379a000000000000000000000000000000000000000000000000000000000815260040180806020018281038252603481526020018061648e6034913960400191505060405180910390fd5b60006001811115612b5857fe5b600660008473ffffffffffffffffffffffffffffffffffffffff1673ffffffffffffffffffffffffffffffffffffffff16815260200190815260200160002060030160019054906101000a900460ff166001811115612bb357fe5b14612c09576040517f08c379a00000000000000000000000000000000000000000000000000000000081526004018080602001828103825260328152602001806167296032913960400191505060405180910390fd5b612c13818361479e565b612c68576040517f08c379a000000000000000000000000000000000000000000000000000000000815260040180806020018281038252604c81526020018061658b604c913960600191505060405180910390fd5b6004600660008473ffffffffffffffffffffffffffffffffffffffff1673ffffffffffffffffffffffffffffffffffffffff16815260200190815260200160002060030160006101000a81548160ff02191690836005811115612cc757fe5b02179055507f90e796ddecc580ca3db3277073bdbf5d9c3eac364c19683d78a0bb129021360b82600660008573ffffffffffffffffffffffffffffffffffffffff1673ffffffffffffffffffffffffffffffffffffffff16815260200190815260200160002060000154600660008673ffffffffffffffffffffffffffffffffffffffff1673ffffffffffffffffffffffffffffffffffffffff16815260200190815260200160002060010160009054906101000a900467ffffffffffffffff1684604051808573ffffffffffffffffffffffffffffffffffffffff1681526020018481526020018367ffffffffffffffff1681526020018273ffffffffffffffffffffffffffffffffffffffff16815260200194505050505060405180910390a15050565b3373ffffffffffffffffffffffffffffffffffffffff16600360009054906101000a900473ffffffffffffffffffffffffffffffffffffffff1673ffffffffffffffffffffffffffffffffffffffff1614612e93576040517f08c379a000000000000000000000000000000000000000000000000000000000815260040180806020018281038252606781526020018061615e6067913960800191505060405180910390fd5b612e9c81614111565b15612ef2576040517f08c379a00000000000000000000000000000000000000000000000000000000081526004018080602001828103825260298152602001806162df6029913960400191505060405180910390fd5b612efb81612f7c565b15612f6e576040517f08c379a00000000000000000000000000000000000000000000000000000000081526004018080602001828103825260178152602001807f436f6e7461206ac3a120657374c3a1207061757361646100000000000000000081525060200191505060405180910390fd5b612f79816002615d89565b50565b6000600660008373ffffffffffffffffffffffffffffffffffffffff1673ffffffffffffffffffffffffffffffffffffffff16815260200190815260200160002060030160029054906101000a900460ff169050919050565b60008060076000848152602001908152602001600020600081548110612ff757fe5b9060005260206000200160009054906101000a900473ffffffffffffffffffffffffffffffffffffffff169050600660008273ffffffffffffffffffffffffffffffffffffffff1673ffffffffffffffffffffffffffffffffffffffff16815260200190815260200160002060010160009054906101000a900467ffffffffffffffff16915050919050565b60006004600581111561309257fe5b600660008473ffffffffffffffffffffffffffffffffffffffff1673ffffffffffffffffffffffffffffffffffffffff16815260200190815260200160002060030160009054906101000a900460ff1660058111156130ed57fe5b149050919050565b6130fe33612f7c565b15613154576040517f08c379a000000000000000000000000000000000000000000000000000000000815260040180806020018281038252603a8152602001806161c5603a913960400191505060405180910390fd5b61315d33614750565b156131b3576040517f08c379a00000000000000000000000000000000000000000000000000000000081526004018080602001828103825260658152602001806163496065913960800191505060405180910390fd5b6131bc33613083565b613211576040517f08c379a00000000000000000000000000000000000000000000000000000000081526004018080602001828103825260368152602001806163ff6036913960400191505060405180910390fd5b60003390506000613221826123db565b90506060600760008381526020019081526020016000208054806020026020016040519081016040528092919081815260200182805480156132b857602002820191906000526020600020905b8160009054906101000a900473ffffffffffffffffffffffffffffffffffffffff1673ffffffffffffffffffffffffffffffffffffffff168152602001906001019080831161326e575b5050505050905060005b815181101561331e5760008282815181106132d957fe5b602002602001015190506132ec81614111565b1580156132ff57506132fd81612f7c565b155b156133105761330f816003615d89565b5b5080806001019150506132c2565b50505050565b600080613330836123db565b905061333b816116e9565b613390576040517f08c379a000000000000000000000000000000000000000000000000000000000815260040180806020018281038252602681526020018061678c6026913960400191505060405180910390fd5b80915050919050565b600360009054906101000a900473ffffffffffffffffffffffffffffffffffffffff1681565b3373ffffffffffffffffffffffffffffffffffffffff16600360009054906101000a900473ffffffffffffffffffffffffffffffffffffffff1673ffffffffffffffffffffffffffffffffffffffff1614613465576040517f08c379a000000000000000000000000000000000000000000000000000000000815260040180806020018281038252606781526020018061615e6067913960800191505060405180910390fd5b61346e81614111565b156134c4576040517f08c379a00000000000000000000000000000000000000000000000000000000081526004018080602001828103825260238152602001806163dc6023913960400191505060405180910390fd5b6134cf8160046159ad565b50565b6000606082905060408151146134ec5760009150506136b0565b60005b60408110156136a9577f300000000000000000000000000000000000000000000000000000000000000082828151811061352557fe5b602001015160f81c60f81b7effffffffffffffffffffffffffffffffffffffffffffffffffffffffffffff19161015613563576000925050506136b0565b7f390000000000000000000000000000000000000000000000000000000000000082828151811061359057fe5b602001015160f81c60f81b7effffffffffffffffffffffffffffffffffffffffffffffffffffffffffffff191611801561362157507f61000000000000000000000000000000000000000000000000000000000000008282815181106135f257fe5b602001015160f81c60f81b7effffffffffffffffffffffffffffffffffffffffffffffffffffffffffffff1916105b15613631576000925050506136b0565b7f660000000000000000000000000000000000000000000000000000000000000082828151811061365e57fe5b602001015160f81c60f81b7effffffffffffffffffffffffffffffffffffffffffffffffffffffffffffff1916111561369c576000925050506136b0565b80806001019150506134ef565b5060019150505b919050565b6136bd615d81565b73ffffffffffffffffffffffffffffffffffffffff1660008054906101000a900473ffffffffffffffffffffffffffffffffffffffff1673ffffffffffffffffffffffffffffffffffffffff161461377d576040517f08c379a00000000000000000000000000000000000000000000000000000000081526004018080602001828103825260208152602001807f4f776e61626c653a2063616c6c6572206973206e6f7420746865206f776e657281525060200191505060405180910390fd5b600073ffffffffffffffffffffffffffffffffffffffff1660008054906101000a900473ffffffffffffffffffffffffffffffffffffffff1673ffffffffffffffffffffffffffffffffffffffff167f8be0079c531659141344cd1fd0a4f28419497f9722a3daafe3b4186f6b6457e060405160405180910390a360008060006101000a81548173ffffffffffffffffffffffffffffffffffffffff021916908373ffffffffffffffffffffffffffffffffffffffff160217905550565b60086020528060005260406000206000915090505481565b6000600660008373ffffffffffffffffffffffffffffffffffffffff1673ffffffffffffffffffffffffffffffffffffffff16815260200190815260200160002060010160009054906101000a900467ffffffffffffffff169050919050565b6138bb615d81565b73ffffffffffffffffffffffffffffffffffffffff1660008054906101000a900473ffffffffffffffffffffffffffffffffffffffff1673ffffffffffffffffffffffffffffffffffffffff161461397b576040517f08c379a00000000000000000000000000000000000000000000000000000000081526004018080602001828103825260208152602001807f4f776e61626c653a2063616c6c6572206973206e6f7420746865206f776e657281525060200191505060405180910390fd5b80600360006101000a81548173ffffffffffffffffffffffffffffffffffffffff021916908373ffffffffffffffffffffffffffffffffffffffff1602179055507fe8940ba94a1b862af0a845755bbe38516264b7937dc69ffdb00fa16bb9c2c85f81604051808273ffffffffffffffffffffffffffffffffffffffff16815260200191505060405180910390a150565b6000600660008373ffffffffffffffffffffffffffffffffffffffff1673ffffffffffffffffffffffffffffffffffffffff16815260200190815260200160002060030160019054906101000a900460ff166001811115613a6957fe5b9050919050565b6000339050613a7e8161453b565b613ad3576040517f08c379a000000000000000000000000000000000000000000000000000000000815260040180806020018281038252603581526020018061664b6035913960400191505060405180910390fd5b6000600554420190506000613ae785615f10565b9050613af284612466565b15613c68576040518060e001604052808281526020018667ffffffffffffffff16815260200185815260200160016005811115613b2b57fe5b815260200160006001811115613b3d57fe5b815260200160001515815260200183815250600660008573ffffffffffffffffffffffffffffffffffffffff1673ffffffffffffffffffffffffffffffffffffffff1681526020019081526020016000206000820151816000015560208201518160010160006101000a81548167ffffffffffffffff021916908367ffffffffffffffff1602179055506040820151816002019080519060200190613be3929190615fab565b5060608201518160030160006101000a81548160ff02191690836005811115613c0857fe5b021790555060808201518160030160016101000a81548160ff02191690836001811115613c3157fe5b021790555060a08201518160030160026101000a81548160ff02191690831515021790555060c08201518160040155905050613e32565b613c71846134d2565b613cc6576040517f08c379a00000000000000000000000000000000000000000000000000000000081526004018080602001828103825260238152602001806164356023913960400191505060405180910390fd5b6040518060e001604052808281526020018667ffffffffffffffff16815260200185815260200160016005811115613cfa57fe5b8152602001600180811115613d0b57fe5b815260200160001515815260200183815250600660008573ffffffffffffffffffffffffffffffffffffffff1673ffffffffffffffffffffffffffffffffffffffff1681526020019081526020016000206000820151816000015560208201518160010160006101000a81548167ffffffffffffffff021916908367ffffffffffffffff1602179055506040820151816002019080519060200190613db1929190615fab565b5060608201518160030160006101000a81548160ff02191690836005811115613dd657fe5b021790555060808201518160030160016101000a81548160ff02191690836001811115613dff57fe5b021790555060a08201518160030160026101000a81548160ff02191690831515021790555060c082015181600401559050505b60076000828152602001908152602001600020839080600181540180825580915050600190039060005260206000200160009091909190916101000a81548173ffffffffffffffffffffffffffffffffffffffff021916908373ffffffffffffffffffffffffffffffffffffffff16021790555060608490507fdf705ffb67f3c12f456a843de9785cb8435e6819b1974e5df6de4557ae2f52f68483888487604051808673ffffffffffffffffffffffffffffffffffffffff1681526020018581526020018467ffffffffffffffff16815260200180602001838152602001828103825284818151815260200191508051906020019080838360005b83811015613f49578082015181840152602081019050613f2e565b50505050905090810190601f168015613f765780820380516001836020036101000a031916815260200191505b50965050505050505060405180910390a1505050505050565b613f97615d81565b73ffffffffffffffffffffffffffffffffffffffff1660008054906101000a900473ffffffffffffffffffffffffffffffffffffffff1673ffffffffffffffffffffffffffffffffffffffff1614614057576040517f08c379a00000000000000000000000000000000000000000000000000000000081526004018080602001828103825260208152602001807f4f776e61626c653a2063616c6c6572206973206e6f7420746865206f776e657281525060200191505060405180910390fd5b80600260006101000a81548173ffffffffffffffffffffffffffffffffffffffff021916908373ffffffffffffffffffffffffffffffffffffffff1602179055507fab616eba0b7070d2d87e12d5c2d05868da9a14a38db4c54abb148faa879bdf6281604051808273ffffffffffffffffffffffffffffffffffffffff16815260200191505060405180910390a150565b60008060009054906101000a900473ffffffffffffffffffffffffffffffffffffffff16905090565b600060058081111561411f57fe5b600660008473ffffffffffffffffffffffffffffffffffffffff1673ffffffffffffffffffffffffffffffffffffffff16815260200190815260200160002060030160009054906101000a900460ff16600581111561417a57fe5b149050919050565b60055481565b6141c7816040518060400160405280600181526020017f3000000000000000000000000000000000000000000000000000000000000000815250613a70565b50565b6141d333612f7c565b15614229576040517f08c379a000000000000000000000000000000000000000000000000000000000815260040180806020018281038252603a8152602001806161c5603a913960400191505060405180910390fd5b61423233614750565b15614288576040517f08c379a00000000000000000000000000000000000000000000000000000000081526004018080602001828103825260658152602001806163496065913960800191505060405180910390fd5b61429133613083565b6142e6576040517f08c379a00000000000000000000000000000000000000000000000000000000081526004018080602001828103825260368152602001806163ff6036913960400191505060405180910390fd5b60003390506142f481611b4d565b614349576040517f08c379a000000000000000000000000000000000000000000000000000000000815260040180806020018281038252603181526020018061675b6031913960400191505060405180910390fd5b8173ffffffffffffffffffffffffffffffffffffffff168173ffffffffffffffffffffffffffffffffffffffff1614156143ce576040517f08c379a00000000000000000000000000000000000000000000000000000000081526004018080602001828103825260418152602001806163086041913960600191505060405180910390fd5b6143d8818361479e565b61442d576040517f08c379a000000000000000000000000000000000000000000000000000000000815260040180806020018281038252604781526020018061623d6047913960600191505060405180910390fd5b614438826001615b3d565b5050565b6000600660008373ffffffffffffffffffffffffffffffffffffffff1673ffffffffffffffffffffffffffffffffffffffff16815260200190815260200160002060030160009054906101000a900460ff16600581111561449957fe5b9050919050565b6000806144ac836117f8565b90506144b7816116e9565b61450c576040517f08c379a000000000000000000000000000000000000000000000000000000000815260040180806020018281038252602681526020018061678c6026913960400191505060405180910390fd5b80915050919050565b600160009054906101000a900473ffffffffffffffffffffffffffffffffffffffff1681565b600080600581111561454957fe5b600660008473ffffffffffffffffffffffffffffffffffffffff1673ffffffffffffffffffffffffffffffffffffffff16815260200190815260200160002060030160009054906101000a900460ff1660058111156145a457fe5b149050919050565b6145b4615d81565b73ffffffffffffffffffffffffffffffffffffffff1660008054906101000a900473ffffffffffffffffffffffffffffffffffffffff1673ffffffffffffffffffffffffffffffffffffffff1614614674576040517f08c379a00000000000000000000000000000000000000000000000000000000081526004018080602001828103825260208152602001807f4f776e61626c653a2063616c6c6572206973206e6f7420746865206f776e657281525060200191505060405180910390fd5b80600160006101000a81548173ffffffffffffffffffffffffffffffffffffffff021916908373ffffffffffffffffffffffffffffffffffffffff1602179055507fb4b21447ed122203af852ed9cc9406dfcf15215ca2a22c6e2adca1156bccea9181604051808273ffffffffffffffffffffffffffffffffffffffff16815260200191505060405180910390a150565b6007602052816000526040600020818154811061471e57fe5b906000526020600020016000915091509054906101000a900473ffffffffffffffffffffffffffffffffffffffff1681565b600042600660008473ffffffffffffffffffffffffffffffffffffffff1673ffffffffffffffffffffffffffffffffffffffff16815260200190815260200160002060040154109050919050565b6000600660008373ffffffffffffffffffffffffffffffffffffffff1673ffffffffffffffffffffffffffffffffffffffff16815260200190815260200160002060010160009054906101000a900467ffffffffffffffff1667ffffffffffffffff16600660008573ffffffffffffffffffffffffffffffffffffffff1673ffffffffffffffffffffffffffffffffffffffff16815260200190815260200160002060010160009054906101000a900467ffffffffffffffff1667ffffffffffffffff1614905092915050565b600061487682613324565b5061488082613853565b9050919050565b60045481565b61489633612f7c565b156148ec576040517f08c379a000000000000000000000000000000000000000000000000000000000815260040180806020018281038252603a8152602001806161c5603a913960400191505060405180910390fd5b6148f533614750565b1561494b576040517f08c379a00000000000000000000000000000000000000000000000000000000081526004018080602001828103825260658152602001806163496065913960800191505060405180910390fd5b61495433613083565b6149a9576040517f08c379a00000000000000000000000000000000000000000000000000000000081526004018080602001828103825260368152602001806163ff6036913960400191505060405180910390fd5b60003390506149b782614111565b15614a0d576040517f08c379a00000000000000000000000000000000000000000000000000000000081526004018080602001828103825260298152602001806162df6029913960400191505060405180910390fd5b614a1682612f7c565b15614a89576040517f08c379a00000000000000000000000000000000000000000000000000000000081526004018080602001828103825260178152602001807f436f6e7461206ac3a120657374c3a1207061757361646100000000000000000081525060200191505060405180910390fd5b614a93818361479e565b614ae8576040517f08c379a000000000000000000000000000000000000000000000000000000000815260040180806020018281038252603e8152602001806161ff603e913960400191505060405180910390fd5b8073ffffffffffffffffffffffffffffffffffffffff168273ffffffffffffffffffffffffffffffffffffffff161480614b285750614b2682611b4d565b155b614b7d576040517f08c379a00000000000000000000000000000000000000000000000000000000081526004018080602001828103825260258152602001806160a86025913960400191505060405180910390fd5b614b88826001615d89565b5050565b3373ffffffffffffffffffffffffffffffffffffffff16600260009054906101000a900473ffffffffffffffffffffffffffffffffffffffff1673ffffffffffffffffffffffffffffffffffffffff1614614c32576040517f08c379a00000000000000000000000000000000000000000000000000000000081526004018080602001828103825260488152602001806166ab6048913960600191505060405180910390fd5b6000339050614c40826125c5565b614c95576040517f08c379a000000000000000000000000000000000000000000000000000000000815260040180806020018281038252602a8152602001806164fa602a913960400191505060405180910390fd5b614c9e82612f7c565b15614cf4576040517f08c379a00000000000000000000000000000000000000000000000000000000081526004018080602001828103825260338152602001806162846033913960400191505060405180910390fd5b614cfd82614750565b15614d53576040517f08c379a000000000000000000000000000000000000000000000000000000000815260040180806020018281038252603481526020018061648e6034913960400191505060405180910390fd5b614d5c82611b4d565b614db1576040517f08c379a000000000000000000000000000000000000000000000000000000000815260040180806020018281038252602b815260200180616680602b913960400191505060405180910390fd5b6004600660008473ffffffffffffffffffffffffffffffffffffffff1673ffffffffffffffffffffffffffffffffffffffff16815260200190815260200160002060030160006101000a81548160ff02191690836005811115614e1057fe5b02179055507f90e796ddecc580ca3db3277073bdbf5d9c3eac364c19683d78a0bb129021360b82600660008573ffffffffffffffffffffffffffffffffffffffff1673ffffffffffffffffffffffffffffffffffffffff16815260200190815260200160002060000154600660008673ffffffffffffffffffffffffffffffffffffffff1673ffffffffffffffffffffffffffffffffffffffff16815260200190815260200160002060010160009054906101000a900467ffffffffffffffff1684604051808573ffffffffffffffffffffffffffffffffffffffff1681526020018481526020018367ffffffffffffffff1681526020018273ffffffffffffffffffffffffffffffffffffffff16815260200194505050505060405180910390a15050565b6000614f41826116e9565b614f96576040517f08c379a000000000000000000000000000000000000000000000000000000000815260040180806020018281038252602681526020018061678c6026913960400191505060405180910390fd5b614f9f82612fd5565b9050919050565b6000339050614fb48161453b565b1561500a576040517f08c379a00000000000000000000000000000000000000000000000000000000081526004018080602001828103825260358152602001806161036035913960400191505060405180910390fd5b61501381614111565b15615069576040517f08c379a00000000000000000000000000000000000000000000000000000000081526004018080602001828103825260278152602001806166246027913960400191505060405180910390fd5b61507282612466565b6150e85761507f81611b4d565b156150e35761508d826134d2565b6150e2576040517f08c379a00000000000000000000000000000000000000000000000000000000081526004018080602001828103825260238152602001806164356023913960400191505060405180910390fd5b5b615148565b6150f181611b4d565b15615147576040517f08c379a00000000000000000000000000000000000000000000000000000000081526004018080602001828103825260388152602001806164c26038913960400191505060405180910390fd5b5b60006005544201905082600660008473ffffffffffffffffffffffffffffffffffffffff1673ffffffffffffffffffffffffffffffffffffffff16815260200190815260200160002060020190805190602001906151a7929190615fab565b506001600660008473ffffffffffffffffffffffffffffffffffffffff1673ffffffffffffffffffffffffffffffffffffffff16815260200190815260200160002060030160006101000a81548160ff0219169083600581111561520757fe5b021790555080600660008473ffffffffffffffffffffffffffffffffffffffff1673ffffffffffffffffffffffffffffffffffffffff168152602001908152602001600020600401819055506000600660008473ffffffffffffffffffffffffffffffffffffffff1673ffffffffffffffffffffffffffffffffffffffff16815260200190815260200160002060030160026101000a81548160ff0219169083151502179055507ff492947317cd8bacaf07d8d493aa37edfc267531f5c311a42eaf0b68d332f38b828483604051808473ffffffffffffffffffffffffffffffffffffffff16815260200180602001838152602001828103825284818151815260200191508051906020019080838360005b83811015615334578082015181840152602081019050615319565b50505050905090810190601f1680156153615780820380516001836020036101000a031916815260200191505b5094505050505060405180910390a1505050565b3373ffffffffffffffffffffffffffffffffffffffff16600360009054906101000a900473ffffffffffffffffffffffffffffffffffffffff1673ffffffffffffffffffffffffffffffffffffffff161461541b576040517f08c379a000000000000000000000000000000000000000000000000000000000815260040180806020018281038252606781526020018061615e6067913960800191505060405180910390fd5b6060600760008381526020019081526020016000208054806020026020016040519081016040528092919081815260200182805480156154b057602002820191906000526020600020905b8160009054906101000a900473ffffffffffffffffffffffffffffffffffffffff1673ffffffffffffffffffffffffffffffffffffffff1681526020019060010190808311615466575b5050505050905060005b81518110156155165760008282815181106154d157fe5b602002602001015190506154e481614111565b1580156154f757506154f581612f7c565b155b1561550857615507816004615d89565b5b5080806001019150506154ba565b505050565b615523615d81565b73ffffffffffffffffffffffffffffffffffffffff1660008054906101000a900473ffffffffffffffffffffffffffffffffffffffff1673ffffffffffffffffffffffffffffffffffffffff16146155e3576040517f08c379a00000000000000000000000000000000000000000000000000000000081526004018080602001828103825260208152602001807f4f776e61626c653a2063616c6c6572206973206e6f7420746865206f776e657281525060200191505060405180910390fd5b600073ffffffffffffffffffffffffffffffffffffffff168173ffffffffffffffffffffffffffffffffffffffff161415615669576040517f08c379a00000000000000000000000000000000000000000000000000000000081526004018080602001828103825260268152602001806161386026913960400191505060405180910390fd5b8073ffffffffffffffffffffffffffffffffffffffff1660008054906101000a900473ffffffffffffffffffffffffffffffffffffffff1673ffffffffffffffffffffffffffffffffffffffff167f8be0079c531659141344cd1fd0a4f28419497f9722a3daafe3b4186f6b6457e060405160405180910390a3806000806101000a81548173ffffffffffffffffffffffffffffffffffffffff021916908373ffffffffffffffffffffffffffffffffffffffff16021790555050565b600033905061573481614111565b1561578a576040517f08c379a00000000000000000000000000000000000000000000000000000000081526004018080602001828103825260238152602001806163dc6023913960400191505060405180910390fd5b6157958160016159ad565b50565b60008060606000806000806157ab61602b565b600660008a73ffffffffffffffffffffffffffffffffffffffff1673ffffffffffffffffffffffffffffffffffffffff1681526020019081526020016000206040518060e0016040529081600082015481526020016001820160009054906101000a900467ffffffffffffffff1667ffffffffffffffff1667ffffffffffffffff168152602001600282018054600181600116156101000203166002900480601f0160208091040260200160405190810160405280929190818152602001828054600181600116156101000203166002900480156158ca5780601f1061589f576101008083540402835291602001916158ca565b820191906000526020600020905b8154815290600101906020018083116158ad57829003601f168201915b505050505081526020016003820160009054906101000a900460ff1660058111156158f157fe5b60058111156158fc57fe5b81526020016003820160019054906101000a900460ff16600181111561591e57fe5b600181111561592957fe5b81526020016003820160029054906101000a900460ff16151515158152602001600482015481525050905060608160400151905081600001518260200151828460600151600581111561597857fe5b8560800151600181111561598857fe5b8660a001518760c0015198509850985098509850985098505050919395979092949650565b6005600660008473ffffffffffffffffffffffffffffffffffffffff1673ffffffffffffffffffffffffffffffffffffffff16815260200190815260200160002060030160006101000a81548160ff02191690836005811115615a0c57fe5b02179055507ff21c6489d7501ed8680a8057bde75d0b1a96ed72c4e7fb66dab5500b247f573b82600660008573ffffffffffffffffffffffffffffffffffffffff1673ffffffffffffffffffffffffffffffffffffffff16815260200190815260200160002060000154600660008673ffffffffffffffffffffffffffffffffffffffff1673ffffffffffffffffffffffffffffffffffffffff16815260200190815260200160002060010160009054906101000a900467ffffffffffffffff163385604051808673ffffffffffffffffffffffffffffffffffffffff1681526020018581526020018467ffffffffffffffff1681526020018373ffffffffffffffffffffffffffffffffffffffff1681526020018260ff1681526020019550505050505060405180910390a15050565b615b4682614111565b15615b9c576040517f08c379a000000000000000000000000000000000000000000000000000000000815260040180806020018281038252602e8152602001806163ae602e913960400191505060405180910390fd5b615ba582612f7c565b615bfa576040517f08c379a000000000000000000000000000000000000000000000000000000000815260040180806020018281038252602d81526020018061655e602d913960400191505060405180910390fd5b6000600660008473ffffffffffffffffffffffffffffffffffffffff1673ffffffffffffffffffffffffffffffffffffffff16815260200190815260200160002060030160026101000a81548160ff0219169083151502179055507f227cbae91e983df06bd1200d744f04513fee47cfd847092fa7f5c8c1ad62208182600660008573ffffffffffffffffffffffffffffffffffffffff1673ffffffffffffffffffffffffffffffffffffffff16815260200190815260200160002060000154600660008673ffffffffffffffffffffffffffffffffffffffff1673ffffffffffffffffffffffffffffffffffffffff16815260200190815260200160002060010160009054906101000a900467ffffffffffffffff163385604051808673ffffffffffffffffffffffffffffffffffffffff1681526020018581526020018467ffffffffffffffff1681526020018373ffffffffffffffffffffffffffffffffffffffff1681526020018260ff1681526020019550505050505060405180910390a15050565b600033905090565b6001600660008473ffffffffffffffffffffffffffffffffffffffff1673ffffffffffffffffffffffffffffffffffffffff16815260200190815260200160002060030160026101000a81548160ff0219169083151502179055507fca968621fb765ebc0063732949287ab2f87e93949cbb9adea1cc88bba7576dea82600660008573ffffffffffffffffffffffffffffffffffffffff1673ffffffffffffffffffffffffffffffffffffffff16815260200190815260200160002060000154600660008673ffffffffffffffffffffffffffffffffffffffff1673ffffffffffffffffffffffffffffffffffffffff16815260200190815260200160002060010160009054906101000a900467ffffffffffffffff163385604051808673ffffffffffffffffffffffffffffffffffffffff1681526020018581526020018467ffffffffffffffff1681526020018373ffffffffffffffffffffffffffffffffffffffff1681526020018260ff1681526020019550505050505060405180910390a15050565b600080600860008467ffffffffffffffff1667ffffffffffffffff168152602001908152602001600020541415615f7c57600460008154600101919050819055600860008467ffffffffffffffff1667ffffffffffffffff168152602001908152602001600020819055505b600860008367ffffffffffffffff1667ffffffffffffffff168152602001908152602001600020549050919050565b828054600181600116156101000203166002900490600052602060002090601f016020900481019282601f10615fec57805160ff191683800117855561601a565b8280016001018555821561601a579182015b82811115616019578251825591602001919060010190615ffe565b5b509050616027919061608a565b5090565b6040518060e0016040528060008152602001600067ffffffffffffffff168152602001606081526020016000600581111561606257fe5b81526020016000600181111561607457fe5b8152602001600015158152602001600081525090565b5b808211156160a357600081600090555060010161608b565b509056fe4ec3a36f20706f64652070617573617220636f6e7461206465206f7574726f2041444d494e4120636f6e74612070726563697361206573746172206e6f2065737461646f20416775617264616e646f2056616c696461c3a7c3a36f456e64657265c3a76f206465766520706f646520746572207369646f206361646173747261646f20616e746572696f726d656e74654f776e61626c653a206e6577206f776e657220697320746865207a65726f2061646472657373412061c3a7c3a36f2073c3b320706f646520736572206578656375746164612070656c6120636f6e746120726573706f6e73c3a176656c2070656c6120746f6d61722061c3a7c3b56573206465636f7272656e746573206465206d6f6e69746f7261c3a7c3a36f4170656e617320636f6e746173206ec3a36f20706175736164617320706f64656d2065786563757461722065737461206f70657261c3a7c3a36f536f6d656e746520636f6e7461206465206d65736d61206f7267616e697a61c3a7c3a36f20706f646520657865637574617220657374612061c3a7c3a36f536f6d656e746520706f6465207265746972617220706175736120646520756d6120636f6e7461207175656d20666f72206461206d65736d61206f7267616e697a61c3a7c3a36f4120636f6e7461206ec3a36f20706f6465207365722076616c696461646120706f7271756520657374c3a120706175736164614ec3a36f20706f646520696e76616c6964617220636f6e7461206465206f7574726f2041444d494e436f6e74617320696e76c3a16c69646173206ec3a36f20706f64656d20736572207061757361646173556d6120706573736f61206ec3a36f20c3a920636170617a2064652072657469726172206f20706175736520646520737561207072c3b37072696120636f6e74614170656e617320636f6e74617320636f6d206465636c617261c3a7c3b565732063756a6f7320636572746966696361646f732061696e64612073c3a36f2076c3a16c69646f7320706f64656d2065786563757461722065737461206f70657261c3a7c3a36f436f6e74617320696e76c3a16c69646173206ec3a36f20706f64656d2073657220726574697261722070617573614120636f6e746120666f6920696e76616c6964616461207072657669616d656e74652e4170656e617320636f6e7461732076616c69646164617320706f64656d2065786563757461722065737461206f70657261c3a7c3a36f4f2068617368206461206465636c617261c3a7c3a36f20c3a920696e76c3a16c69646f4120636f6e7461207072656369736120657374617220656d2065737461646f20416775617264616e646f2056616c696461c3a7c3a36f4120636f6e7461206ec3a36f20706f6465207365722076616c696461646120706f7271756520657374c3a1206578706972616461436f6e7461732041646d696e20707265636973616d20696e666f726d617220756d2068617368206469666572656e7465206465207a65726f4120636f6e7461207072656369736120657374617220656d2065737461646f20416775617264616e646f4170656e617320636f6e746173206461206d65736d61206f7267616e697a6163616f20706f64656d2073657220696e76616c6964616461732e20536f6d656e746520756d6120636f6e7461207061757361646120706f64652073657220646573706175736164614f20726573706f6e73c3a176656c2070656c612076616c696461c3a7c3a36f206465766520736572206461206d65736d61206f7267616e697a61c3a7c3a36f20286d65736d6f20434e504a29412061c3a7c3a36f2073c3b320706f646520736572206578656375746164612070656c6120636f6e746120726573706f6e73c3a176656c2070656c61207072c3a92d76616c696461c3a7c3a36f456e64657265c3a76f206ec3a36f20706f646520746572207369646f20696e76616c696461646f456e64657265c3a76f206ec3a36f20706f646520746572207369646f206361646173747261646f20616e746572696f726d656e74654120636f6e746120612076616c69646172206465766520746572206f20706170656c2064652041444d494e412061c3a7c3a36f2073c3b320706f646520736572206578656375746164612070656c6120636f6e746120726573706f6e73c3a176656c2070656c612076616c696461c3a7c3a36f4f20726573706f6e73c3a176656c2070656c612076616c696461c3a7c3a36f206465766520746572206f20706170656c2041444d494e4f20757375c3a172696f2061207365722076616c696461646f206465766520746572206f20706170656c20524547554c4152536f6d656e746520756d6120636f6e74612041444d494e20706f646520657865637574617220657374612061c3a7c3a36f41206f7267616e697a61c3a7c3a36f206ec3a36f20657374c3a1206f7065726163696f6e616c53c3b320c3a920706f7373c3ad76656c20696e76616c6964617220636f6e74612064652041444d494e206e6f2070726f636573736f2064652076616c696461c3a7c3a36fa26469706673582212205ba92483a8f1d0f55e59c80c3136b460671fc29f9204ec6f0d619c5c306e508064736f6c634300060c0033",
  "immutableReferences": {},
  "source": "pragma solidity ^0.6.0;\r\n\r\nimport \"@openzeppelin/contracts/access/Ownable.sol\";\r\nimport \"./IRBBRegistry.sol\";\r\n\r\ncontract RBBRegistry is IRBBRegistry, Ownable() {\r\n\r\n    enum BlockchainAccountState {AVAILABLE,WAITING_VALIDATION,WAITING_APPROVAL,WAITING_REJECTION,VALIDATED,INVALIDATED}\r\n    BlockchainAccountState blockchainState; /* Variable not used, only defined to create the enum type. */\r\n      \r\n    /**\r\n    REGULAR  - operates \r\n    ADMIN    - validates the regular.\r\n     */\r\n    enum BlockchainAccountRole {REGULAR, ADMIN} \r\n    BlockchainAccountRole blockchainRole;  /* Variable not used, only defined to create the enum type. */\r\n\r\n    //Ativao/inativao de Registries no processo usual (pode ser via um processo automatizado) \r\n    address public responsibleForRegistryPreValidation;\r\n    address public responsibleForRegistryValidation;\r\n\r\n    //Inativao e pause/unpause decorrente de eventos no previstos (por exemplo, um comportamento inadequado de um Registry) \r\n    address public responsibleForActingAfterMonitoring;\r\n\r\n    /* This is a helper variable to emulate a sequence and autoincrement Ids*/\r\n    uint public currentRBBId = 0;\r\n\r\n     /**\r\n        This registry is about a company representative information\r\n     */    \r\n    struct Registry {\r\n        uint RBBId; //uma proxy para o CNPJ\r\n        uint64 CNPJ; //Brazilian identification of legal entity\r\n        string hashProof; //hash of declaration\r\n        BlockchainAccountState state;\r\n        BlockchainAccountRole role;\r\n        bool paused;\r\n        uint256 dateTimeExpiration; //vai ser outro momento de expirao diferente do ECNPJ\r\n    }\r\n\r\n    uint256 public defaultDeltaDateTimeExpiration = 365 days; \r\n\r\n    /**\r\n        Links Ethereum addresses to Registry\r\n     */\r\n    mapping(address => Registry) public legalEntitiesInfo;\r\n\r\n    /**\r\n        Links RBBID to Ethereum addresses.\r\n     */\r\n    mapping(uint => address[]) public RBBId_addresses;\r\n    \r\n    /**\r\n     * Links CNPJ to its RBBID\r\n     */\r\n    mapping (uint64 => uint) public CNPJ_RBBId;\r\n\r\n    //responsible is the msg.sender\r\n    event AccountRegistration       (address addr, uint RBBId, uint64 CNPJ, string hashProof, uint256 dateTimeExpiration);\r\n    event AccountWaitingApproval    (address addr, uint RBBId, uint64 CNPJ, address responsible);\r\n    event AccountWaitingRejection   (address addr, uint RBBId, uint64 CNPJ, address responsible);\r\n    event AccountValidation         (address addr, uint RBBId, uint64 CNPJ, address responsible);\r\n    event AccountInvalidation       (address addr, uint RBBId, uint64 CNPJ, address responsible, uint8 reason);\r\n    event AccountPaused             (address addr, uint RBBId, uint64 CNPJ, address responsible, uint8 reason);\r\n    event AccountUnpaused           (address addr, uint RBBId, uint64 CNPJ, address responsible, uint8 reason);\r\n    event AccountRoleChange         (address addr, uint RBBId, uint64 CNPJ, address responsible, BlockchainAccountRole roleBefore, BlockchainAccountRole roleNew);\r\n    event AccountReactivation       (address addr, string hashProof, uint256 dateTimeExpiration);\r\n\r\n    event RegistryExpirationChange  (address addr, uint256 dateTimeExpirationBefore, uint256 dateTimeExpirationNew);\r\n\r\n    event RoleDefinitionRegistryPreValidation(address rs);\r\n    event RoleDefinitionRegistryValidation(address rs);\r\n    event RoleDefinitionActingAfterMonitoring(address rs);\r\n\r\n\r\n    constructor () public {                \r\n        responsibleForRegistryPreValidation = msg.sender;\r\n        responsibleForRegistryValidation = msg.sender;\r\n        responsibleForActingAfterMonitoring = msg.sender;         \r\n    }\r\n\r\n    function setResponsibleForRegistryPreValidation(address rs) onlyOwner public {\r\n        responsibleForRegistryPreValidation = rs;\r\n        emit RoleDefinitionRegistryPreValidation(rs);\r\n    }    \r\n    function setResponsibleForRegistryValidation(address rs) onlyOwner public {\r\n        responsibleForRegistryValidation = rs;\r\n        emit RoleDefinitionRegistryValidation(rs);\r\n    }    \r\n    function setResponsibleForActingAfterMonitoring(address rs) onlyOwner public {\r\n        responsibleForActingAfterMonitoring = rs;\r\n        emit RoleDefinitionActingAfterMonitoring(rs);\r\n    }  \r\n    \r\n    modifier onlyByResponsibleForRegistryPreValidation() { \r\n        require( responsibleForRegistryPreValidation==msg.sender , \"A ao s pode ser executada pela conta responsvel pela pr-validao\" );\r\n        _;\r\n    }\r\n\r\n    modifier onlyByResponsibleForRegistryValidation() { \r\n        require( responsibleForRegistryValidation==msg.sender , \"A ao s pode ser executada pela conta responsvel pela validao\" );\r\n        _;\r\n    }\r\n\r\n    modifier onlyByResponsibleForActingAfterMonitoring() { \r\n        require( responsibleForActingAfterMonitoring==msg.sender , \"A ao s pode ser executada pela conta responsvel pela tomar aes decorrentes de monitorao\" );\r\n        _;\r\n    }\r\n\r\n    modifier onlyIfSenderIsOperational() { \r\n        require( ! isPaused(msg.sender), \"Apenas contas no pausadas podem executar esta operao\" );\r\n        require( ! isExpired(msg.sender), \"Apenas contas com declaraes cujos certificados ainda so vlidos podem executar esta operao\" );\r\n        require( isValidatedAccount(msg.sender), \"Apenas contas validadas podem executar esta operao\" );\r\n        _;\r\n    }\r\n    \r\n    function registryLegalEntityForRegularAccounts(uint64 cnpj) public {\r\n        registryLegalEntity(cnpj, \"0\");\r\n    }\r\n    \r\n   /**\r\n    * Self Registering\r\n    * Link blockchain address with CNPJ\r\n    * @param CNPJ Brazilian identifier to legal entities\r\n    * @param proofHash The legal entities have to send BNDES a PDF where it assumes as responsible for an Ethereum account.\r\n    *                   This PDF is signed with eCNPJ and send to BNDES.\r\n    */\r\n    function registryLegalEntity(uint64 CNPJ, string memory proofHash) public {\r\n        \r\n        address addr = msg.sender;\r\n\r\n        require (isAvailableAccount(addr), \"Endereo no pode ter sido cadastrado anteriormente\");\r\n\r\n        uint256 dateTimeExpiration = now + defaultDeltaDateTimeExpiration;\r\n        uint RBBId = calculaProximoRBBID(CNPJ);\r\n\r\n\r\n        if ( isZeroHash(proofHash) ) { \r\n            legalEntitiesInfo[addr] = Registry( RBBId,\r\n                                                CNPJ, \r\n                                                proofHash, \r\n                                                BlockchainAccountState.WAITING_VALIDATION, \r\n                                                BlockchainAccountRole.REGULAR,\r\n                                                false,\r\n                                                dateTimeExpiration );\r\n        } else {\r\n    \r\n            require (isValidHash(proofHash), \"O hash da declarao  invlido\");\r\n\r\n            legalEntitiesInfo[addr] = Registry( RBBId,\r\n                                                CNPJ, \r\n                                                proofHash, \r\n                                                BlockchainAccountState.WAITING_VALIDATION, \r\n                                                BlockchainAccountRole.ADMIN,\r\n                                                false,\r\n                                                dateTimeExpiration );\r\n        }\r\n\r\n        RBBId_addresses[RBBId].push(addr);\r\n        string memory proof = proofHash;\r\n        emit AccountRegistration(addr, RBBId, CNPJ, proof, dateTimeExpiration);\r\n    }\r\n\r\n    /**\r\n    * Validates the initial registry of others LegalEntities\r\n    * @param userAddr Ethereum address that needs to be validated\r\n    */\r\n    function preValidateRegistry(address userAddr, bool approval) public onlyByResponsibleForRegistryPreValidation {\r\n\r\n        address responsible = msg.sender;\r\n        \r\n        require( legalEntitiesInfo[userAddr].state == BlockchainAccountState.WAITING_VALIDATION, \r\n                \"A conta precisa estar em estado Aguardando Validao\");\r\n\r\n        require ( isAdmin(userAddr), \"A conta a validar deve ter o papel de ADMIN\" );\r\n\r\n        require (!isPaused(userAddr), \"A conta no pode ser validada porque est pausada\"); \r\n\r\n        require (!isExpired(userAddr), \"A conta no pode ser validada porque est expirada\");\r\n\r\n        if ( approval ) {\r\n            legalEntitiesInfo[userAddr].state = BlockchainAccountState.WAITING_APPROVAL;\r\n            emit AccountWaitingApproval(    userAddr, \r\n                                            legalEntitiesInfo[userAddr].RBBId, \r\n                                            legalEntitiesInfo[userAddr].CNPJ, \r\n                                            responsible );\r\n        }\r\n        else {\r\n            legalEntitiesInfo[userAddr].state = BlockchainAccountState.WAITING_REJECTION;\r\n            emit AccountWaitingRejection(   userAddr, \r\n                                            legalEntitiesInfo[userAddr].RBBId, \r\n                                            legalEntitiesInfo[userAddr].CNPJ, \r\n                                            responsible );\r\n        }\r\n    }\r\n    \r\n\r\n   /**\r\n    * Validates the initial registry of your own LegalEntity\r\n    * @param userAddr Ethereum address that needs to be validated\r\n    */\r\n    function validateRegistrySameOrg(address userAddr) public onlyIfSenderIsOperational {\r\n\r\n        address responsible = msg.sender;\r\n\r\n        require ( isAdmin(responsible), \"O responsvel pela validao deve ter o papel ADMIN\" );\r\n\r\n        require( legalEntitiesInfo[userAddr].state == BlockchainAccountState.WAITING_VALIDATION, \r\n                \"A conta precisa estar em estado Aguardando Validao\");\r\n\r\n        require (!isPaused(userAddr), \"A conta no pode ser validada porque est pausada\"); \r\n\r\n        require (!isExpired(userAddr), \"A conta no pode ser validada porque est expirada\");\r\n\r\n        require ( legalEntitiesInfo[userAddr].role == BlockchainAccountRole.REGULAR, \r\n                   \"O usurio a ser validado deve ter o papel REGULAR\" );\r\n\r\n        require ( isTheSameID(responsible, userAddr) , \r\n                   \"O responsvel pela validao deve ser da mesma organizao (mesmo CNPJ)\" );                   \r\n\r\n        legalEntitiesInfo[userAddr].state = BlockchainAccountState.VALIDATED;\r\n\r\n        emit AccountValidation( userAddr, \r\n                                legalEntitiesInfo[userAddr].RBBId, \r\n                                legalEntitiesInfo[userAddr].CNPJ, \r\n                                responsible);\r\n    }\r\n\r\n    /**\r\n    * Validates the initial registry of others LegalEntities\r\n    * @param userAddr Ethereum address that needs to be validated\r\n    */\r\n    function validateRegistry(address userAddr) public onlyByResponsibleForRegistryValidation {\r\n\r\n        address responsible = msg.sender;\r\n\r\n        require( isWaitingAccount(userAddr), \"A conta precisa estar em estado Aguardando\");\r\n\r\n        require (!isPaused(userAddr), \"A conta no pode ser validada porque est pausada\"); \r\n\r\n        require (!isExpired(userAddr), \"A conta no pode ser validada porque est expirada\");\r\n\r\n        require ( isAdmin(userAddr), \"A conta a validar deve ter o papel de ADMIN\" );\r\n        \r\n        legalEntitiesInfo[userAddr].state = BlockchainAccountState.VALIDATED;\r\n\r\n        emit AccountValidation( userAddr, \r\n                                legalEntitiesInfo[userAddr].RBBId, \r\n                                legalEntitiesInfo[userAddr].CNPJ, \r\n                                responsible);\r\n    }   \r\n\r\n\r\n     /**\r\n    * Pause an account     \r\n    * @param addr Ethereum address that needs to be paused\r\n    */\r\n    function pauseAddressSameOrg(address addr) public onlyIfSenderIsOperational {\r\n\r\n        address responsible = msg.sender;\r\n\r\n        require (!isInvalidated(addr), \"Contas invlidas no podem ser pausadas\");\r\n        require (!isPaused(addr), \"Conta j est pausada\");\r\n        require( isTheSameID(responsible, addr), \"Somente conta de mesma organizao pode executar esta ao\" );\r\n\r\n        require ((addr==responsible || !isAdmin(addr)), \"No pode pausar conta de outro ADMIN\");\r\n\r\n        pauseAddressInternal (addr, 1);\r\n\r\n    }\r\n\r\n    function pauseAddressAfterMonitoring(address addr) public onlyByResponsibleForActingAfterMonitoring {\r\n\r\n        require (!isInvalidated(addr), \"Contas invlidas no podem ser pausadas\");\r\n        require (!isPaused(addr), \"Conta j est pausada\");\r\n\r\n        pauseAddressInternal (addr, 2);\r\n    }\r\n\r\n    function pauseAddressInternal(address addr, uint8 reason) internal {\r\n\r\n        legalEntitiesInfo[addr].paused = true;\r\n        \r\n        emit AccountPaused( addr, \r\n                            legalEntitiesInfo[addr].RBBId,\r\n                            legalEntitiesInfo[addr].CNPJ, \r\n                            msg.sender,\r\n                            reason);\r\n    }\r\n\r\n\r\n    function pauseLegalEntitySameOrg() public onlyIfSenderIsOperational {\r\n\r\n        address responsible = msg.sender;\r\n        uint rbbId = getIdRaw(responsible);\r\n\r\n        address[] memory addresses  = RBBId_addresses[rbbId];\r\n\r\n        for (uint i=0; i < addresses.length ; i++) {\r\n            address candidate = addresses[i];\r\n            if( !isInvalidated(candidate) &&\r\n                !isPaused(candidate) ) {\r\n                pauseAddressInternal (candidate, 3);\r\n            }\r\n        }\r\n    }\r\n\r\n\r\n    function pauseLegalEntityAfterMonitoring(uint RBBId) public onlyByResponsibleForActingAfterMonitoring {\r\n\r\n        address[] memory addresses  = RBBId_addresses[RBBId];\r\n\r\n        for (uint i=0; i < addresses.length ; i++) {\r\n            address candidate = addresses[i];\r\n            if( !isInvalidated(candidate) &&\r\n                !isPaused(candidate) ) {\r\n                pauseAddressInternal (candidate, 4);\r\n            }\r\n        }   \r\n    }\r\n\r\n\r\n    /**\r\n    * Unpause an account     \r\n    * @param addr Ethereum address that needs to be validated\r\n    */\r\n    function unpauseAddressSameOrg(address addr) public onlyIfSenderIsOperational {\r\n\r\n        address responsible = msg.sender;\r\n\r\n        require( isAdmin(responsible), \"Somente uma conta ADMIN pode executar esta ao\" );\r\n\r\n        require ( responsible != addr , \"Uma pessoa no  capaz de retirar o pause de sua prpria conta\");\r\n        require( isTheSameID(responsible, addr), \r\n                    \"Somente pode retirar pausa de uma conta quem for da mesma organizao\" );\r\n        \r\n        unpauseAddressInternal(addr, 1);        \r\n        \r\n    }\r\n\r\n    function unpauseAddressAfterMonitoring(address addr) public onlyByResponsibleForActingAfterMonitoring {\r\n        unpauseAddressInternal(addr,2);        \r\n    }\r\n\r\n    function unpauseAddressInternal(address addr, uint8 reason) internal {\r\n\r\n        require (!isInvalidated(addr), \"Contas invlidas no podem ser retirar pausa\");\r\n        require( isPaused(addr), \"Somente uma conta pausada pode ser despausada\" ); \r\n\r\n        legalEntitiesInfo[addr].paused = false;\r\n        \r\n        emit AccountUnpaused(   addr, \r\n                                legalEntitiesInfo[addr].RBBId,\r\n                                legalEntitiesInfo[addr].CNPJ, \r\n                                msg.sender,\r\n                                reason);\r\n    }\r\n\r\n    function invalidateYourOwnAddress() public {\r\n\r\n        address addr = msg.sender;\r\n\r\n        require( !isInvalidated(addr), \"A conta foi invalidada previamente.\" );\r\n\r\n        invalidateAddressInternal(addr, 1);\r\n\r\n    }\r\n\r\n   /**\r\n    * Invalidates the initial registry of a legal entity or the change of its registry\r\n    * @param addr Ethereum address that needs to be invalidated\r\n    */\r\n    function invalidateAddressSameOrg(address addr) public onlyIfSenderIsOperational {\r\n\r\n        address responsible = msg.sender;\r\n\r\n        require( !isInvalidated(addr), \"A conta foi invalidada previamente.\" );\r\n\r\n        require( isTheSameID(responsible, addr) , \"Apenas contas da mesma organizacao podem ser invalidadas. \");\r\n\r\n        require ((addr==responsible || !isAdmin(addr)), \"No pode invalidar conta de outro ADMIN\");\r\n\r\n        invalidateAddressInternal(addr, 2);\r\n\r\n    }\r\n\r\n    function invalidateAddress(address addr) public onlyByResponsibleForRegistryValidation {\r\n\r\n        require(isWaitingAccount(addr), \"A conta precisa estar no estado Aguardando Validao\");\r\n\r\n        require( isAdmin(addr), \"S  possvel invalidar conta de ADMIN no processo de validao\");\r\n\r\n        invalidateAddressInternal(addr, 3);\r\n\r\n    }\r\n\r\n\r\n    function invalidateAddressAfterMonitoring(address addr) public onlyByResponsibleForActingAfterMonitoring {\r\n\r\n        require( !isInvalidated(addr), \"A conta foi invalidada previamente.\" );\r\n        \r\n        invalidateAddressInternal(addr, 4);\r\n    }\r\n\r\n    function invalidateAddressInternal(address addr, uint8 reason) internal {\r\n\r\n        legalEntitiesInfo[addr].state = BlockchainAccountState.INVALIDATED;\r\n        \r\n        emit AccountInvalidation(   addr, \r\n                                    legalEntitiesInfo[addr].RBBId, \r\n                                    legalEntitiesInfo[addr].CNPJ, \r\n                                    msg.sender,\r\n                                    reason );\r\n    \r\n    }\r\n\r\n    function reactiveForRegularAccounts() public {\r\n        reactiveAccount(\"0\");\r\n    }\r\n\r\n    function reactiveAccount(string memory hashProof) public {\r\n        \r\n        address addr = msg.sender;\r\n\r\n        require (!isAvailableAccount(addr), \"Endereo deve pode ter sido cadastrado anteriormente\");\r\n        require (!isInvalidated(addr), \"Endereo no pode ter sido invalidado\");\r\n\r\n        if ( !isZeroHash(hashProof) ) { \r\n            if (isAdmin(addr)) {\r\n                require (isValidHash(hashProof), \"O hash da declarao  invlido\");\r\n            }\r\n        }\r\n        else {\r\n            require(!isAdmin(addr), \"Contas Admin precisam informar um hash diferente de zero\");\r\n        }\r\n\r\n        uint256 dateTimeExpiration = now + defaultDeltaDateTimeExpiration;\r\n\r\n        legalEntitiesInfo[addr].hashProof = hashProof;\r\n        legalEntitiesInfo[addr].state = BlockchainAccountState.WAITING_VALIDATION;\r\n        legalEntitiesInfo[addr].dateTimeExpiration = dateTimeExpiration;\r\n        legalEntitiesInfo[addr].paused = false;\r\n\r\n        emit AccountReactivation(addr, hashProof, dateTimeExpiration);\r\n    }\r\n\r\n\r\n    /**\r\n    * The Owner can assign new default expiration time for future registries\r\n    * @param deltaDateTimeExpirationNew the new default expiration time \r\n    */\r\n    function setDefaultDeltaDateTimeExpiration(uint256 deltaDateTimeExpirationNew) onlyOwner public {\r\n\r\n        uint256 defaultDeltaDateTimeExpirationOld = defaultDeltaDateTimeExpiration;\r\n        defaultDeltaDateTimeExpiration = deltaDateTimeExpirationNew;\r\n        \r\n        emit RegistryExpirationChange(   msg.sender, \r\n                                         defaultDeltaDateTimeExpirationOld, \r\n                                         defaultDeltaDateTimeExpiration );        \r\n    }\r\n\r\n    function calculaProximoRBBID(uint64 CNPJ) internal returns (uint) {\r\n\r\n        if ( CNPJ_RBBId[CNPJ] == 0 ) //se nao existir rbbid para este CNPJ\r\n            CNPJ_RBBId[CNPJ] = ++currentRBBId;\r\n\r\n        return CNPJ_RBBId[CNPJ];\r\n    } \r\n\r\n   function isValidHash(string memory str) pure public returns (bool)  {\r\n\r\n        bytes memory b = bytes(str);\r\n        if(b.length != 64) return false;\r\n\r\n        for (uint i=0; i<64; i++) {\r\n            if (b[i] < \"0\") return false;\r\n            if (b[i] > \"9\" && b[i] <\"a\") return false;\r\n            if (b[i] > \"f\") return false;\r\n        }\r\n            \r\n        return true;\r\n    }\r\n\r\n    function isZeroHash(string memory str) pure public returns (bool) {\r\n        return (keccak256(bytes(str)) == keccak256(bytes(\"0\")));\r\n    }\r\n\r\n    function isOperational(address addr) public view returns (bool) {\r\n        return isValidatedAccount(addr) && !isPaused(addr) && !isExpired(addr);\r\n    }\r\n\r\n    function isRegistryOperational(uint RBBId) public view override returns (bool) {\r\n        address[] memory addresses  = RBBId_addresses[RBBId];\r\n\r\n        for (uint i=0; i < addresses.length ; i++) {\r\n            if ( isOperational( addresses[i] ) && isAdmin(addresses[i]) ) {\r\n                    return true;\r\n            }\r\n        }\r\n    }\r\n\r\n    function getId (address addr) public view override returns (uint) {\r\n        uint RBBId = getIdRaw(addr);\r\n        require ( isRegistryOperational( RBBId ) , \"A organizao no est operacional\" );\r\n        return RBBId;\r\n    }    \r\n\r\n    function getIdRaw (address addr) public view override returns (uint) {\r\n        return legalEntitiesInfo[addr].RBBId;\r\n    }\r\n\r\n    function getIdFromCNPJ(uint64 cnpj) public view override returns (uint) {\r\n        uint rbbId = getIdFromCNPJRaw(cnpj);\r\n        require ( isRegistryOperational( rbbId ) , \"A organizao no est operacional\" );\r\n        return rbbId;\r\n    }\r\n\r\n    function getIdFromCNPJRaw(uint64 cnpj) public view override returns (uint) {\r\n        return CNPJ_RBBId[cnpj];\r\n    }\r\n\r\n    function getCNPJbyID(uint Id) public view override returns (uint64 ) {\r\n        require ( isRegistryOperational( Id ) , \"A organizao no est operacional\" );\r\n        return getCNPJbyIDRaw(Id);\r\n    }\r\n\r\n    function getCNPJbyIDRaw(uint Id) public view override returns (uint64 ) {\r\n        address addr = RBBId_addresses[Id][0];\r\n        return legalEntitiesInfo[addr].CNPJ;\r\n    }\r\n\r\n    function getCNPJ (address addr) public view returns (uint64) {\r\n        getId(addr); //just check if it is operational\r\n        return getCNPJRaw(addr);\r\n    }\r\n\r\n    function getCNPJRaw (address addr) public view returns (uint64) {\r\n        return legalEntitiesInfo[addr].CNPJ;\r\n    }\r\n\r\n    function getRegistry (address addr) public view override returns (uint, uint64, string memory, uint, uint, bool, uint256) {\r\n        Registry memory reg = legalEntitiesInfo[addr];\r\n        string memory proof = reg.hashProof;\r\n        return (  reg.RBBId,\r\n                  reg.CNPJ, \r\n                  proof, \r\n                  (uint) (reg.state),\r\n                  (uint) (reg.role),\r\n                  reg.paused,\r\n                  reg.dateTimeExpiration\r\n                );\r\n    }\r\n\r\n\r\n    function getBlockchainAccounts(uint RBBId) public view returns (address[] memory) {\r\n        return RBBId_addresses[RBBId];\r\n    }\r\n\r\n    function getAccountState(address addr) public view returns (int) {\r\n        return ((int) (legalEntitiesInfo[addr].state));\r\n    }\r\n\r\n    function getAccountRole(address addr) public view returns (int) {\r\n        return ((int) (legalEntitiesInfo[addr].role));\r\n    }\r\n\r\n    function isExpired (address addr) public view returns (bool) {\r\n        return (legalEntitiesInfo[addr].dateTimeExpiration < now);\r\n    }\r\n\r\n    function isOwner(address addr) public view returns (bool) {\r\n        return owner()==addr;\r\n    }\r\n\r\n    function isAvailableAccount(address addr) public view returns (bool) {\r\n        return legalEntitiesInfo[addr].state == BlockchainAccountState.AVAILABLE;\r\n    }\r\n\r\n    function isWaitingAccount(address addr) public view returns (bool) {\r\n        return legalEntitiesInfo[addr].state == BlockchainAccountState.WAITING_VALIDATION\r\n            || legalEntitiesInfo[addr].state == BlockchainAccountState.WAITING_APPROVAL\r\n            || legalEntitiesInfo[addr].state == BlockchainAccountState.WAITING_REJECTION ;\r\n    }\r\n\r\n    function isValidatedAccount(address addr) public view returns (bool) {\r\n        return legalEntitiesInfo[addr].state == BlockchainAccountState.VALIDATED;\r\n    }\r\n\r\n    function isInvalidated(address addr) public view returns (bool) {\r\n        return legalEntitiesInfo[addr].state == BlockchainAccountState.INVALIDATED;\r\n    }\r\n\r\n    function isTheSameID(address a, address b) public view returns (bool) {\r\n        return legalEntitiesInfo[a].CNPJ == legalEntitiesInfo[b].CNPJ ;\r\n    }\r\n\r\n    function isPaused(address addr) public view returns (bool) {\r\n        return legalEntitiesInfo[addr].paused;\r\n    }\r\n\r\n    function isAdmin(address addr) public view returns (bool) { \r\n        return legalEntitiesInfo[addr].role == BlockchainAccountRole.ADMIN;\r\n    }\r\n\r\n\r\n \r\n\r\n\r\n}\r\n",
  "sourcePath": "C:/git/rbb-identificacao/Back-Blockchain/contracts/RBBRegistry.sol",
  "compiler": {
    "name": "solc",
    "version": "0.6.12+commit.27d51765.Emscripten.clang"
  },
  "schemaVersion": "3.3.3",
  "updatedAt": "2021-03-23T19:50:49.130Z",
  "networkType": "ethereum",
  "devdoc": {
    "kind": "dev",
    "methods": {
      "invalidateAddressSameOrg(address)": {
        "params": {
          "addr": "Ethereum address that needs to be invalidated"
        }
      },
      "owner()": {
        "details": "Returns the address of the current owner."
      },
      "pauseAddressSameOrg(address)": {
        "params": {
          "addr": "Ethereum address that needs to be paused"
        }
      },
      "preValidateRegistry(address,bool)": {
        "params": {
          "userAddr": "Ethereum address that needs to be validated"
        }
      },
      "registryLegalEntity(uint64,string)": {
        "params": {
          "CNPJ": "Brazilian identifier to legal entities",
          "proofHash": "The legal entities have to send BNDES a PDF where it assumes as responsible for an Ethereum account.                   This PDF is signed with eCNPJ and send to BNDES."
        }
      },
      "renounceOwnership()": {
        "details": "Leaves the contract without owner. It will not be possible to call `onlyOwner` functions anymore. Can only be called by the current owner. NOTE: Renouncing ownership will leave the contract without an owner, thereby removing any functionality that is only available to the owner."
      },
      "setDefaultDeltaDateTimeExpiration(uint256)": {
        "params": {
          "deltaDateTimeExpirationNew": "the new default expiration time "
        }
      },
      "transferOwnership(address)": {
        "details": "Transfers ownership of the contract to a new account (`newOwner`). Can only be called by the current owner."
      },
      "unpauseAddressSameOrg(address)": {
        "params": {
          "addr": "Ethereum address that needs to be validated"
        }
      },
      "validateRegistry(address)": {
        "params": {
          "userAddr": "Ethereum address that needs to be validated"
        }
      },
      "validateRegistrySameOrg(address)": {
        "params": {
          "userAddr": "Ethereum address that needs to be validated"
        }
      }
    },
    "version": 1
  },
  "userdoc": {
    "kind": "user",
    "methods": {
      "CNPJ_RBBId(uint64)": {
        "notice": "Links CNPJ to its RBBID"
      },
      "RBBId_addresses(uint256,uint256)": {
        "notice": "Links RBBID to Ethereum addresses."
      },
      "invalidateAddressSameOrg(address)": {
        "notice": "Invalidates the initial registry of a legal entity or the change of its registry"
      },
      "legalEntitiesInfo(address)": {
        "notice": "Links Ethereum addresses to Registry"
      },
      "pauseAddressSameOrg(address)": {
        "notice": "Pause an account     "
      },
      "preValidateRegistry(address,bool)": {
        "notice": "Validates the initial registry of others LegalEntities"
      },
      "registryLegalEntity(uint64,string)": {
        "notice": "Self Registering Link blockchain address with CNPJ"
      },
      "setDefaultDeltaDateTimeExpiration(uint256)": {
        "notice": "The Owner can assign new default expiration time for future registries"
      },
      "unpauseAddressSameOrg(address)": {
        "notice": "Unpause an account     "
      },
      "validateRegistry(address)": {
        "notice": "Validates the initial registry of others LegalEntities"
      },
      "validateRegistrySameOrg(address)": {
        "notice": "Validates the initial registry of your own LegalEntity"
      }
    },
    "version": 1
  }
}