{
  "contractName": "RBBRegistry",
  "abi": [
    {
      "inputs": [
        {
          "internalType": "uint256",
          "name": "CNPJSUPADMIN",
          "type": "uint256"
        },
        {
          "internalType": "string",
          "name": "proofHashSUPADMIN",
          "type": "string"
        },
        {
          "internalType": "uint256",
          "name": "daysToExpire",
          "type": "uint256"
        }
      ],
      "stateMutability": "nonpayable",
      "type": "constructor"
    },
    {
      "anonymous": false,
      "inputs": [
        {
          "indexed": false,
          "internalType": "address",
          "name": "addr",
          "type": "address"
        },
        {
          "indexed": false,
          "internalType": "uint256",
          "name": "RBBId",
          "type": "uint256"
        },
        {
          "indexed": false,
          "internalType": "uint256",
          "name": "CNPJ",
          "type": "uint256"
        },
        {
          "indexed": false,
          "internalType": "address",
          "name": "responsible",
          "type": "address"
        }
      ],
      "name": "AccountInvalidation",
      "type": "event"
    },
    {
      "anonymous": false,
      "inputs": [
        {
          "indexed": false,
          "internalType": "address",
          "name": "addr",
          "type": "address"
        },
        {
          "indexed": false,
          "internalType": "uint256",
          "name": "RBBId",
          "type": "uint256"
        },
        {
          "indexed": false,
          "internalType": "uint256",
          "name": "CNPJ",
          "type": "uint256"
        },
        {
          "indexed": false,
          "internalType": "address",
          "name": "responsible",
          "type": "address"
        }
      ],
      "name": "AccountPaused",
      "type": "event"
    },
    {
      "anonymous": false,
      "inputs": [
        {
          "indexed": false,
          "internalType": "address",
          "name": "addr",
          "type": "address"
        },
        {
          "indexed": false,
          "internalType": "uint256",
          "name": "RBBId",
          "type": "uint256"
        },
        {
          "indexed": false,
          "internalType": "uint256",
          "name": "CNPJ",
          "type": "uint256"
        },
        {
          "indexed": false,
          "internalType": "bytes32",
          "name": "hashProof",
          "type": "bytes32"
        },
        {
          "indexed": false,
          "internalType": "uint256",
          "name": "dateTimeExpiration",
          "type": "uint256"
        }
      ],
      "name": "AccountRegistration",
      "type": "event"
    },
    {
      "anonymous": false,
      "inputs": [
        {
          "indexed": false,
          "internalType": "address",
          "name": "addr",
          "type": "address"
        },
        {
          "indexed": false,
          "internalType": "uint256",
          "name": "RBBId",
          "type": "uint256"
        },
        {
          "indexed": false,
          "internalType": "uint256",
          "name": "CNPJ",
          "type": "uint256"
        },
        {
          "indexed": false,
          "internalType": "address",
          "name": "responsible",
          "type": "address"
        },
        {
          "indexed": false,
          "internalType": "enum RBBRegistry.BlockchainAccountRole",
          "name": "roleBefore",
          "type": "uint8"
        },
        {
          "indexed": false,
          "internalType": "enum RBBRegistry.BlockchainAccountRole",
          "name": "roleNew",
          "type": "uint8"
        }
      ],
      "name": "AccountRoleChange",
      "type": "event"
    },
    {
      "anonymous": false,
      "inputs": [
        {
          "indexed": false,
          "internalType": "address",
          "name": "addr",
          "type": "address"
        },
        {
          "indexed": false,
          "internalType": "uint256",
          "name": "RBBId",
          "type": "uint256"
        },
        {
          "indexed": false,
          "internalType": "uint256",
          "name": "CNPJ",
          "type": "uint256"
        },
        {
          "indexed": false,
          "internalType": "address",
          "name": "responsible",
          "type": "address"
        }
      ],
      "name": "AccountUnpaused",
      "type": "event"
    },
    {
      "anonymous": false,
      "inputs": [
        {
          "indexed": false,
          "internalType": "address",
          "name": "addr",
          "type": "address"
        },
        {
          "indexed": false,
          "internalType": "uint256",
          "name": "RBBId",
          "type": "uint256"
        },
        {
          "indexed": false,
          "internalType": "uint256",
          "name": "CNPJ",
          "type": "uint256"
        },
        {
          "indexed": false,
          "internalType": "address",
          "name": "responsible",
          "type": "address"
        }
      ],
      "name": "AccountValidation",
      "type": "event"
    },
    {
      "anonymous": false,
      "inputs": [
        {
          "indexed": true,
          "internalType": "address",
          "name": "previousOwner",
          "type": "address"
        },
        {
          "indexed": true,
          "internalType": "address",
          "name": "newOwner",
          "type": "address"
        }
      ],
      "name": "OwnershipTransferred",
      "type": "event"
    },
    {
      "anonymous": false,
      "inputs": [
        {
          "indexed": false,
          "internalType": "address",
          "name": "addr",
          "type": "address"
        },
        {
          "indexed": false,
          "internalType": "uint256",
          "name": "dateTimeExpirationBefore",
          "type": "uint256"
        },
        {
          "indexed": false,
          "internalType": "uint256",
          "name": "dateTimeExpirationNew",
          "type": "uint256"
        }
      ],
      "name": "RegistryExpirationChange",
      "type": "event"
    },
    {
      "inputs": [
        {
          "internalType": "uint256",
          "name": "",
          "type": "uint256"
        }
      ],
      "name": "CNPJ_RBBId",
      "outputs": [
        {
          "internalType": "uint256",
          "name": "",
          "type": "uint256"
        }
      ],
      "stateMutability": "view",
      "type": "function",
      "constant": true
    },
    {
      "inputs": [
        {
          "internalType": "uint256",
          "name": "",
          "type": "uint256"
        },
        {
          "internalType": "uint256",
          "name": "",
          "type": "uint256"
        }
      ],
      "name": "RBBId_addresses",
      "outputs": [
        {
          "internalType": "address",
          "name": "",
          "type": "address"
        }
      ],
      "stateMutability": "view",
      "type": "function",
      "constant": true
    },
    {
      "inputs": [],
      "name": "currentRBBId",
      "outputs": [
        {
          "internalType": "uint256",
          "name": "",
          "type": "uint256"
        }
      ],
      "stateMutability": "view",
      "type": "function",
      "constant": true
    },
    {
      "inputs": [],
      "name": "defaultDateTimeExpiration",
      "outputs": [
        {
          "internalType": "uint256",
          "name": "",
          "type": "uint256"
        }
      ],
      "stateMutability": "view",
      "type": "function",
      "constant": true
    },
    {
      "inputs": [
        {
          "internalType": "address",
          "name": "",
          "type": "address"
        }
      ],
      "name": "legalEntitiesInfo",
      "outputs": [
        {
          "internalType": "uint256",
          "name": "RBBId",
          "type": "uint256"
        },
        {
          "internalType": "uint256",
          "name": "CNPJ",
          "type": "uint256"
        },
        {
          "internalType": "bytes32",
          "name": "hashProof",
          "type": "bytes32"
        },
        {
          "internalType": "enum RBBRegistry.BlockchainAccountState",
          "name": "state",
          "type": "uint8"
        },
        {
          "internalType": "enum RBBRegistry.BlockchainAccountRole",
          "name": "role",
          "type": "uint8"
        },
        {
          "internalType": "bool",
          "name": "paused",
          "type": "bool"
        },
        {
          "internalType": "uint256",
          "name": "dateTimeExpiration",
          "type": "uint256"
        }
      ],
      "stateMutability": "view",
      "type": "function",
      "constant": true
    },
    {
      "inputs": [],
      "name": "owner",
      "outputs": [
        {
          "internalType": "address",
          "name": "",
          "type": "address"
        }
      ],
      "stateMutability": "view",
      "type": "function",
      "constant": true
    },
    {
      "inputs": [],
      "name": "renounceOwnership",
      "outputs": [],
      "stateMutability": "nonpayable",
      "type": "function"
    },
    {
      "inputs": [
        {
          "internalType": "address",
          "name": "newOwner",
          "type": "address"
        }
      ],
      "name": "transferOwnership",
      "outputs": [],
      "stateMutability": "nonpayable",
      "type": "function"
    },
    {
      "inputs": [
        {
          "internalType": "uint256",
          "name": "CNPJ",
          "type": "uint256"
        },
        {
          "internalType": "bytes32",
          "name": "CNPJProofHash",
          "type": "bytes32"
        }
      ],
      "name": "registryLegalEntity",
      "outputs": [],
      "stateMutability": "nonpayable",
      "type": "function"
    },
    {
      "inputs": [
        {
          "internalType": "address",
          "name": "userAddr",
          "type": "address"
        }
      ],
      "name": "validateRegistrySameOrg",
      "outputs": [],
      "stateMutability": "nonpayable",
      "type": "function"
    },
    {
      "inputs": [
        {
          "internalType": "address",
          "name": "userAddr",
          "type": "address"
        }
      ],
      "name": "validateRegistry",
      "outputs": [],
      "stateMutability": "nonpayable",
      "type": "function"
    },
    {
      "inputs": [
        {
          "internalType": "address",
          "name": "addr",
          "type": "address"
        }
      ],
      "name": "pauseAddress",
      "outputs": [],
      "stateMutability": "nonpayable",
      "type": "function"
    },
    {
      "inputs": [
        {
          "internalType": "uint256",
          "name": "RBBId",
          "type": "uint256"
        }
      ],
      "name": "pauseLegalEntity",
      "outputs": [],
      "stateMutability": "nonpayable",
      "type": "function"
    },
    {
      "inputs": [
        {
          "internalType": "address",
          "name": "addr",
          "type": "address"
        }
      ],
      "name": "unpauseAddress",
      "outputs": [],
      "stateMutability": "nonpayable",
      "type": "function"
    },
    {
      "inputs": [
        {
          "internalType": "address",
          "name": "addr",
          "type": "address"
        }
      ],
      "name": "invalidateRegistrySameOrg",
      "outputs": [],
      "stateMutability": "nonpayable",
      "type": "function"
    },
    {
      "inputs": [
        {
          "internalType": "address",
          "name": "addr",
          "type": "address"
        }
      ],
      "name": "invalidateRegistry",
      "outputs": [],
      "stateMutability": "nonpayable",
      "type": "function"
    },
    {
      "inputs": [
        {
          "internalType": "address",
          "name": "addr",
          "type": "address"
        }
      ],
      "name": "isSortOfAdmin",
      "outputs": [
        {
          "internalType": "bool",
          "name": "",
          "type": "bool"
        }
      ],
      "stateMutability": "view",
      "type": "function",
      "constant": true
    },
    {
      "inputs": [
        {
          "internalType": "address",
          "name": "addr",
          "type": "address"
        }
      ],
      "name": "isOwner",
      "outputs": [
        {
          "internalType": "bool",
          "name": "",
          "type": "bool"
        }
      ],
      "stateMutability": "view",
      "type": "function",
      "constant": true
    },
    {
      "inputs": [
        {
          "internalType": "address",
          "name": "addr",
          "type": "address"
        }
      ],
      "name": "isAvailableAccount",
      "outputs": [
        {
          "internalType": "bool",
          "name": "",
          "type": "bool"
        }
      ],
      "stateMutability": "view",
      "type": "function",
      "constant": true
    },
    {
      "inputs": [
        {
          "internalType": "address",
          "name": "addr",
          "type": "address"
        }
      ],
      "name": "isWaitingValidationAccount",
      "outputs": [
        {
          "internalType": "bool",
          "name": "",
          "type": "bool"
        }
      ],
      "stateMutability": "view",
      "type": "function",
      "constant": true
    },
    {
      "inputs": [
        {
          "internalType": "address",
          "name": "addr",
          "type": "address"
        }
      ],
      "name": "isValidatedAccount",
      "outputs": [
        {
          "internalType": "bool",
          "name": "",
          "type": "bool"
        }
      ],
      "stateMutability": "view",
      "type": "function",
      "constant": true
    },
    {
      "inputs": [
        {
          "internalType": "address",
          "name": "addr",
          "type": "address"
        }
      ],
      "name": "isInvalidated",
      "outputs": [
        {
          "internalType": "bool",
          "name": "",
          "type": "bool"
        }
      ],
      "stateMutability": "view",
      "type": "function",
      "constant": true
    },
    {
      "inputs": [
        {
          "internalType": "address",
          "name": "a",
          "type": "address"
        },
        {
          "internalType": "address",
          "name": "b",
          "type": "address"
        }
      ],
      "name": "isTheSameID",
      "outputs": [
        {
          "internalType": "bool",
          "name": "",
          "type": "bool"
        }
      ],
      "stateMutability": "view",
      "type": "function",
      "constant": true
    },
    {
      "inputs": [
        {
          "internalType": "address",
          "name": "addr",
          "type": "address"
        }
      ],
      "name": "isPaused",
      "outputs": [
        {
          "internalType": "bool",
          "name": "",
          "type": "bool"
        }
      ],
      "stateMutability": "view",
      "type": "function",
      "constant": true
    },
    {
      "inputs": [
        {
          "internalType": "address",
          "name": "addr",
          "type": "address"
        }
      ],
      "name": "isOperational",
      "outputs": [
        {
          "internalType": "bool",
          "name": "",
          "type": "bool"
        }
      ],
      "stateMutability": "view",
      "type": "function",
      "constant": true
    },
    {
      "inputs": [
        {
          "internalType": "uint256",
          "name": "RBBId",
          "type": "uint256"
        }
      ],
      "name": "isRegistryOperational",
      "outputs": [
        {
          "internalType": "bool",
          "name": "",
          "type": "bool"
        }
      ],
      "stateMutability": "view",
      "type": "function",
      "constant": true
    },
    {
      "inputs": [
        {
          "internalType": "address",
          "name": "addr",
          "type": "address"
        }
      ],
      "name": "getId",
      "outputs": [
        {
          "internalType": "uint256",
          "name": "",
          "type": "uint256"
        }
      ],
      "stateMutability": "view",
      "type": "function",
      "constant": true
    },
    {
      "inputs": [
        {
          "internalType": "address",
          "name": "addr",
          "type": "address"
        }
      ],
      "name": "getRBBIdRaw",
      "outputs": [
        {
          "internalType": "uint256",
          "name": "",
          "type": "uint256"
        }
      ],
      "stateMutability": "view",
      "type": "function",
      "constant": true
    },
    {
      "inputs": [
        {
          "internalType": "address",
          "name": "addr",
          "type": "address"
        }
      ],
      "name": "getCNPJ",
      "outputs": [
        {
          "internalType": "uint256",
          "name": "",
          "type": "uint256"
        }
      ],
      "stateMutability": "view",
      "type": "function",
      "constant": true
    },
    {
      "inputs": [
        {
          "internalType": "address",
          "name": "addr",
          "type": "address"
        }
      ],
      "name": "getRegistry",
      "outputs": [
        {
          "internalType": "uint256",
          "name": "",
          "type": "uint256"
        },
        {
          "internalType": "uint256",
          "name": "",
          "type": "uint256"
        },
        {
          "internalType": "bytes32",
          "name": "",
          "type": "bytes32"
        },
        {
          "internalType": "uint256",
          "name": "",
          "type": "uint256"
        },
        {
          "internalType": "uint256",
          "name": "",
          "type": "uint256"
        },
        {
          "internalType": "bool",
          "name": "",
          "type": "bool"
        },
        {
          "internalType": "uint256",
          "name": "",
          "type": "uint256"
        }
      ],
      "stateMutability": "view",
      "type": "function",
      "constant": true
    },
    {
      "inputs": [
        {
          "internalType": "uint256",
          "name": "RBBId",
          "type": "uint256"
        }
      ],
      "name": "getBlockchainAccounts",
      "outputs": [
        {
          "internalType": "address[]",
          "name": "",
          "type": "address[]"
        }
      ],
      "stateMutability": "view",
      "type": "function",
      "constant": true
    },
    {
      "inputs": [
        {
          "internalType": "address",
          "name": "addr",
          "type": "address"
        }
      ],
      "name": "getAccountState",
      "outputs": [
        {
          "internalType": "int256",
          "name": "",
          "type": "int256"
        }
      ],
      "stateMutability": "view",
      "type": "function",
      "constant": true
    },
    {
      "inputs": [
        {
          "internalType": "address",
          "name": "addr",
          "type": "address"
        }
      ],
      "name": "getAccountRole",
      "outputs": [
        {
          "internalType": "int256",
          "name": "",
          "type": "int256"
        }
      ],
      "stateMutability": "view",
      "type": "function",
      "constant": true
    },
    {
      "inputs": [
        {
          "internalType": "uint256",
          "name": "cnpj",
          "type": "uint256"
        }
      ],
      "name": "getIdFromCNPJ",
      "outputs": [
        {
          "internalType": "uint256",
          "name": "",
          "type": "uint256"
        }
      ],
      "stateMutability": "view",
      "type": "function",
      "constant": true
    },
    {
      "inputs": [
        {
          "internalType": "address",
          "name": "addr",
          "type": "address"
        }
      ],
      "name": "setRoleSupAdmin",
      "outputs": [],
      "stateMutability": "nonpayable",
      "type": "function"
    },
    {
      "inputs": [
        {
          "internalType": "uint256",
          "name": "dateTimeExpirationNew",
          "type": "uint256"
        }
      ],
      "name": "setDefaultDateTimeExpiration",
      "outputs": [],
      "stateMutability": "nonpayable",
      "type": "function"
    }
  ],
  "bytecode": "0x608060405260006001556301e133806002553480156200001e57600080fd5b506040516200534038038062005340833981810160405260608110156200004457600080fd5b8101908080519060200190929190805160405193929190846401000000008211156200006f57600080fd5b838201915060208201858111156200008657600080fd5b8251866001820283011164010000000082111715620000a457600080fd5b8083526020830192505050908051906020019080838360005b83811015620000da578082015181840152602081019050620000bd565b50505050905090810190601f168015620001085780820380516001836020036101000a031916815260200191505b506040526020018051906020019092919050505060006200012e6200050660201b60201c565b9050806000806101000a81548173ffffffffffffffffffffffffffffffffffffffff021916908373ffffffffffffffffffffffffffffffffffffffff1602179055508073ffffffffffffffffffffffffffffffffffffffff16600073ffffffffffffffffffffffffffffffffffffffff167f8be0079c531659141344cd1fd0a4f28419497f9722a3daafe3b4186f6b6457e060405160405180910390a3506000339050600073__RBBLib________________________________63592c80ee856040518263ffffffff1660e01b81526004018080602001828103825283818151815260200191508051906020019080838360005b838110156200023f57808201518184015260208101905062000222565b50505050905090810190601f1680156200026d5780820380516001836020036101000a031916815260200191505b509250505060206040518083038186803b1580156200028b57600080fd5b505af4158015620002a0573d6000803e3d6000fd5b505050506040513d6020811015620002b757600080fd5b810190808051906020019092919050505090506000620151808402420190506000620002e9876200050e60201b60201c565b90506040518060e00160405280828152602001888152602001848152602001600260038111156200031657fe5b81526020016002808111156200032857fe5b815260200160001515815260200183815250600360008673ffffffffffffffffffffffffffffffffffffffff1673ffffffffffffffffffffffffffffffffffffffff16815260200190815260200160002060008201518160000155602082015181600101556040820151816002015560608201518160030160006101000a81548160ff02191690836003811115620003bc57fe5b021790555060808201518160030160016101000a81548160ff02191690836002811115620003e657fe5b021790555060a08201518160030160026101000a81548160ff02191690831515021790555060c0820151816004015590505060046000828152602001908152602001600020849080600181540180825580915050600190039060005260206000200160009091909190916101000a81548173ffffffffffffffffffffffffffffffffffffffff021916908373ffffffffffffffffffffffffffffffffffffffff1602179055507f4aa43cf10b603c9a80bec1e701073c460c5378a975e89e185c0bb22ac75e77378482898686604051808673ffffffffffffffffffffffffffffffffffffffff1681526020018581526020018481526020018381526020018281526020019550505050505060405180910390a1505050505050506200056e565b600033905090565b60008060056000848152602001908152602001600020541415620005535760016000815460010191905081905560056000848152602001908152602001600020819055505b60056000838152602001908152602001600020549050919050565b614dc2806200057e6000396000f3fe608060405234801561001057600080fd5b506004361061021c5760003560e01c80637bf0bca611610125578063bb393086116100ad578063e7e4fec81161007c578063e7e4fec814610bc4578063f2fde38b14610bf2578063f582202714610c36578063f818f70f14610c7a578063f971d77c14610c985761021c565b8063bb39308614610a90578063be49b78d14610b0a578063c616f4c014610b62578063caa7922c14610b805761021c565b80638e97637e116100f45780638e97637e146108c85780639ee2735b14610922578063a3d884531461097a578063b6fc41fa146109d4578063b8e175b114610a365761021c565b80637bf0bca6146107ca57806381d66b231461080e5780638c879eb1146108665780638da5cb5b146108945761021c565b80634646a0c0116101a857806365f68c891161017757806365f68c891461069e57806367b03549146106f65780636d5686711461073a578063715018a61461077c57806377df472c146107865761021c565b80634646a0c01461056e5780634f16ce0c146105a65780635b14f183146105ea5780636426a116146106445761021c565b80632dc913a6116101ef5780632dc913a6146103dc5780632f54bf6e1461041e57806331cc10ce1461047857806339b38939146104d0578063457385f2146105145761021c565b8063087d4427146102215780630bf20e01146102655780630c4471bd146102e857806326ff479414610342575b600080fd5b61024d6004803603602081101561023757600080fd5b8101908080359060200190929190505050610d1c565b60405180821515815260200191505060405180910390f35b6102916004803603602081101561027b57600080fd5b8101908080359060200190929190505050610e2b565b6040518080602001828103825283818151815260200191508051906020019060200280838360005b838110156102d45780820151818401526020810190506102b9565b505050509050019250505060405180910390f35b61032a600480360360208110156102fe57600080fd5b81019080803573ffffffffffffffffffffffffffffffffffffffff169060200190929190505050610ecc565b60405180821515815260200191505060405180910390f35b6103846004803603602081101561035857600080fd5b81019080803573ffffffffffffffffffffffffffffffffffffffff169060200190929190505050610f3e565b604051808881526020018781526020018681526020018560038111156103a657fe5b81526020018460028111156103b757fe5b8152602001831515815260200182815260200197505050505050505060405180910390f35b610408600480360360208110156103f257600080fd5b8101908080359060200190929190505050610fa7565b6040518082815260200191505060405180910390f35b6104606004803603602081101561043457600080fd5b81019080803573ffffffffffffffffffffffffffffffffffffffff169060200190929190505050610fbf565b60405180821515815260200191505060405180910390f35b6104ba6004803603602081101561048e57600080fd5b81019080803573ffffffffffffffffffffffffffffffffffffffff169060200190929190505050610ffe565b6040518082815260200191505060405180910390f35b610512600480360360208110156104e657600080fd5b81019080803573ffffffffffffffffffffffffffffffffffffffff16906020019092919050505061104a565b005b6105566004803603602081101561052a57600080fd5b81019080803573ffffffffffffffffffffffffffffffffffffffff1690602001909291905050506113a8565b60405180821515815260200191505060405180910390f35b6105a46004803603604081101561058457600080fd5b8101908080359060200190929190803590602001909291905050506113cc565b005b6105e8600480360360208110156105bc57600080fd5b81019080803573ffffffffffffffffffffffffffffffffffffffff169060200190929190505050611798565b005b61062c6004803603602081101561060057600080fd5b81019080803573ffffffffffffffffffffffffffffffffffffffff169060200190929190505050611d62565b60405180821515815260200191505060405180910390f35b6106866004803603602081101561065a57600080fd5b81019080803573ffffffffffffffffffffffffffffffffffffffff169060200190929190505050611dbb565b60405180821515815260200191505060405180910390f35b6106e0600480360360208110156106b457600080fd5b81019080803573ffffffffffffffffffffffffffffffffffffffff169060200190929190505050611e2d565b6040518082815260200191505060405180910390f35b6107386004803603602081101561070c57600080fd5b81019080803573ffffffffffffffffffffffffffffffffffffffff169060200190929190505050611ea2565b005b6107666004803603602081101561075057600080fd5b8101908080359060200190929190505050612386565b6040518082815260200191505060405180910390f35b6107846123a3565b005b6107c86004803603602081101561079c57600080fd5b81019080803573ffffffffffffffffffffffffffffffffffffffff169060200190929190505050612529565b005b61080c600480360360208110156107e057600080fd5b81019080803573ffffffffffffffffffffffffffffffffffffffff1690602001909291905050506129da565b005b6108506004803603602081101561082457600080fd5b81019080803573ffffffffffffffffffffffffffffffffffffffff169060200190929190505050612f1e565b6040518082815260200191505060405180910390f35b6108926004803603602081101561087c57600080fd5b8101908080359060200190929190505050612f82565b005b61089c613468565b604051808273ffffffffffffffffffffffffffffffffffffffff16815260200191505060405180910390f35b61090a600480360360208110156108de57600080fd5b81019080803573ffffffffffffffffffffffffffffffffffffffff169060200190929190505050613491565b60405180821515815260200191505060405180910390f35b6109646004803603602081101561093857600080fd5b81019080803573ffffffffffffffffffffffffffffffffffffffff169060200190929190505050613502565b6040518082815260200191505060405180910390f35b6109bc6004803603602081101561099057600080fd5b81019080803573ffffffffffffffffffffffffffffffffffffffff169060200190929190505050613566565b60405180821515815260200191505060405180910390f35b610a0a600480360360408110156109ea57600080fd5b8101908080359060200190929190803590602001909291905050506135d7565b604051808273ffffffffffffffffffffffffffffffffffffffff16815260200191505060405180910390f35b610a7860048036036020811015610a4c57600080fd5b81019080803573ffffffffffffffffffffffffffffffffffffffff169060200190929190505050613622565b60405180821515815260200191505060405180910390f35b610af260048036036040811015610aa657600080fd5b81019080803573ffffffffffffffffffffffffffffffffffffffff169060200190929190803573ffffffffffffffffffffffffffffffffffffffff169060200190929190505050613703565b60405180821515815260200191505060405180910390f35b610b4c60048036036020811015610b2057600080fd5b81019080803573ffffffffffffffffffffffffffffffffffffffff169060200190929190505050613794565b6040518082815260200191505060405180910390f35b610b6a6137e0565b6040518082815260200191505060405180910390f35b610bc260048036036020811015610b9657600080fd5b81019080803573ffffffffffffffffffffffffffffffffffffffff1690602001909291905050506137e6565b005b610bf060048036036020811015610bda57600080fd5b8101908080359060200190929190505050613ccb565b005b610c3460048036036020811015610c0857600080fd5b81019080803573ffffffffffffffffffffffffffffffffffffffff169060200190929190505050613df9565b005b610c7860048036036020811015610c4c57600080fd5b81019080803573ffffffffffffffffffffffffffffffffffffffff169060200190929190505050614004565b005b610c826144fd565b6040518082815260200191505060405180910390f35b610cda60048036036020811015610cae57600080fd5b81019080803573ffffffffffffffffffffffffffffffffffffffff169060200190929190505050614503565b60405180888152602001878152602001868152602001858152602001848152602001831515815260200182815260200197505050505050505060405180910390f35b6000606060046000848152602001908152602001600020805480602002602001604051908101604052809291908181526020018280548015610db357602002820191906000526020600020905b8160009054906101000a900473ffffffffffffffffffffffffffffffffffffffff1673ffffffffffffffffffffffffffffffffffffffff1681526020019060010190808311610d69575b5050505050905060005b8151811015610e2357610de2828281518110610dd557fe5b60200260200101516113a8565b8015610e065750610e05828281518110610df857fe5b6020026020010151613622565b5b15610e1657600192505050610e26565b8080600101915050610dbd565b50505b919050565b606060046000838152602001908152602001600020805480602002602001604051908101604052809291908181526020018280548015610ec057602002820191906000526020600020905b8160009054906101000a900473ffffffffffffffffffffffffffffffffffffffff1673ffffffffffffffffffffffffffffffffffffffff1681526020019060010190808311610e76575b50505050509050919050565b600060016003811115610edb57fe5b600360008473ffffffffffffffffffffffffffffffffffffffff1673ffffffffffffffffffffffffffffffffffffffff16815260200190815260200160002060030160009054906101000a900460ff166003811115610f3657fe5b149050919050565b60036020528060005260406000206000915090508060000154908060010154908060020154908060030160009054906101000a900460ff16908060030160019054906101000a900460ff16908060030160029054906101000a900460ff16908060040154905087565b60056020528060005260406000206000915090505481565b60008173ffffffffffffffffffffffffffffffffffffffff16610fe0613468565b73ffffffffffffffffffffffffffffffffffffffff16149050919050565b6000600360008373ffffffffffffffffffffffffffffffffffffffff1673ffffffffffffffffffffffffffffffffffffffff168152602001908152602001600020600001549050919050565b611052614652565b73ffffffffffffffffffffffffffffffffffffffff1660008054906101000a900473ffffffffffffffffffffffffffffffffffffffff1673ffffffffffffffffffffffffffffffffffffffff1614611112576040517f08c379a00000000000000000000000000000000000000000000000000000000081526004018080602001828103825260208152602001807f4f776e61626c653a2063616c6c6572206973206e6f7420746865206f776e657281525060200191505060405180910390fd5b61112361111d613468565b82613703565b611178576040517f08c379a00000000000000000000000000000000000000000000000000000000081526004018080602001828103825260488152602001806149146048913960600191505060405180910390fd5b6000600360008373ffffffffffffffffffffffffffffffffffffffff1673ffffffffffffffffffffffffffffffffffffffff16815260200190815260200160002060030160019054906101000a900460ff1690506002600360008473ffffffffffffffffffffffffffffffffffffffff1673ffffffffffffffffffffffffffffffffffffffff16815260200190815260200160002060030160016101000a81548160ff0219169083600281111561122b57fe5b02179055507f13382921d3a6e392cd7bac34288a59fabe1f26f801f24defc12dc8ee3c1fb34b82600360008573ffffffffffffffffffffffffffffffffffffffff1673ffffffffffffffffffffffffffffffffffffffff16815260200190815260200160002060000154600360008673ffffffffffffffffffffffffffffffffffffffff1673ffffffffffffffffffffffffffffffffffffffff168152602001908152602001600020600101543385600360008973ffffffffffffffffffffffffffffffffffffffff1673ffffffffffffffffffffffffffffffffffffffff16815260200190815260200160002060030160019054906101000a900460ff16604051808773ffffffffffffffffffffffffffffffffffffffff1681526020018681526020018581526020018473ffffffffffffffffffffffffffffffffffffffff16815260200183600281111561137e57fe5b815260200182600281111561138f57fe5b8152602001965050505050505060405180910390a15050565b60006113b382611dbb565b80156113c557506113c382611d62565b155b9050919050565b6000339050600082905060006002544201905060006113ea8661465a565b90506113f584613566565b61144a576040517f08c379a0000000000000000000000000000000000000000000000000000000008152600401808060200182810382526035815260200180614bbb6035913960400191505060405180910390fd5b6000801b831415611584576040518060e001604052808281526020018781526020018481526020016001600381111561147f57fe5b81526020016000600281111561149157fe5b815260200160001515815260200183815250600360008673ffffffffffffffffffffffffffffffffffffffff1673ffffffffffffffffffffffffffffffffffffffff16815260200190815260200160002060008201518160000155602082015181600101556040820151816002015560608201518160030160006101000a81548160ff0219169083600381111561152457fe5b021790555060808201518160030160016101000a81548160ff0219169083600281111561154d57fe5b021790555060a08201518160030160026101000a81548160ff02191690831515021790555060c082015181600401559050506116af565b6040518060e00160405280828152602001878152602001848152602001600160038111156115ae57fe5b8152602001600160028111156115c057fe5b815260200160001515815260200183815250600360008673ffffffffffffffffffffffffffffffffffffffff1673ffffffffffffffffffffffffffffffffffffffff16815260200190815260200160002060008201518160000155602082015181600101556040820151816002015560608201518160030160006101000a81548160ff0219169083600381111561165357fe5b021790555060808201518160030160016101000a81548160ff0219169083600281111561167c57fe5b021790555060a08201518160030160026101000a81548160ff02191690831515021790555060c082015181600401559050505b60046000828152602001908152602001600020849080600181540180825580915050600190039060005260206000200160009091909190916101000a81548173ffffffffffffffffffffffffffffffffffffffff021916908373ffffffffffffffffffffffffffffffffffffffff1602179055507f4aa43cf10b603c9a80bec1e701073c460c5378a975e89e185c0bb22ac75e77378482888686604051808673ffffffffffffffffffffffffffffffffffffffff1681526020018581526020018481526020018381526020018281526020019550505050505060405180910390a1505050505050565b600360003373ffffffffffffffffffffffffffffffffffffffff1673ffffffffffffffffffffffffffffffffffffffff16815260200190815260200160002060030160029054906101000a900460ff161561183e576040517f08c379a000000000000000000000000000000000000000000000000000000000815260040180806020018281038252602b815260200180614712602b913960400191505060405180910390fd5b42600360003373ffffffffffffffffffffffffffffffffffffffff1673ffffffffffffffffffffffffffffffffffffffff16815260200190815260200160002060040154116118d8576040517f08c379a0000000000000000000000000000000000000000000000000000000008152600401808060200182810382526047815260200180614bf06047913960600191505060405180910390fd5b60003390508173ffffffffffffffffffffffffffffffffffffffff168173ffffffffffffffffffffffffffffffffffffffff161415611962576040517f08c379a00000000000000000000000000000000000000000000000000000000081526004018080602001828103825260448152602001806147736044913960600191505060405180910390fd5b6001600281111561196f57fe5b600360008373ffffffffffffffffffffffffffffffffffffffff1673ffffffffffffffffffffffffffffffffffffffff16815260200190815260200160002060030160019054906101000a900460ff1660028111156119ca57fe5b14611a20576040517f08c379a0000000000000000000000000000000000000000000000000000000008152600401808060200182810382526036815260200180614c936036913960400191505060405180910390fd5b611a2a8183613703565b611a7f576040517f08c379a000000000000000000000000000000000000000000000000000000000815260040180806020018281038252604c815260200180614b45604c913960600191505060405180910390fd5b60006002811115611a8c57fe5b600360008473ffffffffffffffffffffffffffffffffffffffff1673ffffffffffffffffffffffffffffffffffffffff16815260200190815260200160002060030160019054906101000a900460ff166002811115611ae757fe5b14611b3d576040517f08c379a0000000000000000000000000000000000000000000000000000000008152600401808060200182810382526032815260200180614cc96032913960400191505060405180910390fd5b60016003811115611b4a57fe5b600360008473ffffffffffffffffffffffffffffffffffffffff1673ffffffffffffffffffffffffffffffffffffffff16815260200190815260200160002060030160009054906101000a900460ff166003811115611ba557fe5b14611bfb576040517f08c379a00000000000000000000000000000000000000000000000000000000081526004018080602001828103825260408152602001806149c16040913960400191505060405180910390fd5b6002600360008473ffffffffffffffffffffffffffffffffffffffff1673ffffffffffffffffffffffffffffffffffffffff16815260200190815260200160002060030160006101000a81548160ff02191690836003811115611c5a57fe5b02179055507f073fc7b5012ce389e8ee332d8cb39b41a44a08b42ee9260a78dd3a757a66c11182600360008573ffffffffffffffffffffffffffffffffffffffff1673ffffffffffffffffffffffffffffffffffffffff16815260200190815260200160002060000154600360008673ffffffffffffffffffffffffffffffffffffffff1673ffffffffffffffffffffffffffffffffffffffff1681526020019081526020016000206001015484604051808573ffffffffffffffffffffffffffffffffffffffff1681526020018481526020018381526020018273ffffffffffffffffffffffffffffffffffffffff16815260200194505050505060405180910390a15050565b6000600360008373ffffffffffffffffffffffffffffffffffffffff1673ffffffffffffffffffffffffffffffffffffffff16815260200190815260200160002060030160029054906101000a900460ff169050919050565b600060026003811115611dca57fe5b600360008473ffffffffffffffffffffffffffffffffffffffff1673ffffffffffffffffffffffffffffffffffffffff16815260200190815260200160002060030160009054906101000a900460ff166003811115611e2557fe5b149050919050565b600080611e3983610ffe565b9050611e4481610d1c565b611e99576040517f08c379a0000000000000000000000000000000000000000000000000000000008152600401808060200182810382526022815260200180614d6b6022913960400191505060405180910390fd5b80915050919050565b600360003373ffffffffffffffffffffffffffffffffffffffff1673ffffffffffffffffffffffffffffffffffffffff16815260200190815260200160002060030160029054906101000a900460ff1615611f48576040517f08c379a000000000000000000000000000000000000000000000000000000000815260040180806020018281038252602b815260200180614712602b913960400191505060405180910390fd5b42600360003373ffffffffffffffffffffffffffffffffffffffff1673ffffffffffffffffffffffffffffffffffffffff1681526020019081526020016000206004015411611fe2576040517f08c379a0000000000000000000000000000000000000000000000000000000008152600401808060200182810382526047815260200180614bf06047913960600191505060405180910390fd5b6000339050600280811115611ff357fe5b600360008373ffffffffffffffffffffffffffffffffffffffff1673ffffffffffffffffffffffffffffffffffffffff16815260200190815260200160002060030160019054906101000a900460ff16600281111561204e57fe5b146120a4576040517f08c379a00000000000000000000000000000000000000000000000000000000081526004018080602001828103825260288152602001806148886028913960400191505060405180910390fd5b6002808111156120b057fe5b600360008473ffffffffffffffffffffffffffffffffffffffff1673ffffffffffffffffffffffffffffffffffffffff16815260200190815260200160002060030160019054906101000a900460ff16600281111561210b57fe5b1415612162576040517f08c379a000000000000000000000000000000000000000000000000000000000815260040180806020018281038252602981526020018061485f6029913960400191505060405180910390fd5b60038081111561216e57fe5b600360008473ffffffffffffffffffffffffffffffffffffffff1673ffffffffffffffffffffffffffffffffffffffff16815260200190815260200160002060030160009054906101000a900460ff1660038111156121c957fe5b1415612220576040517f08c379a00000000000000000000000000000000000000000000000000000000081526004018080602001828103825260238152602001806148f16023913960400191505060405180910390fd5b60038060008473ffffffffffffffffffffffffffffffffffffffff1673ffffffffffffffffffffffffffffffffffffffff16815260200190815260200160002060030160006101000a81548160ff0219169083600381111561227e57fe5b02179055507fe54094ed206f2d050c7d5065f566c98e3c67d5f94c76971e8e73b392f8314ae282600360008573ffffffffffffffffffffffffffffffffffffffff1673ffffffffffffffffffffffffffffffffffffffff16815260200190815260200160002060000154600360008673ffffffffffffffffffffffffffffffffffffffff1673ffffffffffffffffffffffffffffffffffffffff1681526020019081526020016000206001015484604051808573ffffffffffffffffffffffffffffffffffffffff1681526020018481526020018381526020018273ffffffffffffffffffffffffffffffffffffffff16815260200194505050505060405180910390a15050565b600060056000838152602001908152602001600020549050919050565b6123ab614652565b73ffffffffffffffffffffffffffffffffffffffff1660008054906101000a900473ffffffffffffffffffffffffffffffffffffffff1673ffffffffffffffffffffffffffffffffffffffff161461246b576040517f08c379a00000000000000000000000000000000000000000000000000000000081526004018080602001828103825260208152602001807f4f776e61626c653a2063616c6c6572206973206e6f7420746865206f776e657281525060200191505060405180910390fd5b600073ffffffffffffffffffffffffffffffffffffffff1660008054906101000a900473ffffffffffffffffffffffffffffffffffffffff1673ffffffffffffffffffffffffffffffffffffffff167f8be0079c531659141344cd1fd0a4f28419497f9722a3daafe3b4186f6b6457e060405160405180910390a360008060006101000a81548173ffffffffffffffffffffffffffffffffffffffff021916908373ffffffffffffffffffffffffffffffffffffffff160217905550565b600360003373ffffffffffffffffffffffffffffffffffffffff1673ffffffffffffffffffffffffffffffffffffffff16815260200190815260200160002060030160029054906101000a900460ff16156125cf576040517f08c379a000000000000000000000000000000000000000000000000000000000815260040180806020018281038252602b815260200180614712602b913960400191505060405180910390fd5b60003390506002808111156125e057fe5b600360008473ffffffffffffffffffffffffffffffffffffffff1673ffffffffffffffffffffffffffffffffffffffff16815260200190815260200160002060030160019054906101000a900460ff16600281111561263b57fe5b1415612692576040517f08c379a0000000000000000000000000000000000000000000000000000000008152600401808060200182810382526026815260200180614a9f6026913960400191505060405180910390fd5b61269c8183613703565b8061270b57506002808111156126ae57fe5b600360008373ffffffffffffffffffffffffffffffffffffffff1673ffffffffffffffffffffffffffffffffffffffff16815260200190815260200160002060030160019054906101000a900460ff16600281111561270957fe5b145b612760576040517f08c379a0000000000000000000000000000000000000000000000000000000008152600401808060200182810382526055815260200180614a016055913960600191505060405180910390fd5b61276982611dbb565b6127be576040517f08c379a000000000000000000000000000000000000000000000000000000000815260040180806020018281038252602a815260200180614cfb602a913960400191505060405180910390fd5b600260038111156127cb57fe5b600360008373ffffffffffffffffffffffffffffffffffffffff1673ffffffffffffffffffffffffffffffffffffffff16815260200190815260200160002060030160009054906101000a900460ff16600381111561282657fe5b1461287c576040517f08c379a000000000000000000000000000000000000000000000000000000000815260040180806020018281038252602d815260200180614994602d913960400191505060405180910390fd5b6001600360008473ffffffffffffffffffffffffffffffffffffffff1673ffffffffffffffffffffffffffffffffffffffff16815260200190815260200160002060030160026101000a81548160ff0219169083151502179055507feab44e925fe37efdf7a6b9681f2daf982a47f4e64e2d592e8ee4309b986df6a782600360008573ffffffffffffffffffffffffffffffffffffffff1673ffffffffffffffffffffffffffffffffffffffff16815260200190815260200160002060000154600360008673ffffffffffffffffffffffffffffffffffffffff1673ffffffffffffffffffffffffffffffffffffffff1681526020019081526020016000206001015484604051808573ffffffffffffffffffffffffffffffffffffffff1681526020018481526020018381526020018273ffffffffffffffffffffffffffffffffffffffff16815260200194505050505060405180910390a15050565b600360003373ffffffffffffffffffffffffffffffffffffffff1673ffffffffffffffffffffffffffffffffffffffff16815260200190815260200160002060030160029054906101000a900460ff1615612a80576040517f08c379a000000000000000000000000000000000000000000000000000000000815260040180806020018281038252602b815260200180614712602b913960400191505060405180910390fd5b42600360003373ffffffffffffffffffffffffffffffffffffffff1673ffffffffffffffffffffffffffffffffffffffff1681526020019081526020016000206004015411612b1a576040517f08c379a0000000000000000000000000000000000000000000000000000000008152600401808060200182810382526047815260200180614bf06047913960600191505060405180910390fd5b600033905060016002811115612b2c57fe5b600360008373ffffffffffffffffffffffffffffffffffffffff1673ffffffffffffffffffffffffffffffffffffffff16815260200190815260200160002060030160019054906101000a900460ff166002811115612b8757fe5b14612bdd576040517f08c379a000000000000000000000000000000000000000000000000000000000815260040180806020018281038252602a815260200180614b91602a913960400191505060405180910390fd5b612be78183613703565b612c3c576040517f08c379a000000000000000000000000000000000000000000000000000000000815260040180806020018281038252603881526020018061495c6038913960400191505060405180910390fd5b600280811115612c4857fe5b600360008473ffffffffffffffffffffffffffffffffffffffff1673ffffffffffffffffffffffffffffffffffffffff16815260200190815260200160002060030160019054906101000a900460ff166002811115612ca357fe5b1415612cfa576040517f08c379a000000000000000000000000000000000000000000000000000000000815260040180806020018281038252602981526020018061485f6029913960400191505060405180910390fd5b600380811115612d0657fe5b600360008473ffffffffffffffffffffffffffffffffffffffff1673ffffffffffffffffffffffffffffffffffffffff16815260200190815260200160002060030160009054906101000a900460ff166003811115612d6157fe5b1415612db8576040517f08c379a00000000000000000000000000000000000000000000000000000000081526004018080602001828103825260238152602001806148f16023913960400191505060405180910390fd5b60038060008473ffffffffffffffffffffffffffffffffffffffff1673ffffffffffffffffffffffffffffffffffffffff16815260200190815260200160002060030160006101000a81548160ff02191690836003811115612e1657fe5b02179055507fe54094ed206f2d050c7d5065f566c98e3c67d5f94c76971e8e73b392f8314ae282600360008573ffffffffffffffffffffffffffffffffffffffff1673ffffffffffffffffffffffffffffffffffffffff16815260200190815260200160002060000154600360008673ffffffffffffffffffffffffffffffffffffffff1673ffffffffffffffffffffffffffffffffffffffff1681526020019081526020016000206001015484604051808573ffffffffffffffffffffffffffffffffffffffff1681526020018481526020018381526020018273ffffffffffffffffffffffffffffffffffffffff16815260200194505050505060405180910390a15050565b6000600360008373ffffffffffffffffffffffffffffffffffffffff1673ffffffffffffffffffffffffffffffffffffffff16815260200190815260200160002060030160019054906101000a900460ff166002811115612f7b57fe5b9050919050565b600360003373ffffffffffffffffffffffffffffffffffffffff1673ffffffffffffffffffffffffffffffffffffffff16815260200190815260200160002060030160029054906101000a900460ff1615613028576040517f08c379a000000000000000000000000000000000000000000000000000000000815260040180806020018281038252602b815260200180614712602b913960400191505060405180910390fd5b60003390506060600460008481526020019081526020016000208054806020026020016040519081016040528092919081815260200182805480156130c257602002820191906000526020600020905b8160009054906101000a900473ffffffffffffffffffffffffffffffffffffffff1673ffffffffffffffffffffffffffffffffffffffff1681526020019060010190808311613078575b50505050509050600260038111156130d657fe5b600360008473ffffffffffffffffffffffffffffffffffffffff1673ffffffffffffffffffffffffffffffffffffffff16815260200190815260200160002060030160009054906101000a900460ff16600381111561313157fe5b14613187576040517f08c379a000000000000000000000000000000000000000000000000000000000815260040180806020018281038252602d815260200180614994602d913960400191505060405180910390fd5b61319082613622565b6131e5576040517f08c379a00000000000000000000000000000000000000000000000000000000081526004018080602001828103825260378152602001806147b76037913960400191505060405180910390fd5b61320382826000815181106131f657fe5b6020026020010151613703565b80613272575060028081111561321557fe5b600360008473ffffffffffffffffffffffffffffffffffffffff1673ffffffffffffffffffffffffffffffffffffffff16815260200190815260200160002060030160019054906101000a900460ff16600281111561327057fe5b145b6132c7576040517f08c379a0000000000000000000000000000000000000000000000000000000008152600401808060200182810382526049815260200180614a566049913960600191505060405180910390fd5b60005b81518110156134625760008282815181106132e157fe5b602002602001015190506132f481611dbb565b15613454576001600360008373ffffffffffffffffffffffffffffffffffffffff1673ffffffffffffffffffffffffffffffffffffffff16815260200190815260200160002060030160026101000a81548160ff0219169083151502179055507feab44e925fe37efdf7a6b9681f2daf982a47f4e64e2d592e8ee4309b986df6a781600360008473ffffffffffffffffffffffffffffffffffffffff1673ffffffffffffffffffffffffffffffffffffffff16815260200190815260200160002060000154600360008573ffffffffffffffffffffffffffffffffffffffff1673ffffffffffffffffffffffffffffffffffffffff1681526020019081526020016000206001015487604051808573ffffffffffffffffffffffffffffffffffffffff1681526020018481526020018381526020018273ffffffffffffffffffffffffffffffffffffffff16815260200194505050505060405180910390a15b5080806001019150506132ca565b50505050565b60008060009054906101000a900473ffffffffffffffffffffffffffffffffffffffff16905090565b600060038081111561349f57fe5b600360008473ffffffffffffffffffffffffffffffffffffffff1673ffffffffffffffffffffffffffffffffffffffff16815260200190815260200160002060030160009054906101000a900460ff1660038111156134fa57fe5b149050919050565b6000600360008373ffffffffffffffffffffffffffffffffffffffff1673ffffffffffffffffffffffffffffffffffffffff16815260200190815260200160002060030160009054906101000a900460ff16600381111561355f57fe5b9050919050565b600080600381111561357457fe5b600360008473ffffffffffffffffffffffffffffffffffffffff1673ffffffffffffffffffffffffffffffffffffffff16815260200190815260200160002060030160009054906101000a900460ff1660038111156135cf57fe5b149050919050565b600460205281600052604060002081815481106135f057fe5b906000526020600020016000915091509054906101000a900473ffffffffffffffffffffffffffffffffffffffff1681565b60006001600281111561363157fe5b600360008473ffffffffffffffffffffffffffffffffffffffff1673ffffffffffffffffffffffffffffffffffffffff16815260200190815260200160002060030160019054906101000a900460ff16600281111561368c57fe5b14806136fc575060028081111561369f57fe5b600360008473ffffffffffffffffffffffffffffffffffffffff1673ffffffffffffffffffffffffffffffffffffffff16815260200190815260200160002060030160019054906101000a900460ff1660028111156136fa57fe5b145b9050919050565b6000600360008373ffffffffffffffffffffffffffffffffffffffff1673ffffffffffffffffffffffffffffffffffffffff16815260200190815260200160002060010154600360008573ffffffffffffffffffffffffffffffffffffffff1673ffffffffffffffffffffffffffffffffffffffff1681526020019081526020016000206001015414905092915050565b6000600360008373ffffffffffffffffffffffffffffffffffffffff1673ffffffffffffffffffffffffffffffffffffffff168152602001908152602001600020600101549050919050565b60015481565b600360003373ffffffffffffffffffffffffffffffffffffffff1673ffffffffffffffffffffffffffffffffffffffff16815260200190815260200160002060030160029054906101000a900460ff161561388c576040517f08c379a000000000000000000000000000000000000000000000000000000000815260040180806020018281038252602b815260200180614712602b913960400191505060405180910390fd5b42600360003373ffffffffffffffffffffffffffffffffffffffff1673ffffffffffffffffffffffffffffffffffffffff1681526020019081526020016000206004015411613926576040517f08c379a0000000000000000000000000000000000000000000000000000000008152600401808060200182810382526047815260200180614bf06047913960600191505060405180910390fd5b600033905060028081111561393757fe5b600360008373ffffffffffffffffffffffffffffffffffffffff1673ffffffffffffffffffffffffffffffffffffffff16815260200190815260200160002060030160019054906101000a900460ff16600281111561399257fe5b146139e8576040517f08c379a0000000000000000000000000000000000000000000000000000000008152600401808060200182810382526031815260200180614c626031913960400191505060405180910390fd5b600160028111156139f557fe5b600360008473ffffffffffffffffffffffffffffffffffffffff1673ffffffffffffffffffffffffffffffffffffffff16815260200190815260200160002060030160019054906101000a900460ff166002811115613a5057fe5b14613aa6576040517f08c379a000000000000000000000000000000000000000000000000000000000815260040180806020018281038252602b815260200180614c37602b913960400191505060405180910390fd5b60016003811115613ab357fe5b600360008473ffffffffffffffffffffffffffffffffffffffff1673ffffffffffffffffffffffffffffffffffffffff16815260200190815260200160002060030160009054906101000a900460ff166003811115613b0e57fe5b14613b64576040517f08c379a000000000000000000000000000000000000000000000000000000000815260040180806020018281038252603681526020018061473d6036913960400191505060405180910390fd5b6002600360008473ffffffffffffffffffffffffffffffffffffffff1673ffffffffffffffffffffffffffffffffffffffff16815260200190815260200160002060030160006101000a81548160ff02191690836003811115613bc357fe5b02179055507f073fc7b5012ce389e8ee332d8cb39b41a44a08b42ee9260a78dd3a757a66c11182600360008573ffffffffffffffffffffffffffffffffffffffff1673ffffffffffffffffffffffffffffffffffffffff16815260200190815260200160002060000154600360008673ffffffffffffffffffffffffffffffffffffffff1673ffffffffffffffffffffffffffffffffffffffff1681526020019081526020016000206001015484604051808573ffffffffffffffffffffffffffffffffffffffff1681526020018481526020018381526020018273ffffffffffffffffffffffffffffffffffffffff16815260200194505050505060405180910390a15050565b600280811115613cd757fe5b600360003373ffffffffffffffffffffffffffffffffffffffff1673ffffffffffffffffffffffffffffffffffffffff16815260200190815260200160002060030160019054906101000a900460ff166002811115613d3257fe5b14613d88576040517f08c379a000000000000000000000000000000000000000000000000000000000815260040180806020018281038252604b815260200180614814604b913960600191505060405180910390fd5b60006002549050816002819055507f33e73778e90a0a7d35d5d4332f4668b1fcff659529950c30f760a39ba49fafec3382600254604051808473ffffffffffffffffffffffffffffffffffffffff168152602001838152602001828152602001935050505060405180910390a15050565b613e01614652565b73ffffffffffffffffffffffffffffffffffffffff1660008054906101000a900473ffffffffffffffffffffffffffffffffffffffff1673ffffffffffffffffffffffffffffffffffffffff1614613ec1576040517f08c379a00000000000000000000000000000000000000000000000000000000081526004018080602001828103825260208152602001807f4f776e61626c653a2063616c6c6572206973206e6f7420746865206f776e657281525060200191505060405180910390fd5b600073ffffffffffffffffffffffffffffffffffffffff168173ffffffffffffffffffffffffffffffffffffffff161415613f47576040517f08c379a00000000000000000000000000000000000000000000000000000000081526004018080602001828103825260268152602001806147ee6026913960400191505060405180910390fd5b8073ffffffffffffffffffffffffffffffffffffffff1660008054906101000a900473ffffffffffffffffffffffffffffffffffffffff1673ffffffffffffffffffffffffffffffffffffffff167f8be0079c531659141344cd1fd0a4f28419497f9722a3daafe3b4186f6b6457e060405160405180910390a3806000806101000a81548173ffffffffffffffffffffffffffffffffffffffff021916908373ffffffffffffffffffffffffffffffffffffffff16021790555050565b600360003373ffffffffffffffffffffffffffffffffffffffff1673ffffffffffffffffffffffffffffffffffffffff16815260200190815260200160002060030160029054906101000a900460ff16156140aa576040517f08c379a000000000000000000000000000000000000000000000000000000000815260040180806020018281038252602b815260200180614712602b913960400191505060405180910390fd5b42600360003373ffffffffffffffffffffffffffffffffffffffff1673ffffffffffffffffffffffffffffffffffffffff1681526020019081526020016000206004015411614144576040517f08c379a0000000000000000000000000000000000000000000000000000000008152600401808060200182810382526047815260200180614bf06047913960600191505060405180910390fd5b60003390508173ffffffffffffffffffffffffffffffffffffffff168173ffffffffffffffffffffffffffffffffffffffff1614156141ce576040517f08c379a00000000000000000000000000000000000000000000000000000000081526004018080602001828103825260418152602001806148b06041913960600191505060405180910390fd5b6141d781613622565b61422c576040517f08c379a0000000000000000000000000000000000000000000000000000000008152600401808060200182810382526046815260200180614d256046913960600191505060405180910390fd5b6142368183613703565b806142a5575060028081111561424857fe5b600360008373ffffffffffffffffffffffffffffffffffffffff1673ffffffffffffffffffffffffffffffffffffffff16815260200190815260200160002060030160019054906101000a900460ff1660028111156142a357fe5b145b6142fa576040517f08c379a0000000000000000000000000000000000000000000000000000000008152600401808060200182810382526053815260200180614ac56053913960600191505060405180910390fd5b600360008373ffffffffffffffffffffffffffffffffffffffff1673ffffffffffffffffffffffffffffffffffffffff16815260200190815260200160002060030160029054906101000a900460ff1661439f576040517f08c379a000000000000000000000000000000000000000000000000000000000815260040180806020018281038252602d815260200180614b18602d913960400191505060405180910390fd5b6000600360008473ffffffffffffffffffffffffffffffffffffffff1673ffffffffffffffffffffffffffffffffffffffff16815260200190815260200160002060030160026101000a81548160ff0219169083151502179055507fede461371ad2055987ffee3f03ac6bbad8c1e32130b99e9a87eaff68abdef50c82600360008573ffffffffffffffffffffffffffffffffffffffff1673ffffffffffffffffffffffffffffffffffffffff16815260200190815260200160002060000154600360008673ffffffffffffffffffffffffffffffffffffffff1673ffffffffffffffffffffffffffffffffffffffff1681526020019081526020016000206001015484604051808573ffffffffffffffffffffffffffffffffffffffff1681526020018481526020018381526020018273ffffffffffffffffffffffffffffffffffffffff16815260200194505050505060405180910390a15050565b60025481565b60008060008060008060006145166146b9565b600360008a73ffffffffffffffffffffffffffffffffffffffff1673ffffffffffffffffffffffffffffffffffffffff1681526020019081526020016000206040518060e00160405290816000820154815260200160018201548152602001600282015481526020016003820160009054906101000a900460ff16600381111561459c57fe5b60038111156145a757fe5b81526020016003820160019054906101000a900460ff1660028111156145c957fe5b60028111156145d457fe5b81526020016003820160029054906101000a900460ff1615151515815260200160048201548152505090508060000151816020015182604001518360600151600381111561461e57fe5b8460800151600281111561462e57fe5b8560a001518660c00151975097509750975097509750975050919395979092949650565b600033905090565b6000806005600084815260200190815260200160002054141561469e5760016000815460010191905081905560056000848152602001908152602001600020819055505b60056000838152602001908152602001600020549050919050565b6040518060e00160405280600081526020016000815260200160008019168152602001600060038111156146e957fe5b8152602001600060028111156146fb57fe5b815260200160001515815260200160008152509056fe4170656e6173207175656d206ec3a36f20657374c3a1207061757361646120706f646520616365737361724120636f6e74612070726563697361206573746172206e6f2065737461646f20416775617264616e646f2056616c696461c3a7c3a36f4f20726573706f6e73c3a176656c2070656c612076616c696461c3a7c3a36f206ec3a36f20706f64652076616c6964617220737561207072c3b37072696120636f6e74614f20726573706f6e73c3a176656c206465766520706f737375697220756d6120636f6e74612041444d494e206f752053555041444d494e4f776e61626c653a206e6577206f776e657220697320746865207a65726f20616464726573734170656e6173206f2053555041444d494e20706f646520646566696e6972206e6f766f2074656d706f20646520657870697261c3a7c3a36f206465206e6f766f7320726567697374726f734120636f6e74612053555041444d494e206ec3a36f20706f64652073657220696e76616c69646164614170656e61732053555041444d494e20706f646520696e76616c69646172206120636f6e74612e20556d6120706573736f61206ec3a36f20c3a920636170617a2064652072657469726172206f20706175736520646520737561207072c3b37072696120636f6e74614120636f6e746120666f6920696e76616c6964616461207072657669616d656e74652e4f776e65722073c3b320706f646572c3a1206174726962756972206f20706170656c2064652053555041444d494e207061726120636f6e74617320646f206d65736d6f20434e504a4170656e617320636f6e746173206461206d65736d61206f7267616e697a6163616f20706f64656d207365722076616c6964616461732e204f20726573706f6e73c3a176656c206465766520706f737375697220756d6120636f6e74612056c3a16c6964614120636f6e746120612076616c696461722070726563697361206573746172206e6f2065737461646f20416775617264616e646f2056616c696461c3a7c3a36f536f6d656e746520706f64652070617573617220756d6120636f6e7461207175656d20666f72206461206d65736d61206f7267616e697a61c3a7c3a36f206f752053797374656d2041646d696e6973747261746f72536f6d656e746520706f64652070617573617220756d6120636f6e7461207175656d20666f72206461206d65736d61206f7267616e697a61c3a7c3a36f206f752053555041444d494e4120636f6e74612053555041444d494e206ec3a36f20706f6465207365722070617573616461536f6d656e746520706f6465207265746972617220706175736120646520756d6120636f6e7461207175656d20666f72206461206d65736d61206f7267616e697a61c3a7c3a36f206f752053555041444d494e536f6d656e746520756d6120636f6e7461207061757361646120706f64652073657220646573706175736164614f20726573706f6e73c3a176656c2070656c612076616c696461c3a7c3a36f206465766520736572206461206d65736d61206f7267616e697a61c3a7c3a36f20286d65736d6f20434e504a294170656e617320636f6e74612041444d494e20706f646520696e76616c6964617220636f6e7461732e20456e64657265c3a76f206ec3a36f20706f646520746572207369646f206361646173747261646f20616e746572696f726d656e74654170656e617320636f6e74617320636f6d206465636c617261c3a7c3b565732063756a6f7320636572746966696361646f732061696e64612073c3a36f2076c3a16c69646f732e4120636f6e746120612076616c69646172206465766520746572206f20706170656c2064652041444d494e4f20726573706f6e73c3a176656c2070656c612076616c696461c3a7c3a36f2064657665207365722053555041444d494e4f20726573706f6e73c3a176656c2070656c612076616c696461c3a7c3a36f206465766520746572206f20706170656c2041444d494e4f20757375c3a172696f2061207365722076616c696461646f206465766520746572206f20706170656c20524547554c4152536f6d656e746520756d6120636f6e74612076c3a16c69646120706f6465207365722070617573616461536f6d656e746520756d6120636f6e746120726573706f6e73c3a176656c2076616c696461646f726120706f646520646573706175736172206f757472617320636f6e74617341206f7267616e697a6163616f206e616f2065737461206f7065726163696f6e616ca2646970667358221220103dc53dbe6d0e7fd231a63ef75aa7969646d59db99f19c644ff4c7df35ce7e164736f6c634300060c0033",
  "immutableReferences": {},
  "source": "pragma solidity ^0.6.0;\r\n\r\nimport \"@openzeppelin/contracts/access/Ownable.sol\";\r\nimport \"./RBBLib.sol\";\r\n\r\ncontract RBBRegistry is Ownable() {\r\n\r\n    enum BlockchainAccountState {AVAILABLE,WAITING_VALIDATION,VALIDATED,INVALIDATED}\r\n    BlockchainAccountState blockchainState; /* Variable not used, only defined to create the enum type. */\r\n                                \r\n    /**\r\n    REGULAR  - operates \r\n    ADMIN    - validates the regular.\r\n    SUPADMIN - validates the ADMIN. Contract Owner can set multiple SUPADMINs (including himself, machines and human accounts).\r\n     */\r\n    enum BlockchainAccountRole {REGULAR, ADMIN, SUPADMIN} \r\n    BlockchainAccountRole blockchainRole;  /* Variable not used, only defined to create the enum type. */\r\n\r\n    /* This is a helper variable to emulate a sequence and autoincrement Ids*/\r\n    uint public currentRBBId = 0;\r\n\r\n     /**\r\n        This registry is about a company representative information\r\n     */    \r\n    struct Registry {\r\n        uint RBBId; //uma proxy para o CNPJ\r\n        uint CNPJ; //Brazilian identification of legal entity\r\n        bytes32 hashProof; //hash of declaration\r\n        BlockchainAccountState state;\r\n        BlockchainAccountRole role;\r\n        bool paused;\r\n        uint256 dateTimeExpiration; //vai ser outro momento de expirao diferente do ECNPJ\r\n    }\r\n\r\n    uint256 public defaultDateTimeExpiration = 365 days; \r\n\r\n    /**\r\n        Links Ethereum addresses to Registry\r\n     */\r\n    mapping(address => Registry) public legalEntitiesInfo;\r\n\r\n    /**\r\n        Links RBBID to Ethereum addresses.\r\n     */\r\n    mapping(uint => address[]) public RBBId_addresses;\r\n    \r\n    /**\r\n     * Links CNPJ to its RBBID\r\n     */\r\n    mapping (uint => uint) public CNPJ_RBBId;\r\n\r\n    event AccountRegistration       (address addr, uint RBBId, uint CNPJ, bytes32 hashProof, uint256 dateTimeExpiration);\r\n    event AccountValidation         (address addr, uint RBBId, uint CNPJ, address responsible);\r\n    event AccountInvalidation       (address addr, uint RBBId, uint CNPJ, address responsible);\r\n    event AccountPaused             (address addr, uint RBBId, uint CNPJ, address responsible);\r\n    event AccountUnpaused           (address addr, uint RBBId, uint CNPJ, address responsible);\r\n    event AccountRoleChange         (address addr, uint RBBId, uint CNPJ, address responsible, BlockchainAccountRole roleBefore, BlockchainAccountRole roleNew);\r\n    event RegistryExpirationChange  (address addr, uint256 dateTimeExpirationBefore, uint256 dateTimeExpirationNew);\r\n\r\n    /* The responsible for the System-Admin is the Owner. It could be or not be the same address (SUPADMIN=owner) */\r\n    constructor (uint CNPJSUPADMIN, string memory proofHashSUPADMIN, uint daysToExpire) public {                \r\n        address addrSUPADMIN = msg.sender;\r\n        bytes32 proofHash = RBBLib.stringBytes32(proofHashSUPADMIN);\r\n        uint256 dateTimeExpiration = now + daysToExpire * 1 days; \r\n        uint RBBId = calculaProximoRBBID(CNPJSUPADMIN);\r\n        legalEntitiesInfo[addrSUPADMIN] = Registry( RBBId, \r\n                                                    CNPJSUPADMIN, \r\n                                                    proofHash, \r\n                                                    BlockchainAccountState.VALIDATED, \r\n                                                    BlockchainAccountRole.SUPADMIN, \r\n                                                    false, \r\n                                                    dateTimeExpiration     );\r\n        RBBId_addresses[RBBId].push(addrSUPADMIN);\r\n        emit AccountRegistration(addrSUPADMIN, RBBId, CNPJSUPADMIN, proofHash, dateTimeExpiration); \r\n        \r\n    }\r\n\r\n   /**\r\n    * Link blockchain address with CNPJ\r\n    * @param CNPJ Brazilian identifier to legal entities\r\n    * @param CNPJProofHash The legal entities have to send BNDES a PDF where it assumes as responsible for an Ethereum account.\r\n    *                   This PDF is signed with eCNPJ and send to BNDES.\r\n    */\r\n    function registryLegalEntity(uint CNPJ, bytes32 CNPJProofHash) public {\r\n        \r\n        address addr = msg.sender;\r\n        bytes32 proofHash = CNPJProofHash;\r\n        uint256 dateTimeExpiration = now + defaultDateTimeExpiration;\r\n        uint RBBId = calculaProximoRBBID(CNPJ);\r\n\r\n        require (isAvailableAccount(addr), \"Endereo no pode ter sido cadastrado anteriormente\");\r\n\r\n        if ( proofHash == 0 ) { \r\n            legalEntitiesInfo[addr] = Registry( RBBId,\r\n                                                CNPJ, \r\n                                                proofHash, \r\n                                                BlockchainAccountState.WAITING_VALIDATION, \r\n                                                BlockchainAccountRole.REGULAR,\r\n                                                false,\r\n                                                dateTimeExpiration );\r\n        } else {\r\n            legalEntitiesInfo[addr] = Registry( RBBId,\r\n                                                CNPJ, \r\n                                                proofHash, \r\n                                                BlockchainAccountState.WAITING_VALIDATION, \r\n                                                BlockchainAccountRole.ADMIN,\r\n                                                false,\r\n                                                dateTimeExpiration );\r\n        }\r\n\r\n        RBBId_addresses[RBBId].push(addr);\r\n        emit AccountRegistration(addr, RBBId, CNPJ, proofHash, dateTimeExpiration);\r\n    }\r\n\r\n    modifier onlyWhenNotPaused() { \r\n        require( ! legalEntitiesInfo[msg.sender].paused , \"Apenas quem no est pausada pode acessar\" );\r\n        _;\r\n    }\r\n\r\n    modifier onlyWhenNotExpired() { \r\n        require( legalEntitiesInfo[msg.sender].dateTimeExpiration > now , \"Apenas contas com declaraes cujos certificados ainda so vlidos.\" );\r\n        _;\r\n    }\r\n\r\n   /**\r\n    * Validates the initial registry of your own LegalEntity\r\n    * @param userAddr Ethereum address that needs to be validated\r\n    */\r\n    function validateRegistrySameOrg(address userAddr) public onlyWhenNotPaused onlyWhenNotExpired {\r\n\r\n        address responsible = msg.sender;\r\n\r\n        require ( responsible != userAddr, \"O responsvel pela validao no pode validar sua prpria conta\");\r\n\r\n        require ( legalEntitiesInfo[responsible].role == BlockchainAccountRole.ADMIN , \r\n                   \"O responsvel pela validao deve ter o papel ADMIN\" );\r\n\r\n        require ( isTheSameID(responsible, userAddr) , \r\n                   \"O responsvel pela validao deve ser da mesma organizao (mesmo CNPJ)\" );\r\n\r\n        require ( legalEntitiesInfo[userAddr].role == BlockchainAccountRole.REGULAR , \r\n                   \"O usurio a ser validado deve ter o papel REGULAR\" );\r\n\r\n\r\n        require( legalEntitiesInfo[userAddr].state == BlockchainAccountState.WAITING_VALIDATION,\r\n                   \"A conta a validar precisa estar no estado Aguardando Validao\");\r\n\r\n        legalEntitiesInfo[userAddr].state = BlockchainAccountState.VALIDATED;\r\n\r\n        emit AccountValidation( userAddr, \r\n                                legalEntitiesInfo[userAddr].RBBId, \r\n                                legalEntitiesInfo[userAddr].CNPJ, \r\n                                responsible);\r\n    }\r\n\r\n/**\r\n    * Validates the initial registry of others LegalEntities\r\n    * @param userAddr Ethereum address that needs to be validated\r\n    */\r\n    function validateRegistry(address userAddr) public onlyWhenNotPaused onlyWhenNotExpired {\r\n\r\n        address responsible = msg.sender;\r\n        \r\n        require ( legalEntitiesInfo[responsible].role == BlockchainAccountRole.SUPADMIN \r\n            , \"O responsvel pela validao deve ser SUPADMIN\" );\r\n\r\n        require ( legalEntitiesInfo[userAddr].role == BlockchainAccountRole.ADMIN  \r\n            , \"A conta a validar deve ter o papel de ADMIN\" );\r\n\r\n        require(legalEntitiesInfo[userAddr].state == BlockchainAccountState.WAITING_VALIDATION,\r\n            \"A conta precisa estar no estado Aguardando Validao\");\r\n\r\n        legalEntitiesInfo[userAddr].state = BlockchainAccountState.VALIDATED;\r\n\r\n        emit AccountValidation( userAddr, \r\n                                legalEntitiesInfo[userAddr].RBBId, \r\n                                legalEntitiesInfo[userAddr].CNPJ, \r\n                                responsible);\r\n    }    \r\n\r\n/**\r\n    * Pause an account     \r\n    * @param addr Ethereum address that needs to be paused\r\n    */\r\n    function pauseAddress(address addr) public onlyWhenNotPaused {\r\n\r\n        address responsible = msg.sender;\r\n\r\n        require ( legalEntitiesInfo[addr].role != BlockchainAccountRole.SUPADMIN , \"A conta SUPADMIN no pode ser pausada\");\r\n        require( isTheSameID(responsible, addr) || legalEntitiesInfo[responsible].role == BlockchainAccountRole.SUPADMIN, \"Somente pode pausar uma conta quem for da mesma organizao ou System Administrator\" );\r\n        require( isValidatedAccount(addr) , \"Somente uma conta vlida pode ser pausada\");\r\n        require( legalEntitiesInfo[responsible].state == BlockchainAccountState.VALIDATED, \"O responsvel deve possuir uma conta Vlida\" );\r\n\r\n        legalEntitiesInfo[addr].paused = true;\r\n        \r\n        emit AccountPaused( addr, \r\n                            legalEntitiesInfo[addr].RBBId,\r\n                            legalEntitiesInfo[addr].CNPJ, \r\n                            responsible);\r\n    }\r\n\r\n    function pauseLegalEntity(uint RBBId) public onlyWhenNotPaused {\r\n\r\n        address responsible = msg.sender;\r\n        address[] memory addresses  = RBBId_addresses[RBBId];\r\n\r\n        require( legalEntitiesInfo[responsible].state == BlockchainAccountState.VALIDATED, \"O responsvel deve possuir uma conta Vlida\" );\r\n        require( ( isSortOfAdmin(responsible) ), \"O responsvel deve possuir uma conta ADMIN ou SUPADMIN\" );\r\n        require( isTheSameID(responsible, addresses[0]) \r\n                    || legalEntitiesInfo[responsible].role == BlockchainAccountRole.SUPADMIN , \"Somente pode pausar uma conta quem for da mesma organizao ou SUPADMIN\" );\r\n\r\n        for (uint i=0; i < addresses.length ; i++) {\r\n            address candidate = addresses[i];\r\n            if( isValidatedAccount( candidate ) ) {\r\n                legalEntitiesInfo[candidate].paused = true;\r\n                emit AccountPaused( candidate, \r\n                                    legalEntitiesInfo[candidate].RBBId,\r\n                                    legalEntitiesInfo[candidate].CNPJ, \r\n                                    responsible );\r\n            }\r\n        }   \r\n    }\r\n\r\n/**\r\n    * Unpause an account     \r\n    * @param addr Ethereum address that needs to be validated\r\n    */\r\n    function unpauseAddress(address addr) public onlyWhenNotPaused onlyWhenNotExpired {\r\n\r\n        address responsible = msg.sender;\r\n\r\n        require ( responsible != addr , \"Uma pessoa no  capaz de retirar o pause de sua prpria conta\");\r\n        require( isSortOfAdmin(responsible) , \"Somente uma conta responsvel validadora pode despausar outras contas\" );        \r\n        require( isTheSameID(responsible, addr) \r\n                    || legalEntitiesInfo[responsible].role == BlockchainAccountRole.SUPADMIN , \"Somente pode retirar pausa de uma conta quem for da mesma organizao ou SUPADMIN\" );\r\n        require( legalEntitiesInfo[addr].paused  , \"Somente uma conta pausada pode ser despausada\" ); \r\n\r\n        legalEntitiesInfo[addr].paused = false;\r\n        \r\n        emit AccountUnpaused(   addr, \r\n                                legalEntitiesInfo[addr].RBBId,\r\n                                legalEntitiesInfo[addr].CNPJ, \r\n                                responsible);\r\n    }\r\n\r\n   /**\r\n    * Invalidates the initial registry of a legal entity or the change of its registry\r\n    * The invalidation can be called at any time in the lifecycle of the address (not only when it is WAITING_VALIDATION)\r\n    * @param addr Ethereum address that needs to be validated\r\n    */\r\n    function invalidateRegistrySameOrg(address addr) public onlyWhenNotPaused onlyWhenNotExpired {\r\n\r\n        address responsible = msg.sender;\r\n\r\n        require( legalEntitiesInfo[responsible].role == BlockchainAccountRole.ADMIN, \"Apenas conta ADMIN pode invalidar contas. \");\r\n        require( isTheSameID(responsible, addr) , \"Apenas contas da mesma organizacao podem ser validadas. \");\r\n        require( legalEntitiesInfo[addr].role != BlockchainAccountRole.SUPADMIN , \"A conta SUPADMIN no pode ser invalidada\");\r\n        require( legalEntitiesInfo[addr].state != BlockchainAccountState.INVALIDATED, \"A conta foi invalidada previamente.\" );\r\n\r\n        legalEntitiesInfo[addr].state = BlockchainAccountState.INVALIDATED;\r\n        \r\n        emit AccountInvalidation(   addr, \r\n                                    legalEntitiesInfo[addr].RBBId, \r\n                                    legalEntitiesInfo[addr].CNPJ, \r\n                                    responsible );\r\n    }\r\n\r\n    /*\r\n    * @param addr Ethereum address that needs to be validated\r\n    */\r\n    function invalidateRegistry(address addr) public onlyWhenNotPaused onlyWhenNotExpired {\r\n\r\n        address responsible = msg.sender;\r\n\r\n        require( legalEntitiesInfo[responsible].role == BlockchainAccountRole.SUPADMIN, \"Apenas SUPADMIN pode invalidar a conta. \");\r\n        require( legalEntitiesInfo[addr].role != BlockchainAccountRole.SUPADMIN , \"A conta SUPADMIN no pode ser invalidada\");\r\n        require( legalEntitiesInfo[addr].state != BlockchainAccountState.INVALIDATED, \"A conta foi invalidada previamente.\" );\r\n\r\n        legalEntitiesInfo[addr].state = BlockchainAccountState.INVALIDATED;\r\n        \r\n        emit AccountInvalidation(   addr, \r\n                                    legalEntitiesInfo[addr].RBBId, \r\n                                    legalEntitiesInfo[addr].CNPJ, \r\n                                    responsible );\r\n    }\r\n\r\n    function isSortOfAdmin(address addr) public view returns (bool) {\r\n        return ( legalEntitiesInfo[addr].role == BlockchainAccountRole.ADMIN || \r\n                 legalEntitiesInfo[addr].role == BlockchainAccountRole.SUPADMIN   );\r\n    }\r\n\r\n    function isOwner(address addr) public view returns (bool) {\r\n        return owner()==addr;\r\n    }\r\n\r\n    function isAvailableAccount(address addr) public view returns (bool) {\r\n        return legalEntitiesInfo[addr].state == BlockchainAccountState.AVAILABLE;\r\n    }\r\n\r\n    function isWaitingValidationAccount(address addr) public view returns (bool) {\r\n        return legalEntitiesInfo[addr].state == BlockchainAccountState.WAITING_VALIDATION;\r\n    }\r\n\r\n    function isValidatedAccount(address addr) public view returns (bool) {\r\n        return legalEntitiesInfo[addr].state == BlockchainAccountState.VALIDATED;\r\n    }\r\n\r\n    function isInvalidated(address addr) public view returns (bool) {\r\n        return legalEntitiesInfo[addr].state == BlockchainAccountState.INVALIDATED;\r\n    }\r\n\r\n    function isTheSameID(address a, address b) public view returns (bool) {\r\n        return legalEntitiesInfo[a].CNPJ == legalEntitiesInfo[b].CNPJ ;\r\n    }\r\n\r\n    function isPaused(address addr) public view returns (bool) {\r\n        return legalEntitiesInfo[addr].paused;\r\n    }\r\n\r\n    function isOperational(address addr) public view returns (bool) {\r\n        return isValidatedAccount(addr) && !isPaused(addr);\r\n    }\r\n\r\n    function isRegistryOperational(uint RBBId) public view returns (bool) {\r\n        address[] memory addresses  = RBBId_addresses[RBBId];\r\n\r\n        for (uint i=0; i < addresses.length ; i++) {\r\n            if ( isOperational( addresses[i] ) && isSortOfAdmin(addresses[i]) ) {\r\n                    return true;\r\n            }\r\n        }\r\n    }\r\n\r\n    function getId (address addr) public view returns (uint) {\r\n        uint RBBId = getRBBIdRaw(addr);\r\n        require ( isRegistryOperational( RBBId ) , \"A organizacao nao esta operacional\" );\r\n        return RBBId;\r\n    }\r\n\r\n    function getRBBIdRaw (address addr) public view returns (uint) {\r\n        return legalEntitiesInfo[addr].RBBId;\r\n    }\r\n\r\n    function getCNPJ (address addr) public view returns (uint) {\r\n        return legalEntitiesInfo[addr].CNPJ;\r\n    }    \r\n\r\n    function getRegistry (address addr) public view returns (uint, uint, bytes32, uint, uint, bool, uint256) {\r\n        Registry memory reg = legalEntitiesInfo[addr];\r\n\r\n        return (  reg.RBBId,\r\n                  reg.CNPJ, \r\n                  reg.hashProof, \r\n                  (uint) (reg.state),\r\n                  (uint) (reg.role),\r\n                  reg.paused,\r\n                  reg.dateTimeExpiration\r\n                );\r\n    }\r\n\r\n    function getBlockchainAccounts(uint RBBId) public view returns (address[] memory) {\r\n        return RBBId_addresses[RBBId];\r\n    }\r\n\r\n    function getAccountState(address addr) public view returns (int) {\r\n        return ((int) (legalEntitiesInfo[addr].state));\r\n    }\r\n\r\n    function getAccountRole(address addr) public view returns (int) {\r\n        return ((int) (legalEntitiesInfo[addr].role));\r\n    }\r\n\r\n    function getIdFromCNPJ(uint cnpj) public view returns (uint) {\r\n        return CNPJ_RBBId[cnpj];\r\n    }\r\n    \r\n   /**\r\n    * The Owner can assign role SUPADMIN to anyone in the same LegalEntity\r\n    * @param addr Ethereum address to be assigned the new role\r\n    */\r\n    function setRoleSupAdmin(address addr) public onlyOwner {\r\n        require ( isTheSameID( owner(), addr ), \"Owner s poder atribuir o papel de SUPADMIN para contas do mesmo CNPJ\" );\r\n\r\n        BlockchainAccountRole roleBefore = legalEntitiesInfo[addr].role;\r\n        legalEntitiesInfo[addr].role     = BlockchainAccountRole.SUPADMIN;                \r\n\r\n        emit AccountRoleChange(   addr, \r\n                                  legalEntitiesInfo[addr].RBBId, \r\n                                  legalEntitiesInfo[addr].CNPJ, \r\n                                  msg.sender,\r\n                                  roleBefore, \r\n                                  legalEntitiesInfo[addr].role  );\r\n    }\r\n\r\n    /**\r\n    * The Owner can assign new default expiration time for future registries\r\n    * @param dateTimeExpirationNew the new default expiration time \r\n    */\r\n    function setDefaultDateTimeExpiration(uint256 dateTimeExpirationNew) public {\r\n\r\n        require( legalEntitiesInfo[msg.sender].role == BlockchainAccountRole.SUPADMIN, \"Apenas o SUPADMIN pode definir novo tempo de expirao de novos registros\");\r\n\r\n        uint256 dateTimeExpirationOld = defaultDateTimeExpiration;\r\n        defaultDateTimeExpiration = dateTimeExpirationNew;\r\n        \r\n        emit RegistryExpirationChange(   msg.sender, \r\n                                         dateTimeExpirationOld, \r\n                                         defaultDateTimeExpiration );        \r\n    }\r\n\r\n    function calculaProximoRBBID(uint CNPJ) private returns (uint) {\r\n\r\n        if ( CNPJ_RBBId[CNPJ] == 0 ) //se nao existir rbbid para este CNPJ\r\n            CNPJ_RBBId[CNPJ] = ++currentRBBId;\r\n\r\n        return CNPJ_RBBId[CNPJ];\r\n    } \r\n \r\n\r\n}",
  "sourcePath": "D:/git/rbb-identificacao/Back-Blockchain/contracts/RBBRegistry.sol",
  "compiler": {
    "name": "solc",
    "version": "0.6.12+commit.27d51765.Emscripten.clang"
  },
  "schemaVersion": "3.2.5",
  "updatedAt": "2020-11-24T15:19:28.208Z",
  "networkType": "ethereum",
  "devdoc": {
    "kind": "dev",
    "methods": {
      "invalidateRegistrySameOrg(address)": {
        "params": {
          "addr": "Ethereum address that needs to be validated"
        }
      },
      "owner()": {
        "details": "Returns the address of the current owner."
      },
      "pauseAddress(address)": {
        "params": {
          "addr": "Ethereum address that needs to be paused"
        }
      },
      "registryLegalEntity(uint256,bytes32)": {
        "params": {
          "CNPJ": "Brazilian identifier to legal entities",
          "CNPJProofHash": "The legal entities have to send BNDES a PDF where it assumes as responsible for an Ethereum account.                   This PDF is signed with eCNPJ and send to BNDES."
        }
      },
      "renounceOwnership()": {
        "details": "Leaves the contract without owner. It will not be possible to call `onlyOwner` functions anymore. Can only be called by the current owner. NOTE: Renouncing ownership will leave the contract without an owner, thereby removing any functionality that is only available to the owner."
      },
      "setDefaultDateTimeExpiration(uint256)": {
        "params": {
          "dateTimeExpirationNew": "the new default expiration time "
        }
      },
      "setRoleSupAdmin(address)": {
        "params": {
          "addr": "Ethereum address to be assigned the new role"
        }
      },
      "transferOwnership(address)": {
        "details": "Transfers ownership of the contract to a new account (`newOwner`). Can only be called by the current owner."
      },
      "unpauseAddress(address)": {
        "params": {
          "addr": "Ethereum address that needs to be validated"
        }
      },
      "validateRegistry(address)": {
        "params": {
          "userAddr": "Ethereum address that needs to be validated"
        }
      },
      "validateRegistrySameOrg(address)": {
        "params": {
          "userAddr": "Ethereum address that needs to be validated"
        }
      }
    },
    "version": 1
  },
  "userdoc": {
    "kind": "user",
    "methods": {
      "CNPJ_RBBId(uint256)": {
        "notice": "Links CNPJ to its RBBID"
      },
      "RBBId_addresses(uint256,uint256)": {
        "notice": "Links RBBID to Ethereum addresses."
      },
      "invalidateRegistrySameOrg(address)": {
        "notice": "Invalidates the initial registry of a legal entity or the change of its registry The invalidation can be called at any time in the lifecycle of the address (not only when it is WAITING_VALIDATION)"
      },
      "legalEntitiesInfo(address)": {
        "notice": "Links Ethereum addresses to Registry"
      },
      "pauseAddress(address)": {
        "notice": "Pause an account     "
      },
      "registryLegalEntity(uint256,bytes32)": {
        "notice": "Link blockchain address with CNPJ"
      },
      "setDefaultDateTimeExpiration(uint256)": {
        "notice": "The Owner can assign new default expiration time for future registries"
      },
      "setRoleSupAdmin(address)": {
        "notice": "The Owner can assign role SUPADMIN to anyone in the same LegalEntity"
      },
      "unpauseAddress(address)": {
        "notice": "Unpause an account     "
      },
      "validateRegistry(address)": {
        "notice": "Validates the initial registry of others LegalEntities"
      },
      "validateRegistrySameOrg(address)": {
        "notice": "Validates the initial registry of your own LegalEntity"
      }
    },
    "version": 1
  }
}