{
  "contractName": "RBBRegistry",
  "abi": [
    {
      "inputs": [
        {
          "internalType": "uint256",
          "name": "CNPJSUPADMIN",
          "type": "uint256"
        },
        {
          "internalType": "string",
          "name": "proofHashSUPADMIN",
          "type": "string"
        }
      ],
      "stateMutability": "nonpayable",
      "type": "constructor"
    },
    {
      "anonymous": false,
      "inputs": [
        {
          "indexed": false,
          "internalType": "address",
          "name": "addr",
          "type": "address"
        },
        {
          "indexed": false,
          "internalType": "uint256",
          "name": "RBBId",
          "type": "uint256"
        },
        {
          "indexed": false,
          "internalType": "uint256",
          "name": "CNPJ",
          "type": "uint256"
        },
        {
          "indexed": false,
          "internalType": "address",
          "name": "responsible",
          "type": "address"
        }
      ],
      "name": "AccountInvalidation",
      "type": "event"
    },
    {
      "anonymous": false,
      "inputs": [
        {
          "indexed": false,
          "internalType": "address",
          "name": "addr",
          "type": "address"
        },
        {
          "indexed": false,
          "internalType": "uint256",
          "name": "RBBId",
          "type": "uint256"
        },
        {
          "indexed": false,
          "internalType": "uint256",
          "name": "CNPJ",
          "type": "uint256"
        },
        {
          "indexed": false,
          "internalType": "address",
          "name": "responsible",
          "type": "address"
        }
      ],
      "name": "AccountPaused",
      "type": "event"
    },
    {
      "anonymous": false,
      "inputs": [
        {
          "indexed": false,
          "internalType": "address",
          "name": "addr",
          "type": "address"
        },
        {
          "indexed": false,
          "internalType": "uint256",
          "name": "RBBId",
          "type": "uint256"
        },
        {
          "indexed": false,
          "internalType": "uint256",
          "name": "CNPJ",
          "type": "uint256"
        },
        {
          "indexed": false,
          "internalType": "bytes32",
          "name": "hashProof",
          "type": "bytes32"
        },
        {
          "indexed": false,
          "internalType": "uint256",
          "name": "dateTimeExpiration",
          "type": "uint256"
        }
      ],
      "name": "AccountRegistration",
      "type": "event"
    },
    {
      "anonymous": false,
      "inputs": [
        {
          "indexed": false,
          "internalType": "address",
          "name": "addr",
          "type": "address"
        },
        {
          "indexed": false,
          "internalType": "uint256",
          "name": "RBBId",
          "type": "uint256"
        },
        {
          "indexed": false,
          "internalType": "uint256",
          "name": "CNPJ",
          "type": "uint256"
        },
        {
          "indexed": false,
          "internalType": "address",
          "name": "responsible",
          "type": "address"
        },
        {
          "indexed": false,
          "internalType": "enum RBBRegistry.BlockchainAccountRole",
          "name": "roleBefore",
          "type": "uint8"
        },
        {
          "indexed": false,
          "internalType": "enum RBBRegistry.BlockchainAccountRole",
          "name": "roleNew",
          "type": "uint8"
        }
      ],
      "name": "AccountRoleChange",
      "type": "event"
    },
    {
      "anonymous": false,
      "inputs": [
        {
          "indexed": false,
          "internalType": "address",
          "name": "addr",
          "type": "address"
        },
        {
          "indexed": false,
          "internalType": "uint256",
          "name": "RBBId",
          "type": "uint256"
        },
        {
          "indexed": false,
          "internalType": "uint256",
          "name": "CNPJ",
          "type": "uint256"
        },
        {
          "indexed": false,
          "internalType": "address",
          "name": "responsible",
          "type": "address"
        }
      ],
      "name": "AccountUnpaused",
      "type": "event"
    },
    {
      "anonymous": false,
      "inputs": [
        {
          "indexed": false,
          "internalType": "address",
          "name": "addr",
          "type": "address"
        },
        {
          "indexed": false,
          "internalType": "uint256",
          "name": "RBBId",
          "type": "uint256"
        },
        {
          "indexed": false,
          "internalType": "uint256",
          "name": "CNPJ",
          "type": "uint256"
        },
        {
          "indexed": false,
          "internalType": "address",
          "name": "responsible",
          "type": "address"
        }
      ],
      "name": "AccountValidation",
      "type": "event"
    },
    {
      "anonymous": false,
      "inputs": [
        {
          "indexed": true,
          "internalType": "address",
          "name": "previousOwner",
          "type": "address"
        },
        {
          "indexed": true,
          "internalType": "address",
          "name": "newOwner",
          "type": "address"
        }
      ],
      "name": "OwnershipTransferred",
      "type": "event"
    },
    {
      "anonymous": false,
      "inputs": [
        {
          "indexed": false,
          "internalType": "address",
          "name": "addr",
          "type": "address"
        },
        {
          "indexed": false,
          "internalType": "uint256",
          "name": "dateTimeExpirationBefore",
          "type": "uint256"
        },
        {
          "indexed": false,
          "internalType": "uint256",
          "name": "dateTimeExpirationNew",
          "type": "uint256"
        }
      ],
      "name": "RegistryExpirationChange",
      "type": "event"
    },
    {
      "inputs": [],
      "name": "currentRBBId",
      "outputs": [
        {
          "internalType": "uint256",
          "name": "",
          "type": "uint256"
        }
      ],
      "stateMutability": "view",
      "type": "function",
      "constant": true
    },
    {
      "inputs": [],
      "name": "defaultDateTimeExpiration",
      "outputs": [
        {
          "internalType": "uint256",
          "name": "",
          "type": "uint256"
        }
      ],
      "stateMutability": "view",
      "type": "function",
      "constant": true
    },
    {
      "inputs": [
        {
          "internalType": "address",
          "name": "",
          "type": "address"
        }
      ],
      "name": "legalEntitiesInfo",
      "outputs": [
        {
          "internalType": "uint256",
          "name": "RBBId",
          "type": "uint256"
        },
        {
          "internalType": "uint256",
          "name": "CNPJ",
          "type": "uint256"
        },
        {
          "internalType": "bytes32",
          "name": "hashProof",
          "type": "bytes32"
        },
        {
          "internalType": "enum RBBRegistry.BlockchainAccountState",
          "name": "state",
          "type": "uint8"
        },
        {
          "internalType": "enum RBBRegistry.BlockchainAccountRole",
          "name": "role",
          "type": "uint8"
        },
        {
          "internalType": "bool",
          "name": "paused",
          "type": "bool"
        },
        {
          "internalType": "uint256",
          "name": "dateTimeExpiration",
          "type": "uint256"
        }
      ],
      "stateMutability": "view",
      "type": "function",
      "constant": true
    },
    {
      "inputs": [],
      "name": "owner",
      "outputs": [
        {
          "internalType": "address",
          "name": "",
          "type": "address"
        }
      ],
      "stateMutability": "view",
      "type": "function",
      "constant": true
    },
    {
      "inputs": [],
      "name": "renounceOwnership",
      "outputs": [],
      "stateMutability": "nonpayable",
      "type": "function"
    },
    {
      "inputs": [
        {
          "internalType": "address",
          "name": "newOwner",
          "type": "address"
        }
      ],
      "name": "transferOwnership",
      "outputs": [],
      "stateMutability": "nonpayable",
      "type": "function"
    },
    {
      "inputs": [
        {
          "internalType": "uint256",
          "name": "CNPJ",
          "type": "uint256"
        },
        {
          "internalType": "bytes32",
          "name": "CNPJProofHash",
          "type": "bytes32"
        }
      ],
      "name": "registryLegalEntity",
      "outputs": [],
      "stateMutability": "nonpayable",
      "type": "function"
    },
    {
      "inputs": [
        {
          "internalType": "address",
          "name": "userAddr",
          "type": "address"
        }
      ],
      "name": "validateRegistrySameOrg",
      "outputs": [],
      "stateMutability": "nonpayable",
      "type": "function"
    },
    {
      "inputs": [
        {
          "internalType": "address",
          "name": "userAddr",
          "type": "address"
        }
      ],
      "name": "validateRegistry",
      "outputs": [],
      "stateMutability": "nonpayable",
      "type": "function"
    },
    {
      "inputs": [
        {
          "internalType": "address",
          "name": "addr",
          "type": "address"
        }
      ],
      "name": "pauseAddress",
      "outputs": [],
      "stateMutability": "nonpayable",
      "type": "function"
    },
    {
      "inputs": [
        {
          "internalType": "uint256",
          "name": "CNPJ",
          "type": "uint256"
        }
      ],
      "name": "pauseLegalEntity",
      "outputs": [],
      "stateMutability": "nonpayable",
      "type": "function"
    },
    {
      "inputs": [
        {
          "internalType": "address",
          "name": "addr",
          "type": "address"
        }
      ],
      "name": "unpauseAddress",
      "outputs": [],
      "stateMutability": "nonpayable",
      "type": "function"
    },
    {
      "inputs": [
        {
          "internalType": "address",
          "name": "addr",
          "type": "address"
        }
      ],
      "name": "invalidateRegistry",
      "outputs": [],
      "stateMutability": "nonpayable",
      "type": "function"
    },
    {
      "inputs": [
        {
          "internalType": "address",
          "name": "addr",
          "type": "address"
        }
      ],
      "name": "isResponsibleForRegistryValidation",
      "outputs": [
        {
          "internalType": "bool",
          "name": "",
          "type": "bool"
        }
      ],
      "stateMutability": "view",
      "type": "function",
      "constant": true
    },
    {
      "inputs": [
        {
          "internalType": "address",
          "name": "addr",
          "type": "address"
        }
      ],
      "name": "isOwner",
      "outputs": [
        {
          "internalType": "bool",
          "name": "",
          "type": "bool"
        }
      ],
      "stateMutability": "view",
      "type": "function",
      "constant": true
    },
    {
      "inputs": [
        {
          "internalType": "address",
          "name": "addr",
          "type": "address"
        }
      ],
      "name": "isAvailableAccount",
      "outputs": [
        {
          "internalType": "bool",
          "name": "",
          "type": "bool"
        }
      ],
      "stateMutability": "view",
      "type": "function",
      "constant": true
    },
    {
      "inputs": [
        {
          "internalType": "address",
          "name": "addr",
          "type": "address"
        }
      ],
      "name": "isWaitingValidationAccount",
      "outputs": [
        {
          "internalType": "bool",
          "name": "",
          "type": "bool"
        }
      ],
      "stateMutability": "view",
      "type": "function",
      "constant": true
    },
    {
      "inputs": [
        {
          "internalType": "address",
          "name": "addr",
          "type": "address"
        }
      ],
      "name": "isValidatedAccount",
      "outputs": [
        {
          "internalType": "bool",
          "name": "",
          "type": "bool"
        }
      ],
      "stateMutability": "view",
      "type": "function",
      "constant": true
    },
    {
      "inputs": [
        {
          "internalType": "address",
          "name": "addr",
          "type": "address"
        }
      ],
      "name": "isInvalidated",
      "outputs": [
        {
          "internalType": "bool",
          "name": "",
          "type": "bool"
        }
      ],
      "stateMutability": "view",
      "type": "function",
      "constant": true
    },
    {
      "inputs": [
        {
          "internalType": "address",
          "name": "a",
          "type": "address"
        },
        {
          "internalType": "address",
          "name": "b",
          "type": "address"
        }
      ],
      "name": "isTheSameID",
      "outputs": [
        {
          "internalType": "bool",
          "name": "",
          "type": "bool"
        }
      ],
      "stateMutability": "view",
      "type": "function",
      "constant": true
    },
    {
      "inputs": [
        {
          "internalType": "address",
          "name": "addr",
          "type": "address"
        }
      ],
      "name": "isPaused",
      "outputs": [
        {
          "internalType": "bool",
          "name": "",
          "type": "bool"
        }
      ],
      "stateMutability": "view",
      "type": "function",
      "constant": true
    },
    {
      "inputs": [
        {
          "internalType": "address",
          "name": "addr",
          "type": "address"
        }
      ],
      "name": "isOperational",
      "outputs": [
        {
          "internalType": "bool",
          "name": "",
          "type": "bool"
        }
      ],
      "stateMutability": "view",
      "type": "function",
      "constant": true
    },
    {
      "inputs": [
        {
          "internalType": "uint256",
          "name": "CNPJ",
          "type": "uint256"
        }
      ],
      "name": "isRegistryOperational",
      "outputs": [
        {
          "internalType": "bool",
          "name": "",
          "type": "bool"
        }
      ],
      "stateMutability": "view",
      "type": "function",
      "constant": true
    },
    {
      "inputs": [
        {
          "internalType": "address",
          "name": "addr",
          "type": "address"
        }
      ],
      "name": "getId",
      "outputs": [
        {
          "internalType": "uint256",
          "name": "",
          "type": "uint256"
        }
      ],
      "stateMutability": "view",
      "type": "function",
      "constant": true
    },
    {
      "inputs": [
        {
          "internalType": "address",
          "name": "addr",
          "type": "address"
        }
      ],
      "name": "getRBBId",
      "outputs": [
        {
          "internalType": "uint256",
          "name": "",
          "type": "uint256"
        }
      ],
      "stateMutability": "view",
      "type": "function",
      "constant": true
    },
    {
      "inputs": [
        {
          "internalType": "address",
          "name": "addr",
          "type": "address"
        }
      ],
      "name": "getCNPJ",
      "outputs": [
        {
          "internalType": "uint256",
          "name": "",
          "type": "uint256"
        }
      ],
      "stateMutability": "view",
      "type": "function",
      "constant": true
    },
    {
      "inputs": [
        {
          "internalType": "address",
          "name": "addr",
          "type": "address"
        }
      ],
      "name": "getRegistry",
      "outputs": [
        {
          "internalType": "uint256",
          "name": "",
          "type": "uint256"
        },
        {
          "internalType": "uint256",
          "name": "",
          "type": "uint256"
        },
        {
          "internalType": "bytes32",
          "name": "",
          "type": "bytes32"
        },
        {
          "internalType": "uint256",
          "name": "",
          "type": "uint256"
        },
        {
          "internalType": "uint256",
          "name": "",
          "type": "uint256"
        },
        {
          "internalType": "bool",
          "name": "",
          "type": "bool"
        },
        {
          "internalType": "uint256",
          "name": "",
          "type": "uint256"
        }
      ],
      "stateMutability": "view",
      "type": "function",
      "constant": true
    },
    {
      "inputs": [
        {
          "internalType": "uint256",
          "name": "CNPJ",
          "type": "uint256"
        }
      ],
      "name": "getBlockchainAccounts",
      "outputs": [
        {
          "internalType": "address[]",
          "name": "",
          "type": "address[]"
        }
      ],
      "stateMutability": "view",
      "type": "function",
      "constant": true
    },
    {
      "inputs": [
        {
          "internalType": "address",
          "name": "addr",
          "type": "address"
        }
      ],
      "name": "getAccountState",
      "outputs": [
        {
          "internalType": "int256",
          "name": "",
          "type": "int256"
        }
      ],
      "stateMutability": "view",
      "type": "function",
      "constant": true
    },
    {
      "inputs": [
        {
          "internalType": "address",
          "name": "addr",
          "type": "address"
        }
      ],
      "name": "getAccountRole",
      "outputs": [
        {
          "internalType": "int256",
          "name": "",
          "type": "int256"
        }
      ],
      "stateMutability": "view",
      "type": "function",
      "constant": true
    },
    {
      "inputs": [
        {
          "internalType": "address",
          "name": "addr",
          "type": "address"
        }
      ],
      "name": "setRoleSupAdmin",
      "outputs": [],
      "stateMutability": "nonpayable",
      "type": "function"
    },
    {
      "inputs": [
        {
          "internalType": "uint256",
          "name": "dateTimeExpirationNew",
          "type": "uint256"
        }
      ],
      "name": "setDefaultDateTimeExpiration",
      "outputs": [],
      "stateMutability": "nonpayable",
      "type": "function"
    },
    {
      "inputs": [
        {
          "internalType": "uint256",
          "name": "CNPJ",
          "type": "uint256"
        }
      ],
      "name": "registryMock",
      "outputs": [],
      "stateMutability": "nonpayable",
      "type": "function"
    }
  ],
  "bytecode": "0x608060405260006001556301e133806002553480156200001e57600080fd5b5060405162004d0838038062004d08833981810160405260408110156200004457600080fd5b8101908080519060200190929190805160405193929190846401000000008211156200006f57600080fd5b838201915060208201858111156200008657600080fd5b8251866001820283011164010000000082111715620000a457600080fd5b8083526020830192505050908051906020019080838360005b83811015620000da578082015181840152602081019050620000bd565b50505050905090810190601f168015620001085780820380516001836020036101000a031916815260200191505b50604052505050600062000121620004f460201b60201c565b9050806000806101000a81548173ffffffffffffffffffffffffffffffffffffffff021916908373ffffffffffffffffffffffffffffffffffffffff1602179055508073ffffffffffffffffffffffffffffffffffffffff16600073ffffffffffffffffffffffffffffffffffffffff167f8be0079c531659141344cd1fd0a4f28419497f9722a3daafe3b4186f6b6457e060405160405180910390a3506000339050600073__RBBLib________________________________63592c80ee846040518263ffffffff1660e01b81526004018080602001828103825283818151815260200191508051906020019080838360005b838110156200023257808201518184015260208101905062000215565b50505050905090810190601f168015620002605780820380516001836020036101000a031916815260200191505b509250505060206040518083038186803b1580156200027e57600080fd5b505af415801562000293573d6000803e3d6000fd5b505050506040513d6020811015620002aa57600080fd5b810190808051906020019092919050505090506000600254420190506000620002d8620004fc60201b60201c565b90506040518060e00160405280828152602001878152602001848152602001600260038111156200030557fe5b81526020016002808111156200031757fe5b815260200160001515815260200183815250600360008673ffffffffffffffffffffffffffffffffffffffff1673ffffffffffffffffffffffffffffffffffffffff16815260200190815260200160002060008201518160000155602082015181600101556040820151816002015560608201518160030160006101000a81548160ff02191690836003811115620003ab57fe5b021790555060808201518160030160016101000a81548160ff02191690836002811115620003d557fe5b021790555060a08201518160030160026101000a81548160ff02191690831515021790555060c0820151816004015590505060046000878152602001908152602001600020849080600181540180825580915050600190039060005260206000200160009091909190916101000a81548173ffffffffffffffffffffffffffffffffffffffff021916908373ffffffffffffffffffffffffffffffffffffffff1602179055507f4aa43cf10b603c9a80bec1e701073c460c5378a975e89e185c0bb22ac75e77378482888686604051808673ffffffffffffffffffffffffffffffffffffffff1681526020018581526020018481526020018381526020018281526020019550505050505060405180910390a150505050505062000512565b600033905090565b6000600160008154600101919050819055905090565b6147e680620005226000396000f3fe608060405234801561001057600080fd5b50600436106101fb5760003560e01c806381d66b231161011a578063c616f4c0116100ad578063f2fde38b1161007c578063f2fde38b14610a7d578063f582202714610ac1578063f64e0ae714610b05578063f818f70f14610b5d578063f971d77c14610b7b576101fb565b8063c616f4c0146109bf578063caa7922c146109dd578063e7e4fec814610a21578063e81bb70c14610a4f576101fb565b80639ee2735b116100e95780639ee2735b1461083b578063a3d8845314610893578063bb393086146108ed578063be49b78d14610967576101fb565b806381d66b23146107275780638c879eb11461077f5780638da5cb5b146107ad5780638e97637e146107e1576101fb565b80634646a0c01161019257806365f68c891161016157806365f68c891461063d57806367b0354914610695578063715018a6146106d957806377df472c146106e3576101fb565b80634646a0c01461050d5780634f16ce0c146105455780635b14f183146105895780636426a116146105e3576101fb565b80632f54bf6e116101ce5780632f54bf6e146103bb57806339b38939146104155780633abba2ef14610459578063457385f2146104b3576101fb565b8063087d4427146102005780630bf20e01146102445780630c4471bd146102c757806326ff479414610321575b600080fd5b61022c6004803603602081101561021657600080fd5b8101908080359060200190929190505050610bff565b60405180821515815260200191505060405180910390f35b6102706004803603602081101561025a57600080fd5b8101908080359060200190929190505050610d6e565b6040518080602001828103825283818151815260200191508051906020019060200280838360005b838110156102b3578082015181840152602081019050610298565b505050509050019250505060405180910390f35b610309600480360360208110156102dd57600080fd5b81019080803573ffffffffffffffffffffffffffffffffffffffff169060200190929190505050610e0f565b60405180821515815260200191505060405180910390f35b6103636004803603602081101561033757600080fd5b81019080803573ffffffffffffffffffffffffffffffffffffffff169060200190929190505050610e81565b6040518088815260200187815260200186815260200185600381111561038557fe5b815260200184600281111561039657fe5b8152602001831515815260200182815260200197505050505050505060405180910390f35b6103fd600480360360208110156103d157600080fd5b81019080803573ffffffffffffffffffffffffffffffffffffffff169060200190929190505050610eea565b60405180821515815260200191505060405180910390f35b6104576004803603602081101561042b57600080fd5b81019080803573ffffffffffffffffffffffffffffffffffffffff169060200190929190505050610f29565b005b61049b6004803603602081101561046f57600080fd5b81019080803573ffffffffffffffffffffffffffffffffffffffff169060200190929190505050611287565b60405180821515815260200191505060405180910390f35b6104f5600480360360208110156104c957600080fd5b81019080803573ffffffffffffffffffffffffffffffffffffffff169060200190929190505050611368565b60405180821515815260200191505060405180910390f35b6105436004803603604081101561052357600080fd5b81019080803590602001909291908035906020019092919050505061138c565b005b6105876004803603602081101561055b57600080fd5b81019080803573ffffffffffffffffffffffffffffffffffffffff169060200190929190505050611757565b005b6105cb6004803603602081101561059f57600080fd5b81019080803573ffffffffffffffffffffffffffffffffffffffff169060200190929190505050611d21565b60405180821515815260200191505060405180910390f35b610625600480360360208110156105f957600080fd5b81019080803573ffffffffffffffffffffffffffffffffffffffff169060200190929190505050611d7a565b60405180821515815260200191505060405180910390f35b61067f6004803603602081101561065357600080fd5b81019080803573ffffffffffffffffffffffffffffffffffffffff169060200190929190505050611dec565b6040518082815260200191505060405180910390f35b6106d7600480360360208110156106ab57600080fd5b81019080803573ffffffffffffffffffffffffffffffffffffffff169060200190929190505050611dfe565b005b6106e16122e3565b005b610725600480360360208110156106f957600080fd5b81019080803573ffffffffffffffffffffffffffffffffffffffff169060200190929190505050612469565b005b6107696004803603602081101561073d57600080fd5b81019080803573ffffffffffffffffffffffffffffffffffffffff16906020019092919050505061291a565b6040518082815260200191505060405180910390f35b6107ab6004803603602081101561079557600080fd5b810190808035906020019092919050505061297e565b005b6107b5612f33565b604051808273ffffffffffffffffffffffffffffffffffffffff16815260200191505060405180910390f35b610823600480360360208110156107f757600080fd5b81019080803573ffffffffffffffffffffffffffffffffffffffff169060200190929190505050612f5c565b60405180821515815260200191505060405180910390f35b61087d6004803603602081101561085157600080fd5b81019080803573ffffffffffffffffffffffffffffffffffffffff169060200190929190505050612fcd565b6040518082815260200191505060405180910390f35b6108d5600480360360208110156108a957600080fd5b81019080803573ffffffffffffffffffffffffffffffffffffffff169060200190929190505050613031565b60405180821515815260200191505060405180910390f35b61094f6004803603604081101561090357600080fd5b81019080803573ffffffffffffffffffffffffffffffffffffffff169060200190929190803573ffffffffffffffffffffffffffffffffffffffff1690602001909291905050506130a2565b60405180821515815260200191505060405180910390f35b6109a96004803603602081101561097d57600080fd5b81019080803573ffffffffffffffffffffffffffffffffffffffff169060200190929190505050613133565b6040518082815260200191505060405180910390f35b6109c761317f565b6040518082815260200191505060405180910390f35b610a1f600480360360208110156109f357600080fd5b81019080803573ffffffffffffffffffffffffffffffffffffffff169060200190929190505050613185565b005b610a4d60048036036020811015610a3757600080fd5b81019080803590602001909291905050506135c4565b005b610a7b60048036036020811015610a6557600080fd5b810190808035906020019092919050505061374c565b005b610abf60048036036020811015610a9357600080fd5b81019080803573ffffffffffffffffffffffffffffffffffffffff169060200190929190505050613981565b005b610b0360048036036020811015610ad757600080fd5b81019080803573ffffffffffffffffffffffffffffffffffffffff169060200190929190505050613b8c565b005b610b4760048036036020811015610b1b57600080fd5b81019080803573ffffffffffffffffffffffffffffffffffffffff169060200190929190505050613fb7565b6040518082815260200191505060405180910390f35b610b65614003565b6040518082815260200191505060405180910390f35b610bbd60048036036020811015610b9157600080fd5b81019080803573ffffffffffffffffffffffffffffffffffffffff169060200190929190505050614009565b60405180888152602001878152602001868152602001858152602001848152602001831515815260200182815260200197505050505050505060405180910390f35b6000606060046000848152602001908152602001600020805480602002602001604051908101604052809291908181526020018280548015610c9657602002820191906000526020600020905b8160009054906101000a900473ffffffffffffffffffffffffffffffffffffffff1673ffffffffffffffffffffffffffffffffffffffff1681526020019060010190808311610c4c575b5050505050905060005b8151811015610d6657610cc5828281518110610cb857fe5b6020026020010151611368565b8015610d49575060016002811115610cd957fe5b60036000848481518110610ce957fe5b602002602001015173ffffffffffffffffffffffffffffffffffffffff1673ffffffffffffffffffffffffffffffffffffffff16815260200190815260200160002060030160019054906101000a900460ff166002811115610d4757fe5b145b15610d5957600192505050610d69565b8080600101915050610ca0565b50505b919050565b606060046000838152602001908152602001600020805480602002602001604051908101604052809291908181526020018280548015610e0357602002820191906000526020600020905b8160009054906101000a900473ffffffffffffffffffffffffffffffffffffffff1673ffffffffffffffffffffffffffffffffffffffff1681526020019060010190808311610db9575b50505050509050919050565b600060016003811115610e1e57fe5b600360008473ffffffffffffffffffffffffffffffffffffffff1673ffffffffffffffffffffffffffffffffffffffff16815260200190815260200160002060030160009054906101000a900460ff166003811115610e7957fe5b149050919050565b60036020528060005260406000206000915090508060000154908060010154908060020154908060030160009054906101000a900460ff16908060030160019054906101000a900460ff16908060030160029054906101000a900460ff16908060040154905087565b60008173ffffffffffffffffffffffffffffffffffffffff16610f0b612f33565b73ffffffffffffffffffffffffffffffffffffffff16149050919050565b610f31614158565b73ffffffffffffffffffffffffffffffffffffffff1660008054906101000a900473ffffffffffffffffffffffffffffffffffffffff1673ffffffffffffffffffffffffffffffffffffffff1614610ff1576040517f08c379a00000000000000000000000000000000000000000000000000000000081526004018080602001828103825260208152602001807f4f776e61626c653a2063616c6c6572206973206e6f7420746865206f776e657281525060200191505060405180910390fd5b611002610ffc612f33565b826130a2565b611057576040517f08c379a00000000000000000000000000000000000000000000000000000000081526004018080602001828103825260488152602001806143e56048913960600191505060405180910390fd5b6000600360008373ffffffffffffffffffffffffffffffffffffffff1673ffffffffffffffffffffffffffffffffffffffff16815260200190815260200160002060030160019054906101000a900460ff1690506002600360008473ffffffffffffffffffffffffffffffffffffffff1673ffffffffffffffffffffffffffffffffffffffff16815260200190815260200160002060030160016101000a81548160ff0219169083600281111561110a57fe5b02179055507f13382921d3a6e392cd7bac34288a59fabe1f26f801f24defc12dc8ee3c1fb34b82600360008573ffffffffffffffffffffffffffffffffffffffff1673ffffffffffffffffffffffffffffffffffffffff16815260200190815260200160002060000154600360008673ffffffffffffffffffffffffffffffffffffffff1673ffffffffffffffffffffffffffffffffffffffff168152602001908152602001600020600101543385600360008973ffffffffffffffffffffffffffffffffffffffff1673ffffffffffffffffffffffffffffffffffffffff16815260200190815260200160002060030160019054906101000a900460ff16604051808773ffffffffffffffffffffffffffffffffffffffff1681526020018681526020018581526020018473ffffffffffffffffffffffffffffffffffffffff16815260200183600281111561125d57fe5b815260200182600281111561126e57fe5b8152602001965050505050505060405180910390a15050565b60006001600281111561129657fe5b600360008473ffffffffffffffffffffffffffffffffffffffff1673ffffffffffffffffffffffffffffffffffffffff16815260200190815260200160002060030160019054906101000a900460ff1660028111156112f157fe5b1480611361575060028081111561130457fe5b600360008473ffffffffffffffffffffffffffffffffffffffff1673ffffffffffffffffffffffffffffffffffffffff16815260200190815260200160002060030160019054906101000a900460ff16600281111561135f57fe5b145b9050919050565b600061137382611d7a565b8015611385575061138382611d21565b155b9050919050565b6000339050600082905060006002544201905060006113a9614160565b90506113b484613031565b611409576040517f08c379a00000000000000000000000000000000000000000000000000000000081526004018080602001828103825260358152602001806146016035913960400191505060405180910390fd5b6000801b831415611543576040518060e001604052808281526020018781526020018481526020016001600381111561143e57fe5b81526020016000600281111561145057fe5b815260200160001515815260200183815250600360008673ffffffffffffffffffffffffffffffffffffffff1673ffffffffffffffffffffffffffffffffffffffff16815260200190815260200160002060008201518160000155602082015181600101556040820151816002015560608201518160030160006101000a81548160ff021916908360038111156114e357fe5b021790555060808201518160030160016101000a81548160ff0219169083600281111561150c57fe5b021790555060a08201518160030160026101000a81548160ff02191690831515021790555060c0820151816004015590505061166e565b6040518060e001604052808281526020018781526020018481526020016001600381111561156d57fe5b81526020016001600281111561157f57fe5b815260200160001515815260200183815250600360008673ffffffffffffffffffffffffffffffffffffffff1673ffffffffffffffffffffffffffffffffffffffff16815260200190815260200160002060008201518160000155602082015181600101556040820151816002015560608201518160030160006101000a81548160ff0219169083600381111561161257fe5b021790555060808201518160030160016101000a81548160ff0219169083600281111561163b57fe5b021790555060a08201518160030160026101000a81548160ff02191690831515021790555060c082015181600401559050505b60046000878152602001908152602001600020849080600181540180825580915050600190039060005260206000200160009091909190916101000a81548173ffffffffffffffffffffffffffffffffffffffff021916908373ffffffffffffffffffffffffffffffffffffffff1602179055507f4aa43cf10b603c9a80bec1e701073c460c5378a975e89e185c0bb22ac75e77378482888686604051808673ffffffffffffffffffffffffffffffffffffffff1681526020018581526020018481526020018381526020018281526020019550505050505060405180910390a1505050505050565b600360003373ffffffffffffffffffffffffffffffffffffffff1673ffffffffffffffffffffffffffffffffffffffff16815260200190815260200160002060030160029054906101000a900460ff16156117fd576040517f08c379a000000000000000000000000000000000000000000000000000000000815260040180806020018281038252602b8152602001806141cf602b913960400191505060405180910390fd5b42600360003373ffffffffffffffffffffffffffffffffffffffff1673ffffffffffffffffffffffffffffffffffffffff1681526020019081526020016000206004015411611897576040517f08c379a00000000000000000000000000000000000000000000000000000000081526004018080602001828103825260478152602001806146366047913960600191505060405180910390fd5b60003390508173ffffffffffffffffffffffffffffffffffffffff168173ffffffffffffffffffffffffffffffffffffffff161415611921576040517f08c379a00000000000000000000000000000000000000000000000000000000081526004018080602001828103825260448152602001806142306044913960600191505060405180910390fd5b6001600281111561192e57fe5b600360008373ffffffffffffffffffffffffffffffffffffffff1673ffffffffffffffffffffffffffffffffffffffff16815260200190815260200160002060030160019054906101000a900460ff16600281111561198957fe5b146119df576040517f08c379a00000000000000000000000000000000000000000000000000000000081526004018080602001828103825260368152602001806146d96036913960400191505060405180910390fd5b6119e981836130a2565b611a3e576040517f08c379a000000000000000000000000000000000000000000000000000000000815260040180806020018281038252604c81526020018061458b604c913960600191505060405180910390fd5b60006002811115611a4b57fe5b600360008473ffffffffffffffffffffffffffffffffffffffff1673ffffffffffffffffffffffffffffffffffffffff16815260200190815260200160002060030160019054906101000a900460ff166002811115611aa657fe5b14611afc576040517f08c379a000000000000000000000000000000000000000000000000000000000815260040180806020018281038252603281526020018061470f6032913960400191505060405180910390fd5b60016003811115611b0957fe5b600360008473ffffffffffffffffffffffffffffffffffffffff1673ffffffffffffffffffffffffffffffffffffffff16815260200190815260200160002060030160009054906101000a900460ff166003811115611b6457fe5b14611bba576040517f08c379a000000000000000000000000000000000000000000000000000000000815260040180806020018281038252604081526020018061445a6040913960400191505060405180910390fd5b6002600360008473ffffffffffffffffffffffffffffffffffffffff1673ffffffffffffffffffffffffffffffffffffffff16815260200190815260200160002060030160006101000a81548160ff02191690836003811115611c1957fe5b02179055507f073fc7b5012ce389e8ee332d8cb39b41a44a08b42ee9260a78dd3a757a66c11182600360008573ffffffffffffffffffffffffffffffffffffffff1673ffffffffffffffffffffffffffffffffffffffff16815260200190815260200160002060000154600360008673ffffffffffffffffffffffffffffffffffffffff1673ffffffffffffffffffffffffffffffffffffffff1681526020019081526020016000206001015484604051808573ffffffffffffffffffffffffffffffffffffffff1681526020018481526020018381526020018273ffffffffffffffffffffffffffffffffffffffff16815260200194505050505060405180910390a15050565b6000600360008373ffffffffffffffffffffffffffffffffffffffff1673ffffffffffffffffffffffffffffffffffffffff16815260200190815260200160002060030160029054906101000a900460ff169050919050565b600060026003811115611d8957fe5b600360008473ffffffffffffffffffffffffffffffffffffffff1673ffffffffffffffffffffffffffffffffffffffff16815260200190815260200160002060030160009054906101000a900460ff166003811115611de457fe5b149050919050565b6000611df782613fb7565b9050919050565b600360003373ffffffffffffffffffffffffffffffffffffffff1673ffffffffffffffffffffffffffffffffffffffff16815260200190815260200160002060030160029054906101000a900460ff1615611ea4576040517f08c379a000000000000000000000000000000000000000000000000000000000815260040180806020018281038252602b8152602001806141cf602b913960400191505060405180910390fd5b42600360003373ffffffffffffffffffffffffffffffffffffffff1673ffffffffffffffffffffffffffffffffffffffff1681526020019081526020016000206004015411611f3e576040517f08c379a00000000000000000000000000000000000000000000000000000000081526004018080602001828103825260478152602001806146366047913960600191505060405180910390fd5b600033905060016002811115611f5057fe5b600360008373ffffffffffffffffffffffffffffffffffffffff1673ffffffffffffffffffffffffffffffffffffffff16815260200190815260200160002060030160019054906101000a900460ff166002811115611fab57fe5b14612001576040517f08c379a000000000000000000000000000000000000000000000000000000000815260040180806020018281038252602a8152602001806145d7602a913960400191505060405180910390fd5b60028081111561200d57fe5b600360008473ffffffffffffffffffffffffffffffffffffffff1673ffffffffffffffffffffffffffffffffffffffff16815260200190815260200160002060030160019054906101000a900460ff16600281111561206857fe5b14156120bf576040517f08c379a000000000000000000000000000000000000000000000000000000000815260040180806020018281038252602981526020018061431c6029913960400191505060405180910390fd5b6003808111156120cb57fe5b600360008473ffffffffffffffffffffffffffffffffffffffff1673ffffffffffffffffffffffffffffffffffffffff16815260200190815260200160002060030160009054906101000a900460ff16600381111561212657fe5b141561217d576040517f08c379a00000000000000000000000000000000000000000000000000000000081526004018080602001828103825260238152602001806143c26023913960400191505060405180910390fd5b60038060008473ffffffffffffffffffffffffffffffffffffffff1673ffffffffffffffffffffffffffffffffffffffff16815260200190815260200160002060030160006101000a81548160ff021916908360038111156121db57fe5b02179055507fe54094ed206f2d050c7d5065f566c98e3c67d5f94c76971e8e73b392f8314ae282600360008573ffffffffffffffffffffffffffffffffffffffff1673ffffffffffffffffffffffffffffffffffffffff16815260200190815260200160002060000154600360008673ffffffffffffffffffffffffffffffffffffffff1673ffffffffffffffffffffffffffffffffffffffff1681526020019081526020016000206001015484604051808573ffffffffffffffffffffffffffffffffffffffff1681526020018481526020018381526020018273ffffffffffffffffffffffffffffffffffffffff16815260200194505050505060405180910390a15050565b6122eb614158565b73ffffffffffffffffffffffffffffffffffffffff1660008054906101000a900473ffffffffffffffffffffffffffffffffffffffff1673ffffffffffffffffffffffffffffffffffffffff16146123ab576040517f08c379a00000000000000000000000000000000000000000000000000000000081526004018080602001828103825260208152602001807f4f776e61626c653a2063616c6c6572206973206e6f7420746865206f776e657281525060200191505060405180910390fd5b600073ffffffffffffffffffffffffffffffffffffffff1660008054906101000a900473ffffffffffffffffffffffffffffffffffffffff1673ffffffffffffffffffffffffffffffffffffffff167f8be0079c531659141344cd1fd0a4f28419497f9722a3daafe3b4186f6b6457e060405160405180910390a360008060006101000a81548173ffffffffffffffffffffffffffffffffffffffff021916908373ffffffffffffffffffffffffffffffffffffffff160217905550565b600360003373ffffffffffffffffffffffffffffffffffffffff1673ffffffffffffffffffffffffffffffffffffffff16815260200190815260200160002060030160029054906101000a900460ff161561250f576040517f08c379a000000000000000000000000000000000000000000000000000000000815260040180806020018281038252602b8152602001806141cf602b913960400191505060405180910390fd5b600033905060028081111561252057fe5b600360008473ffffffffffffffffffffffffffffffffffffffff1673ffffffffffffffffffffffffffffffffffffffff16815260200190815260200160002060030160019054906101000a900460ff16600281111561257b57fe5b14156125d2576040517f08c379a00000000000000000000000000000000000000000000000000000000081526004018080602001828103825260268152602001806145386026913960400191505060405180910390fd5b6125dc81836130a2565b8061264b57506002808111156125ee57fe5b600360008373ffffffffffffffffffffffffffffffffffffffff1673ffffffffffffffffffffffffffffffffffffffff16815260200190815260200160002060030160019054906101000a900460ff16600281111561264957fe5b145b6126a0576040517f08c379a000000000000000000000000000000000000000000000000000000000815260040180806020018281038252605581526020018061449a6055913960600191505060405180910390fd5b6126a982611d7a565b6126fe576040517f08c379a000000000000000000000000000000000000000000000000000000000815260040180806020018281038252602a815260200180614741602a913960400191505060405180910390fd5b6002600381111561270b57fe5b600360008373ffffffffffffffffffffffffffffffffffffffff1673ffffffffffffffffffffffffffffffffffffffff16815260200190815260200160002060030160009054906101000a900460ff16600381111561276657fe5b146127bc576040517f08c379a000000000000000000000000000000000000000000000000000000000815260040180806020018281038252602d81526020018061442d602d913960400191505060405180910390fd5b6001600360008473ffffffffffffffffffffffffffffffffffffffff1673ffffffffffffffffffffffffffffffffffffffff16815260200190815260200160002060030160026101000a81548160ff0219169083151502179055507feab44e925fe37efdf7a6b9681f2daf982a47f4e64e2d592e8ee4309b986df6a782600360008573ffffffffffffffffffffffffffffffffffffffff1673ffffffffffffffffffffffffffffffffffffffff16815260200190815260200160002060000154600360008673ffffffffffffffffffffffffffffffffffffffff1673ffffffffffffffffffffffffffffffffffffffff1681526020019081526020016000206001015484604051808573ffffffffffffffffffffffffffffffffffffffff1681526020018481526020018381526020018273ffffffffffffffffffffffffffffffffffffffff16815260200194505050505060405180910390a15050565b6000600360008373ffffffffffffffffffffffffffffffffffffffff1673ffffffffffffffffffffffffffffffffffffffff16815260200190815260200160002060030160019054906101000a900460ff16600281111561297757fe5b9050919050565b600360003373ffffffffffffffffffffffffffffffffffffffff1673ffffffffffffffffffffffffffffffffffffffff16815260200190815260200160002060030160029054906101000a900460ff1615612a24576040517f08c379a000000000000000000000000000000000000000000000000000000000815260040180806020018281038252602b8152602001806141cf602b913960400191505060405180910390fd5b6000339050606060046000848152602001908152602001600020805480602002602001604051908101604052809291908181526020018280548015612abe57602002820191906000526020600020905b8160009054906101000a900473ffffffffffffffffffffffffffffffffffffffff1673ffffffffffffffffffffffffffffffffffffffff1681526020019060010190808311612a74575b5050505050905060026003811115612ad257fe5b600360008473ffffffffffffffffffffffffffffffffffffffff1673ffffffffffffffffffffffffffffffffffffffff16815260200190815260200160002060030160009054906101000a900460ff166003811115612b2d57fe5b14612b83576040517f08c379a000000000000000000000000000000000000000000000000000000000815260040180806020018281038252602d81526020018061442d602d913960400191505060405180910390fd5b60016002811115612b9057fe5b600360008473ffffffffffffffffffffffffffffffffffffffff1673ffffffffffffffffffffffffffffffffffffffff16815260200190815260200160002060030160019054906101000a900460ff166002811115612beb57fe5b1480612c5b5750600280811115612bfe57fe5b600360008473ffffffffffffffffffffffffffffffffffffffff1673ffffffffffffffffffffffffffffffffffffffff16815260200190815260200160002060030160019054906101000a900460ff166002811115612c5957fe5b145b612cb0576040517f08c379a00000000000000000000000000000000000000000000000000000000081526004018080602001828103825260378152602001806142746037913960400191505060405180910390fd5b612cce8282600081518110612cc157fe5b60200260200101516130a2565b80612d3d5750600280811115612ce057fe5b600360008473ffffffffffffffffffffffffffffffffffffffff1673ffffffffffffffffffffffffffffffffffffffff16815260200190815260200160002060030160019054906101000a900460ff166002811115612d3b57fe5b145b612d92576040517f08c379a00000000000000000000000000000000000000000000000000000000081526004018080602001828103825260498152602001806144ef6049913960600191505060405180910390fd5b60005b8151811015612f2d576000828281518110612dac57fe5b60200260200101519050612dbf81611d7a565b15612f1f576001600360008373ffffffffffffffffffffffffffffffffffffffff1673ffffffffffffffffffffffffffffffffffffffff16815260200190815260200160002060030160026101000a81548160ff0219169083151502179055507feab44e925fe37efdf7a6b9681f2daf982a47f4e64e2d592e8ee4309b986df6a781600360008473ffffffffffffffffffffffffffffffffffffffff1673ffffffffffffffffffffffffffffffffffffffff16815260200190815260200160002060000154600360008573ffffffffffffffffffffffffffffffffffffffff1673ffffffffffffffffffffffffffffffffffffffff1681526020019081526020016000206001015487604051808573ffffffffffffffffffffffffffffffffffffffff1681526020018481526020018381526020018273ffffffffffffffffffffffffffffffffffffffff16815260200194505050505060405180910390a15b508080600101915050612d95565b50505050565b60008060009054906101000a900473ffffffffffffffffffffffffffffffffffffffff16905090565b6000600380811115612f6a57fe5b600360008473ffffffffffffffffffffffffffffffffffffffff1673ffffffffffffffffffffffffffffffffffffffff16815260200190815260200160002060030160009054906101000a900460ff166003811115612fc557fe5b149050919050565b6000600360008373ffffffffffffffffffffffffffffffffffffffff1673ffffffffffffffffffffffffffffffffffffffff16815260200190815260200160002060030160009054906101000a900460ff16600381111561302a57fe5b9050919050565b600080600381111561303f57fe5b600360008473ffffffffffffffffffffffffffffffffffffffff1673ffffffffffffffffffffffffffffffffffffffff16815260200190815260200160002060030160009054906101000a900460ff16600381111561309a57fe5b149050919050565b6000600360008373ffffffffffffffffffffffffffffffffffffffff1673ffffffffffffffffffffffffffffffffffffffff16815260200190815260200160002060010154600360008573ffffffffffffffffffffffffffffffffffffffff1673ffffffffffffffffffffffffffffffffffffffff1681526020019081526020016000206001015414905092915050565b6000600360008373ffffffffffffffffffffffffffffffffffffffff1673ffffffffffffffffffffffffffffffffffffffff168152602001908152602001600020600101549050919050565b60015481565b42600360003373ffffffffffffffffffffffffffffffffffffffff1673ffffffffffffffffffffffffffffffffffffffff168152602001908152602001600020600401541161321f576040517f08c379a00000000000000000000000000000000000000000000000000000000081526004018080602001828103825260478152602001806146366047913960600191505060405180910390fd5b600033905060028081111561323057fe5b600360008373ffffffffffffffffffffffffffffffffffffffff1673ffffffffffffffffffffffffffffffffffffffff16815260200190815260200160002060030160019054906101000a900460ff16600281111561328b57fe5b146132e1576040517f08c379a00000000000000000000000000000000000000000000000000000000081526004018080602001828103825260318152602001806146a86031913960400191505060405180910390fd5b600160028111156132ee57fe5b600360008473ffffffffffffffffffffffffffffffffffffffff1673ffffffffffffffffffffffffffffffffffffffff16815260200190815260200160002060030160019054906101000a900460ff16600281111561334957fe5b1461339f576040517f08c379a000000000000000000000000000000000000000000000000000000000815260040180806020018281038252602b81526020018061467d602b913960400191505060405180910390fd5b600160038111156133ac57fe5b600360008473ffffffffffffffffffffffffffffffffffffffff1673ffffffffffffffffffffffffffffffffffffffff16815260200190815260200160002060030160009054906101000a900460ff16600381111561340757fe5b1461345d576040517f08c379a00000000000000000000000000000000000000000000000000000000081526004018080602001828103825260368152602001806141fa6036913960400191505060405180910390fd5b6002600360008473ffffffffffffffffffffffffffffffffffffffff1673ffffffffffffffffffffffffffffffffffffffff16815260200190815260200160002060030160006101000a81548160ff021916908360038111156134bc57fe5b02179055507f073fc7b5012ce389e8ee332d8cb39b41a44a08b42ee9260a78dd3a757a66c11182600360008573ffffffffffffffffffffffffffffffffffffffff1673ffffffffffffffffffffffffffffffffffffffff16815260200190815260200160002060000154600360008673ffffffffffffffffffffffffffffffffffffffff1673ffffffffffffffffffffffffffffffffffffffff1681526020019081526020016000206001015484604051808573ffffffffffffffffffffffffffffffffffffffff1681526020018481526020018381526020018273ffffffffffffffffffffffffffffffffffffffff16815260200194505050505060405180910390a15050565b6002808111156135d057fe5b600360003373ffffffffffffffffffffffffffffffffffffffff1673ffffffffffffffffffffffffffffffffffffffff16815260200190815260200160002060030160019054906101000a900460ff16600281111561362b57fe5b14613681576040517f08c379a000000000000000000000000000000000000000000000000000000000815260040180806020018281038252604b8152602001806142d1604b913960600191505060405180910390fd5b60008110156136db576040517f08c379a000000000000000000000000000000000000000000000000000000000815260040180806020018281038252603c815260200180614345603c913960400191505060405180910390fd5b60006002549050816002819055507f33e73778e90a0a7d35d5d4332f4668b1fcff659529950c30f760a39ba49fafec3382600254604051808473ffffffffffffffffffffffffffffffffffffffff168152602001838152602001828152602001935050505060405180910390a15050565b600033905060008060001b905060006401000000009050600061376d614160565b90506040518060e001604052808281526020018681526020018481526020016002600381111561379957fe5b8152602001600160028111156137ab57fe5b815260200160001515815260200183815250600360008673ffffffffffffffffffffffffffffffffffffffff1673ffffffffffffffffffffffffffffffffffffffff16815260200190815260200160002060008201518160000155602082015181600101556040820151816002015560608201518160030160006101000a81548160ff0219169083600381111561383e57fe5b021790555060808201518160030160016101000a81548160ff0219169083600281111561386757fe5b021790555060a08201518160030160026101000a81548160ff02191690831515021790555060c0820151816004015590505060046000868152602001908152602001600020849080600181540180825580915050600190039060005260206000200160009091909190916101000a81548173ffffffffffffffffffffffffffffffffffffffff021916908373ffffffffffffffffffffffffffffffffffffffff1602179055507f4aa43cf10b603c9a80bec1e701073c460c5378a975e89e185c0bb22ac75e77378482878686604051808673ffffffffffffffffffffffffffffffffffffffff1681526020018581526020018481526020018381526020018281526020019550505050505060405180910390a15050505050565b613989614158565b73ffffffffffffffffffffffffffffffffffffffff1660008054906101000a900473ffffffffffffffffffffffffffffffffffffffff1673ffffffffffffffffffffffffffffffffffffffff1614613a49576040517f08c379a00000000000000000000000000000000000000000000000000000000081526004018080602001828103825260208152602001807f4f776e61626c653a2063616c6c6572206973206e6f7420746865206f776e657281525060200191505060405180910390fd5b600073ffffffffffffffffffffffffffffffffffffffff168173ffffffffffffffffffffffffffffffffffffffff161415613acf576040517f08c379a00000000000000000000000000000000000000000000000000000000081526004018080602001828103825260268152602001806142ab6026913960400191505060405180910390fd5b8073ffffffffffffffffffffffffffffffffffffffff1660008054906101000a900473ffffffffffffffffffffffffffffffffffffffff1673ffffffffffffffffffffffffffffffffffffffff167f8be0079c531659141344cd1fd0a4f28419497f9722a3daafe3b4186f6b6457e060405160405180910390a3806000806101000a81548173ffffffffffffffffffffffffffffffffffffffff021916908373ffffffffffffffffffffffffffffffffffffffff16021790555050565b600360003373ffffffffffffffffffffffffffffffffffffffff1673ffffffffffffffffffffffffffffffffffffffff16815260200190815260200160002060030160029054906101000a900460ff1615613c32576040517f08c379a000000000000000000000000000000000000000000000000000000000815260040180806020018281038252602b8152602001806141cf602b913960400191505060405180910390fd5b42600360003373ffffffffffffffffffffffffffffffffffffffff1673ffffffffffffffffffffffffffffffffffffffff1681526020019081526020016000206004015411613ccc576040517f08c379a00000000000000000000000000000000000000000000000000000000081526004018080602001828103825260478152602001806146366047913960600191505060405180910390fd5b60003390508173ffffffffffffffffffffffffffffffffffffffff168173ffffffffffffffffffffffffffffffffffffffff161415613d56576040517f08c379a00000000000000000000000000000000000000000000000000000000081526004018080602001828103825260418152602001806143816041913960600191505060405180910390fd5b613d5f81611287565b613db4576040517f08c379a000000000000000000000000000000000000000000000000000000000815260040180806020018281038252604681526020018061476b6046913960600191505060405180910390fd5b600360008373ffffffffffffffffffffffffffffffffffffffff1673ffffffffffffffffffffffffffffffffffffffff16815260200190815260200160002060030160029054906101000a900460ff16613e59576040517f08c379a000000000000000000000000000000000000000000000000000000000815260040180806020018281038252602d81526020018061455e602d913960400191505060405180910390fd5b6000600360008473ffffffffffffffffffffffffffffffffffffffff1673ffffffffffffffffffffffffffffffffffffffff16815260200190815260200160002060030160026101000a81548160ff0219169083151502179055507fede461371ad2055987ffee3f03ac6bbad8c1e32130b99e9a87eaff68abdef50c82600360008573ffffffffffffffffffffffffffffffffffffffff1673ffffffffffffffffffffffffffffffffffffffff16815260200190815260200160002060000154600360008673ffffffffffffffffffffffffffffffffffffffff1673ffffffffffffffffffffffffffffffffffffffff1681526020019081526020016000206001015484604051808573ffffffffffffffffffffffffffffffffffffffff1681526020018481526020018381526020018273ffffffffffffffffffffffffffffffffffffffff16815260200194505050505060405180910390a15050565b6000600360008373ffffffffffffffffffffffffffffffffffffffff1673ffffffffffffffffffffffffffffffffffffffff168152602001908152602001600020600001549050919050565b60025481565b600080600080600080600061401c614176565b600360008a73ffffffffffffffffffffffffffffffffffffffff1673ffffffffffffffffffffffffffffffffffffffff1681526020019081526020016000206040518060e00160405290816000820154815260200160018201548152602001600282015481526020016003820160009054906101000a900460ff1660038111156140a257fe5b60038111156140ad57fe5b81526020016003820160019054906101000a900460ff1660028111156140cf57fe5b60028111156140da57fe5b81526020016003820160029054906101000a900460ff1615151515815260200160048201548152505090508060000151816020015182604001518360600151600381111561412457fe5b8460800151600281111561413457fe5b8560a001518660c00151975097509750975097509750975050919395979092949650565b600033905090565b6000600160008154600101919050819055905090565b6040518060e00160405280600081526020016000815260200160008019168152602001600060038111156141a657fe5b8152602001600060028111156141b857fe5b815260200160001515815260200160008152509056fe4170656e6173207175656d206ec3a36f20657374c3a1207061757361646120706f646520616365737361724120636f6e74612070726563697361206573746172206e6f2065737461646f20416775617264616e646f2056616c696461c3a7c3a36f4f20726573706f6e73c3a176656c2070656c612076616c696461c3a7c3a36f206ec3a36f20706f64652076616c6964617220737561207072c3b37072696120636f6e74614f20726573706f6e73c3a176656c206465766520706f737375697220756d6120636f6e74612041444d494e206f752053555041444d494e4f776e61626c653a206e6577206f776e657220697320746865207a65726f20616464726573734170656e6173206f2053555041444d494e20706f646520646566696e6972206e6f766f2074656d706f20646520657870697261c3a7c3a36f206465206e6f766f7320726567697374726f734120636f6e74612053555041444d494e206ec3a36f20706f64652073657220696e76616c69646164614f2074656d706f2061206578706972617220756d20726567697374726f206465766520736572206d61696f72206f7520696775616c2061207a65726f556d6120706573736f61206ec3a36f20c3a920636170617a2064652072657469726172206f20706175736520646520737561207072c3b37072696120636f6e74614120636f6e746120666f6920696e76616c6964616461207072657669616d656e74652e4f776e65722073c3b320706f646572c3a1206174726962756972206f20706170656c2064652053555041444d494e207061726120636f6e74617320646f206d65736d6f20434e504a4f20726573706f6e73c3a176656c206465766520706f737375697220756d6120636f6e74612056c3a16c6964614120636f6e746120612076616c696461722070726563697361206573746172206e6f2065737461646f20416775617264616e646f2056616c696461c3a7c3a36f536f6d656e746520706f64652070617573617220756d6120636f6e7461207175656d20666f72206461206d65736d61206f7267616e697a61c3a7c3a36f206f752053797374656d2041646d696e6973747261746f72536f6d656e746520706f64652070617573617220756d6120636f6e7461207175656d20666f72206461206d65736d61206f7267616e697a61c3a7c3a36f206f752053555041444d494e4120636f6e74612053555041444d494e206ec3a36f20706f6465207365722070617573616461536f6d656e746520756d6120636f6e7461207061757361646120706f64652073657220646573706175736164614f20726573706f6e73c3a176656c2070656c612076616c696461c3a7c3a36f206465766520736572206461206d65736d61206f7267616e697a61c3a7c3a36f20286d65736d6f20434e504a294170656e617320636f6e74612041444d494e20706f646520696e76616c6964617220636f6e7461732e20456e64657265c3a76f206ec3a36f20706f646520746572207369646f206361646173747261646f20616e746572696f726d656e74654170656e617320636f6e74617320636f6d206465636c617261c3a7c3b565732063756a6f7320636572746966696361646f732061696e64612073c3a36f2076c3a16c69646f732e4120636f6e746120612076616c69646172206465766520746572206f20706170656c2064652041444d494e4f20726573706f6e73c3a176656c2070656c612076616c696461c3a7c3a36f2064657665207365722053555041444d494e4f20726573706f6e73c3a176656c2070656c612076616c696461c3a7c3a36f206465766520746572206f20706170656c2041444d494e4f20757375c3a172696f2061207365722076616c696461646f206465766520746572206f20706170656c20524547554c4152536f6d656e746520756d6120636f6e74612076c3a16c69646120706f6465207365722070617573616461536f6d656e746520756d6120636f6e746120726573706f6e73c3a176656c2076616c696461646f726120706f646520646573706175736172206f757472617320636f6e746173a264697066735822122022c53c7f0d9428bc01673fa2893ee863a6acb8d9088b4cda08e6dcf5abaf1fc364736f6c634300060c0033",
  "immutableReferences": {},
  "source": "pragma solidity ^0.6.0;\r\n\r\nimport \"@openzeppelin/contracts/access/Ownable.sol\";\r\nimport \"./RBBLib.sol\";\r\n\r\ncontract RBBRegistry is Ownable() {\r\n\r\n    enum BlockchainAccountState {AVAILABLE,WAITING_VALIDATION,VALIDATED,INVALIDATED}\r\n    BlockchainAccountState blockchainState; /* Variable not used, only defined to create the enum type. */\r\n                                \r\n    /**\r\n    REGULAR  - operates \r\n    ADMIN    - validates the regular.\r\n    SUPADMIN - validates the ADMIN. Contract Owner can set multiple SUPADMINs (including himself, machines and human accounts).\r\n     */\r\n    enum BlockchainAccountRole {REGULAR, ADMIN, SUPADMIN} \r\n    BlockchainAccountRole blockchainRole;  /* Variable not used, only defined to create the enum type. */\r\n\r\n    /* This is a helper variable to emulate a sequence and autoincrement Ids*/\r\n    uint public currentRBBId = 0;\r\n\r\n     /**\r\n        This registry is about a company representative information\r\n     */    \r\n    struct Registry {\r\n        uint RBBId; //Unique ID for RBB \r\n        uint CNPJ; //Brazilian identification of legal entity\r\n        bytes32 hashProof; //hash of declaration\r\n        BlockchainAccountState state;\r\n        BlockchainAccountRole role;\r\n        bool paused;\r\n        uint256 dateTimeExpiration; //vai ser outro momento de expirao diferente do ECNPJ\r\n    }\r\n\r\n    uint256 public defaultDateTimeExpiration = 365 days; \r\n\r\n    /**\r\n        Links Ethereum addresses to Registry\r\n     */\r\n    mapping(address => Registry) public legalEntitiesInfo;\r\n\r\n    /**\r\n        Links CNPJ to Ethereum addresses.\r\n     */\r\n    mapping(uint => address[]) legalEntityId_To_Addr;\r\n\r\n    event AccountRegistration       (address addr, uint RBBId, uint CNPJ, bytes32 hashProof, uint256 dateTimeExpiration);\r\n    event AccountValidation         (address addr, uint RBBId, uint CNPJ, address responsible);\r\n    event AccountInvalidation       (address addr, uint RBBId, uint CNPJ, address responsible);\r\n    event AccountPaused             (address addr, uint RBBId, uint CNPJ, address responsible);\r\n    event AccountUnpaused           (address addr, uint RBBId, uint CNPJ, address responsible);\r\n    event AccountRoleChange         (address addr, uint RBBId, uint CNPJ, address responsible, BlockchainAccountRole roleBefore, BlockchainAccountRole roleNew);\r\n    event RegistryExpirationChange  (address addr, uint256 dateTimeExpirationBefore, uint256 dateTimeExpirationNew);\r\n\r\n    /* The responsible for the System-Admin is the Owner. It could be or not be the same address (SUPADMIN=owner) */\r\n    constructor (uint CNPJSUPADMIN, string memory proofHashSUPADMIN) public {                \r\n        address addrSUPADMIN = msg.sender;\r\n        bytes32 proofHash = RBBLib.stringBytes32(proofHashSUPADMIN);\r\n        uint256 dateTimeExpiration = now + defaultDateTimeExpiration;\r\n        uint RBBId = getNextRBBId();\r\n        legalEntitiesInfo[addrSUPADMIN] = Registry( RBBId, \r\n                                                    CNPJSUPADMIN, \r\n                                                    proofHash, \r\n                                                    BlockchainAccountState.VALIDATED, \r\n                                                    BlockchainAccountRole.SUPADMIN, \r\n                                                    false, \r\n                                                    dateTimeExpiration     );\r\n        legalEntityId_To_Addr[CNPJSUPADMIN].push(addrSUPADMIN);\r\n        emit AccountRegistration(addrSUPADMIN, RBBId, CNPJSUPADMIN, proofHash, dateTimeExpiration); \r\n        \r\n    }\r\n\r\n   /**\r\n    * Link blockchain address with CNPJ\r\n    * @param CNPJ Brazilian identifier to legal entities\r\n    * @param CNPJProofHash The legal entities have to send BNDES a PDF where it assumes as responsible for an Ethereum account.\r\n    *                   This PDF is signed with eCNPJ and send to BNDES.\r\n    */\r\n    function registryLegalEntity(uint CNPJ, bytes32 CNPJProofHash) public {\r\n        \r\n        address addr = msg.sender;\r\n        bytes32 proofHash = CNPJProofHash;\r\n        uint256 dateTimeExpiration = now + defaultDateTimeExpiration;\r\n        uint RBBId = getNextRBBId();\r\n\r\n        require (isAvailableAccount(addr), \"Endereo no pode ter sido cadastrado anteriormente\");\r\n\r\n        if ( proofHash == 0 ) { \r\n            legalEntitiesInfo[addr] = Registry( RBBId,\r\n                                                CNPJ, \r\n                                                proofHash, \r\n                                                BlockchainAccountState.WAITING_VALIDATION, \r\n                                                BlockchainAccountRole.REGULAR,\r\n                                                false,\r\n                                                dateTimeExpiration );\r\n        } else {\r\n            legalEntitiesInfo[addr] = Registry( RBBId,\r\n                                                CNPJ, \r\n                                                proofHash, \r\n                                                BlockchainAccountState.WAITING_VALIDATION, \r\n                                                BlockchainAccountRole.ADMIN,\r\n                                                false,\r\n                                                dateTimeExpiration );\r\n        }\r\n\r\n        legalEntityId_To_Addr[CNPJ].push(addr);\r\n\r\n        emit AccountRegistration(addr, RBBId, CNPJ, proofHash, dateTimeExpiration);\r\n    }\r\n\r\n    modifier onlyWhenNotPaused() { \r\n        require( ! legalEntitiesInfo[msg.sender].paused , \"Apenas quem no est pausada pode acessar\" );\r\n        _;\r\n    }\r\n\r\n    modifier onlyWhenNotExpired() { \r\n        require( legalEntitiesInfo[msg.sender].dateTimeExpiration > now , \"Apenas contas com declaraes cujos certificados ainda so vlidos.\" );\r\n        _;\r\n    }\r\n\r\n   /**\r\n    * Validates the initial registry of your own LegalEntity\r\n    * @param userAddr Ethereum address that needs to be validated\r\n    */\r\n    function validateRegistrySameOrg(address userAddr) public onlyWhenNotPaused onlyWhenNotExpired {\r\n\r\n        address responsible = msg.sender;\r\n\r\n        require ( responsible != userAddr, \"O responsvel pela validao no pode validar sua prpria conta\");\r\n\r\n        require ( legalEntitiesInfo[responsible].role == BlockchainAccountRole.ADMIN , \r\n                   \"O responsvel pela validao deve ter o papel ADMIN\" );\r\n\r\n        require ( isTheSameID(responsible, userAddr) , \r\n                   \"O responsvel pela validao deve ser da mesma organizao (mesmo CNPJ)\" );\r\n\r\n        require ( legalEntitiesInfo[userAddr].role == BlockchainAccountRole.REGULAR , \r\n                   \"O usurio a ser validado deve ter o papel REGULAR\" );\r\n\r\n\r\n        require( legalEntitiesInfo[userAddr].state == BlockchainAccountState.WAITING_VALIDATION,\r\n                   \"A conta a validar precisa estar no estado Aguardando Validao\");\r\n\r\n        legalEntitiesInfo[userAddr].state = BlockchainAccountState.VALIDATED;\r\n\r\n        emit AccountValidation( userAddr, \r\n                                legalEntitiesInfo[userAddr].RBBId, \r\n                                legalEntitiesInfo[userAddr].CNPJ, \r\n                                responsible);\r\n    }\r\n\r\n/**\r\n    * Validates the initial registry of others LegalEntities\r\n    * @param userAddr Ethereum address that needs to be validated\r\n    */\r\n    function validateRegistry(address userAddr) public onlyWhenNotExpired {\r\n\r\n        address responsible = msg.sender;\r\n        \r\n        require ( legalEntitiesInfo[responsible].role == BlockchainAccountRole.SUPADMIN \r\n            , \"O responsvel pela validao deve ser SUPADMIN\" );\r\n\r\n        require ( legalEntitiesInfo[userAddr].role == BlockchainAccountRole.ADMIN  \r\n            , \"A conta a validar deve ter o papel de ADMIN\" );\r\n\r\n        require(legalEntitiesInfo[userAddr].state == BlockchainAccountState.WAITING_VALIDATION,\r\n            \"A conta precisa estar no estado Aguardando Validao\");\r\n\r\n        legalEntitiesInfo[userAddr].state = BlockchainAccountState.VALIDATED;\r\n\r\n        emit AccountValidation( userAddr, \r\n                                legalEntitiesInfo[userAddr].RBBId, \r\n                                legalEntitiesInfo[userAddr].CNPJ, \r\n                                responsible);\r\n    }    \r\n\r\n/**\r\n    * Pause an account     \r\n    * @param addr Ethereum address that needs to be paused\r\n    */\r\n    function pauseAddress(address addr) public onlyWhenNotPaused {\r\n\r\n        address responsible = msg.sender;\r\n\r\n        require ( legalEntitiesInfo[addr].role != BlockchainAccountRole.SUPADMIN , \"A conta SUPADMIN no pode ser pausada\");\r\n        require( isTheSameID(responsible, addr) || legalEntitiesInfo[responsible].role == BlockchainAccountRole.SUPADMIN, \"Somente pode pausar uma conta quem for da mesma organizao ou System Administrator\" );\r\n        require( isValidatedAccount(addr) , \"Somente uma conta vlida pode ser pausada\");\r\n        require( legalEntitiesInfo[responsible].state == BlockchainAccountState.VALIDATED, \"O responsvel deve possuir uma conta Vlida\" );\r\n\r\n        legalEntitiesInfo[addr].paused = true;\r\n        \r\n        emit AccountPaused( addr, \r\n                            legalEntitiesInfo[addr].RBBId,\r\n                            legalEntitiesInfo[addr].CNPJ, \r\n                            responsible);\r\n    }\r\n\r\n    function pauseLegalEntity(uint CNPJ) public onlyWhenNotPaused {\r\n\r\n        address responsible = msg.sender;\r\n        address[] memory addresses  = legalEntityId_To_Addr[CNPJ];\r\n\r\n        require( legalEntitiesInfo[responsible].state == BlockchainAccountState.VALIDATED, \"O responsvel deve possuir uma conta Vlida\" );\r\n        require( ( legalEntitiesInfo[responsible].role == BlockchainAccountRole.ADMIN \r\n                    || legalEntitiesInfo[responsible].role == BlockchainAccountRole.SUPADMIN ), \"O responsvel deve possuir uma conta ADMIN ou SUPADMIN\" );\r\n        require( isTheSameID(responsible, addresses[0]) \r\n                    || legalEntitiesInfo[responsible].role == BlockchainAccountRole.SUPADMIN , \"Somente pode pausar uma conta quem for da mesma organizao ou SUPADMIN\" );\r\n\r\n        for (uint i=0; i < addresses.length ; i++) {\r\n            address candidate = addresses[i];\r\n            if( isValidatedAccount( candidate ) ) {\r\n                legalEntitiesInfo[candidate].paused = true;\r\n                emit AccountPaused( candidate, \r\n                                    legalEntitiesInfo[candidate].RBBId,\r\n                                    legalEntitiesInfo[candidate].CNPJ, \r\n                                    responsible );\r\n            }\r\n        }   \r\n    }\r\n\r\n/**\r\n    * Unpause an account     \r\n    * @param addr Ethereum address that needs to be validated\r\n    */\r\n    function unpauseAddress(address addr) public onlyWhenNotPaused onlyWhenNotExpired {\r\n\r\n        address responsible = msg.sender;\r\n\r\n        require ( responsible != addr , \"Uma pessoa no  capaz de retirar o pause de sua prpria conta\");\r\n        require( isResponsibleForRegistryValidation(responsible) , \"Somente uma conta responsvel validadora pode despausar outras contas\" );        \r\n        require( legalEntitiesInfo[addr].paused  , \"Somente uma conta pausada pode ser despausada\" ); \r\n\r\n        legalEntitiesInfo[addr].paused = false;\r\n        \r\n        emit AccountUnpaused(   addr, \r\n                                legalEntitiesInfo[addr].RBBId,\r\n                                legalEntitiesInfo[addr].CNPJ, \r\n                                responsible);\r\n    }\r\n\r\n   /**\r\n    * Invalidates the initial registry of a legal entity or the change of its registry\r\n    * The invalidation can be called at any time in the lifecycle of the address (not only when it is WAITING_VALIDATION)\r\n    * @param addr Ethereum address that needs to be validated\r\n    */\r\n    function invalidateRegistry(address addr) public onlyWhenNotPaused onlyWhenNotExpired {\r\n\r\n        address responsible = msg.sender;\r\n\r\n        require( legalEntitiesInfo[responsible].role == BlockchainAccountRole.ADMIN, \"Apenas conta ADMIN pode invalidar contas. \");\r\n        require( legalEntitiesInfo[addr].role != BlockchainAccountRole.SUPADMIN , \"A conta SUPADMIN no pode ser invalidada\");\r\n        require( legalEntitiesInfo[addr].state != BlockchainAccountState.INVALIDATED, \"A conta foi invalidada previamente.\" );\r\n\r\n        legalEntitiesInfo[addr].state = BlockchainAccountState.INVALIDATED;\r\n        \r\n        emit AccountInvalidation(   addr, \r\n                                    legalEntitiesInfo[addr].RBBId, \r\n                                    legalEntitiesInfo[addr].CNPJ, \r\n                                    responsible );\r\n    }\r\n\r\n    function isResponsibleForRegistryValidation(address addr) public view returns (bool) {\r\n        return ( legalEntitiesInfo[addr].role == BlockchainAccountRole.ADMIN || \r\n                 legalEntitiesInfo[addr].role == BlockchainAccountRole.SUPADMIN   );\r\n    }\r\n\r\n    function isOwner(address addr) public view returns (bool) {\r\n        return owner()==addr;\r\n    }\r\n\r\n    function isAvailableAccount(address addr) public view returns (bool) {\r\n        return legalEntitiesInfo[addr].state == BlockchainAccountState.AVAILABLE;\r\n    }\r\n\r\n    function isWaitingValidationAccount(address addr) public view returns (bool) {\r\n        return legalEntitiesInfo[addr].state == BlockchainAccountState.WAITING_VALIDATION;\r\n    }\r\n\r\n    function isValidatedAccount(address addr) public view returns (bool) {\r\n        return legalEntitiesInfo[addr].state == BlockchainAccountState.VALIDATED;\r\n    }\r\n\r\n    function isInvalidated(address addr) public view returns (bool) {\r\n        return legalEntitiesInfo[addr].state == BlockchainAccountState.INVALIDATED;\r\n    }\r\n\r\n    function isTheSameID(address a, address b) public view returns (bool) {\r\n        return legalEntitiesInfo[a].CNPJ == legalEntitiesInfo[b].CNPJ ;\r\n    }\r\n\r\n    function isPaused(address addr) public view returns (bool) {\r\n        return legalEntitiesInfo[addr].paused;\r\n    }\r\n\r\n    function isOperational(address addr) public view returns (bool) {\r\n        return isValidatedAccount(addr) && !isPaused(addr);\r\n    }\r\n\r\n    function isRegistryOperational(uint CNPJ) public view returns (bool) {\r\n        address[] memory addresses  = legalEntityId_To_Addr[CNPJ];\r\n\r\n        for (uint i=0; i < addresses.length ; i++) {\r\n            if (isOperational( addresses[i] ) \r\n                && legalEntitiesInfo[addresses[i]].role == BlockchainAccountRole.ADMIN  ) {\r\n                    return true;\r\n            }\r\n        }\r\n    }\r\n\r\n    function getId (address addr) public view returns (uint) {\r\n        return getRBBId(addr);\r\n    }\r\n\r\n    function getRBBId (address addr) public view returns (uint) {\r\n        return legalEntitiesInfo[addr].RBBId;\r\n    }\r\n\r\n    function getCNPJ (address addr) public view returns (uint) {\r\n        return legalEntitiesInfo[addr].CNPJ;\r\n    }    \r\n\r\n    function getRegistry (address addr) public view returns (uint, uint, bytes32, uint, uint, bool, uint256) {\r\n        Registry memory reg = legalEntitiesInfo[addr];\r\n\r\n        return (  reg.RBBId,\r\n                  reg.CNPJ, \r\n                  reg.hashProof, \r\n                  (uint) (reg.state),\r\n                  (uint) (reg.role),\r\n                  reg.paused,\r\n                  reg.dateTimeExpiration\r\n                );\r\n    }\r\n\r\n    function getBlockchainAccounts(uint CNPJ) public view returns (address[] memory) {\r\n        return legalEntityId_To_Addr[CNPJ];\r\n    }\r\n\r\n    function getAccountState(address addr) public view returns (int) {\r\n        return ((int) (legalEntitiesInfo[addr].state));\r\n    }\r\n\r\n    function getAccountRole(address addr) public view returns (int) {\r\n        return ((int) (legalEntitiesInfo[addr].role));\r\n    }\r\n\r\n   /**\r\n    * The Owner can assign role SUPADMIN to anyone in the same LegalEntity\r\n    * @param addr Ethereum address to be assigned the new role\r\n    */\r\n    function setRoleSupAdmin(address addr) public onlyOwner {\r\n        require ( isTheSameID( owner(), addr ), \"Owner s poder atribuir o papel de SUPADMIN para contas do mesmo CNPJ\" );\r\n\r\n        BlockchainAccountRole roleBefore = legalEntitiesInfo[addr].role;\r\n        legalEntitiesInfo[addr].role     = BlockchainAccountRole.SUPADMIN;                \r\n\r\n        emit AccountRoleChange(   addr, \r\n                                  legalEntitiesInfo[addr].RBBId, \r\n                                  legalEntitiesInfo[addr].CNPJ, \r\n                                  msg.sender,\r\n                                  roleBefore, \r\n                                  legalEntitiesInfo[addr].role  );\r\n    }\r\n\r\n    /**\r\n    * The Owner can assign new default expiration time for future registries\r\n    * @param dateTimeExpirationNew the new default expiration time \r\n    */\r\n    function setDefaultDateTimeExpiration(uint256 dateTimeExpirationNew) public {\r\n\r\n        require( legalEntitiesInfo[msg.sender].role == BlockchainAccountRole.SUPADMIN, \"Apenas o SUPADMIN pode definir novo tempo de expirao de novos registros\");\r\n\r\n        require(dateTimeExpirationNew >= 0, \"O tempo a expirar um registro deve ser maior ou igual a zero\");\r\n\r\n        uint256 dateTimeExpirationOld = defaultDateTimeExpiration;\r\n        defaultDateTimeExpiration = dateTimeExpirationNew;\r\n        \r\n        emit RegistryExpirationChange(   msg.sender, \r\n                                         dateTimeExpirationOld, \r\n                                         defaultDateTimeExpiration );        \r\n    }\r\n\r\n    function getNextRBBId() private returns (uint) {\r\n        return ++currentRBBId;\r\n    } \r\n\r\n    function registryMock(uint CNPJ) public {\r\n        \r\n        address addr = msg.sender;\r\n        bytes32 proofHash = 0;\r\n        uint256 dateTimeExpiration = 4294967296; //2106 = 2^32 (Max 2^256 -1)\r\n        uint RBBId = getNextRBBId();\r\n        legalEntitiesInfo[addr] = Registry( RBBId, \r\n                                            CNPJ, \r\n                                            proofHash, \r\n                                            BlockchainAccountState.VALIDATED, \r\n                                            BlockchainAccountRole.ADMIN, \r\n                                            false,\r\n                                            dateTimeExpiration );\r\n\r\n        legalEntityId_To_Addr[CNPJ].push(addr);\r\n\r\n        emit AccountRegistration(addr, RBBId, CNPJ, proofHash, dateTimeExpiration);\r\n    }  \r\n \r\n\r\n}",
  "sourcePath": "D:/git/rbb-identificacao/Back-Blockchain/contracts/RBBRegistry.sol",
  "compiler": {
    "name": "solc",
    "version": "0.6.12+commit.27d51765.Emscripten.clang"
  },
  "schemaVersion": "3.2.5",
  "updatedAt": "2020-10-02T19:42:55.289Z",
  "networkType": "ethereum",
  "devdoc": {
    "kind": "dev",
    "methods": {
      "invalidateRegistry(address)": {
        "params": {
          "addr": "Ethereum address that needs to be validated"
        }
      },
      "owner()": {
        "details": "Returns the address of the current owner."
      },
      "pauseAddress(address)": {
        "params": {
          "addr": "Ethereum address that needs to be paused"
        }
      },
      "registryLegalEntity(uint256,bytes32)": {
        "params": {
          "CNPJ": "Brazilian identifier to legal entities",
          "CNPJProofHash": "The legal entities have to send BNDES a PDF where it assumes as responsible for an Ethereum account.                   This PDF is signed with eCNPJ and send to BNDES."
        }
      },
      "renounceOwnership()": {
        "details": "Leaves the contract without owner. It will not be possible to call `onlyOwner` functions anymore. Can only be called by the current owner. NOTE: Renouncing ownership will leave the contract without an owner, thereby removing any functionality that is only available to the owner."
      },
      "setDefaultDateTimeExpiration(uint256)": {
        "params": {
          "dateTimeExpirationNew": "the new default expiration time "
        }
      },
      "setRoleSupAdmin(address)": {
        "params": {
          "addr": "Ethereum address to be assigned the new role"
        }
      },
      "transferOwnership(address)": {
        "details": "Transfers ownership of the contract to a new account (`newOwner`). Can only be called by the current owner."
      },
      "unpauseAddress(address)": {
        "params": {
          "addr": "Ethereum address that needs to be validated"
        }
      },
      "validateRegistry(address)": {
        "params": {
          "userAddr": "Ethereum address that needs to be validated"
        }
      },
      "validateRegistrySameOrg(address)": {
        "params": {
          "userAddr": "Ethereum address that needs to be validated"
        }
      }
    },
    "version": 1
  },
  "userdoc": {
    "kind": "user",
    "methods": {
      "invalidateRegistry(address)": {
        "notice": "Invalidates the initial registry of a legal entity or the change of its registry The invalidation can be called at any time in the lifecycle of the address (not only when it is WAITING_VALIDATION)"
      },
      "legalEntitiesInfo(address)": {
        "notice": "Links Ethereum addresses to Registry"
      },
      "pauseAddress(address)": {
        "notice": "Pause an account     "
      },
      "registryLegalEntity(uint256,bytes32)": {
        "notice": "Link blockchain address with CNPJ"
      },
      "setDefaultDateTimeExpiration(uint256)": {
        "notice": "The Owner can assign new default expiration time for future registries"
      },
      "setRoleSupAdmin(address)": {
        "notice": "The Owner can assign role SUPADMIN to anyone in the same LegalEntity"
      },
      "unpauseAddress(address)": {
        "notice": "Unpause an account     "
      },
      "validateRegistry(address)": {
        "notice": "Validates the initial registry of others LegalEntities"
      },
      "validateRegistrySameOrg(address)": {
        "notice": "Validates the initial registry of your own LegalEntity"
      }
    },
    "version": 1
  }
}