{
  "contractName": "RBBRegistry",
  "abi": [
    {
      "inputs": [],
      "stateMutability": "nonpayable",
      "type": "constructor"
    },
    {
      "anonymous": false,
      "inputs": [
        {
          "indexed": false,
          "internalType": "address",
          "name": "addr",
          "type": "address"
        },
        {
          "indexed": false,
          "internalType": "uint256",
          "name": "RBBId",
          "type": "uint256"
        },
        {
          "indexed": false,
          "internalType": "uint256",
          "name": "CNPJ",
          "type": "uint256"
        },
        {
          "indexed": false,
          "internalType": "address",
          "name": "responsible",
          "type": "address"
        },
        {
          "indexed": false,
          "internalType": "uint8",
          "name": "reason",
          "type": "uint8"
        }
      ],
      "name": "AccountInvalidation",
      "type": "event"
    },
    {
      "anonymous": false,
      "inputs": [
        {
          "indexed": false,
          "internalType": "address",
          "name": "addr",
          "type": "address"
        },
        {
          "indexed": false,
          "internalType": "uint256",
          "name": "RBBId",
          "type": "uint256"
        },
        {
          "indexed": false,
          "internalType": "uint256",
          "name": "CNPJ",
          "type": "uint256"
        },
        {
          "indexed": false,
          "internalType": "address",
          "name": "responsible",
          "type": "address"
        },
        {
          "indexed": false,
          "internalType": "uint8",
          "name": "reason",
          "type": "uint8"
        }
      ],
      "name": "AccountPaused",
      "type": "event"
    },
    {
      "anonymous": false,
      "inputs": [
        {
          "indexed": false,
          "internalType": "address",
          "name": "addr",
          "type": "address"
        },
        {
          "indexed": false,
          "internalType": "string",
          "name": "hashProof",
          "type": "string"
        },
        {
          "indexed": false,
          "internalType": "uint256",
          "name": "dateTimeExpiration",
          "type": "uint256"
        }
      ],
      "name": "AccountReactivation",
      "type": "event"
    },
    {
      "anonymous": false,
      "inputs": [
        {
          "indexed": false,
          "internalType": "address",
          "name": "addr",
          "type": "address"
        },
        {
          "indexed": false,
          "internalType": "uint256",
          "name": "RBBId",
          "type": "uint256"
        },
        {
          "indexed": false,
          "internalType": "uint256",
          "name": "CNPJ",
          "type": "uint256"
        },
        {
          "indexed": false,
          "internalType": "string",
          "name": "hashProof",
          "type": "string"
        },
        {
          "indexed": false,
          "internalType": "uint256",
          "name": "dateTimeExpiration",
          "type": "uint256"
        }
      ],
      "name": "AccountRegistration",
      "type": "event"
    },
    {
      "anonymous": false,
      "inputs": [
        {
          "indexed": false,
          "internalType": "address",
          "name": "addr",
          "type": "address"
        },
        {
          "indexed": false,
          "internalType": "uint256",
          "name": "RBBId",
          "type": "uint256"
        },
        {
          "indexed": false,
          "internalType": "uint256",
          "name": "CNPJ",
          "type": "uint256"
        },
        {
          "indexed": false,
          "internalType": "address",
          "name": "responsible",
          "type": "address"
        },
        {
          "indexed": false,
          "internalType": "enum RBBRegistry.BlockchainAccountRole",
          "name": "roleBefore",
          "type": "uint8"
        },
        {
          "indexed": false,
          "internalType": "enum RBBRegistry.BlockchainAccountRole",
          "name": "roleNew",
          "type": "uint8"
        }
      ],
      "name": "AccountRoleChange",
      "type": "event"
    },
    {
      "anonymous": false,
      "inputs": [
        {
          "indexed": false,
          "internalType": "address",
          "name": "addr",
          "type": "address"
        },
        {
          "indexed": false,
          "internalType": "uint256",
          "name": "RBBId",
          "type": "uint256"
        },
        {
          "indexed": false,
          "internalType": "uint256",
          "name": "CNPJ",
          "type": "uint256"
        },
        {
          "indexed": false,
          "internalType": "address",
          "name": "responsible",
          "type": "address"
        },
        {
          "indexed": false,
          "internalType": "uint8",
          "name": "reason",
          "type": "uint8"
        }
      ],
      "name": "AccountUnpaused",
      "type": "event"
    },
    {
      "anonymous": false,
      "inputs": [
        {
          "indexed": false,
          "internalType": "address",
          "name": "addr",
          "type": "address"
        },
        {
          "indexed": false,
          "internalType": "uint256",
          "name": "RBBId",
          "type": "uint256"
        },
        {
          "indexed": false,
          "internalType": "uint256",
          "name": "CNPJ",
          "type": "uint256"
        },
        {
          "indexed": false,
          "internalType": "address",
          "name": "responsible",
          "type": "address"
        }
      ],
      "name": "AccountValidation",
      "type": "event"
    },
    {
      "anonymous": false,
      "inputs": [
        {
          "indexed": true,
          "internalType": "address",
          "name": "previousOwner",
          "type": "address"
        },
        {
          "indexed": true,
          "internalType": "address",
          "name": "newOwner",
          "type": "address"
        }
      ],
      "name": "OwnershipTransferred",
      "type": "event"
    },
    {
      "anonymous": false,
      "inputs": [
        {
          "indexed": false,
          "internalType": "address",
          "name": "addr",
          "type": "address"
        },
        {
          "indexed": false,
          "internalType": "uint256",
          "name": "dateTimeExpirationBefore",
          "type": "uint256"
        },
        {
          "indexed": false,
          "internalType": "uint256",
          "name": "dateTimeExpirationNew",
          "type": "uint256"
        }
      ],
      "name": "RegistryExpirationChange",
      "type": "event"
    },
    {
      "anonymous": false,
      "inputs": [
        {
          "indexed": false,
          "internalType": "address",
          "name": "rs",
          "type": "address"
        }
      ],
      "name": "RoleDefinitionActingAfterMonitoring",
      "type": "event"
    },
    {
      "anonymous": false,
      "inputs": [
        {
          "indexed": false,
          "internalType": "address",
          "name": "rs",
          "type": "address"
        }
      ],
      "name": "RoleDefinitionRegistryValidation",
      "type": "event"
    },
    {
      "inputs": [
        {
          "internalType": "uint256",
          "name": "",
          "type": "uint256"
        }
      ],
      "name": "CNPJ_RBBId",
      "outputs": [
        {
          "internalType": "uint256",
          "name": "",
          "type": "uint256"
        }
      ],
      "stateMutability": "view",
      "type": "function"
    },
    {
      "inputs": [
        {
          "internalType": "uint256",
          "name": "",
          "type": "uint256"
        },
        {
          "internalType": "uint256",
          "name": "",
          "type": "uint256"
        }
      ],
      "name": "RBBId_addresses",
      "outputs": [
        {
          "internalType": "address",
          "name": "",
          "type": "address"
        }
      ],
      "stateMutability": "view",
      "type": "function"
    },
    {
      "inputs": [],
      "name": "currentRBBId",
      "outputs": [
        {
          "internalType": "uint256",
          "name": "",
          "type": "uint256"
        }
      ],
      "stateMutability": "view",
      "type": "function"
    },
    {
      "inputs": [],
      "name": "defaultDeltaDateTimeExpiration",
      "outputs": [
        {
          "internalType": "uint256",
          "name": "",
          "type": "uint256"
        }
      ],
      "stateMutability": "view",
      "type": "function"
    },
    {
      "inputs": [
        {
          "internalType": "address",
          "name": "",
          "type": "address"
        }
      ],
      "name": "legalEntitiesInfo",
      "outputs": [
        {
          "internalType": "uint256",
          "name": "RBBId",
          "type": "uint256"
        },
        {
          "internalType": "uint256",
          "name": "CNPJ",
          "type": "uint256"
        },
        {
          "internalType": "string",
          "name": "hashProof",
          "type": "string"
        },
        {
          "internalType": "enum RBBRegistry.BlockchainAccountState",
          "name": "state",
          "type": "uint8"
        },
        {
          "internalType": "enum RBBRegistry.BlockchainAccountRole",
          "name": "role",
          "type": "uint8"
        },
        {
          "internalType": "bool",
          "name": "paused",
          "type": "bool"
        },
        {
          "internalType": "uint256",
          "name": "dateTimeExpiration",
          "type": "uint256"
        }
      ],
      "stateMutability": "view",
      "type": "function"
    },
    {
      "inputs": [],
      "name": "owner",
      "outputs": [
        {
          "internalType": "address",
          "name": "",
          "type": "address"
        }
      ],
      "stateMutability": "view",
      "type": "function"
    },
    {
      "inputs": [],
      "name": "renounceOwnership",
      "outputs": [],
      "stateMutability": "nonpayable",
      "type": "function"
    },
    {
      "inputs": [],
      "name": "responsibleForActingAfterMonitoring",
      "outputs": [
        {
          "internalType": "address",
          "name": "",
          "type": "address"
        }
      ],
      "stateMutability": "view",
      "type": "function"
    },
    {
      "inputs": [],
      "name": "responsibleForRegistryValidation",
      "outputs": [
        {
          "internalType": "address",
          "name": "",
          "type": "address"
        }
      ],
      "stateMutability": "view",
      "type": "function"
    },
    {
      "inputs": [
        {
          "internalType": "address",
          "name": "newOwner",
          "type": "address"
        }
      ],
      "name": "transferOwnership",
      "outputs": [],
      "stateMutability": "nonpayable",
      "type": "function"
    },
    {
      "inputs": [
        {
          "internalType": "address",
          "name": "rs",
          "type": "address"
        }
      ],
      "name": "setResponsibleForRegistryValidation",
      "outputs": [],
      "stateMutability": "nonpayable",
      "type": "function"
    },
    {
      "inputs": [
        {
          "internalType": "address",
          "name": "rs",
          "type": "address"
        }
      ],
      "name": "setResponsibleForActingAfterMonitoring",
      "outputs": [],
      "stateMutability": "nonpayable",
      "type": "function"
    },
    {
      "inputs": [
        {
          "internalType": "uint256",
          "name": "CNPJ",
          "type": "uint256"
        },
        {
          "internalType": "string",
          "name": "proofHash",
          "type": "string"
        }
      ],
      "name": "registryLegalEntity",
      "outputs": [],
      "stateMutability": "nonpayable",
      "type": "function"
    },
    {
      "inputs": [
        {
          "internalType": "address",
          "name": "userAddr",
          "type": "address"
        }
      ],
      "name": "validateRegistrySameOrg",
      "outputs": [],
      "stateMutability": "nonpayable",
      "type": "function"
    },
    {
      "inputs": [
        {
          "internalType": "address",
          "name": "userAddr",
          "type": "address"
        }
      ],
      "name": "validateRegistry",
      "outputs": [],
      "stateMutability": "nonpayable",
      "type": "function"
    },
    {
      "inputs": [
        {
          "internalType": "address",
          "name": "addr",
          "type": "address"
        }
      ],
      "name": "pauseAddress",
      "outputs": [],
      "stateMutability": "nonpayable",
      "type": "function"
    },
    {
      "inputs": [
        {
          "internalType": "address",
          "name": "addr",
          "type": "address"
        }
      ],
      "name": "pauseAddressAfterMonitoring",
      "outputs": [],
      "stateMutability": "nonpayable",
      "type": "function"
    },
    {
      "inputs": [
        {
          "internalType": "uint256",
          "name": "RBBId",
          "type": "uint256"
        }
      ],
      "name": "pauseLegalEntity",
      "outputs": [],
      "stateMutability": "nonpayable",
      "type": "function"
    },
    {
      "inputs": [
        {
          "internalType": "uint256",
          "name": "RBBId",
          "type": "uint256"
        }
      ],
      "name": "pauseLegalEntityAfterMonitoring",
      "outputs": [],
      "stateMutability": "nonpayable",
      "type": "function"
    },
    {
      "inputs": [
        {
          "internalType": "address",
          "name": "addr",
          "type": "address"
        }
      ],
      "name": "unpauseAddress",
      "outputs": [],
      "stateMutability": "nonpayable",
      "type": "function"
    },
    {
      "inputs": [
        {
          "internalType": "address",
          "name": "addr",
          "type": "address"
        }
      ],
      "name": "unpauseAddressAfterMonitoring",
      "outputs": [],
      "stateMutability": "nonpayable",
      "type": "function"
    },
    {
      "inputs": [
        {
          "internalType": "address",
          "name": "addr",
          "type": "address"
        }
      ],
      "name": "invalidateRegistrySameOrg",
      "outputs": [],
      "stateMutability": "nonpayable",
      "type": "function"
    },
    {
      "inputs": [
        {
          "internalType": "address",
          "name": "addr",
          "type": "address"
        }
      ],
      "name": "invalidateRegistry",
      "outputs": [],
      "stateMutability": "nonpayable",
      "type": "function"
    },
    {
      "inputs": [
        {
          "internalType": "address",
          "name": "addr",
          "type": "address"
        }
      ],
      "name": "invalidateRegistryAfterMonitoring",
      "outputs": [],
      "stateMutability": "nonpayable",
      "type": "function"
    },
    {
      "inputs": [
        {
          "internalType": "string",
          "name": "hashProof",
          "type": "string"
        }
      ],
      "name": "reactiveLegalEntity",
      "outputs": [],
      "stateMutability": "nonpayable",
      "type": "function"
    },
    {
      "inputs": [
        {
          "internalType": "address",
          "name": "addr",
          "type": "address"
        }
      ],
      "name": "isOwner",
      "outputs": [
        {
          "internalType": "bool",
          "name": "",
          "type": "bool"
        }
      ],
      "stateMutability": "view",
      "type": "function"
    },
    {
      "inputs": [
        {
          "internalType": "address",
          "name": "addr",
          "type": "address"
        }
      ],
      "name": "isAvailableAccount",
      "outputs": [
        {
          "internalType": "bool",
          "name": "",
          "type": "bool"
        }
      ],
      "stateMutability": "view",
      "type": "function"
    },
    {
      "inputs": [
        {
          "internalType": "address",
          "name": "addr",
          "type": "address"
        }
      ],
      "name": "isWaitingValidationAccount",
      "outputs": [
        {
          "internalType": "bool",
          "name": "",
          "type": "bool"
        }
      ],
      "stateMutability": "view",
      "type": "function"
    },
    {
      "inputs": [
        {
          "internalType": "address",
          "name": "addr",
          "type": "address"
        }
      ],
      "name": "isValidatedAccount",
      "outputs": [
        {
          "internalType": "bool",
          "name": "",
          "type": "bool"
        }
      ],
      "stateMutability": "view",
      "type": "function"
    },
    {
      "inputs": [
        {
          "internalType": "address",
          "name": "addr",
          "type": "address"
        }
      ],
      "name": "isInvalidated",
      "outputs": [
        {
          "internalType": "bool",
          "name": "",
          "type": "bool"
        }
      ],
      "stateMutability": "view",
      "type": "function"
    },
    {
      "inputs": [
        {
          "internalType": "address",
          "name": "a",
          "type": "address"
        },
        {
          "internalType": "address",
          "name": "b",
          "type": "address"
        }
      ],
      "name": "isTheSameID",
      "outputs": [
        {
          "internalType": "bool",
          "name": "",
          "type": "bool"
        }
      ],
      "stateMutability": "view",
      "type": "function"
    },
    {
      "inputs": [
        {
          "internalType": "address",
          "name": "addr",
          "type": "address"
        }
      ],
      "name": "isPaused",
      "outputs": [
        {
          "internalType": "bool",
          "name": "",
          "type": "bool"
        }
      ],
      "stateMutability": "view",
      "type": "function"
    },
    {
      "inputs": [
        {
          "internalType": "address",
          "name": "addr",
          "type": "address"
        }
      ],
      "name": "isOperational",
      "outputs": [
        {
          "internalType": "bool",
          "name": "",
          "type": "bool"
        }
      ],
      "stateMutability": "view",
      "type": "function"
    },
    {
      "inputs": [
        {
          "internalType": "address",
          "name": "addr",
          "type": "address"
        }
      ],
      "name": "isAdmin",
      "outputs": [
        {
          "internalType": "bool",
          "name": "",
          "type": "bool"
        }
      ],
      "stateMutability": "view",
      "type": "function"
    },
    {
      "inputs": [
        {
          "internalType": "uint256",
          "name": "RBBId",
          "type": "uint256"
        }
      ],
      "name": "isRegistryOperational",
      "outputs": [
        {
          "internalType": "bool",
          "name": "",
          "type": "bool"
        }
      ],
      "stateMutability": "view",
      "type": "function"
    },
    {
      "inputs": [
        {
          "internalType": "address",
          "name": "addr",
          "type": "address"
        }
      ],
      "name": "getId",
      "outputs": [
        {
          "internalType": "uint256",
          "name": "",
          "type": "uint256"
        }
      ],
      "stateMutability": "view",
      "type": "function"
    },
    {
      "inputs": [
        {
          "internalType": "address",
          "name": "addr",
          "type": "address"
        }
      ],
      "name": "getRBBIdRaw",
      "outputs": [
        {
          "internalType": "uint256",
          "name": "",
          "type": "uint256"
        }
      ],
      "stateMutability": "view",
      "type": "function"
    },
    {
      "inputs": [
        {
          "internalType": "address",
          "name": "addr",
          "type": "address"
        }
      ],
      "name": "getCNPJ",
      "outputs": [
        {
          "internalType": "uint256",
          "name": "",
          "type": "uint256"
        }
      ],
      "stateMutability": "view",
      "type": "function"
    },
    {
      "inputs": [
        {
          "internalType": "address",
          "name": "addr",
          "type": "address"
        }
      ],
      "name": "getRegistry",
      "outputs": [
        {
          "internalType": "uint256",
          "name": "",
          "type": "uint256"
        },
        {
          "internalType": "uint256",
          "name": "",
          "type": "uint256"
        },
        {
          "internalType": "string",
          "name": "",
          "type": "string"
        },
        {
          "internalType": "uint256",
          "name": "",
          "type": "uint256"
        },
        {
          "internalType": "uint256",
          "name": "",
          "type": "uint256"
        },
        {
          "internalType": "bool",
          "name": "",
          "type": "bool"
        },
        {
          "internalType": "uint256",
          "name": "",
          "type": "uint256"
        }
      ],
      "stateMutability": "view",
      "type": "function"
    },
    {
      "inputs": [
        {
          "internalType": "uint256",
          "name": "RBBId",
          "type": "uint256"
        }
      ],
      "name": "getBlockchainAccounts",
      "outputs": [
        {
          "internalType": "address[]",
          "name": "",
          "type": "address[]"
        }
      ],
      "stateMutability": "view",
      "type": "function"
    },
    {
      "inputs": [
        {
          "internalType": "address",
          "name": "addr",
          "type": "address"
        }
      ],
      "name": "getAccountState",
      "outputs": [
        {
          "internalType": "int256",
          "name": "",
          "type": "int256"
        }
      ],
      "stateMutability": "view",
      "type": "function"
    },
    {
      "inputs": [
        {
          "internalType": "address",
          "name": "addr",
          "type": "address"
        }
      ],
      "name": "getAccountRole",
      "outputs": [
        {
          "internalType": "int256",
          "name": "",
          "type": "int256"
        }
      ],
      "stateMutability": "view",
      "type": "function"
    },
    {
      "inputs": [
        {
          "internalType": "uint256",
          "name": "cnpj",
          "type": "uint256"
        }
      ],
      "name": "getIdFromCNPJ",
      "outputs": [
        {
          "internalType": "uint256",
          "name": "",
          "type": "uint256"
        }
      ],
      "stateMutability": "view",
      "type": "function"
    },
    {
      "inputs": [
        {
          "internalType": "uint256",
          "name": "deltaDateTimeExpirationNew",
          "type": "uint256"
        }
      ],
      "name": "setDefaultDeltaDateTimeExpiration",
      "outputs": [],
      "stateMutability": "nonpayable",
      "type": "function"
    },
    {
      "inputs": [
        {
          "internalType": "uint256",
          "name": "Id",
          "type": "uint256"
        }
      ],
      "name": "getCNPJbyID",
      "outputs": [
        {
          "internalType": "uint256",
          "name": "",
          "type": "uint256"
        }
      ],
      "stateMutability": "view",
      "type": "function"
    },
    {
      "inputs": [
        {
          "internalType": "string",
          "name": "str",
          "type": "string"
        }
      ],
      "name": "isValidHash",
      "outputs": [
        {
          "internalType": "bool",
          "name": "",
          "type": "bool"
        }
      ],
      "stateMutability": "pure",
      "type": "function"
    }
  ],
  "bytecode": "0x608060405260006003556301e133806004553480156200001e57600080fd5b506000620000316200015760201b60201c565b9050806000806101000a81548173ffffffffffffffffffffffffffffffffffffffff021916908373ffffffffffffffffffffffffffffffffffffffff1602179055508073ffffffffffffffffffffffffffffffffffffffff16600073ffffffffffffffffffffffffffffffffffffffff167f8be0079c531659141344cd1fd0a4f28419497f9722a3daafe3b4186f6b6457e060405160405180910390a35033600160006101000a81548173ffffffffffffffffffffffffffffffffffffffff021916908373ffffffffffffffffffffffffffffffffffffffff16021790555033600260006101000a81548173ffffffffffffffffffffffffffffffffffffffff021916908373ffffffffffffffffffffffffffffffffffffffff1602179055506200015f565b600033905090565b61576b806200016f6000396000f3fe608060405234801561001057600080fd5b506004361061028a5760003560e01c8063715018a61161015c578063a3d88453116100ce578063d208665711610087578063d208665714610faf578063ee1244e314610ff1578063f24b1add1461101f578063f2fde38b146110e4578063f582202714611128578063f971d77c1461116c5761028a565b8063a3d8845314610dbf578063b6fc41fa14610e19578063bb39308614610e7b578063be49b78d14610ef5578063c616f4c014610f4d578063caa7922c14610f6b5761028a565b80638c879eb1116101205780638c879eb114610c495780638cbd258f14610c775780638da5cb5b14610cbb5780638e97637e14610cef578063903ecc1914610d495780639ee2735b14610d675761028a565b8063715018a614610b1b57806377df472c14610b255780637abbb59614610b695780637bf0bca614610bad57806381d66b2314610bf15761028a565b8063456ca961116102005780636426a116116101b95780636426a116146108de57806365f68c891461093857806367b03549146109905780636c5eadae146109d45780636d56867114610a085780636edcb12f14610a4a5761028a565b8063456ca96114610740578063457385f2146107745780634dd2d3fb146107ce5780634f16ce0c146107fc5780634f72e059146108405780635b14f183146108845761028a565b806326ff47941161025257806326ff47941461044e5780632dc913a61461054d5780632f54bf6e1461058f57806331cc10ce146105e95780633632091b1461064157806342b0ae50146106fc5761028a565b806307888b081461028f578063087d4427146102d35780630bf20e01146103175780630c4471bd1461039a57806324d7806c146103f4575b600080fd5b6102d1600480360360208110156102a557600080fd5b81019080803573ffffffffffffffffffffffffffffffffffffffff169060200190929190505050611255565b005b6102ff600480360360208110156102e957600080fd5b8101908080359060200190929190505050611368565b60405180821515815260200191505060405180910390f35b6103436004803603602081101561032d57600080fd5b8101908080359060200190929190505050611477565b6040518080602001828103825283818151815260200191508051906020019060200280838360005b8381101561038657808201518184015260208101905061036b565b505050509050019250505060405180910390f35b6103dc600480360360208110156103b057600080fd5b81019080803573ffffffffffffffffffffffffffffffffffffffff169060200190929190505050611518565b60405180821515815260200191505060405180910390f35b6104366004803603602081101561040a57600080fd5b81019080803573ffffffffffffffffffffffffffffffffffffffff16906020019092919050505061158a565b60405180821515815260200191505060405180910390f35b6104906004803603602081101561046457600080fd5b81019080803573ffffffffffffffffffffffffffffffffffffffff1690602001909291905050506115fb565b60405180888152602001878152602001806020018660038111156104b057fe5b81526020018560018111156104c157fe5b81526020018415158152602001838152602001828103825287818151815260200191508051906020019080838360005b8381101561050c5780820151818401526020810190506104f1565b50505050905090810190601f1680156105395780820380516001836020036101000a031916815260200191505b509850505050505050505060405180910390f35b6105796004803603602081101561056357600080fd5b81019080803590602001909291905050506116fc565b6040518082815260200191505060405180910390f35b6105d1600480360360208110156105a557600080fd5b81019080803573ffffffffffffffffffffffffffffffffffffffff169060200190929190505050611714565b60405180821515815260200191505060405180910390f35b61062b600480360360208110156105ff57600080fd5b81019080803573ffffffffffffffffffffffffffffffffffffffff169060200190929190505050611753565b6040518082815260200191505060405180910390f35b6106fa6004803603602081101561065757600080fd5b810190808035906020019064010000000081111561067457600080fd5b82018360208201111561068657600080fd5b803590602001918460018302840111640100000000831117156106a857600080fd5b91908080601f016020809104026020016040519081016040528093929190818152602001838380828437600081840152601f19601f82011690508083019250505050505050919291929050505061179f565b005b61073e6004803603602081101561071257600080fd5b81019080803573ffffffffffffffffffffffffffffffffffffffff169060200190929190505050611aed565b005b610748611ba1565b604051808273ffffffffffffffffffffffffffffffffffffffff16815260200191505060405180910390f35b6107b66004803603602081101561078a57600080fd5b81019080803573ffffffffffffffffffffffffffffffffffffffff169060200190929190505050611bc7565b60405180821515815260200191505060405180910390f35b6107fa600480360360208110156107e457600080fd5b8101908080359060200190929190505050611beb565b005b61083e6004803603602081101561081257600080fd5b81019080803573ffffffffffffffffffffffffffffffffffffffff169060200190929190505050611d24565b005b6108826004803603602081101561085657600080fd5b81019080803573ffffffffffffffffffffffffffffffffffffffff1690602001909291905050506122a2565b005b6108c66004803603602081101561089a57600080fd5b81019080803573ffffffffffffffffffffffffffffffffffffffff169060200190929190505050612431565b60405180821515815260200191505060405180910390f35b610920600480360360208110156108f457600080fd5b81019080803573ffffffffffffffffffffffffffffffffffffffff16906020019092919050505061248a565b60405180821515815260200191505060405180910390f35b61097a6004803603602081101561094e57600080fd5b81019080803573ffffffffffffffffffffffffffffffffffffffff1690602001909291905050506124fc565b6040518082815260200191505060405180910390f35b6109d2600480360360208110156109a657600080fd5b81019080803573ffffffffffffffffffffffffffffffffffffffff169060200190929190505050612571565b005b6109dc61275e565b604051808273ffffffffffffffffffffffffffffffffffffffff16815260200191505060405180910390f35b610a3460048036036020811015610a1e57600080fd5b8101908080359060200190929190505050612784565b6040518082815260200191505060405180910390f35b610b0360048036036020811015610a6057600080fd5b8101908080359060200190640100000000811115610a7d57600080fd5b820183602082011115610a8f57600080fd5b80359060200191846001830284011164010000000083111715610ab157600080fd5b91908080601f016020809104026020016040519081016040528093929190818152602001838380828437600081840152601f19601f8201169050808301925050505050505091929192905050506127a1565b60405180821515815260200191505060405180910390f35b610b23612984565b005b610b6760048036036020811015610b3b57600080fd5b81019080803573ffffffffffffffffffffffffffffffffffffffff169060200190929190505050612b0a565b005b610bab60048036036020811015610b7f57600080fd5b81019080803573ffffffffffffffffffffffffffffffffffffffff169060200190929190505050612e07565b005b610bef60048036036020811015610bc357600080fd5b81019080803573ffffffffffffffffffffffffffffffffffffffff169060200190929190505050612f60565b005b610c3360048036036020811015610c0757600080fd5b81019080803573ffffffffffffffffffffffffffffffffffffffff1690602001909291905050506131ab565b6040518082815260200191505060405180910390f35b610c7560048036036020811015610c5f57600080fd5b810190808035906020019092919050505061320f565b005b610cb960048036036020811015610c8d57600080fd5b81019080803573ffffffffffffffffffffffffffffffffffffffff1690602001909291905050506134a3565b005b610cc36135fc565b604051808273ffffffffffffffffffffffffffffffffffffffff16815260200191505060405180910390f35b610d3160048036036020811015610d0557600080fd5b81019080803573ffffffffffffffffffffffffffffffffffffffff169060200190929190505050613625565b60405180821515815260200191505060405180910390f35b610d51613696565b6040518082815260200191505060405180910390f35b610da960048036036020811015610d7d57600080fd5b81019080803573ffffffffffffffffffffffffffffffffffffffff16906020019092919050505061369c565b6040518082815260200191505060405180910390f35b610e0160048036036020811015610dd557600080fd5b81019080803573ffffffffffffffffffffffffffffffffffffffff169060200190929190505050613700565b60405180821515815260200191505060405180910390f35b610e4f60048036036040811015610e2f57600080fd5b810190808035906020019092919080359060200190929190505050613771565b604051808273ffffffffffffffffffffffffffffffffffffffff16815260200191505060405180910390f35b610edd60048036036040811015610e9157600080fd5b81019080803573ffffffffffffffffffffffffffffffffffffffff169060200190929190803573ffffffffffffffffffffffffffffffffffffffff1690602001909291905050506137bc565b60405180821515815260200191505060405180910390f35b610f3760048036036020811015610f0b57600080fd5b81019080803573ffffffffffffffffffffffffffffffffffffffff16906020019092919050505061384d565b6040518082815260200191505060405180910390f35b610f55613899565b6040518082815260200191505060405180910390f35b610fad60048036036020811015610f8157600080fd5b81019080803573ffffffffffffffffffffffffffffffffffffffff16906020019092919050505061389f565b005b610fdb60048036036020811015610fc557600080fd5b8101908080359060200190929190505050613c8b565b6040518082815260200191505060405180910390f35b61101d6004803603602081101561100757600080fd5b8101908080359060200190929190505050613d25565b005b6110e26004803603604081101561103557600080fd5b81019080803590602001909291908035906020019064010000000081111561105c57600080fd5b82018360208201111561106e57600080fd5b8035906020019184600183028401116401000000008311171561109057600080fd5b91908080601f016020809104026020016040519081016040528093929190818152602001838380828437600081840152601f19601f820116905080830192505050505050509192919290505050613ecb565b005b611126600480360360208110156110fa57600080fd5b81019080803573ffffffffffffffffffffffffffffffffffffffff1690602001909291905050506143bf565b005b61116a6004803603602081101561113e57600080fd5b81019080803573ffffffffffffffffffffffffffffffffffffffff1690602001909291905050506145ca565b005b6111ae6004803603602081101561118257600080fd5b81019080803573ffffffffffffffffffffffffffffffffffffffff16906020019092919050505061483b565b60405180888152602001878152602001806020018681526020018581526020018415158152602001838152602001828103825287818151815260200191508051906020019080838360005b838110156112145780820151818401526020810190506111f9565b50505050905090810190601f1680156112415780820380516001836020036101000a031916815260200191505b509850505050505050505060405180910390f35b3373ffffffffffffffffffffffffffffffffffffffff16600260009054906101000a900473ffffffffffffffffffffffffffffffffffffffff1673ffffffffffffffffffffffffffffffffffffffff16146112fb576040517f08c379a00000000000000000000000000000000000000000000000000000000081526004018080602001828103825260678152602001806151ab6067913960800191505060405180910390fd5b61130481613625565b1561135a576040517f08c379a00000000000000000000000000000000000000000000000000000000081526004018080602001828103825260238152602001806154016023913960400191505060405180910390fd5b611365816003614a28565b50565b60006060600660008481526020019081526020016000208054806020026020016040519081016040528092919081815260200182805480156113ff57602002820191906000526020600020905b8160009054906101000a900473ffffffffffffffffffffffffffffffffffffffff1673ffffffffffffffffffffffffffffffffffffffff16815260200190600101908083116113b5575b5050505050905060005b815181101561146f5761142e82828151811061142157fe5b6020026020010151611bc7565b8015611452575061145182828151811061144457fe5b602002602001015161158a565b5b1561146257600192505050611472565b8080600101915050611409565b50505b919050565b60606006600083815260200190815260200160002080548060200260200160405190810160405280929190818152602001828054801561150c57602002820191906000526020600020905b8160009054906101000a900473ffffffffffffffffffffffffffffffffffffffff1673ffffffffffffffffffffffffffffffffffffffff16815260200190600101908083116114c2575b50505050509050919050565b60006001600381111561152757fe5b600560008473ffffffffffffffffffffffffffffffffffffffff1673ffffffffffffffffffffffffffffffffffffffff16815260200190815260200160002060030160009054906101000a900460ff16600381111561158257fe5b149050919050565b600060018081111561159857fe5b600560008473ffffffffffffffffffffffffffffffffffffffff1673ffffffffffffffffffffffffffffffffffffffff16815260200190815260200160002060030160019054906101000a900460ff1660018111156115f357fe5b149050919050565b6005602052806000526040600020600091509050806000015490806001015490806002018054600181600116156101000203166002900480601f0160208091040260200160405190810160405280929190818152602001828054600181600116156101000203166002900480156116b35780601f10611688576101008083540402835291602001916116b3565b820191906000526020600020905b81548152906001019060200180831161169657829003601f168201915b5050505050908060030160009054906101000a900460ff16908060030160019054906101000a900460ff16908060030160029054906101000a900460ff16908060040154905087565b60076020528060005260406000206000915090505481565b60008173ffffffffffffffffffffffffffffffffffffffff166117356135fc565b73ffffffffffffffffffffffffffffffffffffffff16149050919050565b6000600560008373ffffffffffffffffffffffffffffffffffffffff1673ffffffffffffffffffffffffffffffffffffffff168152602001908152602001600020600001549050919050565b60003390506117ad826127a1565b611802576040517f08c379a000000000000000000000000000000000000000000000000000000000815260040180806020018281038252602381526020018061545a6023913960400191505060405180910390fd5b61180b81613700565b15611861576040517f08c379a00000000000000000000000000000000000000000000000000000000081526004018080602001828103825260358152602001806151506035913960400191505060405180910390fd5b61186a81613625565b156118c0576040517f08c379a00000000000000000000000000000000000000000000000000000000081526004018080602001828103825260278152602001806155ce6027913960400191505060405180910390fd5b60006004544201905082600560008473ffffffffffffffffffffffffffffffffffffffff1673ffffffffffffffffffffffffffffffffffffffff168152602001908152602001600020600201908051906020019061191f929190614fde565b506001600560008473ffffffffffffffffffffffffffffffffffffffff1673ffffffffffffffffffffffffffffffffffffffff16815260200190815260200160002060030160006101000a81548160ff0219169083600381111561197f57fe5b021790555080600560008473ffffffffffffffffffffffffffffffffffffffff1673ffffffffffffffffffffffffffffffffffffffff168152602001908152602001600020600401819055506000600560008473ffffffffffffffffffffffffffffffffffffffff1673ffffffffffffffffffffffffffffffffffffffff16815260200190815260200160002060030160026101000a81548160ff0219169083151502179055507ff492947317cd8bacaf07d8d493aa37edfc267531f5c311a42eaf0b68d332f38b828483604051808473ffffffffffffffffffffffffffffffffffffffff16815260200180602001838152602001828103825284818151815260200191508051906020019080838360005b83811015611aac578082015181840152602081019050611a91565b50505050905090810190601f168015611ad95780820380516001836020036101000a031916815260200191505b5094505050505060405180910390a1505050565b3373ffffffffffffffffffffffffffffffffffffffff16600260009054906101000a900473ffffffffffffffffffffffffffffffffffffffff1673ffffffffffffffffffffffffffffffffffffffff1614611b93576040517f08c379a00000000000000000000000000000000000000000000000000000000081526004018080602001828103825260678152602001806151ab6067913960800191505060405180910390fd5b611b9e816002614b9a565b50565b600160009054906101000a900473ffffffffffffffffffffffffffffffffffffffff1681565b6000611bd28261248a565b8015611be45750611be282612431565b155b9050919050565b611bf3614dc0565b73ffffffffffffffffffffffffffffffffffffffff1660008054906101000a900473ffffffffffffffffffffffffffffffffffffffff1673ffffffffffffffffffffffffffffffffffffffff1614611cb3576040517f08c379a00000000000000000000000000000000000000000000000000000000081526004018080602001828103825260208152602001807f4f776e61626c653a2063616c6c6572206973206e6f7420746865206f776e657281525060200191505060405180910390fd5b60006004549050816004819055507f33e73778e90a0a7d35d5d4332f4668b1fcff659529950c30f760a39ba49fafec3382600454604051808473ffffffffffffffffffffffffffffffffffffffff168152602001838152602001828152602001935050505060405180910390a15050565b611d2d33612431565b15611d83576040517f08c379a000000000000000000000000000000000000000000000000000000000815260040180806020018281038252603a815260200180615212603a913960400191505060405180910390fd5b611d8c33614dc8565b611de1576040517f08c379a000000000000000000000000000000000000000000000000000000000815260040180806020018281038252606581526020018061536e6065913960800191505060405180910390fd5b611dea3361248a565b611e3f576040517f08c379a00000000000000000000000000000000000000000000000000000000081526004018080602001828103825260368152602001806154246036913960400191505060405180910390fd5b6000339050611e4d8161158a565b611ea2576040517f08c379a000000000000000000000000000000000000000000000000000000000815260040180806020018281038252603681526020018061569d6036913960400191505060405180910390fd5b60016003811115611eaf57fe5b600560008473ffffffffffffffffffffffffffffffffffffffff1673ffffffffffffffffffffffffffffffffffffffff16815260200190815260200160002060030160009054906101000a900460ff166003811115611f0a57fe5b14611f60576040517f08c379a00000000000000000000000000000000000000000000000000000000081526004018080602001828103825260408152602001806154b16040913960400191505060405180910390fd5b611f6982612431565b15611fbf576040517f08c379a00000000000000000000000000000000000000000000000000000000081526004018080602001828103825260338152602001806152d16033913960400191505060405180910390fd5b611fc882614dc8565b1561201e576040517f08c379a000000000000000000000000000000000000000000000000000000000815260040180806020018281038252603481526020018061547d6034913960400191505060405180910390fd5b6000600181111561202b57fe5b600560008473ffffffffffffffffffffffffffffffffffffffff1673ffffffffffffffffffffffffffffffffffffffff16815260200190815260200160002060030160019054906101000a900460ff16600181111561208657fe5b146120dc576040517f08c379a00000000000000000000000000000000000000000000000000000000081526004018080602001828103825260328152602001806156d36032913960400191505060405180910390fd5b6120e681836137bc565b61213b576040517f08c379a000000000000000000000000000000000000000000000000000000000815260040180806020018281038252604c815260200180615558604c913960600191505060405180910390fd5b6002600560008473ffffffffffffffffffffffffffffffffffffffff1673ffffffffffffffffffffffffffffffffffffffff16815260200190815260200160002060030160006101000a81548160ff0219169083600381111561219a57fe5b02179055507f073fc7b5012ce389e8ee332d8cb39b41a44a08b42ee9260a78dd3a757a66c11182600560008573ffffffffffffffffffffffffffffffffffffffff1673ffffffffffffffffffffffffffffffffffffffff16815260200190815260200160002060000154600560008673ffffffffffffffffffffffffffffffffffffffff1673ffffffffffffffffffffffffffffffffffffffff1681526020019081526020016000206001015484604051808573ffffffffffffffffffffffffffffffffffffffff1681526020018481526020018381526020018273ffffffffffffffffffffffffffffffffffffffff16815260200194505050505060405180910390a15050565b3373ffffffffffffffffffffffffffffffffffffffff16600260009054906101000a900473ffffffffffffffffffffffffffffffffffffffff1673ffffffffffffffffffffffffffffffffffffffff1614612348576040517f08c379a00000000000000000000000000000000000000000000000000000000081526004018080602001828103825260678152602001806151ab6067913960800191505060405180910390fd5b61235181613625565b156123a7576040517f08c379a00000000000000000000000000000000000000000000000000000000081526004018080602001828103825260298152602001806153046029913960400191505060405180910390fd5b6123b081612431565b15612423576040517f08c379a00000000000000000000000000000000000000000000000000000000081526004018080602001828103825260178152602001807f436f6e7461206ac3a120657374c3a1207061757361646100000000000000000081525060200191505060405180910390fd5b61242e816002614e16565b50565b6000600560008373ffffffffffffffffffffffffffffffffffffffff1673ffffffffffffffffffffffffffffffffffffffff16815260200190815260200160002060030160029054906101000a900460ff169050919050565b60006002600381111561249957fe5b600560008473ffffffffffffffffffffffffffffffffffffffff1673ffffffffffffffffffffffffffffffffffffffff16815260200190815260200160002060030160009054906101000a900460ff1660038111156124f457fe5b149050919050565b60008061250883611753565b905061251381611368565b612568576040517f08c379a000000000000000000000000000000000000000000000000000000000815260040180806020018281038252602481526020018061512c6024913960400191505060405180910390fd5b80915050919050565b3373ffffffffffffffffffffffffffffffffffffffff16600160009054906101000a900473ffffffffffffffffffffffffffffffffffffffff1673ffffffffffffffffffffffffffffffffffffffff1614612617576040517f08c379a00000000000000000000000000000000000000000000000000000000081526004018080602001828103825260488152602001806156556048913960600191505060405180910390fd5b6001600381111561262457fe5b600560008373ffffffffffffffffffffffffffffffffffffffff1673ffffffffffffffffffffffffffffffffffffffff16815260200190815260200160002060030160009054906101000a900460ff16600381111561267f57fe5b146126d5576040517f08c379a00000000000000000000000000000000000000000000000000000000081526004018080602001828103825260368152602001806150f66036913960400191505060405180910390fd5b6126de8161158a565b612750576040517f08c379a000000000000000000000000000000000000000000000000000000000815260040180806020018281038252601b8152602001807f496e76616c696461206170656e617320636f6e74612041444d494e000000000081525060200191505060405180910390fd5b61275b816002614a28565b50565b600260009054906101000a900473ffffffffffffffffffffffffffffffffffffffff1681565b600060076000838152602001908152602001600020549050919050565b6000606082905060408151146127bb57600091505061297f565b60005b6040811015612978577f30000000000000000000000000000000000000000000000000000000000000008282815181106127f457fe5b602001015160f81c60f81b7effffffffffffffffffffffffffffffffffffffffffffffffffffffffffffff191610156128325760009250505061297f565b7f390000000000000000000000000000000000000000000000000000000000000082828151811061285f57fe5b602001015160f81c60f81b7effffffffffffffffffffffffffffffffffffffffffffffffffffffffffffff19161180156128f057507f61000000000000000000000000000000000000000000000000000000000000008282815181106128c157fe5b602001015160f81c60f81b7effffffffffffffffffffffffffffffffffffffffffffffffffffffffffffff1916105b156129005760009250505061297f565b7f660000000000000000000000000000000000000000000000000000000000000082828151811061292d57fe5b602001015160f81c60f81b7effffffffffffffffffffffffffffffffffffffffffffffffffffffffffffff1916111561296b5760009250505061297f565b80806001019150506127be565b5060019150505b919050565b61298c614dc0565b73ffffffffffffffffffffffffffffffffffffffff1660008054906101000a900473ffffffffffffffffffffffffffffffffffffffff1673ffffffffffffffffffffffffffffffffffffffff1614612a4c576040517f08c379a00000000000000000000000000000000000000000000000000000000081526004018080602001828103825260208152602001807f4f776e61626c653a2063616c6c6572206973206e6f7420746865206f776e657281525060200191505060405180910390fd5b600073ffffffffffffffffffffffffffffffffffffffff1660008054906101000a900473ffffffffffffffffffffffffffffffffffffffff1673ffffffffffffffffffffffffffffffffffffffff167f8be0079c531659141344cd1fd0a4f28419497f9722a3daafe3b4186f6b6457e060405160405180910390a360008060006101000a81548173ffffffffffffffffffffffffffffffffffffffff021916908373ffffffffffffffffffffffffffffffffffffffff160217905550565b612b1333612431565b15612b69576040517f08c379a000000000000000000000000000000000000000000000000000000000815260040180806020018281038252603a815260200180615212603a913960400191505060405180910390fd5b612b7233614dc8565b612bc7576040517f08c379a000000000000000000000000000000000000000000000000000000000815260040180806020018281038252606581526020018061536e6065913960800191505060405180910390fd5b612bd03361248a565b612c25576040517f08c379a00000000000000000000000000000000000000000000000000000000081526004018080602001828103825260368152602001806154246036913960400191505060405180910390fd5b6000339050612c3382613625565b15612c89576040517f08c379a00000000000000000000000000000000000000000000000000000000081526004018080602001828103825260298152602001806153046029913960400191505060405180910390fd5b612c9282612431565b15612d05576040517f08c379a00000000000000000000000000000000000000000000000000000000081526004018080602001828103825260178152602001807f436f6e7461206ac3a120657374c3a1207061757361646100000000000000000081525060200191505060405180910390fd5b612d0f81836137bc565b612d64576040517f08c379a000000000000000000000000000000000000000000000000000000000815260040180806020018281038252603e81526020018061524c603e913960400191505060405180910390fd5b8073ffffffffffffffffffffffffffffffffffffffff168273ffffffffffffffffffffffffffffffffffffffff161480612da35750612da28161158a565b5b612df8576040517f08c379a00000000000000000000000000000000000000000000000000000000081526004018080602001828103825260258152602001806150d16025913960400191505060405180910390fd5b612e03826001614e16565b5050565b612e0f614dc0565b73ffffffffffffffffffffffffffffffffffffffff1660008054906101000a900473ffffffffffffffffffffffffffffffffffffffff1673ffffffffffffffffffffffffffffffffffffffff1614612ecf576040517f08c379a00000000000000000000000000000000000000000000000000000000081526004018080602001828103825260208152602001807f4f776e61626c653a2063616c6c6572206973206e6f7420746865206f776e657281525060200191505060405180910390fd5b80600260006101000a81548173ffffffffffffffffffffffffffffffffffffffff021916908373ffffffffffffffffffffffffffffffffffffffff1602179055507fe8940ba94a1b862af0a845755bbe38516264b7937dc69ffdb00fa16bb9c2c85f81604051808273ffffffffffffffffffffffffffffffffffffffff16815260200191505060405180910390a150565b612f6933612431565b15612fbf576040517f08c379a000000000000000000000000000000000000000000000000000000000815260040180806020018281038252603a815260200180615212603a913960400191505060405180910390fd5b612fc833614dc8565b61301d576040517f08c379a000000000000000000000000000000000000000000000000000000000815260040180806020018281038252606581526020018061536e6065913960800191505060405180910390fd5b6130263361248a565b61307b576040517f08c379a00000000000000000000000000000000000000000000000000000000081526004018080602001828103825260368152602001806154246036913960400191505060405180910390fd5b60003390506130898161158a565b6130de576040517f08c379a000000000000000000000000000000000000000000000000000000000815260040180806020018281038252602a8152602001806155a4602a913960400191505060405180910390fd5b6130e782613625565b1561313d576040517f08c379a00000000000000000000000000000000000000000000000000000000081526004018080602001828103825260238152602001806154016023913960400191505060405180910390fd5b61314781836137bc565b61319c576040517f08c379a000000000000000000000000000000000000000000000000000000000815260040180806020018281038252603a8152602001806154f1603a913960400191505060405180910390fd5b6131a7826001614a28565b5050565b6000600560008373ffffffffffffffffffffffffffffffffffffffff1673ffffffffffffffffffffffffffffffffffffffff16815260200190815260200160002060030160019054906101000a900460ff16600181111561320857fe5b9050919050565b61321833612431565b1561326e576040517f08c379a000000000000000000000000000000000000000000000000000000000815260040180806020018281038252603a815260200180615212603a913960400191505060405180910390fd5b61327733614dc8565b6132cc576040517f08c379a000000000000000000000000000000000000000000000000000000000815260040180806020018281038252606581526020018061536e6065913960800191505060405180910390fd5b6132d53361248a565b61332a576040517f08c379a00000000000000000000000000000000000000000000000000000000081526004018080602001828103825260368152602001806154246036913960400191505060405180910390fd5b60003390506060600660008481526020019081526020016000208054806020026020016040519081016040528092919081815260200182805480156133c457602002820191906000526020600020905b8160009054906101000a900473ffffffffffffffffffffffffffffffffffffffff1673ffffffffffffffffffffffffffffffffffffffff168152602001906001019080831161337a575b505050505090506133e982826000815181106133dc57fe5b60200260200101516137bc565b61343e576040517f08c379a000000000000000000000000000000000000000000000000000000000815260040180806020018281038252603e81526020018061524c603e913960400191505060405180910390fd5b60005b815181101561349d57600082828151811061345857fe5b6020026020010151905061346b81613625565b15801561347e575061347c81612431565b155b1561348f5761348e816003614e16565b5b508080600101915050613441565b50505050565b6134ab614dc0565b73ffffffffffffffffffffffffffffffffffffffff1660008054906101000a900473ffffffffffffffffffffffffffffffffffffffff1673ffffffffffffffffffffffffffffffffffffffff161461356b576040517f08c379a00000000000000000000000000000000000000000000000000000000081526004018080602001828103825260208152602001807f4f776e61626c653a2063616c6c6572206973206e6f7420746865206f776e657281525060200191505060405180910390fd5b80600160006101000a81548173ffffffffffffffffffffffffffffffffffffffff021916908373ffffffffffffffffffffffffffffffffffffffff1602179055507fab616eba0b7070d2d87e12d5c2d05868da9a14a38db4c54abb148faa879bdf6281604051808273ffffffffffffffffffffffffffffffffffffffff16815260200191505060405180910390a150565b60008060009054906101000a900473ffffffffffffffffffffffffffffffffffffffff16905090565b600060038081111561363357fe5b600560008473ffffffffffffffffffffffffffffffffffffffff1673ffffffffffffffffffffffffffffffffffffffff16815260200190815260200160002060030160009054906101000a900460ff16600381111561368e57fe5b149050919050565b60045481565b6000600560008373ffffffffffffffffffffffffffffffffffffffff1673ffffffffffffffffffffffffffffffffffffffff16815260200190815260200160002060030160009054906101000a900460ff1660038111156136f957fe5b9050919050565b600080600381111561370e57fe5b600560008473ffffffffffffffffffffffffffffffffffffffff1673ffffffffffffffffffffffffffffffffffffffff16815260200190815260200160002060030160009054906101000a900460ff16600381111561376957fe5b149050919050565b6006602052816000526040600020818154811061378a57fe5b906000526020600020016000915091509054906101000a900473ffffffffffffffffffffffffffffffffffffffff1681565b6000600560008373ffffffffffffffffffffffffffffffffffffffff1673ffffffffffffffffffffffffffffffffffffffff16815260200190815260200160002060010154600560008573ffffffffffffffffffffffffffffffffffffffff1673ffffffffffffffffffffffffffffffffffffffff1681526020019081526020016000206001015414905092915050565b6000600560008373ffffffffffffffffffffffffffffffffffffffff1673ffffffffffffffffffffffffffffffffffffffff168152602001908152602001600020600101549050919050565b60035481565b3373ffffffffffffffffffffffffffffffffffffffff16600160009054906101000a900473ffffffffffffffffffffffffffffffffffffffff1673ffffffffffffffffffffffffffffffffffffffff1614613945576040517f08c379a00000000000000000000000000000000000000000000000000000000081526004018080602001828103825260488152602001806156556048913960600191505060405180910390fd5b60003390506001600381111561395757fe5b600560008473ffffffffffffffffffffffffffffffffffffffff1673ffffffffffffffffffffffffffffffffffffffff16815260200190815260200160002060030160009054906101000a900460ff1660038111156139b257fe5b14613a08576040517f08c379a00000000000000000000000000000000000000000000000000000000081526004018080602001828103825260368152602001806150f66036913960400191505060405180910390fd5b613a1182612431565b15613a67576040517f08c379a00000000000000000000000000000000000000000000000000000000081526004018080602001828103825260338152602001806152d16033913960400191505060405180910390fd5b613a7082614dc8565b15613ac6576040517f08c379a000000000000000000000000000000000000000000000000000000000815260040180806020018281038252603481526020018061547d6034913960400191505060405180910390fd5b613acf8261158a565b613b24576040517f08c379a000000000000000000000000000000000000000000000000000000000815260040180806020018281038252602b81526020018061562a602b913960400191505060405180910390fd5b6002600560008473ffffffffffffffffffffffffffffffffffffffff1673ffffffffffffffffffffffffffffffffffffffff16815260200190815260200160002060030160006101000a81548160ff02191690836003811115613b8357fe5b02179055507f073fc7b5012ce389e8ee332d8cb39b41a44a08b42ee9260a78dd3a757a66c11182600560008573ffffffffffffffffffffffffffffffffffffffff1673ffffffffffffffffffffffffffffffffffffffff16815260200190815260200160002060000154600560008673ffffffffffffffffffffffffffffffffffffffff1673ffffffffffffffffffffffffffffffffffffffff1681526020019081526020016000206001015484604051808573ffffffffffffffffffffffffffffffffffffffff1681526020018481526020018381526020018273ffffffffffffffffffffffffffffffffffffffff16815260200194505050505060405180910390a15050565b60008060066000848152602001908152602001600020600081548110613cad57fe5b9060005260206000200160009054906101000a900473ffffffffffffffffffffffffffffffffffffffff169050600560008273ffffffffffffffffffffffffffffffffffffffff1673ffffffffffffffffffffffffffffffffffffffff16815260200190815260200160002060010154915050919050565b3373ffffffffffffffffffffffffffffffffffffffff16600260009054906101000a900473ffffffffffffffffffffffffffffffffffffffff1673ffffffffffffffffffffffffffffffffffffffff1614613dcb576040517f08c379a00000000000000000000000000000000000000000000000000000000081526004018080602001828103825260678152602001806151ab6067913960800191505060405180910390fd5b606060066000838152602001908152602001600020805480602002602001604051908101604052809291908181526020018280548015613e6057602002820191906000526020600020905b8160009054906101000a900473ffffffffffffffffffffffffffffffffffffffff1673ffffffffffffffffffffffffffffffffffffffff1681526020019060010190808311613e16575b5050505050905060005b8151811015613ec6576000828281518110613e8157fe5b60200260200101519050613e9481613625565b158015613ea75750613ea581612431565b155b15613eb857613eb7816004614e16565b5b508080600101915050613e6a565b505050565b6000339050613ed9826127a1565b613f2e576040517f08c379a000000000000000000000000000000000000000000000000000000000815260040180806020018281038252602381526020018061545a6023913960400191505060405180910390fd5b613f3781613700565b613f8c576040517f08c379a00000000000000000000000000000000000000000000000000000000081526004018080602001828103825260358152602001806155f56035913960400191505060405180910390fd5b6000600454420190506000613fa085614f7f565b90506040518060400160405280600181526020017f3000000000000000000000000000000000000000000000000000000000000000815250805190602001208480519060200120141561412f576040518060e001604052808281526020018681526020018581526020016001600381111561401757fe5b81526020016000600181111561402957fe5b815260200160001515815260200183815250600560008573ffffffffffffffffffffffffffffffffffffffff1673ffffffffffffffffffffffffffffffffffffffff168152602001908152602001600020600082015181600001556020820151816001015560408201518160020190805190602001906140aa929190614fde565b5060608201518160030160006101000a81548160ff021916908360038111156140cf57fe5b021790555060808201518160030160016101000a81548160ff021916908360018111156140f857fe5b021790555060a08201518160030160026101000a81548160ff02191690831515021790555060c0820151816004015590505061426c565b6040518060e001604052808281526020018681526020018581526020016001600381111561415957fe5b815260200160018081111561416a57fe5b815260200160001515815260200183815250600560008573ffffffffffffffffffffffffffffffffffffffff1673ffffffffffffffffffffffffffffffffffffffff168152602001908152602001600020600082015181600001556020820151816001015560408201518160020190805190602001906141eb929190614fde565b5060608201518160030160006101000a81548160ff0219169083600381111561421057fe5b021790555060808201518160030160016101000a81548160ff0219169083600181111561423957fe5b021790555060a08201518160030160026101000a81548160ff02191690831515021790555060c082015181600401559050505b60066000828152602001908152602001600020839080600181540180825580915050600190039060005260206000200160009091909190916101000a81548173ffffffffffffffffffffffffffffffffffffffff021916908373ffffffffffffffffffffffffffffffffffffffff16021790555060608490507f3e1598c2de5d15920c01bbf8dbe538db3d434a0c71cd01b63df9aab3eb1873698483888487604051808673ffffffffffffffffffffffffffffffffffffffff16815260200185815260200184815260200180602001838152602001828103825284818151815260200191508051906020019080838360005b8381101561437957808201518184015260208101905061435e565b50505050905090810190601f1680156143a65780820380516001836020036101000a031916815260200191505b50965050505050505060405180910390a1505050505050565b6143c7614dc0565b73ffffffffffffffffffffffffffffffffffffffff1660008054906101000a900473ffffffffffffffffffffffffffffffffffffffff1673ffffffffffffffffffffffffffffffffffffffff1614614487576040517f08c379a00000000000000000000000000000000000000000000000000000000081526004018080602001828103825260208152602001807f4f776e61626c653a2063616c6c6572206973206e6f7420746865206f776e657281525060200191505060405180910390fd5b600073ffffffffffffffffffffffffffffffffffffffff168173ffffffffffffffffffffffffffffffffffffffff16141561450d576040517f08c379a00000000000000000000000000000000000000000000000000000000081526004018080602001828103825260268152602001806151856026913960400191505060405180910390fd5b8073ffffffffffffffffffffffffffffffffffffffff1660008054906101000a900473ffffffffffffffffffffffffffffffffffffffff1673ffffffffffffffffffffffffffffffffffffffff167f8be0079c531659141344cd1fd0a4f28419497f9722a3daafe3b4186f6b6457e060405160405180910390a3806000806101000a81548173ffffffffffffffffffffffffffffffffffffffff021916908373ffffffffffffffffffffffffffffffffffffffff16021790555050565b6145d333612431565b15614629576040517f08c379a000000000000000000000000000000000000000000000000000000000815260040180806020018281038252603a815260200180615212603a913960400191505060405180910390fd5b61463233614dc8565b614687576040517f08c379a000000000000000000000000000000000000000000000000000000000815260040180806020018281038252606581526020018061536e6065913960800191505060405180910390fd5b6146903361248a565b6146e5576040517f08c379a00000000000000000000000000000000000000000000000000000000081526004018080602001828103825260368152602001806154246036913960400191505060405180910390fd5b60003390506146f38261158a565b614748576040517f08c379a00000000000000000000000000000000000000000000000000000000081526004018080602001828103825260318152602001806157056031913960400191505060405180910390fd5b8173ffffffffffffffffffffffffffffffffffffffff168173ffffffffffffffffffffffffffffffffffffffff1614156147cd576040517f08c379a000000000000000000000000000000000000000000000000000000000815260040180806020018281038252604181526020018061532d6041913960600191505060405180910390fd5b6147d781836137bc565b61482c576040517f08c379a000000000000000000000000000000000000000000000000000000000815260040180806020018281038252604781526020018061528a6047913960600191505060405180910390fd5b614837826001614b9a565b5050565b600080606060008060008061484e61505e565b600560008a73ffffffffffffffffffffffffffffffffffffffff1673ffffffffffffffffffffffffffffffffffffffff1681526020019081526020016000206040518060e00160405290816000820154815260200160018201548152602001600282018054600181600116156101000203166002900480601f0160208091040260200160405190810160405280929190818152602001828054600181600116156101000203166002900480156149455780601f1061491a57610100808354040283529160200191614945565b820191906000526020600020905b81548152906001019060200180831161492857829003601f168201915b505050505081526020016003820160009054906101000a900460ff16600381111561496c57fe5b600381111561497757fe5b81526020016003820160019054906101000a900460ff16600181111561499957fe5b60018111156149a457fe5b81526020016003820160029054906101000a900460ff1615151515815260200160048201548152505090506060816040015190508160000151826020015182846060015160038111156149f357fe5b85608001516001811115614a0357fe5b8660a001518760c0015198509850985098509850985098505050919395979092949650565b6003600560008473ffffffffffffffffffffffffffffffffffffffff1673ffffffffffffffffffffffffffffffffffffffff16815260200190815260200160002060030160006101000a81548160ff02191690836003811115614a8757fe5b02179055507f4007ba889075451ca76b440f90a95a4310139c9b0a413978aef4516c9482f6f782600560008573ffffffffffffffffffffffffffffffffffffffff1673ffffffffffffffffffffffffffffffffffffffff16815260200190815260200160002060000154600560008673ffffffffffffffffffffffffffffffffffffffff1673ffffffffffffffffffffffffffffffffffffffff168152602001908152602001600020600101543385604051808673ffffffffffffffffffffffffffffffffffffffff1681526020018581526020018481526020018373ffffffffffffffffffffffffffffffffffffffff1681526020018260ff1681526020019550505050505060405180910390a15050565b614ba382613625565b15614bf9576040517f08c379a000000000000000000000000000000000000000000000000000000000815260040180806020018281038252602e8152602001806153d3602e913960400191505060405180910390fd5b614c0282612431565b614c57576040517f08c379a000000000000000000000000000000000000000000000000000000000815260040180806020018281038252602d81526020018061552b602d913960400191505060405180910390fd5b6000600560008473ffffffffffffffffffffffffffffffffffffffff1673ffffffffffffffffffffffffffffffffffffffff16815260200190815260200160002060030160026101000a81548160ff0219169083151502179055507f21940bbc321a0da6ce5bee4a215372e97d295a51f8d139d14159dc746efcebf382600560008573ffffffffffffffffffffffffffffffffffffffff1673ffffffffffffffffffffffffffffffffffffffff16815260200190815260200160002060000154600560008673ffffffffffffffffffffffffffffffffffffffff1673ffffffffffffffffffffffffffffffffffffffff168152602001908152602001600020600101543385604051808673ffffffffffffffffffffffffffffffffffffffff1681526020018581526020018481526020018373ffffffffffffffffffffffffffffffffffffffff1681526020018260ff1681526020019550505050505060405180910390a15050565b600033905090565b600042600560008473ffffffffffffffffffffffffffffffffffffffff1673ffffffffffffffffffffffffffffffffffffffff16815260200190815260200160002060040154119050919050565b6001600560008473ffffffffffffffffffffffffffffffffffffffff1673ffffffffffffffffffffffffffffffffffffffff16815260200190815260200160002060030160026101000a81548160ff0219169083151502179055507f70380be9ac56d9e7a12f28660990f9400c3701f9a92d67e89d156be4c29a8e9482600560008573ffffffffffffffffffffffffffffffffffffffff1673ffffffffffffffffffffffffffffffffffffffff16815260200190815260200160002060000154600560008673ffffffffffffffffffffffffffffffffffffffff1673ffffffffffffffffffffffffffffffffffffffff168152602001908152602001600020600101543385604051808673ffffffffffffffffffffffffffffffffffffffff1681526020018581526020018481526020018373ffffffffffffffffffffffffffffffffffffffff1681526020018260ff1681526020019550505050505060405180910390a15050565b60008060076000848152602001908152602001600020541415614fc35760036000815460010191905081905560076000848152602001908152602001600020819055505b60076000838152602001908152602001600020549050919050565b828054600181600116156101000203166002900490600052602060002090601f016020900481019282601f1061501f57805160ff191683800117855561504d565b8280016001018555821561504d579182015b8281111561504c578251825591602001919060010190615031565b5b50905061505a91906150b3565b5090565b6040518060e001604052806000815260200160008152602001606081526020016000600381111561508b57fe5b81526020016000600181111561509d57fe5b8152602001600015158152602001600081525090565b5b808211156150cc5760008160009055506001016150b4565b509056fe4ec3a36f20706f64652070617573617220636f6e7461206465206f7574726f2041444d494e4120636f6e74612070726563697361206573746172206e6f2065737461646f20416775617264616e646f2056616c696461c3a7c3a36f41206f7267616e697a6163616f206ec3a36f20657374c3a1206f7065726163696f6e616c456e64657265c3a76f206465766520706f646520746572207369646f206361646173747261646f20616e746572696f726d656e74654f776e61626c653a206e6577206f776e657220697320746865207a65726f2061646472657373412061c3a7c3a36f2073c3b320706f646520736572206578656375746164612070656c6120636f6e746120726573706f6e73c3a176656c2070656c6120746f6d61722061c3a7c3b56573206465636f7272656e746573206465206d6f6e69746f7261c3a7c3a36f4170656e617320636f6e746173206ec3a36f20706175736164617320706f64656d2065786563757461722065737461206f70657261c3a7c3a36f536f6d656e746520636f6e7461206465206d65736d61206f7267616e697a61c3a7c3a36f20706f646520657865637574617220657374612061c3a7c3a36f536f6d656e746520706f6465207265746972617220706175736120646520756d6120636f6e7461207175656d20666f72206461206d65736d61206f7267616e697a61c3a7c3a36f4120636f6e7461206ec3a36f20706f6465207365722076616c696461646120706f7271756520657374c3a12070617573616461436f6e74617320696e76c3a16c69646173206ec3a36f20706f64656d20736572207061757361646173556d6120706573736f61206ec3a36f20c3a920636170617a2064652072657469726172206f20706175736520646520737561207072c3b37072696120636f6e74614170656e617320636f6e74617320636f6d206465636c617261c3a7c3b565732063756a6f7320636572746966696361646f732061696e64612073c3a36f2076c3a16c69646f7320706f64656d2065786563757461722065737461206f70657261c3a7c3a36f436f6e74617320696e76c3a16c69646173206ec3a36f20706f64656d2073657220726574697261722070617573614120636f6e746120666f6920696e76616c6964616461207072657669616d656e74652e4170656e617320636f6e7461732076616c69646164617320706f64656d2065786563757461722065737461206f70657261c3a7c3a36f4f2068617368206461206465636c617261c3a7c3a36f20c3a920696e76c3a16c69646f4120636f6e7461206ec3a36f20706f6465207365722076616c696461646120706f7271756520657374c3a12065787069726164614120636f6e746120612076616c696461722070726563697361206573746172206e6f2065737461646f20416775617264616e646f2056616c696461c3a7c3a36f4170656e617320636f6e746173206461206d65736d61206f7267616e697a6163616f20706f64656d2073657220696e76616c6964616461732e20536f6d656e746520756d6120636f6e7461207061757361646120706f64652073657220646573706175736164614f20726573706f6e73c3a176656c2070656c612076616c696461c3a7c3a36f206465766520736572206461206d65736d61206f7267616e697a61c3a7c3a36f20286d65736d6f20434e504a294170656e617320636f6e74612041444d494e20706f646520696e76616c6964617220636f6e7461732e20456e64657265c3a76f206ec3a36f20706f646520746572207369646f20696e76616c696461646f456e64657265c3a76f206ec3a36f20706f646520746572207369646f206361646173747261646f20616e746572696f726d656e74654120636f6e746120612076616c69646172206465766520746572206f20706170656c2064652041444d494e412061c3a7c3a36f2073c3b320706f646520736572206578656375746164612070656c6120636f6e746120726573706f6e73c3a176656c2070656c612076616c696461c3a7c3a36f4f20726573706f6e73c3a176656c2070656c612076616c696461c3a7c3a36f206465766520746572206f20706170656c2041444d494e4f20757375c3a172696f2061207365722076616c696461646f206465766520746572206f20706170656c20524547554c4152536f6d656e746520756d6120636f6e74612041444d494e20706f646520657865637574617220657374612061c3a7c3a36fa26469706673582212202429d83a9a9d048c4dff3b78897fbe2cfb25700b6346c64dca4aca61f9322e9e64736f6c634300060c0033",
  "immutableReferences": {},
  "source": "pragma solidity ^0.6.0;\n\nimport \"@openzeppelin/contracts/access/Ownable.sol\";\nimport \"./IRBBRegistry.sol\";\n\ncontract RBBRegistry is IRBBRegistry, Ownable() {\n\n    enum BlockchainAccountState {AVAILABLE,WAITING_VALIDATION,VALIDATED,INVALIDATED}\n    BlockchainAccountState blockchainState; /* Variable not used, only defined to create the enum type. */\n      \n    /**\n    REGULAR  - operates \n    ADMIN    - validates the regular.\n     */\n    enum BlockchainAccountRole {REGULAR, ADMIN} \n    BlockchainAccountRole blockchainRole;  /* Variable not used, only defined to create the enum type. */\n\n    //Ativao/inativao de Registries no processo usual (pode ser via um processo automatizado) \n    address public responsibleForRegistryValidation;\n\n    //Inativao e pause/unpause decorrente de eventos no previstos (por exemplo, um comportamento inadequado de um Registry) \n    address public responsibleForActingAfterMonitoring;\n\n    /* This is a helper variable to emulate a sequence and autoincrement Ids*/\n    uint public currentRBBId = 0;\n\n     /**\n        This registry is about a company representative information\n     */    \n    struct Registry {\n        uint RBBId; //uma proxy para o CNPJ\n        uint CNPJ; //Brazilian identification of legal entity\n        string hashProof; //hash of declaration\n        BlockchainAccountState state;\n        BlockchainAccountRole role;\n        bool paused;\n        uint256 dateTimeExpiration; //vai ser outro momento de expirao diferente do ECNPJ\n    }\n\n    uint256 public defaultDeltaDateTimeExpiration = 365 days; \n\n    /**\n        Links Ethereum addresses to Registry\n     */\n    mapping(address => Registry) public legalEntitiesInfo;\n\n    /**\n        Links RBBID to Ethereum addresses.\n     */\n    mapping(uint => address[]) public RBBId_addresses;\n    \n    /**\n     * Links CNPJ to its RBBID\n     */\n    mapping (uint => uint) public CNPJ_RBBId;\n\n    //responsible is the msg.sender\n    event AccountRegistration       (address addr, uint RBBId, uint CNPJ, string hashProof, uint256 dateTimeExpiration);\n    event AccountValidation         (address addr, uint RBBId, uint CNPJ, address responsible);\n    event AccountInvalidation       (address addr, uint RBBId, uint CNPJ, address responsible, uint8 reason);\n    event AccountPaused             (address addr, uint RBBId, uint CNPJ, address responsible, uint8 reason);\n    event AccountUnpaused           (address addr, uint RBBId, uint CNPJ, address responsible, uint8 reason);\n    event AccountRoleChange         (address addr, uint RBBId, uint CNPJ, address responsible, BlockchainAccountRole roleBefore, BlockchainAccountRole roleNew);\n    event AccountReactivation       (address addr, string hashProof, uint256 dateTimeExpiration);\n\n    event RegistryExpirationChange  (address addr, uint256 dateTimeExpirationBefore, uint256 dateTimeExpirationNew);\n\n    event RoleDefinitionRegistryValidation(address rs);\n    event RoleDefinitionActingAfterMonitoring(address rs);\n\n\n    constructor () public {                \n        responsibleForRegistryValidation = msg.sender;\n        responsibleForActingAfterMonitoring = msg.sender;         \n    }\n\n    function setResponsibleForRegistryValidation(address rs) onlyOwner public {\n        responsibleForRegistryValidation = rs;\n        emit RoleDefinitionRegistryValidation(rs);\n    }    \n    function setResponsibleForActingAfterMonitoring(address rs) onlyOwner public {\n        responsibleForActingAfterMonitoring = rs;\n        emit RoleDefinitionActingAfterMonitoring(rs);\n    }  \n\n    modifier onlyByResponsibleForRegistryValidation() { \n        require( responsibleForRegistryValidation==msg.sender , \"A ao s pode ser executada pela conta responsvel pela validao\" );\n        _;\n    }\n\n    modifier onlyByResponsibleForActingAfterMonitoring() { \n        require( responsibleForActingAfterMonitoring==msg.sender , \"A ao s pode ser executada pela conta responsvel pela tomar aes decorrentes de monitorao\" );\n        _;\n    }\n\n    modifier onlyIfSenderIsOk() { \n        require( ! isPaused(msg.sender), \"Apenas contas no pausadas podem executar esta operao\" );\n        require( isExpired(msg.sender), \"Apenas contas com declaraes cujos certificados ainda so vlidos podem executar esta operao\" );\n        require( isValidatedAccount(msg.sender), \"Apenas contas validadas podem executar esta operao\" );\n        _;\n    }\n\n   /**\n    * Self Registering\n    * Link blockchain address with CNPJ\n    * @param CNPJ Brazilian identifier to legal entities\n    * @param proofHash The legal entities have to send BNDES a PDF where it assumes as responsible for an Ethereum account.\n    *                   This PDF is signed with eCNPJ and send to BNDES.\n    */\n    function registryLegalEntity(uint CNPJ, string memory proofHash) public {\n        \n        address addr = msg.sender;\n\n        require (isValidHash(proofHash), \"O hash da declarao  invlido\");\n        require (isAvailableAccount(addr), \"Endereo no pode ter sido cadastrado anteriormente\");\n\n        uint256 dateTimeExpiration = now + defaultDeltaDateTimeExpiration;\n        uint RBBId = calculaProximoRBBID(CNPJ);\n\n\n        if ( keccak256(bytes(proofHash)) == keccak256(bytes(\"0\")) ) { \n            legalEntitiesInfo[addr] = Registry( RBBId,\n                                                CNPJ, \n                                                proofHash, \n                                                BlockchainAccountState.WAITING_VALIDATION, \n                                                BlockchainAccountRole.REGULAR,\n                                                false,\n                                                dateTimeExpiration );\n        } else {\n            legalEntitiesInfo[addr] = Registry( RBBId,\n                                                CNPJ, \n                                                proofHash, \n                                                BlockchainAccountState.WAITING_VALIDATION, \n                                                BlockchainAccountRole.ADMIN,\n                                                false,\n                                                dateTimeExpiration );\n        }\n\n        RBBId_addresses[RBBId].push(addr);\n        string memory proof = proofHash;\n        emit AccountRegistration(addr, RBBId, CNPJ, proof, dateTimeExpiration);\n    }\n\n\n   /**\n    * Validates the initial registry of your own LegalEntity\n    * @param userAddr Ethereum address that needs to be validated\n    */\n    function validateRegistrySameOrg(address userAddr) public onlyIfSenderIsOk {\n\n        address responsible = msg.sender;\n\n        require ( isAdmin(responsible), \"O responsvel pela validao deve ter o papel ADMIN\" );\n\n        require( legalEntitiesInfo[userAddr].state == BlockchainAccountState.WAITING_VALIDATION,\n                   \"A conta a validar precisa estar no estado Aguardando Validao\");\n\n        require (!isPaused(userAddr), \"A conta no pode ser validada porque est pausada\"); \n\n        require (!isExpired(userAddr), \"A conta no pode ser validada porque est expirada\");\n\n        require ( legalEntitiesInfo[userAddr].role == BlockchainAccountRole.REGULAR, \n                   \"O usurio a ser validado deve ter o papel REGULAR\" );\n\n        require ( isTheSameID(responsible, userAddr) , \n                   \"O responsvel pela validao deve ser da mesma organizao (mesmo CNPJ)\" );\n\n\n        legalEntitiesInfo[userAddr].state = BlockchainAccountState.VALIDATED;\n\n        emit AccountValidation( userAddr, \n                                legalEntitiesInfo[userAddr].RBBId, \n                                legalEntitiesInfo[userAddr].CNPJ, \n                                responsible);\n    }\n\n    /**\n    * Validates the initial registry of others LegalEntities\n    * @param userAddr Ethereum address that needs to be validated\n    */\n    function validateRegistry(address userAddr) public onlyByResponsibleForRegistryValidation {\n\n        address responsible = msg.sender;\n\n        require(legalEntitiesInfo[userAddr].state == BlockchainAccountState.WAITING_VALIDATION,\n            \"A conta precisa estar no estado Aguardando Validao\");\n\n        require (!isPaused(userAddr), \"A conta no pode ser validada porque est pausada\"); \n\n        require (!isExpired(userAddr), \"A conta no pode ser validada porque est expirada\");\n\n        require ( isAdmin(userAddr), \"A conta a validar deve ter o papel de ADMIN\" );\n        \n        legalEntitiesInfo[userAddr].state = BlockchainAccountState.VALIDATED;\n\n        emit AccountValidation( userAddr, \n                                legalEntitiesInfo[userAddr].RBBId, \n                                legalEntitiesInfo[userAddr].CNPJ, \n                                responsible);\n    }   \n\n\n     /**\n    * Pause an account     \n    * @param addr Ethereum address that needs to be paused\n    */\n    function pauseAddress(address addr) public onlyIfSenderIsOk {\n\n        address responsible = msg.sender;\n\n        require (!isInvalidated(addr), \"Contas invlidas no podem ser pausadas\");\n        require (!isPaused(addr), \"Conta j est pausada\");\n        require( isTheSameID(responsible, addr), \"Somente conta de mesma organizao pode executar esta ao\" );\n\n        require ((addr==responsible || isAdmin(responsible)), \"No pode pausar conta de outro ADMIN\");\n\n        pauseAddressInternal (addr, 1);\n\n    }\n\n    function pauseAddressAfterMonitoring(address addr) public onlyByResponsibleForActingAfterMonitoring {\n\n        require (!isInvalidated(addr), \"Contas invlidas no podem ser pausadas\");\n        require (!isPaused(addr), \"Conta j est pausada\");\n\n        pauseAddressInternal (addr, 2);\n    }\n\n    function pauseAddressInternal(address addr, uint8 reason) internal {\n\n        legalEntitiesInfo[addr].paused = true;\n        \n        emit AccountPaused( addr, \n                            legalEntitiesInfo[addr].RBBId,\n                            legalEntitiesInfo[addr].CNPJ, \n                            msg.sender,\n                            reason);\n    }\n\n\n    function pauseLegalEntity(uint RBBId) public onlyIfSenderIsOk {\n\n        address responsible = msg.sender;\n        address[] memory addresses  = RBBId_addresses[RBBId];\n\n        require( isTheSameID(responsible, addresses[0]), \n                \"Somente conta de mesma organizao pode executar esta ao\" );\n\n        for (uint i=0; i < addresses.length ; i++) {\n            address candidate = addresses[i];\n            if( !isInvalidated(candidate) &&\n                !isPaused(candidate) ) {\n                pauseAddressInternal (candidate, 3);\n            }\n        }\n    }\n\n\n    function pauseLegalEntityAfterMonitoring(uint RBBId) public onlyByResponsibleForActingAfterMonitoring {\n\n        address[] memory addresses  = RBBId_addresses[RBBId];\n\n        for (uint i=0; i < addresses.length ; i++) {\n            address candidate = addresses[i];\n            if( !isInvalidated(candidate) &&\n                !isPaused(candidate) ) {\n                pauseAddressInternal (candidate, 4);\n            }\n        }   \n    }\n\n\n    /**\n    * Unpause an account     \n    * @param addr Ethereum address that needs to be validated\n    */\n    function unpauseAddress(address addr) public onlyIfSenderIsOk {\n\n        address responsible = msg.sender;\n\n        require( isAdmin(addr) , \"Somente uma conta ADMIN pode executar esta ao\" );\n\n        require ( responsible != addr , \"Uma pessoa no  capaz de retirar o pause de sua prpria conta\");\n        require( isTheSameID(responsible, addr), \n                    \"Somente pode retirar pausa de uma conta quem for da mesma organizao\" );\n        \n        unpauseAddressInternal(addr, 1);        \n        \n    }\n\n    function unpauseAddressAfterMonitoring(address addr) public onlyByResponsibleForActingAfterMonitoring {\n        unpauseAddressInternal(addr,2);        \n    }\n\n    function unpauseAddressInternal(address addr, uint8 reason) internal {\n\n        require (!isInvalidated(addr), \"Contas invlidas no podem ser retirar pausa\");\n        require( isPaused(addr)  , \"Somente uma conta pausada pode ser despausada\" ); \n\n        legalEntitiesInfo[addr].paused = false;\n        \n        emit AccountUnpaused(   addr, \n                                legalEntitiesInfo[addr].RBBId,\n                                legalEntitiesInfo[addr].CNPJ, \n                                msg.sender,\n                                reason);\n    }\n\n\n   /**\n    * Invalidates the initial registry of a legal entity or the change of its registry\n    * The invalidation can be called at any time in the lifecycle of the address (not only when it is WAITING_VALIDATION)\n    * @param addr Ethereum address that needs to be validated\n    */\n    function invalidateRegistrySameOrg(address addr) public onlyIfSenderIsOk {\n\n        address responsible = msg.sender;\n\n        require( isAdmin(responsible), \"Apenas conta ADMIN pode invalidar contas. \");\n\n        require( !isInvalidated(addr), \"A conta foi invalidada previamente.\" );\n\n        require( isTheSameID(responsible, addr) , \"Apenas contas da mesma organizacao podem ser invalidadas. \");\n\n        invalidateRegistryInternal(addr, 1);\n\n    }\n\n    function invalidateRegistry(address addr) public onlyByResponsibleForRegistryValidation {\n\n        require(legalEntitiesInfo[addr].state == BlockchainAccountState.WAITING_VALIDATION,\n            \"A conta precisa estar no estado Aguardando Validao\");\n\n        require( isAdmin(addr), \"Invalida apenas conta ADMIN\");\n\n        invalidateRegistryInternal(addr, 2);\n\n    }\n\n\n    function invalidateRegistryAfterMonitoring(address addr) public onlyByResponsibleForActingAfterMonitoring {\n\n        require( !isInvalidated(addr), \"A conta foi invalidada previamente.\" );\n        \n        invalidateRegistryInternal(addr, 3);\n    }\n\n    function invalidateRegistryInternal(address addr, uint8 reason) internal {\n\n        legalEntitiesInfo[addr].state = BlockchainAccountState.INVALIDATED;\n        \n        emit AccountInvalidation(   addr, \n                                    legalEntitiesInfo[addr].RBBId, \n                                    legalEntitiesInfo[addr].CNPJ, \n                                    msg.sender,\n                                    reason );\n    \n    }\n\n    function reactiveLegalEntity(string memory hashProof) public {\n        \n        address addr = msg.sender;\n\n        require (isValidHash(hashProof), \"O hash da declarao  invlido\");\n        require (!isAvailableAccount(addr), \"Endereo deve pode ter sido cadastrado anteriormente\");\n        require (!isInvalidated(addr), \"Endereo no pode ter sido invalidado\");\n\n        uint256 dateTimeExpiration = now + defaultDeltaDateTimeExpiration;\n\n        legalEntitiesInfo[addr].hashProof = hashProof;\n        legalEntitiesInfo[addr].state = BlockchainAccountState.WAITING_VALIDATION;\n        legalEntitiesInfo[addr].dateTimeExpiration = dateTimeExpiration;\n        legalEntitiesInfo[addr].paused = false;\n\n        emit AccountReactivation(addr, hashProof, dateTimeExpiration);\n    }\n\n    function isExpired (address addr) internal returns (bool) {\n        return (legalEntitiesInfo[addr].dateTimeExpiration > now);\n    }\n\n    function isOwner(address addr) public view returns (bool) {\n        return owner()==addr;\n    }\n\n    function isAvailableAccount(address addr) public view returns (bool) {\n        return legalEntitiesInfo[addr].state == BlockchainAccountState.AVAILABLE;\n    }\n\n    function isWaitingValidationAccount(address addr) public view returns (bool) {\n        return legalEntitiesInfo[addr].state == BlockchainAccountState.WAITING_VALIDATION;\n    }\n\n    function isValidatedAccount(address addr) public view returns (bool) {\n        return legalEntitiesInfo[addr].state == BlockchainAccountState.VALIDATED;\n    }\n\n    function isInvalidated(address addr) public view returns (bool) {\n        return legalEntitiesInfo[addr].state == BlockchainAccountState.INVALIDATED;\n    }\n\n    function isTheSameID(address a, address b) public view returns (bool) {\n        return legalEntitiesInfo[a].CNPJ == legalEntitiesInfo[b].CNPJ ;\n    }\n\n    function isPaused(address addr) public view returns (bool) {\n        return legalEntitiesInfo[addr].paused;\n    }\n\n    function isOperational(address addr) public view returns (bool) {\n        return isValidatedAccount(addr) && !isPaused(addr);\n    }\n\n    function isAdmin(address addr) public view returns (bool) { \n        return legalEntitiesInfo[addr].role == BlockchainAccountRole.ADMIN;\n    }\n\n    function isRegistryOperational(uint RBBId) public view override returns (bool) {\n        address[] memory addresses  = RBBId_addresses[RBBId];\n\n        for (uint i=0; i < addresses.length ; i++) {\n            if ( isOperational( addresses[i] ) && isAdmin(addresses[i]) ) {\n                    return true;\n            }\n        }\n    }\n\n    function getId (address addr) public view override returns (uint) {\n        uint RBBId = getRBBIdRaw(addr);\n        require ( isRegistryOperational( RBBId ) , \"A organizacao no est operacional\" );\n        return RBBId;\n    }\n\n    function getRBBIdRaw (address addr) public view returns (uint) {\n        return legalEntitiesInfo[addr].RBBId;\n    }\n\n    function getCNPJ (address addr) public view returns (uint) {\n        return legalEntitiesInfo[addr].CNPJ;\n    }    \n    \n    function getRegistry (address addr) public view override returns (uint, uint, string memory, uint, uint, bool, uint256) {\n        Registry memory reg = legalEntitiesInfo[addr];\n        string memory proof = reg.hashProof;\n        return (  reg.RBBId,\n                  reg.CNPJ, \n                  proof, \n                  (uint) (reg.state),\n                  (uint) (reg.role),\n                  reg.paused,\n                  reg.dateTimeExpiration\n                );\n    }\n\n    function getBlockchainAccounts(uint RBBId) public view returns (address[] memory) {\n        return RBBId_addresses[RBBId];\n    }\n\n    function getAccountState(address addr) public view returns (int) {\n        return ((int) (legalEntitiesInfo[addr].state));\n    }\n\n    function getAccountRole(address addr) public view returns (int) {\n        return ((int) (legalEntitiesInfo[addr].role));\n    }\n\n    function getIdFromCNPJ(uint cnpj) public view override returns (uint) {\n        return CNPJ_RBBId[cnpj];\n    }\n\n    /**\n    * The Owner can assign new default expiration time for future registries\n    * @param deltaDateTimeExpirationNew the new default expiration time \n    */\n    function setDefaultDeltaDateTimeExpiration(uint256 deltaDateTimeExpirationNew) onlyOwner public {\n\n        uint256 defaultDeltaDateTimeExpirationOld = defaultDeltaDateTimeExpiration;\n        defaultDeltaDateTimeExpiration = deltaDateTimeExpirationNew;\n        \n        emit RegistryExpirationChange(   msg.sender, \n                                         defaultDeltaDateTimeExpirationOld, \n                                         defaultDeltaDateTimeExpiration );        \n    }\n\n    function calculaProximoRBBID(uint CNPJ) private returns (uint) {\n\n        if ( CNPJ_RBBId[CNPJ] == 0 ) //se nao existir rbbid para este CNPJ\n            CNPJ_RBBId[CNPJ] = ++currentRBBId;\n\n        return CNPJ_RBBId[CNPJ];\n    } \n\n    function getCNPJbyID(uint Id) public view override returns (uint ) {\n        address addr =RBBId_addresses[Id][0];    \n        return legalEntitiesInfo[addr].CNPJ;\n    }\n \n   function isValidHash(string memory str) pure public returns (bool)  {\n\n    bytes memory b = bytes(str);\n    if(b.length != 64) return false;\n\n    for (uint i=0; i<64; i++) {\n        if (b[i] < \"0\") return false;\n        if (b[i] > \"9\" && b[i] <\"a\") return false;\n        if (b[i] > \"f\") return false;\n    }\n        \n    return true;\n }\n\n}\n",
  "sourcePath": "/Users/suzana.moreno/workspace/rbb-identificacao/Back-Blockchain/contracts/RBBRegistry.sol",
  "compiler": {
    "name": "solc",
    "version": "0.6.12+commit.27d51765.Emscripten.clang"
  },
  "schemaVersion": "3.2.5",
  "updatedAt": "2021-03-04T14:14:32.743Z",
  "devdoc": {
    "kind": "dev",
    "methods": {
      "invalidateRegistrySameOrg(address)": {
        "params": {
          "addr": "Ethereum address that needs to be validated"
        }
      },
      "owner()": {
        "details": "Returns the address of the current owner."
      },
      "pauseAddress(address)": {
        "params": {
          "addr": "Ethereum address that needs to be paused"
        }
      },
      "registryLegalEntity(uint256,string)": {
        "params": {
          "CNPJ": "Brazilian identifier to legal entities",
          "proofHash": "The legal entities have to send BNDES a PDF where it assumes as responsible for an Ethereum account.                   This PDF is signed with eCNPJ and send to BNDES."
        }
      },
      "renounceOwnership()": {
        "details": "Leaves the contract without owner. It will not be possible to call `onlyOwner` functions anymore. Can only be called by the current owner. NOTE: Renouncing ownership will leave the contract without an owner, thereby removing any functionality that is only available to the owner."
      },
      "setDefaultDeltaDateTimeExpiration(uint256)": {
        "params": {
          "deltaDateTimeExpirationNew": "the new default expiration time "
        }
      },
      "transferOwnership(address)": {
        "details": "Transfers ownership of the contract to a new account (`newOwner`). Can only be called by the current owner."
      },
      "unpauseAddress(address)": {
        "params": {
          "addr": "Ethereum address that needs to be validated"
        }
      },
      "validateRegistry(address)": {
        "params": {
          "userAddr": "Ethereum address that needs to be validated"
        }
      },
      "validateRegistrySameOrg(address)": {
        "params": {
          "userAddr": "Ethereum address that needs to be validated"
        }
      }
    },
    "version": 1
  },
  "userdoc": {
    "kind": "user",
    "methods": {
      "CNPJ_RBBId(uint256)": {
        "notice": "Links CNPJ to its RBBID"
      },
      "RBBId_addresses(uint256,uint256)": {
        "notice": "Links RBBID to Ethereum addresses."
      },
      "invalidateRegistrySameOrg(address)": {
        "notice": "Invalidates the initial registry of a legal entity or the change of its registry The invalidation can be called at any time in the lifecycle of the address (not only when it is WAITING_VALIDATION)"
      },
      "legalEntitiesInfo(address)": {
        "notice": "Links Ethereum addresses to Registry"
      },
      "pauseAddress(address)": {
        "notice": "Pause an account     "
      },
      "registryLegalEntity(uint256,string)": {
        "notice": "Self Registering Link blockchain address with CNPJ"
      },
      "setDefaultDeltaDateTimeExpiration(uint256)": {
        "notice": "The Owner can assign new default expiration time for future registries"
      },
      "unpauseAddress(address)": {
        "notice": "Unpause an account     "
      },
      "validateRegistry(address)": {
        "notice": "Validates the initial registry of others LegalEntities"
      },
      "validateRegistrySameOrg(address)": {
        "notice": "Validates the initial registry of your own LegalEntity"
      }
    },
    "version": 1
  }
}