{
  "contractName": "RBBRegistry",
  "abi": [
    {
      "inputs": [],
      "stateMutability": "nonpayable",
      "type": "constructor"
    },
    {
      "anonymous": false,
      "inputs": [
        {
          "indexed": false,
          "internalType": "address",
          "name": "addr",
          "type": "address"
        },
        {
          "indexed": false,
          "internalType": "uint256",
          "name": "RBBId",
          "type": "uint256"
        },
        {
          "indexed": false,
          "internalType": "uint64",
          "name": "CNPJ",
          "type": "uint64"
        },
        {
          "indexed": false,
          "internalType": "address",
          "name": "responsible",
          "type": "address"
        },
        {
          "indexed": false,
          "internalType": "uint8",
          "name": "reason",
          "type": "uint8"
        }
      ],
      "name": "AccountInvalidation",
      "type": "event"
    },
    {
      "anonymous": false,
      "inputs": [
        {
          "indexed": false,
          "internalType": "address",
          "name": "addr",
          "type": "address"
        },
        {
          "indexed": false,
          "internalType": "uint256",
          "name": "RBBId",
          "type": "uint256"
        },
        {
          "indexed": false,
          "internalType": "uint64",
          "name": "CNPJ",
          "type": "uint64"
        },
        {
          "indexed": false,
          "internalType": "address",
          "name": "responsible",
          "type": "address"
        },
        {
          "indexed": false,
          "internalType": "uint8",
          "name": "reason",
          "type": "uint8"
        }
      ],
      "name": "AccountPaused",
      "type": "event"
    },
    {
      "anonymous": false,
      "inputs": [
        {
          "indexed": false,
          "internalType": "address",
          "name": "addr",
          "type": "address"
        },
        {
          "indexed": false,
          "internalType": "string",
          "name": "hashProof",
          "type": "string"
        },
        {
          "indexed": false,
          "internalType": "uint256",
          "name": "dateTimeExpiration",
          "type": "uint256"
        }
      ],
      "name": "AccountReactivation",
      "type": "event"
    },
    {
      "anonymous": false,
      "inputs": [
        {
          "indexed": false,
          "internalType": "address",
          "name": "addr",
          "type": "address"
        },
        {
          "indexed": false,
          "internalType": "uint256",
          "name": "RBBId",
          "type": "uint256"
        },
        {
          "indexed": false,
          "internalType": "uint64",
          "name": "CNPJ",
          "type": "uint64"
        },
        {
          "indexed": false,
          "internalType": "string",
          "name": "hashProof",
          "type": "string"
        },
        {
          "indexed": false,
          "internalType": "uint256",
          "name": "dateTimeExpiration",
          "type": "uint256"
        }
      ],
      "name": "AccountRegistration",
      "type": "event"
    },
    {
      "anonymous": false,
      "inputs": [
        {
          "indexed": false,
          "internalType": "address",
          "name": "addr",
          "type": "address"
        },
        {
          "indexed": false,
          "internalType": "uint256",
          "name": "RBBId",
          "type": "uint256"
        },
        {
          "indexed": false,
          "internalType": "uint64",
          "name": "CNPJ",
          "type": "uint64"
        },
        {
          "indexed": false,
          "internalType": "address",
          "name": "responsible",
          "type": "address"
        },
        {
          "indexed": false,
          "internalType": "enum RBBRegistry.BlockchainAccountRole",
          "name": "roleBefore",
          "type": "uint8"
        },
        {
          "indexed": false,
          "internalType": "enum RBBRegistry.BlockchainAccountRole",
          "name": "roleNew",
          "type": "uint8"
        }
      ],
      "name": "AccountRoleChange",
      "type": "event"
    },
    {
      "anonymous": false,
      "inputs": [
        {
          "indexed": false,
          "internalType": "address",
          "name": "addr",
          "type": "address"
        },
        {
          "indexed": false,
          "internalType": "uint256",
          "name": "RBBId",
          "type": "uint256"
        },
        {
          "indexed": false,
          "internalType": "uint64",
          "name": "CNPJ",
          "type": "uint64"
        },
        {
          "indexed": false,
          "internalType": "address",
          "name": "responsible",
          "type": "address"
        },
        {
          "indexed": false,
          "internalType": "uint8",
          "name": "reason",
          "type": "uint8"
        }
      ],
      "name": "AccountUnpaused",
      "type": "event"
    },
    {
      "anonymous": false,
      "inputs": [
        {
          "indexed": false,
          "internalType": "address",
          "name": "addr",
          "type": "address"
        },
        {
          "indexed": false,
          "internalType": "uint256",
          "name": "RBBId",
          "type": "uint256"
        },
        {
          "indexed": false,
          "internalType": "uint64",
          "name": "CNPJ",
          "type": "uint64"
        },
        {
          "indexed": false,
          "internalType": "address",
          "name": "responsible",
          "type": "address"
        }
      ],
      "name": "AccountValidation",
      "type": "event"
    },
    {
      "anonymous": false,
      "inputs": [
        {
          "indexed": false,
          "internalType": "address",
          "name": "addr",
          "type": "address"
        },
        {
          "indexed": false,
          "internalType": "uint256",
          "name": "RBBId",
          "type": "uint256"
        },
        {
          "indexed": false,
          "internalType": "uint64",
          "name": "CNPJ",
          "type": "uint64"
        },
        {
          "indexed": false,
          "internalType": "address",
          "name": "responsible",
          "type": "address"
        }
      ],
      "name": "AccountWaitingApproval",
      "type": "event"
    },
    {
      "anonymous": false,
      "inputs": [
        {
          "indexed": false,
          "internalType": "address",
          "name": "addr",
          "type": "address"
        },
        {
          "indexed": false,
          "internalType": "uint256",
          "name": "RBBId",
          "type": "uint256"
        },
        {
          "indexed": false,
          "internalType": "uint64",
          "name": "CNPJ",
          "type": "uint64"
        },
        {
          "indexed": false,
          "internalType": "address",
          "name": "responsible",
          "type": "address"
        }
      ],
      "name": "AccountWaitingRejection",
      "type": "event"
    },
    {
      "anonymous": false,
      "inputs": [
        {
          "indexed": true,
          "internalType": "address",
          "name": "previousOwner",
          "type": "address"
        },
        {
          "indexed": true,
          "internalType": "address",
          "name": "newOwner",
          "type": "address"
        }
      ],
      "name": "OwnershipTransferred",
      "type": "event"
    },
    {
      "anonymous": false,
      "inputs": [
        {
          "indexed": false,
          "internalType": "address",
          "name": "addr",
          "type": "address"
        },
        {
          "indexed": false,
          "internalType": "uint256",
          "name": "dateTimeExpirationBefore",
          "type": "uint256"
        },
        {
          "indexed": false,
          "internalType": "uint256",
          "name": "dateTimeExpirationNew",
          "type": "uint256"
        }
      ],
      "name": "RegistryExpirationChange",
      "type": "event"
    },
    {
      "anonymous": false,
      "inputs": [
        {
          "indexed": false,
          "internalType": "address",
          "name": "rs",
          "type": "address"
        }
      ],
      "name": "RoleDefinitionActingAfterMonitoring",
      "type": "event"
    },
    {
      "anonymous": false,
      "inputs": [
        {
          "indexed": false,
          "internalType": "address",
          "name": "rs",
          "type": "address"
        }
      ],
      "name": "RoleDefinitionRegistryPreValidation",
      "type": "event"
    },
    {
      "anonymous": false,
      "inputs": [
        {
          "indexed": false,
          "internalType": "address",
          "name": "rs",
          "type": "address"
        }
      ],
      "name": "RoleDefinitionRegistryValidation",
      "type": "event"
    },
    {
      "inputs": [
        {
          "internalType": "uint64",
          "name": "",
          "type": "uint64"
        }
      ],
      "name": "CNPJ_RBBId",
      "outputs": [
        {
          "internalType": "uint256",
          "name": "",
          "type": "uint256"
        }
      ],
      "stateMutability": "view",
      "type": "function"
    },
    {
      "inputs": [
        {
          "internalType": "uint256",
          "name": "",
          "type": "uint256"
        },
        {
          "internalType": "uint256",
          "name": "",
          "type": "uint256"
        }
      ],
      "name": "RBBId_addresses",
      "outputs": [
        {
          "internalType": "address",
          "name": "",
          "type": "address"
        }
      ],
      "stateMutability": "view",
      "type": "function"
    },
    {
      "inputs": [],
      "name": "currentRBBId",
      "outputs": [
        {
          "internalType": "uint256",
          "name": "",
          "type": "uint256"
        }
      ],
      "stateMutability": "view",
      "type": "function"
    },
    {
      "inputs": [],
      "name": "defaultDeltaDateTimeExpiration",
      "outputs": [
        {
          "internalType": "uint256",
          "name": "",
          "type": "uint256"
        }
      ],
      "stateMutability": "view",
      "type": "function"
    },
    {
      "inputs": [
        {
          "internalType": "address",
          "name": "",
          "type": "address"
        }
      ],
      "name": "legalEntitiesInfo",
      "outputs": [
        {
          "internalType": "uint256",
          "name": "RBBId",
          "type": "uint256"
        },
        {
          "internalType": "uint64",
          "name": "CNPJ",
          "type": "uint64"
        },
        {
          "internalType": "string",
          "name": "hashProof",
          "type": "string"
        },
        {
          "internalType": "enum RBBRegistry.BlockchainAccountState",
          "name": "state",
          "type": "uint8"
        },
        {
          "internalType": "enum RBBRegistry.BlockchainAccountRole",
          "name": "role",
          "type": "uint8"
        },
        {
          "internalType": "bool",
          "name": "paused",
          "type": "bool"
        },
        {
          "internalType": "uint256",
          "name": "dateTimeExpiration",
          "type": "uint256"
        }
      ],
      "stateMutability": "view",
      "type": "function"
    },
    {
      "inputs": [],
      "name": "owner",
      "outputs": [
        {
          "internalType": "address",
          "name": "",
          "type": "address"
        }
      ],
      "stateMutability": "view",
      "type": "function"
    },
    {
      "inputs": [],
      "name": "renounceOwnership",
      "outputs": [],
      "stateMutability": "nonpayable",
      "type": "function"
    },
    {
      "inputs": [],
      "name": "responsibleForActingAfterMonitoring",
      "outputs": [
        {
          "internalType": "address",
          "name": "",
          "type": "address"
        }
      ],
      "stateMutability": "view",
      "type": "function"
    },
    {
      "inputs": [],
      "name": "responsibleForRegistryPreValidation",
      "outputs": [
        {
          "internalType": "address",
          "name": "",
          "type": "address"
        }
      ],
      "stateMutability": "view",
      "type": "function"
    },
    {
      "inputs": [],
      "name": "responsibleForRegistryValidation",
      "outputs": [
        {
          "internalType": "address",
          "name": "",
          "type": "address"
        }
      ],
      "stateMutability": "view",
      "type": "function"
    },
    {
      "inputs": [
        {
          "internalType": "address",
          "name": "newOwner",
          "type": "address"
        }
      ],
      "name": "transferOwnership",
      "outputs": [],
      "stateMutability": "nonpayable",
      "type": "function"
    },
    {
      "inputs": [
        {
          "internalType": "address",
          "name": "rs",
          "type": "address"
        }
      ],
      "name": "setResponsibleForRegistryPreValidation",
      "outputs": [],
      "stateMutability": "nonpayable",
      "type": "function"
    },
    {
      "inputs": [
        {
          "internalType": "address",
          "name": "rs",
          "type": "address"
        }
      ],
      "name": "setResponsibleForRegistryValidation",
      "outputs": [],
      "stateMutability": "nonpayable",
      "type": "function"
    },
    {
      "inputs": [
        {
          "internalType": "address",
          "name": "rs",
          "type": "address"
        }
      ],
      "name": "setResponsibleForActingAfterMonitoring",
      "outputs": [],
      "stateMutability": "nonpayable",
      "type": "function"
    },
    {
      "inputs": [
        {
          "internalType": "uint64",
          "name": "CNPJ",
          "type": "uint64"
        },
        {
          "internalType": "string",
          "name": "proofHash",
          "type": "string"
        }
      ],
      "name": "registryLegalEntity",
      "outputs": [],
      "stateMutability": "nonpayable",
      "type": "function"
    },
    {
      "inputs": [
        {
          "internalType": "address",
          "name": "userAddr",
          "type": "address"
        },
        {
          "internalType": "bool",
          "name": "approval",
          "type": "bool"
        }
      ],
      "name": "preValidateRegistry",
      "outputs": [],
      "stateMutability": "nonpayable",
      "type": "function"
    },
    {
      "inputs": [
        {
          "internalType": "address",
          "name": "userAddr",
          "type": "address"
        }
      ],
      "name": "validateRegistrySameOrg",
      "outputs": [],
      "stateMutability": "nonpayable",
      "type": "function"
    },
    {
      "inputs": [
        {
          "internalType": "address",
          "name": "userAddr",
          "type": "address"
        }
      ],
      "name": "validateRegistry",
      "outputs": [],
      "stateMutability": "nonpayable",
      "type": "function"
    },
    {
      "inputs": [
        {
          "internalType": "address",
          "name": "addr",
          "type": "address"
        }
      ],
      "name": "pauseAddressSameOrg",
      "outputs": [],
      "stateMutability": "nonpayable",
      "type": "function"
    },
    {
      "inputs": [
        {
          "internalType": "address",
          "name": "addr",
          "type": "address"
        }
      ],
      "name": "pauseAddressAfterMonitoring",
      "outputs": [],
      "stateMutability": "nonpayable",
      "type": "function"
    },
    {
      "inputs": [
        {
          "internalType": "uint256",
          "name": "RBBId",
          "type": "uint256"
        }
      ],
      "name": "pauseLegalEntitySameOrg",
      "outputs": [],
      "stateMutability": "nonpayable",
      "type": "function"
    },
    {
      "inputs": [
        {
          "internalType": "uint256",
          "name": "RBBId",
          "type": "uint256"
        }
      ],
      "name": "pauseLegalEntityAfterMonitoring",
      "outputs": [],
      "stateMutability": "nonpayable",
      "type": "function"
    },
    {
      "inputs": [
        {
          "internalType": "address",
          "name": "addr",
          "type": "address"
        }
      ],
      "name": "unpauseAddressSameOrg",
      "outputs": [],
      "stateMutability": "nonpayable",
      "type": "function"
    },
    {
      "inputs": [
        {
          "internalType": "address",
          "name": "addr",
          "type": "address"
        }
      ],
      "name": "unpauseAddressAfterMonitoring",
      "outputs": [],
      "stateMutability": "nonpayable",
      "type": "function"
    },
    {
      "inputs": [
        {
          "internalType": "address",
          "name": "addr",
          "type": "address"
        }
      ],
      "name": "invalidateRegistrySameOrg",
      "outputs": [],
      "stateMutability": "nonpayable",
      "type": "function"
    },
    {
      "inputs": [
        {
          "internalType": "address",
          "name": "addr",
          "type": "address"
        }
      ],
      "name": "invalidateRegistry",
      "outputs": [],
      "stateMutability": "nonpayable",
      "type": "function"
    },
    {
      "inputs": [
        {
          "internalType": "address",
          "name": "addr",
          "type": "address"
        }
      ],
      "name": "invalidateRegistryAfterMonitoring",
      "outputs": [],
      "stateMutability": "nonpayable",
      "type": "function"
    },
    {
      "inputs": [
        {
          "internalType": "string",
          "name": "hashProof",
          "type": "string"
        }
      ],
      "name": "reactiveLegalEntity",
      "outputs": [],
      "stateMutability": "nonpayable",
      "type": "function"
    },
    {
      "inputs": [
        {
          "internalType": "uint256",
          "name": "deltaDateTimeExpirationNew",
          "type": "uint256"
        }
      ],
      "name": "setDefaultDeltaDateTimeExpiration",
      "outputs": [],
      "stateMutability": "nonpayable",
      "type": "function"
    },
    {
      "inputs": [
        {
          "internalType": "string",
          "name": "str",
          "type": "string"
        }
      ],
      "name": "isValidHash",
      "outputs": [
        {
          "internalType": "bool",
          "name": "",
          "type": "bool"
        }
      ],
      "stateMutability": "pure",
      "type": "function"
    },
    {
      "inputs": [
        {
          "internalType": "address",
          "name": "addr",
          "type": "address"
        }
      ],
      "name": "isOperational",
      "outputs": [
        {
          "internalType": "bool",
          "name": "",
          "type": "bool"
        }
      ],
      "stateMutability": "view",
      "type": "function"
    },
    {
      "inputs": [
        {
          "internalType": "uint256",
          "name": "RBBId",
          "type": "uint256"
        }
      ],
      "name": "isRegistryOperational",
      "outputs": [
        {
          "internalType": "bool",
          "name": "",
          "type": "bool"
        }
      ],
      "stateMutability": "view",
      "type": "function"
    },
    {
      "inputs": [
        {
          "internalType": "address",
          "name": "addr",
          "type": "address"
        }
      ],
      "name": "getId",
      "outputs": [
        {
          "internalType": "uint256",
          "name": "",
          "type": "uint256"
        }
      ],
      "stateMutability": "view",
      "type": "function"
    },
    {
      "inputs": [
        {
          "internalType": "address",
          "name": "addr",
          "type": "address"
        }
      ],
      "name": "isOwner",
      "outputs": [
        {
          "internalType": "bool",
          "name": "",
          "type": "bool"
        }
      ],
      "stateMutability": "view",
      "type": "function"
    },
    {
      "inputs": [
        {
          "internalType": "address",
          "name": "addr",
          "type": "address"
        }
      ],
      "name": "isAvailableAccount",
      "outputs": [
        {
          "internalType": "bool",
          "name": "",
          "type": "bool"
        }
      ],
      "stateMutability": "view",
      "type": "function"
    },
    {
      "inputs": [
        {
          "internalType": "address",
          "name": "addr",
          "type": "address"
        }
      ],
      "name": "isWaitingAccount",
      "outputs": [
        {
          "internalType": "bool",
          "name": "",
          "type": "bool"
        }
      ],
      "stateMutability": "view",
      "type": "function"
    },
    {
      "inputs": [
        {
          "internalType": "address",
          "name": "addr",
          "type": "address"
        }
      ],
      "name": "isValidatedAccount",
      "outputs": [
        {
          "internalType": "bool",
          "name": "",
          "type": "bool"
        }
      ],
      "stateMutability": "view",
      "type": "function"
    },
    {
      "inputs": [
        {
          "internalType": "address",
          "name": "addr",
          "type": "address"
        }
      ],
      "name": "isInvalidated",
      "outputs": [
        {
          "internalType": "bool",
          "name": "",
          "type": "bool"
        }
      ],
      "stateMutability": "view",
      "type": "function"
    },
    {
      "inputs": [
        {
          "internalType": "address",
          "name": "a",
          "type": "address"
        },
        {
          "internalType": "address",
          "name": "b",
          "type": "address"
        }
      ],
      "name": "isTheSameID",
      "outputs": [
        {
          "internalType": "bool",
          "name": "",
          "type": "bool"
        }
      ],
      "stateMutability": "view",
      "type": "function"
    },
    {
      "inputs": [
        {
          "internalType": "address",
          "name": "addr",
          "type": "address"
        }
      ],
      "name": "isPaused",
      "outputs": [
        {
          "internalType": "bool",
          "name": "",
          "type": "bool"
        }
      ],
      "stateMutability": "view",
      "type": "function"
    },
    {
      "inputs": [
        {
          "internalType": "address",
          "name": "addr",
          "type": "address"
        }
      ],
      "name": "isAdmin",
      "outputs": [
        {
          "internalType": "bool",
          "name": "",
          "type": "bool"
        }
      ],
      "stateMutability": "view",
      "type": "function"
    },
    {
      "inputs": [
        {
          "internalType": "address",
          "name": "addr",
          "type": "address"
        }
      ],
      "name": "getRBBIdRaw",
      "outputs": [
        {
          "internalType": "uint256",
          "name": "",
          "type": "uint256"
        }
      ],
      "stateMutability": "view",
      "type": "function"
    },
    {
      "inputs": [
        {
          "internalType": "address",
          "name": "addr",
          "type": "address"
        }
      ],
      "name": "getCNPJ",
      "outputs": [
        {
          "internalType": "uint64",
          "name": "",
          "type": "uint64"
        }
      ],
      "stateMutability": "view",
      "type": "function"
    },
    {
      "inputs": [
        {
          "internalType": "address",
          "name": "addr",
          "type": "address"
        }
      ],
      "name": "getRegistry",
      "outputs": [
        {
          "internalType": "uint256",
          "name": "",
          "type": "uint256"
        },
        {
          "internalType": "uint64",
          "name": "",
          "type": "uint64"
        },
        {
          "internalType": "string",
          "name": "",
          "type": "string"
        },
        {
          "internalType": "uint256",
          "name": "",
          "type": "uint256"
        },
        {
          "internalType": "uint256",
          "name": "",
          "type": "uint256"
        },
        {
          "internalType": "bool",
          "name": "",
          "type": "bool"
        },
        {
          "internalType": "uint256",
          "name": "",
          "type": "uint256"
        }
      ],
      "stateMutability": "view",
      "type": "function"
    },
    {
      "inputs": [
        {
          "internalType": "uint256",
          "name": "RBBId",
          "type": "uint256"
        }
      ],
      "name": "getBlockchainAccounts",
      "outputs": [
        {
          "internalType": "address[]",
          "name": "",
          "type": "address[]"
        }
      ],
      "stateMutability": "view",
      "type": "function"
    },
    {
      "inputs": [
        {
          "internalType": "address",
          "name": "addr",
          "type": "address"
        }
      ],
      "name": "getAccountState",
      "outputs": [
        {
          "internalType": "int256",
          "name": "",
          "type": "int256"
        }
      ],
      "stateMutability": "view",
      "type": "function"
    },
    {
      "inputs": [
        {
          "internalType": "address",
          "name": "addr",
          "type": "address"
        }
      ],
      "name": "getAccountRole",
      "outputs": [
        {
          "internalType": "int256",
          "name": "",
          "type": "int256"
        }
      ],
      "stateMutability": "view",
      "type": "function"
    },
    {
      "inputs": [
        {
          "internalType": "uint64",
          "name": "cnpj",
          "type": "uint64"
        }
      ],
      "name": "getIdFromCNPJ",
      "outputs": [
        {
          "internalType": "uint256",
          "name": "",
          "type": "uint256"
        }
      ],
      "stateMutability": "view",
      "type": "function"
    },
    {
      "inputs": [
        {
          "internalType": "uint256",
          "name": "Id",
          "type": "uint256"
        }
      ],
      "name": "getCNPJbyID",
      "outputs": [
        {
          "internalType": "uint64",
          "name": "",
          "type": "uint64"
        }
      ],
      "stateMutability": "view",
      "type": "function"
    }
  ],
  "bytecode": "0x608060405260006004556301e133806005553480156200001e57600080fd5b506000620000316200015760201b60201c565b9050806000806101000a81548173ffffffffffffffffffffffffffffffffffffffff021916908373ffffffffffffffffffffffffffffffffffffffff1602179055508073ffffffffffffffffffffffffffffffffffffffff16600073ffffffffffffffffffffffffffffffffffffffff167f8be0079c531659141344cd1fd0a4f28419497f9722a3daafe3b4186f6b6457e060405160405180910390a35033600260006101000a81548173ffffffffffffffffffffffffffffffffffffffff021916908373ffffffffffffffffffffffffffffffffffffffff16021790555033600360006101000a81548173ffffffffffffffffffffffffffffffffffffffff021916908373ffffffffffffffffffffffffffffffffffffffff1602179055506200015f565b600033905090565b61628e806200016f6000396000f3fe608060405234801561001057600080fd5b50600436106102bb5760003560e01c80637abbb59611610182578063a3d88453116100e9578063c616f4c0116100a2578063d20866571161007c578063d2086657146111e3578063ee1244e31461122f578063f2fde38b1461125d578063f971d77c146112a1576102bb565b8063c616f4c01461113d578063c84802b91461115b578063caa7922c1461119f576102bb565b8063a3d8845314610f33578063a996368714610f8d578063b6fc41fa14610fd1578063b7b9daae14611033578063bb39308614611061578063be49b78d146110db576102bb565b80638e97637e1161013b5780638e97637e14610d9f578063903ecc1914610df95780639c9d24b614610e175780639ee2735b14610e5b578063a1c0101f14610eb3578063a2a25e7814610eff576102bb565b80637abbb59614610b785780637bf0bca614610bbc57806381d66b2314610c005780638684b5ab14610c585780638cbd258f14610d275780638da5cb5b14610d6b576102bb565b8063466723e41161022657806365f68c89116101df57806365f68c891461098157806367b03549146109d95780636c5eadae14610a1d5780636edcb12f14610a51578063715018a614610b2257806376222aa714610b2c576102bb565b8063466723e4146107bd5780634dd2d3fb146108175780634f16ce0c146108455780634f72e059146108895780635b14f183146108cd5780636426a11614610927576102bb565b80632f54bf6e116102785780632f54bf6e1461057e57806331cc10ce146105d85780633632091b1461063057806342b0ae50146106eb578063456ca9611461072f578063457385f214610763576102bb565b806307888b08146102c0578063087d4427146103045780630bf20e011461034857806324d7806c146103cb57806326ff47941461042557806328f5ae231461052e575b600080fd5b610302600480360360208110156102d657600080fd5b81019080803573ffffffffffffffffffffffffffffffffffffffff169060200190929190505050611394565b005b6103306004803603602081101561031a57600080fd5b81019080803590602001909291905050506114a7565b60405180821515815260200191505060405180910390f35b6103746004803603602081101561035e57600080fd5b81019080803590602001909291905050506115b6565b6040518080602001828103825283818151815260200191508051906020019060200280838360005b838110156103b757808201518184015260208101905061039c565b505050509050019250505060405180910390f35b61040d600480360360208110156103e157600080fd5b81019080803573ffffffffffffffffffffffffffffffffffffffff169060200190929190505050611657565b60405180821515815260200191505060405180910390f35b6104676004803603602081101561043b57600080fd5b81019080803573ffffffffffffffffffffffffffffffffffffffff1690602001909291905050506116c8565b604051808881526020018767ffffffffffffffff1681526020018060200186600581111561049157fe5b81526020018560018111156104a257fe5b81526020018415158152602001838152602001828103825287818151815260200191508051906020019080838360005b838110156104ed5780820151818401526020810190506104d2565b50505050905090810190601f16801561051a5780820380516001836020036101000a031916815260200191505b509850505050505050505060405180910390f35b61057c6004803603604081101561054457600080fd5b81019080803573ffffffffffffffffffffffffffffffffffffffff1690602001909291908035151590602001909291905050506117dd565b005b6105c06004803603602081101561059457600080fd5b81019080803573ffffffffffffffffffffffffffffffffffffffff169060200190929190505050611d75565b60405180821515815260200191505060405180910390f35b61061a600480360360208110156105ee57600080fd5b81019080803573ffffffffffffffffffffffffffffffffffffffff169060200190929190505050611db4565b6040518082815260200191505060405180910390f35b6106e96004803603602081101561064657600080fd5b810190808035906020019064010000000081111561066357600080fd5b82018360208201111561067557600080fd5b8035906020019184600183028401116401000000008311171561069757600080fd5b91908080601f016020809104026020016040519081016040528093929190818152602001838380828437600081840152601f19601f820116905080830192505050505050509192919290505050611e00565b005b61072d6004803603602081101561070157600080fd5b81019080803573ffffffffffffffffffffffffffffffffffffffff16906020019092919050505061214e565b005b610737612202565b604051808273ffffffffffffffffffffffffffffffffffffffff16815260200191505060405180910390f35b6107a56004803603602081101561077957600080fd5b81019080803573ffffffffffffffffffffffffffffffffffffffff169060200190929190505050612228565b60405180821515815260200191505060405180910390f35b6107ff600480360360208110156107d357600080fd5b81019080803573ffffffffffffffffffffffffffffffffffffffff16906020019092919050505061225e565b60405180821515815260200191505060405180910390f35b6108436004803603602081101561082d57600080fd5b81019080803590602001909291905050506123b0565b005b6108876004803603602081101561085b57600080fd5b81019080803573ffffffffffffffffffffffffffffffffffffffff1690602001909291905050506124e9565b005b6108cb6004803603602081101561089f57600080fd5b81019080803573ffffffffffffffffffffffffffffffffffffffff169060200190929190505050612a85565b005b61090f600480360360208110156108e357600080fd5b81019080803573ffffffffffffffffffffffffffffffffffffffff169060200190929190505050612c14565b60405180821515815260200191505060405180910390f35b6109696004803603602081101561093d57600080fd5b81019080803573ffffffffffffffffffffffffffffffffffffffff169060200190929190505050612c6d565b60405180821515815260200191505060405180910390f35b6109c36004803603602081101561099757600080fd5b81019080803573ffffffffffffffffffffffffffffffffffffffff169060200190929190505050612cdf565b6040518082815260200191505060405180910390f35b610a1b600480360360208110156109ef57600080fd5b81019080803573ffffffffffffffffffffffffffffffffffffffff169060200190929190505050612d54565b005b610a25612ee1565b604051808273ffffffffffffffffffffffffffffffffffffffff16815260200191505060405180910390f35b610b0a60048036036020811015610a6757600080fd5b8101908080359060200190640100000000811115610a8457600080fd5b820183602082011115610a9657600080fd5b80359060200191846001830284011164010000000083111715610ab857600080fd5b91908080601f016020809104026020016040519081016040528093929190818152602001838380828437600081840152601f19601f820116905080830192505050505050509192919290505050612f07565b60405180821515815260200191505060405180910390f35b610b2a6130ea565b005b610b6260048036036020811015610b4257600080fd5b81019080803567ffffffffffffffff169060200190929190505050613270565b6040518082815260200191505060405180910390f35b610bba60048036036020811015610b8e57600080fd5b81019080803573ffffffffffffffffffffffffffffffffffffffff169060200190929190505050613288565b005b610bfe60048036036020811015610bd257600080fd5b81019080803573ffffffffffffffffffffffffffffffffffffffff1690602001909291905050506133e1565b005b610c4260048036036020811015610c1657600080fd5b81019080803573ffffffffffffffffffffffffffffffffffffffff169060200190929190505050613662565b6040518082815260200191505060405180910390f35b610d2560048036036040811015610c6e57600080fd5b81019080803567ffffffffffffffff16906020019092919080359060200190640100000000811115610c9f57600080fd5b820183602082011115610cb157600080fd5b80359060200191846001830284011164010000000083111715610cd357600080fd5b91908080601f016020809104026020016040519081016040528093929190818152602001838380828437600081840152601f19601f8201169050808301925050505050505091929192905050506136c6565b005b610d6960048036036020811015610d3d57600080fd5b81019080803573ffffffffffffffffffffffffffffffffffffffff169060200190929190505050613c22565b005b610d73613d7b565b604051808273ffffffffffffffffffffffffffffffffffffffff16815260200191505060405180910390f35b610de160048036036020811015610db557600080fd5b81019080803573ffffffffffffffffffffffffffffffffffffffff169060200190929190505050613da4565b60405180821515815260200191505060405180910390f35b610e01613e15565b6040518082815260200191505060405180910390f35b610e5960048036036020811015610e2d57600080fd5b81019080803573ffffffffffffffffffffffffffffffffffffffff169060200190929190505050613e1b565b005b610e9d60048036036020811015610e7157600080fd5b81019080803573ffffffffffffffffffffffffffffffffffffffff16906020019092919050505061408c565b6040518082815260200191505060405180910390f35b610ee960048036036020811015610ec957600080fd5b81019080803567ffffffffffffffff1690602001909291905050506140f0565b6040518082815260200191505060405180910390f35b610f07614121565b604051808273ffffffffffffffffffffffffffffffffffffffff16815260200191505060405180910390f35b610f7560048036036020811015610f4957600080fd5b81019080803573ffffffffffffffffffffffffffffffffffffffff169060200190929190505050614147565b60405180821515815260200191505060405180910390f35b610fcf60048036036020811015610fa357600080fd5b81019080803573ffffffffffffffffffffffffffffffffffffffff1690602001909291905050506141b8565b005b61100760048036036040811015610fe757600080fd5b810190808035906020019092919080359060200190929190505050614311565b604051808273ffffffffffffffffffffffffffffffffffffffff16815260200191505060405180910390f35b61105f6004803603602081101561104957600080fd5b810190808035906020019092919050505061435c565b005b6110c36004803603604081101561107757600080fd5b81019080803573ffffffffffffffffffffffffffffffffffffffff169060200190929190803573ffffffffffffffffffffffffffffffffffffffff1690602001909291905050506145f0565b60405180821515815260200191505060405180910390f35b61111d600480360360208110156110f157600080fd5b81019080803573ffffffffffffffffffffffffffffffffffffffff1690602001909291905050506146bd565b604051808267ffffffffffffffff16815260200191505060405180910390f35b61114561471d565b6040518082815260200191505060405180910390f35b61119d6004803603602081101561117157600080fd5b81019080803573ffffffffffffffffffffffffffffffffffffffff169060200190929190505050614723565b005b6111e1600480360360208110156111b557600080fd5b81019080803573ffffffffffffffffffffffffffffffffffffffff169060200190929190505050614a20565b005b61120f600480360360208110156111f957600080fd5b8101908080359060200190929190505050614dca565b604051808267ffffffffffffffff16815260200191505060405180910390f35b61125b6004803603602081101561124557600080fd5b8101908080359060200190929190505050614e78565b005b61129f6004803603602081101561127357600080fd5b81019080803573ffffffffffffffffffffffffffffffffffffffff16906020019092919050505061501e565b005b6112e3600480360360208110156112b757600080fd5b81019080803573ffffffffffffffffffffffffffffffffffffffff169060200190929190505050615229565b604051808881526020018767ffffffffffffffff168152602001806020018681526020018581526020018415158152602001838152602001828103825287818151815260200191508051906020019080838360005b83811015611353578082015181840152602081019050611338565b50505050905090810190601f1680156113805780820380516001836020036101000a031916815260200191505b509850505050505050505060405180910390f35b3373ffffffffffffffffffffffffffffffffffffffff16600360009054906101000a900473ffffffffffffffffffffffffffffffffffffffff1673ffffffffffffffffffffffffffffffffffffffff161461143a576040517f08c379a0000000000000000000000000000000000000000000000000000000008152600401808060200182810382526067815260200180615c3d6067913960800191505060405180910390fd5b61144381613da4565b15611499576040517f08c379a0000000000000000000000000000000000000000000000000000000008152600401808060200182810382526023815260200180615ebb6023913960400191505060405180910390fd5b6114a481600361543e565b50565b600060606007600084815260200190815260200160002080548060200260200160405190810160405280929190818152602001828054801561153e57602002820191906000526020600020905b8160009054906101000a900473ffffffffffffffffffffffffffffffffffffffff1673ffffffffffffffffffffffffffffffffffffffff16815260200190600101908083116114f4575b5050505050905060005b81518110156115ae5761156d82828151811061156057fe5b6020026020010151612228565b8015611591575061159082828151811061158357fe5b6020026020010151611657565b5b156115a1576001925050506115b1565b8080600101915050611548565b50505b919050565b60606007600083815260200190815260200160002080548060200260200160405190810160405280929190818152602001828054801561164b57602002820191906000526020600020905b8160009054906101000a900473ffffffffffffffffffffffffffffffffffffffff1673ffffffffffffffffffffffffffffffffffffffff1681526020019060010190808311611601575b50505050509050919050565b600060018081111561166557fe5b600660008473ffffffffffffffffffffffffffffffffffffffff1673ffffffffffffffffffffffffffffffffffffffff16815260200190815260200160002060030160019054906101000a900460ff1660018111156116c057fe5b149050919050565b60066020528060005260406000206000915090508060000154908060010160009054906101000a900467ffffffffffffffff1690806002018054600181600116156101000203166002900480601f0160208091040260200160405190810160405280929190818152602001828054600181600116156101000203166002900480156117945780601f1061176957610100808354040283529160200191611794565b820191906000526020600020905b81548152906001019060200180831161177757829003601f168201915b5050505050908060030160009054906101000a900460ff16908060030160019054906101000a900460ff16908060030160029054906101000a900460ff16908060040154905087565b3373ffffffffffffffffffffffffffffffffffffffff16600160009054906101000a900473ffffffffffffffffffffffffffffffffffffffff1673ffffffffffffffffffffffffffffffffffffffff1614611883576040517f08c379a000000000000000000000000000000000000000000000000000000000815260040180806020018281038252604d81526020018061607e604d913960600191505060405180910390fd5b60003390506001600581111561189557fe5b600660008573ffffffffffffffffffffffffffffffffffffffff1673ffffffffffffffffffffffffffffffffffffffff16815260200190815260200160002060030160009054906101000a900460ff1660058111156118f057fe5b14611946576040517f08c379a0000000000000000000000000000000000000000000000000000000008152600401808060200182810382526036815260200180615f376036913960400191505060405180910390fd5b61194f83611657565b6119a4576040517f08c379a000000000000000000000000000000000000000000000000000000000815260040180806020018281038252602b815260200180616127602b913960400191505060405180910390fd5b6119ad83612c14565b15611a03576040517f08c379a0000000000000000000000000000000000000000000000000000000008152600401808060200182810382526033815260200180615d636033913960400191505060405180910390fd5b611a0c836155ce565b15611a62576040517f08c379a0000000000000000000000000000000000000000000000000000000008152600401808060200182810382526034815260200180615f6d6034913960400191505060405180910390fd5b8115611bee576002600660008573ffffffffffffffffffffffffffffffffffffffff1673ffffffffffffffffffffffffffffffffffffffff16815260200190815260200160002060030160006101000a81548160ff02191690836005811115611ac757fe5b02179055507f88a401630afd2c730097d0a0f3a014c6e7cc6db68bb1b13d4e1a37622b44518183600660008673ffffffffffffffffffffffffffffffffffffffff1673ffffffffffffffffffffffffffffffffffffffff16815260200190815260200160002060000154600660008773ffffffffffffffffffffffffffffffffffffffff1673ffffffffffffffffffffffffffffffffffffffff16815260200190815260200160002060010160009054906101000a900467ffffffffffffffff1684604051808573ffffffffffffffffffffffffffffffffffffffff1681526020018481526020018367ffffffffffffffff1681526020018273ffffffffffffffffffffffffffffffffffffffff16815260200194505050505060405180910390a1611d70565b6003600660008573ffffffffffffffffffffffffffffffffffffffff1673ffffffffffffffffffffffffffffffffffffffff16815260200190815260200160002060030160006101000a81548160ff02191690836005811115611c4d57fe5b02179055507f59567b1124b6234e30f0a452574ad973b93bff3b825fb38e284fb8bc9b0c104b83600660008673ffffffffffffffffffffffffffffffffffffffff1673ffffffffffffffffffffffffffffffffffffffff16815260200190815260200160002060000154600660008773ffffffffffffffffffffffffffffffffffffffff1673ffffffffffffffffffffffffffffffffffffffff16815260200190815260200160002060010160009054906101000a900467ffffffffffffffff1684604051808573ffffffffffffffffffffffffffffffffffffffff1681526020018481526020018367ffffffffffffffff1681526020018273ffffffffffffffffffffffffffffffffffffffff16815260200194505050505060405180910390a15b505050565b60008173ffffffffffffffffffffffffffffffffffffffff16611d96613d7b565b73ffffffffffffffffffffffffffffffffffffffff16149050919050565b6000600660008373ffffffffffffffffffffffffffffffffffffffff1673ffffffffffffffffffffffffffffffffffffffff168152602001908152602001600020600001549050919050565b6000339050611e0e82612f07565b611e63576040517f08c379a0000000000000000000000000000000000000000000000000000000008152600401808060200182810382526023815260200180615f146023913960400191505060405180910390fd5b611e6c81614147565b15611ec2576040517f08c379a0000000000000000000000000000000000000000000000000000000008152600401808060200182810382526035815260200180615be26035913960400191505060405180910390fd5b611ecb81613da4565b15611f21576040517f08c379a00000000000000000000000000000000000000000000000000000000081526004018080602001828103825260278152602001806160cb6027913960400191505060405180910390fd5b60006005544201905082600660008473ffffffffffffffffffffffffffffffffffffffff1673ffffffffffffffffffffffffffffffffffffffff1681526020019081526020016000206002019080519060200190611f80929190615a8a565b506001600660008473ffffffffffffffffffffffffffffffffffffffff1673ffffffffffffffffffffffffffffffffffffffff16815260200190815260200160002060030160006101000a81548160ff02191690836005811115611fe057fe5b021790555080600660008473ffffffffffffffffffffffffffffffffffffffff1673ffffffffffffffffffffffffffffffffffffffff168152602001908152602001600020600401819055506000600660008473ffffffffffffffffffffffffffffffffffffffff1673ffffffffffffffffffffffffffffffffffffffff16815260200190815260200160002060030160026101000a81548160ff0219169083151502179055507ff492947317cd8bacaf07d8d493aa37edfc267531f5c311a42eaf0b68d332f38b828483604051808473ffffffffffffffffffffffffffffffffffffffff16815260200180602001838152602001828103825284818151815260200191508051906020019080838360005b8381101561210d5780820151818401526020810190506120f2565b50505050905090810190601f16801561213a5780820380516001836020036101000a031916815260200191505b5094505050505060405180910390a1505050565b3373ffffffffffffffffffffffffffffffffffffffff16600360009054906101000a900473ffffffffffffffffffffffffffffffffffffffff1673ffffffffffffffffffffffffffffffffffffffff16146121f4576040517f08c379a0000000000000000000000000000000000000000000000000000000008152600401808060200182810382526067815260200180615c3d6067913960800191505060405180910390fd5b6121ff81600261561c565b50565b600260009054906101000a900473ffffffffffffffffffffffffffffffffffffffff1681565b600061223382612c6d565b8015612245575061224382612c14565b155b80156122575750612255826155ce565b155b9050919050565b60006001600581111561226d57fe5b600660008473ffffffffffffffffffffffffffffffffffffffff1673ffffffffffffffffffffffffffffffffffffffff16815260200190815260200160002060030160009054906101000a900460ff1660058111156122c857fe5b14806123395750600260058111156122dc57fe5b600660008473ffffffffffffffffffffffffffffffffffffffff1673ffffffffffffffffffffffffffffffffffffffff16815260200190815260200160002060030160009054906101000a900460ff16600581111561233757fe5b145b806123a957506003600581111561234c57fe5b600660008473ffffffffffffffffffffffffffffffffffffffff1673ffffffffffffffffffffffffffffffffffffffff16815260200190815260200160002060030160009054906101000a900460ff1660058111156123a757fe5b145b9050919050565b6123b8615860565b73ffffffffffffffffffffffffffffffffffffffff1660008054906101000a900473ffffffffffffffffffffffffffffffffffffffff1673ffffffffffffffffffffffffffffffffffffffff1614612478576040517f08c379a00000000000000000000000000000000000000000000000000000000081526004018080602001828103825260208152602001807f4f776e61626c653a2063616c6c6572206973206e6f7420746865206f776e657281525060200191505060405180910390fd5b60006005549050816005819055507f33e73778e90a0a7d35d5d4332f4668b1fcff659529950c30f760a39ba49fafec3382600554604051808473ffffffffffffffffffffffffffffffffffffffff168152602001838152602001828152602001935050505060405180910390a15050565b6124f233612c14565b15612548576040517f08c379a000000000000000000000000000000000000000000000000000000000815260040180806020018281038252603a815260200180615ca4603a913960400191505060405180910390fd5b612551336155ce565b6125a6576040517f08c379a0000000000000000000000000000000000000000000000000000000008152600401808060200182810382526065815260200180615e286065913960800191505060405180910390fd5b6125af33612c6d565b612604576040517f08c379a0000000000000000000000000000000000000000000000000000000008152600401808060200182810382526036815260200180615ede6036913960400191505060405180910390fd5b600033905061261281611657565b612667576040517f08c379a000000000000000000000000000000000000000000000000000000000815260040180806020018281038252603681526020018061619a6036913960400191505060405180910390fd5b6001600581111561267457fe5b600660008473ffffffffffffffffffffffffffffffffffffffff1673ffffffffffffffffffffffffffffffffffffffff16815260200190815260200160002060030160009054906101000a900460ff1660058111156126cf57fe5b14612725576040517f08c379a0000000000000000000000000000000000000000000000000000000008152600401808060200182810382526036815260200180615f376036913960400191505060405180910390fd5b61272e82612c14565b15612784576040517f08c379a0000000000000000000000000000000000000000000000000000000008152600401808060200182810382526033815260200180615d636033913960400191505060405180910390fd5b61278d826155ce565b156127e3576040517f08c379a0000000000000000000000000000000000000000000000000000000008152600401808060200182810382526034815260200180615f6d6034913960400191505060405180910390fd5b600060018111156127f057fe5b600660008473ffffffffffffffffffffffffffffffffffffffff1673ffffffffffffffffffffffffffffffffffffffff16815260200190815260200160002060030160019054906101000a900460ff16600181111561284b57fe5b146128a1576040517f08c379a00000000000000000000000000000000000000000000000000000000081526004018080602001828103825260328152602001806161d06032913960400191505060405180910390fd5b6128ab81836145f0565b612900576040517f08c379a000000000000000000000000000000000000000000000000000000000815260040180806020018281038252604c815260200180616032604c913960600191505060405180910390fd5b6004600660008473ffffffffffffffffffffffffffffffffffffffff1673ffffffffffffffffffffffffffffffffffffffff16815260200190815260200160002060030160006101000a81548160ff0219169083600581111561295f57fe5b02179055507f90e796ddecc580ca3db3277073bdbf5d9c3eac364c19683d78a0bb129021360b82600660008573ffffffffffffffffffffffffffffffffffffffff1673ffffffffffffffffffffffffffffffffffffffff16815260200190815260200160002060000154600660008673ffffffffffffffffffffffffffffffffffffffff1673ffffffffffffffffffffffffffffffffffffffff16815260200190815260200160002060010160009054906101000a900467ffffffffffffffff1684604051808573ffffffffffffffffffffffffffffffffffffffff1681526020018481526020018367ffffffffffffffff1681526020018273ffffffffffffffffffffffffffffffffffffffff16815260200194505050505060405180910390a15050565b3373ffffffffffffffffffffffffffffffffffffffff16600360009054906101000a900473ffffffffffffffffffffffffffffffffffffffff1673ffffffffffffffffffffffffffffffffffffffff1614612b2b576040517f08c379a0000000000000000000000000000000000000000000000000000000008152600401808060200182810382526067815260200180615c3d6067913960800191505060405180910390fd5b612b3481613da4565b15612b8a576040517f08c379a0000000000000000000000000000000000000000000000000000000008152600401808060200182810382526029815260200180615dbe6029913960400191505060405180910390fd5b612b9381612c14565b15612c06576040517f08c379a00000000000000000000000000000000000000000000000000000000081526004018080602001828103825260178152602001807f436f6e7461206ac3a120657374c3a1207061757361646100000000000000000081525060200191505060405180910390fd5b612c11816002615868565b50565b6000600660008373ffffffffffffffffffffffffffffffffffffffff1673ffffffffffffffffffffffffffffffffffffffff16815260200190815260200160002060030160029054906101000a900460ff169050919050565b600060046005811115612c7c57fe5b600660008473ffffffffffffffffffffffffffffffffffffffff1673ffffffffffffffffffffffffffffffffffffffff16815260200190815260200160002060030160009054906101000a900460ff166005811115612cd757fe5b149050919050565b600080612ceb83611db4565b9050612cf6816114a7565b612d4b576040517f08c379a00000000000000000000000000000000000000000000000000000000081526004018080602001828103825260268152602001806162336026913960400191505060405180910390fd5b80915050919050565b3373ffffffffffffffffffffffffffffffffffffffff16600260009054906101000a900473ffffffffffffffffffffffffffffffffffffffff1673ffffffffffffffffffffffffffffffffffffffff1614612dfa576040517f08c379a00000000000000000000000000000000000000000000000000000000081526004018080602001828103825260488152602001806161526048913960600191505060405180910390fd5b612e038161225e565b612e58576040517f08c379a0000000000000000000000000000000000000000000000000000000008152600401808060200182810382526036815260200180615bac6036913960400191505060405180910390fd5b612e6181611657565b612ed3576040517f08c379a000000000000000000000000000000000000000000000000000000000815260040180806020018281038252601b8152602001807f496e76616c696461206170656e617320636f6e74612041444d494e000000000081525060200191505060405180910390fd5b612ede81600261543e565b50565b600360009054906101000a900473ffffffffffffffffffffffffffffffffffffffff1681565b600060608290506040815114612f215760009150506130e5565b60005b60408110156130de577f3000000000000000000000000000000000000000000000000000000000000000828281518110612f5a57fe5b602001015160f81c60f81b7effffffffffffffffffffffffffffffffffffffffffffffffffffffffffffff19161015612f98576000925050506130e5565b7f3900000000000000000000000000000000000000000000000000000000000000828281518110612fc557fe5b602001015160f81c60f81b7effffffffffffffffffffffffffffffffffffffffffffffffffffffffffffff191611801561305657507f610000000000000000000000000000000000000000000000000000000000000082828151811061302757fe5b602001015160f81c60f81b7effffffffffffffffffffffffffffffffffffffffffffffffffffffffffffff1916105b15613066576000925050506130e5565b7f660000000000000000000000000000000000000000000000000000000000000082828151811061309357fe5b602001015160f81c60f81b7effffffffffffffffffffffffffffffffffffffffffffffffffffffffffffff191611156130d1576000925050506130e5565b8080600101915050612f24565b5060019150505b919050565b6130f2615860565b73ffffffffffffffffffffffffffffffffffffffff1660008054906101000a900473ffffffffffffffffffffffffffffffffffffffff1673ffffffffffffffffffffffffffffffffffffffff16146131b2576040517f08c379a00000000000000000000000000000000000000000000000000000000081526004018080602001828103825260208152602001807f4f776e61626c653a2063616c6c6572206973206e6f7420746865206f776e657281525060200191505060405180910390fd5b600073ffffffffffffffffffffffffffffffffffffffff1660008054906101000a900473ffffffffffffffffffffffffffffffffffffffff1673ffffffffffffffffffffffffffffffffffffffff167f8be0079c531659141344cd1fd0a4f28419497f9722a3daafe3b4186f6b6457e060405160405180910390a360008060006101000a81548173ffffffffffffffffffffffffffffffffffffffff021916908373ffffffffffffffffffffffffffffffffffffffff160217905550565b60086020528060005260406000206000915090505481565b613290615860565b73ffffffffffffffffffffffffffffffffffffffff1660008054906101000a900473ffffffffffffffffffffffffffffffffffffffff1673ffffffffffffffffffffffffffffffffffffffff1614613350576040517f08c379a00000000000000000000000000000000000000000000000000000000081526004018080602001828103825260208152602001807f4f776e61626c653a2063616c6c6572206973206e6f7420746865206f776e657281525060200191505060405180910390fd5b80600360006101000a81548173ffffffffffffffffffffffffffffffffffffffff021916908373ffffffffffffffffffffffffffffffffffffffff1602179055507fe8940ba94a1b862af0a845755bbe38516264b7937dc69ffdb00fa16bb9c2c85f81604051808273ffffffffffffffffffffffffffffffffffffffff16815260200191505060405180910390a150565b6133ea33612c14565b15613440576040517f08c379a000000000000000000000000000000000000000000000000000000000815260040180806020018281038252603a815260200180615ca4603a913960400191505060405180910390fd5b613449336155ce565b61349e576040517f08c379a0000000000000000000000000000000000000000000000000000000008152600401808060200182810382526065815260200180615e286065913960800191505060405180910390fd5b6134a733612c6d565b6134fc576040517f08c379a0000000000000000000000000000000000000000000000000000000008152600401808060200182810382526036815260200180615ede6036913960400191505060405180910390fd5b600033905061350a82613da4565b15613560576040517f08c379a0000000000000000000000000000000000000000000000000000000008152600401808060200182810382526023815260200180615ebb6023913960400191505060405180910390fd5b61356a81836145f0565b6135bf576040517f08c379a000000000000000000000000000000000000000000000000000000000815260040180806020018281038252603a815260200180615fcb603a913960400191505060405180910390fd5b8073ffffffffffffffffffffffffffffffffffffffff168273ffffffffffffffffffffffffffffffffffffffff1614806135fe57506135fd81611657565b5b613653576040517f08c379a0000000000000000000000000000000000000000000000000000000008152600401808060200182810382526028815260200180615d966028913960400191505060405180910390fd5b61365e82600161543e565b5050565b6000600660008373ffffffffffffffffffffffffffffffffffffffff1673ffffffffffffffffffffffffffffffffffffffff16815260200190815260200160002060030160019054906101000a900460ff1660018111156136bf57fe5b9050919050565b60003390506136d482612f07565b613729576040517f08c379a0000000000000000000000000000000000000000000000000000000008152600401808060200182810382526023815260200180615f146023913960400191505060405180910390fd5b61373281614147565b613787576040517f08c379a00000000000000000000000000000000000000000000000000000000081526004018080602001828103825260358152602001806160f26035913960400191505060405180910390fd5b600060055442019050600061379b856159ef565b90506040518060400160405280600181526020017f30000000000000000000000000000000000000000000000000000000000000008152508051906020012084805190602001201415613959576040518060e001604052808281526020018667ffffffffffffffff1681526020018581526020016001600581111561381c57fe5b81526020016000600181111561382e57fe5b815260200160001515815260200183815250600660008573ffffffffffffffffffffffffffffffffffffffff1673ffffffffffffffffffffffffffffffffffffffff1681526020019081526020016000206000820151816000015560208201518160010160006101000a81548167ffffffffffffffff021916908367ffffffffffffffff16021790555060408201518160020190805190602001906138d4929190615a8a565b5060608201518160030160006101000a81548160ff021916908360058111156138f957fe5b021790555060808201518160030160016101000a81548160ff0219169083600181111561392257fe5b021790555060a08201518160030160026101000a81548160ff02191690831515021790555060c08201518160040155905050613ac5565b6040518060e001604052808281526020018667ffffffffffffffff1681526020018581526020016001600581111561398d57fe5b815260200160018081111561399e57fe5b815260200160001515815260200183815250600660008573ffffffffffffffffffffffffffffffffffffffff1673ffffffffffffffffffffffffffffffffffffffff1681526020019081526020016000206000820151816000015560208201518160010160006101000a81548167ffffffffffffffff021916908367ffffffffffffffff1602179055506040820151816002019080519060200190613a44929190615a8a565b5060608201518160030160006101000a81548160ff02191690836005811115613a6957fe5b021790555060808201518160030160016101000a81548160ff02191690836001811115613a9257fe5b021790555060a08201518160030160026101000a81548160ff02191690831515021790555060c082015181600401559050505b60076000828152602001908152602001600020839080600181540180825580915050600190039060005260206000200160009091909190916101000a81548173ffffffffffffffffffffffffffffffffffffffff021916908373ffffffffffffffffffffffffffffffffffffffff16021790555060608490507fdf705ffb67f3c12f456a843de9785cb8435e6819b1974e5df6de4557ae2f52f68483888487604051808673ffffffffffffffffffffffffffffffffffffffff1681526020018581526020018467ffffffffffffffff16815260200180602001838152602001828103825284818151815260200191508051906020019080838360005b83811015613bdc578082015181840152602081019050613bc1565b50505050905090810190601f168015613c095780820380516001836020036101000a031916815260200191505b50965050505050505060405180910390a1505050505050565b613c2a615860565b73ffffffffffffffffffffffffffffffffffffffff1660008054906101000a900473ffffffffffffffffffffffffffffffffffffffff1673ffffffffffffffffffffffffffffffffffffffff1614613cea576040517f08c379a00000000000000000000000000000000000000000000000000000000081526004018080602001828103825260208152602001807f4f776e61626c653a2063616c6c6572206973206e6f7420746865206f776e657281525060200191505060405180910390fd5b80600260006101000a81548173ffffffffffffffffffffffffffffffffffffffff021916908373ffffffffffffffffffffffffffffffffffffffff1602179055507fab616eba0b7070d2d87e12d5c2d05868da9a14a38db4c54abb148faa879bdf6281604051808273ffffffffffffffffffffffffffffffffffffffff16815260200191505060405180910390a150565b60008060009054906101000a900473ffffffffffffffffffffffffffffffffffffffff16905090565b6000600580811115613db257fe5b600660008473ffffffffffffffffffffffffffffffffffffffff1673ffffffffffffffffffffffffffffffffffffffff16815260200190815260200160002060030160009054906101000a900460ff166005811115613e0d57fe5b149050919050565b60055481565b613e2433612c14565b15613e7a576040517f08c379a000000000000000000000000000000000000000000000000000000000815260040180806020018281038252603a815260200180615ca4603a913960400191505060405180910390fd5b613e83336155ce565b613ed8576040517f08c379a0000000000000000000000000000000000000000000000000000000008152600401808060200182810382526065815260200180615e286065913960800191505060405180910390fd5b613ee133612c6d565b613f36576040517f08c379a0000000000000000000000000000000000000000000000000000000008152600401808060200182810382526036815260200180615ede6036913960400191505060405180910390fd5b6000339050613f4482611657565b613f99576040517f08c379a00000000000000000000000000000000000000000000000000000000081526004018080602001828103825260318152602001806162026031913960400191505060405180910390fd5b8173ffffffffffffffffffffffffffffffffffffffff168173ffffffffffffffffffffffffffffffffffffffff16141561401e576040517f08c379a0000000000000000000000000000000000000000000000000000000008152600401808060200182810382526041815260200180615de76041913960600191505060405180910390fd5b61402881836145f0565b61407d576040517f08c379a0000000000000000000000000000000000000000000000000000000008152600401808060200182810382526047815260200180615d1c6047913960600191505060405180910390fd5b61408882600161561c565b5050565b6000600660008373ffffffffffffffffffffffffffffffffffffffff1673ffffffffffffffffffffffffffffffffffffffff16815260200190815260200160002060030160009054906101000a900460ff1660058111156140e957fe5b9050919050565b6000600860008367ffffffffffffffff1667ffffffffffffffff168152602001908152602001600020549050919050565b600160009054906101000a900473ffffffffffffffffffffffffffffffffffffffff1681565b600080600581111561415557fe5b600660008473ffffffffffffffffffffffffffffffffffffffff1673ffffffffffffffffffffffffffffffffffffffff16815260200190815260200160002060030160009054906101000a900460ff1660058111156141b057fe5b149050919050565b6141c0615860565b73ffffffffffffffffffffffffffffffffffffffff1660008054906101000a900473ffffffffffffffffffffffffffffffffffffffff1673ffffffffffffffffffffffffffffffffffffffff1614614280576040517f08c379a00000000000000000000000000000000000000000000000000000000081526004018080602001828103825260208152602001807f4f776e61626c653a2063616c6c6572206973206e6f7420746865206f776e657281525060200191505060405180910390fd5b80600160006101000a81548173ffffffffffffffffffffffffffffffffffffffff021916908373ffffffffffffffffffffffffffffffffffffffff1602179055507fb4b21447ed122203af852ed9cc9406dfcf15215ca2a22c6e2adca1156bccea9181604051808273ffffffffffffffffffffffffffffffffffffffff16815260200191505060405180910390a150565b6007602052816000526040600020818154811061432a57fe5b906000526020600020016000915091509054906101000a900473ffffffffffffffffffffffffffffffffffffffff1681565b61436533612c14565b156143bb576040517f08c379a000000000000000000000000000000000000000000000000000000000815260040180806020018281038252603a815260200180615ca4603a913960400191505060405180910390fd5b6143c4336155ce565b614419576040517f08c379a0000000000000000000000000000000000000000000000000000000008152600401808060200182810382526065815260200180615e286065913960800191505060405180910390fd5b61442233612c6d565b614477576040517f08c379a0000000000000000000000000000000000000000000000000000000008152600401808060200182810382526036815260200180615ede6036913960400191505060405180910390fd5b600033905060606007600084815260200190815260200160002080548060200260200160405190810160405280929190818152602001828054801561451157602002820191906000526020600020905b8160009054906101000a900473ffffffffffffffffffffffffffffffffffffffff1673ffffffffffffffffffffffffffffffffffffffff16815260200190600101908083116144c7575b50505050509050614536828260008151811061452957fe5b60200260200101516145f0565b61458b576040517f08c379a000000000000000000000000000000000000000000000000000000000815260040180806020018281038252603e815260200180615cde603e913960400191505060405180910390fd5b60005b81518110156145ea5760008282815181106145a557fe5b602002602001015190506145b881613da4565b1580156145cb57506145c981612c14565b155b156145dc576145db816003615868565b5b50808060010191505061458e565b50505050565b6000600660008373ffffffffffffffffffffffffffffffffffffffff1673ffffffffffffffffffffffffffffffffffffffff16815260200190815260200160002060010160009054906101000a900467ffffffffffffffff1667ffffffffffffffff16600660008573ffffffffffffffffffffffffffffffffffffffff1673ffffffffffffffffffffffffffffffffffffffff16815260200190815260200160002060010160009054906101000a900467ffffffffffffffff1667ffffffffffffffff1614905092915050565b6000600660008373ffffffffffffffffffffffffffffffffffffffff1673ffffffffffffffffffffffffffffffffffffffff16815260200190815260200160002060010160009054906101000a900467ffffffffffffffff169050919050565b60045481565b61472c33612c14565b15614782576040517f08c379a000000000000000000000000000000000000000000000000000000000815260040180806020018281038252603a815260200180615ca4603a913960400191505060405180910390fd5b61478b336155ce565b6147e0576040517f08c379a0000000000000000000000000000000000000000000000000000000008152600401808060200182810382526065815260200180615e286065913960800191505060405180910390fd5b6147e933612c6d565b61483e576040517f08c379a0000000000000000000000000000000000000000000000000000000008152600401808060200182810382526036815260200180615ede6036913960400191505060405180910390fd5b600033905061484c82613da4565b156148a2576040517f08c379a0000000000000000000000000000000000000000000000000000000008152600401808060200182810382526029815260200180615dbe6029913960400191505060405180910390fd5b6148ab82612c14565b1561491e576040517f08c379a00000000000000000000000000000000000000000000000000000000081526004018080602001828103825260178152602001807f436f6e7461206ac3a120657374c3a1207061757361646100000000000000000081525060200191505060405180910390fd5b61492881836145f0565b61497d576040517f08c379a000000000000000000000000000000000000000000000000000000000815260040180806020018281038252603e815260200180615cde603e913960400191505060405180910390fd5b8073ffffffffffffffffffffffffffffffffffffffff168273ffffffffffffffffffffffffffffffffffffffff1614806149bc57506149bb81611657565b5b614a11576040517f08c379a0000000000000000000000000000000000000000000000000000000008152600401808060200182810382526025815260200180615b876025913960400191505060405180910390fd5b614a1c826001615868565b5050565b3373ffffffffffffffffffffffffffffffffffffffff16600260009054906101000a900473ffffffffffffffffffffffffffffffffffffffff1673ffffffffffffffffffffffffffffffffffffffff1614614ac6576040517f08c379a00000000000000000000000000000000000000000000000000000000081526004018080602001828103825260488152602001806161526048913960600191505060405180910390fd5b6000339050614ad48261225e565b614b29576040517f08c379a000000000000000000000000000000000000000000000000000000000815260040180806020018281038252602a815260200180615fa1602a913960400191505060405180910390fd5b614b3282612c14565b15614b88576040517f08c379a0000000000000000000000000000000000000000000000000000000008152600401808060200182810382526033815260200180615d636033913960400191505060405180910390fd5b614b91826155ce565b15614be7576040517f08c379a0000000000000000000000000000000000000000000000000000000008152600401808060200182810382526034815260200180615f6d6034913960400191505060405180910390fd5b614bf082611657565b614c45576040517f08c379a000000000000000000000000000000000000000000000000000000000815260040180806020018281038252602b815260200180616127602b913960400191505060405180910390fd5b6004600660008473ffffffffffffffffffffffffffffffffffffffff1673ffffffffffffffffffffffffffffffffffffffff16815260200190815260200160002060030160006101000a81548160ff02191690836005811115614ca457fe5b02179055507f90e796ddecc580ca3db3277073bdbf5d9c3eac364c19683d78a0bb129021360b82600660008573ffffffffffffffffffffffffffffffffffffffff1673ffffffffffffffffffffffffffffffffffffffff16815260200190815260200160002060000154600660008673ffffffffffffffffffffffffffffffffffffffff1673ffffffffffffffffffffffffffffffffffffffff16815260200190815260200160002060010160009054906101000a900467ffffffffffffffff1684604051808573ffffffffffffffffffffffffffffffffffffffff1681526020018481526020018367ffffffffffffffff1681526020018273ffffffffffffffffffffffffffffffffffffffff16815260200194505050505060405180910390a15050565b60008060076000848152602001908152602001600020600081548110614dec57fe5b9060005260206000200160009054906101000a900473ffffffffffffffffffffffffffffffffffffffff169050600660008273ffffffffffffffffffffffffffffffffffffffff1673ffffffffffffffffffffffffffffffffffffffff16815260200190815260200160002060010160009054906101000a900467ffffffffffffffff16915050919050565b3373ffffffffffffffffffffffffffffffffffffffff16600360009054906101000a900473ffffffffffffffffffffffffffffffffffffffff1673ffffffffffffffffffffffffffffffffffffffff1614614f1e576040517f08c379a0000000000000000000000000000000000000000000000000000000008152600401808060200182810382526067815260200180615c3d6067913960800191505060405180910390fd5b606060076000838152602001908152602001600020805480602002602001604051908101604052809291908181526020018280548015614fb357602002820191906000526020600020905b8160009054906101000a900473ffffffffffffffffffffffffffffffffffffffff1673ffffffffffffffffffffffffffffffffffffffff1681526020019060010190808311614f69575b5050505050905060005b8151811015615019576000828281518110614fd457fe5b60200260200101519050614fe781613da4565b158015614ffa5750614ff881612c14565b155b1561500b5761500a816004615868565b5b508080600101915050614fbd565b505050565b615026615860565b73ffffffffffffffffffffffffffffffffffffffff1660008054906101000a900473ffffffffffffffffffffffffffffffffffffffff1673ffffffffffffffffffffffffffffffffffffffff16146150e6576040517f08c379a00000000000000000000000000000000000000000000000000000000081526004018080602001828103825260208152602001807f4f776e61626c653a2063616c6c6572206973206e6f7420746865206f776e657281525060200191505060405180910390fd5b600073ffffffffffffffffffffffffffffffffffffffff168173ffffffffffffffffffffffffffffffffffffffff16141561516c576040517f08c379a0000000000000000000000000000000000000000000000000000000008152600401808060200182810382526026815260200180615c176026913960400191505060405180910390fd5b8073ffffffffffffffffffffffffffffffffffffffff1660008054906101000a900473ffffffffffffffffffffffffffffffffffffffff1673ffffffffffffffffffffffffffffffffffffffff167f8be0079c531659141344cd1fd0a4f28419497f9722a3daafe3b4186f6b6457e060405160405180910390a3806000806101000a81548173ffffffffffffffffffffffffffffffffffffffff021916908373ffffffffffffffffffffffffffffffffffffffff16021790555050565b600080606060008060008061523c615b0a565b600660008a73ffffffffffffffffffffffffffffffffffffffff1673ffffffffffffffffffffffffffffffffffffffff1681526020019081526020016000206040518060e0016040529081600082015481526020016001820160009054906101000a900467ffffffffffffffff1667ffffffffffffffff1667ffffffffffffffff168152602001600282018054600181600116156101000203166002900480601f01602080910402602001604051908101604052809291908181526020018280546001816001161561010002031660029004801561535b5780601f106153305761010080835404028352916020019161535b565b820191906000526020600020905b81548152906001019060200180831161533e57829003601f168201915b505050505081526020016003820160009054906101000a900460ff16600581111561538257fe5b600581111561538d57fe5b81526020016003820160019054906101000a900460ff1660018111156153af57fe5b60018111156153ba57fe5b81526020016003820160029054906101000a900460ff16151515158152602001600482015481525050905060608160400151905081600001518260200151828460600151600581111561540957fe5b8560800151600181111561541957fe5b8660a001518760c0015198509850985098509850985098505050919395979092949650565b6005600660008473ffffffffffffffffffffffffffffffffffffffff1673ffffffffffffffffffffffffffffffffffffffff16815260200190815260200160002060030160006101000a81548160ff0219169083600581111561549d57fe5b02179055507ff21c6489d7501ed8680a8057bde75d0b1a96ed72c4e7fb66dab5500b247f573b82600660008573ffffffffffffffffffffffffffffffffffffffff1673ffffffffffffffffffffffffffffffffffffffff16815260200190815260200160002060000154600660008673ffffffffffffffffffffffffffffffffffffffff1673ffffffffffffffffffffffffffffffffffffffff16815260200190815260200160002060010160009054906101000a900467ffffffffffffffff163385604051808673ffffffffffffffffffffffffffffffffffffffff1681526020018581526020018467ffffffffffffffff1681526020018373ffffffffffffffffffffffffffffffffffffffff1681526020018260ff1681526020019550505050505060405180910390a15050565b600042600660008473ffffffffffffffffffffffffffffffffffffffff1673ffffffffffffffffffffffffffffffffffffffff16815260200190815260200160002060040154119050919050565b61562582613da4565b1561567b576040517f08c379a000000000000000000000000000000000000000000000000000000000815260040180806020018281038252602e815260200180615e8d602e913960400191505060405180910390fd5b61568482612c14565b6156d9576040517f08c379a000000000000000000000000000000000000000000000000000000000815260040180806020018281038252602d815260200180616005602d913960400191505060405180910390fd5b6000600660008473ffffffffffffffffffffffffffffffffffffffff1673ffffffffffffffffffffffffffffffffffffffff16815260200190815260200160002060030160026101000a81548160ff0219169083151502179055507f227cbae91e983df06bd1200d744f04513fee47cfd847092fa7f5c8c1ad62208182600660008573ffffffffffffffffffffffffffffffffffffffff1673ffffffffffffffffffffffffffffffffffffffff16815260200190815260200160002060000154600660008673ffffffffffffffffffffffffffffffffffffffff1673ffffffffffffffffffffffffffffffffffffffff16815260200190815260200160002060010160009054906101000a900467ffffffffffffffff163385604051808673ffffffffffffffffffffffffffffffffffffffff1681526020018581526020018467ffffffffffffffff1681526020018373ffffffffffffffffffffffffffffffffffffffff1681526020018260ff1681526020019550505050505060405180910390a15050565b600033905090565b6001600660008473ffffffffffffffffffffffffffffffffffffffff1673ffffffffffffffffffffffffffffffffffffffff16815260200190815260200160002060030160026101000a81548160ff0219169083151502179055507fca968621fb765ebc0063732949287ab2f87e93949cbb9adea1cc88bba7576dea82600660008573ffffffffffffffffffffffffffffffffffffffff1673ffffffffffffffffffffffffffffffffffffffff16815260200190815260200160002060000154600660008673ffffffffffffffffffffffffffffffffffffffff1673ffffffffffffffffffffffffffffffffffffffff16815260200190815260200160002060010160009054906101000a900467ffffffffffffffff163385604051808673ffffffffffffffffffffffffffffffffffffffff1681526020018581526020018467ffffffffffffffff1681526020018373ffffffffffffffffffffffffffffffffffffffff1681526020018260ff1681526020019550505050505060405180910390a15050565b600080600860008467ffffffffffffffff1667ffffffffffffffff168152602001908152602001600020541415615a5b57600460008154600101919050819055600860008467ffffffffffffffff1667ffffffffffffffff168152602001908152602001600020819055505b600860008367ffffffffffffffff1667ffffffffffffffff168152602001908152602001600020549050919050565b828054600181600116156101000203166002900490600052602060002090601f016020900481019282601f10615acb57805160ff1916838001178555615af9565b82800160010185558215615af9579182015b82811115615af8578251825591602001919060010190615add565b5b509050615b069190615b69565b5090565b6040518060e0016040528060008152602001600067ffffffffffffffff1681526020016060815260200160006005811115615b4157fe5b815260200160006001811115615b5357fe5b8152602001600015158152602001600081525090565b5b80821115615b82576000816000905550600101615b6a565b509056fe4ec3a36f20706f64652070617573617220636f6e7461206465206f7574726f2041444d494e4120636f6e74612070726563697361206573746172206e6f2065737461646f20416775617264616e646f2056616c696461c3a7c3a36f456e64657265c3a76f206465766520706f646520746572207369646f206361646173747261646f20616e746572696f726d656e74654f776e61626c653a206e6577206f776e657220697320746865207a65726f2061646472657373412061c3a7c3a36f2073c3b320706f646520736572206578656375746164612070656c6120636f6e746120726573706f6e73c3a176656c2070656c6120746f6d61722061c3a7c3b56573206465636f7272656e746573206465206d6f6e69746f7261c3a7c3a36f4170656e617320636f6e746173206ec3a36f20706175736164617320706f64656d2065786563757461722065737461206f70657261c3a7c3a36f536f6d656e746520636f6e7461206465206d65736d61206f7267616e697a61c3a7c3a36f20706f646520657865637574617220657374612061c3a7c3a36f536f6d656e746520706f6465207265746972617220706175736120646520756d6120636f6e7461207175656d20666f72206461206d65736d61206f7267616e697a61c3a7c3a36f4120636f6e7461206ec3a36f20706f6465207365722076616c696461646120706f7271756520657374c3a120706175736164614ec3a36f20706f646520696e76616c6964617220636f6e7461206465206f7574726f2041444d494e436f6e74617320696e76c3a16c69646173206ec3a36f20706f64656d20736572207061757361646173556d6120706573736f61206ec3a36f20c3a920636170617a2064652072657469726172206f20706175736520646520737561207072c3b37072696120636f6e74614170656e617320636f6e74617320636f6d206465636c617261c3a7c3b565732063756a6f7320636572746966696361646f732061696e64612073c3a36f2076c3a16c69646f7320706f64656d2065786563757461722065737461206f70657261c3a7c3a36f436f6e74617320696e76c3a16c69646173206ec3a36f20706f64656d2073657220726574697261722070617573614120636f6e746120666f6920696e76616c6964616461207072657669616d656e74652e4170656e617320636f6e7461732076616c69646164617320706f64656d2065786563757461722065737461206f70657261c3a7c3a36f4f2068617368206461206465636c617261c3a7c3a36f20c3a920696e76c3a16c69646f4120636f6e7461207072656369736120657374617220656d2065737461646f20416775617264616e646f2056616c696461c3a7c3a36f4120636f6e7461206ec3a36f20706f6465207365722076616c696461646120706f7271756520657374c3a12065787069726164614120636f6e7461207072656369736120657374617220656d2065737461646f20416775617264616e646f4170656e617320636f6e746173206461206d65736d61206f7267616e697a6163616f20706f64656d2073657220696e76616c6964616461732e20536f6d656e746520756d6120636f6e7461207061757361646120706f64652073657220646573706175736164614f20726573706f6e73c3a176656c2070656c612076616c696461c3a7c3a36f206465766520736572206461206d65736d61206f7267616e697a61c3a7c3a36f20286d65736d6f20434e504a29412061c3a7c3a36f2073c3b320706f646520736572206578656375746164612070656c6120636f6e746120726573706f6e73c3a176656c2070656c61207072c3a92d76616c696461c3a7c3a36f456e64657265c3a76f206ec3a36f20706f646520746572207369646f20696e76616c696461646f456e64657265c3a76f206ec3a36f20706f646520746572207369646f206361646173747261646f20616e746572696f726d656e74654120636f6e746120612076616c69646172206465766520746572206f20706170656c2064652041444d494e412061c3a7c3a36f2073c3b320706f646520736572206578656375746164612070656c6120636f6e746120726573706f6e73c3a176656c2070656c612076616c696461c3a7c3a36f4f20726573706f6e73c3a176656c2070656c612076616c696461c3a7c3a36f206465766520746572206f20706170656c2041444d494e4f20757375c3a172696f2061207365722076616c696461646f206465766520746572206f20706170656c20524547554c4152536f6d656e746520756d6120636f6e74612041444d494e20706f646520657865637574617220657374612061c3a7c3a36f41206f7267616e697a61c3a7c3a36f206ec3a36f20657374c3a1206f7065726163696f6e616ca2646970667358221220343cfa8b7059c1861c394236f33855894225f8ca54ec6137f3471bb65767994764736f6c634300060c0033",
  "immutableReferences": {},
  "source": "pragma solidity ^0.6.0;\n\nimport \"@openzeppelin/contracts/access/Ownable.sol\";\nimport \"./IRBBRegistry.sol\";\n\ncontract RBBRegistry is IRBBRegistry, Ownable() {\n\n    enum BlockchainAccountState {AVAILABLE,WAITING_VALIDATION,WAITING_APPROVAL,WAITING_REJECTION,VALIDATED,INVALIDATED}\n    BlockchainAccountState blockchainState; /* Variable not used, only defined to create the enum type. */\n      \n    /**\n    REGULAR  - operates \n    ADMIN    - validates the regular.\n     */\n    enum BlockchainAccountRole {REGULAR, ADMIN} \n    BlockchainAccountRole blockchainRole;  /* Variable not used, only defined to create the enum type. */\n\n    //Ativao/inativao de Registries no processo usual (pode ser via um processo automatizado) \n    address public responsibleForRegistryPreValidation;\n    address public responsibleForRegistryValidation;\n\n    //Inativao e pause/unpause decorrente de eventos no previstos (por exemplo, um comportamento inadequado de um Registry) \n    address public responsibleForActingAfterMonitoring;\n\n    /* This is a helper variable to emulate a sequence and autoincrement Ids*/\n    uint public currentRBBId = 0;\n\n     /**\n        This registry is about a company representative information\n     */    \n    struct Registry {\n        uint RBBId; //uma proxy para o CNPJ\n        uint64 CNPJ; //Brazilian identification of legal entity\n        string hashProof; //hash of declaration\n        BlockchainAccountState state;\n        BlockchainAccountRole role;\n        bool paused;\n        uint256 dateTimeExpiration; //vai ser outro momento de expirao diferente do ECNPJ\n    }\n\n    uint256 public defaultDeltaDateTimeExpiration = 365 days; \n\n    /**\n        Links Ethereum addresses to Registry\n     */\n    mapping(address => Registry) public legalEntitiesInfo;\n\n    /**\n        Links RBBID to Ethereum addresses.\n     */\n    mapping(uint => address[]) public RBBId_addresses;\n    \n    /**\n     * Links CNPJ to its RBBID\n     */\n    mapping (uint64 => uint) public CNPJ_RBBId;\n\n    //responsible is the msg.sender\n    event AccountRegistration       (address addr, uint RBBId, uint64 CNPJ, string hashProof, uint256 dateTimeExpiration);\n    event AccountWaitingApproval    (address addr, uint RBBId, uint64 CNPJ, address responsible);\n    event AccountWaitingRejection   (address addr, uint RBBId, uint64 CNPJ, address responsible);\n    event AccountValidation         (address addr, uint RBBId, uint64 CNPJ, address responsible);\n    event AccountInvalidation       (address addr, uint RBBId, uint64 CNPJ, address responsible, uint8 reason);\n    event AccountPaused             (address addr, uint RBBId, uint64 CNPJ, address responsible, uint8 reason);\n    event AccountUnpaused           (address addr, uint RBBId, uint64 CNPJ, address responsible, uint8 reason);\n    event AccountRoleChange         (address addr, uint RBBId, uint64 CNPJ, address responsible, BlockchainAccountRole roleBefore, BlockchainAccountRole roleNew);\n    event AccountReactivation       (address addr, string hashProof, uint256 dateTimeExpiration);\n\n    event RegistryExpirationChange  (address addr, uint256 dateTimeExpirationBefore, uint256 dateTimeExpirationNew);\n\n    event RoleDefinitionRegistryPreValidation(address rs);\n    event RoleDefinitionRegistryValidation(address rs);\n    event RoleDefinitionActingAfterMonitoring(address rs);\n\n\n    constructor () public {                \n        responsibleForRegistryValidation = msg.sender;\n        responsibleForActingAfterMonitoring = msg.sender;         \n    }\n\n    function setResponsibleForRegistryPreValidation(address rs) onlyOwner public {\n        responsibleForRegistryPreValidation = rs;\n        emit RoleDefinitionRegistryPreValidation(rs);\n    }    \n    function setResponsibleForRegistryValidation(address rs) onlyOwner public {\n        responsibleForRegistryValidation = rs;\n        emit RoleDefinitionRegistryValidation(rs);\n    }    \n    function setResponsibleForActingAfterMonitoring(address rs) onlyOwner public {\n        responsibleForActingAfterMonitoring = rs;\n        emit RoleDefinitionActingAfterMonitoring(rs);\n    }  \n    \n    modifier onlyByResponsibleForRegistryPreValidation() { \n        require( responsibleForRegistryPreValidation==msg.sender , \"A ao s pode ser executada pela conta responsvel pela pr-validao\" );\n        _;\n    }\n\n    modifier onlyByResponsibleForRegistryValidation() { \n        require( responsibleForRegistryValidation==msg.sender , \"A ao s pode ser executada pela conta responsvel pela validao\" );\n        _;\n    }\n\n    modifier onlyByResponsibleForActingAfterMonitoring() { \n        require( responsibleForActingAfterMonitoring==msg.sender , \"A ao s pode ser executada pela conta responsvel pela tomar aes decorrentes de monitorao\" );\n        _;\n    }\n\n    modifier onlyIfSenderIsOk() { \n        require( ! isPaused(msg.sender), \"Apenas contas no pausadas podem executar esta operao\" );\n        require( isExpired(msg.sender), \"Apenas contas com declaraes cujos certificados ainda so vlidos podem executar esta operao\" );\n        require( isValidatedAccount(msg.sender), \"Apenas contas validadas podem executar esta operao\" );\n        _;\n    }\n\n   /**\n    * Self Registering\n    * Link blockchain address with CNPJ\n    * @param CNPJ Brazilian identifier to legal entities\n    * @param proofHash The legal entities have to send BNDES a PDF where it assumes as responsible for an Ethereum account.\n    *                   This PDF is signed with eCNPJ and send to BNDES.\n    */\n    function registryLegalEntity(uint64 CNPJ, string memory proofHash) public {\n        \n        address addr = msg.sender;\n\n        require (isValidHash(proofHash), \"O hash da declarao  invlido\");\n        require (isAvailableAccount(addr), \"Endereo no pode ter sido cadastrado anteriormente\");\n\n        uint256 dateTimeExpiration = now + defaultDeltaDateTimeExpiration;\n        uint RBBId = calculaProximoRBBID(CNPJ);\n\n\n        if ( keccak256(bytes(proofHash)) == keccak256(bytes(\"0\")) ) { \n            legalEntitiesInfo[addr] = Registry( RBBId,\n                                                CNPJ, \n                                                proofHash, \n                                                BlockchainAccountState.WAITING_VALIDATION, \n                                                BlockchainAccountRole.REGULAR,\n                                                false,\n                                                dateTimeExpiration );\n        } else {\n            legalEntitiesInfo[addr] = Registry( RBBId,\n                                                CNPJ, \n                                                proofHash, \n                                                BlockchainAccountState.WAITING_VALIDATION, \n                                                BlockchainAccountRole.ADMIN,\n                                                false,\n                                                dateTimeExpiration );\n        }\n\n        RBBId_addresses[RBBId].push(addr);\n        string memory proof = proofHash;\n        emit AccountRegistration(addr, RBBId, CNPJ, proof, dateTimeExpiration);\n    }\n\n    /**\n    * Validates the initial registry of others LegalEntities\n    * @param userAddr Ethereum address that needs to be validated\n    */\n    function preValidateRegistry(address userAddr, bool approval) public onlyByResponsibleForRegistryPreValidation {\n\n        address responsible = msg.sender;\n        \n        require( legalEntitiesInfo[userAddr].state == BlockchainAccountState.WAITING_VALIDATION, \n                \"A conta precisa estar em estado Aguardando Validao\");\n\n        require ( isAdmin(userAddr), \"A conta a validar deve ter o papel de ADMIN\" );\n\n        require (!isPaused(userAddr), \"A conta no pode ser validada porque est pausada\"); \n\n        require (!isExpired(userAddr), \"A conta no pode ser validada porque est expirada\");\n\n        if ( approval ) {\n            legalEntitiesInfo[userAddr].state = BlockchainAccountState.WAITING_APPROVAL;\n            emit AccountWaitingApproval(    userAddr, \n                                            legalEntitiesInfo[userAddr].RBBId, \n                                            legalEntitiesInfo[userAddr].CNPJ, \n                                            responsible );\n        }\n        else {\n            legalEntitiesInfo[userAddr].state = BlockchainAccountState.WAITING_REJECTION;\n            emit AccountWaitingRejection(   userAddr, \n                                            legalEntitiesInfo[userAddr].RBBId, \n                                            legalEntitiesInfo[userAddr].CNPJ, \n                                            responsible );\n        }\n    }\n    \n\n   /**\n    * Validates the initial registry of your own LegalEntity\n    * @param userAddr Ethereum address that needs to be validated\n    */\n    function validateRegistrySameOrg(address userAddr) public onlyIfSenderIsOk {\n\n        address responsible = msg.sender;\n\n        require ( isAdmin(responsible), \"O responsvel pela validao deve ter o papel ADMIN\" );\n\n        require( legalEntitiesInfo[userAddr].state == BlockchainAccountState.WAITING_VALIDATION, \n                \"A conta precisa estar em estado Aguardando Validao\");\n\n        require (!isPaused(userAddr), \"A conta no pode ser validada porque est pausada\"); \n\n        require (!isExpired(userAddr), \"A conta no pode ser validada porque est expirada\");\n\n        require ( legalEntitiesInfo[userAddr].role == BlockchainAccountRole.REGULAR, \n                   \"O usurio a ser validado deve ter o papel REGULAR\" );\n\n        require ( isTheSameID(responsible, userAddr) , \n                   \"O responsvel pela validao deve ser da mesma organizao (mesmo CNPJ)\" );                   \n\n        legalEntitiesInfo[userAddr].state = BlockchainAccountState.VALIDATED;\n\n        emit AccountValidation( userAddr, \n                                legalEntitiesInfo[userAddr].RBBId, \n                                legalEntitiesInfo[userAddr].CNPJ, \n                                responsible);\n    }\n\n    /**\n    * Validates the initial registry of others LegalEntities\n    * @param userAddr Ethereum address that needs to be validated\n    */\n    function validateRegistry(address userAddr) public onlyByResponsibleForRegistryValidation {\n\n        address responsible = msg.sender;\n\n        require( isWaitingAccount(userAddr), \"A conta precisa estar em estado Aguardando\");\n\n        require (!isPaused(userAddr), \"A conta no pode ser validada porque est pausada\"); \n\n        require (!isExpired(userAddr), \"A conta no pode ser validada porque est expirada\");\n\n        require ( isAdmin(userAddr), \"A conta a validar deve ter o papel de ADMIN\" );\n        \n        legalEntitiesInfo[userAddr].state = BlockchainAccountState.VALIDATED;\n\n        emit AccountValidation( userAddr, \n                                legalEntitiesInfo[userAddr].RBBId, \n                                legalEntitiesInfo[userAddr].CNPJ, \n                                responsible);\n    }   \n\n\n     /**\n    * Pause an account     \n    * @param addr Ethereum address that needs to be paused\n    */\n    function pauseAddressSameOrg(address addr) public onlyIfSenderIsOk {\n\n        address responsible = msg.sender;\n\n        require (!isInvalidated(addr), \"Contas invlidas no podem ser pausadas\");\n        require (!isPaused(addr), \"Conta j est pausada\");\n        require( isTheSameID(responsible, addr), \"Somente conta de mesma organizao pode executar esta ao\" );\n\n        require ((addr==responsible || isAdmin(responsible)), \"No pode pausar conta de outro ADMIN\");\n\n        pauseAddressInternal (addr, 1);\n\n    }\n\n    function pauseAddressAfterMonitoring(address addr) public onlyByResponsibleForActingAfterMonitoring {\n\n        require (!isInvalidated(addr), \"Contas invlidas no podem ser pausadas\");\n        require (!isPaused(addr), \"Conta j est pausada\");\n\n        pauseAddressInternal (addr, 2);\n    }\n\n    function pauseAddressInternal(address addr, uint8 reason) internal {\n\n        legalEntitiesInfo[addr].paused = true;\n        \n        emit AccountPaused( addr, \n                            legalEntitiesInfo[addr].RBBId,\n                            legalEntitiesInfo[addr].CNPJ, \n                            msg.sender,\n                            reason);\n    }\n\n\n    function pauseLegalEntitySameOrg(uint RBBId) public onlyIfSenderIsOk {\n\n        address responsible = msg.sender;\n        address[] memory addresses  = RBBId_addresses[RBBId];\n\n        require( isTheSameID(responsible, addresses[0]), \n                \"Somente conta de mesma organizao pode executar esta ao\" );\n\n        for (uint i=0; i < addresses.length ; i++) {\n            address candidate = addresses[i];\n            if( !isInvalidated(candidate) &&\n                !isPaused(candidate) ) {\n                pauseAddressInternal (candidate, 3);\n            }\n        }\n    }\n\n\n    function pauseLegalEntityAfterMonitoring(uint RBBId) public onlyByResponsibleForActingAfterMonitoring {\n\n        address[] memory addresses  = RBBId_addresses[RBBId];\n\n        for (uint i=0; i < addresses.length ; i++) {\n            address candidate = addresses[i];\n            if( !isInvalidated(candidate) &&\n                !isPaused(candidate) ) {\n                pauseAddressInternal (candidate, 4);\n            }\n        }   \n    }\n\n\n    /**\n    * Unpause an account     \n    * @param addr Ethereum address that needs to be validated\n    */\n    function unpauseAddressSameOrg(address addr) public onlyIfSenderIsOk {\n\n        address responsible = msg.sender;\n\n        require( isAdmin(addr) , \"Somente uma conta ADMIN pode executar esta ao\" );\n\n        require ( responsible != addr , \"Uma pessoa no  capaz de retirar o pause de sua prpria conta\");\n        require( isTheSameID(responsible, addr), \n                    \"Somente pode retirar pausa de uma conta quem for da mesma organizao\" );\n        \n        unpauseAddressInternal(addr, 1);        \n        \n    }\n\n    function unpauseAddressAfterMonitoring(address addr) public onlyByResponsibleForActingAfterMonitoring {\n        unpauseAddressInternal(addr,2);        \n    }\n\n    function unpauseAddressInternal(address addr, uint8 reason) internal {\n\n        require (!isInvalidated(addr), \"Contas invlidas no podem ser retirar pausa\");\n        require( isPaused(addr)  , \"Somente uma conta pausada pode ser despausada\" ); \n\n        legalEntitiesInfo[addr].paused = false;\n        \n        emit AccountUnpaused(   addr, \n                                legalEntitiesInfo[addr].RBBId,\n                                legalEntitiesInfo[addr].CNPJ, \n                                msg.sender,\n                                reason);\n    }\n\n\n   /**\n    * Invalidates the initial registry of a legal entity or the change of its registry\n    * The invalidation can be called at any time in the lifecycle of the address (not only when it is WAITING_VALIDATION)\n    * @param addr Ethereum address that needs to be validated\n    */\n    function invalidateRegistrySameOrg(address addr) public onlyIfSenderIsOk {\n\n        address responsible = msg.sender;\n\n        require( !isInvalidated(addr), \"A conta foi invalidada previamente.\" );\n\n        require( isTheSameID(responsible, addr) , \"Apenas contas da mesma organizacao podem ser invalidadas. \");\n\n        require ((addr==responsible || isAdmin(responsible)), \"No pode invalidar conta de outro ADMIN\");\n\n        invalidateRegistryInternal(addr, 1);\n\n    }\n\n    function invalidateRegistry(address addr) public onlyByResponsibleForRegistryValidation {\n\n        require(isWaitingAccount(addr), \"A conta precisa estar no estado Aguardando Validao\");\n\n        require( isAdmin(addr), \"Invalida apenas conta ADMIN\");\n\n        invalidateRegistryInternal(addr, 2);\n\n    }\n\n\n    function invalidateRegistryAfterMonitoring(address addr) public onlyByResponsibleForActingAfterMonitoring {\n\n        require( !isInvalidated(addr), \"A conta foi invalidada previamente.\" );\n        \n        invalidateRegistryInternal(addr, 3);\n    }\n\n    function invalidateRegistryInternal(address addr, uint8 reason) internal {\n\n        legalEntitiesInfo[addr].state = BlockchainAccountState.INVALIDATED;\n        \n        emit AccountInvalidation(   addr, \n                                    legalEntitiesInfo[addr].RBBId, \n                                    legalEntitiesInfo[addr].CNPJ, \n                                    msg.sender,\n                                    reason );\n    \n    }\n\n    function reactiveLegalEntity(string memory hashProof) public {\n        \n        address addr = msg.sender;\n\n        require (isValidHash(hashProof), \"O hash da declarao  invlido\");\n        require (!isAvailableAccount(addr), \"Endereo deve pode ter sido cadastrado anteriormente\");\n        require (!isInvalidated(addr), \"Endereo no pode ter sido invalidado\");\n\n        uint256 dateTimeExpiration = now + defaultDeltaDateTimeExpiration;\n\n        legalEntitiesInfo[addr].hashProof = hashProof;\n        legalEntitiesInfo[addr].state = BlockchainAccountState.WAITING_VALIDATION;\n        legalEntitiesInfo[addr].dateTimeExpiration = dateTimeExpiration;\n        legalEntitiesInfo[addr].paused = false;\n\n        emit AccountReactivation(addr, hashProof, dateTimeExpiration);\n    }\n\n    /**\n    * The Owner can assign new default expiration time for future registries\n    * @param deltaDateTimeExpirationNew the new default expiration time \n    */\n    function setDefaultDeltaDateTimeExpiration(uint256 deltaDateTimeExpirationNew) onlyOwner public {\n\n        uint256 defaultDeltaDateTimeExpirationOld = defaultDeltaDateTimeExpiration;\n        defaultDeltaDateTimeExpiration = deltaDateTimeExpirationNew;\n        \n        emit RegistryExpirationChange(   msg.sender, \n                                         defaultDeltaDateTimeExpirationOld, \n                                         defaultDeltaDateTimeExpiration );        \n    }\n\n    function calculaProximoRBBID(uint64 CNPJ) private returns (uint) {\n\n        if ( CNPJ_RBBId[CNPJ] == 0 ) //se nao existir rbbid para este CNPJ\n            CNPJ_RBBId[CNPJ] = ++currentRBBId;\n\n        return CNPJ_RBBId[CNPJ];\n    } \n\n   function isValidHash(string memory str) pure public returns (bool)  {\n\n        bytes memory b = bytes(str);\n        if(b.length != 64) return false;\n\n        for (uint i=0; i<64; i++) {\n            if (b[i] < \"0\") return false;\n            if (b[i] > \"9\" && b[i] <\"a\") return false;\n            if (b[i] > \"f\") return false;\n        }\n            \n        return true;\n    }\n\n\n    function isOperational(address addr) public view returns (bool) {\n        return isValidatedAccount(addr) && !isPaused(addr) && !isExpired(addr);\n    }\n\n    function isRegistryOperational(uint RBBId) public view override returns (bool) {\n        address[] memory addresses  = RBBId_addresses[RBBId];\n\n        for (uint i=0; i < addresses.length ; i++) {\n            if ( isOperational( addresses[i] ) && isAdmin(addresses[i]) ) {\n                    return true;\n            }\n        }\n    }\n\n    function getId (address addr) public view override returns (uint) {\n        uint RBBId = getRBBIdRaw(addr);\n        require ( isRegistryOperational( RBBId ) , \"A organizao no est operacional\" );\n        return RBBId;\n    }    \n\n    function isExpired (address addr) internal view returns (bool) {\n        return (legalEntitiesInfo[addr].dateTimeExpiration > now);\n    }\n\n    function isOwner(address addr) public view returns (bool) {\n        return owner()==addr;\n    }\n\n    function isAvailableAccount(address addr) public view returns (bool) {\n        return legalEntitiesInfo[addr].state == BlockchainAccountState.AVAILABLE;\n    }\n\n    function isWaitingAccount(address addr) public view returns (bool) {\n        return legalEntitiesInfo[addr].state == BlockchainAccountState.WAITING_VALIDATION\n            || legalEntitiesInfo[addr].state == BlockchainAccountState.WAITING_APPROVAL\n            || legalEntitiesInfo[addr].state == BlockchainAccountState.WAITING_REJECTION ;\n    }\n\n    function isValidatedAccount(address addr) public view returns (bool) {\n        return legalEntitiesInfo[addr].state == BlockchainAccountState.VALIDATED;\n    }\n\n    function isInvalidated(address addr) public view returns (bool) {\n        return legalEntitiesInfo[addr].state == BlockchainAccountState.INVALIDATED;\n    }\n\n    function isTheSameID(address a, address b) public view returns (bool) {\n        return legalEntitiesInfo[a].CNPJ == legalEntitiesInfo[b].CNPJ ;\n    }\n\n    function isPaused(address addr) public view returns (bool) {\n        return legalEntitiesInfo[addr].paused;\n    }\n\n    function isAdmin(address addr) public view returns (bool) { \n        return legalEntitiesInfo[addr].role == BlockchainAccountRole.ADMIN;\n    }\n\n    function getRBBIdRaw (address addr) public view returns (uint) {\n        return legalEntitiesInfo[addr].RBBId;\n    }\n\n    function getCNPJ (address addr) public view returns (uint64) {\n        return legalEntitiesInfo[addr].CNPJ;\n    }    \n    \n    function getRegistry (address addr) public view override returns (uint, uint64, string memory, uint, uint, bool, uint256) {\n        Registry memory reg = legalEntitiesInfo[addr];\n        string memory proof = reg.hashProof;\n        return (  reg.RBBId,\n                  reg.CNPJ, \n                  proof, \n                  (uint) (reg.state),\n                  (uint) (reg.role),\n                  reg.paused,\n                  reg.dateTimeExpiration\n                );\n    }\n\n    function getBlockchainAccounts(uint RBBId) public view returns (address[] memory) {\n        return RBBId_addresses[RBBId];\n    }\n\n    function getAccountState(address addr) public view returns (int) {\n        return ((int) (legalEntitiesInfo[addr].state));\n    }\n\n    function getAccountRole(address addr) public view returns (int) {\n        return ((int) (legalEntitiesInfo[addr].role));\n    }\n\n    function getIdFromCNPJ(uint64 cnpj) public view override returns (uint) {\n        return CNPJ_RBBId[cnpj];\n    }\n\n    function getCNPJbyID(uint Id) public view override returns (uint64 ) {\n        address addr =RBBId_addresses[Id][0];    \n        return legalEntitiesInfo[addr].CNPJ;\n    }\n \n\n\n}\n",
  "sourcePath": "/Users/suzana.moreno/workspace/rbb-identificacao/Back-Blockchain/contracts/RBBRegistry.sol",
  "compiler": {
    "name": "solc",
    "version": "0.6.12+commit.27d51765.Emscripten.clang"
  },
  "schemaVersion": "3.2.5",
  "updatedAt": "2021-03-05T17:34:10.547Z",
  "devdoc": {
    "kind": "dev",
    "methods": {
      "invalidateRegistrySameOrg(address)": {
        "params": {
          "addr": "Ethereum address that needs to be validated"
        }
      },
      "owner()": {
        "details": "Returns the address of the current owner."
      },
      "pauseAddressSameOrg(address)": {
        "params": {
          "addr": "Ethereum address that needs to be paused"
        }
      },
      "preValidateRegistry(address,bool)": {
        "params": {
          "userAddr": "Ethereum address that needs to be validated"
        }
      },
      "registryLegalEntity(uint64,string)": {
        "params": {
          "CNPJ": "Brazilian identifier to legal entities",
          "proofHash": "The legal entities have to send BNDES a PDF where it assumes as responsible for an Ethereum account.                   This PDF is signed with eCNPJ and send to BNDES."
        }
      },
      "renounceOwnership()": {
        "details": "Leaves the contract without owner. It will not be possible to call `onlyOwner` functions anymore. Can only be called by the current owner. NOTE: Renouncing ownership will leave the contract without an owner, thereby removing any functionality that is only available to the owner."
      },
      "setDefaultDeltaDateTimeExpiration(uint256)": {
        "params": {
          "deltaDateTimeExpirationNew": "the new default expiration time "
        }
      },
      "transferOwnership(address)": {
        "details": "Transfers ownership of the contract to a new account (`newOwner`). Can only be called by the current owner."
      },
      "unpauseAddressSameOrg(address)": {
        "params": {
          "addr": "Ethereum address that needs to be validated"
        }
      },
      "validateRegistry(address)": {
        "params": {
          "userAddr": "Ethereum address that needs to be validated"
        }
      },
      "validateRegistrySameOrg(address)": {
        "params": {
          "userAddr": "Ethereum address that needs to be validated"
        }
      }
    },
    "version": 1
  },
  "userdoc": {
    "kind": "user",
    "methods": {
      "CNPJ_RBBId(uint64)": {
        "notice": "Links CNPJ to its RBBID"
      },
      "RBBId_addresses(uint256,uint256)": {
        "notice": "Links RBBID to Ethereum addresses."
      },
      "invalidateRegistrySameOrg(address)": {
        "notice": "Invalidates the initial registry of a legal entity or the change of its registry The invalidation can be called at any time in the lifecycle of the address (not only when it is WAITING_VALIDATION)"
      },
      "legalEntitiesInfo(address)": {
        "notice": "Links Ethereum addresses to Registry"
      },
      "pauseAddressSameOrg(address)": {
        "notice": "Pause an account     "
      },
      "preValidateRegistry(address,bool)": {
        "notice": "Validates the initial registry of others LegalEntities"
      },
      "registryLegalEntity(uint64,string)": {
        "notice": "Self Registering Link blockchain address with CNPJ"
      },
      "setDefaultDeltaDateTimeExpiration(uint256)": {
        "notice": "The Owner can assign new default expiration time for future registries"
      },
      "unpauseAddressSameOrg(address)": {
        "notice": "Unpause an account     "
      },
      "validateRegistry(address)": {
        "notice": "Validates the initial registry of others LegalEntities"
      },
      "validateRegistrySameOrg(address)": {
        "notice": "Validates the initial registry of your own LegalEntity"
      }
    },
    "version": 1
  }
}