{
  "contractName": "RBBRegistry",
  "abi": [
    {
      "constant": true,
      "inputs": [
        {
          "name": "",
          "type": "address"
        }
      ],
      "name": "legalEntitiesInfo",
      "outputs": [
        {
          "name": "RBBId",
          "type": "uint256"
        },
        {
          "name": "CNPJ",
          "type": "uint256"
        },
        {
          "name": "idProofHash",
          "type": "bytes32"
        },
        {
          "name": "state",
          "type": "uint8"
        },
        {
          "name": "role",
          "type": "uint8"
        },
        {
          "name": "paused",
          "type": "bool"
        },
        {
          "name": "dateTimeExpiration",
          "type": "uint256"
        }
      ],
      "payable": false,
      "stateMutability": "view",
      "type": "function"
    },
    {
      "constant": false,
      "inputs": [],
      "name": "renounceOwnership",
      "outputs": [],
      "payable": false,
      "stateMutability": "nonpayable",
      "type": "function"
    },
    {
      "constant": true,
      "inputs": [],
      "name": "owner",
      "outputs": [
        {
          "name": "",
          "type": "address"
        }
      ],
      "payable": false,
      "stateMutability": "view",
      "type": "function"
    },
    {
      "constant": true,
      "inputs": [],
      "name": "currentRBBId",
      "outputs": [
        {
          "name": "",
          "type": "uint256"
        }
      ],
      "payable": false,
      "stateMutability": "view",
      "type": "function"
    },
    {
      "constant": false,
      "inputs": [
        {
          "name": "newOwner",
          "type": "address"
        }
      ],
      "name": "transferOwnership",
      "outputs": [],
      "payable": false,
      "stateMutability": "nonpayable",
      "type": "function"
    },
    {
      "inputs": [
        {
          "name": "CNPJSUPADMIN",
          "type": "uint256"
        },
        {
          "name": "proofHashSUPADMIN",
          "type": "string"
        },
        {
          "name": "dateTimeExpiration",
          "type": "uint256"
        }
      ],
      "payable": false,
      "stateMutability": "nonpayable",
      "type": "constructor"
    },
    {
      "anonymous": false,
      "inputs": [
        {
          "indexed": false,
          "name": "addr",
          "type": "address"
        },
        {
          "indexed": false,
          "name": "RBBId",
          "type": "uint256"
        },
        {
          "indexed": false,
          "name": "CNPJ",
          "type": "uint256"
        },
        {
          "indexed": false,
          "name": "idProofHash",
          "type": "bytes32"
        },
        {
          "indexed": false,
          "name": "dateTimeExpiration",
          "type": "uint256"
        }
      ],
      "name": "AccountRegistration",
      "type": "event"
    },
    {
      "anonymous": false,
      "inputs": [
        {
          "indexed": false,
          "name": "addr",
          "type": "address"
        },
        {
          "indexed": false,
          "name": "RBBId",
          "type": "uint256"
        },
        {
          "indexed": false,
          "name": "CNPJ",
          "type": "uint256"
        },
        {
          "indexed": false,
          "name": "responsible",
          "type": "address"
        }
      ],
      "name": "AccountValidation",
      "type": "event"
    },
    {
      "anonymous": false,
      "inputs": [
        {
          "indexed": false,
          "name": "addr",
          "type": "address"
        },
        {
          "indexed": false,
          "name": "RBBId",
          "type": "uint256"
        },
        {
          "indexed": false,
          "name": "CNPJ",
          "type": "uint256"
        },
        {
          "indexed": false,
          "name": "responsible",
          "type": "address"
        }
      ],
      "name": "AccountInvalidation",
      "type": "event"
    },
    {
      "anonymous": false,
      "inputs": [
        {
          "indexed": false,
          "name": "addr",
          "type": "address"
        },
        {
          "indexed": false,
          "name": "RBBId",
          "type": "uint256"
        },
        {
          "indexed": false,
          "name": "CNPJ",
          "type": "uint256"
        },
        {
          "indexed": false,
          "name": "responsible",
          "type": "address"
        }
      ],
      "name": "AccountAdminUpgrade",
      "type": "event"
    },
    {
      "anonymous": false,
      "inputs": [
        {
          "indexed": false,
          "name": "addr",
          "type": "address"
        },
        {
          "indexed": false,
          "name": "RBBId",
          "type": "uint256"
        },
        {
          "indexed": false,
          "name": "CNPJ",
          "type": "uint256"
        },
        {
          "indexed": false,
          "name": "responsible",
          "type": "address"
        }
      ],
      "name": "AccountPaused",
      "type": "event"
    },
    {
      "anonymous": false,
      "inputs": [
        {
          "indexed": false,
          "name": "addr",
          "type": "address"
        },
        {
          "indexed": false,
          "name": "RBBId",
          "type": "uint256"
        },
        {
          "indexed": false,
          "name": "CNPJ",
          "type": "uint256"
        },
        {
          "indexed": false,
          "name": "responsible",
          "type": "address"
        }
      ],
      "name": "AccountUnpaused",
      "type": "event"
    },
    {
      "anonymous": false,
      "inputs": [
        {
          "indexed": true,
          "name": "previousOwner",
          "type": "address"
        },
        {
          "indexed": true,
          "name": "newOwner",
          "type": "address"
        }
      ],
      "name": "OwnershipTransferred",
      "type": "event"
    },
    {
      "constant": false,
      "inputs": [
        {
          "name": "CNPJ",
          "type": "uint256"
        },
        {
          "name": "CNPJProofHash",
          "type": "string"
        },
        {
          "name": "dateTimeExpiration",
          "type": "uint256"
        }
      ],
      "name": "registryLegalEntity",
      "outputs": [],
      "payable": false,
      "stateMutability": "nonpayable",
      "type": "function"
    },
    {
      "constant": false,
      "inputs": [
        {
          "name": "userAddr",
          "type": "address"
        }
      ],
      "name": "validateRegistrySameOrg",
      "outputs": [],
      "payable": false,
      "stateMutability": "nonpayable",
      "type": "function"
    },
    {
      "constant": false,
      "inputs": [
        {
          "name": "userAddr",
          "type": "address"
        }
      ],
      "name": "validateRegistry",
      "outputs": [],
      "payable": false,
      "stateMutability": "nonpayable",
      "type": "function"
    },
    {
      "constant": false,
      "inputs": [
        {
          "name": "addr",
          "type": "address"
        }
      ],
      "name": "pauseAddress",
      "outputs": [],
      "payable": false,
      "stateMutability": "nonpayable",
      "type": "function"
    },
    {
      "constant": false,
      "inputs": [
        {
          "name": "CNPJ",
          "type": "uint256"
        }
      ],
      "name": "pauseLegalEntity",
      "outputs": [],
      "payable": false,
      "stateMutability": "nonpayable",
      "type": "function"
    },
    {
      "constant": false,
      "inputs": [
        {
          "name": "addr",
          "type": "address"
        }
      ],
      "name": "unpauseAddress",
      "outputs": [],
      "payable": false,
      "stateMutability": "nonpayable",
      "type": "function"
    },
    {
      "constant": false,
      "inputs": [
        {
          "name": "addr",
          "type": "address"
        }
      ],
      "name": "invalidateRegistry",
      "outputs": [],
      "payable": false,
      "stateMutability": "nonpayable",
      "type": "function"
    },
    {
      "constant": false,
      "inputs": [
        {
          "name": "addr",
          "type": "address"
        }
      ],
      "name": "setResponsibleForRegistryValidation",
      "outputs": [],
      "payable": false,
      "stateMutability": "nonpayable",
      "type": "function"
    },
    {
      "constant": true,
      "inputs": [
        {
          "name": "addr",
          "type": "address"
        }
      ],
      "name": "isResponsibleForRegistryValidation",
      "outputs": [
        {
          "name": "",
          "type": "bool"
        }
      ],
      "payable": false,
      "stateMutability": "view",
      "type": "function"
    },
    {
      "constant": true,
      "inputs": [
        {
          "name": "addr",
          "type": "address"
        }
      ],
      "name": "isOwner",
      "outputs": [
        {
          "name": "",
          "type": "bool"
        }
      ],
      "payable": false,
      "stateMutability": "view",
      "type": "function"
    },
    {
      "constant": true,
      "inputs": [],
      "name": "isOwner",
      "outputs": [
        {
          "name": "",
          "type": "bool"
        }
      ],
      "payable": false,
      "stateMutability": "view",
      "type": "function"
    },
    {
      "constant": true,
      "inputs": [
        {
          "name": "addr",
          "type": "address"
        }
      ],
      "name": "isAvailableAccount",
      "outputs": [
        {
          "name": "",
          "type": "bool"
        }
      ],
      "payable": false,
      "stateMutability": "view",
      "type": "function"
    },
    {
      "constant": true,
      "inputs": [
        {
          "name": "addr",
          "type": "address"
        }
      ],
      "name": "isWaitingValidationAccount",
      "outputs": [
        {
          "name": "",
          "type": "bool"
        }
      ],
      "payable": false,
      "stateMutability": "view",
      "type": "function"
    },
    {
      "constant": true,
      "inputs": [
        {
          "name": "addr",
          "type": "address"
        }
      ],
      "name": "isValidatedAccount",
      "outputs": [
        {
          "name": "",
          "type": "bool"
        }
      ],
      "payable": false,
      "stateMutability": "view",
      "type": "function"
    },
    {
      "constant": true,
      "inputs": [
        {
          "name": "addr",
          "type": "address"
        }
      ],
      "name": "isInvalidated",
      "outputs": [
        {
          "name": "",
          "type": "bool"
        }
      ],
      "payable": false,
      "stateMutability": "view",
      "type": "function"
    },
    {
      "constant": true,
      "inputs": [
        {
          "name": "a",
          "type": "address"
        },
        {
          "name": "b",
          "type": "address"
        }
      ],
      "name": "isTheSameID",
      "outputs": [
        {
          "name": "",
          "type": "bool"
        }
      ],
      "payable": false,
      "stateMutability": "view",
      "type": "function"
    },
    {
      "constant": true,
      "inputs": [
        {
          "name": "addr",
          "type": "address"
        }
      ],
      "name": "isPaused",
      "outputs": [
        {
          "name": "",
          "type": "bool"
        }
      ],
      "payable": false,
      "stateMutability": "view",
      "type": "function"
    },
    {
      "constant": true,
      "inputs": [
        {
          "name": "addr",
          "type": "address"
        }
      ],
      "name": "isOperational",
      "outputs": [
        {
          "name": "",
          "type": "bool"
        }
      ],
      "payable": false,
      "stateMutability": "view",
      "type": "function"
    },
    {
      "constant": true,
      "inputs": [
        {
          "name": "addr",
          "type": "address"
        }
      ],
      "name": "getId",
      "outputs": [
        {
          "name": "",
          "type": "uint256"
        }
      ],
      "payable": false,
      "stateMutability": "view",
      "type": "function"
    },
    {
      "constant": true,
      "inputs": [
        {
          "name": "addr",
          "type": "address"
        }
      ],
      "name": "getRBBId",
      "outputs": [
        {
          "name": "",
          "type": "uint256"
        }
      ],
      "payable": false,
      "stateMutability": "view",
      "type": "function"
    },
    {
      "constant": true,
      "inputs": [
        {
          "name": "addr",
          "type": "address"
        }
      ],
      "name": "getCNPJ",
      "outputs": [
        {
          "name": "",
          "type": "uint256"
        }
      ],
      "payable": false,
      "stateMutability": "view",
      "type": "function"
    },
    {
      "constant": true,
      "inputs": [
        {
          "name": "addr",
          "type": "address"
        }
      ],
      "name": "getRegistry",
      "outputs": [
        {
          "name": "",
          "type": "uint256"
        },
        {
          "name": "",
          "type": "uint256"
        },
        {
          "name": "",
          "type": "string"
        },
        {
          "name": "",
          "type": "uint256"
        },
        {
          "name": "",
          "type": "uint256"
        },
        {
          "name": "",
          "type": "bool"
        },
        {
          "name": "",
          "type": "uint256"
        }
      ],
      "payable": false,
      "stateMutability": "view",
      "type": "function"
    },
    {
      "constant": true,
      "inputs": [
        {
          "name": "CNPJ",
          "type": "uint256"
        }
      ],
      "name": "getBlockchainAccounts",
      "outputs": [
        {
          "name": "",
          "type": "address[]"
        }
      ],
      "payable": false,
      "stateMutability": "view",
      "type": "function"
    },
    {
      "constant": true,
      "inputs": [
        {
          "name": "addr",
          "type": "address"
        }
      ],
      "name": "getAccountState",
      "outputs": [
        {
          "name": "",
          "type": "int256"
        }
      ],
      "payable": false,
      "stateMutability": "view",
      "type": "function"
    },
    {
      "constant": true,
      "inputs": [
        {
          "name": "addr",
          "type": "address"
        }
      ],
      "name": "getAccountRole",
      "outputs": [
        {
          "name": "",
          "type": "int256"
        }
      ],
      "payable": false,
      "stateMutability": "view",
      "type": "function"
    },
    {
      "constant": false,
      "inputs": [
        {
          "name": "CNPJ",
          "type": "uint256"
        }
      ],
      "name": "registryMock",
      "outputs": [],
      "payable": false,
      "stateMutability": "nonpayable",
      "type": "function"
    }
  ],
  "bytecode": "0x608060405260006001553480156200001657600080fd5b506040516200476638038062004766833981018060405260608110156200003c57600080fd5b810190808051906020019092919080516401000000008111156200005f57600080fd5b828101905060208101848111156200007657600080fd5b81518560018202830111640100000000821117156200009457600080fd5b5050929190602001805190602001909291905050506000620000bb6200049e60201b60201c565b9050806000806101000a81548173ffffffffffffffffffffffffffffffffffffffff021916908373ffffffffffffffffffffffffffffffffffffffff1602179055508073ffffffffffffffffffffffffffffffffffffffff16600073ffffffffffffffffffffffffffffffffffffffff167f8be0079c531659141344cd1fd0a4f28419497f9722a3daafe3b4186f6b6457e060405160405180910390a3506000339050600073__RBBLib________________________________63592c80ee856040518263ffffffff1660e01b81526004018080602001828103825283818151815260200191508051906020019080838360005b83811015620001cc578082015181840152602081019050620001af565b50505050905090810190601f168015620001fa5780820380516001836020036101000a031916815260200191505b509250505060206040518083038186803b1580156200021857600080fd5b505af41580156200022d573d6000803e3d6000fd5b505050506040513d60208110156200024457600080fd5b81019080805190602001909291905050509050600062000269620004a660201b60201c565b90506040518060e00160405280828152602001878152602001838152602001600260038111156200029657fe5b8152602001600280811115620002a857fe5b815260200160001515815260200185815250600260008573ffffffffffffffffffffffffffffffffffffffff1673ffffffffffffffffffffffffffffffffffffffff16815260200190815260200160002060008201518160000155602082015181600101556040820151816002015560608201518160030160006101000a81548160ff021916908360038111156200033c57fe5b021790555060808201518160030160016101000a81548160ff021916908360028111156200036657fe5b021790555060a08201518160030160026101000a81548160ff02191690831515021790555060c08201518160040155905050600360008781526020019081526020016000208390806001815401808255809150509060018203906000526020600020016000909192909190916101000a81548173ffffffffffffffffffffffffffffffffffffffff021916908373ffffffffffffffffffffffffffffffffffffffff160217905550507f4aa43cf10b603c9a80bec1e701073c460c5378a975e89e185c0bb22ac75e77378382888588604051808673ffffffffffffffffffffffffffffffffffffffff1673ffffffffffffffffffffffffffffffffffffffff1681526020018581526020018481526020018381526020018281526020019550505050505060405180910390a1505050505050620004bc565b600033905090565b6000600160008154600101919050819055905090565b61429a80620004cc6000396000f3fe608060405234801561001057600080fd5b50600436106101e55760003560e01c80638c879eb11161010f578063be49b78d116100a2578063f2fde38b11610071578063f2fde38b14610ade578063f582202714610b22578063f64e0ae714610b66578063f971d77c14610bbe576101e5565b8063be49b78d146109f6578063c616f4c014610a4e578063caa7922c14610a6c578063e81bb70c14610ab0576101e5565b80638f32d59b116100de5780638f32d59b146108a45780639ee2735b146108c6578063a3d884531461091e578063bb3930861461097a576101e5565b80638c879eb11461078c5780638cbd258f146107ba5780638da5cb5b146107fe5780638e97637e14610848576101e5565b80634f16ce0c1161018757806367b035491161015657806367b03549146106a2578063715018a6146106e657806377df472c146106f057806381d66b2314610734576101e5565b80634f16ce0c1461054e5780635b14f183146105925780636426a116146105ee57806365f68c891461064a576101e5565b80632f54bf6e116101c35780632f54bf6e1461036b57806333c479f1146103c75780633abba2ef14610496578063457385f2146104f2576101e5565b80630bf20e01146101ea5780630c4471bd1461026d57806326ff4794146102c9575b600080fd5b6102166004803603602081101561020057600080fd5b8101908080359060200190929190505050610ca9565b6040518080602001828103825283818151815260200191508051906020019060200280838360005b8381101561025957808201518184015260208101905061023e565b505050509050019250505060405180910390f35b6102af6004803603602081101561028357600080fd5b81019080803573ffffffffffffffffffffffffffffffffffffffff169060200190929190505050610d4a565b604051808215151515815260200191505060405180910390f35b61030b600480360360208110156102df57600080fd5b81019080803573ffffffffffffffffffffffffffffffffffffffff169060200190929190505050610dbc565b6040518088815260200187815260200186815260200185600381111561032d57fe5b60ff16815260200184600281111561034157fe5b60ff1681526020018315151515815260200182815260200197505050505050505060405180910390f35b6103ad6004803603602081101561038157600080fd5b81019080803573ffffffffffffffffffffffffffffffffffffffff169060200190929190505050610e25565b604051808215151515815260200191505060405180910390f35b610494600480360360608110156103dd57600080fd5b81019080803590602001909291908035906020019064010000000081111561040457600080fd5b82018360208201111561041657600080fd5b8035906020019184600183028401116401000000008311171561043857600080fd5b91908080601f016020809104026020016040519081016040528093929190818152602001838380828437600081840152601f19601f82011690508083019250505050505050919291929080359060200190929190505050610e64565b005b6104d8600480360360208110156104ac57600080fd5b81019080803573ffffffffffffffffffffffffffffffffffffffff16906020019092919050505061132d565b604051808215151515815260200191505060405180910390f35b6105346004803603602081101561050857600080fd5b81019080803573ffffffffffffffffffffffffffffffffffffffff16906020019092919050505061140e565b604051808215151515815260200191505060405180910390f35b6105906004803603602081101561056457600080fd5b81019080803573ffffffffffffffffffffffffffffffffffffffff169060200190929190505050611432565b005b6105d4600480360360208110156105a857600080fd5b81019080803573ffffffffffffffffffffffffffffffffffffffff169060200190929190505050611969565b604051808215151515815260200191505060405180910390f35b6106306004803603602081101561060457600080fd5b81019080803573ffffffffffffffffffffffffffffffffffffffff1690602001909291905050506119c2565b604051808215151515815260200191505060405180910390f35b61068c6004803603602081101561066057600080fd5b81019080803573ffffffffffffffffffffffffffffffffffffffff169060200190929190505050611a34565b6040518082815260200191505060405180910390f35b6106e4600480360360208110156106b857600080fd5b81019080803573ffffffffffffffffffffffffffffffffffffffff169060200190929190505050611a46565b005b6106ee611ef8565b005b6107326004803603602081101561070657600080fd5b81019080803573ffffffffffffffffffffffffffffffffffffffff169060200190929190505050612031565b005b6107766004803603602081101561074a57600080fd5b81019080803573ffffffffffffffffffffffffffffffffffffffff169060200190929190505050612450565b6040518082815260200191505060405180910390f35b6107b8600480360360208110156107a257600080fd5b81019080803590602001909291905050506124b4565b005b6107fc600480360360208110156107d057600080fd5b81019080803573ffffffffffffffffffffffffffffffffffffffff1690602001909291905050506128ad565b005b610806612b7c565b604051808273ffffffffffffffffffffffffffffffffffffffff1673ffffffffffffffffffffffffffffffffffffffff16815260200191505060405180910390f35b61088a6004803603602081101561085e57600080fd5b81019080803573ffffffffffffffffffffffffffffffffffffffff169060200190929190505050612ba5565b604051808215151515815260200191505060405180910390f35b6108ac612c16565b604051808215151515815260200191505060405180910390f35b610908600480360360208110156108dc57600080fd5b81019080803573ffffffffffffffffffffffffffffffffffffffff169060200190929190505050612c74565b6040518082815260200191505060405180910390f35b6109606004803603602081101561093457600080fd5b81019080803573ffffffffffffffffffffffffffffffffffffffff169060200190929190505050612cd8565b604051808215151515815260200191505060405180910390f35b6109dc6004803603604081101561099057600080fd5b81019080803573ffffffffffffffffffffffffffffffffffffffff169060200190929190803573ffffffffffffffffffffffffffffffffffffffff169060200190929190505050612d49565b604051808215151515815260200191505060405180910390f35b610a3860048036036020811015610a0c57600080fd5b81019080803573ffffffffffffffffffffffffffffffffffffffff169060200190929190505050612dda565b6040518082815260200191505060405180910390f35b610a56612e26565b6040518082815260200191505060405180910390f35b610aae60048036036020811015610a8257600080fd5b81019080803573ffffffffffffffffffffffffffffffffffffffff169060200190929190505050612e2c565b005b610adc60048036036020811015610ac657600080fd5b81019080803590602001909291905050506132b3565b005b610b2060048036036020811015610af457600080fd5b81019080803573ffffffffffffffffffffffffffffffffffffffff169060200190929190505050613501565b005b610b6460048036036020811015610b3857600080fd5b81019080803573ffffffffffffffffffffffffffffffffffffffff169060200190929190505050613587565b005b610ba860048036036020811015610b7c57600080fd5b81019080803573ffffffffffffffffffffffffffffffffffffffff1690602001909291905050506139de565b6040518082815260200191505060405180910390f35b610c0060048036036020811015610bd457600080fd5b81019080803573ffffffffffffffffffffffffffffffffffffffff169060200190929190505050613a2a565b604051808881526020018781526020018060200186815260200185815260200184151515158152602001838152602001828103825287818151815260200191508051906020019080838360005b83811015610c68578082015181840152602081019050610c4d565b50505050905090810190601f168015610c955780820380516001836020036101000a031916815260200191505b509850505050505050505060405180910390f35b606060036000838152602001908152602001600020805480602002602001604051908101604052809291908181526020018280548015610d3e57602002820191906000526020600020905b8160009054906101000a900473ffffffffffffffffffffffffffffffffffffffff1673ffffffffffffffffffffffffffffffffffffffff1681526020019060010190808311610cf4575b50505050509050919050565b600060016003811115610d5957fe5b600260008473ffffffffffffffffffffffffffffffffffffffff1673ffffffffffffffffffffffffffffffffffffffff16815260200190815260200160002060030160009054906101000a900460ff166003811115610db457fe5b149050919050565b60026020528060005260406000206000915090508060000154908060010154908060020154908060030160009054906101000a900460ff16908060030160019054906101000a900460ff16908060030160029054906101000a900460ff16908060040154905087565b60008173ffffffffffffffffffffffffffffffffffffffff16610e46612b7c565b73ffffffffffffffffffffffffffffffffffffffff16149050919050565b6000339050600073__RBBLib________________________________63592c80ee856040518263ffffffff1660e01b81526004018080602001828103825283818151815260200191508051906020019080838360005b83811015610ed5578082015181840152602081019050610eba565b50505050905090810190601f168015610f025780820380516001836020036101000a031916815260200191505b509250505060206040518083038186803b158015610f1f57600080fd5b505af4158015610f33573d6000803e3d6000fd5b505050506040513d6020811015610f4957600080fd5b810190808051906020019092919050505090506000610f66613c5e565b9050610f7183612cd8565b610fc6576040517f08c379a000000000000000000000000000000000000000000000000000000000815260040180806020018281038252603581526020018061411c6035913960400191505060405180910390fd5b6000801b821415611100576040518060e0016040528082815260200187815260200183815260200160016003811115610ffb57fe5b81526020016000600281111561100d57fe5b815260200160001515815260200185815250600260008573ffffffffffffffffffffffffffffffffffffffff1673ffffffffffffffffffffffffffffffffffffffff16815260200190815260200160002060008201518160000155602082015181600101556040820151816002015560608201518160030160006101000a81548160ff021916908360038111156110a057fe5b021790555060808201518160030160016101000a81548160ff021916908360028111156110c957fe5b021790555060a08201518160030160026101000a81548160ff02191690831515021790555060c0820151816004015590505061122b565b6040518060e001604052808281526020018781526020018381526020016001600381111561112a57fe5b81526020016001600281111561113c57fe5b815260200160001515815260200185815250600260008573ffffffffffffffffffffffffffffffffffffffff1673ffffffffffffffffffffffffffffffffffffffff16815260200190815260200160002060008201518160000155602082015181600101556040820151816002015560608201518160030160006101000a81548160ff021916908360038111156111cf57fe5b021790555060808201518160030160016101000a81548160ff021916908360028111156111f857fe5b021790555060a08201518160030160026101000a81548160ff02191690831515021790555060c082015181600401559050505b600360008781526020019081526020016000208390806001815401808255809150509060018203906000526020600020016000909192909190916101000a81548173ffffffffffffffffffffffffffffffffffffffff021916908373ffffffffffffffffffffffffffffffffffffffff160217905550507f4aa43cf10b603c9a80bec1e701073c460c5378a975e89e185c0bb22ac75e77378382888588604051808673ffffffffffffffffffffffffffffffffffffffff1673ffffffffffffffffffffffffffffffffffffffff1681526020018581526020018481526020018381526020018281526020019550505050505060405180910390a1505050505050565b60006001600281111561133c57fe5b600260008473ffffffffffffffffffffffffffffffffffffffff1673ffffffffffffffffffffffffffffffffffffffff16815260200190815260200160002060030160019054906101000a900460ff16600281111561139757fe5b148061140757506002808111156113aa57fe5b600260008473ffffffffffffffffffffffffffffffffffffffff1673ffffffffffffffffffffffffffffffffffffffff16815260200190815260200160002060030160019054906101000a900460ff16600281111561140557fe5b145b9050919050565b6000611419826119c2565b801561142b575061142982611969565b155b9050919050565b600260003373ffffffffffffffffffffffffffffffffffffffff1673ffffffffffffffffffffffffffffffffffffffff16815260200190815260200160002060030160029054906101000a900460ff16156114d8576040517f08c379a000000000000000000000000000000000000000000000000000000000815260040180806020018281038252602b815260200180613e19602b913960400191505060405180910390fd5b42600260003373ffffffffffffffffffffffffffffffffffffffff1673ffffffffffffffffffffffffffffffffffffffff1681526020019081526020016000206004015411611572576040517f08c379a00000000000000000000000000000000000000000000000000000000081526004018080602001828103825260478152602001806141516047913960600191505060405180910390fd5b60003390508173ffffffffffffffffffffffffffffffffffffffff168173ffffffffffffffffffffffffffffffffffffffff1614156115fc576040517f08c379a0000000000000000000000000000000000000000000000000000000008152600401808060200182810382526044815260200180613e7a6044913960600191505060405180910390fd5b6001600281111561160957fe5b600260008373ffffffffffffffffffffffffffffffffffffffff1673ffffffffffffffffffffffffffffffffffffffff16815260200190815260200160002060030160019054906101000a900460ff16600281111561166457fe5b146116ba576040517f08c379a00000000000000000000000000000000000000000000000000000000081526004018080602001828103825260368152602001806141c96036913960400191505060405180910390fd5b6116c48183612d49565b611719576040517f08c379a000000000000000000000000000000000000000000000000000000000815260040180806020018281038252604c8152602001806140d0604c913960600191505060405180910390fd5b6001600381111561172657fe5b600260008473ffffffffffffffffffffffffffffffffffffffff1673ffffffffffffffffffffffffffffffffffffffff16815260200190815260200160002060030160009054906101000a900460ff16600381111561178157fe5b146117d7576040517f08c379a0000000000000000000000000000000000000000000000000000000008152600401808060200182810382526040815260200180613fe86040913960400191505060405180910390fd5b60028060008473ffffffffffffffffffffffffffffffffffffffff1673ffffffffffffffffffffffffffffffffffffffff16815260200190815260200160002060030160006101000a81548160ff0219169083600381111561183557fe5b02179055507f073fc7b5012ce389e8ee332d8cb39b41a44a08b42ee9260a78dd3a757a66c11182600260008573ffffffffffffffffffffffffffffffffffffffff1673ffffffffffffffffffffffffffffffffffffffff16815260200190815260200160002060000154600260008673ffffffffffffffffffffffffffffffffffffffff1673ffffffffffffffffffffffffffffffffffffffff1681526020019081526020016000206001015484604051808573ffffffffffffffffffffffffffffffffffffffff1673ffffffffffffffffffffffffffffffffffffffff1681526020018481526020018381526020018273ffffffffffffffffffffffffffffffffffffffff1673ffffffffffffffffffffffffffffffffffffffff16815260200194505050505060405180910390a15050565b6000600260008373ffffffffffffffffffffffffffffffffffffffff1673ffffffffffffffffffffffffffffffffffffffff16815260200190815260200160002060030160029054906101000a900460ff169050919050565b6000600260038111156119d157fe5b600260008473ffffffffffffffffffffffffffffffffffffffff1673ffffffffffffffffffffffffffffffffffffffff16815260200190815260200160002060030160009054906101000a900460ff166003811115611a2c57fe5b149050919050565b6000611a3f826139de565b9050919050565b600260003373ffffffffffffffffffffffffffffffffffffffff1673ffffffffffffffffffffffffffffffffffffffff16815260200190815260200160002060030160029054906101000a900460ff1615611aec576040517f08c379a000000000000000000000000000000000000000000000000000000000815260040180806020018281038252602b815260200180613e19602b913960400191505060405180910390fd5b42600260003373ffffffffffffffffffffffffffffffffffffffff1673ffffffffffffffffffffffffffffffffffffffff1681526020019081526020016000206004015411611b86576040517f08c379a00000000000000000000000000000000000000000000000000000000081526004018080602001828103825260478152602001806141516047913960600191505060405180910390fd5b6000339050611b948161132d565b611be9576040517f08c379a000000000000000000000000000000000000000000000000000000000815260040180806020018281038252603b815260200180613fad603b913960400191505060405180910390fd5b600280811115611bf557fe5b600260008473ffffffffffffffffffffffffffffffffffffffff1673ffffffffffffffffffffffffffffffffffffffff16815260200190815260200160002060030160019054906101000a900460ff166002811115611c5057fe5b1415611ca7576040517f08c379a0000000000000000000000000000000000000000000000000000000008152600401808060200182810382526029815260200180613f206029913960400191505060405180910390fd5b600380811115611cb357fe5b600260008473ffffffffffffffffffffffffffffffffffffffff1673ffffffffffffffffffffffffffffffffffffffff16815260200190815260200160002060030160009054906101000a900460ff166003811115611d0e57fe5b1415611d65576040517f08c379a0000000000000000000000000000000000000000000000000000000008152600401808060200182810382526023815260200180613f8a6023913960400191505060405180910390fd5b6003600260008473ffffffffffffffffffffffffffffffffffffffff1673ffffffffffffffffffffffffffffffffffffffff16815260200190815260200160002060030160006101000a81548160ff02191690836003811115611dc457fe5b02179055507fe54094ed206f2d050c7d5065f566c98e3c67d5f94c76971e8e73b392f8314ae282600260008573ffffffffffffffffffffffffffffffffffffffff1673ffffffffffffffffffffffffffffffffffffffff16815260200190815260200160002060000154600260008673ffffffffffffffffffffffffffffffffffffffff1673ffffffffffffffffffffffffffffffffffffffff1681526020019081526020016000206001015484604051808573ffffffffffffffffffffffffffffffffffffffff1673ffffffffffffffffffffffffffffffffffffffff1681526020018481526020018381526020018273ffffffffffffffffffffffffffffffffffffffff1673ffffffffffffffffffffffffffffffffffffffff16815260200194505050505060405180910390a15050565b611f00612c16565b611f72576040517f08c379a00000000000000000000000000000000000000000000000000000000081526004018080602001828103825260208152602001807f4f776e61626c653a2063616c6c6572206973206e6f7420746865206f776e657281525060200191505060405180910390fd5b600073ffffffffffffffffffffffffffffffffffffffff166000809054906101000a900473ffffffffffffffffffffffffffffffffffffffff1673ffffffffffffffffffffffffffffffffffffffff167f8be0079c531659141344cd1fd0a4f28419497f9722a3daafe3b4186f6b6457e060405160405180910390a360008060006101000a81548173ffffffffffffffffffffffffffffffffffffffff021916908373ffffffffffffffffffffffffffffffffffffffff160217905550565b600260003373ffffffffffffffffffffffffffffffffffffffff1673ffffffffffffffffffffffffffffffffffffffff16815260200190815260200160002060030160029054906101000a900460ff16156120d7576040517f08c379a000000000000000000000000000000000000000000000000000000000815260040180806020018281038252602b815260200180613e19602b913960400191505060405180910390fd5b60003390506002808111156120e857fe5b600260008473ffffffffffffffffffffffffffffffffffffffff1673ffffffffffffffffffffffffffffffffffffffff16815260200190815260200160002060030160019054906101000a900460ff16600281111561214357fe5b141561219a576040517f08c379a000000000000000000000000000000000000000000000000000000000815260040180806020018281038252602681526020018061407d6026913960400191505060405180910390fd5b6121a48183612d49565b8061221357506002808111156121b657fe5b600260008373ffffffffffffffffffffffffffffffffffffffff1673ffffffffffffffffffffffffffffffffffffffff16815260200190815260200160002060030160019054906101000a900460ff16600281111561221157fe5b145b612268576040517f08c379a00000000000000000000000000000000000000000000000000000000081526004018080602001828103825260558152602001806140286055913960600191505060405180910390fd5b612271826119c2565b6122c6576040517f08c379a000000000000000000000000000000000000000000000000000000000815260040180806020018281038252602a8152602001806141ff602a913960400191505060405180910390fd5b6001600260008473ffffffffffffffffffffffffffffffffffffffff1673ffffffffffffffffffffffffffffffffffffffff16815260200190815260200160002060030160026101000a81548160ff0219169083151502179055507feab44e925fe37efdf7a6b9681f2daf982a47f4e64e2d592e8ee4309b986df6a782600260008573ffffffffffffffffffffffffffffffffffffffff1673ffffffffffffffffffffffffffffffffffffffff16815260200190815260200160002060000154600260008673ffffffffffffffffffffffffffffffffffffffff1673ffffffffffffffffffffffffffffffffffffffff1681526020019081526020016000206001015484604051808573ffffffffffffffffffffffffffffffffffffffff1673ffffffffffffffffffffffffffffffffffffffff1681526020018481526020018381526020018273ffffffffffffffffffffffffffffffffffffffff1673ffffffffffffffffffffffffffffffffffffffff16815260200194505050505060405180910390a15050565b6000600260008373ffffffffffffffffffffffffffffffffffffffff1673ffffffffffffffffffffffffffffffffffffffff16815260200190815260200160002060030160019054906101000a900460ff1660028111156124ad57fe5b9050919050565b600260003373ffffffffffffffffffffffffffffffffffffffff1673ffffffffffffffffffffffffffffffffffffffff16815260200190815260200160002060030160029054906101000a900460ff161561255a576040517f08c379a000000000000000000000000000000000000000000000000000000000815260040180806020018281038252602b815260200180613e19602b913960400191505060405180910390fd5b60003390506060600360008481526020019081526020016000208054806020026020016040519081016040528092919081815260200182805480156125f457602002820191906000526020600020905b8160009054906101000a900473ffffffffffffffffffffffffffffffffffffffff1673ffffffffffffffffffffffffffffffffffffffff16815260200190600101908083116125aa575b50505050509050612619828260008151811061260c57fe5b6020026020010151612d49565b80612688575060028081111561262b57fe5b600260008473ffffffffffffffffffffffffffffffffffffffff1673ffffffffffffffffffffffffffffffffffffffff16815260200190815260200160002060030160019054906101000a900460ff16600281111561268657fe5b145b6126dd576040517f08c379a00000000000000000000000000000000000000000000000000000000081526004018080602001828103825260558152602001806140286055913960600191505060405180910390fd5b60008090505b81518110156128a75760008282815181106126fa57fe5b6020026020010151905061270d816119c2565b15612899576001600260008373ffffffffffffffffffffffffffffffffffffffff1673ffffffffffffffffffffffffffffffffffffffff16815260200190815260200160002060030160026101000a81548160ff0219169083151502179055507feab44e925fe37efdf7a6b9681f2daf982a47f4e64e2d592e8ee4309b986df6a781600260008473ffffffffffffffffffffffffffffffffffffffff1673ffffffffffffffffffffffffffffffffffffffff16815260200190815260200160002060000154600260008573ffffffffffffffffffffffffffffffffffffffff1673ffffffffffffffffffffffffffffffffffffffff1681526020019081526020016000206001015487604051808573ffffffffffffffffffffffffffffffffffffffff1673ffffffffffffffffffffffffffffffffffffffff1681526020018481526020018381526020018273ffffffffffffffffffffffffffffffffffffffff1673ffffffffffffffffffffffffffffffffffffffff16815260200194505050505060405180910390a15b5080806001019150506126e3565b50505050565b600160028111156128ba57fe5b600260008373ffffffffffffffffffffffffffffffffffffffff1673ffffffffffffffffffffffffffffffffffffffff16815260200190815260200160002060030160019054906101000a900460ff16600281111561291557fe5b1480612985575060028081111561292857fe5b600260008373ffffffffffffffffffffffffffffffffffffffff1673ffffffffffffffffffffffffffffffffffffffff16815260200190815260200160002060030160019054906101000a900460ff16600281111561298357fe5b145b80612995575061299481610e25565b5b6129ea576040517f08c379a000000000000000000000000000000000000000000000000000000000815260040180806020018281038252603c815260200180613ee4603c913960400191505060405180910390fd5b6001600260008373ffffffffffffffffffffffffffffffffffffffff1673ffffffffffffffffffffffffffffffffffffffff16815260200190815260200160002060030160016101000a81548160ff02191690836002811115612a4957fe5b02179055507f1425960fb74ac245110bc0d06447b5371e8474b1c1974a0c2390f03322fc6fc181600260008473ffffffffffffffffffffffffffffffffffffffff1673ffffffffffffffffffffffffffffffffffffffff16815260200190815260200160002060000154600260008573ffffffffffffffffffffffffffffffffffffffff1673ffffffffffffffffffffffffffffffffffffffff1681526020019081526020016000206001015433604051808573ffffffffffffffffffffffffffffffffffffffff1673ffffffffffffffffffffffffffffffffffffffff1681526020018481526020018381526020018273ffffffffffffffffffffffffffffffffffffffff1673ffffffffffffffffffffffffffffffffffffffff16815260200194505050505060405180910390a150565b60008060009054906101000a900473ffffffffffffffffffffffffffffffffffffffff16905090565b6000600380811115612bb357fe5b600260008473ffffffffffffffffffffffffffffffffffffffff1673ffffffffffffffffffffffffffffffffffffffff16815260200190815260200160002060030160009054906101000a900460ff166003811115612c0e57fe5b149050919050565b60008060009054906101000a900473ffffffffffffffffffffffffffffffffffffffff1673ffffffffffffffffffffffffffffffffffffffff16612c58613c74565b73ffffffffffffffffffffffffffffffffffffffff1614905090565b6000600260008373ffffffffffffffffffffffffffffffffffffffff1673ffffffffffffffffffffffffffffffffffffffff16815260200190815260200160002060030160009054906101000a900460ff166003811115612cd157fe5b9050919050565b6000806003811115612ce657fe5b600260008473ffffffffffffffffffffffffffffffffffffffff1673ffffffffffffffffffffffffffffffffffffffff16815260200190815260200160002060030160009054906101000a900460ff166003811115612d4157fe5b149050919050565b6000600260008373ffffffffffffffffffffffffffffffffffffffff1673ffffffffffffffffffffffffffffffffffffffff16815260200190815260200160002060010154600260008573ffffffffffffffffffffffffffffffffffffffff1673ffffffffffffffffffffffffffffffffffffffff1681526020019081526020016000206001015414905092915050565b6000600260008373ffffffffffffffffffffffffffffffffffffffff1673ffffffffffffffffffffffffffffffffffffffff168152602001908152602001600020600101549050919050565b60015481565b42600260003373ffffffffffffffffffffffffffffffffffffffff1673ffffffffffffffffffffffffffffffffffffffff1681526020019081526020016000206004015411612ec6576040517f08c379a00000000000000000000000000000000000000000000000000000000081526004018080602001828103825260478152602001806141516047913960600191505060405180910390fd5b6000339050600280811115612ed757fe5b600260008373ffffffffffffffffffffffffffffffffffffffff1673ffffffffffffffffffffffffffffffffffffffff16815260200190815260200160002060030160019054906101000a900460ff166002811115612f3257fe5b14612f88576040517f08c379a00000000000000000000000000000000000000000000000000000000081526004018080602001828103825260318152602001806141986031913960400191505060405180910390fd5b60016002811115612f9557fe5b600260008473ffffffffffffffffffffffffffffffffffffffff1673ffffffffffffffffffffffffffffffffffffffff16815260200190815260200160002060030160019054906101000a900460ff166002811115612ff057fe5b14613063576040517f08c379a00000000000000000000000000000000000000000000000000000000081526004018080602001828103825260208152602001807f4120636f6e746120612076616c696461722064657665207365722041444d494e81525060200191505060405180910390fd5b6001600381111561307057fe5b600260008473ffffffffffffffffffffffffffffffffffffffff1673ffffffffffffffffffffffffffffffffffffffff16815260200190815260200160002060030160009054906101000a900460ff1660038111156130cb57fe5b14613121576040517f08c379a0000000000000000000000000000000000000000000000000000000008152600401808060200182810382526036815260200180613e446036913960400191505060405180910390fd5b60028060008473ffffffffffffffffffffffffffffffffffffffff1673ffffffffffffffffffffffffffffffffffffffff16815260200190815260200160002060030160006101000a81548160ff0219169083600381111561317f57fe5b02179055507f073fc7b5012ce389e8ee332d8cb39b41a44a08b42ee9260a78dd3a757a66c11182600260008573ffffffffffffffffffffffffffffffffffffffff1673ffffffffffffffffffffffffffffffffffffffff16815260200190815260200160002060000154600260008673ffffffffffffffffffffffffffffffffffffffff1673ffffffffffffffffffffffffffffffffffffffff1681526020019081526020016000206001015484604051808573ffffffffffffffffffffffffffffffffffffffff1673ffffffffffffffffffffffffffffffffffffffff1681526020018481526020018381526020018273ffffffffffffffffffffffffffffffffffffffff1673ffffffffffffffffffffffffffffffffffffffff16815260200194505050505060405180910390a15050565b600033905060008060001b90506000640100000000905060006132d4613c5e565b90506040518060e001604052808281526020018681526020018481526020016002600381111561330057fe5b81526020016001600281111561331257fe5b815260200160001515815260200183815250600260008673ffffffffffffffffffffffffffffffffffffffff1673ffffffffffffffffffffffffffffffffffffffff16815260200190815260200160002060008201518160000155602082015181600101556040820151816002015560608201518160030160006101000a81548160ff021916908360038111156133a557fe5b021790555060808201518160030160016101000a81548160ff021916908360028111156133ce57fe5b021790555060a08201518160030160026101000a81548160ff02191690831515021790555060c08201518160040155905050600360008681526020019081526020016000208490806001815401808255809150509060018203906000526020600020016000909192909190916101000a81548173ffffffffffffffffffffffffffffffffffffffff021916908373ffffffffffffffffffffffffffffffffffffffff160217905550507f4aa43cf10b603c9a80bec1e701073c460c5378a975e89e185c0bb22ac75e77378482878686604051808673ffffffffffffffffffffffffffffffffffffffff1673ffffffffffffffffffffffffffffffffffffffff1681526020018581526020018481526020018381526020018281526020019550505050505060405180910390a15050505050565b613509612c16565b61357b576040517f08c379a00000000000000000000000000000000000000000000000000000000081526004018080602001828103825260208152602001807f4f776e61626c653a2063616c6c6572206973206e6f7420746865206f776e657281525060200191505060405180910390fd5b61358481613c7c565b50565b600260003373ffffffffffffffffffffffffffffffffffffffff1673ffffffffffffffffffffffffffffffffffffffff16815260200190815260200160002060030160029054906101000a900460ff161561362d576040517f08c379a000000000000000000000000000000000000000000000000000000000815260040180806020018281038252602b815260200180613e19602b913960400191505060405180910390fd5b42600260003373ffffffffffffffffffffffffffffffffffffffff1673ffffffffffffffffffffffffffffffffffffffff16815260200190815260200160002060040154116136c7576040517f08c379a00000000000000000000000000000000000000000000000000000000081526004018080602001828103825260478152602001806141516047913960600191505060405180910390fd5b60003390508173ffffffffffffffffffffffffffffffffffffffff168173ffffffffffffffffffffffffffffffffffffffff161415613751576040517f08c379a0000000000000000000000000000000000000000000000000000000008152600401808060200182810382526041815260200180613f496041913960600191505060405180910390fd5b61375a8161132d565b6137af576040517f08c379a00000000000000000000000000000000000000000000000000000000081526004018080602001828103825260468152602001806142296046913960600191505060405180910390fd5b600260008373ffffffffffffffffffffffffffffffffffffffff1673ffffffffffffffffffffffffffffffffffffffff16815260200190815260200160002060030160029054906101000a900460ff16613854576040517f08c379a000000000000000000000000000000000000000000000000000000000815260040180806020018281038252602d8152602001806140a3602d913960400191505060405180910390fd5b6000600260008473ffffffffffffffffffffffffffffffffffffffff1673ffffffffffffffffffffffffffffffffffffffff16815260200190815260200160002060030160026101000a81548160ff0219169083151502179055507fede461371ad2055987ffee3f03ac6bbad8c1e32130b99e9a87eaff68abdef50c82600260008573ffffffffffffffffffffffffffffffffffffffff1673ffffffffffffffffffffffffffffffffffffffff16815260200190815260200160002060000154600260008673ffffffffffffffffffffffffffffffffffffffff1673ffffffffffffffffffffffffffffffffffffffff1681526020019081526020016000206001015484604051808573ffffffffffffffffffffffffffffffffffffffff1673ffffffffffffffffffffffffffffffffffffffff1681526020018481526020018381526020018273ffffffffffffffffffffffffffffffffffffffff1673ffffffffffffffffffffffffffffffffffffffff16815260200194505050505060405180910390a15050565b6000600260008373ffffffffffffffffffffffffffffffffffffffff1673ffffffffffffffffffffffffffffffffffffffff168152602001908152602001600020600001549050919050565b6000806060600080600080613a3d613dc0565b600260008a73ffffffffffffffffffffffffffffffffffffffff1673ffffffffffffffffffffffffffffffffffffffff1681526020019081526020016000206040518060e00160405290816000820154815260200160018201548152602001600282015481526020016003820160009054906101000a900460ff166003811115613ac357fe5b6003811115613ace57fe5b81526020016003820160019054906101000a900460ff166002811115613af057fe5b6002811115613afb57fe5b81526020016003820160029054906101000a900460ff161515151581526020016004820154815250509050606073__RBBLib________________________________63ef0b236883604001516040518263ffffffff1660e01b81526004018082815260200191505060006040518083038186803b158015613b7b57600080fd5b505af4158015613b8f573d6000803e3d6000fd5b505050506040513d6000823e3d601f19601f820116820180604052506020811015613bb957600080fd5b810190808051640100000000811115613bd157600080fd5b82810190506020810184811115613be757600080fd5b8151856001820283011164010000000082111715613c0457600080fd5b50509291905050509050816000015182602001518284606001516003811115613c2957fe5b85608001516002811115613c3957fe5b8660a001518760c0015198509850985098509850985098505050919395979092949650565b6000600160008154600101919050819055905090565b600033905090565b600073ffffffffffffffffffffffffffffffffffffffff168173ffffffffffffffffffffffffffffffffffffffff161415613d02576040517f08c379a0000000000000000000000000000000000000000000000000000000008152600401808060200182810382526026815260200180613ebe6026913960400191505060405180910390fd5b8073ffffffffffffffffffffffffffffffffffffffff166000809054906101000a900473ffffffffffffffffffffffffffffffffffffffff1673ffffffffffffffffffffffffffffffffffffffff167f8be0079c531659141344cd1fd0a4f28419497f9722a3daafe3b4186f6b6457e060405160405180910390a3806000806101000a81548173ffffffffffffffffffffffffffffffffffffffff021916908373ffffffffffffffffffffffffffffffffffffffff16021790555050565b6040518060e0016040528060008152602001600081526020016000801916815260200160006003811115613df057fe5b815260200160006002811115613e0257fe5b815260200160001515815260200160008152509056fe4170656e6173207175656d206ec3a36f20657374c3a1207061757361646120706f646520616365737361724120636f6e74612070726563697361206573746172206e6f2065737461646f20416775617264616e646f2056616c696461c3a7c3a36f4f20726573706f6e73c3a176656c2070656c612076616c696461c3a7c3a36f206ec3a36f20706f64652076616c6964617220737561207072c3b37072696120636f6e74614f776e61626c653a206e6577206f776e657220697320746865207a65726f20616464726573734170656e6173204f776e65722c2041646d696e206f752053797374656d2d41646d696e20706f64656d2064617220706f6465722064652041646d696e4120636f6e74612053555041444d494e206ec3a36f20706f64652073657220696e76616c6964616461556d6120706573736f61206ec3a36f20c3a920636170617a2064652072657469726172206f20706175736520646520737561207072c3b37072696120636f6e74614120636f6e746120666f6920696e76616c6964616461207072657669616d656e74652e536f6d656e746520726573706f6e73c3a176656c2070656c612076616c696461c3a7c3a36f20706f646520696e76616c6964617220636f6e7461734120636f6e746120612076616c696461722070726563697361206573746172206e6f2065737461646f20416775617264616e646f2056616c696461c3a7c3a36f536f6d656e746520706f64652070617573617220756d6120636f6e7461207175656d20666f72206461206d65736d61206f7267616e697a61c3a7c3a36f206f752053797374656d2041646d696e6973747261746f724120636f6e74612053555041444d494e206ec3a36f20706f6465207365722070617573616461536f6d656e746520756d6120636f6e7461207061757361646120706f64652073657220646573706175736164614f20726573706f6e73c3a176656c2070656c612076616c696461c3a7c3a36f206465766520736572206461206d65736d61206f7267616e697a61c3a7c3a36f20286d65736d6f20434e504a29456e64657265c3a76f206ec3a36f20706f646520746572207369646f206361646173747261646f20616e746572696f726d656e74654170656e617320636f6e74617320636f6d206465636c617261c3a7c3b565732063756a6f7320636572746966696361646f732061696e64612073c3a36f2076c3a16c69646f732e4f20726573706f6e73c3a176656c2070656c612076616c696461c3a7c3a36f2064657665207365722053555041444d494e4f20726573706f6e73c3a176656c2070656c612076616c696461c3a7c3a36f206465766520746572206f20706170656c2041444d494e536f6d656e746520756d6120636f6e74612076c3a16c69646120706f6465207365722070617573616461536f6d656e746520756d6120636f6e746120726573706f6e73c3a176656c2076616c696461646f726120706f646520646573706175736172206f757472617320636f6e746173a165627a7a72305820364ca3f515266e8af4aaf0e1e98b5080fdba05747cd1b319b82ba14e8b5133b50029",
  "source": "pragma solidity ^0.5.0;\n\nimport \"@openzeppelin/contracts/ownership/Ownable.sol\";\nimport \"./RBBLib.sol\";\n\ncontract RBBRegistry is Ownable() {\n\n    enum BlockchainAccountState {AVAILABLE,WAITING_VALIDATION,VALIDATED,INVALIDATED}\n    BlockchainAccountState blockchainState; /* Variable not used, only defined to create the enum type. */\n                                \n    enum BlockchainAccountRole {REGULAR, ADMIN, SUPADMIN} \n    BlockchainAccountRole blockchainRole;  /* Variable not used, only defined to create the enum type. */\n\n    /* This is a helper variable to emulate a sequence and autoincrement Ids*/\n    uint public currentRBBId = 0;\n\n     /**\n        This registry is about a company representative information\n     */    \n    struct Registry {\n        uint RBBId; //Unique ID for RBB \n        uint CNPJ; //Brazilian identification of legal entity\n        bytes32 idProofHash; //hash of declaration\n        BlockchainAccountState state;\n        BlockchainAccountRole role;\n        bool paused;\n        uint256 dateTimeExpiration; //vai ser outro momento de expirao diferente do ECNPJ\n    }\n\n    /**\n        Links Ethereum addresses to Registry\n     */\n    mapping(address => Registry) public legalEntitiesInfo;\n\n    /**\n        Links CNPJ to Ethereum addresses.\n     */\n    mapping(uint => address[]) legalEntityId_To_Addr;\n\n    event AccountRegistration (address addr, uint RBBId, uint CNPJ, bytes32 idProofHash, uint256 dateTimeExpiration);\n    event AccountValidation   (address addr, uint RBBId, uint CNPJ, address responsible);\n    event AccountInvalidation (address addr, uint RBBId, uint CNPJ, address responsible);\n    event AccountAdminUpgrade (address addr, uint RBBId, uint CNPJ, address responsible);\n    event AccountPaused       (address addr, uint RBBId, uint CNPJ, address responsible);\n    event AccountUnpaused     (address addr, uint RBBId, uint CNPJ, address responsible);\n\n    /* The responsible for the System-Admin is the Owner. It could be or not be the same address (SUPADMIN=owner) */\n    constructor (uint CNPJSUPADMIN, string memory proofHashSUPADMIN, uint256 dateTimeExpiration) public {                \n        address addrSUPADMIN = msg.sender;\n        bytes32 proofHash = RBBLib.stringBytes32(proofHashSUPADMIN);\n        uint RBBId = getNextRBBId();\n        legalEntitiesInfo[addrSUPADMIN] = Registry( RBBId, \n                                                    CNPJSUPADMIN, \n                                                    proofHash, \n                                                    BlockchainAccountState.VALIDATED, \n                                                    BlockchainAccountRole.SUPADMIN, \n                                                    false, \n                                                    dateTimeExpiration     );\n        legalEntityId_To_Addr[CNPJSUPADMIN].push(addrSUPADMIN);\n        emit AccountRegistration(addrSUPADMIN, RBBId, CNPJSUPADMIN, proofHash, dateTimeExpiration); \n        \n    }\n\n   /**\n    * Link blockchain address with CNPJ\n    * @param CNPJ Brazilian identifier to legal entities\n    * @param CNPJProofHash The legal entities have to send BNDES a PDF where it assumes as responsible for an Ethereum account.\n    *                   This PDF is signed with eCNPJ and send to BNDES.\n    */\n    function registryLegalEntity(uint CNPJ, string memory CNPJProofHash, uint256 dateTimeExpiration) public {\n        \n        address addr = msg.sender;\n        bytes32 proofHash = RBBLib.stringBytes32(CNPJProofHash);\n        uint RBBId = getNextRBBId();\n\n        require (isAvailableAccount(addr), \"Endereo no pode ter sido cadastrado anteriormente\");\n\n        if ( proofHash == 0 ) { \n            legalEntitiesInfo[addr] = Registry( RBBId,\n                                                CNPJ, \n                                                proofHash, \n                                                BlockchainAccountState.WAITING_VALIDATION, \n                                                BlockchainAccountRole.REGULAR,\n                                                false,\n                                                dateTimeExpiration );\n        } else {\n            legalEntitiesInfo[addr] = Registry( RBBId,\n                                                CNPJ, \n                                                proofHash, \n                                                BlockchainAccountState.WAITING_VALIDATION, \n                                                BlockchainAccountRole.ADMIN,\n                                                false,\n                                                dateTimeExpiration );\n        }\n\n        legalEntityId_To_Addr[CNPJ].push(addr);\n\n        emit AccountRegistration(addr, RBBId, CNPJ, proofHash, dateTimeExpiration);\n    }\n\n    modifier onlyWhenNotPaused() { \n        require( ! legalEntitiesInfo[msg.sender].paused , \"Apenas quem no est pausada pode acessar\" );\n        _;\n    }\n\n    modifier onlyWhenNotExpired() { \n        require( legalEntitiesInfo[msg.sender].dateTimeExpiration > now , \"Apenas contas com declaraes cujos certificados ainda so vlidos.\" );\n        _;\n    }\n\n   /**\n    * Validates the initial registry of your own organization\n    * @param userAddr Ethereum address that needs to be validated\n    */\n    function validateRegistrySameOrg(address userAddr) public onlyWhenNotPaused onlyWhenNotExpired {\n\n        address responsible = msg.sender;\n       \n        require ( responsible != userAddr, \"O responsvel pela validao no pode validar sua prpria conta\");\n\n        require ( legalEntitiesInfo[responsible].role == BlockchainAccountRole.ADMIN , \n                   \"O responsvel pela validao deve ter o papel ADMIN\" );\n\n        require ( isTheSameID(responsible, userAddr) , \n                   \"O responsvel pela validao deve ser da mesma organizao (mesmo CNPJ)\" );\n\n        require( legalEntitiesInfo[userAddr].state == BlockchainAccountState.WAITING_VALIDATION,\n                   \"A conta a validar precisa estar no estado Aguardando Validao\");\n\n        legalEntitiesInfo[userAddr].state = BlockchainAccountState.VALIDATED;\n\n        emit AccountValidation( userAddr, \n                                legalEntitiesInfo[userAddr].RBBId, \n                                legalEntitiesInfo[userAddr].CNPJ, \n                                responsible);\n    }\n\n/**\n    * Validates the initial registry of others organization\n    * @param userAddr Ethereum address that needs to be validated\n    */\n    function validateRegistry(address userAddr) public onlyWhenNotExpired {\n\n        address responsible = msg.sender;\n        \n        require ( legalEntitiesInfo[responsible].role == BlockchainAccountRole.SUPADMIN \n            , \"O responsvel pela validao deve ser SUPADMIN\" );\n\n        require ( legalEntitiesInfo[userAddr].role == BlockchainAccountRole.ADMIN  \n            , \"A conta a validar deve ser ADMIN\" );\n\n        require(legalEntitiesInfo[userAddr].state == BlockchainAccountState.WAITING_VALIDATION,\n            \"A conta precisa estar no estado Aguardando Validao\");\n\n        legalEntitiesInfo[userAddr].state = BlockchainAccountState.VALIDATED;\n\n        emit AccountValidation( userAddr, \n                                legalEntitiesInfo[userAddr].RBBId, \n                                legalEntitiesInfo[userAddr].CNPJ, \n                                responsible);\n    }    \n\n/**\n    * Pause an account     \n    * @param addr Ethereum address that needs to be paused\n    */\n    function pauseAddress(address addr) public onlyWhenNotPaused {\n\n        address responsible = msg.sender;\n\n        require ( legalEntitiesInfo[addr].role != BlockchainAccountRole.SUPADMIN , \"A conta SUPADMIN no pode ser pausada\");\n        require( isTheSameID(responsible, addr) || legalEntitiesInfo[responsible].role == BlockchainAccountRole.SUPADMIN, \"Somente pode pausar uma conta quem for da mesma organizao ou System Administrator\" );\n        require( isValidatedAccount(addr) , \"Somente uma conta vlida pode ser pausada\");\n\n        legalEntitiesInfo[addr].paused = true;\n        \n        emit AccountPaused( addr, \n                            legalEntitiesInfo[addr].RBBId,\n                            legalEntitiesInfo[addr].CNPJ, \n                            responsible);\n    }\n\n    function pauseLegalEntity(uint CNPJ) public onlyWhenNotPaused {\n\n        address responsible = msg.sender;\n        address[] memory addresses  = legalEntityId_To_Addr[CNPJ];\n\n        require( isTheSameID(responsible, addresses[0]) || legalEntitiesInfo[responsible].role == BlockchainAccountRole.SUPADMIN, \"Somente pode pausar uma conta quem for da mesma organizao ou System Administrator\" );\n\n        for (uint i=0; i < addresses.length ; i++) {\n            address candidate = addresses[i];\n            if( isValidatedAccount( candidate ) ) {\n                legalEntitiesInfo[candidate].paused = true;\n                emit AccountPaused( candidate, \n                                    legalEntitiesInfo[candidate].RBBId,\n                                    legalEntitiesInfo[candidate].CNPJ, \n                                    responsible );\n            }\n        }   \n    }\n\n/**\n    * Unpause an account     \n    * @param addr Ethereum address that needs to be validated\n    */\n    function unpauseAddress(address addr) public onlyWhenNotPaused onlyWhenNotExpired {\n\n        address responsible = msg.sender;\n\n        require ( responsible != addr , \"Uma pessoa no  capaz de retirar o pause de sua prpria conta\");\n        require( isResponsibleForRegistryValidation(responsible) , \"Somente uma conta responsvel validadora pode despausar outras contas\" );        \n        require( legalEntitiesInfo[addr].paused  , \"Somente uma conta pausada pode ser despausada\" ); \n\n        legalEntitiesInfo[addr].paused = false;\n        \n        emit AccountUnpaused(   addr, \n                                legalEntitiesInfo[addr].RBBId,\n                                legalEntitiesInfo[addr].CNPJ, \n                                responsible);\n    }\n\n\n   /**\n    * Invalidates the initial registry of a legal entity or the change of its registry\n    * The invalidation can be called at any time in the lifecycle of the address (not only when it is WAITING_VALIDATION)\n    * @param addr Ethereum address that needs to be validated\n    */\n    function invalidateRegistry(address addr) public onlyWhenNotPaused onlyWhenNotExpired {\n\n        address responsible = msg.sender;\n\n        require(isResponsibleForRegistryValidation(responsible), \"Somente responsvel pela validao pode invalidar contas\");\n        require ( legalEntitiesInfo[addr].role != BlockchainAccountRole.SUPADMIN , \"A conta SUPADMIN no pode ser invalidada\");\n        require ( legalEntitiesInfo[addr].state != BlockchainAccountState.INVALIDATED, \"A conta foi invalidada previamente.\" );\n\n        legalEntitiesInfo[addr].state = BlockchainAccountState.INVALIDATED;\n        \n        emit AccountInvalidation(   addr, \n                                    legalEntitiesInfo[addr].RBBId, \n                                    legalEntitiesInfo[addr].CNPJ, \n                                    responsible );\n    }\n\n\n   /**\n    * By default, the owner is also the Responsible for Validation.\n    * The owner can assign other address to be the Responsible for Validation.\n    * @param addr Ethereum address to be assigned as Responsible for Validation.\n    */\n    function setResponsibleForRegistryValidation(address addr) public {\n        require ( ( legalEntitiesInfo[addr].role == BlockchainAccountRole.ADMIN || \n                 legalEntitiesInfo[addr].role == BlockchainAccountRole.SUPADMIN || isOwner(addr) ), \"Apenas Owner, Admin ou System-Admin podem dar poder de Admin\");\n        legalEntitiesInfo[addr].role = BlockchainAccountRole.ADMIN;        \n        emit AccountAdminUpgrade(   addr, \n                                    legalEntitiesInfo[addr].RBBId, \n                                    legalEntitiesInfo[addr].CNPJ, \n                                    msg.sender );\n    }\n\n    function isResponsibleForRegistryValidation(address addr) public view returns (bool) {\n        return ( legalEntitiesInfo[addr].role == BlockchainAccountRole.ADMIN || \n                 legalEntitiesInfo[addr].role == BlockchainAccountRole.SUPADMIN   );\n    }\n\n    function isOwner(address addr) public view returns (bool) {\n        return owner()==addr;\n    }\n\n    function isAvailableAccount(address addr) public view returns (bool) {\n        return legalEntitiesInfo[addr].state == BlockchainAccountState.AVAILABLE;\n    }\n\n    function isWaitingValidationAccount(address addr) public view returns (bool) {\n        return legalEntitiesInfo[addr].state == BlockchainAccountState.WAITING_VALIDATION;\n    }\n\n    function isValidatedAccount(address addr) public view returns (bool) {\n        return legalEntitiesInfo[addr].state == BlockchainAccountState.VALIDATED;\n    }\n\n    function isInvalidated(address addr) public view returns (bool) {\n        return legalEntitiesInfo[addr].state == BlockchainAccountState.INVALIDATED;\n    }\n\n    function isTheSameID(address a, address b) public view returns (bool) {\n        return legalEntitiesInfo[a].CNPJ == legalEntitiesInfo[b].CNPJ ;\n    }\n\n    function isPaused(address addr) public view returns (bool) {\n        return legalEntitiesInfo[addr].paused;\n    }\n\n    function isOperational(address addr) public view returns (bool) {\n        return isValidatedAccount(addr) && !isPaused(addr);\n    }\n\n    function getId (address addr) public view returns (uint) {\n        return getRBBId(addr);\n    }\n\n    function getRBBId (address addr) public view returns (uint) {\n        return legalEntitiesInfo[addr].RBBId;\n    }\n\n    function getCNPJ (address addr) public view returns (uint) {\n        return legalEntitiesInfo[addr].CNPJ;\n    }    \n\n    function getRegistry (address addr) public view returns (uint, uint, string memory, uint, uint, bool, uint256) {\n        Registry memory reg = legalEntitiesInfo[addr];\n        string memory strProofHash = RBBLib.bytes32ToStr(reg.idProofHash);\n\n        return (  reg.RBBId,\n                  reg.CNPJ, \n                  strProofHash, \n                  (uint) (reg.state),\n                  (uint) (reg.role),\n                  reg.paused,\n                  reg.dateTimeExpiration\n                );\n    }\n\n    function getBlockchainAccounts(uint CNPJ) public view returns (address[] memory) {\n        return legalEntityId_To_Addr[CNPJ];\n    }\n\n    function getAccountState(address addr) public view returns (int) {\n        return ((int) (legalEntitiesInfo[addr].state));\n    }\n\n    function getAccountRole(address addr) public view returns (int) {\n        return ((int) (legalEntitiesInfo[addr].role));\n    }\n\n    function registryMock(uint CNPJ) public {\n        \n        address addr = msg.sender;\n        bytes32 proofHash = 0;\n        uint256 dateTimeExpiration = 4294967296; //2106 = 2^32 (Max 2^256 -1)\n        uint RBBId = getNextRBBId();\n        legalEntitiesInfo[addr] = Registry( RBBId, \n                                            CNPJ, \n                                            proofHash, \n                                            BlockchainAccountState.VALIDATED, \n                                            BlockchainAccountRole.ADMIN, \n                                            false, \n                                            dateTimeExpiration );\n\n        legalEntityId_To_Addr[CNPJ].push(addr);\n\n        emit AccountRegistration(addr, RBBId, CNPJ, proofHash, dateTimeExpiration);\n    }\n\n    function getNextRBBId() private returns (uint) {\n        return ++currentRBBId;\n    }   \n \n\n}",
  "sourcePath": "D:/git/rbb-identificacao/Back-Blockchain/contracts/RBBRegistry.sol",
  "compiler": {
    "name": "solc",
    "version": "0.5.8+commit.23d335f2.Emscripten.clang"
  },
  "schemaVersion": "3.0.16",
  "updatedAt": "2020-10-01T15:15:27.974Z",
  "devdoc": {
    "methods": {
      "invalidateRegistry(address)": {
        "params": {
          "addr": "Ethereum address that needs to be validated"
        }
      },
      "isOwner()": {
        "details": "Returns true if the caller is the current owner."
      },
      "owner()": {
        "details": "Returns the address of the current owner."
      },
      "pauseAddress(address)": {
        "params": {
          "addr": "Ethereum address that needs to be paused"
        }
      },
      "registryLegalEntity(uint256,string,uint256)": {
        "params": {
          "CNPJ": "Brazilian identifier to legal entities",
          "CNPJProofHash": "The legal entities have to send BNDES a PDF where it assumes as responsible for an Ethereum account.                  This PDF is signed with eCNPJ and send to BNDES."
        }
      },
      "renounceOwnership()": {
        "details": "Leaves the contract without owner. It will not be possible to call `onlyOwner` functions anymore. Can only be called by the current owner.     * NOTE: Renouncing ownership will leave the contract without an owner, thereby removing any functionality that is only available to the owner."
      },
      "setResponsibleForRegistryValidation(address)": {
        "params": {
          "addr": "Ethereum address to be assigned as Responsible for Validation."
        }
      },
      "transferOwnership(address)": {
        "details": "Transfers ownership of the contract to a new account (`newOwner`). Can only be called by the current owner."
      },
      "unpauseAddress(address)": {
        "params": {
          "addr": "Ethereum address that needs to be validated"
        }
      },
      "validateRegistry(address)": {
        "params": {
          "userAddr": "Ethereum address that needs to be validated"
        }
      },
      "validateRegistrySameOrg(address)": {
        "params": {
          "userAddr": "Ethereum address that needs to be validated"
        }
      }
    }
  },
  "userdoc": {
    "methods": {
      "invalidateRegistry(address)": {
        "notice": "Invalidates the initial registry of a legal entity or the change of its registry The invalidation can be called at any time in the lifecycle of the address (not only when it is WAITING_VALIDATION)"
      },
      "pauseAddress(address)": {
        "notice": "Pause an account     "
      },
      "registryLegalEntity(uint256,string,uint256)": {
        "notice": "Link blockchain address with CNPJ"
      },
      "setResponsibleForRegistryValidation(address)": {
        "notice": "By default, the owner is also the Responsible for Validation. The owner can assign other address to be the Responsible for Validation."
      },
      "unpauseAddress(address)": {
        "notice": "Unpause an account     "
      },
      "validateRegistry(address)": {
        "notice": "Validates the initial registry of others organization"
      },
      "validateRegistrySameOrg(address)": {
        "notice": "Validates the initial registry of your own organization"
      }
    }
  }
}