{
  "contractName": "RBBRegistry",
  "abi": [
    {
      "constant": true,
      "inputs": [
        {
          "name": "",
          "type": "address"
        }
      ],
      "name": "legalEntitiesInfo",
      "outputs": [
        {
          "name": "id",
          "type": "uint256"
        },
        {
          "name": "idProofHash",
          "type": "string"
        },
        {
          "name": "state",
          "type": "uint8"
        },
        {
          "name": "role",
          "type": "uint8"
        },
        {
          "name": "paused",
          "type": "bool"
        }
      ],
      "payable": false,
      "stateMutability": "view",
      "type": "function"
    },
    {
      "constant": false,
      "inputs": [],
      "name": "renounceOwnership",
      "outputs": [],
      "payable": false,
      "stateMutability": "nonpayable",
      "type": "function"
    },
    {
      "constant": true,
      "inputs": [],
      "name": "owner",
      "outputs": [
        {
          "name": "",
          "type": "address"
        }
      ],
      "payable": false,
      "stateMutability": "view",
      "type": "function"
    },
    {
      "constant": false,
      "inputs": [
        {
          "name": "newOwner",
          "type": "address"
        }
      ],
      "name": "transferOwnership",
      "outputs": [],
      "payable": false,
      "stateMutability": "nonpayable",
      "type": "function"
    },
    {
      "inputs": [
        {
          "name": "idSysAdmin",
          "type": "uint256"
        },
        {
          "name": "proofHashSysAdmin",
          "type": "string"
        }
      ],
      "payable": false,
      "stateMutability": "nonpayable",
      "type": "constructor"
    },
    {
      "anonymous": false,
      "inputs": [
        {
          "indexed": false,
          "name": "addr",
          "type": "address"
        },
        {
          "indexed": false,
          "name": "id",
          "type": "uint256"
        },
        {
          "indexed": false,
          "name": "idProofHash",
          "type": "string"
        }
      ],
      "name": "AccountRegistration",
      "type": "event"
    },
    {
      "anonymous": false,
      "inputs": [
        {
          "indexed": false,
          "name": "addr",
          "type": "address"
        },
        {
          "indexed": false,
          "name": "id",
          "type": "uint256"
        },
        {
          "indexed": false,
          "name": "responsible",
          "type": "address"
        }
      ],
      "name": "AccountValidation",
      "type": "event"
    },
    {
      "anonymous": false,
      "inputs": [
        {
          "indexed": false,
          "name": "addr",
          "type": "address"
        },
        {
          "indexed": false,
          "name": "id",
          "type": "uint256"
        },
        {
          "indexed": false,
          "name": "responsible",
          "type": "address"
        }
      ],
      "name": "AccountInvalidation",
      "type": "event"
    },
    {
      "anonymous": false,
      "inputs": [
        {
          "indexed": false,
          "name": "addr",
          "type": "address"
        },
        {
          "indexed": false,
          "name": "id",
          "type": "uint256"
        },
        {
          "indexed": false,
          "name": "responsible",
          "type": "address"
        }
      ],
      "name": "AccountAdminUpgrade",
      "type": "event"
    },
    {
      "anonymous": false,
      "inputs": [
        {
          "indexed": false,
          "name": "addr",
          "type": "address"
        },
        {
          "indexed": false,
          "name": "id",
          "type": "uint256"
        },
        {
          "indexed": false,
          "name": "responsible",
          "type": "address"
        }
      ],
      "name": "AccountPaused",
      "type": "event"
    },
    {
      "anonymous": false,
      "inputs": [
        {
          "indexed": false,
          "name": "addr",
          "type": "address"
        },
        {
          "indexed": false,
          "name": "id",
          "type": "uint256"
        },
        {
          "indexed": false,
          "name": "responsible",
          "type": "address"
        }
      ],
      "name": "AccountUnpaused",
      "type": "event"
    },
    {
      "anonymous": false,
      "inputs": [
        {
          "indexed": true,
          "name": "previousOwner",
          "type": "address"
        },
        {
          "indexed": true,
          "name": "newOwner",
          "type": "address"
        }
      ],
      "name": "OwnershipTransferred",
      "type": "event"
    },
    {
      "constant": false,
      "inputs": [
        {
          "name": "id",
          "type": "uint256"
        },
        {
          "name": "idProofHash",
          "type": "string"
        }
      ],
      "name": "registryLegalEntity",
      "outputs": [],
      "payable": false,
      "stateMutability": "nonpayable",
      "type": "function"
    },
    {
      "constant": false,
      "inputs": [
        {
          "name": "userAddr",
          "type": "address"
        }
      ],
      "name": "validateRegistryLegalEntity",
      "outputs": [],
      "payable": false,
      "stateMutability": "nonpayable",
      "type": "function"
    },
    {
      "constant": false,
      "inputs": [
        {
          "name": "addr",
          "type": "address"
        }
      ],
      "name": "pauseRegistryLegalEntity",
      "outputs": [],
      "payable": false,
      "stateMutability": "nonpayable",
      "type": "function"
    },
    {
      "constant": false,
      "inputs": [
        {
          "name": "id",
          "type": "uint256"
        }
      ],
      "name": "pauseLegalEntity",
      "outputs": [],
      "payable": false,
      "stateMutability": "nonpayable",
      "type": "function"
    },
    {
      "constant": false,
      "inputs": [
        {
          "name": "addr",
          "type": "address"
        }
      ],
      "name": "unpauseRegistryLegalEntity",
      "outputs": [],
      "payable": false,
      "stateMutability": "nonpayable",
      "type": "function"
    },
    {
      "constant": false,
      "inputs": [
        {
          "name": "addr",
          "type": "address"
        }
      ],
      "name": "invalidateRegistryLegalEntity",
      "outputs": [],
      "payable": false,
      "stateMutability": "nonpayable",
      "type": "function"
    },
    {
      "constant": false,
      "inputs": [
        {
          "name": "addr",
          "type": "address"
        }
      ],
      "name": "setResponsibleForRegistryValidation",
      "outputs": [],
      "payable": false,
      "stateMutability": "nonpayable",
      "type": "function"
    },
    {
      "constant": true,
      "inputs": [
        {
          "name": "addr",
          "type": "address"
        }
      ],
      "name": "isResponsibleForRegistryValidation",
      "outputs": [
        {
          "name": "",
          "type": "bool"
        }
      ],
      "payable": false,
      "stateMutability": "view",
      "type": "function"
    },
    {
      "constant": true,
      "inputs": [
        {
          "name": "addr",
          "type": "address"
        }
      ],
      "name": "isOwner",
      "outputs": [
        {
          "name": "",
          "type": "bool"
        }
      ],
      "payable": false,
      "stateMutability": "view",
      "type": "function"
    },
    {
      "constant": true,
      "inputs": [],
      "name": "isOwner",
      "outputs": [
        {
          "name": "",
          "type": "bool"
        }
      ],
      "payable": false,
      "stateMutability": "view",
      "type": "function"
    },
    {
      "constant": true,
      "inputs": [
        {
          "name": "addr",
          "type": "address"
        }
      ],
      "name": "isAvailableAccount",
      "outputs": [
        {
          "name": "",
          "type": "bool"
        }
      ],
      "payable": false,
      "stateMutability": "view",
      "type": "function"
    },
    {
      "constant": true,
      "inputs": [
        {
          "name": "addr",
          "type": "address"
        }
      ],
      "name": "isWaitingValidationAccount",
      "outputs": [
        {
          "name": "",
          "type": "bool"
        }
      ],
      "payable": false,
      "stateMutability": "view",
      "type": "function"
    },
    {
      "constant": true,
      "inputs": [
        {
          "name": "addr",
          "type": "address"
        }
      ],
      "name": "isValidatedAccount",
      "outputs": [
        {
          "name": "",
          "type": "bool"
        }
      ],
      "payable": false,
      "stateMutability": "view",
      "type": "function"
    },
    {
      "constant": true,
      "inputs": [
        {
          "name": "addr",
          "type": "address"
        }
      ],
      "name": "isInvalidated",
      "outputs": [
        {
          "name": "",
          "type": "bool"
        }
      ],
      "payable": false,
      "stateMutability": "view",
      "type": "function"
    },
    {
      "constant": true,
      "inputs": [
        {
          "name": "a",
          "type": "address"
        },
        {
          "name": "b",
          "type": "address"
        }
      ],
      "name": "isTheSameID",
      "outputs": [
        {
          "name": "",
          "type": "bool"
        }
      ],
      "payable": false,
      "stateMutability": "view",
      "type": "function"
    },
    {
      "constant": true,
      "inputs": [
        {
          "name": "addr",
          "type": "address"
        }
      ],
      "name": "getId",
      "outputs": [
        {
          "name": "",
          "type": "uint256"
        }
      ],
      "payable": false,
      "stateMutability": "view",
      "type": "function"
    },
    {
      "constant": true,
      "inputs": [
        {
          "name": "addr",
          "type": "address"
        }
      ],
      "name": "getLegalEntityInfo",
      "outputs": [
        {
          "name": "",
          "type": "uint256"
        },
        {
          "name": "",
          "type": "string"
        },
        {
          "name": "",
          "type": "uint256"
        },
        {
          "name": "",
          "type": "uint256"
        },
        {
          "name": "",
          "type": "bool"
        },
        {
          "name": "",
          "type": "address"
        }
      ],
      "payable": false,
      "stateMutability": "view",
      "type": "function"
    },
    {
      "constant": true,
      "inputs": [
        {
          "name": "id",
          "type": "uint256"
        }
      ],
      "name": "getBlockchainAccounts",
      "outputs": [
        {
          "name": "",
          "type": "address[]"
        }
      ],
      "payable": false,
      "stateMutability": "view",
      "type": "function"
    },
    {
      "constant": true,
      "inputs": [
        {
          "name": "addr",
          "type": "address"
        }
      ],
      "name": "getAccountState",
      "outputs": [
        {
          "name": "",
          "type": "int256"
        }
      ],
      "payable": false,
      "stateMutability": "view",
      "type": "function"
    },
    {
      "constant": true,
      "inputs": [
        {
          "name": "addr",
          "type": "address"
        }
      ],
      "name": "getAccountRole",
      "outputs": [
        {
          "name": "",
          "type": "int256"
        }
      ],
      "payable": false,
      "stateMutability": "view",
      "type": "function"
    },
    {
      "constant": false,
      "inputs": [
        {
          "name": "id",
          "type": "uint256"
        }
      ],
      "name": "registryMock",
      "outputs": [],
      "payable": false,
      "stateMutability": "nonpayable",
      "type": "function"
    }
  ],
  "bytecode": "0x60806040523480156200001157600080fd5b5060405162003ca238038062003ca2833981018060405260408110156200003757600080fd5b810190808051906020019092919080516401000000008111156200005a57600080fd5b828101905060208101848111156200007157600080fd5b81518560018202830111640100000000821117156200008f57600080fd5b50509291905050506000620000a9620003c960201b60201c565b9050806000806101000a81548173ffffffffffffffffffffffffffffffffffffffff021916908373ffffffffffffffffffffffffffffffffffffffff1602179055508073ffffffffffffffffffffffffffffffffffffffff16600073ffffffffffffffffffffffffffffffffffffffff167f8be0079c531659141344cd1fd0a4f28419497f9722a3daafe3b4186f6b6457e060405160405180910390a35060003390506040518060a00160405280848152602001838152602001600260038111156200017157fe5b81526020016002808111156200018357fe5b815260200160001515815250600160008373ffffffffffffffffffffffffffffffffffffffff1673ffffffffffffffffffffffffffffffffffffffff168152602001908152602001600020600082015181600001556020820151816001019080519060200190620001f6929190620003d1565b5060408201518160020160006101000a81548160ff021916908360038111156200021c57fe5b021790555060608201518160020160016101000a81548160ff021916908360028111156200024657fe5b021790555060808201518160020160026101000a81548160ff021916908315150217905550905050600260008481526020019081526020016000208190806001815401808255809150509060018203906000526020600020016000909192909190916101000a81548173ffffffffffffffffffffffffffffffffffffffff021916908373ffffffffffffffffffffffffffffffffffffffff160217905550507f7d514f6cd4f59c504878340337caf06d04ffd8469e3f5ab8ff9d774770feb610818484604051808473ffffffffffffffffffffffffffffffffffffffff1673ffffffffffffffffffffffffffffffffffffffff16815260200183815260200180602001828103825283818151815260200191508051906020019080838360005b838110156200038357808201518184015260208101905062000366565b50505050905090810190601f168015620003b15780820380516001836020036101000a031916815260200191505b5094505050505060405180910390a150505062000480565b600033905090565b828054600181600116156101000203166002900490600052602060002090601f016020900481019282601f106200041457805160ff191683800117855562000445565b8280016001018555821562000445579182015b828111156200044457825182559160200191906001019062000427565b5b50905062000454919062000458565b5090565b6200047d91905b80821115620004795760008160009055506001016200045f565b5090565b90565b61381280620004906000396000f3fe608060405234801561001057600080fd5b50600436106101735760003560e01c80638c879eb1116100de5780639f5e1ddd11610097578063bb39308611610071578063bb3930861461092c578063e81bb70c146109a8578063f24b1add146109d6578063f2fde38b14610a9b57610173565b80639f5e1ddd1461077c578063a3d884531461088c578063b41842b9146108e857610173565b80638c879eb1146105ea5780638cbd258f146106185780638da5cb5b1461065c5780638e97637e146106a65780638f32d59b146107025780639ee2735b1461072457610173565b806351304ca01161013057806351304ca01461044c5780636426a1161461049057806365f68c89146104ec578063715018a61461054457806373d8b00e1461054e57806381d66b231461059257610173565b80630bf20e01146101785780630c4471bd146101fb57806326ff4794146102575780632f54bf6e146103505780633abba2ef146103ac5780633d68a5f314610408575b600080fd5b6101a46004803603602081101561018e57600080fd5b8101908080359060200190929190505050610adf565b6040518080602001828103825283818151815260200191508051906020019060200280838360005b838110156101e75780820151818401526020810190506101cc565b505050509050019250505060405180910390f35b61023d6004803603602081101561021157600080fd5b81019080803573ffffffffffffffffffffffffffffffffffffffff169060200190929190505050610b80565b604051808215151515815260200191505060405180910390f35b6102996004803603602081101561026d57600080fd5b81019080803573ffffffffffffffffffffffffffffffffffffffff169060200190929190505050610bf2565b60405180868152602001806020018560038111156102b357fe5b60ff1681526020018460028111156102c757fe5b60ff16815260200183151515158152602001828103825286818151815260200191508051906020019080838360005b838110156103115780820151818401526020810190506102f6565b50505050905090810190601f16801561033e5780820380516001836020036101000a031916815260200191505b50965050505050505060405180910390f35b6103926004803603602081101561036657600080fd5b81019080803573ffffffffffffffffffffffffffffffffffffffff169060200190929190505050610ce7565b604051808215151515815260200191505060405180910390f35b6103ee600480360360208110156103c257600080fd5b81019080803573ffffffffffffffffffffffffffffffffffffffff169060200190929190505050610d26565b604051808215151515815260200191505060405180910390f35b61044a6004803603602081101561041e57600080fd5b81019080803573ffffffffffffffffffffffffffffffffffffffff169060200190929190505050610e07565b005b61048e6004803603602081101561046257600080fd5b81019080803573ffffffffffffffffffffffffffffffffffffffff169060200190929190505050611256565b005b6104d2600480360360208110156104a657600080fd5b81019080803573ffffffffffffffffffffffffffffffffffffffff16906020019092919050505061162a565b604051808215151515815260200191505060405180910390f35b61052e6004803603602081101561050257600080fd5b81019080803573ffffffffffffffffffffffffffffffffffffffff16906020019092919050505061169c565b6040518082815260200191505060405180910390f35b61054c6116e8565b005b6105906004803603602081101561056457600080fd5b81019080803573ffffffffffffffffffffffffffffffffffffffff169060200190929190505050611821565b005b6105d4600480360360208110156105a857600080fd5b81019080803573ffffffffffffffffffffffffffffffffffffffff169060200190929190505050611b94565b6040518082815260200191505060405180910390f35b6106166004803603602081101561060057600080fd5b8101908080359060200190929190505050611bf8565b005b61065a6004803603602081101561062e57600080fd5b81019080803573ffffffffffffffffffffffffffffffffffffffff169060200190929190505050611fa6565b005b61066461222a565b604051808273ffffffffffffffffffffffffffffffffffffffff1673ffffffffffffffffffffffffffffffffffffffff16815260200191505060405180910390f35b6106e8600480360360208110156106bc57600080fd5b81019080803573ffffffffffffffffffffffffffffffffffffffff169060200190929190505050612253565b604051808215151515815260200191505060405180910390f35b61070a6122c4565b604051808215151515815260200191505060405180910390f35b6107666004803603602081101561073a57600080fd5b81019080803573ffffffffffffffffffffffffffffffffffffffff169060200190929190505050612322565b6040518082815260200191505060405180910390f35b6107be6004803603602081101561079257600080fd5b81019080803573ffffffffffffffffffffffffffffffffffffffff169060200190929190505050612386565b6040518087815260200180602001868152602001858152602001841515151581526020018373ffffffffffffffffffffffffffffffffffffffff1673ffffffffffffffffffffffffffffffffffffffff168152602001828103825287818151815260200191508051906020019080838360005b8381101561084c578082015181840152602081019050610831565b50505050905090810190601f1680156108795780820380516001836020036101000a031916815260200191505b5097505050505050505060405180910390f35b6108ce600480360360208110156108a257600080fd5b81019080803573ffffffffffffffffffffffffffffffffffffffff1690602001909291905050506125cd565b604051808215151515815260200191505060405180910390f35b61092a600480360360208110156108fe57600080fd5b81019080803573ffffffffffffffffffffffffffffffffffffffff16906020019092919050505061263e565b005b61098e6004803603604081101561094257600080fd5b81019080803573ffffffffffffffffffffffffffffffffffffffff169060200190929190803573ffffffffffffffffffffffffffffffffffffffff169060200190929190505050612a0c565b604051808215151515815260200191505060405180910390f35b6109d4600480360360208110156109be57600080fd5b8101908080359060200190929190505050612a9d565b005b610a99600480360360408110156109ec57600080fd5b810190808035906020019092919080359060200190640100000000811115610a1357600080fd5b820183602082011115610a2557600080fd5b80359060200191846001830284011164010000000083111715610a4757600080fd5b91908080601f016020809104026020016040519081016040528093929190818152602001838380828437600081840152601f19601f820116905080830192505050505050509192919290505050612d27565b005b610add60048036036020811015610ab157600080fd5b81019080803573ffffffffffffffffffffffffffffffffffffffff169060200190929190505050613212565b005b606060026000838152602001908152602001600020805480602002602001604051908101604052809291908181526020018280548015610b7457602002820191906000526020600020905b8160009054906101000a900473ffffffffffffffffffffffffffffffffffffffff1673ffffffffffffffffffffffffffffffffffffffff1681526020019060010190808311610b2a575b50505050509050919050565b600060016003811115610b8f57fe5b600160008473ffffffffffffffffffffffffffffffffffffffff1673ffffffffffffffffffffffffffffffffffffffff16815260200190815260200160002060020160009054906101000a900460ff166003811115610bea57fe5b149050919050565b6001602052806000526040600020600091509050806000015490806001018054600181600116156101000203166002900480601f016020809104026020016040519081016040528092919081815260200182805460018160011615610100020316600290048015610ca45780601f10610c7957610100808354040283529160200191610ca4565b820191906000526020600020905b815481529060010190602001808311610c8757829003601f168201915b5050505050908060020160009054906101000a900460ff16908060020160019054906101000a900460ff16908060020160029054906101000a900460ff16905085565b60008173ffffffffffffffffffffffffffffffffffffffff16610d0861222a565b73ffffffffffffffffffffffffffffffffffffffff16149050919050565b600060016002811115610d3557fe5b600160008473ffffffffffffffffffffffffffffffffffffffff1673ffffffffffffffffffffffffffffffffffffffff16815260200190815260200160002060020160019054906101000a900460ff166002811115610d9057fe5b1480610e005750600280811115610da357fe5b600160008473ffffffffffffffffffffffffffffffffffffffff1673ffffffffffffffffffffffffffffffffffffffff16815260200190815260200160002060020160019054906101000a900460ff166002811115610dfe57fe5b145b9050919050565b600160003373ffffffffffffffffffffffffffffffffffffffff1673ffffffffffffffffffffffffffffffffffffffff16815260200190815260200160002060020160029054906101000a900460ff1615610ead576040517f08c379a000000000000000000000000000000000000000000000000000000000815260040180806020018281038252602b81526020018061348a602b913960400191505060405180910390fd5b6000339050610ebb81610d26565b610f10576040517f08c379a00000000000000000000000000000000000000000000000000000000081526004018080602001828103825260398152602001806136906039913960400191505060405180910390fd5b600280811115610f1c57fe5b600160008373ffffffffffffffffffffffffffffffffffffffff1673ffffffffffffffffffffffffffffffffffffffff16815260200190815260200160002060020160019054906101000a900460ff166002811115610f7757fe5b1480610ffa575060016002811115610f8b57fe5b600160008373ffffffffffffffffffffffffffffffffffffffff1673ffffffffffffffffffffffffffffffffffffffff16815260200190815260200160002060020160019054906101000a900460ff166002811115610fe657fe5b148015610ff95750610ff88183612a0c565b5b5b61104f576040517f08c379a000000000000000000000000000000000000000000000000000000000815260040180806020018281038252604c8152602001806136f6604c913960600191505060405180910390fd5b6001600381111561105c57fe5b600160008473ffffffffffffffffffffffffffffffffffffffff1673ffffffffffffffffffffffffffffffffffffffff16815260200190815260200160002060020160009054906101000a900460ff1660038111156110b757fe5b1461110d576040517f08c379a00000000000000000000000000000000000000000000000000000000081526004018080602001828103825260368152602001806134b56036913960400191505060405180910390fd5b6002600160008473ffffffffffffffffffffffffffffffffffffffff1673ffffffffffffffffffffffffffffffffffffffff16815260200190815260200160002060020160006101000a81548160ff0219169083600381111561116c57fe5b02179055507f294cd52aa579a7ee948c69102bdc47e60ad7f5983667a1ceef82e9bce8f3f7b882600160008573ffffffffffffffffffffffffffffffffffffffff1673ffffffffffffffffffffffffffffffffffffffff1681526020019081526020016000206000015483604051808473ffffffffffffffffffffffffffffffffffffffff1673ffffffffffffffffffffffffffffffffffffffff1681526020018381526020018273ffffffffffffffffffffffffffffffffffffffff1673ffffffffffffffffffffffffffffffffffffffff168152602001935050505060405180910390a15050565b600160003373ffffffffffffffffffffffffffffffffffffffff1673ffffffffffffffffffffffffffffffffffffffff16815260200190815260200160002060020160029054906101000a900460ff16156112fc576040517f08c379a000000000000000000000000000000000000000000000000000000000815260040180806020018281038252602b81526020018061348a602b913960400191505060405180910390fd5b600033905060028081111561130d57fe5b600160008473ffffffffffffffffffffffffffffffffffffffff1673ffffffffffffffffffffffffffffffffffffffff16815260200190815260200160002060020160019054906101000a900460ff16600281111561136857fe5b14156113bf576040517f08c379a00000000000000000000000000000000000000000000000000000000081526004018080602001828103825260268152602001806135b76026913960400191505060405180910390fd5b6113c98183612a0c565b8061143857506002808111156113db57fe5b600160008373ffffffffffffffffffffffffffffffffffffffff1673ffffffffffffffffffffffffffffffffffffffff16815260200190815260200160002060020160019054906101000a900460ff16600281111561143657fe5b145b61148d576040517f08c379a000000000000000000000000000000000000000000000000000000000815260040180806020018281038252605581526020018061363b6055913960600191505060405180910390fd5b6114968261162a565b6114eb576040517f08c379a000000000000000000000000000000000000000000000000000000000815260040180806020018281038252602a815260200180613777602a913960400191505060405180910390fd5b60018060008473ffffffffffffffffffffffffffffffffffffffff1673ffffffffffffffffffffffffffffffffffffffff16815260200190815260200160002060020160026101000a81548160ff0219169083151502179055507f49103328d6bfa84194d36b40c570ff71aa5bd06e39955ee2e759e5ae6987b68d82600160008573ffffffffffffffffffffffffffffffffffffffff1673ffffffffffffffffffffffffffffffffffffffff1681526020019081526020016000206000015483604051808473ffffffffffffffffffffffffffffffffffffffff1673ffffffffffffffffffffffffffffffffffffffff1681526020018381526020018273ffffffffffffffffffffffffffffffffffffffff1673ffffffffffffffffffffffffffffffffffffffff168152602001935050505060405180910390a15050565b60006002600381111561163957fe5b600160008473ffffffffffffffffffffffffffffffffffffffff1673ffffffffffffffffffffffffffffffffffffffff16815260200190815260200160002060020160009054906101000a900460ff16600381111561169457fe5b149050919050565b6000600160008373ffffffffffffffffffffffffffffffffffffffff1673ffffffffffffffffffffffffffffffffffffffff168152602001908152602001600020600001549050919050565b6116f06122c4565b611762576040517f08c379a00000000000000000000000000000000000000000000000000000000081526004018080602001828103825260208152602001807f4f776e61626c653a2063616c6c6572206973206e6f7420746865206f776e657281525060200191505060405180910390fd5b600073ffffffffffffffffffffffffffffffffffffffff166000809054906101000a900473ffffffffffffffffffffffffffffffffffffffff1673ffffffffffffffffffffffffffffffffffffffff167f8be0079c531659141344cd1fd0a4f28419497f9722a3daafe3b4186f6b6457e060405160405180910390a360008060006101000a81548173ffffffffffffffffffffffffffffffffffffffff021916908373ffffffffffffffffffffffffffffffffffffffff160217905550565b600160003373ffffffffffffffffffffffffffffffffffffffff1673ffffffffffffffffffffffffffffffffffffffff16815260200190815260200160002060020160029054906101000a900460ff16156118c7576040517f08c379a000000000000000000000000000000000000000000000000000000000815260040180806020018281038252602b81526020018061348a602b913960400191505060405180910390fd5b60003390508173ffffffffffffffffffffffffffffffffffffffff168173ffffffffffffffffffffffffffffffffffffffff161415611951576040517f08c379a00000000000000000000000000000000000000000000000000000000081526004018080602001828103825260418152602001806135766041913960600191505060405180910390fd5b61195a81610d26565b6119af576040517f08c379a00000000000000000000000000000000000000000000000000000000081526004018080602001828103825260468152602001806137a16046913960600191505060405180910390fd5b600160008373ffffffffffffffffffffffffffffffffffffffff1673ffffffffffffffffffffffffffffffffffffffff16815260200190815260200160002060020160029054906101000a900460ff16611a54576040517f08c379a000000000000000000000000000000000000000000000000000000000815260040180806020018281038252602d8152602001806136c9602d913960400191505060405180910390fd5b6000600160008473ffffffffffffffffffffffffffffffffffffffff1673ffffffffffffffffffffffffffffffffffffffff16815260200190815260200160002060020160026101000a81548160ff0219169083151502179055507fd9c9f58a7529b3094c535a59cf888947e38a1921a719079ad47c132422f143e282600160008573ffffffffffffffffffffffffffffffffffffffff1673ffffffffffffffffffffffffffffffffffffffff1681526020019081526020016000206000015483604051808473ffffffffffffffffffffffffffffffffffffffff1673ffffffffffffffffffffffffffffffffffffffff1681526020018381526020018273ffffffffffffffffffffffffffffffffffffffff1673ffffffffffffffffffffffffffffffffffffffff168152602001935050505060405180910390a15050565b6000600160008373ffffffffffffffffffffffffffffffffffffffff1673ffffffffffffffffffffffffffffffffffffffff16815260200190815260200160002060020160019054906101000a900460ff166002811115611bf157fe5b9050919050565b600160003373ffffffffffffffffffffffffffffffffffffffff1673ffffffffffffffffffffffffffffffffffffffff16815260200190815260200160002060020160029054906101000a900460ff1615611c9e576040517f08c379a000000000000000000000000000000000000000000000000000000000815260040180806020018281038252602b81526020018061348a602b913960400191505060405180910390fd5b6000339050606060026000848152602001908152602001600020805480602002602001604051908101604052809291908181526020018280548015611d3857602002820191906000526020600020905b8160009054906101000a900473ffffffffffffffffffffffffffffffffffffffff1673ffffffffffffffffffffffffffffffffffffffff1681526020019060010190808311611cee575b50505050509050611d5d8282600081518110611d5057fe5b6020026020010151612a0c565b80611dcc5750600280811115611d6f57fe5b600160008473ffffffffffffffffffffffffffffffffffffffff1673ffffffffffffffffffffffffffffffffffffffff16815260200190815260200160002060020160019054906101000a900460ff166002811115611dca57fe5b145b611e21576040517f08c379a000000000000000000000000000000000000000000000000000000000815260040180806020018281038252605581526020018061363b6055913960600191505060405180910390fd5b60008090505b8151811015611fa0576000828281518110611e3e57fe5b60200260200101519050611e518161162a565b15611f925760018060008373ffffffffffffffffffffffffffffffffffffffff1673ffffffffffffffffffffffffffffffffffffffff16815260200190815260200160002060020160026101000a81548160ff0219169083151502179055507f49103328d6bfa84194d36b40c570ff71aa5bd06e39955ee2e759e5ae6987b68d81600160008473ffffffffffffffffffffffffffffffffffffffff1673ffffffffffffffffffffffffffffffffffffffff1681526020019081526020016000206000015486604051808473ffffffffffffffffffffffffffffffffffffffff1673ffffffffffffffffffffffffffffffffffffffff1681526020018381526020018273ffffffffffffffffffffffffffffffffffffffff1673ffffffffffffffffffffffffffffffffffffffff168152602001935050505060405180910390a15b508080600101915050611e27565b50505050565b60016002811115611fb357fe5b600160008373ffffffffffffffffffffffffffffffffffffffff1673ffffffffffffffffffffffffffffffffffffffff16815260200190815260200160002060020160019054906101000a900460ff16600281111561200e57fe5b148061207e575060028081111561202157fe5b600160008373ffffffffffffffffffffffffffffffffffffffff1673ffffffffffffffffffffffffffffffffffffffff16815260200190815260200160002060020160019054906101000a900460ff16600281111561207c57fe5b145b8061208e575061208d81610ce7565b5b6120e3576040517f08c379a000000000000000000000000000000000000000000000000000000000815260040180806020018281038252603c815260200180613511603c913960400191505060405180910390fd5b60018060008373ffffffffffffffffffffffffffffffffffffffff1673ffffffffffffffffffffffffffffffffffffffff16815260200190815260200160002060020160016101000a81548160ff0219169083600281111561214157fe5b02179055507fcbc4624620cce2b672e6ff89f1468cad74c4942cee2ac5eb0f6d75eb48281f8581600160008473ffffffffffffffffffffffffffffffffffffffff1673ffffffffffffffffffffffffffffffffffffffff1681526020019081526020016000206000015433604051808473ffffffffffffffffffffffffffffffffffffffff1673ffffffffffffffffffffffffffffffffffffffff1681526020018381526020018273ffffffffffffffffffffffffffffffffffffffff1673ffffffffffffffffffffffffffffffffffffffff168152602001935050505060405180910390a150565b60008060009054906101000a900473ffffffffffffffffffffffffffffffffffffffff16905090565b600060038081111561226157fe5b600160008473ffffffffffffffffffffffffffffffffffffffff1673ffffffffffffffffffffffffffffffffffffffff16815260200190815260200160002060020160009054906101000a900460ff1660038111156122bc57fe5b149050919050565b60008060009054906101000a900473ffffffffffffffffffffffffffffffffffffffff1673ffffffffffffffffffffffffffffffffffffffff16612306613298565b73ffffffffffffffffffffffffffffffffffffffff1614905090565b6000600160008373ffffffffffffffffffffffffffffffffffffffff1673ffffffffffffffffffffffffffffffffffffffff16815260200190815260200160002060020160009054906101000a900460ff16600381111561237f57fe5b9050919050565b60006060600080600080600160008873ffffffffffffffffffffffffffffffffffffffff1673ffffffffffffffffffffffffffffffffffffffff16815260200190815260200160002060000154600160008973ffffffffffffffffffffffffffffffffffffffff1673ffffffffffffffffffffffffffffffffffffffff168152602001908152602001600020600101600160008a73ffffffffffffffffffffffffffffffffffffffff1673ffffffffffffffffffffffffffffffffffffffff16815260200190815260200160002060020160009054906101000a900460ff16600381111561247057fe5b600160008b73ffffffffffffffffffffffffffffffffffffffff1673ffffffffffffffffffffffffffffffffffffffff16815260200190815260200160002060020160019054906101000a900460ff1660028111156124cb57fe5b600160008c73ffffffffffffffffffffffffffffffffffffffff1673ffffffffffffffffffffffffffffffffffffffff16815260200190815260200160002060020160029054906101000a900460ff168b848054600181600116156101000203166002900480601f0160208091040260200160405190810160405280929190818152602001828054600181600116156101000203166002900480156125b15780601f10612586576101008083540402835291602001916125b1565b820191906000526020600020905b81548152906001019060200180831161259457829003601f168201915b5050505050945095509550955095509550955091939550919395565b60008060038111156125db57fe5b600160008473ffffffffffffffffffffffffffffffffffffffff1673ffffffffffffffffffffffffffffffffffffffff16815260200190815260200160002060020160009054906101000a900460ff16600381111561263657fe5b149050919050565b600160003373ffffffffffffffffffffffffffffffffffffffff1673ffffffffffffffffffffffffffffffffffffffff16815260200190815260200160002060020160029054906101000a900460ff16156126e4576040517f08c379a000000000000000000000000000000000000000000000000000000000815260040180806020018281038252602b81526020018061348a602b913960400191505060405180910390fd5b60003390506126f281610d26565b612747576040517f08c379a000000000000000000000000000000000000000000000000000000000815260040180806020018281038252603b815260200180613600603b913960400191505060405180910390fd5b60028081111561275357fe5b600160008473ffffffffffffffffffffffffffffffffffffffff1673ffffffffffffffffffffffffffffffffffffffff16815260200190815260200160002060020160019054906101000a900460ff1660028111156127ae57fe5b1415612805576040517f08c379a000000000000000000000000000000000000000000000000000000000815260040180806020018281038252602981526020018061354d6029913960400191505060405180910390fd5b60038081111561281157fe5b600160008473ffffffffffffffffffffffffffffffffffffffff1673ffffffffffffffffffffffffffffffffffffffff16815260200190815260200160002060020160009054906101000a900460ff16600381111561286c57fe5b14156128c3576040517f08c379a00000000000000000000000000000000000000000000000000000000081526004018080602001828103825260238152602001806135dd6023913960400191505060405180910390fd5b6003600160008473ffffffffffffffffffffffffffffffffffffffff1673ffffffffffffffffffffffffffffffffffffffff16815260200190815260200160002060020160006101000a81548160ff0219169083600381111561292257fe5b02179055507f28e69314c8855f1b7517106feca71c4af03d1a4b75aa7db9a30ad1c21ec55ccc82600160008573ffffffffffffffffffffffffffffffffffffffff1673ffffffffffffffffffffffffffffffffffffffff1681526020019081526020016000206000015483604051808473ffffffffffffffffffffffffffffffffffffffff1673ffffffffffffffffffffffffffffffffffffffff1681526020018381526020018273ffffffffffffffffffffffffffffffffffffffff1673ffffffffffffffffffffffffffffffffffffffff168152602001935050505060405180910390a15050565b6000600160008373ffffffffffffffffffffffffffffffffffffffff1673ffffffffffffffffffffffffffffffffffffffff16815260200190815260200160002060000154600160008573ffffffffffffffffffffffffffffffffffffffff1673ffffffffffffffffffffffffffffffffffffffff1681526020019081526020016000206000015414905092915050565b600033905060606040518060200160405280600081525090506040518060a0016040528084815260200182815260200160026003811115612ada57fe5b815260200160016002811115612aec57fe5b815260200160001515815250600160008473ffffffffffffffffffffffffffffffffffffffff1673ffffffffffffffffffffffffffffffffffffffff168152602001908152602001600020600082015181600001556020820151816001019080519060200190612b5d9291906133e4565b5060408201518160020160006101000a81548160ff02191690836003811115612b8257fe5b021790555060608201518160020160016101000a81548160ff02191690836002811115612bab57fe5b021790555060808201518160020160026101000a81548160ff021916908315150217905550905050600260008481526020019081526020016000208290806001815401808255809150509060018203906000526020600020016000909192909190916101000a81548173ffffffffffffffffffffffffffffffffffffffff021916908373ffffffffffffffffffffffffffffffffffffffff160217905550507f7d514f6cd4f59c504878340337caf06d04ffd8469e3f5ab8ff9d774770feb610828483604051808473ffffffffffffffffffffffffffffffffffffffff1673ffffffffffffffffffffffffffffffffffffffff16815260200183815260200180602001828103825283818151815260200191508051906020019080838360005b83811015612ce6578082015181840152602081019050612ccb565b50505050905090810190601f168015612d135780820380516001836020036101000a031916815260200191505b5094505050505060405180910390a1505050565b6000339050612d35816125cd565b612d8a576040517f08c379a00000000000000000000000000000000000000000000000000000000081526004018080602001828103825260358152602001806137426035913960400191505060405180910390fd5b73__RBBLib________________________________636edcb12f836040518263ffffffff1660e01b81526004018080602001828103825283818151815260200191508051906020019080838360005b83811015612df4578082015181840152602081019050612dd9565b50505050905090810190601f168015612e215780820380516001836020036101000a031916815260200191505b509250505060206040518083038186803b158015612e3e57600080fd5b505af4158015612e52573d6000803e3d6000fd5b505050506040513d6020811015612e6857600080fd5b810190808051906020019092919050505015612fa0576040518060a0016040528084815260200183815260200160016003811115612ea257fe5b815260200160016002811115612eb457fe5b815260200160001515815250600160008373ffffffffffffffffffffffffffffffffffffffff1673ffffffffffffffffffffffffffffffffffffffff168152602001908152602001600020600082015181600001556020820151816001019080519060200190612f259291906133e4565b5060408201518160020160006101000a81548160ff02191690836003811115612f4a57fe5b021790555060608201518160020160016101000a81548160ff02191690836002811115612f7357fe5b021790555060808201518160020160026101000a81548160ff0219169083151502179055509050506130be565b6040518060a0016040528084815260200183815260200160016003811115612fc457fe5b815260200160006002811115612fd657fe5b815260200160001515815250600160008373ffffffffffffffffffffffffffffffffffffffff1673ffffffffffffffffffffffffffffffffffffffff1681526020019081526020016000206000820151816000015560208201518160010190805190602001906130479291906133e4565b5060408201518160020160006101000a81548160ff0219169083600381111561306c57fe5b021790555060608201518160020160016101000a81548160ff0219169083600281111561309557fe5b021790555060808201518160020160026101000a81548160ff0219169083151502179055509050505b600260008481526020019081526020016000208190806001815401808255809150509060018203906000526020600020016000909192909190916101000a81548173ffffffffffffffffffffffffffffffffffffffff021916908373ffffffffffffffffffffffffffffffffffffffff160217905550507f7d514f6cd4f59c504878340337caf06d04ffd8469e3f5ab8ff9d774770feb610818484604051808473ffffffffffffffffffffffffffffffffffffffff1673ffffffffffffffffffffffffffffffffffffffff16815260200183815260200180602001828103825283818151815260200191508051906020019080838360005b838110156131d15780820151818401526020810190506131b6565b50505050905090810190601f1680156131fe5780820380516001836020036101000a031916815260200191505b5094505050505060405180910390a1505050565b61321a6122c4565b61328c576040517f08c379a00000000000000000000000000000000000000000000000000000000081526004018080602001828103825260208152602001807f4f776e61626c653a2063616c6c6572206973206e6f7420746865206f776e657281525060200191505060405180910390fd5b613295816132a0565b50565b600033905090565b600073ffffffffffffffffffffffffffffffffffffffff168173ffffffffffffffffffffffffffffffffffffffff161415613326576040517f08c379a00000000000000000000000000000000000000000000000000000000081526004018080602001828103825260268152602001806134eb6026913960400191505060405180910390fd5b8073ffffffffffffffffffffffffffffffffffffffff166000809054906101000a900473ffffffffffffffffffffffffffffffffffffffff1673ffffffffffffffffffffffffffffffffffffffff167f8be0079c531659141344cd1fd0a4f28419497f9722a3daafe3b4186f6b6457e060405160405180910390a3806000806101000a81548173ffffffffffffffffffffffffffffffffffffffff021916908373ffffffffffffffffffffffffffffffffffffffff16021790555050565b828054600181600116156101000203166002900490600052602060002090601f016020900481019282601f1061342557805160ff1916838001178555613453565b82800160010185558215613453579182015b82811115613452578251825591602001919060010190613437565b5b5090506134609190613464565b5090565b61348691905b8082111561348257600081600090555060010161346a565b5090565b9056fe4170656e6173207175656d206ec3a36f20657374c3a1207061757361646120706f646520616365737361724120636f6e74612070726563697361206573746172206e6f2065737461646f20416775617264616e646f2056616c696461c3a7c3a36f4f776e61626c653a206e6577206f776e657220697320746865207a65726f20616464726573734170656e6173204f776e65722c2041646d696e206f752053797374656d2d41646d696e20706f64656d2064617220706f6465722064652041646d696e4120636f6e74612053595341444d494e206ec3a36f20706f64652073657220696e76616c6964616461556d6120706573736f61206ec3a36f20c3a920636170617a2064652072657469726172206f20706175736520646520737561207072c3b37072696120636f6e74614120636f6e74612053595341444d494e206ec3a36f20706f64652073657220706175736164614120636f6e746120666f6920696e76616c6964616461207072657669616d656e74652e536f6d656e746520726573706f6e73c3a176656c2070656c612076616c696461c3a7c3a36f20706f646520696e76616c6964617220636f6e746173536f6d656e746520706f64652070617573617220756d6120636f6e7461207175656d20666f72206461206d65736d61206f7267616e697a61c3a7c3a36f206f752053797374656d2041646d696e6973747261746f72536f6d656e746520726573706f6e73c3a176656c2070656c612076616c696461c3a7c3a36f20706f64652076616c6964617220636f6e746173536f6d656e746520756d6120636f6e7461207061757361646120706f64652073657220646573706175736164614f20726573706f6e73c3a176656c2070656c612076616c696461c3a7c3a36f206465766520736572206461206d65736d61206f7267616e697a61c3a7c3a36f20286d65736d6f20434e504a29456e64657265c3a76f206ec3a36f20706f646520746572207369646f206361646173747261646f20616e746572696f726d656e7465536f6d656e746520756d6120636f6e74612076c3a16c69646120706f6465207365722070617573616461536f6d656e746520756d6120636f6e746120726573706f6e73c3a176656c2076616c696461646f726120706f646520646573706175736172206f757472617320636f6e746173a165627a7a72305820d65144a47cd2a9934fc3645dff69217e4506eaff8d7c58a57f7eb56a04da4c3a0029",
  "source": "pragma solidity ^0.5.0;\n\nimport \"@openzeppelin/contracts/ownership/Ownable.sol\";\nimport \"./RBBLib.sol\";\n\n//TODO: Pensar numa nova chave ao inves do CNPJ, seria o RBBID \n\ncontract RBBRegistry is Ownable() {\n\n    /** Account States:\n        AVAILABLE - The account is not yet assigned any role.\n        WAITING_VALIDATION - The account was linked to a legal entity but it still needs to be validated\n        VALIDATED - The account was validated\n        INVALIDATED - The account was invalidated\n     */\n    enum BlockchainAccountState {AVAILABLE,WAITING_VALIDATION,VALIDATED,INVALIDATED}\n    BlockchainAccountState blockchainState; /* Variable not used, only defined to create the enum type. */\n\n    enum BlockchainAccountRole {NORMAL, ADMIN, SYSADMIN} \n    BlockchainAccountRole blockchainRole;  /* Variable not used, only defined to create the enum type. */\n\n     /**\n        This represents a real life organization\n     */\n    struct LegalEntityInfo {\n        uint id; //Brazilian identification of legal entity\n        string idProofHash; //hash of declaration\n        BlockchainAccountState state;\n        BlockchainAccountRole role;\n        bool paused;\n    }\n\n    /**\n        Links Ethereum addresses to LegalEntityInfo\n     */\n    mapping(address => LegalEntityInfo) public legalEntitiesInfo;\n\n    /**\n        Links Legal Entity IDs to Ethereum addresses.\n     */\n    mapping(uint => address[]) legalEntityId_To_Addr;\n\n    event AccountRegistration(address addr, uint id,  string idProofHash);\n    event AccountValidation(address addr, uint id, address responsible);\n    event AccountInvalidation(address addr, uint id, address responsible);\n    event AccountAdminUpgrade(address addr, uint id, address responsible);\n    event AccountPaused(address addr, uint id, address responsible);\n    event AccountUnpaused(address addr, uint id, address responsible);\n\n    /* The responsible for the System-Admin is the Owner. It could be or not be the same address (sysadmin=owner) */\n    constructor (uint idSysAdmin, string memory proofHashSysAdmin) public {        \n        address addrSysAdmin = msg.sender;\n        legalEntitiesInfo[addrSysAdmin] = LegalEntityInfo(idSysAdmin, proofHashSysAdmin, BlockchainAccountState.VALIDATED, BlockchainAccountRole.SYSADMIN, false);\n        legalEntityId_To_Addr[idSysAdmin].push(addrSysAdmin);\n        emit AccountRegistration(addrSysAdmin, idSysAdmin, proofHashSysAdmin); \n        \n    }\n\n   /**\n    * Link blockchain address with ID\n    * @param id Brazilian identifier to legal entities\n    * @param idProofHash The legal entities have to send BNDES a PDF where it assumes as responsible for an Ethereum account.\n    *                   This PDF is signed with eCNPJ and send to BNDES.\n    */\n    function registryLegalEntity(uint id, string memory idProofHash) public {\n        \n        address addr = msg.sender;\n\n        require (isAvailableAccount(addr), \"Endereo no pode ter sido cadastrado anteriormente\");\n\n        if ( RBBLib.isValidHash(idProofHash) ) { \n            legalEntitiesInfo[addr] = LegalEntityInfo(id, idProofHash, \n                                                       BlockchainAccountState.WAITING_VALIDATION, \n                                                       BlockchainAccountRole.ADMIN,\n                                                       false );\n        } else {\n            legalEntitiesInfo[addr] = LegalEntityInfo(id, idProofHash, \n                                                       BlockchainAccountState.WAITING_VALIDATION, \n                                                       BlockchainAccountRole.NORMAL,\n                                                       false );\n        }\n\n        legalEntityId_To_Addr[id].push(addr);\n\n        emit AccountRegistration(addr, id, idProofHash);\n    }\n\n    modifier onlyWhenNotPaused() { \n        require( ! legalEntitiesInfo[msg.sender].paused , \"Apenas quem no est pausada pode acessar\" );\n        _;\n    }\n\n   /**\n    * Validates the initial registry of a legal entity \n    * @param userAddr Ethereum address that needs to be validated\n    */\n    function validateRegistryLegalEntity(address userAddr) public onlyWhenNotPaused {\n\n        address responsible = msg.sender;\n\n        require(isResponsibleForRegistryValidation(responsible), \"Somente responsvel pela validao pode validar contas\");\n        \n        require ( legalEntitiesInfo[responsible].role == BlockchainAccountRole.SYSADMIN \n                || \n                ( legalEntitiesInfo[responsible].role == BlockchainAccountRole.ADMIN\n                     && isTheSameID(responsible, userAddr) )\n            , \"O responsvel pela validao deve ser da mesma organizao (mesmo CNPJ)\" );\n\n        require(legalEntitiesInfo[userAddr].state == BlockchainAccountState.WAITING_VALIDATION,\n            \"A conta precisa estar no estado Aguardando Validao\");\n\n        legalEntitiesInfo[userAddr].state = BlockchainAccountState.VALIDATED;\n\n        emit AccountValidation(userAddr, legalEntitiesInfo[userAddr].id, responsible);\n    }\n\n/**\n    * Pause an account     \n    * @param addr Ethereum address that needs to be paused\n    */\n    function pauseRegistryLegalEntity(address addr) public onlyWhenNotPaused {\n\n        address responsible = msg.sender;\n\n        require ( legalEntitiesInfo[addr].role != BlockchainAccountRole.SYSADMIN , \"A conta SYSADMIN no pode ser pausada\");\n        require( isTheSameID(responsible, addr) || legalEntitiesInfo[responsible].role == BlockchainAccountRole.SYSADMIN, \"Somente pode pausar uma conta quem for da mesma organizao ou System Administrator\" );\n        require( isValidatedAccount(addr) , \"Somente uma conta vlida pode ser pausada\");\n\n        legalEntitiesInfo[addr].paused = true;\n        \n        emit AccountPaused(addr, legalEntitiesInfo[addr].id, responsible);\n    }\n\n    function pauseLegalEntity(uint id) public onlyWhenNotPaused {\n\n        address responsible = msg.sender;\n        address[] memory addresses  = legalEntityId_To_Addr[id];\n\n        require( isTheSameID(responsible, addresses[0]) || legalEntitiesInfo[responsible].role == BlockchainAccountRole.SYSADMIN, \"Somente pode pausar uma conta quem for da mesma organizao ou System Administrator\" );\n\n        for (uint i=0; i < addresses.length ; i++) {\n            address candidate = addresses[i];\n            if( isValidatedAccount( candidate ) ) {\n                legalEntitiesInfo[candidate].paused = true;\n                emit AccountPaused( candidate, legalEntitiesInfo[candidate].id, responsible );\n            }\n        }   \n    }\n\n/**\n    * Unpause an account     \n    * @param addr Ethereum address that needs to be validated\n    */\n    function unpauseRegistryLegalEntity(address addr) public onlyWhenNotPaused {\n\n        address responsible = msg.sender;\n\n        require ( responsible != addr , \"Uma pessoa no  capaz de retirar o pause de sua prpria conta\");\n        require( isResponsibleForRegistryValidation(responsible) , \"Somente uma conta responsvel validadora pode despausar outras contas\" );        \n        require( legalEntitiesInfo[addr].paused  , \"Somente uma conta pausada pode ser despausada\" ); \n\n        legalEntitiesInfo[addr].paused = false;\n        \n        emit AccountUnpaused(addr, legalEntitiesInfo[addr].id, responsible);\n    }\n\n\n   /**\n    * Invalidates the initial registry of a legal entity or the change of its registry\n    * The invalidation can be called at any time in the lifecycle of the address (not only when it is WAITING_VALIDATION)\n    * @param addr Ethereum address that needs to be validated\n    */\n    function invalidateRegistryLegalEntity(address addr) public onlyWhenNotPaused {\n\n        address responsible = msg.sender;\n\n        require(isResponsibleForRegistryValidation(responsible), \"Somente responsvel pela validao pode invalidar contas\");\n        require ( legalEntitiesInfo[addr].role != BlockchainAccountRole.SYSADMIN , \"A conta SYSADMIN no pode ser invalidada\");\n        require ( legalEntitiesInfo[addr].state != BlockchainAccountState.INVALIDATED, \"A conta foi invalidada previamente.\" );\n\n        legalEntitiesInfo[addr].state = BlockchainAccountState.INVALIDATED;\n        \n        emit AccountInvalidation(addr, legalEntitiesInfo[addr].id, responsible);\n    }\n\n\n   /**\n    * By default, the owner is also the Responsible for Validation.\n    * The owner can assign other address to be the Responsible for Validation.\n    * @param addr Ethereum address to be assigned as Responsible for Validation.\n    */\n    function setResponsibleForRegistryValidation(address addr) public {\n        require ( ( legalEntitiesInfo[addr].role == BlockchainAccountRole.ADMIN || \n                 legalEntitiesInfo[addr].role == BlockchainAccountRole.SYSADMIN || isOwner(addr) ), \"Apenas Owner, Admin ou System-Admin podem dar poder de Admin\");\n        legalEntitiesInfo[addr].role = BlockchainAccountRole.ADMIN;        \n        emit AccountAdminUpgrade(addr, legalEntitiesInfo[addr].id, msg.sender);\n    }\n\n    function isResponsibleForRegistryValidation(address addr) public view returns (bool) {\n        return ( legalEntitiesInfo[addr].role == BlockchainAccountRole.ADMIN || \n                 legalEntitiesInfo[addr].role == BlockchainAccountRole.SYSADMIN   );\n    }\n\n    function isOwner(address addr) public view returns (bool) {\n        return owner()==addr;\n    }\n\n    function isAvailableAccount(address addr) public view returns (bool) {\n        return legalEntitiesInfo[addr].state == BlockchainAccountState.AVAILABLE;\n    }\n\n    function isWaitingValidationAccount(address addr) public view returns (bool) {\n        return legalEntitiesInfo[addr].state == BlockchainAccountState.WAITING_VALIDATION;\n    }\n\n    function isValidatedAccount(address addr) public view returns (bool) {\n        return legalEntitiesInfo[addr].state == BlockchainAccountState.VALIDATED;\n    }\n\n    function isInvalidated(address addr) public view returns (bool) {\n        return legalEntitiesInfo[addr].state == BlockchainAccountState.INVALIDATED;\n    }\n\n    function isTheSameID(address a, address b) public view returns (bool) {\n        return legalEntitiesInfo[a].id == legalEntitiesInfo[b].id ;\n    }\n\n    function getId (address addr) public view returns (uint) {\n        return legalEntitiesInfo[addr].id;\n    }\n\n    function getLegalEntityInfo (address addr) public view returns (uint, string memory, uint, uint, bool, address) {\n        return (  legalEntitiesInfo[addr].id, \n                  legalEntitiesInfo[addr].idProofHash, \n                  (uint) (legalEntitiesInfo[addr].state),\n                  (uint) (legalEntitiesInfo[addr].role),\n                  legalEntitiesInfo[addr].paused,\n                  addr \n               );\n    }\n\n    function getBlockchainAccounts(uint id) public view returns (address[] memory) {\n        return legalEntityId_To_Addr[id];\n    }\n\n    function getAccountState(address addr) public view returns (int) {\n        return ((int) (legalEntitiesInfo[addr].state));\n    }\n\n    function getAccountRole(address addr) public view returns (int) {\n        return ((int) (legalEntitiesInfo[addr].role));\n    }\n\n    function registryMock(uint id) public {\n        \n        address addr = msg.sender;\n        string memory idProofHash = \"\";\n\n        legalEntitiesInfo[addr] = LegalEntityInfo(id, idProofHash, BlockchainAccountState.VALIDATED, BlockchainAccountRole.ADMIN, false );\n\n        legalEntityId_To_Addr[id].push(addr);\n\n        emit AccountRegistration(addr, id, idProofHash);\n    }\n\n\n}",
  "sourcePath": "D:/git/rbb-identificacao/Back-Blockchain/contracts/RBBRegistry.sol",
  "compiler": {
    "name": "solc",
    "version": "0.5.8+commit.23d335f2.Emscripten.clang"
  },
  "schemaVersion": "3.0.16",
  "updatedAt": "2020-09-21T20:57:29.397Z",
  "devdoc": {
    "methods": {
      "invalidateRegistryLegalEntity(address)": {
        "params": {
          "addr": "Ethereum address that needs to be validated"
        }
      },
      "isOwner()": {
        "details": "Returns true if the caller is the current owner."
      },
      "owner()": {
        "details": "Returns the address of the current owner."
      },
      "pauseRegistryLegalEntity(address)": {
        "params": {
          "addr": "Ethereum address that needs to be paused"
        }
      },
      "registryLegalEntity(uint256,string)": {
        "params": {
          "id": "Brazilian identifier to legal entities",
          "idProofHash": "The legal entities have to send BNDES a PDF where it assumes as responsible for an Ethereum account.                  This PDF is signed with eCNPJ and send to BNDES."
        }
      },
      "renounceOwnership()": {
        "details": "Leaves the contract without owner. It will not be possible to call `onlyOwner` functions anymore. Can only be called by the current owner.     * NOTE: Renouncing ownership will leave the contract without an owner, thereby removing any functionality that is only available to the owner."
      },
      "setResponsibleForRegistryValidation(address)": {
        "params": {
          "addr": "Ethereum address to be assigned as Responsible for Validation."
        }
      },
      "transferOwnership(address)": {
        "details": "Transfers ownership of the contract to a new account (`newOwner`). Can only be called by the current owner."
      },
      "unpauseRegistryLegalEntity(address)": {
        "params": {
          "addr": "Ethereum address that needs to be validated"
        }
      },
      "validateRegistryLegalEntity(address)": {
        "params": {
          "userAddr": "Ethereum address that needs to be validated"
        }
      }
    }
  },
  "userdoc": {
    "methods": {
      "invalidateRegistryLegalEntity(address)": {
        "notice": "Invalidates the initial registry of a legal entity or the change of its registry The invalidation can be called at any time in the lifecycle of the address (not only when it is WAITING_VALIDATION)"
      },
      "pauseRegistryLegalEntity(address)": {
        "notice": "Pause an account     "
      },
      "registryLegalEntity(uint256,string)": {
        "notice": "Link blockchain address with ID"
      },
      "setResponsibleForRegistryValidation(address)": {
        "notice": "By default, the owner is also the Responsible for Validation. The owner can assign other address to be the Responsible for Validation."
      },
      "unpauseRegistryLegalEntity(address)": {
        "notice": "Unpause an account     "
      },
      "validateRegistryLegalEntity(address)": {
        "notice": "Validates the initial registry of a legal entity "
      }
    }
  }
}